{
  "address": "0xE8f3Ed040c0BbF6cE0FE901720bAeE3f808c961E",
  "abi": [
    {
      "inputs": [
        {
          "internalType": "string",
          "name": "metadata",
          "type": "string"
        },
        {
          "internalType": "uint256",
          "name": "displayStartTimestamp",
          "type": "uint256"
        },
        {
          "internalType": "uint256",
          "name": "displayEndTimestamp",
          "type": "uint256"
        }
      ],
      "name": "id",
      "outputs": [
        {
          "internalType": "uint256",
          "name": "",
          "type": "uint256"
        }
      ],
      "stateMutability": "pure",
      "type": "function"
    }
  ],
  "transactionHash": "0x45f58b95cbd9796890c9defa50941ef74115701f058a7dbb124fd4d268d07562",
  "args": [],
  "solcInputHash": "3b843421c7cbc4186a9b782888b147b3",
  "bytecode": "0x61022661003a600b82828239805160001a60731461002d57634e487b7160e01b600052600060045260246000fd5b30600052607381538281f3fe73000000000000000000000000000000000000000030146080604052600436106100355760003560e01c80633fb4aab01461003a575b600080fd5b61004d6100483660046100c5565b61005f565b60405190815260200160405180910390f35b60006904ee2d6d415b85acef8160201b84848460405160200161008493929190610188565b6040516020818303038152906040528051906020012060001c6100a791906101ce565b949350505050565b634e487b7160e01b600052604160045260246000fd5b6000806000606084860312156100da57600080fd5b83356001600160401b03808211156100f157600080fd5b818601915086601f83011261010557600080fd5b813581811115610117576101176100af565b604051601f8201601f19908116603f0116810190838211818310171561013f5761013f6100af565b8160405282815289602084870101111561015857600080fd5b82602086016020830137600060208483010152809750505050505060208401359150604084013590509250925092565b6000845160005b818110156101a9576020818801810151858301520161018f565b818111156101b8576000828501525b5091909101928352506020820152604001919050565b6000826101eb57634e487b7160e01b600052601260045260246000fd5b50069056fea2646970667358221220d2832f93f7cd116b187b8401816a026071f54fda71e366b460c9ef393c33cb4364736f6c634300080a0033",
  "devdoc": {
    "kind": "dev",
    "methods": {},
    "version": 1
  },
  "userdoc": {
    "kind": "user",
    "methods": {},
    "version": 1
  },
  "storageLayout": {
    "storage": [],
    "types": null
  }
}