{
  "address": "0xEf0Ad7130d8E7Bb334146a5b8fd18f21b86cd747",
  "abi": [
    {
      "inputs": [
        {
          "internalType": "address",
          "name": "nameRegistry",
          "type": "address"
        }
      ],
      "stateMutability": "nonpayable",
      "type": "constructor"
    },
    {
      "anonymous": false,
      "inputs": [
        {
          "indexed": false,
          "internalType": "uint256",
          "name": "postId",
          "type": "uint256"
        },
        {
          "indexed": false,
          "internalType": "uint256",
          "name": "bidId",
          "type": "uint256"
        }
      ],
      "name": "Accept",
      "type": "event"
    },
    {
      "anonymous": false,
      "inputs": [
        {
          "indexed": false,
          "internalType": "uint256",
          "name": "bidId",
          "type": "uint256"
        },
        {
          "indexed": false,
          "internalType": "uint256",
          "name": "postId",
          "type": "uint256"
        },
        {
          "indexed": false,
          "internalType": "address",
          "name": "sender",
          "type": "address"
        },
        {
          "indexed": false,
          "internalType": "uint256",
          "name": "price",
          "type": "uint256"
        },
        {
          "indexed": false,
          "internalType": "string",
          "name": "metadata",
          "type": "string"
        }
      ],
      "name": "Bid",
      "type": "event"
    },
    {
      "anonymous": false,
      "inputs": [
        {
          "indexed": false,
          "internalType": "uint256",
          "name": "bidId",
          "type": "uint256"
        },
        {
          "indexed": false,
          "internalType": "uint256",
          "name": "postId",
          "type": "uint256"
        },
        {
          "indexed": false,
          "internalType": "address",
          "name": "sender",
          "type": "address"
        },
        {
          "indexed": false,
          "internalType": "uint256",
          "name": "price",
          "type": "uint256"
        }
      ],
      "name": "Book",
      "type": "event"
    },
    {
      "anonymous": false,
      "inputs": [
        {
          "indexed": false,
          "internalType": "uint256",
          "name": "bidId",
          "type": "uint256"
        },
        {
          "indexed": false,
          "internalType": "uint256",
          "name": "postId",
          "type": "uint256"
        },
        {
          "indexed": false,
          "internalType": "address",
          "name": "sender",
          "type": "address"
        },
        {
          "indexed": false,
          "internalType": "uint256",
          "name": "price",
          "type": "uint256"
        }
      ],
      "name": "Call",
      "type": "event"
    },
    {
      "anonymous": false,
      "inputs": [
        {
          "indexed": false,
          "internalType": "uint256",
          "name": "bitId",
          "type": "uint256"
        },
        {
          "indexed": false,
          "internalType": "uint256",
          "name": "postId",
          "type": "uint256"
        },
        {
          "indexed": false,
          "internalType": "address",
          "name": "successfulBidder",
          "type": "address"
        },
        {
          "indexed": false,
          "internalType": "uint256",
          "name": "price",
          "type": "uint256"
        },
        {
          "indexed": false,
          "internalType": "string",
          "name": "metadata",
          "type": "string"
        }
      ],
      "name": "Close",
      "type": "event"
    },
    {
      "anonymous": false,
      "inputs": [
        {
          "indexed": false,
          "internalType": "uint256",
          "name": "bidId",
          "type": "uint256"
        },
        {
          "indexed": false,
          "internalType": "uint256",
          "name": "postId",
          "type": "uint256"
        }
      ],
      "name": "Deny",
      "type": "event"
    },
    {
      "anonymous": false,
      "inputs": [
        {
          "indexed": false,
          "internalType": "uint256",
          "name": "postId",
          "type": "uint256"
        },
        {
          "indexed": false,
          "internalType": "address",
          "name": "owner",
          "type": "address"
        },
        {
          "indexed": false,
          "internalType": "uint256",
          "name": "minPrice",
          "type": "uint256"
        },
        {
          "indexed": false,
          "internalType": "string",
          "name": "metadata",
          "type": "string"
        },
        {
          "indexed": false,
          "internalType": "uint256",
          "name": "fromTimestamp",
          "type": "uint256"
        },
        {
          "indexed": false,
          "internalType": "uint256",
          "name": "toTimestamp",
          "type": "uint256"
        }
      ],
      "name": "NewPost",
      "type": "event"
    },
    {
      "anonymous": false,
      "inputs": [
        {
          "indexed": false,
          "internalType": "uint256",
          "name": "bidId",
          "type": "uint256"
        },
        {
          "indexed": false,
          "internalType": "uint256",
          "name": "postId",
          "type": "uint256"
        },
        {
          "indexed": false,
          "internalType": "string",
          "name": "metadata",
          "type": "string"
        }
      ],
      "name": "Propose",
      "type": "event"
    },
    {
      "anonymous": false,
      "inputs": [
        {
          "indexed": false,
          "internalType": "uint256",
          "name": "bitId",
          "type": "uint256"
        },
        {
          "indexed": false,
          "internalType": "uint256",
          "name": "postId",
          "type": "uint256"
        },
        {
          "indexed": false,
          "internalType": "address",
          "name": "sender",
          "type": "address"
        },
        {
          "indexed": false,
          "internalType": "uint256",
          "name": "price",
          "type": "uint256"
        }
      ],
      "name": "Refund",
      "type": "event"
    },
    {
      "anonymous": false,
      "inputs": [
        {
          "indexed": false,
          "internalType": "uint256",
          "name": "postId",
          "type": "uint256"
        }
      ],
      "name": "SuspendPost",
      "type": "event"
    },
    {
      "inputs": [
        {
          "internalType": "uint256",
          "name": "postId",
          "type": "uint256"
        }
      ],
      "name": "accept",
      "outputs": [],
      "stateMutability": "nonpayable",
      "type": "function"
    },
    {
      "inputs": [
        {
          "internalType": "uint256",
          "name": "",
          "type": "uint256"
        }
      ],
      "name": "allPosts",
      "outputs": [
        {
          "internalType": "uint256",
          "name": "postId",
          "type": "uint256"
        },
        {
          "internalType": "address",
          "name": "owner",
          "type": "address"
        },
        {
          "internalType": "uint256",
          "name": "minPrice",
          "type": "uint256"
        },
        {
          "internalType": "string",
          "name": "metadata",
          "type": "string"
        },
        {
          "internalType": "uint256",
          "name": "fromTimestamp",
          "type": "uint256"
        },
        {
          "internalType": "uint256",
          "name": "toTimestamp",
          "type": "uint256"
        },
        {
          "internalType": "uint256",
          "name": "successfulBidId",
          "type": "uint256"
        }
      ],
      "stateMutability": "view",
      "type": "function"
    },
    {
      "inputs": [
        {
          "internalType": "uint256",
          "name": "postId",
          "type": "uint256"
        },
        {
          "internalType": "string",
          "name": "metadata",
          "type": "string"
        }
      ],
      "name": "bid",
      "outputs": [],
      "stateMutability": "payable",
      "type": "function"
    },
    {
      "inputs": [
        {
          "internalType": "uint256",
          "name": "",
          "type": "uint256"
        }
      ],
      "name": "bidderInfo",
      "outputs": [
        {
          "internalType": "uint256",
          "name": "bidId",
          "type": "uint256"
        },
        {
          "internalType": "uint256",
          "name": "postId",
          "type": "uint256"
        },
        {
          "internalType": "address",
          "name": "sender",
          "type": "address"
        },
        {
          "internalType": "uint256",
          "name": "price",
          "type": "uint256"
        },
        {
          "internalType": "string",
          "name": "metadata",
          "type": "string"
        },
        {
          "internalType": "enum MediaFacade.DraftStatus",
          "name": "status",
          "type": "uint8"
        }
      ],
      "stateMutability": "view",
      "type": "function"
    },
    {
      "inputs": [
        {
          "internalType": "uint256",
          "name": "postId",
          "type": "uint256"
        }
      ],
      "name": "bidderList",
      "outputs": [
        {
          "internalType": "uint256[]",
          "name": "",
          "type": "uint256[]"
        }
      ],
      "stateMutability": "view",
      "type": "function"
    },
    {
      "inputs": [
        {
          "internalType": "uint256",
          "name": "",
          "type": "uint256"
        },
        {
          "internalType": "uint256",
          "name": "",
          "type": "uint256"
        }
      ],
      "name": "bidders",
      "outputs": [
        {
          "internalType": "uint256",
          "name": "",
          "type": "uint256"
        }
      ],
      "stateMutability": "view",
      "type": "function"
    },
    {
      "inputs": [
        {
          "internalType": "uint256",
          "name": "postId",
          "type": "uint256"
        }
      ],
      "name": "book",
      "outputs": [],
      "stateMutability": "payable",
      "type": "function"
    },
    {
      "inputs": [
        {
          "internalType": "uint256",
          "name": "",
          "type": "uint256"
        }
      ],
      "name": "bookedBidIds",
      "outputs": [
        {
          "internalType": "uint256",
          "name": "",
          "type": "uint256"
        }
      ],
      "stateMutability": "view",
      "type": "function"
    },
    {
      "inputs": [
        {
          "internalType": "uint256",
          "name": "bidId",
          "type": "uint256"
        }
      ],
      "name": "call",
      "outputs": [],
      "stateMutability": "nonpayable",
      "type": "function"
    },
    {
      "inputs": [
        {
          "internalType": "uint256",
          "name": "bidId",
          "type": "uint256"
        }
      ],
      "name": "close",
      "outputs": [],
      "stateMutability": "nonpayable",
      "type": "function"
    },
    {
      "inputs": [
        {
          "internalType": "uint256",
          "name": "postId",
          "type": "uint256"
        }
      ],
      "name": "deny",
      "outputs": [],
      "stateMutability": "nonpayable",
      "type": "function"
    },
    {
      "inputs": [
        {
          "internalType": "address",
          "name": "account",
          "type": "address"
        },
        {
          "internalType": "string",
          "name": "metadata",
          "type": "string"
        }
      ],
      "name": "displayByMetadata",
      "outputs": [
        {
          "internalType": "string",
          "name": "",
          "type": "string"
        }
      ],
      "stateMutability": "view",
      "type": "function"
    },
    {
      "inputs": [],
      "name": "distributionRightAddress",
      "outputs": [
        {
          "internalType": "address",
          "name": "",
          "type": "address"
        }
      ],
      "stateMutability": "view",
      "type": "function"
    },
    {
      "inputs": [
        {
          "internalType": "address",
          "name": "",
          "type": "address"
        },
        {
          "internalType": "string",
          "name": "",
          "type": "string"
        },
        {
          "internalType": "uint256",
          "name": "",
          "type": "uint256"
        }
      ],
      "name": "inventories",
      "outputs": [
        {
          "internalType": "uint256",
          "name": "",
          "type": "uint256"
        }
      ],
      "stateMutability": "view",
      "type": "function"
    },
    {
      "inputs": [
        {
          "internalType": "uint256",
          "name": "postId",
          "type": "uint256"
        },
        {
          "internalType": "uint256",
          "name": "price",
          "type": "uint256"
        }
      ],
      "name": "isGteMinPrice",
      "outputs": [
        {
          "internalType": "bool",
          "name": "",
          "type": "bool"
        }
      ],
      "stateMutability": "view",
      "type": "function"
    },
    {
      "inputs": [
        {
          "internalType": "address",
          "name": "",
          "type": "address"
        },
        {
          "internalType": "uint256",
          "name": "",
          "type": "uint256"
        }
      ],
      "name": "mediaMetadata",
      "outputs": [
        {
          "internalType": "string",
          "name": "",
          "type": "string"
        }
      ],
      "stateMutability": "view",
      "type": "function"
    },
    {
      "inputs": [],
      "name": "metadataList",
      "outputs": [
        {
          "internalType": "string[]",
          "name": "",
          "type": "string[]"
        }
      ],
      "stateMutability": "view",
      "type": "function"
    },
    {
      "inputs": [],
      "name": "nameRegistryAddress",
      "outputs": [
        {
          "internalType": "address",
          "name": "",
          "type": "address"
        }
      ],
      "stateMutability": "view",
      "type": "function"
    },
    {
      "inputs": [
        {
          "internalType": "uint256",
          "name": "minPrice",
          "type": "uint256"
        },
        {
          "internalType": "string",
          "name": "metadata",
          "type": "string"
        },
        {
          "internalType": "uint256",
          "name": "fromTimestamp",
          "type": "uint256"
        },
        {
          "internalType": "uint256",
          "name": "toTimestamp",
          "type": "uint256"
        }
      ],
      "name": "newPost",
      "outputs": [],
      "stateMutability": "nonpayable",
      "type": "function"
    },
    {
      "inputs": [],
      "name": "nextBidId",
      "outputs": [
        {
          "internalType": "uint256",
          "name": "",
          "type": "uint256"
        }
      ],
      "stateMutability": "view",
      "type": "function"
    },
    {
      "inputs": [],
      "name": "nextPostId",
      "outputs": [
        {
          "internalType": "uint256",
          "name": "",
          "type": "uint256"
        }
      ],
      "stateMutability": "view",
      "type": "function"
    },
    {
      "inputs": [],
      "name": "owner",
      "outputs": [
        {
          "internalType": "address",
          "name": "",
          "type": "address"
        }
      ],
      "stateMutability": "view",
      "type": "function"
    },
    {
      "inputs": [],
      "name": "postOwnerPoolAddress",
      "outputs": [
        {
          "internalType": "address",
          "name": "",
          "type": "address"
        }
      ],
      "stateMutability": "view",
      "type": "function"
    },
    {
      "inputs": [
        {
          "internalType": "uint256",
          "name": "postId",
          "type": "uint256"
        },
        {
          "internalType": "string",
          "name": "metadata",
          "type": "string"
        }
      ],
      "name": "propose",
      "outputs": [],
      "stateMutability": "nonpayable",
      "type": "function"
    },
    {
      "inputs": [
        {
          "internalType": "uint256",
          "name": "bidId",
          "type": "uint256"
        }
      ],
      "name": "refund",
      "outputs": [],
      "stateMutability": "nonpayable",
      "type": "function"
    },
    {
      "inputs": [],
      "name": "reservedRightAddress",
      "outputs": [
        {
          "internalType": "address",
          "name": "",
          "type": "address"
        }
      ],
      "stateMutability": "view",
      "type": "function"
    },
    {
      "inputs": [
        {
          "internalType": "uint256",
          "name": "postId",
          "type": "uint256"
        }
      ],
      "name": "suspendPost",
      "outputs": [],
      "stateMutability": "nonpayable",
      "type": "function"
    },
    {
      "inputs": [],
      "name": "vaultAddress",
      "outputs": [
        {
          "internalType": "address",
          "name": "",
          "type": "address"
        }
      ],
      "stateMutability": "view",
      "type": "function"
    }
  ],
  "transactionHash": "0xd8b52b9289aae3187f24a78122a645fd22d5e73195afbaf97527f4c981f32ac5",
  "args": [
    "0x87b74aC01B028558A8Af2409e59C709f409f2e80"
  ],
  "solcInputHash": "d8269bf08e62262dc92297179008e96b",
  "bytecode": "0x6001600781905560085560c0604052601360808190527f68747470733a2f2f6b616c6569646f2e696f2f0000000000000000000000000060a09081526200004a9160099190620000a1565b503480156200005857600080fd5b5060405162003316380380620033168339810160408190526200007b9162000147565b600080546001600160a01b0319166001600160a01b0392909216919091179055620001b6565b828054620000af9062000179565b90600052602060002090601f016020900481019282620000d357600085556200011e565b82601f10620000ee57805160ff19168380011785556200011e565b828001600101855582156200011e579182015b828111156200011e57825182559160200191906001019062000101565b506200012c92915062000130565b5090565b5b808211156200012c576000815560010162000131565b6000602082840312156200015a57600080fd5b81516001600160a01b03811681146200017257600080fd5b9392505050565b600181811c908216806200018e57607f821691505b60208210811415620001b057634e487b7160e01b600052602260045260246000fd5b50919050565b61315080620001c66000396000f3fe6080604052600436106101b75760003560e01c80635c09bd98116100ec578063ac6919a51161008a578063d3584e8411610064578063d3584e84146104e8578063d4f6b5ec14610515578063dc26904914610535578063ef95e90f1461054b57600080fd5b8063ac6919a514610493578063b3a83640146104a8578063d1c11205146104c857600080fd5b80638da5cb5b116100c65780638da5cb5b1461041e578063938baab814610433578063971e178d14610453578063a0bac06a1461047357600080fd5b80635c09bd98146103b3578063718ce2bc146103c95780637859427a146103fc57600080fd5b8063278ecde1116101595780632b096926116101335780632b0969261461032e578063430bf08a1461034e57806356f6628214610363578063574a1c3f1461038357600080fd5b8063278ecde1146102c757806327b7a2f5146102e757806329a594b51461031957600080fd5b80630e376fda116101955780630e376fda146102465780630fc55fd1146102815780631116fd041461029457806319b05f49146102a757600080fd5b806304caebc0146101bc5780630aebeb4e146101f25780630d5daf3b14610214575b600080fd5b3480156101c857600080fd5b506101dc6101d7366004612be2565b610560565b6040516101e99190612e80565b60405180910390f35b3480156101fe57600080fd5b5061021261020d366004612c0e565b610619565b005b34801561022057600080fd5b5061023461022f366004612c0e565b610ae6565b6040516101e996959493929190612f62565b34801561025257600080fd5b50610273610261366004612c0e565b60046020526000908152604090205481565b6040519081526020016101e9565b61021261028f366004612c27565b610bb2565b6102126102a2366004612c0e565b610bc0565b3480156102b357600080fd5b506102126102c2366004612c0e565b610bcc565b3480156102d357600080fd5b506102126102e2366004612c0e565b610d9b565b3480156102f357600080fd5b506000546001600160a01b03165b6040516001600160a01b0390911681526020016101e9565b34801561032557600080fd5b5061030161109d565b34801561033a57600080fd5b50610212610349366004612c0e565b611169565b34801561035a57600080fd5b50610301611670565b34801561036f57600080fd5b5061021261037e366004612c0e565b6116b7565b34801561038f57600080fd5b506103a361039e366004612caf565b6117db565b60405190151581526020016101e9565b3480156103bf57600080fd5b5061027360075481565b3480156103d557600080fd5b506103e96103e4366004612c0e565b6117f7565b6040516101e99796959493929190612ed6565b34801561040857600080fd5b506104116118c5565b6040516101e99190612dda565b34801561042a57600080fd5b506103016119a9565b34801561043f57600080fd5b506101dc61044e366004612b39565b6119f8565b34801561045f57600080fd5b5061027361046e366004612b89565b611d1e565b34801561047f57600080fd5b5061021261048e366004612c0e565b611d6b565b34801561049f57600080fd5b50610301611e4e565b3480156104b457600080fd5b506102126104c3366004612c58565b611e95565b3480156104d457600080fd5b506102736104e3366004612caf565b61238e565b3480156104f457600080fd5b50610508610503366004612c0e565b6123bf565b6040516101e99190612e3c565b34801561052157600080fd5b50610212610530366004612c27565b612421565b34801561054157600080fd5b5061027360085481565b34801561055757600080fd5b5061030161262c565b6006602052816000526040600020818154811061057c57600080fd5b9060005260206000200160009150915050805461059890613057565b80601f01602080910402602001604051908101604052809291908181526020018280546105c490613057565b80156106115780601f106105e657610100808354040283529160200191610611565b820191906000526020600020905b8154815290600101906020018083116105f457829003601f168201915b505050505081565b6000818152600560209081526040808320815160c0810183528154815260018201549381019390935260028101546001600160a01b031691830191909152600381015460608301526004810180548594939291608084019161067a90613057565b80601f01602080910402602001604051908101604052809291908181526020018280546106a690613057565b80156106f35780601f106106c8576101008083540402835291602001916106f3565b820191906000526020600020905b8154815290600101906020018083116106d657829003601f168201915b5050509183525050600582015460209091019060ff16600681111561071a5761071a6130c3565b600681111561072b5761072b6130c3565b8152505090504260016000836020015181526020019081526020016000206005015410156107885760405162461bcd60e51b8152602060048201526005602482015264082886260760db1b60448201526064015b60405180910390fd5b6000838152600560209081526040808320815160c0810183528154815260018201549381019390935260028101546001600160a01b031691830191909152600381015460608301526004810180546080840191906107e590613057565b80601f016020809104026020016040519081016040528092919081815260200182805461081190613057565b801561085e5780601f106108335761010080835404028352916020019161085e565b820191906000526020600020905b81548152906001019060200180831161084157829003601f168201915b5050509183525050600582015460209091019060ff166006811115610885576108856130c3565b6006811115610896576108966130c3565b90525080519091506108d25760405162461bcd60e51b8152602060048201526005602482015264414431303360d81b604482015260640161077f565b60208082015160009081526001918290526040902001546001600160a01b031633146109285760405162461bcd60e51b815260206004820152600560248201526420a218981960d91b604482015260640161077f565b602080820151600090815260019091526040902060060154156109755760405162461bcd60e51b815260206004820152600560248201526420a218981960d91b604482015260640161077f565b60018160a00151600681111561098d5761098d6130c3565b146109c25760405162461bcd60e51b815260206004820152600560248201526420a218981960d91b604482015260640161077f565b6109e081602001518560009182526001602052604090912060060155565b600560a0820152606081015133906108fc90600a90610a00906009613008565b610a0a9190612fe6565b6040518115909202916000818181858888f19350505050158015610a32573d6000803e3d6000fd5b50610a3b612673565b6001600160a01b03166108fc600a83606001516001610a5a9190613008565b610a649190612fe6565b6040518115909202916000818181858888f19350505050158015610a8c573d6000803e3d6000fd5b507ff763d6ab2a4f1accf9c4fca103d30b90f90db83afeaad6b67481601184b1690d81600001518260200151836040015184606001518560800151604051610ad8959493929190612f23565b60405180910390a150505050565b60056020526000908152604090208054600182015460028301546003840154600485018054949593946001600160a01b03909316939192610b2690613057565b80601f0160208091040260200160405190810160405280929190818152602001828054610b5290613057565b8015610b9f5780601f10610b7457610100808354040283529160200191610b9f565b820191906000526020600020905b815481529060010190602001808311610b8257829003601f168201915b5050506005909301549192505060ff1686565b610bbc828261267d565b5050565b610bc9816126d8565b50565b6000818152600160205260409020600501548190421115610c175760405162461bcd60e51b8152602060048201526005602482015264082886260760db1b604482015260640161077f565b600082815260016020819052604090912001546001600160a01b03163314610c695760405162461bcd60e51b8152602060048201526005602482015264414431303560d81b604482015260640161077f565b60008281526004602052604090205460036000828152600560208190526040909120015460ff166006811115610ca157610ca16130c3565b14610cd65760405162461bcd60e51b815260206004820152600560248201526420a218981960d91b604482015260640161077f565b60008181526005602081905260409091208101805460ff19169091179055610cfc612751565b6001600160a01b03166342966c68846040518263ffffffff1660e01b8152600401610d2991815260200190565b600060405180830381600087803b158015610d4357600080fd5b505af1158015610d57573d6000803e3d6000fd5b505060408051868152602081018590527f66b40296db692bd2f393bda18cf3f9d917966186767279128a62afeb90e43b3993500190505b60405180910390a1505050565b6000818152600560209081526040808320815160c0810183528154815260018201549381019390935260028101546001600160a01b03169183019190915260038101546060830152600481018054608084019190610df890613057565b80601f0160208091040260200160405190810160405280929190818152602001828054610e2490613057565b8015610e715780601f10610e4657610100808354040283529160200191610e71565b820191906000526020600020905b815481529060010190602001808311610e5457829003601f168201915b5050509183525050600582015460209091019060ff166006811115610e9857610e986130c3565b6006811115610ea957610ea96130c3565b90525060408101519091506001600160a01b03163314610f0b5760405162461bcd60e51b815260206004820152600560248201527f4144313034000000000000000000000000000000000000000000000000000000604482015260640161077f565b602080820151600090815260019091526040902060060154821415610f725760405162461bcd60e51b815260206004820152600560248201527f4144313037000000000000000000000000000000000000000000000000000000604482015260640161077f565b60066000838152600560208190526040909120015460ff166006811115610f9b57610f9b6130c3565b1415610fe95760405162461bcd60e51b815260206004820152600560248201527f4144313139000000000000000000000000000000000000000000000000000000604482015260640161077f565b600082815260056020526040808220600301549051339282156108fc02929190818181858888f19350505050158015611026573d6000803e3d6000fd5b50600082815260056020818152604092839020918201805460ff191660061790556001820154600390920154835186815291820192909252339281019290925260608201527f303a7a5ed564cf1b7e8ec302e0d290e0c69d9785d1e5d43db651d7995f0bc019906080015b60405180910390a15050565b600080546040517f526573657276656452696768740000000000000000000000000000000000000060208201526001600160a01b0390911690638eaa6ac090602d015b604051602081830303815290604052805190602001206040518263ffffffff1660e01b815260040161111491815260200190565b60206040518083038186803b15801561112c57600080fd5b505afa158015611140573d6000803e3d6000fd5b505050506040513d601f19601f820116820180604052508101906111649190612b15565b905090565b6000818152600560209081526040808320815160c0810183528154815260018201549381019390935260028101546001600160a01b03169183019190915260038101546060830152600481018054859493929160808401916111ca90613057565b80601f01602080910402602001604051908101604052809291908181526020018280546111f690613057565b80156112435780601f1061121857610100808354040283529160200191611243565b820191906000526020600020905b81548152906001019060200180831161122657829003601f168201915b5050509183525050600582015460209091019060ff16600681111561126a5761126a6130c3565b600681111561127b5761127b6130c3565b8152505090504260016000836020015181526020019081526020016000206005015410156112d35760405162461bcd60e51b8152602060048201526005602482015264082886260760db1b604482015260640161077f565b6000838152600560209081526040808320815160c0810183528154815260018201549381019390935260028101546001600160a01b0316918301919091526003810154606083015260048101805460808401919061133090613057565b80601f016020809104026020016040519081016040528092919081815260200182805461135c90613057565b80156113a95780601f1061137e576101008083540402835291602001916113a9565b820191906000526020600020905b81548152906001019060200180831161138c57829003601f168201915b5050509183525050600582015460209091019060ff1660068111156113d0576113d06130c3565b60068111156113e1576113e16130c3565b905250805190915061141d5760405162461bcd60e51b8152602060048201526005602482015264414431303360d81b604482015260640161077f565b60208082015160009081526001918290526040902001546001600160a01b031633146114735760405162461bcd60e51b815260206004820152600560248201526420a218981960d91b604482015260640161077f565b602080820151600090815260019091526040902060060154156114d85760405162461bcd60e51b815260206004820152600560248201527f4144313133000000000000000000000000000000000000000000000000000000604482015260640161077f565b60008160a0015160068111156114f0576114f06130c3565b146115255760405162461bcd60e51b815260206004820152600560248201526420a218981960d91b604482015260640161077f565b602081810180516000908152600483526040808220889055600260a086015291518152600190925290206006018490556060810151604051339180156108fc02916000818181858888f19350505050158015611585573d6000803e3d6000fd5b5061158e612751565b6001600160a01b031663d3fc98648260400151836020015160016000866020015181526020019081526020016000206003016040518463ffffffff1660e01b81526004016115de93929190612d19565b600060405180830381600087803b1580156115f857600080fd5b505af115801561160c573d6000803e3d6000fd5b505050507f70c21df4a109699ac5cbee04e25054d865a14a532529a731a11afcd25ed1914a84826020015183604001518460600151604051610ad8949392919093845260208401929092526001600160a01b03166040830152606082015260800190565b600080546040517f5661756c7400000000000000000000000000000000000000000000000000000060208201526001600160a01b0390911690638eaa6ac0906025016110e0565b600081815260046020908152604080832054600192839052922001546001600160a01b031633146117125760405162461bcd60e51b8152602060048201526005602482015264414431313160d81b604482015260640161077f565b60036000828152600560208190526040909120015460ff16600681111561173b5761173b6130c3565b146117885760405162461bcd60e51b815260206004820152600560248201527f4144313036000000000000000000000000000000000000000000000000000000604482015260640161077f565b600081815260056020818152604092839020909101805460ff1916600417905581518381529081018490527fb4f2cd71a07f3c432393e99783b21b73c1ccf8f528fd95885166c9f8a83669d69101611091565b6000828152600160205260409020600201548110155b92915050565b600160208190526000918252604090912080549181015460028201546003830180546001600160a01b0390931693919261183090613057565b80601f016020809104026020016040519081016040528092919081815260200182805461185c90613057565b80156118a95780601f1061187e576101008083540402835291602001916118a9565b820191906000526020600020905b81548152906001019060200180831161188c57829003601f168201915b5050505050908060040154908060050154908060060154905087565b336000908152600660209081526040808320805482518185028101850190935280835260609492939192909184015b828210156119a057838290600052602060002001805461191390613057565b80601f016020809104026020016040519081016040528092919081815260200182805461193f90613057565b801561198c5780601f106119615761010080835404028352916020019161198c565b820191906000526020600020905b81548152906001019060200180831161196f57829003601f168201915b5050505050815260200190600101906118f4565b50505050905090565b60008060009054906101000a90046001600160a01b03166001600160a01b0316638da5cb5b6040518163ffffffff1660e01b815260040160206040518083038186803b15801561112c57600080fd5b606060005b6001600160a01b038416600090815260026020526040908190209051611a24908590612cfd565b90815260405190819003602001902054811015611cd5576001600160a01b0384166000908152600260205260408082209051611ba5926001929091611a6a908890612cfd565b90815260200160405180910390208481548110611a8957611a896130d9565b906000526020600020015481526020019081526020016000206040518060e0016040529081600082015481526020016001820160009054906101000a90046001600160a01b03166001600160a01b03166001600160a01b0316815260200160028201548152602001600382018054611b0090613057565b80601f0160208091040260200160405190810160405280929190818152602001828054611b2c90613057565b8015611b795780601f10611b4e57610100808354040283529160200191611b79565b820191906000526020600020905b815481529060010190602001808311611b5c57829003601f168201915b50505050508152602001600482015481526020016005820154815260200160068201548152505061275b565b15611cc357600560006001600060026000896001600160a01b03166001600160a01b0316815260200190815260200160002087604051611be59190612cfd565b90815260200160405180910390208581548110611c0457611c046130d9565b906000526020600020015481526020019081526020016000206006015481526020019081526020016000206004018054611c3d90613057565b80601f0160208091040260200160405190810160405280929190818152602001828054611c6990613057565b8015611cb65780601f10611c8b57610100808354040283529160200191611cb6565b820191906000526020600020905b815481529060010190602001808311611c9957829003601f168201915b50505050509150506117f1565b80611ccd81613092565b9150506119fd565b5060405162461bcd60e51b815260206004820152600560248201527f4144313130000000000000000000000000000000000000000000000000000000604482015260640161077f565b60026020908152600084815260409020835180850183018051928152908301928501929092209152805482908110611d5557600080fd5b9060005260206000200160009250925050505481565b600081815260016020819052604090912001546001600160a01b03163314611dbd5760405162461bcd60e51b8152602060048201526005602482015264414431313160d81b604482015260640161077f565b60008181526001602052604090206006015415611df65760405162461bcd60e51b8152602060048201526000602482015260440161077f565b6000818152600160205260408082206004810183905560050191909155517f77bc67d3ff6cbf07f41ff9533a267475af8be9dbf8f22112a7b7dfbe9cdff6b190611e439083815260200190565b60405180910390a150565b600080546040517f446973747269627574696f6e526967687400000000000000000000000000000060208201526001600160a01b0390911690638eaa6ac0906031016110e0565b808210611ecc5760405162461bcd60e51b8152602060048201526005602482015264414431303160d81b604482015260640161077f565b428111611f1b5760405162461bcd60e51b815260206004820152600560248201527f4144313134000000000000000000000000000000000000000000000000000000604482015260640161077f565b611f646040518060e001604052806000815260200160006001600160a01b0316815260200160008152602001606081526020016000815260200160008152602001600081525090565b60078054906000611f7483613092565b90915550815233602082015260408101859052606081018490526080810183905260a0810182905260005b3360009081526002602052604090819020606084015191519091611fc291612cfd565b908152604051908190036020019020548110156121945733600090815260026020526040808220606085015191516001928492916120009190612cfd565b9081526020016040518091039020848154811061201f5761201f6130d9565b906000526020600020015481526020019081526020016000206040518060e0016040529081600082015481526020016001820160009054906101000a90046001600160a01b03166001600160a01b03166001600160a01b031681526020016002820154815260200160038201805461209690613057565b80601f01602080910402602001604051908101604052809291908181526020018280546120c290613057565b801561210f5780601f106120e45761010080835404028352916020019161210f565b820191906000526020600020905b8154815290600101906020018083116120f257829003601f168201915b505050505081526020016004820154815260200160058201548152602001600682015481525050905061214c858583608001518460a00151612775565b156121815760405162461bcd60e51b8152602060048201526005602482015264414431303160d81b604482015260640161077f565b508061218c81613092565b915050611f9f565b50336000908152600660209081526040822080546001810182559083529181902086516121c89391909101918701906129a0565b5080516000908152600160208181526040928390208451815581850151928101805473ffffffffffffffffffffffffffffffffffffffff19166001600160a01b03909416939093179092559183015160028201556060830151805184936122369260038501929101906129a0565b506080820151600482015560a0820151600582015560c090910151600690910155336000908152600260205260409081902060608301519151909161227a91612cfd565b9081526040516020918190038201902082518154600181018355600092835292909120909101556122a9612790565b815160208301516040517f016a752200000000000000000000000000000000000000000000000000000000815260048101929092526001600160a01b039081166024830152919091169063016a752290604401600060405180830381600087803b15801561231657600080fd5b505af115801561232a573d6000803e3d6000fd5b505050507f3dcfb80a04cee365ae770f8bb82b4396595d95c71d886e38c7707c4294c1c004816000015182602001518360400151846060015185608001518660a0015160405161237f96959493929190612e93565b60405180910390a15050505050565b600360205281600052604060002081815481106123aa57600080fd5b90600052602060002001600091509150505481565b60008181526003602090815260409182902080548351818402810184019094528084526060939283018282801561241557602002820191906000526020600020905b815481526020019060010190808311612401575b50505050509050919050565b600082815260016020526040902060050154829042111561246c5760405162461bcd60e51b8152602060048201526005602482015264082886260760db1b604482015260640161077f565b33612475612751565b6001600160a01b0316636352211e856040518263ffffffff1660e01b81526004016124a291815260200190565b60206040518083038186803b1580156124ba57600080fd5b505afa1580156124ce573d6000803e3d6000fd5b505050506040513d601f19601f820116820180604052508101906124f29190612b15565b6001600160a01b0316146125305760405162461bcd60e51b8152602060048201526005602482015264414431303560d81b604482015260640161077f565b60008381526004602052604090205460036000828152600560208190526040909120015460ff166006811115612568576125686130c3565b14156125b65760405162461bcd60e51b815260206004820152600560248201527f4144313132000000000000000000000000000000000000000000000000000000604482015260640161077f565b600081815260056020908152604090912084516125db926004909201918601906129a0565b5060008181526005602081905260409182902001805460ff19166003179055517f3210cee2deb4838dde3ae606fd6b2e36543e05f2629f4d6fe336fc572c06a33590610ad890839087908790612fc7565b600080546040517f506f73744f776e6572506f6f6c0000000000000000000000000000000000000060208201526001600160a01b0390911690638eaa6ac090602d016110e0565b6000611164611670565b600880546000918261268e83613092565b9190505590506126a1838284600161279a565b7f01662ff7392d9961759cf40cab7a64e5ad660ba64a9df944343ce23b2b94c4478184333486604051610d8e959493929190612f23565b60088054600091826126e983613092565b91905055905061270b828260405180602001604052806000815250600061279a565b604080518281526020810184905233918101919091523460608201527fa9dfceace4f13fa67be6499ce107d4e132c418d2cdeb93219a08c7f9c7fa634a90608001611091565b6000611164611e4e565b60004282608001511080156117f157505060a00151421090565b60008383111580156127875750848210155b95945050505050565b600061116461262c565b60008481526001602052604090206005015484904211156127e55760405162461bcd60e51b8152602060048201526005602482015264082886260760db1b604482015260640161077f565b6000858152600160205260409020600601541561282c5760405162461bcd60e51b815260206004820152600560248201526420a218981960d91b604482015260640161077f565b61283685346117db565b6128825760405162461bcd60e51b815260206004820152600560248201527f4144313135000000000000000000000000000000000000000000000000000000604482015260640161077f565b61288a612a24565b848152602081018690523360408201523460608201526080810184905260a081018360068111156128bd576128bd6130c3565b908160068111156128d0576128d06130c3565b9052508051600090815260056020908152604091829020835181558184015160018201559183015160028301805473ffffffffffffffffffffffffffffffffffffffff19166001600160a01b03909216919091179055606083015160038301556080830151805184939261294b9260048501929101906129a0565b5060a082015160058201805460ff1916600183600681111561296f5761296f6130c3565b0217905550505060009586526003602090815260408720915182546001810184559288529620019490945550505050565b8280546129ac90613057565b90600052602060002090601f0160209004810192826129ce5760008555612a14565b82601f106129e757805160ff1916838001178555612a14565b82800160010185558215612a14579182015b82811115612a145782518255916020019190600101906129f9565b50612a20929150612a73565b5090565b6040518060c00160405280600081526020016000815260200160006001600160a01b03168152602001600081526020016060815260200160006006811115612a6e57612a6e6130c3565b905290565b5b80821115612a205760008155600101612a74565b600082601f830112612a9957600080fd5b813567ffffffffffffffff80821115612ab457612ab46130ef565b604051601f8301601f19908116603f01168101908282118183101715612adc57612adc6130ef565b81604052838152866020858801011115612af557600080fd5b836020870160208301376000602085830101528094505050505092915050565b600060208284031215612b2757600080fd5b8151612b3281613105565b9392505050565b60008060408385031215612b4c57600080fd5b8235612b5781613105565b9150602083013567ffffffffffffffff811115612b7357600080fd5b612b7f85828601612a88565b9150509250929050565b600080600060608486031215612b9e57600080fd5b8335612ba981613105565b9250602084013567ffffffffffffffff811115612bc557600080fd5b612bd186828701612a88565b925050604084013590509250925092565b60008060408385031215612bf557600080fd5b8235612c0081613105565b946020939093013593505050565b600060208284031215612c2057600080fd5b5035919050565b60008060408385031215612c3a57600080fd5b82359150602083013567ffffffffffffffff811115612b7357600080fd5b60008060008060808587031215612c6e57600080fd5b84359350602085013567ffffffffffffffff811115612c8c57600080fd5b612c9887828801612a88565b949794965050505060408301359260600135919050565b60008060408385031215612cc257600080fd5b50508035926020909101359150565b60008151808452612ce9816020860160208601613027565b601f01601f19169290920160200192915050565b60008251612d0f818460208701613027565b9190910192915050565b6001600160a01b0384168152600060208481840152606060408401526000845481600182811c915080831680612d5057607f831692505b858310811415612d6e57634e487b7160e01b85526022600452602485fd5b6060880183905260808801818015612d8d5760018114612d9e57612dc9565b60ff19861682528782019650612dc9565b60008b81526020902060005b86811015612dc357815484820152908501908901612daa565b83019750505b50949b9a5050505050505050505050565b6000602080830181845280855180835260408601915060408160051b870101925083870160005b82811015612e2f57603f19888603018452612e1d858351612cd1565b94509285019290850190600101612e01565b5092979650505050505050565b6020808252825182820181905260009190848201906040850190845b81811015612e7457835183529284019291840191600101612e58565b50909695505050505050565b602081526000612b326020830184612cd1565b8681526001600160a01b038616602082015284604082015260c060608201526000612ec160c0830186612cd1565b60808301949094525060a00152949350505050565b8781526001600160a01b038716602082015285604082015260e060608201526000612f0460e0830187612cd1565b60808301959095525060a081019290925260c090910152949350505050565b8581528460208201526001600160a01b038416604082015282606082015260a060808201526000612f5760a0830184612cd1565b979650505050505050565b8681528560208201526001600160a01b038516604082015283606082015260c060808201526000612f9660c0830185612cd1565b905060078310612fb657634e487b7160e01b600052602160045260246000fd5b8260a0830152979650505050505050565b8381528260208201526060604082015260006127876060830184612cd1565b60008261300357634e487b7160e01b600052601260045260246000fd5b500490565b6000816000190483118215151615613022576130226130ad565b500290565b60005b8381101561304257818101518382015260200161302a565b83811115613051576000848401525b50505050565b600181811c9082168061306b57607f821691505b6020821081141561308c57634e487b7160e01b600052602260045260246000fd5b50919050565b60006000198214156130a6576130a66130ad565b5060010190565b634e487b7160e01b600052601160045260246000fd5b634e487b7160e01b600052602160045260246000fd5b634e487b7160e01b600052603260045260246000fd5b634e487b7160e01b600052604160045260246000fd5b6001600160a01b0381168114610bc957600080fdfea2646970667358221220d5edef6ceb67a751ff70f2a3e2b9d5e4701a90dddba8ed3580c32f69b78e749e64736f6c63430008060033",
  "devdoc": {
    "author": "Shumpei Koike - <shumpei.koike@bridges.inc>",
    "kind": "dev",
    "methods": {
      "accept(uint256)": {
        "details": "Accepts the proposal if you like the content.",
        "params": {
          "postId": "uint256 of the post ID"
        }
      },
      "bid(uint256,string)": {
        "details": "Bids to the post, sharing what kind of Ads would be public. The owner of the Ad space can select the one according to not only the price but also the preference inside the metadata.",
        "params": {
          "metadata": "string of the hashed path to the storage",
          "postId": "uint256 of the post ID"
        }
      },
      "book(uint256)": {
        "details": "Books to the post without any specific metadata.",
        "params": {
          "postId": "uint256 of the post ID"
        }
      },
      "call(uint256)": {
        "details": "Calls the book related with the bidId. The NFT representing a right to propose is sent to the bidder in this function.",
        "params": {
          "bidId": "uint256 of the bid ID"
        }
      },
      "close(uint256)": {
        "details": "Closes the offering and mints the NFT to the successful bidder. The amount would be paid to the post owner.",
        "params": {
          "bidId": "uint256 of the bid ID"
        }
      },
      "deny(uint256)": {
        "details": "Denies the proposal if you dislike the content.",
        "params": {
          "postId": "uint256 of the post ID"
        }
      },
      "displayByMetadata(address,string)": {
        "details": "Returns metadata hash that the account is supposed to deliver.",
        "params": {
          "account": "address of the post owner",
          "metadata": "string of the media metadata"
        }
      },
      "distributionRightAddress()": {
        "details": "Gets the address of DistributionRight."
      },
      "nameRegistryAddress()": {
        "details": "Gets the address of NameRegistry"
      },
      "newPost(uint256,string,uint256,uint256)": {
        "details": "Creates a new post where the owner who has the advertising area can public the space. The basic infomation of the area is described on the storage, which is accessed by the metadata hash.",
        "params": {
          "fromTimestamp": "uint256 of the timestamp to display the ad",
          "metadata": "string of the hashed path to the storage",
          "minPrice": "uint256 of the minimum price to bid or book",
          "toTimestamp": "uint256 of the timestamp to display the ad"
        }
      },
      "owner()": {
        "details": "Gets the owner address."
      },
      "propose(uint256,string)": {
        "details": "Proposes metadata to the book.",
        "params": {
          "metadata": "string of the hashed path to the storage",
          "postId": "uint256 of the post ID"
        }
      },
      "refund(uint256)": {
        "details": "Can refund the amount if you want to cancel or the other is determinted as the successful bidder.",
        "params": {
          "bidId": "uint256 of the bid ID"
        }
      },
      "reservedRightAddress()": {
        "details": "Gets the address of ReservedRight."
      },
      "suspendPost(uint256)": {
        "details": "Suspends a post.",
        "params": {
          "postId": "uint256 of the post ID"
        }
      },
      "vaultAddress()": {
        "details": "Gets the address of Vault."
      }
    },
    "title": "MediaFacade - allows anyone to create a post and bit to the post.",
    "version": 1
  },
  "userdoc": {
    "kind": "user",
    "methods": {},
    "version": 1
  },
  "storageLayout": {
    "storage": [
      {
        "astId": 1739,
        "contract": "contracts/MediaFacade.sol:MediaFacade",
        "label": "_nameRegistry",
        "offset": 0,
        "slot": "0",
        "type": "t_contract(NameRegistry)1937"
      },
      {
        "astId": 574,
        "contract": "contracts/MediaFacade.sol:MediaFacade",
        "label": "allPosts",
        "offset": 0,
        "slot": "1",
        "type": "t_mapping(t_uint256,t_struct(PostContent)555_storage)"
      },
      {
        "astId": 581,
        "contract": "contracts/MediaFacade.sol:MediaFacade",
        "label": "inventories",
        "offset": 0,
        "slot": "2",
        "type": "t_mapping(t_address,t_mapping(t_string_memory_ptr,t_array(t_uint256)dyn_storage))"
      },
      {
        "astId": 586,
        "contract": "contracts/MediaFacade.sol:MediaFacade",
        "label": "bidders",
        "offset": 0,
        "slot": "3",
        "type": "t_mapping(t_uint256,t_array(t_uint256)dyn_storage)"
      },
      {
        "astId": 590,
        "contract": "contracts/MediaFacade.sol:MediaFacade",
        "label": "bookedBidIds",
        "offset": 0,
        "slot": "4",
        "type": "t_mapping(t_uint256,t_uint256)"
      },
      {
        "astId": 595,
        "contract": "contracts/MediaFacade.sol:MediaFacade",
        "label": "bidderInfo",
        "offset": 0,
        "slot": "5",
        "type": "t_mapping(t_uint256,t_struct(Bidder)569_storage)"
      },
      {
        "astId": 600,
        "contract": "contracts/MediaFacade.sol:MediaFacade",
        "label": "mediaMetadata",
        "offset": 0,
        "slot": "6",
        "type": "t_mapping(t_address,t_array(t_string_storage)dyn_storage)"
      },
      {
        "astId": 603,
        "contract": "contracts/MediaFacade.sol:MediaFacade",
        "label": "nextPostId",
        "offset": 0,
        "slot": "7",
        "type": "t_uint256"
      },
      {
        "astId": 606,
        "contract": "contracts/MediaFacade.sol:MediaFacade",
        "label": "nextBidId",
        "offset": 0,
        "slot": "8",
        "type": "t_uint256"
      },
      {
        "astId": 609,
        "contract": "contracts/MediaFacade.sol:MediaFacade",
        "label": "_baseURI",
        "offset": 0,
        "slot": "9",
        "type": "t_string_storage"
      }
    ],
    "types": {
      "t_address": {
        "encoding": "inplace",
        "label": "address",
        "numberOfBytes": "20"
      },
      "t_array(t_string_storage)dyn_storage": {
        "base": "t_string_storage",
        "encoding": "dynamic_array",
        "label": "string[]",
        "numberOfBytes": "32"
      },
      "t_array(t_uint256)dyn_storage": {
        "base": "t_uint256",
        "encoding": "dynamic_array",
        "label": "uint256[]",
        "numberOfBytes": "32"
      },
      "t_contract(NameRegistry)1937": {
        "encoding": "inplace",
        "label": "contract NameRegistry",
        "numberOfBytes": "20"
      },
      "t_enum(DraftStatus)540": {
        "encoding": "inplace",
        "label": "enum MediaFacade.DraftStatus",
        "numberOfBytes": "1"
      },
      "t_mapping(t_address,t_array(t_string_storage)dyn_storage)": {
        "encoding": "mapping",
        "key": "t_address",
        "label": "mapping(address => string[])",
        "numberOfBytes": "32",
        "value": "t_array(t_string_storage)dyn_storage"
      },
      "t_mapping(t_address,t_mapping(t_string_memory_ptr,t_array(t_uint256)dyn_storage))": {
        "encoding": "mapping",
        "key": "t_address",
        "label": "mapping(address => mapping(string => uint256[]))",
        "numberOfBytes": "32",
        "value": "t_mapping(t_string_memory_ptr,t_array(t_uint256)dyn_storage)"
      },
      "t_mapping(t_string_memory_ptr,t_array(t_uint256)dyn_storage)": {
        "encoding": "mapping",
        "key": "t_string_memory_ptr",
        "label": "mapping(string => uint256[])",
        "numberOfBytes": "32",
        "value": "t_array(t_uint256)dyn_storage"
      },
      "t_mapping(t_uint256,t_array(t_uint256)dyn_storage)": {
        "encoding": "mapping",
        "key": "t_uint256",
        "label": "mapping(uint256 => uint256[])",
        "numberOfBytes": "32",
        "value": "t_array(t_uint256)dyn_storage"
      },
      "t_mapping(t_uint256,t_struct(Bidder)569_storage)": {
        "encoding": "mapping",
        "key": "t_uint256",
        "label": "mapping(uint256 => struct MediaFacade.Bidder)",
        "numberOfBytes": "32",
        "value": "t_struct(Bidder)569_storage"
      },
      "t_mapping(t_uint256,t_struct(PostContent)555_storage)": {
        "encoding": "mapping",
        "key": "t_uint256",
        "label": "mapping(uint256 => struct MediaFacade.PostContent)",
        "numberOfBytes": "32",
        "value": "t_struct(PostContent)555_storage"
      },
      "t_mapping(t_uint256,t_uint256)": {
        "encoding": "mapping",
        "key": "t_uint256",
        "label": "mapping(uint256 => uint256)",
        "numberOfBytes": "32",
        "value": "t_uint256"
      },
      "t_string_memory_ptr": {
        "encoding": "bytes",
        "label": "string",
        "numberOfBytes": "32"
      },
      "t_string_storage": {
        "encoding": "bytes",
        "label": "string",
        "numberOfBytes": "32"
      },
      "t_struct(Bidder)569_storage": {
        "encoding": "inplace",
        "label": "struct MediaFacade.Bidder",
        "members": [
          {
            "astId": 557,
            "contract": "contracts/MediaFacade.sol:MediaFacade",
            "label": "bidId",
            "offset": 0,
            "slot": "0",
            "type": "t_uint256"
          },
          {
            "astId": 559,
            "contract": "contracts/MediaFacade.sol:MediaFacade",
            "label": "postId",
            "offset": 0,
            "slot": "1",
            "type": "t_uint256"
          },
          {
            "astId": 561,
            "contract": "contracts/MediaFacade.sol:MediaFacade",
            "label": "sender",
            "offset": 0,
            "slot": "2",
            "type": "t_address"
          },
          {
            "astId": 563,
            "contract": "contracts/MediaFacade.sol:MediaFacade",
            "label": "price",
            "offset": 0,
            "slot": "3",
            "type": "t_uint256"
          },
          {
            "astId": 565,
            "contract": "contracts/MediaFacade.sol:MediaFacade",
            "label": "metadata",
            "offset": 0,
            "slot": "4",
            "type": "t_string_storage"
          },
          {
            "astId": 568,
            "contract": "contracts/MediaFacade.sol:MediaFacade",
            "label": "status",
            "offset": 0,
            "slot": "5",
            "type": "t_enum(DraftStatus)540"
          }
        ],
        "numberOfBytes": "192"
      },
      "t_struct(PostContent)555_storage": {
        "encoding": "inplace",
        "label": "struct MediaFacade.PostContent",
        "members": [
          {
            "astId": 542,
            "contract": "contracts/MediaFacade.sol:MediaFacade",
            "label": "postId",
            "offset": 0,
            "slot": "0",
            "type": "t_uint256"
          },
          {
            "astId": 544,
            "contract": "contracts/MediaFacade.sol:MediaFacade",
            "label": "owner",
            "offset": 0,
            "slot": "1",
            "type": "t_address"
          },
          {
            "astId": 546,
            "contract": "contracts/MediaFacade.sol:MediaFacade",
            "label": "minPrice",
            "offset": 0,
            "slot": "2",
            "type": "t_uint256"
          },
          {
            "astId": 548,
            "contract": "contracts/MediaFacade.sol:MediaFacade",
            "label": "metadata",
            "offset": 0,
            "slot": "3",
            "type": "t_string_storage"
          },
          {
            "astId": 550,
            "contract": "contracts/MediaFacade.sol:MediaFacade",
            "label": "fromTimestamp",
            "offset": 0,
            "slot": "4",
            "type": "t_uint256"
          },
          {
            "astId": 552,
            "contract": "contracts/MediaFacade.sol:MediaFacade",
            "label": "toTimestamp",
            "offset": 0,
            "slot": "5",
            "type": "t_uint256"
          },
          {
            "astId": 554,
            "contract": "contracts/MediaFacade.sol:MediaFacade",
            "label": "successfulBidId",
            "offset": 0,
            "slot": "6",
            "type": "t_uint256"
          }
        ],
        "numberOfBytes": "224"
      },
      "t_uint256": {
        "encoding": "inplace",
        "label": "uint256",
        "numberOfBytes": "32"
      }
    }
  }
}