{
  "address": "0xB6A186Cc92253518f5f4a4Dafc1f6Ac444388514",
  "abi": [
    {
      "inputs": [
        {
          "internalType": "string",
          "name": "name_",
          "type": "string"
        },
        {
          "internalType": "string",
          "name": "symbol_",
          "type": "string"
        },
        {
          "internalType": "string",
          "name": "baseURI_",
          "type": "string"
        },
        {
          "internalType": "address",
          "name": "nameRegistry",
          "type": "address"
        }
      ],
      "stateMutability": "nonpayable",
      "type": "constructor"
    },
    {
      "anonymous": false,
      "inputs": [
        {
          "indexed": true,
          "internalType": "address",
          "name": "owner",
          "type": "address"
        },
        {
          "indexed": true,
          "internalType": "address",
          "name": "approved",
          "type": "address"
        },
        {
          "indexed": true,
          "internalType": "uint256",
          "name": "tokenId",
          "type": "uint256"
        }
      ],
      "name": "Approval",
      "type": "event"
    },
    {
      "anonymous": false,
      "inputs": [
        {
          "indexed": true,
          "internalType": "address",
          "name": "owner",
          "type": "address"
        },
        {
          "indexed": true,
          "internalType": "address",
          "name": "operator",
          "type": "address"
        },
        {
          "indexed": false,
          "internalType": "bool",
          "name": "approved",
          "type": "bool"
        }
      ],
      "name": "ApprovalForAll",
      "type": "event"
    },
    {
      "anonymous": false,
      "inputs": [
        {
          "indexed": true,
          "internalType": "address",
          "name": "from",
          "type": "address"
        },
        {
          "indexed": true,
          "internalType": "address",
          "name": "to",
          "type": "address"
        },
        {
          "indexed": true,
          "internalType": "uint256",
          "name": "tokenId",
          "type": "uint256"
        }
      ],
      "name": "Transfer",
      "type": "event"
    },
    {
      "inputs": [
        {
          "internalType": "address",
          "name": "to",
          "type": "address"
        },
        {
          "internalType": "uint256",
          "name": "tokenId",
          "type": "uint256"
        }
      ],
      "name": "approve",
      "outputs": [],
      "stateMutability": "nonpayable",
      "type": "function"
    },
    {
      "inputs": [
        {
          "internalType": "address",
          "name": "owner",
          "type": "address"
        }
      ],
      "name": "balanceOf",
      "outputs": [
        {
          "internalType": "uint256",
          "name": "",
          "type": "uint256"
        }
      ],
      "stateMutability": "view",
      "type": "function"
    },
    {
      "inputs": [
        {
          "internalType": "uint256",
          "name": "tokenId",
          "type": "uint256"
        }
      ],
      "name": "burn",
      "outputs": [],
      "stateMutability": "nonpayable",
      "type": "function"
    },
    {
      "inputs": [],
      "name": "distributionRightAddress",
      "outputs": [
        {
          "internalType": "address",
          "name": "",
          "type": "address"
        }
      ],
      "stateMutability": "view",
      "type": "function"
    },
    {
      "inputs": [
        {
          "internalType": "uint256",
          "name": "tokenId",
          "type": "uint256"
        }
      ],
      "name": "getApproved",
      "outputs": [
        {
          "internalType": "address",
          "name": "",
          "type": "address"
        }
      ],
      "stateMutability": "view",
      "type": "function"
    },
    {
      "inputs": [
        {
          "internalType": "address",
          "name": "owner",
          "type": "address"
        },
        {
          "internalType": "address",
          "name": "operator",
          "type": "address"
        }
      ],
      "name": "isApprovedForAll",
      "outputs": [
        {
          "internalType": "bool",
          "name": "",
          "type": "bool"
        }
      ],
      "stateMutability": "view",
      "type": "function"
    },
    {
      "inputs": [
        {
          "internalType": "address",
          "name": "account",
          "type": "address"
        },
        {
          "internalType": "uint256",
          "name": "tokenId",
          "type": "uint256"
        },
        {
          "internalType": "string",
          "name": "metadata",
          "type": "string"
        }
      ],
      "name": "mint",
      "outputs": [],
      "stateMutability": "nonpayable",
      "type": "function"
    },
    {
      "inputs": [],
      "name": "name",
      "outputs": [
        {
          "internalType": "string",
          "name": "",
          "type": "string"
        }
      ],
      "stateMutability": "view",
      "type": "function"
    },
    {
      "inputs": [],
      "name": "nameRegistryAddress",
      "outputs": [
        {
          "internalType": "address",
          "name": "",
          "type": "address"
        }
      ],
      "stateMutability": "view",
      "type": "function"
    },
    {
      "inputs": [],
      "name": "owner",
      "outputs": [
        {
          "internalType": "address",
          "name": "",
          "type": "address"
        }
      ],
      "stateMutability": "view",
      "type": "function"
    },
    {
      "inputs": [
        {
          "internalType": "uint256",
          "name": "tokenId",
          "type": "uint256"
        }
      ],
      "name": "ownerOf",
      "outputs": [
        {
          "internalType": "address",
          "name": "",
          "type": "address"
        }
      ],
      "stateMutability": "view",
      "type": "function"
    },
    {
      "inputs": [],
      "name": "postOwnerPoolAddress",
      "outputs": [
        {
          "internalType": "address",
          "name": "",
          "type": "address"
        }
      ],
      "stateMutability": "view",
      "type": "function"
    },
    {
      "inputs": [],
      "name": "reservedRightAddress",
      "outputs": [
        {
          "internalType": "address",
          "name": "",
          "type": "address"
        }
      ],
      "stateMutability": "view",
      "type": "function"
    },
    {
      "inputs": [
        {
          "internalType": "address",
          "name": "from",
          "type": "address"
        },
        {
          "internalType": "address",
          "name": "to",
          "type": "address"
        },
        {
          "internalType": "uint256",
          "name": "tokenId",
          "type": "uint256"
        }
      ],
      "name": "safeTransferFrom",
      "outputs": [],
      "stateMutability": "nonpayable",
      "type": "function"
    },
    {
      "inputs": [
        {
          "internalType": "address",
          "name": "from",
          "type": "address"
        },
        {
          "internalType": "address",
          "name": "to",
          "type": "address"
        },
        {
          "internalType": "uint256",
          "name": "tokenId",
          "type": "uint256"
        },
        {
          "internalType": "bytes",
          "name": "_data",
          "type": "bytes"
        }
      ],
      "name": "safeTransferFrom",
      "outputs": [],
      "stateMutability": "nonpayable",
      "type": "function"
    },
    {
      "inputs": [
        {
          "internalType": "address",
          "name": "operator",
          "type": "address"
        },
        {
          "internalType": "bool",
          "name": "approved",
          "type": "bool"
        }
      ],
      "name": "setApprovalForAll",
      "outputs": [],
      "stateMutability": "nonpayable",
      "type": "function"
    },
    {
      "inputs": [
        {
          "internalType": "bytes4",
          "name": "interfaceId",
          "type": "bytes4"
        }
      ],
      "name": "supportsInterface",
      "outputs": [
        {
          "internalType": "bool",
          "name": "",
          "type": "bool"
        }
      ],
      "stateMutability": "view",
      "type": "function"
    },
    {
      "inputs": [],
      "name": "symbol",
      "outputs": [
        {
          "internalType": "string",
          "name": "",
          "type": "string"
        }
      ],
      "stateMutability": "view",
      "type": "function"
    },
    {
      "inputs": [
        {
          "internalType": "uint256",
          "name": "index",
          "type": "uint256"
        }
      ],
      "name": "tokenByIndex",
      "outputs": [
        {
          "internalType": "uint256",
          "name": "",
          "type": "uint256"
        }
      ],
      "stateMutability": "view",
      "type": "function"
    },
    {
      "inputs": [
        {
          "internalType": "address",
          "name": "owner",
          "type": "address"
        },
        {
          "internalType": "uint256",
          "name": "index",
          "type": "uint256"
        }
      ],
      "name": "tokenOfOwnerByIndex",
      "outputs": [
        {
          "internalType": "uint256",
          "name": "",
          "type": "uint256"
        }
      ],
      "stateMutability": "view",
      "type": "function"
    },
    {
      "inputs": [
        {
          "internalType": "uint256",
          "name": "tokenId",
          "type": "uint256"
        }
      ],
      "name": "tokenURI",
      "outputs": [
        {
          "internalType": "string",
          "name": "",
          "type": "string"
        }
      ],
      "stateMutability": "view",
      "type": "function"
    },
    {
      "inputs": [],
      "name": "totalSupply",
      "outputs": [
        {
          "internalType": "uint256",
          "name": "",
          "type": "uint256"
        }
      ],
      "stateMutability": "view",
      "type": "function"
    },
    {
      "inputs": [
        {
          "internalType": "address",
          "name": "from",
          "type": "address"
        },
        {
          "internalType": "address",
          "name": "to",
          "type": "address"
        },
        {
          "internalType": "uint256",
          "name": "tokenId",
          "type": "uint256"
        }
      ],
      "name": "transferByAllowedContract",
      "outputs": [],
      "stateMutability": "nonpayable",
      "type": "function"
    },
    {
      "inputs": [
        {
          "internalType": "address",
          "name": "from",
          "type": "address"
        },
        {
          "internalType": "address",
          "name": "to",
          "type": "address"
        },
        {
          "internalType": "uint256",
          "name": "tokenId",
          "type": "uint256"
        }
      ],
      "name": "transferFrom",
      "outputs": [],
      "stateMutability": "payable",
      "type": "function"
    },
    {
      "inputs": [],
      "name": "vaultAddress",
      "outputs": [
        {
          "internalType": "address",
          "name": "",
          "type": "address"
        }
      ],
      "stateMutability": "view",
      "type": "function"
    }
  ],
  "transactionHash": "0x1832c577d43e92aa2773728d1a4a0d8fd02b6e227f1efd36c0cd5eac2877497b",
  "args": [
    "DistributionRight",
    "AD_RIGHT",
    "https://arweave.net/",
    "0x87b74aC01B028558A8Af2409e59C709f409f2e80"
  ],
  "solcInputHash": "d8269bf08e62262dc92297179008e96b",
  "bytecode": "0x60806040523480156200001157600080fd5b506040516200265e3803806200265e833981016040819052620000349162000204565b600080546001600160a01b0319166001600160a01b038316179055835184908490849084906200006c906001906020870190620000a7565b50825162000082906002906020860190620000a7565b50815162000098906003906020850190620000a7565b5050505050505050506200030a565b828054620000b590620002b7565b90600052602060002090601f016020900481019282620000d9576000855562000124565b82601f10620000f457805160ff191683800117855562000124565b8280016001018555821562000124579182015b828111156200012457825182559160200191906001019062000107565b506200013292915062000136565b5090565b5b8082111562000132576000815560010162000137565b600082601f8301126200015f57600080fd5b81516001600160401b03808211156200017c576200017c620002f4565b604051601f8301601f19908116603f01168101908282118183101715620001a757620001a7620002f4565b81604052838152602092508683858801011115620001c457600080fd5b600091505b83821015620001e85785820183015181830184015290820190620001c9565b83821115620001fa5760008385830101525b9695505050505050565b600080600080608085870312156200021b57600080fd5b84516001600160401b03808211156200023357600080fd5b62000241888389016200014d565b955060208701519150808211156200025857600080fd5b62000266888389016200014d565b945060408701519150808211156200027d57600080fd5b506200028c878288016200014d565b606087015190935090506001600160a01b0381168114620002ac57600080fd5b939692955090935050565b600181811c90821680620002cc57607f821691505b60208210811415620002ee57634e487b7160e01b600052602260045260246000fd5b50919050565b634e487b7160e01b600052604160045260246000fd5b612344806200031a6000396000f3fe6080604052600436106101965760003560e01c80634f6ccce7116100e1578063a22cb4651161008a578063c87b56dd11610064578063c87b56dd14610425578063d3fc986414610445578063e985e9c514610465578063ef95e90f146104ae57600080fd5b8063a22cb465146103d0578063ac6919a5146103f0578063b88d4fde1461040557600080fd5b80638da5cb5b116100bb5780638da5cb5b146103865780638e9e614e1461039b57806395d89b41146103bb57600080fd5b80634f6ccce7146103265780636352211e1461034657806370a082311461036657600080fd5b806327b7a2f51161014357806342842e0e1161011d57806342842e0e146102d157806342966c68146102f1578063430bf08a1461031157600080fd5b806327b7a2f51461027e57806329a594b51461029c5780632f745c59146102b157600080fd5b8063095ea7b311610174578063095ea7b31461022a57806318160ddd1461024c57806323b872dd1461026b57600080fd5b806301ffc9a71461019b57806306fdde03146101d0578063081812fc146101f2575b600080fd5b3480156101a757600080fd5b506101bb6101b6366004612034565b6104c3565b60405190151581526020015b60405180910390f35b3480156101dc57600080fd5b506101e5610560565b6040516101c791906121bf565b3480156101fe57600080fd5b5061021261020d36600461206e565b6105f2565b6040516001600160a01b0390911681526020016101c7565b34801561023657600080fd5b5061024a610245366004611f7e565b61068c565b005b34801561025857600080fd5b50600b545b6040519081526020016101c7565b61024a610279366004611e8f565b6107be565b34801561028a57600080fd5b506000546001600160a01b0316610212565b3480156102a857600080fd5b50610212610845565b3480156102bd57600080fd5b5061025d6102cc366004611f7e565b610911565b3480156102dd57600080fd5b5061024a6102ec366004611e8f565b6109b9565b3480156102fd57600080fd5b5061024a61030c36600461206e565b6109d4565b34801561031d57600080fd5b50610212610a8f565b34801561033257600080fd5b5061025d61034136600461206e565b610ad6565b34801561035257600080fd5b5061021261036136600461206e565b610b7a565b34801561037257600080fd5b5061025d610381366004611e15565b610c05565b34801561039257600080fd5b50610212610c9f565b3480156103a757600080fd5b5061024a6103b6366004611e8f565b610cee565b3480156103c757600080fd5b506101e5610d9d565b3480156103dc57600080fd5b5061024a6103eb366004611f50565b610dac565b3480156103fc57600080fd5b50610212610e71565b34801561041157600080fd5b5061024a610420366004611ed0565b610eb8565b34801561043157600080fd5b506101e561044036600461206e565b610f46565b34801561045157600080fd5b5061024a610460366004611faa565b6110c0565b34801561047157600080fd5b506101bb610480366004611e56565b6001600160a01b03918216600090815260086020908152604080832093909416825291909152205460ff1690565b3480156104ba57600080fd5b50610212611198565b60006001600160e01b031982167f80ac58cd00000000000000000000000000000000000000000000000000000000148061052657506001600160e01b031982167f5b5e139f00000000000000000000000000000000000000000000000000000000145b8061055a57507f01ffc9a7000000000000000000000000000000000000000000000000000000006001600160e01b03198316145b92915050565b60606001805461056f90612242565b80601f016020809104026020016040519081016040528092919081815260200182805461059b90612242565b80156105e85780601f106105bd576101008083540402835291602001916105e8565b820191906000526020600020905b8154815290600101906020018083116105cb57829003601f168201915b5050505050905090565b6000818152600560205260408120546001600160a01b03166106705760405162461bcd60e51b815260206004820152602c60248201527f4552433732313a20617070726f76656420717565727920666f72206e6f6e657860448201526b34b9ba32b73a103a37b5b2b760a11b60648201526084015b60405180910390fd5b506000908152600760205260409020546001600160a01b031690565b600061069782610b7a565b9050806001600160a01b0316836001600160a01b031614156107215760405162461bcd60e51b815260206004820152602160248201527f4552433732313a20617070726f76616c20746f2063757272656e74206f776e6560448201527f72000000000000000000000000000000000000000000000000000000000000006064820152608401610667565b336001600160a01b038216148061073d575061073d8133610480565b6107af5760405162461bcd60e51b815260206004820152603860248201527f4552433732313a20617070726f76652063616c6c6572206973206e6f74206f7760448201527f6e6572206e6f7220617070726f76656420666f7220616c6c00000000000000006064820152608401610667565b6107b983836111df565b505050565b6107c8338261125a565b61083a5760405162461bcd60e51b815260206004820152603160248201527f4552433732313a207472616e736665722063616c6c6572206973206e6f74206f60448201527f776e6572206e6f7220617070726f7665640000000000000000000000000000006064820152608401610667565b6107b9838383611351565b600080546040517f526573657276656452696768740000000000000000000000000000000000000060208201526001600160a01b0390911690638eaa6ac090602d015b604051602081830303815290604052805190602001206040518263ffffffff1660e01b81526004016108bc91815260200190565b60206040518083038186803b1580156108d457600080fd5b505afa1580156108e8573d6000803e3d6000fd5b505050506040513d601f19601f8201168201806040525081019061090c9190611e39565b905090565b600061091c83610c05565b82106109905760405162461bcd60e51b815260206004820152602b60248201527f455243373231456e756d657261626c653a206f776e657220696e646578206f7560448201527f74206f6620626f756e64730000000000000000000000000000000000000000006064820152608401610667565b506001600160a01b03919091166000908152600960209081526040808320938352929052205490565b6107b983838360405180602001604052806000815250610eb8565b6000546040516351e0e26b60e01b81523360048201526001600160a01b03909116906351e0e26b9060240160206040518083038186803b158015610a1757600080fd5b505afa158015610a2b573d6000803e3d6000fd5b505050506040513d601f19601f82011682018060405250810190610a4f9190612017565b610a835760405162461bcd60e51b8152602060048201526005602482015264415232303160d81b6044820152606401610667565b610a8c816116af565b50565b600080546040517f5661756c7400000000000000000000000000000000000000000000000000000060208201526001600160a01b0390911690638eaa6ac090602501610888565b6000610ae1600b5490565b8210610b555760405162461bcd60e51b815260206004820152602c60248201527f455243373231456e756d657261626c653a20676c6f62616c20696e646578206f60448201527f7574206f6620626f756e647300000000000000000000000000000000000000006064820152608401610667565b600b8281548110610b6857610b686122a9565b90600052602060002001549050919050565b6000818152600560205260408120546001600160a01b03168061055a5760405162461bcd60e51b815260206004820152602960248201527f4552433732313a206f776e657220717565727920666f72206e6f6e657869737460448201527f656e7420746f6b656e00000000000000000000000000000000000000000000006064820152608401610667565b60006001600160a01b038216610c835760405162461bcd60e51b815260206004820152602a60248201527f4552433732313a2062616c616e636520717565727920666f7220746865207a6560448201527f726f2061646472657373000000000000000000000000000000000000000000006064820152608401610667565b506001600160a01b031660009081526006602052604090205490565b60008060009054906101000a90046001600160a01b03166001600160a01b0316638da5cb5b6040518163ffffffff1660e01b815260040160206040518083038186803b1580156108d457600080fd5b6000546040516351e0e26b60e01b81523360048201526001600160a01b03909116906351e0e26b9060240160206040518083038186803b158015610d3157600080fd5b505afa158015610d45573d6000803e3d6000fd5b505050506040513d601f19601f82011682018060405250810190610d699190612017565b61083a5760405162461bcd60e51b8152602060048201526005602482015264415232303160d81b6044820152606401610667565b60606002805461056f90612242565b6001600160a01b038216331415610e055760405162461bcd60e51b815260206004820152601960248201527f4552433732313a20617070726f766520746f2063616c6c6572000000000000006044820152606401610667565b3360008181526008602090815260408083206001600160a01b03871680855290835292819020805460ff191686151590811790915590519081529192917f17307eab39ab6107e8899845ad3d59bd9653f200f220920489ca2b5937696c31910160405180910390a35050565b600080546040517f446973747269627574696f6e526967687400000000000000000000000000000060208201526001600160a01b0390911690638eaa6ac090603101610888565b610ec2338361125a565b610f345760405162461bcd60e51b815260206004820152603160248201527f4552433732313a207472616e736665722063616c6c6572206973206e6f74206f60448201527f776e6572206e6f7220617070726f7665640000000000000000000000000000006064820152608401610667565b610f4084848484611763565b50505050565b6000818152600560205260409020546060906001600160a01b0316610fd35760405162461bcd60e51b815260206004820152602f60248201527f4552433732314d657461646174613a2055524920717565727920666f72206e6f60448201527f6e6578697374656e7420746f6b656e00000000000000000000000000000000006064820152608401610667565b600060038054610fe290612242565b905011611085576000828152600460205260409020805461100290612242565b80601f016020809104026020016040519081016040528092919081815260200182805461102e90612242565b801561107b5780601f106110505761010080835404028352916020019161107b565b820191906000526020600020905b81548152906001019060200180831161105e57829003601f168201915b505050505061055a565b6003600460008481526020019081526020016000206040516020016110ab92919061216e565b60405160208183030381529060405292915050565b6000546040516351e0e26b60e01b81523360048201526001600160a01b03909116906351e0e26b9060240160206040518083038186803b15801561110357600080fd5b505afa158015611117573d6000803e3d6000fd5b505050506040513d601f19601f8201168201806040525081019061113b9190612017565b61116f5760405162461bcd60e51b8152602060048201526005602482015264415232303160d81b6044820152606401610667565b61117983836117ec565b60008281526004602090815260409091208251610f4092840190611d06565b600080546040517f506f73744f776e6572506f6f6c0000000000000000000000000000000000000060208201526001600160a01b0390911690638eaa6ac090602d01610888565b6000818152600760205260409020805473ffffffffffffffffffffffffffffffffffffffff19166001600160a01b038416908117909155819061122182610b7a565b6001600160a01b03167f8c5be1e5ebec7d5bd14f71427d1e84f3dd0314c0f7b2291e5b200ac8c7c3b92560405160405180910390a45050565b6000818152600560205260408120546001600160a01b03166112d35760405162461bcd60e51b815260206004820152602c60248201527f4552433732313a206f70657261746f7220717565727920666f72206e6f6e657860448201526b34b9ba32b73a103a37b5b2b760a11b6064820152608401610667565b60006112de83610b7a565b9050806001600160a01b0316846001600160a01b031614806113195750836001600160a01b031661130e846105f2565b6001600160a01b0316145b8061134957506001600160a01b0380821660009081526008602090815260408083209388168352929052205460ff165b949350505050565b826001600160a01b031661136482610b7a565b6001600160a01b0316146113e05760405162461bcd60e51b815260206004820152602960248201527f4552433732313a207472616e73666572206f6620746f6b656e2074686174206960448201527f73206e6f74206f776e00000000000000000000000000000000000000000000006064820152608401610667565b6001600160a01b03821661145b5760405162461bcd60e51b8152602060048201526024808201527f4552433732313a207472616e7366657220746f20746865207a65726f2061646460448201527f72657373000000000000000000000000000000000000000000000000000000006064820152608401610667565b611466838383611947565b34156115df576114746119ff565b6001600160a01b0316636352211e826040518263ffffffff1660e01b81526004016114a191815260200190565b60206040518083038186803b1580156114b957600080fd5b505afa1580156114cd573d6000803e3d6000fd5b505050506040513d601f19601f820116820180604052508101906114f19190611e39565b6001600160a01b03166108fc606461150a34600361220c565b61151491906121ea565b6040518115909202916000818181858888f1935050505015801561153c573d6000803e3d6000fd5b50611545611a09565b6001600160a01b03166108fc606461155e34600361220c565b61156891906121ea565b6040518115909202916000818181858888f19350505050158015611590573d6000803e3d6000fd5b506001600160a01b0382166108fc60646115ab34605e61220c565b6115b591906121ea565b6040518115909202916000818181858888f193505050501580156115dd573d6000803e3d6000fd5b505b6115ea6000826111df565b6001600160a01b038316600090815260066020526040812080546001929061161390849061222b565b90915550506001600160a01b03821660009081526006602052604081208054600192906116419084906121d2565b9091555050600081815260056020526040808220805473ffffffffffffffffffffffffffffffffffffffff19166001600160a01b0386811691821790925591518493918716917fddf252ad1be2c89b69c2b068fc378daa952ba7f163c4a11628f55a4df523b3ef91a4505050565b60006116ba82610b7a565b90506116c881600084611947565b6116d36000836111df565b6001600160a01b03811660009081526006602052604081208054600192906116fc90849061222b565b9091555050600082815260056020526040808220805473ffffffffffffffffffffffffffffffffffffffff19169055518391906001600160a01b038416907fddf252ad1be2c89b69c2b068fc378daa952ba7f163c4a11628f55a4df523b3ef908390a45050565b61176e848484611351565b61177a84848484611a13565b610f405760405162461bcd60e51b815260206004820152603260248201527f4552433732313a207472616e7366657220746f206e6f6e20455243373231526560448201527f63656976657220696d706c656d656e74657200000000000000000000000000006064820152608401610667565b6001600160a01b0382166118425760405162461bcd60e51b815260206004820181905260248201527f4552433732313a206d696e7420746f20746865207a65726f20616464726573736044820152606401610667565b6000818152600560205260409020546001600160a01b0316156118a75760405162461bcd60e51b815260206004820152601c60248201527f4552433732313a20746f6b656e20616c7265616479206d696e746564000000006044820152606401610667565b6118b360008383611947565b6001600160a01b03821660009081526006602052604081208054600192906118dc9084906121d2565b9091555050600081815260056020526040808220805473ffffffffffffffffffffffffffffffffffffffff19166001600160a01b03861690811790915590518392907fddf252ad1be2c89b69c2b068fc378daa952ba7f163c4a11628f55a4df523b3ef908290a45050565b6001600160a01b0383166119a25761199d81600b80546000838152600c60205260408120829055600182018355919091527f0175b7a638427703f0dbe7bb9bbf987a2551717b34e79f33b5b1008d1fa01db90155565b6119c5565b816001600160a01b0316836001600160a01b0316146119c5576119c58382611b76565b6001600160a01b0382166119dc576107b981611c13565b826001600160a01b0316826001600160a01b0316146107b9576107b98282611cc2565b600061090c611198565b600061090c610a8f565b60006001600160a01b0384163b15611b6b57604051630a85bd0160e11b81526001600160a01b0385169063150b7a0290611a57903390899088908890600401612183565b602060405180830381600087803b158015611a7157600080fd5b505af1925050508015611aa1575060408051601f3d908101601f19168201909252611a9e91810190612051565b60015b611b51573d808015611acf576040519150601f19603f3d011682016040523d82523d6000602084013e611ad4565b606091505b508051611b495760405162461bcd60e51b815260206004820152603260248201527f4552433732313a207472616e7366657220746f206e6f6e20455243373231526560448201527f63656976657220696d706c656d656e74657200000000000000000000000000006064820152608401610667565b805181602001fd5b6001600160e01b031916630a85bd0160e11b149050611349565b506001949350505050565b60006001611b8384610c05565b611b8d919061222b565b6000838152600a6020526040902054909150808214611be0576001600160a01b03841660009081526009602090815260408083208584528252808320548484528184208190558352600a90915290208190555b506000918252600a602090815260408084208490556001600160a01b039094168352600981528383209183525290812055565b600b54600090611c259060019061222b565b6000838152600c6020526040812054600b8054939450909284908110611c4d57611c4d6122a9565b9060005260206000200154905080600b8381548110611c6e57611c6e6122a9565b6000918252602080832090910192909255828152600c9091526040808220849055858252812055600b805480611ca657611ca6612293565b6001900381819060005260206000200160009055905550505050565b6000611ccd83610c05565b6001600160a01b0390931660009081526009602090815260408083208684528252808320859055938252600a9052919091209190915550565b828054611d1290612242565b90600052602060002090601f016020900481019282611d345760008555611d7a565b82601f10611d4d57805160ff1916838001178555611d7a565b82800160010185558215611d7a579182015b82811115611d7a578251825591602001919060010190611d5f565b50611d86929150611d8a565b5090565b5b80821115611d865760008155600101611d8b565b600067ffffffffffffffff80841115611dba57611dba6122bf565b604051601f8501601f19908116603f01168101908282118183101715611de257611de26122bf565b81604052809350858152868686011115611dfb57600080fd5b858560208301376000602087830101525050509392505050565b600060208284031215611e2757600080fd5b8135611e32816122d5565b9392505050565b600060208284031215611e4b57600080fd5b8151611e32816122d5565b60008060408385031215611e6957600080fd5b8235611e74816122d5565b91506020830135611e84816122d5565b809150509250929050565b600080600060608486031215611ea457600080fd5b8335611eaf816122d5565b92506020840135611ebf816122d5565b929592945050506040919091013590565b60008060008060808587031215611ee657600080fd5b8435611ef1816122d5565b93506020850135611f01816122d5565b925060408501359150606085013567ffffffffffffffff811115611f2457600080fd5b8501601f81018713611f3557600080fd5b611f4487823560208401611d9f565b91505092959194509250565b60008060408385031215611f6357600080fd5b8235611f6e816122d5565b91506020830135611e84816122ea565b60008060408385031215611f9157600080fd5b8235611f9c816122d5565b946020939093013593505050565b600080600060608486031215611fbf57600080fd5b8335611fca816122d5565b925060208401359150604084013567ffffffffffffffff811115611fed57600080fd5b8401601f81018613611ffe57600080fd5b61200d86823560208401611d9f565b9150509250925092565b60006020828403121561202957600080fd5b8151611e32816122ea565b60006020828403121561204657600080fd5b8135611e32816122f8565b60006020828403121561206357600080fd5b8151611e32816122f8565b60006020828403121561208057600080fd5b5035919050565b6000815180845260005b818110156120ad57602081850181015186830182015201612091565b818111156120bf576000602083870101525b50601f01601f19169290920160200192915050565b8054600090600181811c90808316806120ee57607f831692505b602080841082141561211057634e487b7160e01b600052602260045260246000fd5b818015612124576001811461213557612162565b60ff19861689528489019650612162565b60008881526020902060005b8681101561215a5781548b820152908501908301612141565b505084890196505b50505050505092915050565b600061134961217d83866120d4565b846120d4565b60006001600160a01b038087168352808616602084015250836040830152608060608301526121b56080830184612087565b9695505050505050565b602081526000611e326020830184612087565b600082198211156121e5576121e561227d565b500190565b60008261220757634e487b7160e01b600052601260045260246000fd5b500490565b60008160001904831182151516156122265761222661227d565b500290565b60008282101561223d5761223d61227d565b500390565b600181811c9082168061225657607f821691505b6020821081141561227757634e487b7160e01b600052602260045260246000fd5b50919050565b634e487b7160e01b600052601160045260246000fd5b634e487b7160e01b600052603160045260246000fd5b634e487b7160e01b600052603260045260246000fd5b634e487b7160e01b600052604160045260246000fd5b6001600160a01b0381168114610a8c57600080fd5b8015158114610a8c57600080fd5b6001600160e01b031981168114610a8c57600080fdfea26469706673582212209b7d2439b9a5c4fe2b7518d90a0f8f182d6b3aa04b80093a1835c60d3bb0eab564736f6c63430008060033",
  "devdoc": {
    "author": "Shumpei Koike - <shumpei.koike@bridges.inc>",
    "kind": "dev",
    "methods": {
      "approve(address,uint256)": {
        "details": "See {IERC721-approve}."
      },
      "balanceOf(address)": {
        "details": "See {IERC721-balanceOf}."
      },
      "burn(uint256)": {
        "details": "Burns the NFT.",
        "params": {
          "tokenId": "uint256 of the token ID"
        }
      },
      "constructor": {
        "details": "Initializes NFT",
        "params": {
          "baseURI_": "string of the base URI",
          "nameRegistry": "address of NameRegistry",
          "name_": "string of the token name",
          "symbol_": "string of the token symbol"
        }
      },
      "distributionRightAddress()": {
        "details": "Gets the address of DistributionRight."
      },
      "getApproved(uint256)": {
        "details": "See {IERC721-getApproved}."
      },
      "isApprovedForAll(address,address)": {
        "details": "See {IERC721-isApprovedForAll}."
      },
      "mint(address,uint256,string)": {
        "details": "Mints a new NFT.",
        "params": {
          "account": "address of the token owner",
          "tokenId": "uint256 of the token ID"
        }
      },
      "name()": {
        "details": "See {IERC721Metadata-name}."
      },
      "nameRegistryAddress()": {
        "details": "Gets the address of NameRegistry"
      },
      "owner()": {
        "details": "Gets the owner address."
      },
      "ownerOf(uint256)": {
        "details": "See {IERC721-ownerOf}."
      },
      "reservedRightAddress()": {
        "details": "Gets the address of ReservedRight."
      },
      "safeTransferFrom(address,address,uint256)": {
        "details": "See {IERC721-safeTransferFrom}."
      },
      "safeTransferFrom(address,address,uint256,bytes)": {
        "details": "See {IERC721-safeTransferFrom}."
      },
      "setApprovalForAll(address,bool)": {
        "details": "See {IERC721-setApprovalForAll}."
      },
      "supportsInterface(bytes4)": {
        "details": "See {IERC165-supportsInterface}."
      },
      "symbol()": {
        "details": "See {IERC721Metadata-symbol}."
      },
      "tokenByIndex(uint256)": {
        "details": "See {IERC721Enumerable-tokenByIndex}."
      },
      "tokenOfOwnerByIndex(address,uint256)": {
        "details": "See {IERC721Enumerable-tokenOfOwnerByIndex}."
      },
      "tokenURI(uint256)": {
        "details": "See {IERC721Metadata-tokenURI}."
      },
      "totalSupply()": {
        "details": "See {IERC721Enumerable-totalSupply}."
      },
      "transferByAllowedContract(address,address,uint256)": {
        "details": "Transfers the NFT.",
        "params": {
          "from": "address of the current owner",
          "to": "address of the next owner",
          "tokenId": "uint256 of the token ID"
        }
      },
      "transferFrom(address,address,uint256)": {
        "details": "See {IERC721-transferFrom}."
      },
      "vaultAddress()": {
        "details": "Gets the address of Vault."
      }
    },
    "title": "DistributionRight - represents advertising distribution rights.",
    "version": 1
  },
  "userdoc": {
    "kind": "user",
    "methods": {},
    "version": 1
  },
  "storageLayout": {
    "storage": [
      {
        "astId": 1739,
        "contract": "contracts/token/DistributionRight.sol:DistributionRight",
        "label": "_nameRegistry",
        "offset": 0,
        "slot": "0",
        "type": "t_contract(NameRegistry)1937"
      },
      {
        "astId": 2676,
        "contract": "contracts/token/DistributionRight.sol:DistributionRight",
        "label": "_name",
        "offset": 0,
        "slot": "1",
        "type": "t_string_storage"
      },
      {
        "astId": 2678,
        "contract": "contracts/token/DistributionRight.sol:DistributionRight",
        "label": "_symbol",
        "offset": 0,
        "slot": "2",
        "type": "t_string_storage"
      },
      {
        "astId": 2680,
        "contract": "contracts/token/DistributionRight.sol:DistributionRight",
        "label": "_baseURI",
        "offset": 0,
        "slot": "3",
        "type": "t_string_storage"
      },
      {
        "astId": 2684,
        "contract": "contracts/token/DistributionRight.sol:DistributionRight",
        "label": "_tokenURIs",
        "offset": 0,
        "slot": "4",
        "type": "t_mapping(t_uint256,t_string_storage)"
      },
      {
        "astId": 2688,
        "contract": "contracts/token/DistributionRight.sol:DistributionRight",
        "label": "_owners",
        "offset": 0,
        "slot": "5",
        "type": "t_mapping(t_uint256,t_address)"
      },
      {
        "astId": 2692,
        "contract": "contracts/token/DistributionRight.sol:DistributionRight",
        "label": "_balances",
        "offset": 0,
        "slot": "6",
        "type": "t_mapping(t_address,t_uint256)"
      },
      {
        "astId": 2696,
        "contract": "contracts/token/DistributionRight.sol:DistributionRight",
        "label": "_tokenApprovals",
        "offset": 0,
        "slot": "7",
        "type": "t_mapping(t_uint256,t_address)"
      },
      {
        "astId": 2702,
        "contract": "contracts/token/DistributionRight.sol:DistributionRight",
        "label": "_operatorApprovals",
        "offset": 0,
        "slot": "8",
        "type": "t_mapping(t_address,t_mapping(t_address,t_bool))"
      },
      {
        "astId": 2708,
        "contract": "contracts/token/DistributionRight.sol:DistributionRight",
        "label": "_ownedTokens",
        "offset": 0,
        "slot": "9",
        "type": "t_mapping(t_address,t_mapping(t_uint256,t_uint256))"
      },
      {
        "astId": 2712,
        "contract": "contracts/token/DistributionRight.sol:DistributionRight",
        "label": "_ownedTokensIndex",
        "offset": 0,
        "slot": "10",
        "type": "t_mapping(t_uint256,t_uint256)"
      },
      {
        "astId": 2715,
        "contract": "contracts/token/DistributionRight.sol:DistributionRight",
        "label": "_allTokens",
        "offset": 0,
        "slot": "11",
        "type": "t_array(t_uint256)dyn_storage"
      },
      {
        "astId": 2719,
        "contract": "contracts/token/DistributionRight.sol:DistributionRight",
        "label": "_allTokensIndex",
        "offset": 0,
        "slot": "12",
        "type": "t_mapping(t_uint256,t_uint256)"
      }
    ],
    "types": {
      "t_address": {
        "encoding": "inplace",
        "label": "address",
        "numberOfBytes": "20"
      },
      "t_array(t_uint256)dyn_storage": {
        "base": "t_uint256",
        "encoding": "dynamic_array",
        "label": "uint256[]",
        "numberOfBytes": "32"
      },
      "t_bool": {
        "encoding": "inplace",
        "label": "bool",
        "numberOfBytes": "1"
      },
      "t_contract(NameRegistry)1937": {
        "encoding": "inplace",
        "label": "contract NameRegistry",
        "numberOfBytes": "20"
      },
      "t_mapping(t_address,t_bool)": {
        "encoding": "mapping",
        "key": "t_address",
        "label": "mapping(address => bool)",
        "numberOfBytes": "32",
        "value": "t_bool"
      },
      "t_mapping(t_address,t_mapping(t_address,t_bool))": {
        "encoding": "mapping",
        "key": "t_address",
        "label": "mapping(address => mapping(address => bool))",
        "numberOfBytes": "32",
        "value": "t_mapping(t_address,t_bool)"
      },
      "t_mapping(t_address,t_mapping(t_uint256,t_uint256))": {
        "encoding": "mapping",
        "key": "t_address",
        "label": "mapping(address => mapping(uint256 => uint256))",
        "numberOfBytes": "32",
        "value": "t_mapping(t_uint256,t_uint256)"
      },
      "t_mapping(t_address,t_uint256)": {
        "encoding": "mapping",
        "key": "t_address",
        "label": "mapping(address => uint256)",
        "numberOfBytes": "32",
        "value": "t_uint256"
      },
      "t_mapping(t_uint256,t_address)": {
        "encoding": "mapping",
        "key": "t_uint256",
        "label": "mapping(uint256 => address)",
        "numberOfBytes": "32",
        "value": "t_address"
      },
      "t_mapping(t_uint256,t_string_storage)": {
        "encoding": "mapping",
        "key": "t_uint256",
        "label": "mapping(uint256 => string)",
        "numberOfBytes": "32",
        "value": "t_string_storage"
      },
      "t_mapping(t_uint256,t_uint256)": {
        "encoding": "mapping",
        "key": "t_uint256",
        "label": "mapping(uint256 => uint256)",
        "numberOfBytes": "32",
        "value": "t_uint256"
      },
      "t_string_storage": {
        "encoding": "bytes",
        "label": "string",
        "numberOfBytes": "32"
      },
      "t_uint256": {
        "encoding": "inplace",
        "label": "uint256",
        "numberOfBytes": "32"
      }
    }
  }
}