{
  "address": "0x4BbF52039A25b0CBC8a205E23E8496415ecC4488",
  "abi": [
    {
      "inputs": [
        {
          "internalType": "address",
          "name": "_nameRegistry",
          "type": "address"
        }
      ],
      "stateMutability": "nonpayable",
      "type": "constructor"
    },
    {
      "anonymous": false,
      "inputs": [
        {
          "indexed": false,
          "internalType": "contract MediaProxy",
          "name": "proxy",
          "type": "address"
        }
      ],
      "name": "CreateProxy",
      "type": "event"
    },
    {
      "inputs": [],
      "name": "adPoolAddress",
      "outputs": [
        {
          "internalType": "address",
          "name": "",
          "type": "address"
        }
      ],
      "stateMutability": "view",
      "type": "function"
    },
    {
      "inputs": [],
      "name": "englishAuctionAddress",
      "outputs": [
        {
          "internalType": "address",
          "name": "",
          "type": "address"
        }
      ],
      "stateMutability": "view",
      "type": "function"
    },
    {
      "inputs": [],
      "name": "eventEmitterAddress",
      "outputs": [
        {
          "internalType": "address",
          "name": "",
          "type": "address"
        }
      ],
      "stateMutability": "view",
      "type": "function"
    },
    {
      "inputs": [],
      "name": "mediaFactoryAddress",
      "outputs": [
        {
          "internalType": "address",
          "name": "",
          "type": "address"
        }
      ],
      "stateMutability": "view",
      "type": "function"
    },
    {
      "inputs": [],
      "name": "mediaRegistryAddress",
      "outputs": [
        {
          "internalType": "address",
          "name": "",
          "type": "address"
        }
      ],
      "stateMutability": "view",
      "type": "function"
    },
    {
      "inputs": [],
      "name": "nameRegistryAddress",
      "outputs": [
        {
          "internalType": "address",
          "name": "",
          "type": "address"
        }
      ],
      "stateMutability": "view",
      "type": "function"
    },
    {
      "inputs": [
        {
          "internalType": "address",
          "name": "mediaEOA",
          "type": "address"
        },
        {
          "internalType": "string",
          "name": "applicationMetadata",
          "type": "string"
        },
        {
          "internalType": "string",
          "name": "updatableMetadata",
          "type": "string"
        },
        {
          "internalType": "bytes",
          "name": "initializer",
          "type": "bytes"
        },
        {
          "internalType": "uint256",
          "name": "saltNonce",
          "type": "uint256"
        }
      ],
      "name": "newMedia",
      "outputs": [
        {
          "internalType": "contract MediaProxy",
          "name": "proxy",
          "type": "address"
        }
      ],
      "stateMutability": "nonpayable",
      "type": "function"
    },
    {
      "inputs": [],
      "name": "offerBidAddress",
      "outputs": [
        {
          "internalType": "address",
          "name": "",
          "type": "address"
        }
      ],
      "stateMutability": "view",
      "type": "function"
    },
    {
      "inputs": [],
      "name": "openBidAddress",
      "outputs": [
        {
          "internalType": "address",
          "name": "",
          "type": "address"
        }
      ],
      "stateMutability": "view",
      "type": "function"
    },
    {
      "inputs": [],
      "name": "owner",
      "outputs": [
        {
          "internalType": "address",
          "name": "",
          "type": "address"
        }
      ],
      "stateMutability": "view",
      "type": "function"
    },
    {
      "inputs": [],
      "name": "proposalReviewAddress",
      "outputs": [
        {
          "internalType": "address",
          "name": "",
          "type": "address"
        }
      ],
      "stateMutability": "view",
      "type": "function"
    },
    {
      "inputs": [],
      "name": "vaultAddress",
      "outputs": [
        {
          "internalType": "address",
          "name": "",
          "type": "address"
        }
      ],
      "stateMutability": "view",
      "type": "function"
    }
  ],
  "transactionHash": "0xb0d86071734f2f09e228a70c094f4a24c561cbef2645dcb246d1b28b972b6461",
  "args": [
    "0xA21f44Ad2751A5020dBff35f813D90C18f9986b7"
  ],
  "solcInputHash": "721cdf496d7ca36edf26d6cc58f3de49",
  "bytecode": "0x608060405234801561001057600080fd5b506040516110cc3803806110cc83398101604081905261002f91610050565b600080546001600160a01b0319166001600160a01b03831617905550610080565b60006020828403121561006257600080fd5b81516001600160a01b038116811461007957600080fd5b9392505050565b61103d8061008f6000396000f3fe608060405234801561001057600080fd5b50600436106100a45760003560e01c80630106d8eb146100a95780632231c1eb146100c757806327b7a2f5146100cf578063430bf08a146100d757806363cfbab1146100df5780636a58767e146100f25780637cf175fb146100fa5780638da5cb5b146101025780638f6059d61461010a578063c9cd71b514610112578063e2f5fc781461011a578063f072629114610122575b600080fd5b6100b161012a565b6040516100be919061069b565b60405180910390f35b6100b16101d8565b6100b1610209565b6100b1610218565b6100b16100ed366004610779565b610247565b6100b161038a565b6100b16103c1565b6100b16103f3565b6100b1610447565b6100b161047d565b6100b16104ad565b6100b16104e5565b600080546040516d22b733b634b9b420bab1ba34b7b760911b60208201526001600160a01b0390911690638eaa6ac090602e015b604051602081830303815290604052805190602001206040518263ffffffff1660e01b815260040161019291815260200190565b602060405180830381865afa1580156101af573d6000803e3d6000fd5b505050506040513d601f19601f820116820180604052508101906101d3919061082f565b905090565b600080546040516613dc195b909a5960ca1b60208201526001600160a01b0390911690638eaa6ac09060270161015e565b6000546001600160a01b031690565b600080546040516415985d5b1d60da1b60208201526001600160a01b0390911690638eaa6ac09060250161015e565b6000336102526103f3565b6001600160a01b0316146102955760405162461bcd60e51b815260206004820152600560248201526425a218189960d91b60448201526064015b60405180910390fd5b6102a76102a0610209565b848461051b565b90506102b161058b565b6001600160a01b031663a02990088287878a6040518563ffffffff1660e01b81526004016102e294939291906108a8565b600060405180830381600087803b1580156102fc57600080fd5b505af1158015610310573d6000803e3d6000fd5b5050505061031c610595565b6001600160a01b0316630797ec0882888888876040518663ffffffff1660e01b815260040161034f9594939291906108f1565b600060405180830381600087803b15801561036957600080fd5b505af115801561037d573d6000803e3d6000fd5b5050505095945050505050565b600080546040516c4d65646961526567697374727960981b60208201526001600160a01b0390911690638eaa6ac090602d0161015e565b600080546040516713d999995c909a5960c21b60208201526001600160a01b0390911690638eaa6ac09060280161015e565b60008060009054906101000a90046001600160a01b03166001600160a01b031663d5f394886040518163ffffffff1660e01b8152600401602060405180830381865afa1580156101af573d6000803e3d6000fd5b600080546040516b4d65646961466163746f727960a01b60208201526001600160a01b0390911690638eaa6ac090602c0161015e565b60008054604051651059141bdbdb60d21b60208201526001600160a01b0390911690638eaa6ac09060260161015e565b600080546040516d50726f706f73616c52657669657760901b60208201526001600160a01b0390911690638eaa6ac090602e0161015e565b600080546040516b22bb32b73a22b6b4ba3a32b960a11b60208201526001600160a01b0390911690638eaa6ac090602c0161015e565b600061052884848461059f565b83519091501561054d5760008060008551602087016000865af1141561054d57600080fd5b7f32340bf052adf19b6294f5a724325e4cc444978d2cc5c7e2769a2df85db660988160405161057c919061069b565b60405180910390a19392505050565b60006101d361038a565b60006101d36104e5565b6000808380519060200120836040516020016105c5929190918252602082015260400190565b6040516020818303038152906040528051906020012090506000604051806020016105ef9061068e565b601f1982820381018352601f90910116604081905261061c91906001600160a01b03891690602001610942565b6040516020818303038152906040529050818151826020016000f592506001600160a01b0383166106855760405162461bcd60e51b815260206004820152601360248201527210dc99585d194c8818d85b1b0819985a5b1959606a1b604482015260640161028c565b50509392505050565b6106a38061096583390190565b6001600160a01b0391909116815260200190565b6001600160a01b03811681146106c457600080fd5b50565b634e487b7160e01b600052604160045260246000fd5b60006001600160401b03808411156106f7576106f76106c7565b604051601f8501601f19908116603f0116810190828211818310171561071f5761071f6106c7565b8160405280935085815286868601111561073857600080fd5b858560208301376000602087830101525050509392505050565b600082601f83011261076357600080fd5b610772838335602085016106dd565b9392505050565b600080600080600060a0868803121561079157600080fd5b853561079c816106af565b945060208601356001600160401b03808211156107b857600080fd5b6107c489838a01610752565b955060408801359150808211156107da57600080fd5b6107e689838a01610752565b945060608801359150808211156107fc57600080fd5b508601601f8101881361080e57600080fd5b61081d888235602084016106dd565b95989497509295608001359392505050565b60006020828403121561084157600080fd5b8151610772816106af565b60005b8381101561086757818101518382015260200161084f565b83811115610876576000848401525b50505050565b6000815180845261089481602086016020860161084c565b601f01601f19169290920160200192915050565b600060018060a01b038087168352608060208401526108ca608084018761087c565b83810360408501526108dc818761087c565b92505080841660608401525095945050505050565b6001600160a01b0386811682528516602082015260a06040820181905260009061091d9083018661087c565b828103606084015261092f818661087c565b9150508260808301529695505050505050565b6000835161095481846020880161084c565b919091019182525060200191905056fe608060405234801561001057600080fd5b506040516106a33803806106a383398101604081905261002f91610159565b806001600160a01b0381166100735760405162461bcd60e51b8152602060048201526005602482015264415230303160d81b60448201526064015b60405180910390fd5b61007c81610083565b5050610189565b6100968161015060201b6104611760201c565b6100f85760405162461bcd60e51b815260206004820152602d60248201527f455243313936373a206e657720696d706c656d656e746174696f6e206973206e60448201526c1bdd08184818dbdb9d1c9858dd609a1b606482015260840161006a565b8061012f7f360894a13ba1a3210667c828492db98dca3e2076cc3735a920a3ca505d382bbc60001b61015660201b6104671760201c565b80546001600160a01b0319166001600160a01b039290921691909117905550565b3b151590565b90565b60006020828403121561016b57600080fd5b81516001600160a01b038116811461018257600080fd5b9392505050565b61050b806101986000396000f3fe6080604052600436106100225760003560e01c8063a619486e14610309576102ff565b366102ff573461006c5760405162461bcd60e51b81526020600482015260116024820152706d73672e76616c7565206973207a65726f60781b604482015260640160405180910390fd5b600061007661033a565b6001600160a01b0316638eaa6ac06040516020016100a6906b22bb32b73a22b6b4ba3a32b960a11b8152600c0190565b604051602081830303815290604052805190602001206040518263ffffffff1660e01b81526004016100da91815260200190565b602060405180830381865afa1580156100f7573d6000803e3d6000fd5b505050506040513d601f19601f8201168201806040525081019061011b919061046a565b604051637c302ae360e01b81529091506001600160a01b03821690637c302ae39061014c903090349060040161049a565b600060405180830381600087803b15801561016657600080fd5b505af115801561017a573d6000803e3d6000fd5b50505050600061018861033a565b6001600160a01b0316638eaa6ac06040516020016101b1906415985d5b1d60da1b815260050190565b604051602081830303815290604052805190602001206040518263ffffffff1660e01b81526004016101e591815260200190565b602060405180830381865afa158015610202573d6000803e3d6000fd5b505050506040513d601f19601f82011682018060405250810190610226919061046a565b905060006001600160a01b03821661023f6002346104b3565b60405161271091906000818181858888f193505050503d8060008114610281576040519150601f19603f3d011682016040523d82523d6000602084013e610286565b606091505b50509050806102fa576001600160a01b03831663ec720b9b836102aa6002346104b3565b6040518363ffffffff1660e01b81526004016102c792919061049a565b600060405180830381600087803b1580156102e157600080fd5b505af11580156102f5573d6000803e3d6000fd5b505050505b505050005b610307610372565b005b34801561031557600080fd5b5061031e61033a565b6040516001600160a01b03909116815260200160405180910390f35b600061036d7f360894a13ba1a3210667c828492db98dca3e2076cc3735a920a3ca505d382bbc546001600160a01b031690565b905090565b600061037c61033a565b6001600160a01b0316638eaa6ac06040516020016103ab906a4d6564696146616361646560a81b8152600b0190565b604051602081830303815290604052805190602001206040518263ffffffff1660e01b81526004016103df91815260200190565b602060405180830381865afa1580156103fc573d6000803e3d6000fd5b505050506040513d601f19601f82011682018060405250810190610420919061046a565b905063530ca43760e11b600035141561043d578060005260206000f35b3660008037600080366000845af43d6000803e80801561045c573d6000f35b3d6000fd5b3b151590565b90565b60006020828403121561047c57600080fd5b81516001600160a01b038116811461049357600080fd5b9392505050565b6001600160a01b03929092168252602082015260400190565b6000826104d057634e487b7160e01b600052601260045260246000fd5b50049056fea2646970667358221220cc7acee46cebf79cb0c32092e91b28b829d6c7c9c267c307e476df41f5ed7e9d64736f6c634300080a0033a2646970667358221220f4f5179e108abaf442a61f7bc435ec352ceb6bb928b273066a226b19072dd13e64736f6c634300080a0033",
  "devdoc": {
    "author": "Shumpei Koike - <shumpei.koike@bridges.inc>",
    "events": {
      "CreateProxy(address)": {
        "details": "Emitted when a new media is created."
      }
    },
    "kind": "dev",
    "methods": {
      "adPoolAddress()": {
        "details": "Gets the address of AdPool."
      },
      "constructor": {
        "details": "Initializer",
        "params": {
          "_nameRegistry": "address of NameRegistry"
        }
      },
      "englishAuctionAddress()": {
        "details": "Gets the address of EnglishAuction."
      },
      "eventEmitterAddress()": {
        "details": "Gets the address of EventEmitter."
      },
      "mediaFactoryAddress()": {
        "details": "Gets the address of MediaFactory."
      },
      "mediaRegistryAddress()": {
        "details": "Gets the address of MediaRegistry."
      },
      "nameRegistryAddress()": {
        "details": "Gets the address of NameRegistry"
      },
      "newMedia(address,string,string,bytes,uint256)": {
        "details": "Create a new account for media. Each proxy has its own storage and saves      data related to NFTs.",
        "params": {
          "applicationMetadata": "string of constant metadata for the defailts of the account",
          "initializer": "bytes of the initalize calldata",
          "mediaEOA": "address of the media EOA",
          "saltNonce": "uint256 of the salt number to create a proxy address",
          "updatableMetadata": "string of constant metadata for the defailts of the account"
        }
      },
      "offerBidAddress()": {
        "details": "Gets the address of OfferBid."
      },
      "openBidAddress()": {
        "details": "Gets the address of OpenBid."
      },
      "owner()": {
        "details": "Gets the owner address."
      },
      "proposalReviewAddress()": {
        "details": "Gets the address of ProposalReview."
      },
      "vaultAddress()": {
        "details": "Gets the address of Vault."
      }
    },
    "title": "MediaFactory - creates proxy contracts for media accounts.",
    "version": 1
  },
  "userdoc": {
    "kind": "user",
    "methods": {},
    "version": 1
  },
  "storageLayout": {
    "storage": [
      {
        "astId": 1889,
        "contract": "contracts/proxies/MediaFactory.sol:MediaFactory",
        "label": "_nameRegistry",
        "offset": 0,
        "slot": "0",
        "type": "t_contract(INameRegistry)3997"
      }
    ],
    "types": {
      "t_contract(INameRegistry)3997": {
        "encoding": "inplace",
        "label": "contract INameRegistry",
        "numberOfBytes": "20"
      }
    }
  }
}