{
  "address": "0xeBc1CA565dAcB5B762CCA4230ffF50e4A3b26320",
  "abi": [
    {
      "anonymous": false,
      "inputs": [
        {
          "indexed": true,
          "internalType": "address",
          "name": "owner",
          "type": "address"
        },
        {
          "indexed": true,
          "internalType": "address",
          "name": "approved",
          "type": "address"
        },
        {
          "indexed": true,
          "internalType": "uint256",
          "name": "tokenId",
          "type": "uint256"
        }
      ],
      "name": "Approval",
      "type": "event"
    },
    {
      "anonymous": false,
      "inputs": [
        {
          "indexed": true,
          "internalType": "address",
          "name": "owner",
          "type": "address"
        },
        {
          "indexed": true,
          "internalType": "address",
          "name": "operator",
          "type": "address"
        },
        {
          "indexed": false,
          "internalType": "bool",
          "name": "approved",
          "type": "bool"
        }
      ],
      "name": "ApprovalForAll",
      "type": "event"
    },
    {
      "anonymous": false,
      "inputs": [
        {
          "indexed": true,
          "internalType": "address",
          "name": "from",
          "type": "address"
        },
        {
          "indexed": true,
          "internalType": "address",
          "name": "to",
          "type": "address"
        },
        {
          "indexed": true,
          "internalType": "uint256",
          "name": "tokenId",
          "type": "uint256"
        }
      ],
      "name": "Transfer",
      "type": "event"
    },
    {
      "inputs": [
        {
          "internalType": "uint256",
          "name": "tokenId",
          "type": "uint256"
        },
        {
          "internalType": "string",
          "name": "tokenMetadata",
          "type": "string"
        }
      ],
      "name": "acceptOffer",
      "outputs": [],
      "stateMutability": "nonpayable",
      "type": "function"
    },
    {
      "inputs": [
        {
          "internalType": "uint256",
          "name": "tokenId",
          "type": "uint256"
        }
      ],
      "name": "acceptProposal",
      "outputs": [],
      "stateMutability": "nonpayable",
      "type": "function"
    },
    {
      "inputs": [
        {
          "internalType": "string",
          "name": "spaceMetadata",
          "type": "string"
        },
        {
          "internalType": "uint256",
          "name": "displayStartTimestamp",
          "type": "uint256"
        },
        {
          "internalType": "uint256",
          "name": "displayEndTimestamp",
          "type": "uint256"
        }
      ],
      "name": "adId",
      "outputs": [
        {
          "internalType": "uint256",
          "name": "",
          "type": "uint256"
        }
      ],
      "stateMutability": "pure",
      "type": "function"
    },
    {
      "inputs": [],
      "name": "adPoolAddress",
      "outputs": [
        {
          "internalType": "address",
          "name": "",
          "type": "address"
        }
      ],
      "stateMutability": "view",
      "type": "function"
    },
    {
      "inputs": [
        {
          "internalType": "address",
          "name": "to",
          "type": "address"
        },
        {
          "internalType": "uint256",
          "name": "tokenId",
          "type": "uint256"
        }
      ],
      "name": "approve",
      "outputs": [],
      "stateMutability": "nonpayable",
      "type": "function"
    },
    {
      "inputs": [],
      "name": "balance",
      "outputs": [
        {
          "internalType": "uint256",
          "name": "",
          "type": "uint256"
        }
      ],
      "stateMutability": "view",
      "type": "function"
    },
    {
      "inputs": [
        {
          "internalType": "address",
          "name": "owner",
          "type": "address"
        }
      ],
      "name": "balanceOf",
      "outputs": [
        {
          "internalType": "uint256",
          "name": "",
          "type": "uint256"
        }
      ],
      "stateMutability": "view",
      "type": "function"
    },
    {
      "inputs": [
        {
          "internalType": "uint256",
          "name": "tokenId",
          "type": "uint256"
        }
      ],
      "name": "bid",
      "outputs": [],
      "stateMutability": "payable",
      "type": "function"
    },
    {
      "inputs": [
        {
          "internalType": "uint256",
          "name": "tokenId",
          "type": "uint256"
        },
        {
          "internalType": "string",
          "name": "proposalMetadata",
          "type": "string"
        }
      ],
      "name": "bidWithProposal",
      "outputs": [],
      "stateMutability": "payable",
      "type": "function"
    },
    {
      "inputs": [
        {
          "internalType": "uint256",
          "name": "tokenId",
          "type": "uint256"
        }
      ],
      "name": "buy",
      "outputs": [],
      "stateMutability": "payable",
      "type": "function"
    },
    {
      "inputs": [
        {
          "internalType": "uint256",
          "name": "tokenId",
          "type": "uint256"
        }
      ],
      "name": "buyBasedOnTime",
      "outputs": [],
      "stateMutability": "payable",
      "type": "function"
    },
    {
      "inputs": [
        {
          "internalType": "uint256",
          "name": "tokenId",
          "type": "uint256"
        }
      ],
      "name": "cancelOffer",
      "outputs": [],
      "stateMutability": "nonpayable",
      "type": "function"
    },
    {
      "inputs": [
        {
          "internalType": "uint256",
          "name": "tokenId",
          "type": "uint256"
        }
      ],
      "name": "deletePeriod",
      "outputs": [],
      "stateMutability": "nonpayable",
      "type": "function"
    },
    {
      "inputs": [
        {
          "internalType": "uint256",
          "name": "tokenId",
          "type": "uint256"
        },
        {
          "internalType": "string",
          "name": "reason",
          "type": "string"
        },
        {
          "internalType": "bool",
          "name": "offensive",
          "type": "bool"
        }
      ],
      "name": "denyProposal",
      "outputs": [],
      "stateMutability": "nonpayable",
      "type": "function"
    },
    {
      "inputs": [],
      "name": "englishAuctionAddress",
      "outputs": [
        {
          "internalType": "address",
          "name": "",
          "type": "address"
        }
      ],
      "stateMutability": "view",
      "type": "function"
    },
    {
      "inputs": [],
      "name": "eventEmitterAddress",
      "outputs": [
        {
          "internalType": "address",
          "name": "",
          "type": "address"
        }
      ],
      "stateMutability": "view",
      "type": "function"
    },
    {
      "inputs": [
        {
          "internalType": "uint256",
          "name": "tokenId",
          "type": "uint256"
        }
      ],
      "name": "getApproved",
      "outputs": [
        {
          "internalType": "address",
          "name": "",
          "type": "address"
        }
      ],
      "stateMutability": "view",
      "type": "function"
    },
    {
      "inputs": [
        {
          "internalType": "string",
          "name": "title",
          "type": "string"
        },
        {
          "internalType": "string",
          "name": "baseURI",
          "type": "string"
        },
        {
          "internalType": "string",
          "name": "tokenMetadata",
          "type": "string"
        },
        {
          "internalType": "address",
          "name": "mediaEOA",
          "type": "address"
        },
        {
          "internalType": "address",
          "name": "nameRegistry",
          "type": "address"
        }
      ],
      "name": "initialize",
      "outputs": [],
      "stateMutability": "nonpayable",
      "type": "function"
    },
    {
      "inputs": [
        {
          "internalType": "address",
          "name": "owner",
          "type": "address"
        },
        {
          "internalType": "address",
          "name": "operator",
          "type": "address"
        }
      ],
      "name": "isApprovedForAll",
      "outputs": [
        {
          "internalType": "bool",
          "name": "",
          "type": "bool"
        }
      ],
      "stateMutability": "view",
      "type": "function"
    },
    {
      "inputs": [],
      "name": "mediaFactoryAddress",
      "outputs": [
        {
          "internalType": "address",
          "name": "",
          "type": "address"
        }
      ],
      "stateMutability": "view",
      "type": "function"
    },
    {
      "inputs": [],
      "name": "mediaRegistryAddress",
      "outputs": [
        {
          "internalType": "address",
          "name": "",
          "type": "address"
        }
      ],
      "stateMutability": "view",
      "type": "function"
    },
    {
      "inputs": [],
      "name": "name",
      "outputs": [
        {
          "internalType": "string",
          "name": "",
          "type": "string"
        }
      ],
      "stateMutability": "view",
      "type": "function"
    },
    {
      "inputs": [],
      "name": "nameRegistryAddress",
      "outputs": [
        {
          "internalType": "address",
          "name": "",
          "type": "address"
        }
      ],
      "stateMutability": "view",
      "type": "function"
    },
    {
      "inputs": [
        {
          "internalType": "string",
          "name": "spaceMetadata",
          "type": "string"
        },
        {
          "internalType": "string",
          "name": "tokenMetadata",
          "type": "string"
        },
        {
          "internalType": "uint256",
          "name": "saleEndTimestamp",
          "type": "uint256"
        },
        {
          "internalType": "uint256",
          "name": "displayStartTimestamp",
          "type": "uint256"
        },
        {
          "internalType": "uint256",
          "name": "displayEndTimestamp",
          "type": "uint256"
        },
        {
          "internalType": "enum Ad.Pricing",
          "name": "pricing",
          "type": "uint8"
        },
        {
          "internalType": "uint256",
          "name": "minPrice",
          "type": "uint256"
        }
      ],
      "name": "newPeriod",
      "outputs": [],
      "stateMutability": "nonpayable",
      "type": "function"
    },
    {
      "inputs": [
        {
          "internalType": "string",
          "name": "spaceMetadata",
          "type": "string"
        }
      ],
      "name": "newSpace",
      "outputs": [],
      "stateMutability": "nonpayable",
      "type": "function"
    },
    {
      "inputs": [],
      "name": "offerBidAddress",
      "outputs": [
        {
          "internalType": "address",
          "name": "",
          "type": "address"
        }
      ],
      "stateMutability": "view",
      "type": "function"
    },
    {
      "inputs": [
        {
          "internalType": "string",
          "name": "spaceMetadata",
          "type": "string"
        },
        {
          "internalType": "uint256",
          "name": "displayStartTimestamp",
          "type": "uint256"
        },
        {
          "internalType": "uint256",
          "name": "displayEndTimestamp",
          "type": "uint256"
        }
      ],
      "name": "offerPeriod",
      "outputs": [],
      "stateMutability": "payable",
      "type": "function"
    },
    {
      "inputs": [],
      "name": "openBidAddress",
      "outputs": [
        {
          "internalType": "address",
          "name": "",
          "type": "address"
        }
      ],
      "stateMutability": "view",
      "type": "function"
    },
    {
      "inputs": [],
      "name": "owner",
      "outputs": [
        {
          "internalType": "address",
          "name": "",
          "type": "address"
        }
      ],
      "stateMutability": "view",
      "type": "function"
    },
    {
      "inputs": [
        {
          "internalType": "uint256",
          "name": "tokenId",
          "type": "uint256"
        }
      ],
      "name": "ownerOf",
      "outputs": [
        {
          "internalType": "address",
          "name": "",
          "type": "address"
        }
      ],
      "stateMutability": "view",
      "type": "function"
    },
    {
      "inputs": [],
      "name": "proposalReviewAddress",
      "outputs": [
        {
          "internalType": "address",
          "name": "",
          "type": "address"
        }
      ],
      "stateMutability": "view",
      "type": "function"
    },
    {
      "inputs": [
        {
          "internalType": "uint256",
          "name": "tokenId",
          "type": "uint256"
        },
        {
          "internalType": "string",
          "name": "metadata",
          "type": "string"
        }
      ],
      "name": "propose",
      "outputs": [],
      "stateMutability": "nonpayable",
      "type": "function"
    },
    {
      "inputs": [
        {
          "internalType": "uint256",
          "name": "tokenId",
          "type": "uint256"
        }
      ],
      "name": "pushToSuccessfulBidder",
      "outputs": [],
      "stateMutability": "nonpayable",
      "type": "function"
    },
    {
      "inputs": [
        {
          "internalType": "uint256",
          "name": "tokenId",
          "type": "uint256"
        }
      ],
      "name": "receiveToken",
      "outputs": [],
      "stateMutability": "nonpayable",
      "type": "function"
    },
    {
      "inputs": [
        {
          "internalType": "address",
          "name": "from",
          "type": "address"
        },
        {
          "internalType": "address",
          "name": "to",
          "type": "address"
        },
        {
          "internalType": "uint256",
          "name": "tokenId",
          "type": "uint256"
        }
      ],
      "name": "safeTransferFrom",
      "outputs": [],
      "stateMutability": "nonpayable",
      "type": "function"
    },
    {
      "inputs": [
        {
          "internalType": "address",
          "name": "from",
          "type": "address"
        },
        {
          "internalType": "address",
          "name": "to",
          "type": "address"
        },
        {
          "internalType": "uint256",
          "name": "tokenId",
          "type": "uint256"
        },
        {
          "internalType": "bytes",
          "name": "_data",
          "type": "bytes"
        }
      ],
      "name": "safeTransferFrom",
      "outputs": [],
      "stateMutability": "nonpayable",
      "type": "function"
    },
    {
      "inputs": [
        {
          "internalType": "uint256",
          "name": "tokenId",
          "type": "uint256"
        },
        {
          "internalType": "uint256",
          "name": "index",
          "type": "uint256"
        },
        {
          "internalType": "string",
          "name": "reason",
          "type": "string"
        }
      ],
      "name": "selectProposal",
      "outputs": [],
      "stateMutability": "nonpayable",
      "type": "function"
    },
    {
      "inputs": [
        {
          "internalType": "address",
          "name": "operator",
          "type": "address"
        },
        {
          "internalType": "bool",
          "name": "approved",
          "type": "bool"
        }
      ],
      "name": "setApprovalForAll",
      "outputs": [],
      "stateMutability": "nonpayable",
      "type": "function"
    },
    {
      "inputs": [
        {
          "internalType": "bytes4",
          "name": "interfaceId",
          "type": "bytes4"
        }
      ],
      "name": "supportsInterface",
      "outputs": [
        {
          "internalType": "bool",
          "name": "",
          "type": "bool"
        }
      ],
      "stateMutability": "pure",
      "type": "function"
    },
    {
      "inputs": [],
      "name": "symbol",
      "outputs": [
        {
          "internalType": "string",
          "name": "",
          "type": "string"
        }
      ],
      "stateMutability": "view",
      "type": "function"
    },
    {
      "inputs": [
        {
          "internalType": "uint256",
          "name": "index",
          "type": "uint256"
        }
      ],
      "name": "tokenByIndex",
      "outputs": [
        {
          "internalType": "uint256",
          "name": "",
          "type": "uint256"
        }
      ],
      "stateMutability": "view",
      "type": "function"
    },
    {
      "inputs": [
        {
          "internalType": "address",
          "name": "owner",
          "type": "address"
        },
        {
          "internalType": "uint256",
          "name": "index",
          "type": "uint256"
        }
      ],
      "name": "tokenOfOwnerByIndex",
      "outputs": [
        {
          "internalType": "uint256",
          "name": "",
          "type": "uint256"
        }
      ],
      "stateMutability": "view",
      "type": "function"
    },
    {
      "inputs": [
        {
          "internalType": "uint256",
          "name": "tokenId",
          "type": "uint256"
        }
      ],
      "name": "tokenURI",
      "outputs": [
        {
          "internalType": "string",
          "name": "",
          "type": "string"
        }
      ],
      "stateMutability": "view",
      "type": "function"
    },
    {
      "inputs": [],
      "name": "totalSupply",
      "outputs": [
        {
          "internalType": "uint256",
          "name": "",
          "type": "uint256"
        }
      ],
      "stateMutability": "view",
      "type": "function"
    },
    {
      "inputs": [
        {
          "internalType": "address",
          "name": "from",
          "type": "address"
        },
        {
          "internalType": "address",
          "name": "to",
          "type": "address"
        },
        {
          "internalType": "uint256",
          "name": "tokenId",
          "type": "uint256"
        }
      ],
      "name": "transferFrom",
      "outputs": [],
      "stateMutability": "nonpayable",
      "type": "function"
    },
    {
      "inputs": [
        {
          "internalType": "address",
          "name": "newMediaEOA",
          "type": "address"
        },
        {
          "internalType": "string",
          "name": "newMetadata",
          "type": "string"
        }
      ],
      "name": "updateMedia",
      "outputs": [],
      "stateMutability": "nonpayable",
      "type": "function"
    },
    {
      "inputs": [],
      "name": "vaultAddress",
      "outputs": [
        {
          "internalType": "address",
          "name": "",
          "type": "address"
        }
      ],
      "stateMutability": "view",
      "type": "function"
    },
    {
      "inputs": [],
      "name": "withdraw",
      "outputs": [],
      "stateMutability": "nonpayable",
      "type": "function"
    },
    {
      "inputs": [],
      "name": "withdrawalAmount",
      "outputs": [
        {
          "internalType": "uint256",
          "name": "",
          "type": "uint256"
        }
      ],
      "stateMutability": "view",
      "type": "function"
    }
  ],
  "transactionHash": "0x046c828ff1eae7bb3212ed72d90e4de76ef838515a7b14ff63e9a84b65211f22",
  "args": [],
  "solcInputHash": "5a69c2e6422d35e6b64c3dfdb0689225",
  "bytecode": "0x608060405234801561001057600080fd5b506001600c5561441b806100256000396000f3fe60806040526004361061022e5760003560e01c80630106d8eb1461023357806301ffc9a71461025e57806306fdde031461028e578063081812fc146102b0578063095ea7b3146102d057806313c1f278146102f2578063179bcff71461031257806318160ddd146103325780631daf7ff9146103515780632231c1eb1461036457806323b872dd1461037957806327b7a2f5146103995780632bc4bc68146103b75780632f745c59146103d757806337df00c9146103f75780633ccfd60b1461041757806342842e0e1461042c578063430bf08a1461044c578063444115f614610461578063454a2ab3146104815780634b455a51146104945780634f6ccce7146104b457806360c5cc3a146104d45780636352211e146104f45780636a58767e1461051457806370a08231146105295780637ccacd49146105495780637cf175fb1461055c578063899c9989146105715780638da5cb5b146105915780638f6059d6146105a657806393525d39146105bb57806395d89b41146105db578063a22cb465146105f0578063b69ef8a814610610578063b88d4fde14610623578063c531c23614610643578063c87b56dd14610663578063c9cd71b514610683578063d4f6b5ec14610698578063d6d0faee146106b8578063d82da8fc146106d8578063d8680069146106f8578063d96a094a1461070b578063e2f5fc781461071e578063e6e268f414610733578063e985e9c514610748578063ef706adf14610768578063f072629114610788575b600080fd5b34801561023f57600080fd5b5061024861079d565b60405161025591906134b4565b60405180910390f35b34801561026a57600080fd5b5061027e6102793660046134de565b61084b565b6040519015158152602001610255565b34801561029a57600080fd5b506102a3610882565b604051610255919061355a565b3480156102bc57600080fd5b506102486102cb36600461356d565b610914565b3480156102dc57600080fd5b506102f06102eb36600461359b565b6109a1565b005b3480156102fe57600080fd5b506102f061030d3660046136cf565b610ab2565b34801561031e57600080fd5b506102f061032d366004613725565b610bbb565b34801561033e57600080fd5b50600a545b604051908152602001610255565b6102f061035f366004613774565b610cc1565b34801561037057600080fd5b50610248610df8565b34801561038557600080fd5b506102f06103943660046137c1565b610e29565b3480156103a557600080fd5b50600d546001600160a01b0316610248565b3480156103c357600080fd5b506102f06103d2366004613802565b610e6b565b3480156103e357600080fd5b506103436103f236600461359b565b610f6e565b34801561040357600080fd5b506102f061041236600461356d565b611004565b34801561042357600080fd5b506102f06110cc565b34801561043857600080fd5b506102f06104473660046137c1565b6111bc565b34801561045857600080fd5b506102486111c7565b34801561046d57600080fd5b506102f061047c366004613836565b6111f6565b6102f061048f36600461356d565b6113b8565b3480156104a057600080fd5b506102f06104af36600461356d565b611538565b3480156104c057600080fd5b506103436104cf36600461356d565b61168e565b3480156104e057600080fd5b506102f06104ef36600461356d565b611721565b34801561050057600080fd5b5061024861050f36600461356d565b6118b7565b34801561052057600080fd5b50610248611904565b34801561053557600080fd5b50610343610544366004613866565b61193b565b6102f0610557366004613836565b6119c2565b34801561056857600080fd5b50610248611ae4565b34801561057d57600080fd5b506102f061058c366004613883565b611b16565b34801561059d57600080fd5b50610248611c4e565b3480156105b257600080fd5b50610248611c98565b3480156105c757600080fd5b506102f06105d636600461356d565b611cce565b3480156105e757600080fd5b506102a3611dec565b3480156105fc57600080fd5b506102f061060b366004613925565b611dfb565b34801561061c57600080fd5b5047610343565b34801561062f57600080fd5b506102f061063e36600461395a565b611ebc565b34801561064f57600080fd5b5061034361065e366004613774565b611ef4565b34801561066f57600080fd5b506102a361067e36600461356d565b611f7b565b34801561068f57600080fd5b506102486120d7565b3480156106a457600080fd5b506102f06106b3366004613836565b612107565b3480156106c457600080fd5b506102f06106d33660046139d9565b61216e565b3480156106e457600080fd5b506102f06106f3366004613a88565b612239565b6102f061070636600461356d565b6123d4565b6102f061071936600461356d565b61253b565b34801561072a57600080fd5b50610248612614565b34801561073f57600080fd5b5061034361264c565b34801561075457600080fd5b5061027e610763366004613ad7565b61265c565b34801561077457600080fd5b506102f061078336600461356d565b61268a565b34801561079457600080fd5b506102486127f0565b600d546040516d22b733b634b9b420bab1ba34b7b760911b60208201526000916001600160a01b031690638eaa6ac090602e015b604051602081830303815290604052805190602001206040518263ffffffff1660e01b815260040161080591815260200190565b602060405180830381865afa158015610822573d6000803e3d6000fd5b505050506040513d601f19601f820116820180604052508101906108469190613b10565b905090565b60006001600160e01b031982166380ac58cd60e01b148061087c57506001600160e01b03198216635b5e139f60e01b145b92915050565b60606000805461089190613b2d565b80601f01602080910402602001604051908101604052809291908181526020018280546108bd90613b2d565b801561090a5780601f106108df5761010080835404028352916020019161090a565b820191906000526020600020905b8154815290600101906020018083116108ed57829003601f168201915b5050505050905090565b600061091f82612826565b6109855760405162461bcd60e51b815260206004820152602c60248201527f4552433732313a20617070726f76656420717565727920666f72206e6f6e657860448201526b34b9ba32b73a103a37b5b2b760a11b60648201526084015b60405180910390fd5b506000908152600660205260409020546001600160a01b031690565b60006109ac826118b7565b9050806001600160a01b0316836001600160a01b03161415610a1a5760405162461bcd60e51b815260206004820152602160248201527f4552433732313a20617070726f76616c20746f2063757272656e74206f776e656044820152603960f91b606482015260840161097c565b336001600160a01b0382161480610a365750610a36813361265c565b610aa35760405162461bcd60e51b815260206004820152603860248201527f4552433732313a20617070726f76652063616c6c6572206973206e6f74206f776044820152771b995c881b9bdc88185c1c1c9bdd995908199bdc88185b1b60421b606482015260840161097c565b610aad8383612843565b505050565b33610abb6128b1565b6001600160a01b03166314afd79e306040518263ffffffff1660e01b8152600401610ae691906134b4565b602060405180830381865afa158015610b03573d6000803e3d6000fd5b505050506040513d601f19601f82011682018060405250810190610b279190613b10565b6001600160a01b031614610b4d5760405162461bcd60e51b815260040161097c90613b68565b610b556128bb565b6001600160a01b03166313c1f2788484846040518463ffffffff1660e01b8152600401610b8493929190613b87565b600060405180830381600087803b158015610b9e57600080fd5b505af1158015610bb2573d6000803e3d6000fd5b50505050505050565b33610bc46128b1565b6001600160a01b03166314afd79e306040518263ffffffff1660e01b8152600401610bef91906134b4565b602060405180830381865afa158015610c0c573d6000803e3d6000fd5b505050506040513d601f19601f82011682018060405250810190610c309190613b10565b6001600160a01b031614610c565760405162461bcd60e51b815260040161097c90613b68565b610c5e6128b1565b6001600160a01b031663179bcff783836040518363ffffffff1660e01b8152600401610c8b929190613bb2565b600060405180830381600087803b158015610ca557600080fd5b505af1158015610cb9573d6000803e3d6000fd5b505050505050565b33610cca6128b1565b6001600160a01b03166314afd79e306040518263ffffffff1660e01b8152600401610cf591906134b4565b602060405180830381865afa158015610d12573d6000803e3d6000fd5b505050506040513d601f19601f82011682018060405250810190610d369190613b10565b6001600160a01b03161415610d5d5760405162461bcd60e51b815260040161097c90613bd6565b610d656128c5565b6001600160a01b031663171a133d84848433346040518663ffffffff1660e01b8152600401610d98959493929190613bf5565b6020604051808303816000875af1158015610db7573d6000803e3d6000fd5b505050506040513d601f19601f82011682018060405250810190610ddb9190613c35565b5034600e6000828254610dee9190613c64565b9091555050505050565b600d546040516613dc195b909a5960ca1b60208201526000916001600160a01b031690638eaa6ac0906027016107d1565b610e348383836128cf565b610e3c612900565b6001600160a01b031663465bcf058484846040518463ffffffff1660e01b8152600401610b8493929190613c7c565b33610e746128b1565b6001600160a01b03166314afd79e306040518263ffffffff1660e01b8152600401610e9f91906134b4565b602060405180830381865afa158015610ebc573d6000803e3d6000fd5b505050506040513d601f19601f82011682018060405250810190610ee09190613b10565b6001600160a01b031614610f065760405162461bcd60e51b815260040161097c90613b68565b610f0e61290a565b6001600160a01b031663b8926f2c826040518263ffffffff1660e01b8152600401610f39919061355a565b600060405180830381600087803b158015610f5357600080fd5b505af1158015610f67573d6000803e3d6000fd5b5050505050565b6000610f798361193b565b8210610fdb5760405162461bcd60e51b815260206004820152602b60248201527f455243373231456e756d657261626c653a206f776e657220696e646578206f7560448201526a74206f6620626f756e647360a81b606482015260840161097c565b506001600160a01b03919091166000908152600860209081526040808320938352929052205490565b803361100e612914565b6001600160a01b031663cc889b0b836040518263ffffffff1660e01b815260040161103b91815260200190565b606060405180830381865afa158015611058573d6000803e3d6000fd5b505050506040513d601f19601f8201168201806040525081019061107c9190613ca0565b602001516001600160a01b0316146110be5760405162461bcd60e51b815260206004820152600560248201526425a218991b60d91b604482015260640161097c565b6110c8823361291e565b5050565b336110d56128b1565b6001600160a01b03166314afd79e306040518263ffffffff1660e01b815260040161110091906134b4565b602060405180830381865afa15801561111d573d6000803e3d6000fd5b505050506040513d601f19601f820116820180604052508101906111419190613b10565b6001600160a01b0316146111675760405162461bcd60e51b815260040161097c90613b68565b600061117161264c565b9050600061117f33836129ca565b905080156110c85761118f612900565b6001600160a01b031663279862cb836040518263ffffffff1660e01b8152600401610c8b91815260200190565b610e34838383612a9e565b600d546040516415985d5b1d60da1b60208201526000916001600160a01b031690638eaa6ac0906025016107d1565b336111ff6128b1565b6001600160a01b03166314afd79e306040518263ffffffff1660e01b815260040161122a91906134b4565b602060405180830381865afa158015611247573d6000803e3d6000fd5b505050506040513d601f19601f8201168201806040525081019061126b9190613b10565b6001600160a01b0316146112915760405162461bcd60e51b815260040161097c90613b68565b600061129b6128c5565b6001600160a01b03166319b05f49846040518263ffffffff1660e01b81526004016112c891815260200190565b6000604051808303816000875af11580156112e7573d6000803e3d6000fd5b505050506040513d6000823e601f3d908101601f1916820160405261130f9190810190613d46565b905061131961290a565b6001600160a01b031663a9ad60f38484846040518463ffffffff1660e01b815260040161134893929190613de9565b600060405180830381600087803b15801561136257600080fd5b505af1158015611376573d6000803e3d6000fd5b5050505061138981606001518484612ab9565b6113a2600a826080015161139d9190613e5b565b612b21565b8060800151600e6000828254610dee9190613e7d565b336113c16128b1565b6001600160a01b03166314afd79e306040518263ffffffff1660e01b81526004016113ec91906134b4565b602060405180830381865afa158015611409573d6000803e3d6000fd5b505050506040513d601f19601f8201168201806040525081019061142d9190613b10565b6001600160a01b031614156114545760405162461bcd60e51b815260040161097c90613bd6565b6002600c5414156114775760405162461bcd60e51b815260040161097c90613e94565b6002600c55600061148661290a565b604051637ee8065f60e01b8152600481018490523360248201523460448201526001600160a01b039190911690637ee8065f906064016060604051808303816000875af11580156114db573d6000803e3d6000fd5b505050506040513d601f19601f820116820180604052508101906114ff9190613ca0565b905061150a81612b32565b60408101516115199034613e7d565b600e600082825461152a9190613c64565b90915550506001600c555050565b336115416128b1565b6001600160a01b03166314afd79e306040518263ffffffff1660e01b815260040161156c91906134b4565b602060405180830381865afa158015611589573d6000803e3d6000fd5b505050506040513d601f19601f820116820180604052508101906115ad9190613b10565b6001600160a01b0316146115d35760405162461bcd60e51b815260040161097c90613b68565b306115dd826118b7565b6001600160a01b03161461161b5760405162461bcd60e51b81526020600482015260056024820152644b4431323160d81b604482015260640161097c565b61162361290a565b6001600160a01b0316634b455a51826040518263ffffffff1660e01b815260040161165091815260200190565b600060405180830381600087803b15801561166a57600080fd5b505af115801561167e573d6000803e3d6000fd5b5050505061168b81612b44565b50565b6000611699600a5490565b82106116fc5760405162461bcd60e51b815260206004820152602c60248201527f455243373231456e756d657261626c653a20676c6f62616c20696e646578206f60448201526b7574206f6620626f756e647360a01b606482015260840161097c565b600a828154811061170f5761170f613ecb565b90600052602060002001549050919050565b3361172a6128b1565b6001600160a01b03166314afd79e306040518263ffffffff1660e01b815260040161175591906134b4565b602060405180830381865afa158015611772573d6000803e3d6000fd5b505050506040513d601f19601f820116820180604052508101906117969190613b10565b6001600160a01b0316146117bc5760405162461bcd60e51b815260040161097c90613b68565b6117c46128bb565b6001600160a01b031663897615e6826040518263ffffffff1660e01b81526004016117f191815260200190565b602060405180830381865afa15801561180e573d6000803e3d6000fd5b505050506040513d601f19601f820116820180604052508101906118329190613b10565b6001600160a01b0316611844826118b7565b6001600160a01b0316146118825760405162461bcd60e51b81526020600482015260056024820152644b4431333160d81b604482015260640161097c565b61188a6128bb565b6001600160a01b03166319b05f49826040518263ffffffff1660e01b8152600401610f3991815260200190565b6000818152600460205260408120546001600160a01b03168061087c5760405162461bcd60e51b815260206004820152600560248201526412d10c4c4d60da1b604482015260640161097c565b600d546040516c4d65646961526567697374727960981b60208201526000916001600160a01b031690638eaa6ac090602d016107d1565b60006001600160a01b0382166119a65760405162461bcd60e51b815260206004820152602a60248201527f4552433732313a2062616c616e636520717565727920666f7220746865207a65604482015269726f206164647265737360b01b606482015260840161097c565b506001600160a01b031660009081526005602052604090205490565b336119cb6128b1565b6001600160a01b03166314afd79e306040518263ffffffff1660e01b81526004016119f691906134b4565b602060405180830381865afa158015611a13573d6000803e3d6000fd5b505050506040513d601f19601f82011682018060405250810190611a379190613b10565b6001600160a01b03161415611a5e5760405162461bcd60e51b815260040161097c90613bd6565b611a6661290a565b6001600160a01b0316636c15b2bf838333346040518563ffffffff1660e01b8152600401611a979493929190613ee1565b600060405180830381600087803b158015611ab157600080fd5b505af1158015611ac5573d6000803e3d6000fd5b5050505034600e6000828254611adb9190613c64565b90915550505050565b600d546040516713d999995c909a5960c21b60208201526000916001600160a01b031690638eaa6ac0906028016107d1565b33611b1f6128b1565b6001600160a01b03166314afd79e306040518263ffffffff1660e01b8152600401611b4a91906134b4565b602060405180830381865afa158015611b67573d6000803e3d6000fd5b505050506040513d601f19601f82011682018060405250810190611b8b9190613b10565b6001600160a01b031614611bb15760405162461bcd60e51b815260040161097c90613b68565b6000611bbb61290a565b6001600160a01b031663e6851b98308a8a8a8a8a8a8a6040518963ffffffff1660e01b8152600401611bf4989796959493929190613f16565b6020604051808303816000875af1158015611c13573d6000803e3d6000fd5b505050506040513d601f19601f82011682018060405250810190611c379190613c35565b9050611c44308289612ab9565b5050505050505050565b600d5460408051631abe729160e31b815290516000926001600160a01b03169163d5f394889160048083019260209291908290030181865afa158015610822573d6000803e3d6000fd5b600d546040516b4d65646961466163746f727960a01b60208201526000916001600160a01b031690638eaa6ac090602c016107d1565b33611cd76128b1565b6001600160a01b03166314afd79e306040518263ffffffff1660e01b8152600401611d0291906134b4565b602060405180830381865afa158015611d1f573d6000803e3d6000fd5b505050506040513d601f19601f82011682018060405250810190611d439190613b10565b6001600160a01b031614611d695760405162461bcd60e51b815260040161097c90613b68565b61168b81611d75612914565b6001600160a01b031663cc889b0b846040518263ffffffff1660e01b8152600401611da291815260200190565b606060405180830381865afa158015611dbf573d6000803e3d6000fd5b505050506040513d601f19601f82011682018060405250810190611de39190613ca0565b6020015161291e565b60606001805461089190613b2d565b6001600160a01b038216331415611e505760405162461bcd60e51b815260206004820152601960248201527822a9219b99189d1030b8383937bb32903a379031b0b63632b960391b604482015260640161097c565b3360008181526007602090815260408083206001600160a01b03871680855290835292819020805460ff191686151590811790915590519081529192917f17307eab39ab6107e8899845ad3d59bd9653f200f220920489ca2b5937696c31910160405180910390a35050565b611ec63383612bae565b611ee25760405162461bcd60e51b815260040161097c90613f98565b611eee84848484612c70565b50505050565b6040516303fb4aab60e41b815260009073E8f3Ed040c0BbF6cE0FE901720bAeE3f808c961E90633fb4aab090611f3290879087908790600401613fe9565b602060405180830381865af4158015611f4f573d6000803e3d6000fd5b505050506040513d601f19601f82011682018060405250810190611f739190613c35565b949350505050565b6060611f8682612826565b611fea5760405162461bcd60e51b815260206004820152602f60248201527f4552433732314d657461646174613a2055524920717565727920666f72206e6f60448201526e3732bc34b9ba32b73a103a37b5b2b760891b606482015260840161097c565b600060028054611ff990613b2d565b90501161209c576000828152600360205260409020805461201990613b2d565b80601f016020809104026020016040519081016040528092919081815260200182805461204590613b2d565b80156120925780601f1061206757610100808354040283529160200191612092565b820191906000526020600020905b81548152906001019060200180831161207557829003601f168201915b505050505061087c565b6002600360008481526020019081526020016000206040516020016120c29291906140a8565b60405160208183030381529060405292915050565b600d54604051651059141bdbdb60d21b60208201526000916001600160a01b031690638eaa6ac0906026016107d1565b33612111836118b7565b6001600160a01b0316146121375760405162461bcd60e51b815260040161097c90613b68565b61213f6128bb565b6001600160a01b031663fb772f4b8383336040518463ffffffff1660e01b8152600401610c8b939291906140bd565b600d546001600160a01b0316156121af5760405162461bcd60e51b8152602060048201526005602482015264041523030360dc1b604482015260640161097c565b84516121c290600090602088019061341b565b50846040516020016121d491906140ee565b604051602081830303815290604052600190805190602001906121f892919061341b565b50835161220c90600290602087019061341b565b5061221982600085612ab9565b600d80546001600160a01b0319166001600160a01b038316179055610f67565b336122426128b1565b6001600160a01b03166314afd79e306040518263ffffffff1660e01b815260040161226d91906134b4565b602060405180830381865afa15801561228a573d6000803e3d6000fd5b505050506040513d601f19601f820116820180604052508101906122ae9190613b10565b6001600160a01b0316146122d45760405162461bcd60e51b815260040161097c90613b68565b6002600c5414156122f75760405162461bcd60e51b815260040161097c90613e94565b6002600c55600080612307612ca3565b6001600160a01b031663d82da8fc8686866040518463ffffffff1660e01b81526004016123369392919061411e565b6000604051808303816000875af1158015612355573d6000803e3d6000fd5b505050506040513d6000823e601f3d908101601f1916820160405261237d91908101906141d4565b9150915061238f826020015186612cad565b8160400151600e60008282546123a59190613e7d565b909155505060408201516123bf9061139d90600a90613e5b565b6123c881612cef565b50506001600c55505050565b336123dd6128b1565b6001600160a01b03166314afd79e306040518263ffffffff1660e01b815260040161240891906134b4565b602060405180830381865afa158015612425573d6000803e3d6000fd5b505050506040513d601f19601f820116820180604052508101906124499190613b10565b6001600160a01b031614156124705760405162461bcd60e51b815260040161097c90613bd6565b61247861290a565b6040516239a3eb60e31b8152600481018390523460248201526001600160a01b0391909116906301cd1f58906044015b600060405180830381600087803b1580156124c257600080fd5b505af11580156124d6573d6000803e3d6000fd5b505050506124e43382612cad565b6124f261139d600a34613e5b565b6124fa612900565b604051635dd995b560e01b8152600481018390523460248201523360448201524260648201526001600160a01b039190911690635dd995b590608401610f39565b336125446128b1565b6001600160a01b03166314afd79e306040518263ffffffff1660e01b815260040161256f91906134b4565b602060405180830381865afa15801561258c573d6000803e3d6000fd5b505050506040513d601f19601f820116820180604052508101906125b09190613b10565b6001600160a01b031614156125d75760405162461bcd60e51b815260040161097c90613bd6565b6125df61290a565b604051639d23b6af60e01b8152600481018390523460248201526001600160a01b039190911690639d23b6af906044016124a8565b600d546040516d50726f706f73616c52657669657760901b60208201526000916001600160a01b031690638eaa6ac090602e016107d1565b6000600e54476108469190613e7d565b6001600160a01b03918216600090815260076020908152604080832093909416825291909152205460ff1690565b336126936128b1565b6001600160a01b03166314afd79e306040518263ffffffff1660e01b81526004016126be91906134b4565b602060405180830381865afa1580156126db573d6000803e3d6000fd5b505050506040513d601f19601f820116820180604052508101906126ff9190613b10565b6001600160a01b031614156127265760405162461bcd60e51b815260040161097c90613bd6565b6002600c5414156127495760405162461bcd60e51b815260040161097c90613e94565b6002600c5560006127586128c5565b6040516315f5a0b160e21b8152600481018490523360248201526001600160a01b0391909116906357d682c4906044016000604051808303816000875af11580156127a7573d6000803e3d6000fd5b505050506040513d6000823e601f3d908101601f191682016040526127cf9190810190613d46565b90506127da81612d69565b8060800151600e600082825461152a9190613e7d565b600d546040516b22bb32b73a22b6b4ba3a32b960a11b60208201526000916001600160a01b031690638eaa6ac090602c016107d1565b6000908152600460205260409020546001600160a01b0316151590565b600081815260066020526040902080546001600160a01b0319166001600160a01b0384169081179091558190612878826118b7565b6001600160a01b03167f8c5be1e5ebec7d5bd14f71427d1e84f3dd0314c0f7b2291e5b200ac8c7c3b92560405160405180910390a45050565b6000610846611904565b6000610846612614565b6000610846611ae4565b6128d93382612bae565b6128f55760405162461bcd60e51b815260040161097c90613f98565b610aad838383612d7b565b60006108466127f0565b60006108466120d7565b600061084661079d565b600061292861290a565b6001600160a01b031663f86fde57846040518263ffffffff1660e01b815260040161295591815260200190565b60408051808303816000875af1158015612973573d6000803e3d6000fd5b505050506040513d601f19601f8201168201806040525081019061299791906142ba565b91505080600e60008282546129ac9190613e7d565b909155506129bc90508284612cad565b610aad61139d600a83613e5b565b6000826001600160a01b03168261271090604051600060405180830381858888f193505050503d8060008114612a1c576040519150601f19603f3d011682016040523d82523d6000602084013e612a21565b606091505b5050809150508061087c57612a34612900565b60405163ec720b9b60e01b81526001600160a01b03858116600483015260248201859052919091169063ec720b9b90604401600060405180830381600087803b158015612a8057600080fd5b505af1158015612a94573d6000803e3d6000fd5b5050505092915050565b610aad83838360405180602001604052806000815250611ebc565b612ac38383612f14565b60008281526003602090815260409091208251612ae29284019061341b565b508115610aad57612af1612900565b6001600160a01b031663465bcf05600085856040518463ffffffff1660e01b8152600401610b8493929190613c7c565b6110c8612b2c6111c7565b826129ca565b6110c8816020015182604001516129ca565b612b4d81613040565b604080516020808201808452600080845285815260039092529290209051612b75929061341b565b50612b7e612900565b6001600160a01b031663465bcf05306000846040518463ffffffff1660e01b8152600401610f3993929190613c7c565b6000612bb982612826565b612c1a5760405162461bcd60e51b815260206004820152602c60248201527f4552433732313a206f70657261746f7220717565727920666f72206e6f6e657860448201526b34b9ba32b73a103a37b5b2b760a11b606482015260840161097c565b6000612c25836118b7565b9050806001600160a01b0316846001600160a01b03161480612c605750836001600160a01b0316612c5584610914565b6001600160a01b0316145b80611f735750611f73818561265c565b612c7b848484612d7b565b612c87848484846130d5565b611eee5760405162461bcd60e51b815260040161097c906142e8565b6000610846610df8565b612cb8308383612d7b565b612cc0612900565b6001600160a01b031663465bcf053084846040518463ffffffff1660e01b8152600401610c8b93929190613c7c565b60005b81518110156110c8576000828281518110612d0f57612d0f613ecb565b602002602001015190508060400151600014612d56578060400151600e6000828254612d3b9190613e7d565b92505081905550612d54816020015182604001516129ca565b505b5080612d618161433a565b915050612cf2565b6110c8816060015182608001516129ca565b826001600160a01b0316612d8e826118b7565b6001600160a01b031614612df65760405162461bcd60e51b815260206004820152602960248201527f4552433732313a207472616e73666572206f6620746f6b656e2074686174206960448201526839903737ba1037bbb760b91b606482015260840161097c565b6001600160a01b038216612e585760405162461bcd60e51b8152602060048201526024808201527f4552433732313a207472616e7366657220746f20746865207a65726f206164646044820152637265737360e01b606482015260840161097c565b612e638383836131d3565b612e6e600082612843565b6001600160a01b0383166000908152600560205260408120805460019290612e97908490613e7d565b90915550506001600160a01b0382166000908152600560205260408120805460019290612ec5908490613c64565b909155505060008181526004602052604080822080546001600160a01b0319166001600160a01b0386811691821790925591518493918716916000805160206143c683398151915291a4505050565b6001600160a01b038216612f6a5760405162461bcd60e51b815260206004820181905260248201527f4552433732313a206d696e7420746f20746865207a65726f2061646472657373604482015260640161097c565b612f7381612826565b15612fbf5760405162461bcd60e51b815260206004820152601c60248201527b115490cdcc8c4e881d1bdad95b88185b1c9958591e481b5a5b9d195960221b604482015260640161097c565b612fcb600083836131d3565b6001600160a01b0382166000908152600560205260408120805460019290612ff4908490613c64565b909155505060008181526004602052604080822080546001600160a01b0319166001600160a01b03861690811790915590518392906000805160206143c6833981519152908290a45050565b600061304b826118b7565b9050613059816000846131d3565b613064600083612843565b6001600160a01b038116600090815260056020526040812080546001929061308d908490613e7d565b909155505060008281526004602052604080822080546001600160a01b0319169055518391906001600160a01b038416906000805160206143c6833981519152908390a45050565b60006001600160a01b0384163b156131c857604051630a85bd0160e11b81526001600160a01b0385169063150b7a0290613119903390899088908890600401614355565b6020604051808303816000875af1925050508015613154575060408051601f3d908101601f1916820190925261315191810190614392565b60015b6131ae573d808015613182576040519150601f19603f3d011682016040523d82523d6000602084013e613187565b606091505b5080516131a65760405162461bcd60e51b815260040161097c906142e8565b805181602001fd5b6001600160e01b031916630a85bd0160e11b149050611f73565b506001949350505050565b6001600160a01b03831661322e5761322981600a80546000838152600b60205260408120829055600182018355919091527fc65a7bb8d6351c1cf70c95a316cc6a92839c986682d98bc35f958f4883f9d2a80155565b613251565b816001600160a01b0316836001600160a01b03161461325157613251838261328b565b6001600160a01b03821661326857610aad81613328565b826001600160a01b0316826001600160a01b031614610aad57610aad82826133d7565b600060016132988461193b565b6132a29190613e7d565b6000838152600960205260409020549091508082146132f5576001600160a01b03841660009081526008602090815260408083208584528252808320548484528184208190558352600990915290208190555b5060009182526009602090815260408084208490556001600160a01b039094168352600881528383209183525290812055565b600a5460009061333a90600190613e7d565b6000838152600b6020526040812054600a805493945090928490811061336257613362613ecb565b9060005260206000200154905080600a838154811061338357613383613ecb565b6000918252602080832090910192909255828152600b9091526040808220849055858252812055600a8054806133bb576133bb6143af565b6001900381819060005260206000200160009055905550505050565b60006133e28361193b565b6001600160a01b039093166000908152600860209081526040808320868452825280832085905593825260099052919091209190915550565b82805461342790613b2d565b90600052602060002090601f016020900481019282613449576000855561348f565b82601f1061346257805160ff191683800117855561348f565b8280016001018555821561348f579182015b8281111561348f578251825591602001919060010190613474565b5061349b92915061349f565b5090565b5b8082111561349b57600081556001016134a0565b6001600160a01b0391909116815260200190565b6001600160e01b03198116811461168b57600080fd5b6000602082840312156134f057600080fd5b81356134fb816134c8565b9392505050565b60005b8381101561351d578181015183820152602001613505565b83811115611eee5750506000910152565b60008151808452613546816020860160208601613502565b601f01601f19169290920160200192915050565b6020815260006134fb602083018461352e565b60006020828403121561357f57600080fd5b5035919050565b6001600160a01b038116811461168b57600080fd5b600080604083850312156135ae57600080fd5b82356135b981613586565b946020939093013593505050565b634e487b7160e01b600052604160045260246000fd5b60405160a081016001600160401b03811182821017156135ff576135ff6135c7565b60405290565b604051601f8201601f191681016001600160401b038111828210171561362d5761362d6135c7565b604052919050565b60006001600160401b0382111561364e5761364e6135c7565b50601f01601f191660200190565b600061366f61366a84613635565b613605565b905082815283838301111561368357600080fd5b828260208301376000602084830101529392505050565b600082601f8301126136ab57600080fd5b6134fb8383356020850161365c565b803580151581146136ca57600080fd5b919050565b6000806000606084860312156136e457600080fd5b8335925060208401356001600160401b0381111561370157600080fd5b61370d8682870161369a565b92505061371c604085016136ba565b90509250925092565b6000806040838503121561373857600080fd5b823561374381613586565b915060208301356001600160401b0381111561375e57600080fd5b61376a8582860161369a565b9150509250929050565b60008060006060848603121561378957600080fd5b83356001600160401b0381111561379f57600080fd5b6137ab8682870161369a565b9660208601359650604090950135949350505050565b6000806000606084860312156137d657600080fd5b83356137e181613586565b925060208401356137f181613586565b929592945050506040919091013590565b60006020828403121561381457600080fd5b81356001600160401b0381111561382a57600080fd5b611f738482850161369a565b6000806040838503121561384957600080fd5b8235915060208301356001600160401b0381111561375e57600080fd5b60006020828403121561387857600080fd5b81356134fb81613586565b600080600080600080600060e0888a03121561389e57600080fd5b87356001600160401b03808211156138b557600080fd5b6138c18b838c0161369a565b985060208a01359150808211156138d757600080fd5b506138e48a828b0161369a565b96505060408801359450606088013593506080880135925060a08801356005811061390e57600080fd5b8092505060c0880135905092959891949750929550565b6000806040838503121561393857600080fd5b823561394381613586565b9150613951602084016136ba565b90509250929050565b6000806000806080858703121561397057600080fd5b843561397b81613586565b9350602085013561398b81613586565b92506040850135915060608501356001600160401b038111156139ad57600080fd5b8501601f810187136139be57600080fd5b6139cd8782356020840161365c565b91505092959194509250565b600080600080600060a086880312156139f157600080fd5b85356001600160401b0380821115613a0857600080fd5b613a1489838a0161369a565b96506020880135915080821115613a2a57600080fd5b613a3689838a0161369a565b95506040880135915080821115613a4c57600080fd5b50613a598882890161369a565b9350506060860135613a6a81613586565b91506080860135613a7a81613586565b809150509295509295909350565b600080600060608486031215613a9d57600080fd5b833592506020840135915060408401356001600160401b03811115613ac157600080fd5b613acd8682870161369a565b9150509250925092565b60008060408385031215613aea57600080fd5b8235613af581613586565b91506020830135613b0581613586565b809150509250929050565b600060208284031215613b2257600080fd5b81516134fb81613586565b600181811c90821680613b4157607f821691505b60208210811415613b6257634e487b7160e01b600052602260045260246000fd5b50919050565b60208082526005908201526425a218189960d91b604082015260600190565b838152606060208201526000613ba0606083018561352e565b90508215156040830152949350505050565b6001600160a01b0383168152604060208201819052600090611f739083018461352e565b60208082526005908201526412d10c0c4d60da1b604082015260600190565b60a081526000613c0860a083018861352e565b60208301969096525060408101939093526001600160a01b03919091166060830152608090910152919050565b600060208284031215613c4757600080fd5b5051919050565b634e487b7160e01b600052601160045260246000fd5b60008219821115613c7757613c77613c4e565b500190565b6001600160a01b039384168152919092166020820152604081019190915260600190565b600060608284031215613cb257600080fd5b604051606081016001600160401b0381118282101715613cd457613cd46135c7565b604052825181526020830151613ce981613586565b60208201526040928301519281019290925250919050565b600082601f830112613d1257600080fd5b8151613d2061366a82613635565b818152846020838601011115613d3557600080fd5b611f73826020830160208701613502565b600060208284031215613d5857600080fd5b81516001600160401b0380821115613d6f57600080fd5b9083019060a08286031215613d8357600080fd5b613d8b6135dd565b825182811115613d9a57600080fd5b613da687828601613d01565b825250602083015160208201526040830151604082015260608301519150613dcd82613586565b8160608201526080830151608082015280935050505092915050565b838152606060208201526000613e02606083018561352e565b8281036040840152835160a08252613e1d60a083018261352e565b60208681015190840152604080870151908401526060808701516001600160a01b031690840152608095860151959092019490945295945050505050565b600082613e7857634e487b7160e01b600052601260045260246000fd5b500490565b600082821015613e8f57613e8f613c4e565b500390565b6020808252601f908201527f5265656e7472616e637947756172643a207265656e7472616e742063616c6c00604082015260600190565b634e487b7160e01b600052603260045260246000fd5b848152608060208201526000613efa608083018661352e565b6001600160a01b03949094166040830152506060015292915050565b6001600160a01b038916815261010060208201819052600090613f3b8382018b61352e565b90508281036040840152613f4f818a61352e565b9150508660608301528560808301528460a083015260058410613f8257634e487b7160e01b600052602160045260246000fd5b60c082019390935260e001529695505050505050565b60208082526031908201527f4552433732313a207472616e736665722063616c6c6572206973206e6f74206f6040820152701ddb995c881b9bdc88185c1c1c9bdd9959607a1b606082015260800190565b606081526000613ffc606083018661352e565b60208301949094525060400152919050565b8054600090600181811c908083168061402857607f831692505b602080841082141561404a57634e487b7160e01b600052602260045260246000fd5b81801561405e576001811461406f5761409c565b60ff1986168952848901965061409c565b60008881526020902060005b868110156140945781548b82015290850190830161407b565b505084890196505b50505050505092915050565b6000611f736140b7838661400e565b8461400e565b8381526060602082015260006140d6606083018561352e565b905060018060a01b0383166040830152949350505050565b674b616c6569646f5f60c01b815260008251614111816008850160208701613502565b9190910160080192915050565b83815282602082015260606040820152600061413d606083018461352e565b95945050505050565b60006080828403121561415857600080fd5b604051608081016001600160401b03808211838310171561417b5761417b6135c7565b81604052829350845183526020850151915061419682613586565b8160208401526040850151604084015260608501519150808211156141ba57600080fd5b506141c785828601613d01565b6060830152505092915050565b600080604083850312156141e757600080fd5b82516001600160401b03808211156141fe57600080fd5b61420a86838701614146565b935060209150818501518181111561422157600080fd5b8501601f8101871361423257600080fd5b805182811115614244576142446135c7565b8060051b614253858201613605565b918252828101850191858101908a84111561426d57600080fd5b86850192505b838310156142a95782518681111561428b5760008081fd5b6142998c8983890101614146565b8352509186019190860190614273565b809750505050505050509250929050565b600080604083850312156142cd57600080fd5b82516142d881613586565b6020939093015192949293505050565b60208082526032908201527f4552433732313a207472616e7366657220746f206e6f6e20455243373231526560408201527131b2b4bb32b91034b6b83632b6b2b73a32b960711b606082015260800190565b600060001982141561434e5761434e613c4e565b5060010190565b6001600160a01b03858116825284166020820152604081018390526080606082018190526000906143889083018461352e565b9695505050505050565b6000602082840312156143a457600080fd5b81516134fb816134c8565b634e487b7160e01b600052603160045260246000fdfeddf252ad1be2c89b69c2b068fc378daa952ba7f163c4a11628f55a4df523b3efa2646970667358221220a05ae51e8601c281a9f75b455e8947a997662bc7503a4938e8fc83b2b46a481364736f6c634300080a0033",
  "deployedBytecode": "0x60806040526004361061022e5760003560e01c80630106d8eb1461023357806301ffc9a71461025e57806306fdde031461028e578063081812fc146102b0578063095ea7b3146102d057806313c1f278146102f2578063179bcff71461031257806318160ddd146103325780631daf7ff9146103515780632231c1eb1461036457806323b872dd1461037957806327b7a2f5146103995780632bc4bc68146103b75780632f745c59146103d757806337df00c9146103f75780633ccfd60b1461041757806342842e0e1461042c578063430bf08a1461044c578063444115f614610461578063454a2ab3146104815780634b455a51146104945780634f6ccce7146104b457806360c5cc3a146104d45780636352211e146104f45780636a58767e1461051457806370a08231146105295780637ccacd49146105495780637cf175fb1461055c578063899c9989146105715780638da5cb5b146105915780638f6059d6146105a657806393525d39146105bb57806395d89b41146105db578063a22cb465146105f0578063b69ef8a814610610578063b88d4fde14610623578063c531c23614610643578063c87b56dd14610663578063c9cd71b514610683578063d4f6b5ec14610698578063d6d0faee146106b8578063d82da8fc146106d8578063d8680069146106f8578063d96a094a1461070b578063e2f5fc781461071e578063e6e268f414610733578063e985e9c514610748578063ef706adf14610768578063f072629114610788575b600080fd5b34801561023f57600080fd5b5061024861079d565b60405161025591906134b4565b60405180910390f35b34801561026a57600080fd5b5061027e6102793660046134de565b61084b565b6040519015158152602001610255565b34801561029a57600080fd5b506102a3610882565b604051610255919061355a565b3480156102bc57600080fd5b506102486102cb36600461356d565b610914565b3480156102dc57600080fd5b506102f06102eb36600461359b565b6109a1565b005b3480156102fe57600080fd5b506102f061030d3660046136cf565b610ab2565b34801561031e57600080fd5b506102f061032d366004613725565b610bbb565b34801561033e57600080fd5b50600a545b604051908152602001610255565b6102f061035f366004613774565b610cc1565b34801561037057600080fd5b50610248610df8565b34801561038557600080fd5b506102f06103943660046137c1565b610e29565b3480156103a557600080fd5b50600d546001600160a01b0316610248565b3480156103c357600080fd5b506102f06103d2366004613802565b610e6b565b3480156103e357600080fd5b506103436103f236600461359b565b610f6e565b34801561040357600080fd5b506102f061041236600461356d565b611004565b34801561042357600080fd5b506102f06110cc565b34801561043857600080fd5b506102f06104473660046137c1565b6111bc565b34801561045857600080fd5b506102486111c7565b34801561046d57600080fd5b506102f061047c366004613836565b6111f6565b6102f061048f36600461356d565b6113b8565b3480156104a057600080fd5b506102f06104af36600461356d565b611538565b3480156104c057600080fd5b506103436104cf36600461356d565b61168e565b3480156104e057600080fd5b506102f06104ef36600461356d565b611721565b34801561050057600080fd5b5061024861050f36600461356d565b6118b7565b34801561052057600080fd5b50610248611904565b34801561053557600080fd5b50610343610544366004613866565b61193b565b6102f0610557366004613836565b6119c2565b34801561056857600080fd5b50610248611ae4565b34801561057d57600080fd5b506102f061058c366004613883565b611b16565b34801561059d57600080fd5b50610248611c4e565b3480156105b257600080fd5b50610248611c98565b3480156105c757600080fd5b506102f06105d636600461356d565b611cce565b3480156105e757600080fd5b506102a3611dec565b3480156105fc57600080fd5b506102f061060b366004613925565b611dfb565b34801561061c57600080fd5b5047610343565b34801561062f57600080fd5b506102f061063e36600461395a565b611ebc565b34801561064f57600080fd5b5061034361065e366004613774565b611ef4565b34801561066f57600080fd5b506102a361067e36600461356d565b611f7b565b34801561068f57600080fd5b506102486120d7565b3480156106a457600080fd5b506102f06106b3366004613836565b612107565b3480156106c457600080fd5b506102f06106d33660046139d9565b61216e565b3480156106e457600080fd5b506102f06106f3366004613a88565b612239565b6102f061070636600461356d565b6123d4565b6102f061071936600461356d565b61253b565b34801561072a57600080fd5b50610248612614565b34801561073f57600080fd5b5061034361264c565b34801561075457600080fd5b5061027e610763366004613ad7565b61265c565b34801561077457600080fd5b506102f061078336600461356d565b61268a565b34801561079457600080fd5b506102486127f0565b600d546040516d22b733b634b9b420bab1ba34b7b760911b60208201526000916001600160a01b031690638eaa6ac090602e015b604051602081830303815290604052805190602001206040518263ffffffff1660e01b815260040161080591815260200190565b602060405180830381865afa158015610822573d6000803e3d6000fd5b505050506040513d601f19601f820116820180604052508101906108469190613b10565b905090565b60006001600160e01b031982166380ac58cd60e01b148061087c57506001600160e01b03198216635b5e139f60e01b145b92915050565b60606000805461089190613b2d565b80601f01602080910402602001604051908101604052809291908181526020018280546108bd90613b2d565b801561090a5780601f106108df5761010080835404028352916020019161090a565b820191906000526020600020905b8154815290600101906020018083116108ed57829003601f168201915b5050505050905090565b600061091f82612826565b6109855760405162461bcd60e51b815260206004820152602c60248201527f4552433732313a20617070726f76656420717565727920666f72206e6f6e657860448201526b34b9ba32b73a103a37b5b2b760a11b60648201526084015b60405180910390fd5b506000908152600660205260409020546001600160a01b031690565b60006109ac826118b7565b9050806001600160a01b0316836001600160a01b03161415610a1a5760405162461bcd60e51b815260206004820152602160248201527f4552433732313a20617070726f76616c20746f2063757272656e74206f776e656044820152603960f91b606482015260840161097c565b336001600160a01b0382161480610a365750610a36813361265c565b610aa35760405162461bcd60e51b815260206004820152603860248201527f4552433732313a20617070726f76652063616c6c6572206973206e6f74206f776044820152771b995c881b9bdc88185c1c1c9bdd995908199bdc88185b1b60421b606482015260840161097c565b610aad8383612843565b505050565b33610abb6128b1565b6001600160a01b03166314afd79e306040518263ffffffff1660e01b8152600401610ae691906134b4565b602060405180830381865afa158015610b03573d6000803e3d6000fd5b505050506040513d601f19601f82011682018060405250810190610b279190613b10565b6001600160a01b031614610b4d5760405162461bcd60e51b815260040161097c90613b68565b610b556128bb565b6001600160a01b03166313c1f2788484846040518463ffffffff1660e01b8152600401610b8493929190613b87565b600060405180830381600087803b158015610b9e57600080fd5b505af1158015610bb2573d6000803e3d6000fd5b50505050505050565b33610bc46128b1565b6001600160a01b03166314afd79e306040518263ffffffff1660e01b8152600401610bef91906134b4565b602060405180830381865afa158015610c0c573d6000803e3d6000fd5b505050506040513d601f19601f82011682018060405250810190610c309190613b10565b6001600160a01b031614610c565760405162461bcd60e51b815260040161097c90613b68565b610c5e6128b1565b6001600160a01b031663179bcff783836040518363ffffffff1660e01b8152600401610c8b929190613bb2565b600060405180830381600087803b158015610ca557600080fd5b505af1158015610cb9573d6000803e3d6000fd5b505050505050565b33610cca6128b1565b6001600160a01b03166314afd79e306040518263ffffffff1660e01b8152600401610cf591906134b4565b602060405180830381865afa158015610d12573d6000803e3d6000fd5b505050506040513d601f19601f82011682018060405250810190610d369190613b10565b6001600160a01b03161415610d5d5760405162461bcd60e51b815260040161097c90613bd6565b610d656128c5565b6001600160a01b031663171a133d84848433346040518663ffffffff1660e01b8152600401610d98959493929190613bf5565b6020604051808303816000875af1158015610db7573d6000803e3d6000fd5b505050506040513d601f19601f82011682018060405250810190610ddb9190613c35565b5034600e6000828254610dee9190613c64565b9091555050505050565b600d546040516613dc195b909a5960ca1b60208201526000916001600160a01b031690638eaa6ac0906027016107d1565b610e348383836128cf565b610e3c612900565b6001600160a01b031663465bcf058484846040518463ffffffff1660e01b8152600401610b8493929190613c7c565b33610e746128b1565b6001600160a01b03166314afd79e306040518263ffffffff1660e01b8152600401610e9f91906134b4565b602060405180830381865afa158015610ebc573d6000803e3d6000fd5b505050506040513d601f19601f82011682018060405250810190610ee09190613b10565b6001600160a01b031614610f065760405162461bcd60e51b815260040161097c90613b68565b610f0e61290a565b6001600160a01b031663b8926f2c826040518263ffffffff1660e01b8152600401610f39919061355a565b600060405180830381600087803b158015610f5357600080fd5b505af1158015610f67573d6000803e3d6000fd5b5050505050565b6000610f798361193b565b8210610fdb5760405162461bcd60e51b815260206004820152602b60248201527f455243373231456e756d657261626c653a206f776e657220696e646578206f7560448201526a74206f6620626f756e647360a81b606482015260840161097c565b506001600160a01b03919091166000908152600860209081526040808320938352929052205490565b803361100e612914565b6001600160a01b031663cc889b0b836040518263ffffffff1660e01b815260040161103b91815260200190565b606060405180830381865afa158015611058573d6000803e3d6000fd5b505050506040513d601f19601f8201168201806040525081019061107c9190613ca0565b602001516001600160a01b0316146110be5760405162461bcd60e51b815260206004820152600560248201526425a218991b60d91b604482015260640161097c565b6110c8823361291e565b5050565b336110d56128b1565b6001600160a01b03166314afd79e306040518263ffffffff1660e01b815260040161110091906134b4565b602060405180830381865afa15801561111d573d6000803e3d6000fd5b505050506040513d601f19601f820116820180604052508101906111419190613b10565b6001600160a01b0316146111675760405162461bcd60e51b815260040161097c90613b68565b600061117161264c565b9050600061117f33836129ca565b905080156110c85761118f612900565b6001600160a01b031663279862cb836040518263ffffffff1660e01b8152600401610c8b91815260200190565b610e34838383612a9e565b600d546040516415985d5b1d60da1b60208201526000916001600160a01b031690638eaa6ac0906025016107d1565b336111ff6128b1565b6001600160a01b03166314afd79e306040518263ffffffff1660e01b815260040161122a91906134b4565b602060405180830381865afa158015611247573d6000803e3d6000fd5b505050506040513d601f19601f8201168201806040525081019061126b9190613b10565b6001600160a01b0316146112915760405162461bcd60e51b815260040161097c90613b68565b600061129b6128c5565b6001600160a01b03166319b05f49846040518263ffffffff1660e01b81526004016112c891815260200190565b6000604051808303816000875af11580156112e7573d6000803e3d6000fd5b505050506040513d6000823e601f3d908101601f1916820160405261130f9190810190613d46565b905061131961290a565b6001600160a01b031663a9ad60f38484846040518463ffffffff1660e01b815260040161134893929190613de9565b600060405180830381600087803b15801561136257600080fd5b505af1158015611376573d6000803e3d6000fd5b5050505061138981606001518484612ab9565b6113a2600a826080015161139d9190613e5b565b612b21565b8060800151600e6000828254610dee9190613e7d565b336113c16128b1565b6001600160a01b03166314afd79e306040518263ffffffff1660e01b81526004016113ec91906134b4565b602060405180830381865afa158015611409573d6000803e3d6000fd5b505050506040513d601f19601f8201168201806040525081019061142d9190613b10565b6001600160a01b031614156114545760405162461bcd60e51b815260040161097c90613bd6565b6002600c5414156114775760405162461bcd60e51b815260040161097c90613e94565b6002600c55600061148661290a565b604051637ee8065f60e01b8152600481018490523360248201523460448201526001600160a01b039190911690637ee8065f906064016060604051808303816000875af11580156114db573d6000803e3d6000fd5b505050506040513d601f19601f820116820180604052508101906114ff9190613ca0565b905061150a81612b32565b60408101516115199034613e7d565b600e600082825461152a9190613c64565b90915550506001600c555050565b336115416128b1565b6001600160a01b03166314afd79e306040518263ffffffff1660e01b815260040161156c91906134b4565b602060405180830381865afa158015611589573d6000803e3d6000fd5b505050506040513d601f19601f820116820180604052508101906115ad9190613b10565b6001600160a01b0316146115d35760405162461bcd60e51b815260040161097c90613b68565b306115dd826118b7565b6001600160a01b03161461161b5760405162461bcd60e51b81526020600482015260056024820152644b4431323160d81b604482015260640161097c565b61162361290a565b6001600160a01b0316634b455a51826040518263ffffffff1660e01b815260040161165091815260200190565b600060405180830381600087803b15801561166a57600080fd5b505af115801561167e573d6000803e3d6000fd5b5050505061168b81612b44565b50565b6000611699600a5490565b82106116fc5760405162461bcd60e51b815260206004820152602c60248201527f455243373231456e756d657261626c653a20676c6f62616c20696e646578206f60448201526b7574206f6620626f756e647360a01b606482015260840161097c565b600a828154811061170f5761170f613ecb565b90600052602060002001549050919050565b3361172a6128b1565b6001600160a01b03166314afd79e306040518263ffffffff1660e01b815260040161175591906134b4565b602060405180830381865afa158015611772573d6000803e3d6000fd5b505050506040513d601f19601f820116820180604052508101906117969190613b10565b6001600160a01b0316146117bc5760405162461bcd60e51b815260040161097c90613b68565b6117c46128bb565b6001600160a01b031663897615e6826040518263ffffffff1660e01b81526004016117f191815260200190565b602060405180830381865afa15801561180e573d6000803e3d6000fd5b505050506040513d601f19601f820116820180604052508101906118329190613b10565b6001600160a01b0316611844826118b7565b6001600160a01b0316146118825760405162461bcd60e51b81526020600482015260056024820152644b4431333160d81b604482015260640161097c565b61188a6128bb565b6001600160a01b03166319b05f49826040518263ffffffff1660e01b8152600401610f3991815260200190565b6000818152600460205260408120546001600160a01b03168061087c5760405162461bcd60e51b815260206004820152600560248201526412d10c4c4d60da1b604482015260640161097c565b600d546040516c4d65646961526567697374727960981b60208201526000916001600160a01b031690638eaa6ac090602d016107d1565b60006001600160a01b0382166119a65760405162461bcd60e51b815260206004820152602a60248201527f4552433732313a2062616c616e636520717565727920666f7220746865207a65604482015269726f206164647265737360b01b606482015260840161097c565b506001600160a01b031660009081526005602052604090205490565b336119cb6128b1565b6001600160a01b03166314afd79e306040518263ffffffff1660e01b81526004016119f691906134b4565b602060405180830381865afa158015611a13573d6000803e3d6000fd5b505050506040513d601f19601f82011682018060405250810190611a379190613b10565b6001600160a01b03161415611a5e5760405162461bcd60e51b815260040161097c90613bd6565b611a6661290a565b6001600160a01b0316636c15b2bf838333346040518563ffffffff1660e01b8152600401611a979493929190613ee1565b600060405180830381600087803b158015611ab157600080fd5b505af1158015611ac5573d6000803e3d6000fd5b5050505034600e6000828254611adb9190613c64565b90915550505050565b600d546040516713d999995c909a5960c21b60208201526000916001600160a01b031690638eaa6ac0906028016107d1565b33611b1f6128b1565b6001600160a01b03166314afd79e306040518263ffffffff1660e01b8152600401611b4a91906134b4565b602060405180830381865afa158015611b67573d6000803e3d6000fd5b505050506040513d601f19601f82011682018060405250810190611b8b9190613b10565b6001600160a01b031614611bb15760405162461bcd60e51b815260040161097c90613b68565b6000611bbb61290a565b6001600160a01b031663e6851b98308a8a8a8a8a8a8a6040518963ffffffff1660e01b8152600401611bf4989796959493929190613f16565b6020604051808303816000875af1158015611c13573d6000803e3d6000fd5b505050506040513d601f19601f82011682018060405250810190611c379190613c35565b9050611c44308289612ab9565b5050505050505050565b600d5460408051631abe729160e31b815290516000926001600160a01b03169163d5f394889160048083019260209291908290030181865afa158015610822573d6000803e3d6000fd5b600d546040516b4d65646961466163746f727960a01b60208201526000916001600160a01b031690638eaa6ac090602c016107d1565b33611cd76128b1565b6001600160a01b03166314afd79e306040518263ffffffff1660e01b8152600401611d0291906134b4565b602060405180830381865afa158015611d1f573d6000803e3d6000fd5b505050506040513d601f19601f82011682018060405250810190611d439190613b10565b6001600160a01b031614611d695760405162461bcd60e51b815260040161097c90613b68565b61168b81611d75612914565b6001600160a01b031663cc889b0b846040518263ffffffff1660e01b8152600401611da291815260200190565b606060405180830381865afa158015611dbf573d6000803e3d6000fd5b505050506040513d601f19601f82011682018060405250810190611de39190613ca0565b6020015161291e565b60606001805461089190613b2d565b6001600160a01b038216331415611e505760405162461bcd60e51b815260206004820152601960248201527822a9219b99189d1030b8383937bb32903a379031b0b63632b960391b604482015260640161097c565b3360008181526007602090815260408083206001600160a01b03871680855290835292819020805460ff191686151590811790915590519081529192917f17307eab39ab6107e8899845ad3d59bd9653f200f220920489ca2b5937696c31910160405180910390a35050565b611ec63383612bae565b611ee25760405162461bcd60e51b815260040161097c90613f98565b611eee84848484612c70565b50505050565b6040516303fb4aab60e41b815260009073__$a79fa16630ef50be54c6520a39abca49df$__90633fb4aab090611f3290879087908790600401613fe9565b602060405180830381865af4158015611f4f573d6000803e3d6000fd5b505050506040513d601f19601f82011682018060405250810190611f739190613c35565b949350505050565b6060611f8682612826565b611fea5760405162461bcd60e51b815260206004820152602f60248201527f4552433732314d657461646174613a2055524920717565727920666f72206e6f60448201526e3732bc34b9ba32b73a103a37b5b2b760891b606482015260840161097c565b600060028054611ff990613b2d565b90501161209c576000828152600360205260409020805461201990613b2d565b80601f016020809104026020016040519081016040528092919081815260200182805461204590613b2d565b80156120925780601f1061206757610100808354040283529160200191612092565b820191906000526020600020905b81548152906001019060200180831161207557829003601f168201915b505050505061087c565b6002600360008481526020019081526020016000206040516020016120c29291906140a8565b60405160208183030381529060405292915050565b600d54604051651059141bdbdb60d21b60208201526000916001600160a01b031690638eaa6ac0906026016107d1565b33612111836118b7565b6001600160a01b0316146121375760405162461bcd60e51b815260040161097c90613b68565b61213f6128bb565b6001600160a01b031663fb772f4b8383336040518463ffffffff1660e01b8152600401610c8b939291906140bd565b600d546001600160a01b0316156121af5760405162461bcd60e51b8152602060048201526005602482015264041523030360dc1b604482015260640161097c565b84516121c290600090602088019061341b565b50846040516020016121d491906140ee565b604051602081830303815290604052600190805190602001906121f892919061341b565b50835161220c90600290602087019061341b565b5061221982600085612ab9565b600d80546001600160a01b0319166001600160a01b038316179055610f67565b336122426128b1565b6001600160a01b03166314afd79e306040518263ffffffff1660e01b815260040161226d91906134b4565b602060405180830381865afa15801561228a573d6000803e3d6000fd5b505050506040513d601f19601f820116820180604052508101906122ae9190613b10565b6001600160a01b0316146122d45760405162461bcd60e51b815260040161097c90613b68565b6002600c5414156122f75760405162461bcd60e51b815260040161097c90613e94565b6002600c55600080612307612ca3565b6001600160a01b031663d82da8fc8686866040518463ffffffff1660e01b81526004016123369392919061411e565b6000604051808303816000875af1158015612355573d6000803e3d6000fd5b505050506040513d6000823e601f3d908101601f1916820160405261237d91908101906141d4565b9150915061238f826020015186612cad565b8160400151600e60008282546123a59190613e7d565b909155505060408201516123bf9061139d90600a90613e5b565b6123c881612cef565b50506001600c55505050565b336123dd6128b1565b6001600160a01b03166314afd79e306040518263ffffffff1660e01b815260040161240891906134b4565b602060405180830381865afa158015612425573d6000803e3d6000fd5b505050506040513d601f19601f820116820180604052508101906124499190613b10565b6001600160a01b031614156124705760405162461bcd60e51b815260040161097c90613bd6565b61247861290a565b6040516239a3eb60e31b8152600481018390523460248201526001600160a01b0391909116906301cd1f58906044015b600060405180830381600087803b1580156124c257600080fd5b505af11580156124d6573d6000803e3d6000fd5b505050506124e43382612cad565b6124f261139d600a34613e5b565b6124fa612900565b604051635dd995b560e01b8152600481018390523460248201523360448201524260648201526001600160a01b039190911690635dd995b590608401610f39565b336125446128b1565b6001600160a01b03166314afd79e306040518263ffffffff1660e01b815260040161256f91906134b4565b602060405180830381865afa15801561258c573d6000803e3d6000fd5b505050506040513d601f19601f820116820180604052508101906125b09190613b10565b6001600160a01b031614156125d75760405162461bcd60e51b815260040161097c90613bd6565b6125df61290a565b604051639d23b6af60e01b8152600481018390523460248201526001600160a01b039190911690639d23b6af906044016124a8565b600d546040516d50726f706f73616c52657669657760901b60208201526000916001600160a01b031690638eaa6ac090602e016107d1565b6000600e54476108469190613e7d565b6001600160a01b03918216600090815260076020908152604080832093909416825291909152205460ff1690565b336126936128b1565b6001600160a01b03166314afd79e306040518263ffffffff1660e01b81526004016126be91906134b4565b602060405180830381865afa1580156126db573d6000803e3d6000fd5b505050506040513d601f19601f820116820180604052508101906126ff9190613b10565b6001600160a01b031614156127265760405162461bcd60e51b815260040161097c90613bd6565b6002600c5414156127495760405162461bcd60e51b815260040161097c90613e94565b6002600c5560006127586128c5565b6040516315f5a0b160e21b8152600481018490523360248201526001600160a01b0391909116906357d682c4906044016000604051808303816000875af11580156127a7573d6000803e3d6000fd5b505050506040513d6000823e601f3d908101601f191682016040526127cf9190810190613d46565b90506127da81612d69565b8060800151600e600082825461152a9190613e7d565b600d546040516b22bb32b73a22b6b4ba3a32b960a11b60208201526000916001600160a01b031690638eaa6ac090602c016107d1565b6000908152600460205260409020546001600160a01b0316151590565b600081815260066020526040902080546001600160a01b0319166001600160a01b0384169081179091558190612878826118b7565b6001600160a01b03167f8c5be1e5ebec7d5bd14f71427d1e84f3dd0314c0f7b2291e5b200ac8c7c3b92560405160405180910390a45050565b6000610846611904565b6000610846612614565b6000610846611ae4565b6128d93382612bae565b6128f55760405162461bcd60e51b815260040161097c90613f98565b610aad838383612d7b565b60006108466127f0565b60006108466120d7565b600061084661079d565b600061292861290a565b6001600160a01b031663f86fde57846040518263ffffffff1660e01b815260040161295591815260200190565b60408051808303816000875af1158015612973573d6000803e3d6000fd5b505050506040513d601f19601f8201168201806040525081019061299791906142ba565b91505080600e60008282546129ac9190613e7d565b909155506129bc90508284612cad565b610aad61139d600a83613e5b565b6000826001600160a01b03168261271090604051600060405180830381858888f193505050503d8060008114612a1c576040519150601f19603f3d011682016040523d82523d6000602084013e612a21565b606091505b5050809150508061087c57612a34612900565b60405163ec720b9b60e01b81526001600160a01b03858116600483015260248201859052919091169063ec720b9b90604401600060405180830381600087803b158015612a8057600080fd5b505af1158015612a94573d6000803e3d6000fd5b5050505092915050565b610aad83838360405180602001604052806000815250611ebc565b612ac38383612f14565b60008281526003602090815260409091208251612ae29284019061341b565b508115610aad57612af1612900565b6001600160a01b031663465bcf05600085856040518463ffffffff1660e01b8152600401610b8493929190613c7c565b6110c8612b2c6111c7565b826129ca565b6110c8816020015182604001516129ca565b612b4d81613040565b604080516020808201808452600080845285815260039092529290209051612b75929061341b565b50612b7e612900565b6001600160a01b031663465bcf05306000846040518463ffffffff1660e01b8152600401610f3993929190613c7c565b6000612bb982612826565b612c1a5760405162461bcd60e51b815260206004820152602c60248201527f4552433732313a206f70657261746f7220717565727920666f72206e6f6e657860448201526b34b9ba32b73a103a37b5b2b760a11b606482015260840161097c565b6000612c25836118b7565b9050806001600160a01b0316846001600160a01b03161480612c605750836001600160a01b0316612c5584610914565b6001600160a01b0316145b80611f735750611f73818561265c565b612c7b848484612d7b565b612c87848484846130d5565b611eee5760405162461bcd60e51b815260040161097c906142e8565b6000610846610df8565b612cb8308383612d7b565b612cc0612900565b6001600160a01b031663465bcf053084846040518463ffffffff1660e01b8152600401610c8b93929190613c7c565b60005b81518110156110c8576000828281518110612d0f57612d0f613ecb565b602002602001015190508060400151600014612d56578060400151600e6000828254612d3b9190613e7d565b92505081905550612d54816020015182604001516129ca565b505b5080612d618161433a565b915050612cf2565b6110c8816060015182608001516129ca565b826001600160a01b0316612d8e826118b7565b6001600160a01b031614612df65760405162461bcd60e51b815260206004820152602960248201527f4552433732313a207472616e73666572206f6620746f6b656e2074686174206960448201526839903737ba1037bbb760b91b606482015260840161097c565b6001600160a01b038216612e585760405162461bcd60e51b8152602060048201526024808201527f4552433732313a207472616e7366657220746f20746865207a65726f206164646044820152637265737360e01b606482015260840161097c565b612e638383836131d3565b612e6e600082612843565b6001600160a01b0383166000908152600560205260408120805460019290612e97908490613e7d565b90915550506001600160a01b0382166000908152600560205260408120805460019290612ec5908490613c64565b909155505060008181526004602052604080822080546001600160a01b0319166001600160a01b0386811691821790925591518493918716916000805160206143c683398151915291a4505050565b6001600160a01b038216612f6a5760405162461bcd60e51b815260206004820181905260248201527f4552433732313a206d696e7420746f20746865207a65726f2061646472657373604482015260640161097c565b612f7381612826565b15612fbf5760405162461bcd60e51b815260206004820152601c60248201527b115490cdcc8c4e881d1bdad95b88185b1c9958591e481b5a5b9d195960221b604482015260640161097c565b612fcb600083836131d3565b6001600160a01b0382166000908152600560205260408120805460019290612ff4908490613c64565b909155505060008181526004602052604080822080546001600160a01b0319166001600160a01b03861690811790915590518392906000805160206143c6833981519152908290a45050565b600061304b826118b7565b9050613059816000846131d3565b613064600083612843565b6001600160a01b038116600090815260056020526040812080546001929061308d908490613e7d565b909155505060008281526004602052604080822080546001600160a01b0319169055518391906001600160a01b038416906000805160206143c6833981519152908390a45050565b60006001600160a01b0384163b156131c857604051630a85bd0160e11b81526001600160a01b0385169063150b7a0290613119903390899088908890600401614355565b6020604051808303816000875af1925050508015613154575060408051601f3d908101601f1916820190925261315191810190614392565b60015b6131ae573d808015613182576040519150601f19603f3d011682016040523d82523d6000602084013e613187565b606091505b5080516131a65760405162461bcd60e51b815260040161097c906142e8565b805181602001fd5b6001600160e01b031916630a85bd0160e11b149050611f73565b506001949350505050565b6001600160a01b03831661322e5761322981600a80546000838152600b60205260408120829055600182018355919091527fc65a7bb8d6351c1cf70c95a316cc6a92839c986682d98bc35f958f4883f9d2a80155565b613251565b816001600160a01b0316836001600160a01b03161461325157613251838261328b565b6001600160a01b03821661326857610aad81613328565b826001600160a01b0316826001600160a01b031614610aad57610aad82826133d7565b600060016132988461193b565b6132a29190613e7d565b6000838152600960205260409020549091508082146132f5576001600160a01b03841660009081526008602090815260408083208584528252808320548484528184208190558352600990915290208190555b5060009182526009602090815260408084208490556001600160a01b039094168352600881528383209183525290812055565b600a5460009061333a90600190613e7d565b6000838152600b6020526040812054600a805493945090928490811061336257613362613ecb565b9060005260206000200154905080600a838154811061338357613383613ecb565b6000918252602080832090910192909255828152600b9091526040808220849055858252812055600a8054806133bb576133bb6143af565b6001900381819060005260206000200160009055905550505050565b60006133e28361193b565b6001600160a01b039093166000908152600860209081526040808320868452825280832085905593825260099052919091209190915550565b82805461342790613b2d565b90600052602060002090601f016020900481019282613449576000855561348f565b82601f1061346257805160ff191683800117855561348f565b8280016001018555821561348f579182015b8281111561348f578251825591602001919060010190613474565b5061349b92915061349f565b5090565b5b8082111561349b57600081556001016134a0565b6001600160a01b0391909116815260200190565b6001600160e01b03198116811461168b57600080fd5b6000602082840312156134f057600080fd5b81356134fb816134c8565b9392505050565b60005b8381101561351d578181015183820152602001613505565b83811115611eee5750506000910152565b60008151808452613546816020860160208601613502565b601f01601f19169290920160200192915050565b6020815260006134fb602083018461352e565b60006020828403121561357f57600080fd5b5035919050565b6001600160a01b038116811461168b57600080fd5b600080604083850312156135ae57600080fd5b82356135b981613586565b946020939093013593505050565b634e487b7160e01b600052604160045260246000fd5b60405160a081016001600160401b03811182821017156135ff576135ff6135c7565b60405290565b604051601f8201601f191681016001600160401b038111828210171561362d5761362d6135c7565b604052919050565b60006001600160401b0382111561364e5761364e6135c7565b50601f01601f191660200190565b600061366f61366a84613635565b613605565b905082815283838301111561368357600080fd5b828260208301376000602084830101529392505050565b600082601f8301126136ab57600080fd5b6134fb8383356020850161365c565b803580151581146136ca57600080fd5b919050565b6000806000606084860312156136e457600080fd5b8335925060208401356001600160401b0381111561370157600080fd5b61370d8682870161369a565b92505061371c604085016136ba565b90509250925092565b6000806040838503121561373857600080fd5b823561374381613586565b915060208301356001600160401b0381111561375e57600080fd5b61376a8582860161369a565b9150509250929050565b60008060006060848603121561378957600080fd5b83356001600160401b0381111561379f57600080fd5b6137ab8682870161369a565b9660208601359650604090950135949350505050565b6000806000606084860312156137d657600080fd5b83356137e181613586565b925060208401356137f181613586565b929592945050506040919091013590565b60006020828403121561381457600080fd5b81356001600160401b0381111561382a57600080fd5b611f738482850161369a565b6000806040838503121561384957600080fd5b8235915060208301356001600160401b0381111561375e57600080fd5b60006020828403121561387857600080fd5b81356134fb81613586565b600080600080600080600060e0888a03121561389e57600080fd5b87356001600160401b03808211156138b557600080fd5b6138c18b838c0161369a565b985060208a01359150808211156138d757600080fd5b506138e48a828b0161369a565b96505060408801359450606088013593506080880135925060a08801356005811061390e57600080fd5b8092505060c0880135905092959891949750929550565b6000806040838503121561393857600080fd5b823561394381613586565b9150613951602084016136ba565b90509250929050565b6000806000806080858703121561397057600080fd5b843561397b81613586565b9350602085013561398b81613586565b92506040850135915060608501356001600160401b038111156139ad57600080fd5b8501601f810187136139be57600080fd5b6139cd8782356020840161365c565b91505092959194509250565b600080600080600060a086880312156139f157600080fd5b85356001600160401b0380821115613a0857600080fd5b613a1489838a0161369a565b96506020880135915080821115613a2a57600080fd5b613a3689838a0161369a565b95506040880135915080821115613a4c57600080fd5b50613a598882890161369a565b9350506060860135613a6a81613586565b91506080860135613a7a81613586565b809150509295509295909350565b600080600060608486031215613a9d57600080fd5b833592506020840135915060408401356001600160401b03811115613ac157600080fd5b613acd8682870161369a565b9150509250925092565b60008060408385031215613aea57600080fd5b8235613af581613586565b91506020830135613b0581613586565b809150509250929050565b600060208284031215613b2257600080fd5b81516134fb81613586565b600181811c90821680613b4157607f821691505b60208210811415613b6257634e487b7160e01b600052602260045260246000fd5b50919050565b60208082526005908201526425a218189960d91b604082015260600190565b838152606060208201526000613ba0606083018561352e565b90508215156040830152949350505050565b6001600160a01b0383168152604060208201819052600090611f739083018461352e565b60208082526005908201526412d10c0c4d60da1b604082015260600190565b60a081526000613c0860a083018861352e565b60208301969096525060408101939093526001600160a01b03919091166060830152608090910152919050565b600060208284031215613c4757600080fd5b5051919050565b634e487b7160e01b600052601160045260246000fd5b60008219821115613c7757613c77613c4e565b500190565b6001600160a01b039384168152919092166020820152604081019190915260600190565b600060608284031215613cb257600080fd5b604051606081016001600160401b0381118282101715613cd457613cd46135c7565b604052825181526020830151613ce981613586565b60208201526040928301519281019290925250919050565b600082601f830112613d1257600080fd5b8151613d2061366a82613635565b818152846020838601011115613d3557600080fd5b611f73826020830160208701613502565b600060208284031215613d5857600080fd5b81516001600160401b0380821115613d6f57600080fd5b9083019060a08286031215613d8357600080fd5b613d8b6135dd565b825182811115613d9a57600080fd5b613da687828601613d01565b825250602083015160208201526040830151604082015260608301519150613dcd82613586565b8160608201526080830151608082015280935050505092915050565b838152606060208201526000613e02606083018561352e565b8281036040840152835160a08252613e1d60a083018261352e565b60208681015190840152604080870151908401526060808701516001600160a01b031690840152608095860151959092019490945295945050505050565b600082613e7857634e487b7160e01b600052601260045260246000fd5b500490565b600082821015613e8f57613e8f613c4e565b500390565b6020808252601f908201527f5265656e7472616e637947756172643a207265656e7472616e742063616c6c00604082015260600190565b634e487b7160e01b600052603260045260246000fd5b848152608060208201526000613efa608083018661352e565b6001600160a01b03949094166040830152506060015292915050565b6001600160a01b038916815261010060208201819052600090613f3b8382018b61352e565b90508281036040840152613f4f818a61352e565b9150508660608301528560808301528460a083015260058410613f8257634e487b7160e01b600052602160045260246000fd5b60c082019390935260e001529695505050505050565b60208082526031908201527f4552433732313a207472616e736665722063616c6c6572206973206e6f74206f6040820152701ddb995c881b9bdc88185c1c1c9bdd9959607a1b606082015260800190565b606081526000613ffc606083018661352e565b60208301949094525060400152919050565b8054600090600181811c908083168061402857607f831692505b602080841082141561404a57634e487b7160e01b600052602260045260246000fd5b81801561405e576001811461406f5761409c565b60ff1986168952848901965061409c565b60008881526020902060005b868110156140945781548b82015290850190830161407b565b505084890196505b50505050505092915050565b6000611f736140b7838661400e565b8461400e565b8381526060602082015260006140d6606083018561352e565b905060018060a01b0383166040830152949350505050565b674b616c6569646f5f60c01b815260008251614111816008850160208701613502565b9190910160080192915050565b83815282602082015260606040820152600061413d606083018461352e565b95945050505050565b60006080828403121561415857600080fd5b604051608081016001600160401b03808211838310171561417b5761417b6135c7565b81604052829350845183526020850151915061419682613586565b8160208401526040850151604084015260608501519150808211156141ba57600080fd5b506141c785828601613d01565b6060830152505092915050565b600080604083850312156141e757600080fd5b82516001600160401b03808211156141fe57600080fd5b61420a86838701614146565b935060209150818501518181111561422157600080fd5b8501601f8101871361423257600080fd5b805182811115614244576142446135c7565b8060051b614253858201613605565b918252828101850191858101908a84111561426d57600080fd5b86850192505b838310156142a95782518681111561428b5760008081fd5b6142998c8983890101614146565b8352509186019190860190614273565b809750505050505050509250929050565b600080604083850312156142cd57600080fd5b82516142d881613586565b6020939093015192949293505050565b60208082526032908201527f4552433732313a207472616e7366657220746f206e6f6e20455243373231526560408201527131b2b4bb32b91034b6b83632b6b2b73a32b960711b606082015260800190565b600060001982141561434e5761434e613c4e565b5060010190565b6001600160a01b03858116825284166020820152604081018390526080606082018190526000906143889083018461352e565b9695505050505050565b6000602082840312156143a457600080fd5b81516134fb816134c8565b634e487b7160e01b600052603160045260246000fdfeddf252ad1be2c89b69c2b068fc378daa952ba7f163c4a11628f55a4df523b3efa2646970667358221220a05ae51e8601c281a9f75b455e8947a997662bc7503a4938e8fc83b2b46a481364736f6c634300080a0033",
  "libraries": {
    "Ad": "0xE8f3Ed040c0BbF6cE0FE901720bAeE3f808c961E"
  },
  "devdoc": {
    "author": "Shumpei Koike - <shumpei.koike@bridges.inc>",
    "kind": "dev",
    "methods": {
      "acceptOffer(uint256,string)": {
        "details": "Accepts an offer by the Media.",
        "params": {
          "tokenId": "uint256 of the token ID",
          "tokenMetadata": "string of the NFT token metadata"
        }
      },
      "acceptProposal(uint256)": {
        "details": "Accepts the proposal.",
        "params": {
          "tokenId": "uint256 of the token ID"
        }
      },
      "adId(string,uint256,uint256)": {
        "details": "Returns ID based on the space metadata, display start timestamp, and      display end timestamp. These three makes it the unique.",
        "params": {
          "displayEndTimestamp": "uint256 of the end timestamp for the display",
          "displayStartTimestamp": "uint256 of the start timestamp for the display",
          "spaceMetadata": "uint256 of the space metadata"
        }
      },
      "adPoolAddress()": {
        "details": "Gets the address of AdPool."
      },
      "approve(address,uint256)": {
        "details": "See {IERC721-approve}."
      },
      "balance()": {
        "details": "Returns the balacne deposited on the proxy contract."
      },
      "balanceOf(address)": {
        "details": "See {IERC721-balanceOf}."
      },
      "bid(uint256)": {
        "details": "Bids to participate in an auction.      It is defined as an English Auction.",
        "params": {
          "tokenId": "uint256 of the token ID"
        }
      },
      "bidWithProposal(uint256,string)": {
        "details": "Bids to participate in an auction.      It is defined as an Open Bid.",
        "params": {
          "proposalMetadata": "string of the metadata hash",
          "tokenId": "uint256 of the token ID"
        }
      },
      "buy(uint256)": {
        "details": "Buys the token that is defined as the specific period on an ad space.      The price of the token is fixed.",
        "params": {
          "tokenId": "uint256 of the token ID"
        }
      },
      "buyBasedOnTime(uint256)": {
        "details": "Buys the token that is defined as the specific period on an ad space.      The price is decreasing as time goes by, that is defined as an Dutch Auction.",
        "params": {
          "tokenId": "uint256 of the token ID"
        }
      },
      "cancelOffer(uint256)": {
        "details": "Cancels an offer.",
        "params": {
          "tokenId": "uint256 of the token ID"
        }
      },
      "deletePeriod(uint256)": {
        "details": "Deletes a period and its token.      If there is any users locking the fund for the sale, the amount would be transfered      to the user when deleting the period.",
        "params": {
          "tokenId": "uint256 of the token ID"
        }
      },
      "denyProposal(uint256,string,bool)": {
        "details": "Denies the submitted proposal, mentioning what is the problem.",
        "params": {
          "offensive": "bool if the content would offend somebody",
          "reason": "string of the reason why it is rejected",
          "tokenId": "uint256 of the token ID"
        }
      },
      "englishAuctionAddress()": {
        "details": "Gets the address of EnglishAuction."
      },
      "eventEmitterAddress()": {
        "details": "Gets the address of EventEmitter."
      },
      "getApproved(uint256)": {
        "details": "See {IERC721-getApproved}."
      },
      "initialize(string,string,string,address,address)": {
        "details": "Initialize the instance.",
        "params": {
          "baseURI": "string of the base URI",
          "mediaEOA": "address of the media owner",
          "nameRegistry": "address of NameRegistry",
          "title": "string of the title of the instance",
          "tokenMetadata": "string of the token metadata"
        }
      },
      "isApprovedForAll(address,address)": {
        "details": "See {IERC721-isApprovedForAll}."
      },
      "mediaFactoryAddress()": {
        "details": "Gets the address of MediaFactory."
      },
      "mediaRegistryAddress()": {
        "details": "Gets the address of MediaRegistry."
      },
      "name()": {
        "details": "See {IERC721Metadata-name}."
      },
      "nameRegistryAddress()": {
        "details": "Gets the address of NameRegistry"
      },
      "newPeriod(string,string,uint256,uint256,uint256,uint8,uint256)": {
        "details": "Create a new period for a space. This function requires some params      to decide which kinds of pricing way and how much price to get started.",
        "params": {
          "displayEndTimestamp": "uint256 of the end timestamp for the display",
          "displayStartTimestamp": "uint256 of the start timestamp for the display",
          "minPrice": "uint256 of the minimum price to sell it out",
          "pricing": "uint256 of the pricing way",
          "saleEndTimestamp": "uint256 of the end timestamp for the sale",
          "spaceMetadata": "string of the space metadata",
          "tokenMetadata": "string of the token metadata"
        }
      },
      "newSpace(string)": {
        "details": "Creates a new space for the media account.",
        "params": {
          "spaceMetadata": "string of the space metadata"
        }
      },
      "offerBidAddress()": {
        "details": "Gets the address of OfferBid."
      },
      "offerPeriod(string,uint256,uint256)": {
        "details": "Offers to buy a period that the sender requests.",
        "params": {
          "displayEndTimestamp": "uint256 of the end timestamp for the display",
          "displayStartTimestamp": "uint256 of the start timestamp for the display",
          "spaceMetadata": "string of the space metadata"
        }
      },
      "openBidAddress()": {
        "details": "Gets the address of OpenBid."
      },
      "owner()": {
        "details": "Gets the owner address."
      },
      "ownerOf(uint256)": {
        "details": "See {IERC721-ownerOf}."
      },
      "proposalReviewAddress()": {
        "details": "Gets the address of ProposalReview."
      },
      "propose(uint256,string)": {
        "details": "Proposes the metadata to the token you bought.      Users can propose many times as long as it is accepted.",
        "params": {
          "metadata": "string of the proposal metadata",
          "tokenId": "uint256 of the token ID"
        }
      },
      "pushToSuccessfulBidder(uint256)": {
        "details": "Receives the token you bidded if you are the successful bidder.",
        "params": {
          "tokenId": "uint256 of the token ID"
        }
      },
      "receiveToken(uint256)": {
        "details": "Receives the token you bidded if you are the successful bidder.",
        "params": {
          "tokenId": "uint256 of the token ID"
        }
      },
      "safeTransferFrom(address,address,uint256)": {
        "details": "Overrides transferFrom to emit an event from the common emitter."
      },
      "safeTransferFrom(address,address,uint256,bytes)": {
        "details": "See {IERC721-safeTransferFrom}."
      },
      "selectProposal(uint256,uint256,string)": {
        "details": "Selects the best proposal bidded with.",
        "params": {
          "index": "uint256 of the index number",
          "reason": "string of the reason or metadata",
          "tokenId": "uint256 of the token ID"
        }
      },
      "setApprovalForAll(address,bool)": {
        "details": "See {IERC721-setApprovalForAll}."
      },
      "supportsInterface(bytes4)": {
        "details": "See {IERC165-supportsInterface}."
      },
      "symbol()": {
        "details": "See {IERC721Metadata-symbol}."
      },
      "tokenByIndex(uint256)": {
        "details": "See {IERC721Enumerable-tokenByIndex}."
      },
      "tokenOfOwnerByIndex(address,uint256)": {
        "details": "See {IERC721Enumerable-tokenOfOwnerByIndex}."
      },
      "tokenURI(uint256)": {
        "details": "See {IERC721Metadata-tokenURI}."
      },
      "totalSupply()": {
        "details": "See {IERC721Enumerable-totalSupply}."
      },
      "transferFrom(address,address,uint256)": {
        "details": "Overrides transferFrom to emit an event from the common emitter."
      },
      "updateMedia(address,string)": {
        "details": "Updates the media EOA and the metadata.",
        "params": {
          "newMediaEOA": "address of a new EOA",
          "newMetadata": "string of a new metadata"
        }
      },
      "vaultAddress()": {
        "details": "Gets the address of Vault."
      },
      "withdraw()": {
        "details": "Withdraws the fund deposited to the proxy contract."
      },
      "withdrawalAmount()": {
        "details": "Returns the withdrawal amount."
      }
    },
    "title": "MediaFacade - A root contract that calls the processes of each media.",
    "version": 1
  },
  "userdoc": {
    "kind": "user",
    "methods": {},
    "version": 1
  },
  "storageLayout": {
    "storage": [
      {
        "astId": 2209,
        "contract": "contracts/MediaFacade.sol:MediaFacade",
        "label": "_name",
        "offset": 0,
        "slot": "0",
        "type": "t_string_storage"
      },
      {
        "astId": 2211,
        "contract": "contracts/MediaFacade.sol:MediaFacade",
        "label": "_symbol",
        "offset": 0,
        "slot": "1",
        "type": "t_string_storage"
      },
      {
        "astId": 2213,
        "contract": "contracts/MediaFacade.sol:MediaFacade",
        "label": "_baseURI",
        "offset": 0,
        "slot": "2",
        "type": "t_string_storage"
      },
      {
        "astId": 2217,
        "contract": "contracts/MediaFacade.sol:MediaFacade",
        "label": "_tokenURIs",
        "offset": 0,
        "slot": "3",
        "type": "t_mapping(t_uint256,t_string_storage)"
      },
      {
        "astId": 2221,
        "contract": "contracts/MediaFacade.sol:MediaFacade",
        "label": "_owners",
        "offset": 0,
        "slot": "4",
        "type": "t_mapping(t_uint256,t_address)"
      },
      {
        "astId": 2225,
        "contract": "contracts/MediaFacade.sol:MediaFacade",
        "label": "_balances",
        "offset": 0,
        "slot": "5",
        "type": "t_mapping(t_address,t_uint256)"
      },
      {
        "astId": 2229,
        "contract": "contracts/MediaFacade.sol:MediaFacade",
        "label": "_tokenApprovals",
        "offset": 0,
        "slot": "6",
        "type": "t_mapping(t_uint256,t_address)"
      },
      {
        "astId": 2235,
        "contract": "contracts/MediaFacade.sol:MediaFacade",
        "label": "_operatorApprovals",
        "offset": 0,
        "slot": "7",
        "type": "t_mapping(t_address,t_mapping(t_address,t_bool))"
      },
      {
        "astId": 2241,
        "contract": "contracts/MediaFacade.sol:MediaFacade",
        "label": "_ownedTokens",
        "offset": 0,
        "slot": "8",
        "type": "t_mapping(t_address,t_mapping(t_uint256,t_uint256))"
      },
      {
        "astId": 2245,
        "contract": "contracts/MediaFacade.sol:MediaFacade",
        "label": "_ownedTokensIndex",
        "offset": 0,
        "slot": "9",
        "type": "t_mapping(t_uint256,t_uint256)"
      },
      {
        "astId": 2248,
        "contract": "contracts/MediaFacade.sol:MediaFacade",
        "label": "_allTokens",
        "offset": 0,
        "slot": "10",
        "type": "t_array(t_uint256)dyn_storage"
      },
      {
        "astId": 2252,
        "contract": "contracts/MediaFacade.sol:MediaFacade",
        "label": "_allTokensIndex",
        "offset": 0,
        "slot": "11",
        "type": "t_mapping(t_uint256,t_uint256)"
      },
      {
        "astId": 114,
        "contract": "contracts/MediaFacade.sol:MediaFacade",
        "label": "_status",
        "offset": 0,
        "slot": "12",
        "type": "t_uint256"
      },
      {
        "astId": 1889,
        "contract": "contracts/MediaFacade.sol:MediaFacade",
        "label": "_nameRegistry",
        "offset": 0,
        "slot": "13",
        "type": "t_contract(INameRegistry)3999"
      },
      {
        "astId": 3253,
        "contract": "contracts/MediaFacade.sol:MediaFacade",
        "label": "_processingTotal",
        "offset": 0,
        "slot": "14",
        "type": "t_uint256"
      }
    ],
    "types": {
      "t_address": {
        "encoding": "inplace",
        "label": "address",
        "numberOfBytes": "20"
      },
      "t_array(t_uint256)dyn_storage": {
        "base": "t_uint256",
        "encoding": "dynamic_array",
        "label": "uint256[]",
        "numberOfBytes": "32"
      },
      "t_bool": {
        "encoding": "inplace",
        "label": "bool",
        "numberOfBytes": "1"
      },
      "t_contract(INameRegistry)3999": {
        "encoding": "inplace",
        "label": "contract INameRegistry",
        "numberOfBytes": "20"
      },
      "t_mapping(t_address,t_bool)": {
        "encoding": "mapping",
        "key": "t_address",
        "label": "mapping(address => bool)",
        "numberOfBytes": "32",
        "value": "t_bool"
      },
      "t_mapping(t_address,t_mapping(t_address,t_bool))": {
        "encoding": "mapping",
        "key": "t_address",
        "label": "mapping(address => mapping(address => bool))",
        "numberOfBytes": "32",
        "value": "t_mapping(t_address,t_bool)"
      },
      "t_mapping(t_address,t_mapping(t_uint256,t_uint256))": {
        "encoding": "mapping",
        "key": "t_address",
        "label": "mapping(address => mapping(uint256 => uint256))",
        "numberOfBytes": "32",
        "value": "t_mapping(t_uint256,t_uint256)"
      },
      "t_mapping(t_address,t_uint256)": {
        "encoding": "mapping",
        "key": "t_address",
        "label": "mapping(address => uint256)",
        "numberOfBytes": "32",
        "value": "t_uint256"
      },
      "t_mapping(t_uint256,t_address)": {
        "encoding": "mapping",
        "key": "t_uint256",
        "label": "mapping(uint256 => address)",
        "numberOfBytes": "32",
        "value": "t_address"
      },
      "t_mapping(t_uint256,t_string_storage)": {
        "encoding": "mapping",
        "key": "t_uint256",
        "label": "mapping(uint256 => string)",
        "numberOfBytes": "32",
        "value": "t_string_storage"
      },
      "t_mapping(t_uint256,t_uint256)": {
        "encoding": "mapping",
        "key": "t_uint256",
        "label": "mapping(uint256 => uint256)",
        "numberOfBytes": "32",
        "value": "t_uint256"
      },
      "t_string_storage": {
        "encoding": "bytes",
        "label": "string",
        "numberOfBytes": "32"
      },
      "t_uint256": {
        "encoding": "inplace",
        "label": "uint256",
        "numberOfBytes": "32"
      }
    }
  }
}