{
  "address": "0xfa4c59e22f2FB5b477B13DC2235E6e61A235863C",
  "abi": [
    {
      "inputs": [
        {
          "internalType": "address",
          "name": "_nameRegistry",
          "type": "address"
        }
      ],
      "stateMutability": "nonpayable",
      "type": "constructor"
    },
    {
      "inputs": [],
      "name": "adPoolAddress",
      "outputs": [
        {
          "internalType": "address",
          "name": "",
          "type": "address"
        }
      ],
      "stateMutability": "view",
      "type": "function"
    },
    {
      "inputs": [
        {
          "internalType": "uint256",
          "name": "tokenId",
          "type": "uint256"
        },
        {
          "internalType": "string",
          "name": "proposal",
          "type": "string"
        },
        {
          "internalType": "address",
          "name": "sender",
          "type": "address"
        },
        {
          "internalType": "uint256",
          "name": "value",
          "type": "uint256"
        }
      ],
      "name": "bid",
      "outputs": [],
      "stateMutability": "nonpayable",
      "type": "function"
    },
    {
      "inputs": [
        {
          "internalType": "uint256",
          "name": "tokenId",
          "type": "uint256"
        },
        {
          "internalType": "uint256",
          "name": "index",
          "type": "uint256"
        }
      ],
      "name": "bidding",
      "outputs": [
        {
          "components": [
            {
              "internalType": "uint256",
              "name": "tokenId",
              "type": "uint256"
            },
            {
              "internalType": "address",
              "name": "sender",
              "type": "address"
            },
            {
              "internalType": "uint256",
              "name": "price",
              "type": "uint256"
            },
            {
              "internalType": "string",
              "name": "content",
              "type": "string"
            }
          ],
          "internalType": "struct Sale.OpenBid",
          "name": "",
          "type": "tuple"
        }
      ],
      "stateMutability": "view",
      "type": "function"
    },
    {
      "inputs": [
        {
          "internalType": "uint256",
          "name": "tokenId",
          "type": "uint256"
        }
      ],
      "name": "biddingList",
      "outputs": [
        {
          "components": [
            {
              "internalType": "uint256",
              "name": "tokenId",
              "type": "uint256"
            },
            {
              "internalType": "address",
              "name": "sender",
              "type": "address"
            },
            {
              "internalType": "uint256",
              "name": "price",
              "type": "uint256"
            },
            {
              "internalType": "string",
              "name": "content",
              "type": "string"
            }
          ],
          "internalType": "struct Sale.OpenBid[]",
          "name": "",
          "type": "tuple[]"
        }
      ],
      "stateMutability": "view",
      "type": "function"
    },
    {
      "inputs": [],
      "name": "englishAuctionAddress",
      "outputs": [
        {
          "internalType": "address",
          "name": "",
          "type": "address"
        }
      ],
      "stateMutability": "view",
      "type": "function"
    },
    {
      "inputs": [],
      "name": "eventEmitterAddress",
      "outputs": [
        {
          "internalType": "address",
          "name": "",
          "type": "address"
        }
      ],
      "stateMutability": "view",
      "type": "function"
    },
    {
      "inputs": [],
      "name": "mediaFactoryAddress",
      "outputs": [
        {
          "internalType": "address",
          "name": "",
          "type": "address"
        }
      ],
      "stateMutability": "view",
      "type": "function"
    },
    {
      "inputs": [],
      "name": "mediaRegistryAddress",
      "outputs": [
        {
          "internalType": "address",
          "name": "",
          "type": "address"
        }
      ],
      "stateMutability": "view",
      "type": "function"
    },
    {
      "inputs": [],
      "name": "nameRegistryAddress",
      "outputs": [
        {
          "internalType": "address",
          "name": "",
          "type": "address"
        }
      ],
      "stateMutability": "view",
      "type": "function"
    },
    {
      "inputs": [],
      "name": "offerBidAddress",
      "outputs": [
        {
          "internalType": "address",
          "name": "",
          "type": "address"
        }
      ],
      "stateMutability": "view",
      "type": "function"
    },
    {
      "inputs": [],
      "name": "openBidAddress",
      "outputs": [
        {
          "internalType": "address",
          "name": "",
          "type": "address"
        }
      ],
      "stateMutability": "view",
      "type": "function"
    },
    {
      "inputs": [],
      "name": "owner",
      "outputs": [
        {
          "internalType": "address",
          "name": "",
          "type": "address"
        }
      ],
      "stateMutability": "view",
      "type": "function"
    },
    {
      "inputs": [],
      "name": "proposalReviewAddress",
      "outputs": [
        {
          "internalType": "address",
          "name": "",
          "type": "address"
        }
      ],
      "stateMutability": "view",
      "type": "function"
    },
    {
      "inputs": [
        {
          "internalType": "uint256",
          "name": "tokenId",
          "type": "uint256"
        },
        {
          "internalType": "uint256",
          "name": "index",
          "type": "uint256"
        }
      ],
      "name": "selectProposal",
      "outputs": [
        {
          "components": [
            {
              "internalType": "uint256",
              "name": "tokenId",
              "type": "uint256"
            },
            {
              "internalType": "address",
              "name": "sender",
              "type": "address"
            },
            {
              "internalType": "uint256",
              "name": "price",
              "type": "uint256"
            },
            {
              "internalType": "string",
              "name": "content",
              "type": "string"
            }
          ],
          "internalType": "struct Sale.OpenBid",
          "name": "selected",
          "type": "tuple"
        },
        {
          "components": [
            {
              "internalType": "uint256",
              "name": "tokenId",
              "type": "uint256"
            },
            {
              "internalType": "address",
              "name": "sender",
              "type": "address"
            },
            {
              "internalType": "uint256",
              "name": "price",
              "type": "uint256"
            },
            {
              "internalType": "string",
              "name": "content",
              "type": "string"
            }
          ],
          "internalType": "struct Sale.OpenBid[]",
          "name": "nonSelected",
          "type": "tuple[]"
        }
      ],
      "stateMutability": "nonpayable",
      "type": "function"
    },
    {
      "inputs": [],
      "name": "vaultAddress",
      "outputs": [
        {
          "internalType": "address",
          "name": "",
          "type": "address"
        }
      ],
      "stateMutability": "view",
      "type": "function"
    }
  ],
  "transactionHash": "0x33609916a65b033021839d6408c409c17f291adc6f2abc2076b053d6a9deba4c",
  "args": [
    "0xA21f44Ad2751A5020dBff35f813D90C18f9986b7"
  ],
  "solcInputHash": "3b843421c7cbc4186a9b782888b147b3",
  "bytecode": "0x608060405234801561001057600080fd5b5060405161136238038061136283398101604081905261002f91610050565b600080546001600160a01b0319166001600160a01b03831617905550610080565b60006020828403121561006257600080fd5b81516001600160a01b038116811461007957600080fd5b9392505050565b6112d38061008f6000396000f3fe608060405234801561001057600080fd5b50600436106100c55760003560e01c80630106d8eb146100ca5780632231c1eb146100e857806327b7a2f5146100f057806332b18f6d14610101578063389ad90e14610122578063430bf08a146101375780636a58767e1461013f578063761ce95d146101475780637cf175fb1461016757806387fe412c1461016f5780638da5cb5b1461018f5780638f6059d614610197578063c9cd71b51461019f578063e2f5fc78146101a7578063f0726291146101af575b600080fd5b6100d26101b7565b6040516100df9190610d67565b60405180910390f35b6100d2610265565b6000546001600160a01b03166100d2565b61011461010f366004610d7b565b610296565b6040516100df929190610e94565b610135610130366004610f6d565b610610565b005b6100d261074b565b6100d261077a565b61015a610155366004611010565b6107b1565b6040516100df9190611029565b6100d26108e0565b61018261017d366004610d7b565b610912565b6040516100df9190611043565b6100d2610abd565b6100d2610b11565b6100d2610b47565b6100d2610b77565b6100d2610baf565b600080546040516d22b733b634b9b420bab1ba34b7b760911b60208201526001600160a01b0390911690638eaa6ac090602e015b604051602081830303815290604052805190602001206040518263ffffffff1660e01b815260040161021f91815260200190565b602060405180830381865afa15801561023c573d6000803e3d6000fd5b505050506040513d601f19601f820116820180604052508101906102609190611066565b905090565b600080546040516613dc195b909a5960ca1b60208201526001600160a01b0390911690638eaa6ac0906027016101eb565b61029e610c03565b606060006102aa610be5565b6001600160a01b03166314afd79e336040518263ffffffff1660e01b81526004016102d59190610d67565b602060405180830381865afa1580156102f2573d6000803e3d6000fd5b505050506040513d601f19601f820116820180604052508101906103169190611066565b6001600160a01b031614156103465760405162461bcd60e51b815260040161033d90611083565b60405180910390fd5b4261034f610bef565b6001600160a01b031663b3a0ebc9866040518263ffffffff1660e01b815260040161037c91815260200190565b600060405180830381865afa158015610399573d6000803e3d6000fd5b505050506040513d6000823e601f3d908101601f191682016040526103c19190810190611106565b60800151106103fa5760405162461bcd60e51b81526020600482015260056024820152644b4431323960d81b604482015260640161033d565b6104048484610912565b6000858152600160205260409020805491935090849081106104285761042861120d565b6000918252602082206004909102018181556001810180546001600160a01b031916905560028101829055906104616003830182610c34565b5050600084815260016020908152604080832080548251818502810185019093528083529193909284015b8282101561057b57600084815260209081902060408051608081018252600486029092018054835260018101546001600160a01b0316938301939093526002830154908201526003820180549192916060840191906104ea90611223565b80601f016020809104026020016040519081016040528092919081815260200182805461051690611223565b80156105635780601f1061053857610100808354040283529160200191610563565b820191906000526020600020905b81548152906001019060200180831161054657829003601f168201915b5050505050815250508152602001906001019061048c565b505050600086815260016020526040812092935061059a929150610c71565b6105a2610bf9565b6020830151604051630249d31960e51b8152600481018790526001600160a01b03918216602482015291169063493a632090604401600060405180830381600087803b1580156105f157600080fd5b505af1158015610605573d6000803e3d6000fd5b505050509250929050565b610618610b47565b6001600160a01b0316336001600160a01b0316146106485760405162461bcd60e51b815260040161033d90611083565b600084815260016020818152604080842081516080810183528981526001600160a01b03888116828601908152938201888152606083018b815284548089018655948952978690208351600490950201938455935195830180546001600160a01b031916969091169590951790945590516002820155925180519293926106d59260038501920190610c92565b5050506106e0610bf9565b6001600160a01b0316630d2657bf85838587426040518663ffffffff1660e01b815260040161071395949392919061125e565b600060405180830381600087803b15801561072d57600080fd5b505af1158015610741573d6000803e3d6000fd5b5050505050505050565b600080546040516415985d5b1d60da1b60208201526001600160a01b0390911690638eaa6ac0906025016101eb565b600080546040516c4d65646961526567697374727960981b60208201526001600160a01b0390911690638eaa6ac090602d016101eb565b606060016000838152602001908152602001600020805480602002602001604051908101604052809291908181526020016000905b828210156108d557600084815260209081902060408051608081018252600486029092018054835260018101546001600160a01b03169383019390935260028301549082015260038201805491929160608401919061084490611223565b80601f016020809104026020016040519081016040528092919081815260200182805461087090611223565b80156108bd5780601f10610892576101008083540402835291602001916108bd565b820191906000526020600020905b8154815290600101906020018083116108a057829003601f168201915b505050505081525050815260200190600101906107e6565b505050509050919050565b600080546040516713d999995c909a5960c21b60208201526001600160a01b0390911690638eaa6ac0906028016101eb565b61091a610c03565b6000838152600160205260409020548211801590610973575060008381526001602052604081208054849081106109535761095361120d565b60009182526020909120600160049092020101546001600160a01b031614155b6109a75760405162461bcd60e51b815260206004820152600560248201526412d10c4c4d60da1b604482015260640161033d565b60008381526001602052604090208054839081106109c7576109c761120d565b9060005260206000209060040201604051806080016040529081600082015481526020016001820160009054906101000a90046001600160a01b03166001600160a01b03166001600160a01b0316815260200160028201548152602001600382018054610a3390611223565b80601f0160208091040260200160405190810160405280929190818152602001828054610a5f90611223565b8015610aac5780601f10610a8157610100808354040283529160200191610aac565b820191906000526020600020905b815481529060010190602001808311610a8f57829003601f168201915b505050505081525050905092915050565b60008060009054906101000a90046001600160a01b03166001600160a01b031663d5f394886040518163ffffffff1660e01b8152600401602060405180830381865afa15801561023c573d6000803e3d6000fd5b600080546040516b4d65646961466163746f727960a01b60208201526001600160a01b0390911690638eaa6ac090602c016101eb565b60008054604051651059141bdbdb60d21b60208201526001600160a01b0390911690638eaa6ac0906026016101eb565b600080546040516d50726f706f73616c52657669657760901b60208201526001600160a01b0390911690638eaa6ac090602e016101eb565b600080546040516b22bb32b73a22b6b4ba3a32b960a11b60208201526001600160a01b0390911690638eaa6ac090602c016101eb565b600061026061077a565b6000610260610b47565b6000610260610baf565b60405180608001604052806000815260200160006001600160a01b0316815260200160008152602001606081525090565b508054610c4090611223565b6000825580601f10610c50575050565b601f016020900490600052602060002090810190610c6e9190610d16565b50565b5080546000825560040290600052602060002090810190610c6e9190610d2b565b828054610c9e90611223565b90600052602060002090601f016020900481019282610cc05760008555610d06565b82601f10610cd957805160ff1916838001178555610d06565b82800160010185558215610d06579182015b82811115610d06578251825591602001919060010190610ceb565b50610d12929150610d16565b5090565b5b80821115610d125760008155600101610d17565b80821115610d125760008082556001820180546001600160a01b031916905560028201819055610d5e6003830182610c34565b50600401610d2b565b6001600160a01b0391909116815260200190565b60008060408385031215610d8e57600080fd5b50508035926020909101359150565b60005b83811015610db8578181015183820152602001610da0565b83811115610dc7576000848401525b50505050565b60008151808452610de5816020860160208601610d9d565b601f01601f19169290920160200192915050565b8051825260018060a01b036020820151166020830152604081015160408301526000606082015160806060850152610e346080850182610dcd565b949350505050565b600082825180855260208086019550808260051b84010181860160005b84811015610e8757601f19868403018952610e75838351610df9565b98840198925090830190600101610e59565b5090979650505050505050565b604081526000610ea76040830185610df9565b8281036020840152610eb98185610e3c565b95945050505050565b634e487b7160e01b600052604160045260246000fd5b60405161016081016001600160401b0381118282101715610efb57610efb610ec2565b60405290565b604051601f8201601f191681016001600160401b0381118282101715610f2957610f29610ec2565b604052919050565b60006001600160401b03821115610f4a57610f4a610ec2565b50601f01601f191660200190565b6001600160a01b0381168114610c6e57600080fd5b60008060008060808587031215610f8357600080fd5b8435935060208501356001600160401b03811115610fa057600080fd5b8501601f81018713610fb157600080fd5b8035610fc4610fbf82610f31565b610f01565b818152886020838501011115610fd957600080fd5b81602084016020830137600060208383010152809550505050604085013561100081610f58565b9396929550929360600135925050565b60006020828403121561102257600080fd5b5035919050565b60208152600061103c6020830184610e3c565b9392505050565b60208152600061103c6020830184610df9565b805161106181610f58565b919050565b60006020828403121561107857600080fd5b815161103c81610f58565b6020808252600590820152644b4430313160d81b604082015260600190565b600082601f8301126110b357600080fd5b81516110c1610fbf82610f31565b8181528460208386010111156110d657600080fd5b610e34826020830160208701610d9d565b80516005811061106157600080fd5b8051801515811461106157600080fd5b60006020828403121561111857600080fd5b81516001600160401b038082111561112f57600080fd5b90830190610160828603121561114457600080fd5b61114c610ed8565b61115583611056565b815260208301518281111561116957600080fd5b611175878286016110a2565b60208301525060408301518281111561118d57600080fd5b611199878286016110a2565b604083015250606083015160608201526080830151608082015260a083015160a082015260c083015160c08201526111d360e084016110e7565b60e08201526101008381015190820152610120808401519082015261014091506111fe8284016110f6565b91810191909152949350505050565b634e487b7160e01b600052603260045260246000fd5b600181811c9082168061123757607f821691505b6020821081141561125857634e487b7160e01b600052602260045260246000fd5b50919050565b85815284602082015260018060a01b038416604082015260a06060820152600061128b60a0830185610dcd565b9050826080830152969550505050505056fea26469706673582212206cbea1d7dda3d859c41f840846f11ee2e42ed21f6b3a29887d05be7d54fd60f964736f6c634300080a0033",
  "devdoc": {
    "kind": "dev",
    "methods": {
      "adPoolAddress()": {
        "details": "Gets the address of AdPool."
      },
      "bid(uint256,string,address,uint256)": {
        "details": "Bids to participate in an auction.      It is defined as an Open Bid.",
        "params": {
          "amount": "uint256 of the msg.value",
          "proposal": "string of the metadata hash",
          "sender": "address of the msg.sender",
          "tokenId": "uint256 of the token ID"
        }
      },
      "englishAuctionAddress()": {
        "details": "Gets the address of EnglishAuction."
      },
      "eventEmitterAddress()": {
        "details": "Gets the address of EventEmitter."
      },
      "mediaFactoryAddress()": {
        "details": "Gets the address of MediaFactory."
      },
      "mediaRegistryAddress()": {
        "details": "Gets the address of MediaRegistry."
      },
      "nameRegistryAddress()": {
        "details": "Gets the address of NameRegistry"
      },
      "offerBidAddress()": {
        "details": "Gets the address of OfferBid."
      },
      "openBidAddress()": {
        "details": "Gets the address of OpenBid."
      },
      "owner()": {
        "details": "Gets the owner address."
      },
      "proposalReviewAddress()": {
        "details": "Gets the address of ProposalReview."
      },
      "selectProposal(uint256,uint256)": {
        "details": "Selects the best proposal bidded with.",
        "params": {
          "index": "uint256 of the index number",
          "tokenId": "uint256 of the token ID"
        }
      },
      "vaultAddress()": {
        "details": "Gets the address of Vault."
      }
    },
    "stateVariables": {
      "_bidding": {
        "details": "Maps a tokenId with appeal info"
      }
    },
    "version": 1
  },
  "userdoc": {
    "kind": "user",
    "methods": {},
    "version": 1
  },
  "storageLayout": {
    "storage": [
      {
        "astId": 1886,
        "contract": "contracts/peripheries/OpenBid.sol:OpenBid",
        "label": "_nameRegistry",
        "offset": 0,
        "slot": "0",
        "type": "t_contract(INameRegistry)3992"
      },
      {
        "astId": 6907,
        "contract": "contracts/peripheries/OpenBid.sol:OpenBid",
        "label": "_bidding",
        "offset": 0,
        "slot": "1",
        "type": "t_mapping(t_uint256,t_array(t_struct(OpenBid)4420_storage)dyn_storage)"
      }
    ],
    "types": {
      "t_address": {
        "encoding": "inplace",
        "label": "address",
        "numberOfBytes": "20"
      },
      "t_array(t_struct(OpenBid)4420_storage)dyn_storage": {
        "base": "t_struct(OpenBid)4420_storage",
        "encoding": "dynamic_array",
        "label": "struct Sale.OpenBid[]",
        "numberOfBytes": "32"
      },
      "t_contract(INameRegistry)3992": {
        "encoding": "inplace",
        "label": "contract INameRegistry",
        "numberOfBytes": "20"
      },
      "t_mapping(t_uint256,t_array(t_struct(OpenBid)4420_storage)dyn_storage)": {
        "encoding": "mapping",
        "key": "t_uint256",
        "label": "mapping(uint256 => struct Sale.OpenBid[])",
        "numberOfBytes": "32",
        "value": "t_array(t_struct(OpenBid)4420_storage)dyn_storage"
      },
      "t_string_storage": {
        "encoding": "bytes",
        "label": "string",
        "numberOfBytes": "32"
      },
      "t_struct(OpenBid)4420_storage": {
        "encoding": "inplace",
        "label": "struct Sale.OpenBid",
        "members": [
          {
            "astId": 4413,
            "contract": "contracts/peripheries/OpenBid.sol:OpenBid",
            "label": "tokenId",
            "offset": 0,
            "slot": "0",
            "type": "t_uint256"
          },
          {
            "astId": 4415,
            "contract": "contracts/peripheries/OpenBid.sol:OpenBid",
            "label": "sender",
            "offset": 0,
            "slot": "1",
            "type": "t_address"
          },
          {
            "astId": 4417,
            "contract": "contracts/peripheries/OpenBid.sol:OpenBid",
            "label": "price",
            "offset": 0,
            "slot": "2",
            "type": "t_uint256"
          },
          {
            "astId": 4419,
            "contract": "contracts/peripheries/OpenBid.sol:OpenBid",
            "label": "content",
            "offset": 0,
            "slot": "3",
            "type": "t_string_storage"
          }
        ],
        "numberOfBytes": "128"
      },
      "t_uint256": {
        "encoding": "inplace",
        "label": "uint256",
        "numberOfBytes": "32"
      }
    }
  }
}