{
  "address": "0xbe4fF70D1f88d4F45A41dCb90E9e1AEA7E335596",
  "abi": [
    {
      "inputs": [
        {
          "internalType": "address",
          "name": "_nameRegistry",
          "type": "address"
        }
      ],
      "stateMutability": "nonpayable",
      "type": "constructor"
    },
    {
      "inputs": [],
      "name": "adPoolAddress",
      "outputs": [
        {
          "internalType": "address",
          "name": "",
          "type": "address"
        }
      ],
      "stateMutability": "view",
      "type": "function"
    },
    {
      "inputs": [
        {
          "internalType": "uint256",
          "name": "tokenId",
          "type": "uint256"
        },
        {
          "internalType": "string",
          "name": "proposal",
          "type": "string"
        },
        {
          "internalType": "address",
          "name": "sender",
          "type": "address"
        },
        {
          "internalType": "uint256",
          "name": "value",
          "type": "uint256"
        }
      ],
      "name": "bid",
      "outputs": [],
      "stateMutability": "nonpayable",
      "type": "function"
    },
    {
      "inputs": [
        {
          "internalType": "uint256",
          "name": "tokenId",
          "type": "uint256"
        },
        {
          "internalType": "uint256",
          "name": "index",
          "type": "uint256"
        }
      ],
      "name": "bidding",
      "outputs": [
        {
          "components": [
            {
              "internalType": "uint256",
              "name": "tokenId",
              "type": "uint256"
            },
            {
              "internalType": "address",
              "name": "sender",
              "type": "address"
            },
            {
              "internalType": "uint256",
              "name": "price",
              "type": "uint256"
            },
            {
              "internalType": "string",
              "name": "content",
              "type": "string"
            }
          ],
          "internalType": "struct Sale.OpenBid",
          "name": "",
          "type": "tuple"
        }
      ],
      "stateMutability": "view",
      "type": "function"
    },
    {
      "inputs": [
        {
          "internalType": "uint256",
          "name": "tokenId",
          "type": "uint256"
        }
      ],
      "name": "biddingList",
      "outputs": [
        {
          "components": [
            {
              "internalType": "uint256",
              "name": "tokenId",
              "type": "uint256"
            },
            {
              "internalType": "address",
              "name": "sender",
              "type": "address"
            },
            {
              "internalType": "uint256",
              "name": "price",
              "type": "uint256"
            },
            {
              "internalType": "string",
              "name": "content",
              "type": "string"
            }
          ],
          "internalType": "struct Sale.OpenBid[]",
          "name": "",
          "type": "tuple[]"
        }
      ],
      "stateMutability": "view",
      "type": "function"
    },
    {
      "inputs": [],
      "name": "englishAuctionAddress",
      "outputs": [
        {
          "internalType": "address",
          "name": "",
          "type": "address"
        }
      ],
      "stateMutability": "view",
      "type": "function"
    },
    {
      "inputs": [],
      "name": "eventEmitterAddress",
      "outputs": [
        {
          "internalType": "address",
          "name": "",
          "type": "address"
        }
      ],
      "stateMutability": "view",
      "type": "function"
    },
    {
      "inputs": [],
      "name": "mediaFactoryAddress",
      "outputs": [
        {
          "internalType": "address",
          "name": "",
          "type": "address"
        }
      ],
      "stateMutability": "view",
      "type": "function"
    },
    {
      "inputs": [],
      "name": "mediaRegistryAddress",
      "outputs": [
        {
          "internalType": "address",
          "name": "",
          "type": "address"
        }
      ],
      "stateMutability": "view",
      "type": "function"
    },
    {
      "inputs": [],
      "name": "nameRegistryAddress",
      "outputs": [
        {
          "internalType": "address",
          "name": "",
          "type": "address"
        }
      ],
      "stateMutability": "view",
      "type": "function"
    },
    {
      "inputs": [],
      "name": "offerBidAddress",
      "outputs": [
        {
          "internalType": "address",
          "name": "",
          "type": "address"
        }
      ],
      "stateMutability": "view",
      "type": "function"
    },
    {
      "inputs": [],
      "name": "openBidAddress",
      "outputs": [
        {
          "internalType": "address",
          "name": "",
          "type": "address"
        }
      ],
      "stateMutability": "view",
      "type": "function"
    },
    {
      "inputs": [],
      "name": "owner",
      "outputs": [
        {
          "internalType": "address",
          "name": "",
          "type": "address"
        }
      ],
      "stateMutability": "view",
      "type": "function"
    },
    {
      "inputs": [],
      "name": "proposalReviewAddress",
      "outputs": [
        {
          "internalType": "address",
          "name": "",
          "type": "address"
        }
      ],
      "stateMutability": "view",
      "type": "function"
    },
    {
      "inputs": [
        {
          "internalType": "uint256",
          "name": "",
          "type": "uint256"
        }
      ],
      "name": "reasons",
      "outputs": [
        {
          "internalType": "string",
          "name": "",
          "type": "string"
        }
      ],
      "stateMutability": "view",
      "type": "function"
    },
    {
      "inputs": [
        {
          "internalType": "uint256",
          "name": "tokenId",
          "type": "uint256"
        },
        {
          "internalType": "uint256",
          "name": "index",
          "type": "uint256"
        },
        {
          "internalType": "string",
          "name": "reason",
          "type": "string"
        }
      ],
      "name": "selectProposal",
      "outputs": [
        {
          "components": [
            {
              "internalType": "uint256",
              "name": "tokenId",
              "type": "uint256"
            },
            {
              "internalType": "address",
              "name": "sender",
              "type": "address"
            },
            {
              "internalType": "uint256",
              "name": "price",
              "type": "uint256"
            },
            {
              "internalType": "string",
              "name": "content",
              "type": "string"
            }
          ],
          "internalType": "struct Sale.OpenBid",
          "name": "selected",
          "type": "tuple"
        },
        {
          "components": [
            {
              "internalType": "uint256",
              "name": "tokenId",
              "type": "uint256"
            },
            {
              "internalType": "address",
              "name": "sender",
              "type": "address"
            },
            {
              "internalType": "uint256",
              "name": "price",
              "type": "uint256"
            },
            {
              "internalType": "string",
              "name": "content",
              "type": "string"
            }
          ],
          "internalType": "struct Sale.OpenBid[]",
          "name": "nonSelected",
          "type": "tuple[]"
        }
      ],
      "stateMutability": "nonpayable",
      "type": "function"
    },
    {
      "inputs": [],
      "name": "vaultAddress",
      "outputs": [
        {
          "internalType": "address",
          "name": "",
          "type": "address"
        }
      ],
      "stateMutability": "view",
      "type": "function"
    }
  ],
  "transactionHash": "0xc0234366ee1300b3c0608fde2f854a75e95b8574de9e166126b769d592fa929f",
  "args": [
    "0xA21f44Ad2751A5020dBff35f813D90C18f9986b7"
  ],
  "solcInputHash": "5a69c2e6422d35e6b64c3dfdb0689225",
  "bytecode": "0x608060405234801561001057600080fd5b506040516114f53803806114f583398101604081905261002f91610050565b600080546001600160a01b0319166001600160a01b03831617905550610080565b60006020828403121561006257600080fd5b81516001600160a01b038116811461007957600080fd5b9392505050565b6114668061008f6000396000f3fe608060405234801561001057600080fd5b50600436106100d05760003560e01c80630106d8eb146100d55780632231c1eb146100f357806327b7a2f5146100fb578063389ad90e1461010c578063430bf08a146101215780636a58767e14610129578063761ce95d146101315780637cf175fb1461015157806387fe412c146101595780638da5cb5b146101795780638f6059d614610181578063b41ace1714610189578063c9cd71b5146101a9578063d82da8fc146101b1578063e2f5fc78146101d2578063f0726291146101da575b600080fd5b6100dd6101e2565b6040516100ea9190610e4e565b60405180910390f35b6100dd610290565b6000546001600160a01b03166100dd565b61011f61011a366004610f63565b6102c1565b005b6100dd610405565b6100dd610434565b61014461013f366004610fc3565b61046b565b6040516100ea91906110d3565b6100dd61059a565b61016c6101673660046110ed565b6105cc565b6040516100ea919061110f565b6100dd610777565b6100dd6107cb565b61019c610197366004610fc3565b610801565b6040516100ea9190611122565b6100dd61089b565b6101c46101bf366004611135565b6108cb565b6040516100ea929190611184565b6100dd610c5e565b6100dd610c96565b600080546040516d22b733b634b9b420bab1ba34b7b760911b60208201526001600160a01b0390911690638eaa6ac090602e015b604051602081830303815290604052805190602001206040518263ffffffff1660e01b815260040161024a91815260200190565b602060405180830381865afa158015610267573d6000803e3d6000fd5b505050506040513d601f19601f8201168201806040525081019061028b91906111c2565b905090565b600080546040516613dc195b909a5960ca1b60208201526001600160a01b0390911690638eaa6ac090602701610216565b6102c961089b565b6001600160a01b0316336001600160a01b0316146103025760405162461bcd60e51b81526004016102f9906111df565b60405180910390fd5b600084815260016020818152604080842081516080810183528981526001600160a01b03888116828601908152938201888152606083018b815284548089018655948952978690208351600490950201938455935195830180546001600160a01b0319169690911695909517909455905160028201559251805192939261038f9260038501920190610cea565b50505061039a610ccc565b6001600160a01b0316630d2657bf85838587426040518663ffffffff1660e01b81526004016103cd9594939291906111fe565b600060405180830381600087803b1580156103e757600080fd5b505af11580156103fb573d6000803e3d6000fd5b5050505050505050565b600080546040516415985d5b1d60da1b60208201526001600160a01b0390911690638eaa6ac090602501610216565b600080546040516c4d65646961526567697374727960981b60208201526001600160a01b0390911690638eaa6ac090602d01610216565b606060016000838152602001908152602001600020805480602002602001604051908101604052809291908181526020016000905b8282101561058f57600084815260209081902060408051608081018252600486029092018054835260018101546001600160a01b0316938301939093526002830154908201526003820180549192916060840191906104fe9061123d565b80601f016020809104026020016040519081016040528092919081815260200182805461052a9061123d565b80156105775780601f1061054c57610100808354040283529160200191610577565b820191906000526020600020905b81548152906001019060200180831161055a57829003601f168201915b505050505081525050815260200190600101906104a0565b505050509050919050565b600080546040516713d999995c909a5960c21b60208201526001600160a01b0390911690638eaa6ac090602801610216565b6105d4610d6e565b600083815260016020526040902054821180159061062d5750600083815260016020526040812080548490811061060d5761060d611278565b60009182526020909120600160049092020101546001600160a01b031614155b6106615760405162461bcd60e51b815260206004820152600560248201526412d10c4c4d60da1b60448201526064016102f9565b600083815260016020526040902080548390811061068157610681611278565b9060005260206000209060040201604051806080016040529081600082015481526020016001820160009054906101000a90046001600160a01b03166001600160a01b03166001600160a01b03168152602001600282015481526020016003820180546106ed9061123d565b80601f01602080910402602001604051908101604052809291908181526020018280546107199061123d565b80156107665780601f1061073b57610100808354040283529160200191610766565b820191906000526020600020905b81548152906001019060200180831161074957829003601f168201915b505050505081525050905092915050565b60008060009054906101000a90046001600160a01b03166001600160a01b031663d5f394886040518163ffffffff1660e01b8152600401602060405180830381865afa158015610267573d6000803e3d6000fd5b600080546040516b4d65646961466163746f727960a01b60208201526001600160a01b0390911690638eaa6ac090602c01610216565b6002602052600090815260409020805461081a9061123d565b80601f01602080910402602001604051908101604052809291908181526020018280546108469061123d565b80156108935780601f1061086857610100808354040283529160200191610893565b820191906000526020600020905b81548152906001019060200180831161087657829003601f168201915b505050505081565b60008054604051651059141bdbdb60d21b60208201526001600160a01b0390911690638eaa6ac090602601610216565b6108d3610d6e565b606060006108df610cd6565b6001600160a01b03166314afd79e336040518263ffffffff1660e01b815260040161090a9190610e4e565b602060405180830381865afa158015610927573d6000803e3d6000fd5b505050506040513d601f19601f8201168201806040525081019061094b91906111c2565b6001600160a01b031614156109725760405162461bcd60e51b81526004016102f9906111df565b4261097b610ce0565b6001600160a01b031663b3a0ebc9876040518263ffffffff1660e01b81526004016109a891815260200190565b600060405180830381865afa1580156109c5573d6000803e3d6000fd5b505050506040513d6000823e601f3d908101601f191682016040526109ed91908101906112f2565b6080015110610a265760405162461bcd60e51b81526020600482015260056024820152644b4431323960d81b60448201526064016102f9565b610a3085856105cc565b60008681526002602090815260409091208551929450610a54929091860190610cea565b506000858152600160205260409020805485908110610a7557610a75611278565b6000918252602082206004909102018181556001810180546001600160a01b03191690556002810182905590610aae6003830182610d9f565b5050600085815260016020908152604080832080548251818502810185019093528083529193909284015b82821015610bc857600084815260209081902060408051608081018252600486029092018054835260018101546001600160a01b031693830193909352600283015490820152600382018054919291606084019190610b379061123d565b80601f0160208091040260200160405190810160405280929190818152602001828054610b639061123d565b8015610bb05780601f10610b8557610100808354040283529160200191610bb0565b820191906000526020600020905b815481529060010190602001808311610b9357829003601f168201915b50505050508152505081526020019060010190610ad9565b5050506000878152600160205260408120929350610be7929150610ddc565b610bef610ccc565b6001600160a01b031663ea41e68f86868560200151876040518563ffffffff1660e01b8152600401610c2494939291906113f9565b600060405180830381600087803b158015610c3e57600080fd5b505af1158015610c52573d6000803e3d6000fd5b50505050935093915050565b600080546040516d50726f706f73616c52657669657760901b60208201526001600160a01b0390911690638eaa6ac090602e01610216565b600080546040516b22bb32b73a22b6b4ba3a32b960a11b60208201526001600160a01b0390911690638eaa6ac090602c01610216565b600061028b610c96565b600061028b610434565b600061028b61089b565b828054610cf69061123d565b90600052602060002090601f016020900481019282610d185760008555610d5e565b82601f10610d3157805160ff1916838001178555610d5e565b82800160010185558215610d5e579182015b82811115610d5e578251825591602001919060010190610d43565b50610d6a929150610dfd565b5090565b60405180608001604052806000815260200160006001600160a01b0316815260200160008152602001606081525090565b508054610dab9061123d565b6000825580601f10610dbb575050565b601f016020900490600052602060002090810190610dd99190610dfd565b50565b5080546000825560040290600052602060002090810190610dd99190610e12565b5b80821115610d6a5760008155600101610dfe565b80821115610d6a5760008082556001820180546001600160a01b031916905560028201819055610e456003830182610d9f565b50600401610e12565b6001600160a01b0391909116815260200190565b634e487b7160e01b600052604160045260246000fd5b60405161016081016001600160401b0381118282101715610e9b57610e9b610e62565b60405290565b604051601f8201601f191681016001600160401b0381118282101715610ec957610ec9610e62565b604052919050565b60006001600160401b03821115610eea57610eea610e62565b50601f01601f191660200190565b600082601f830112610f0957600080fd5b8135610f1c610f1782610ed1565b610ea1565b818152846020838601011115610f3157600080fd5b816020850160208301376000918101602001919091529392505050565b6001600160a01b0381168114610dd957600080fd5b60008060008060808587031215610f7957600080fd5b8435935060208501356001600160401b03811115610f9657600080fd5b610fa287828801610ef8565b9350506040850135610fb381610f4e565b9396929550929360600135925050565b600060208284031215610fd557600080fd5b5035919050565b60005b83811015610ff7578181015183820152602001610fdf565b83811115611006576000848401525b50505050565b60008151808452611024816020860160208601610fdc565b601f01601f19169290920160200192915050565b8051825260018060a01b036020820151166020830152604081015160408301526000606082015160806060850152611073608085018261100c565b949350505050565b600082825180855260208086019550808260051b84010181860160005b848110156110c657601f198684030189526110b4838351611038565b98840198925090830190600101611098565b5090979650505050505050565b6020815260006110e6602083018461107b565b9392505050565b6000806040838503121561110057600080fd5b50508035926020909101359150565b6020815260006110e66020830184611038565b6020815260006110e6602083018461100c565b60008060006060848603121561114a57600080fd5b833592506020840135915060408401356001600160401b0381111561116e57600080fd5b61117a86828701610ef8565b9150509250925092565b6040815260006111976040830185611038565b82810360208401526111a9818561107b565b95945050505050565b80516111bd81610f4e565b919050565b6000602082840312156111d457600080fd5b81516110e681610f4e565b6020808252600590820152644b4430313160d81b604082015260600190565b85815284602082015260018060a01b038416604082015260a06060820152600061122b60a083018561100c565b90508260808301529695505050505050565b600181811c9082168061125157607f821691505b6020821081141561127257634e487b7160e01b600052602260045260246000fd5b50919050565b634e487b7160e01b600052603260045260246000fd5b600082601f83011261129f57600080fd5b81516112ad610f1782610ed1565b8181528460208386010111156112c257600080fd5b611073826020830160208701610fdc565b8051600581106111bd57600080fd5b805180151581146111bd57600080fd5b60006020828403121561130457600080fd5b81516001600160401b038082111561131b57600080fd5b90830190610160828603121561133057600080fd5b611338610e78565b611341836111b2565b815260208301518281111561135557600080fd5b6113618782860161128e565b60208301525060408301518281111561137957600080fd5b6113858782860161128e565b604083015250606083015160608201526080830151608082015260a083015160a082015260c083015160c08201526113bf60e084016112d3565b60e08201526101008381015190820152610120808401519082015261014091506113ea8284016112e2565b91810191909152949350505050565b84815283602082015260018060a01b0383166040820152608060608201526000611426608083018461100c565b969550505050505056fea2646970667358221220c3f5ac512ddbfeef4996f3ece1393e8b816934c1bc568d636cd1d5572a1445fd64736f6c634300080a0033",
  "devdoc": {
    "kind": "dev",
    "methods": {
      "adPoolAddress()": {
        "details": "Gets the address of AdPool."
      },
      "bid(uint256,string,address,uint256)": {
        "details": "Bids to participate in an auction.      It is defined as an Open Bid.",
        "params": {
          "amount": "uint256 of the msg.value",
          "proposal": "string of the metadata hash",
          "sender": "address of the msg.sender",
          "tokenId": "uint256 of the token ID"
        }
      },
      "englishAuctionAddress()": {
        "details": "Gets the address of EnglishAuction."
      },
      "eventEmitterAddress()": {
        "details": "Gets the address of EventEmitter."
      },
      "mediaFactoryAddress()": {
        "details": "Gets the address of MediaFactory."
      },
      "mediaRegistryAddress()": {
        "details": "Gets the address of MediaRegistry."
      },
      "nameRegistryAddress()": {
        "details": "Gets the address of NameRegistry"
      },
      "offerBidAddress()": {
        "details": "Gets the address of OfferBid."
      },
      "openBidAddress()": {
        "details": "Gets the address of OpenBid."
      },
      "owner()": {
        "details": "Gets the owner address."
      },
      "proposalReviewAddress()": {
        "details": "Gets the address of ProposalReview."
      },
      "selectProposal(uint256,uint256,string)": {
        "details": "Selects the best proposal bidded with.",
        "params": {
          "index": "uint256 of the index number",
          "reason": "string of the reason or metadata",
          "tokenId": "uint256 of the token ID"
        }
      },
      "vaultAddress()": {
        "details": "Gets the address of Vault."
      }
    },
    "stateVariables": {
      "_bidding": {
        "details": "Maps a tokenId with appeal info"
      },
      "reasons": {
        "details": "Maps a tokenId with the reason why the content is selected"
      }
    },
    "version": 1
  },
  "userdoc": {
    "kind": "user",
    "methods": {},
    "version": 1
  },
  "storageLayout": {
    "storage": [
      {
        "astId": 1889,
        "contract": "contracts/peripheries/OpenBid.sol:OpenBid",
        "label": "_nameRegistry",
        "offset": 0,
        "slot": "0",
        "type": "t_contract(INameRegistry)3999"
      },
      {
        "astId": 6926,
        "contract": "contracts/peripheries/OpenBid.sol:OpenBid",
        "label": "_bidding",
        "offset": 0,
        "slot": "1",
        "type": "t_mapping(t_uint256,t_array(t_struct(OpenBid)4429_storage)dyn_storage)"
      },
      {
        "astId": 6931,
        "contract": "contracts/peripheries/OpenBid.sol:OpenBid",
        "label": "reasons",
        "offset": 0,
        "slot": "2",
        "type": "t_mapping(t_uint256,t_string_storage)"
      }
    ],
    "types": {
      "t_address": {
        "encoding": "inplace",
        "label": "address",
        "numberOfBytes": "20"
      },
      "t_array(t_struct(OpenBid)4429_storage)dyn_storage": {
        "base": "t_struct(OpenBid)4429_storage",
        "encoding": "dynamic_array",
        "label": "struct Sale.OpenBid[]",
        "numberOfBytes": "32"
      },
      "t_contract(INameRegistry)3999": {
        "encoding": "inplace",
        "label": "contract INameRegistry",
        "numberOfBytes": "20"
      },
      "t_mapping(t_uint256,t_array(t_struct(OpenBid)4429_storage)dyn_storage)": {
        "encoding": "mapping",
        "key": "t_uint256",
        "label": "mapping(uint256 => struct Sale.OpenBid[])",
        "numberOfBytes": "32",
        "value": "t_array(t_struct(OpenBid)4429_storage)dyn_storage"
      },
      "t_mapping(t_uint256,t_string_storage)": {
        "encoding": "mapping",
        "key": "t_uint256",
        "label": "mapping(uint256 => string)",
        "numberOfBytes": "32",
        "value": "t_string_storage"
      },
      "t_string_storage": {
        "encoding": "bytes",
        "label": "string",
        "numberOfBytes": "32"
      },
      "t_struct(OpenBid)4429_storage": {
        "encoding": "inplace",
        "label": "struct Sale.OpenBid",
        "members": [
          {
            "astId": 4422,
            "contract": "contracts/peripheries/OpenBid.sol:OpenBid",
            "label": "tokenId",
            "offset": 0,
            "slot": "0",
            "type": "t_uint256"
          },
          {
            "astId": 4424,
            "contract": "contracts/peripheries/OpenBid.sol:OpenBid",
            "label": "sender",
            "offset": 0,
            "slot": "1",
            "type": "t_address"
          },
          {
            "astId": 4426,
            "contract": "contracts/peripheries/OpenBid.sol:OpenBid",
            "label": "price",
            "offset": 0,
            "slot": "2",
            "type": "t_uint256"
          },
          {
            "astId": 4428,
            "contract": "contracts/peripheries/OpenBid.sol:OpenBid",
            "label": "content",
            "offset": 0,
            "slot": "3",
            "type": "t_string_storage"
          }
        ],
        "numberOfBytes": "128"
      },
      "t_uint256": {
        "encoding": "inplace",
        "label": "uint256",
        "numberOfBytes": "32"
      }
    }
  }
}