{
  "address": "0xd136cD76D9590F1A8d7E82D73B2116a4Bb7ec3e2",
  "abi": [
    {
      "inputs": [
        {
          "internalType": "address",
          "name": "nameRegistry",
          "type": "address"
        }
      ],
      "stateMutability": "nonpayable",
      "type": "constructor"
    },
    {
      "inputs": [
        {
          "internalType": "uint256",
          "name": "postId",
          "type": "uint256"
        },
        {
          "internalType": "address",
          "name": "owner",
          "type": "address"
        }
      ],
      "name": "addPost",
      "outputs": [],
      "stateMutability": "nonpayable",
      "type": "function"
    },
    {
      "inputs": [],
      "name": "distributionRightAddress",
      "outputs": [
        {
          "internalType": "address",
          "name": "",
          "type": "address"
        }
      ],
      "stateMutability": "view",
      "type": "function"
    },
    {
      "inputs": [],
      "name": "nameRegistryAddress",
      "outputs": [
        {
          "internalType": "address",
          "name": "",
          "type": "address"
        }
      ],
      "stateMutability": "view",
      "type": "function"
    },
    {
      "inputs": [],
      "name": "owner",
      "outputs": [
        {
          "internalType": "address",
          "name": "",
          "type": "address"
        }
      ],
      "stateMutability": "view",
      "type": "function"
    },
    {
      "inputs": [
        {
          "internalType": "uint256",
          "name": "postId",
          "type": "uint256"
        }
      ],
      "name": "ownerOf",
      "outputs": [
        {
          "internalType": "address",
          "name": "",
          "type": "address"
        }
      ],
      "stateMutability": "view",
      "type": "function"
    },
    {
      "inputs": [
        {
          "internalType": "uint256",
          "name": "",
          "type": "uint256"
        }
      ],
      "name": "owners",
      "outputs": [
        {
          "internalType": "address",
          "name": "",
          "type": "address"
        }
      ],
      "stateMutability": "view",
      "type": "function"
    },
    {
      "inputs": [],
      "name": "postOwnerPoolAddress",
      "outputs": [
        {
          "internalType": "address",
          "name": "",
          "type": "address"
        }
      ],
      "stateMutability": "view",
      "type": "function"
    },
    {
      "inputs": [],
      "name": "reservedRightAddress",
      "outputs": [
        {
          "internalType": "address",
          "name": "",
          "type": "address"
        }
      ],
      "stateMutability": "view",
      "type": "function"
    },
    {
      "inputs": [],
      "name": "vaultAddress",
      "outputs": [
        {
          "internalType": "address",
          "name": "",
          "type": "address"
        }
      ],
      "stateMutability": "view",
      "type": "function"
    }
  ],
  "transactionHash": "0x9b568a6fe76d72e1187d0671d21ae4e1cecf5711e59c64d747a0a745ddf85469",
  "args": [
    "0x87b74aC01B028558A8Af2409e59C709f409f2e80"
  ],
  "solcInputHash": "d8269bf08e62262dc92297179008e96b",
  "bytecode": "0x608060405234801561001057600080fd5b5060405161060838038061060883398101604081905261002f91610054565b600080546001600160a01b0319166001600160a01b0392909216919091179055610084565b60006020828403121561006657600080fd5b81516001600160a01b038116811461007d57600080fd5b9392505050565b610575806100936000396000f3fe608060405234801561001057600080fd5b50600436106100a35760003560e01c8063430bf08a116100765780638da5cb5b1161005b5780638da5cb5b1461014c578063ac6919a514610154578063ef95e90f1461015c57600080fd5b8063430bf08a1461011b5780636352211e1461012357600080fd5b8063016a7522146100a8578063025e7c27146100bd57806327b7a2f51461010257806329a594b514610113575b600080fd5b6100bb6100b63660046104f7565b610164565b005b6100e66100cb3660046104de565b6001602052600090815260409020546001600160a01b031681565b6040516001600160a01b03909116815260200160405180910390f35b6000546001600160a01b03166100e6565b6100e66102a8565b6100e6610374565b6100e66101313660046104de565b6000908152600160205260409020546001600160a01b031690565b6100e66103bb565b6100e661040a565b6100e6610451565b6000546040517f51e0e26b0000000000000000000000000000000000000000000000000000000081523360048201526001600160a01b03909116906351e0e26b9060240160206040518083038186803b1580156101c057600080fd5b505afa1580156101d4573d6000803e3d6000fd5b505050506040513d601f19601f820116820180604052508101906101f891906104bc565b610262576040517f08c379a000000000000000000000000000000000000000000000000000000000815260206004820152600560248201527f4152323031000000000000000000000000000000000000000000000000000000604482015260640160405180910390fd5b60009182526001602052604090912080547fffffffffffffffffffffffff0000000000000000000000000000000000000000166001600160a01b03909216919091179055565b600080546040517f526573657276656452696768740000000000000000000000000000000000000060208201526001600160a01b0390911690638eaa6ac090602d015b604051602081830303815290604052805190602001206040518263ffffffff1660e01b815260040161031f91815260200190565b60206040518083038186803b15801561033757600080fd5b505afa15801561034b573d6000803e3d6000fd5b505050506040513d601f19601f8201168201806040525081019061036f9190610498565b905090565b600080546040517f5661756c7400000000000000000000000000000000000000000000000000000060208201526001600160a01b0390911690638eaa6ac0906025016102eb565b60008060009054906101000a90046001600160a01b03166001600160a01b0316638da5cb5b6040518163ffffffff1660e01b815260040160206040518083038186803b15801561033757600080fd5b600080546040517f446973747269627574696f6e526967687400000000000000000000000000000060208201526001600160a01b0390911690638eaa6ac0906031016102eb565b600080546040517f506f73744f776e6572506f6f6c0000000000000000000000000000000000000060208201526001600160a01b0390911690638eaa6ac090602d016102eb565b6000602082840312156104aa57600080fd5b81516104b581610527565b9392505050565b6000602082840312156104ce57600080fd5b815180151581146104b557600080fd5b6000602082840312156104f057600080fd5b5035919050565b6000806040838503121561050a57600080fd5b82359150602083013561051c81610527565b809150509250929050565b6001600160a01b038116811461053c57600080fd5b5056fea264697066735822122037c93544958e84e7a1937cfd9d825f76855fde0050650b89440040c127f43e8d64736f6c63430008060033",
  "devdoc": {
    "author": "Yushi Masui - <yushi.masui@bridges.inc>",
    "kind": "dev",
    "methods": {
      "distributionRightAddress()": {
        "details": "Gets the address of DistributionRight."
      },
      "nameRegistryAddress()": {
        "details": "Gets the address of NameRegistry"
      },
      "owner()": {
        "details": "Gets the owner address."
      },
      "reservedRightAddress()": {
        "details": "Gets the address of ReservedRight."
      },
      "vaultAddress()": {
        "details": "Gets the address of Vault."
      }
    },
    "title": "PostOwnerPool - pool of post owners.",
    "version": 1
  },
  "userdoc": {
    "kind": "user",
    "methods": {},
    "version": 1
  },
  "storageLayout": {
    "storage": [
      {
        "astId": 1739,
        "contract": "contracts/base/PostOwnerPool.sol:PostOwnerPool",
        "label": "_nameRegistry",
        "offset": 0,
        "slot": "0",
        "type": "t_contract(NameRegistry)1937"
      },
      {
        "astId": 2060,
        "contract": "contracts/base/PostOwnerPool.sol:PostOwnerPool",
        "label": "owners",
        "offset": 0,
        "slot": "1",
        "type": "t_mapping(t_uint256,t_address)"
      }
    ],
    "types": {
      "t_address": {
        "encoding": "inplace",
        "label": "address",
        "numberOfBytes": "20"
      },
      "t_contract(NameRegistry)1937": {
        "encoding": "inplace",
        "label": "contract NameRegistry",
        "numberOfBytes": "20"
      },
      "t_mapping(t_uint256,t_address)": {
        "encoding": "mapping",
        "key": "t_uint256",
        "label": "mapping(uint256 => address)",
        "numberOfBytes": "32",
        "value": "t_address"
      },
      "t_uint256": {
        "encoding": "inplace",
        "label": "uint256",
        "numberOfBytes": "32"
      }
    }
  }
}