{
  "_format": "hh-sol-artifact-1",
  "contractName": "AdManager",
  "sourceName": "contracts/base/AdManager.sol",
  "abi": [
    {
      "inputs": [
        {
          "internalType": "uint256",
          "name": "",
          "type": "uint256"
        }
      ],
      "name": "allPosts",
      "outputs": [
        {
          "internalType": "uint256",
          "name": "postId",
          "type": "uint256"
        },
        {
          "internalType": "string",
          "name": "metadata",
          "type": "string"
        },
        {
          "internalType": "uint256",
          "name": "currentPrice",
          "type": "uint256"
        },
        {
          "internalType": "uint256",
          "name": "periodHours",
          "type": "uint256"
        },
        {
          "internalType": "uint256",
          "name": "startTime",
          "type": "uint256"
        },
        {
          "internalType": "uint256",
          "name": "endTime",
          "type": "uint256"
        },
        {
          "internalType": "address",
          "name": "successfulBidder",
          "type": "address"
        }
      ],
      "stateMutability": "view",
      "type": "function"
    },
    {
      "inputs": [
        {
          "internalType": "string",
          "name": "metadata",
          "type": "string"
        },
        {
          "internalType": "uint256",
          "name": "currentPrice",
          "type": "uint256"
        },
        {
          "internalType": "uint256",
          "name": "periodHours",
          "type": "uint256"
        }
      ],
      "name": "newPost",
      "outputs": [],
      "stateMutability": "nonpayable",
      "type": "function"
    }
  ],
  "bytecode": "0x608060405234801561001057600080fd5b50610627806100206000396000f3fe608060405234801561001057600080fd5b50600436106100365760003560e01c8063718ce2bc1461003b5780638f50b1431461006a575b600080fd5b61004e610049366004610480565b61007f565b6040516100619796959493929190610521565b60405180910390f35b61007d6100783660046103bc565b610159565b005b600060208190529081526040902080546001820180549192916100a1906105a0565b80601f01602080910402602001604051908101604052809291908181526020018280546100cd906105a0565b801561011a5780601f106100ef5761010080835404028352916020019161011a565b820191906000526020600020905b8154815290600101906020018083116100fd57829003601f168201915b505050600284015460038501546004860154600587015460069097015495969295919450925073ffffffffffffffffffffffffffffffffffffffff1687565b6101af6040518060e00160405280600081526020016060815260200160008152602001600081526020016000815260200160008152602001600073ffffffffffffffffffffffffffffffffffffffff1681525090565b6040517f4a5f317200000000000000000000000000000000000000000000000000000000815273__$f662caf489fd8d22a3db0ce873690c8b4a$__90634a5f31729061020190879043906004016104ff565b60206040518083038186803b15801561021957600080fd5b505af415801561022d573d6000803e3d6000fd5b505050506040513d601f19601f820116820180604052508101906102519190610499565b81526020810184905260408101839052426080820181905261027490839061057a565b60a082015280516000908152602081815260409091208251815581830151805184936102a7926001850192910190610323565b5060408201516002820155606082015160038201556080820151600482015560a0820151600582015560c090910151600690910180547fffffffffffffffffffffffff00000000000000000000000000000000000000001673ffffffffffffffffffffffffffffffffffffffff90921691909117905550505050565b82805461032f906105a0565b90600052602060002090601f0160209004810192826103515760008555610397565b82601f1061036a57805160ff1916838001178555610397565b82800160010185558215610397579182015b8281111561039757825182559160200191906001019061037c565b506103a39291506103a7565b5090565b5b808211156103a357600081556001016103a8565b6000806000606084860312156103d157600080fd5b833567ffffffffffffffff808211156103e957600080fd5b818601915086601f8301126103fd57600080fd5b81358181111561040f5761040f6105db565b604051601f8201601f19908116603f01168101908382118183101715610437576104376105db565b8160405282815289602084870101111561045057600080fd5b82602086016020830137600060208483010152809750505050505060208401359150604084013590509250925092565b60006020828403121561049257600080fd5b5035919050565b6000602082840312156104ab57600080fd5b5051919050565b6000815180845260005b818110156104d8576020818501810151868301820152016104bc565b818111156104ea576000602083870101525b50601f01601f19169290920160200192915050565b60408152600061051260408301856104b2565b90508260208301529392505050565b87815260e06020820152600061053a60e08301896104b2565b6040830197909752506060810194909452608084019290925260a083015273ffffffffffffffffffffffffffffffffffffffff1660c09091015292915050565b6000821982111561059b57634e487b7160e01b600052601160045260246000fd5b500190565b600181811c908216806105b457607f821691505b602082108114156105d557634e487b7160e01b600052602260045260246000fd5b50919050565b634e487b7160e01b600052604160045260246000fdfea2646970667358221220189752de74b92951198a0389df73a1435450b32fe92888b496e3fec7efc107e564736f6c63430008060033",
  "linkReferences": {
    "contracts/libraries/IDGenerator.sol": {
      "IDGenerator": [
        {
          "length": 20,
          "start": 503
        }
      ]
    }
  },
  "deployedLinkReferences": {
    "contracts/libraries/IDGenerator.sol": {
      "IDGenerator": [
        {
          "length": 20,
          "start": 471
        }
      ]
    }
  }
}