{
  "_format": "hh-sol-artifact-1",
  "contractName": "AdManager",
  "sourceName": "contracts/base/AdManager.sol",
  "abi": [
    {
      "inputs": [
        {
          "internalType": "address",
          "name": "nameRegistry",
          "type": "address"
        }
      ],
      "stateMutability": "nonpayable",
      "type": "constructor"
    },
    {
      "anonymous": false,
      "inputs": [
        {
          "indexed": false,
          "internalType": "uint256",
          "name": "bidId",
          "type": "uint256"
        },
        {
          "indexed": false,
          "internalType": "uint256",
          "name": "postId",
          "type": "uint256"
        },
        {
          "indexed": false,
          "internalType": "address",
          "name": "sender",
          "type": "address"
        },
        {
          "indexed": false,
          "internalType": "uint256",
          "name": "price",
          "type": "uint256"
        },
        {
          "indexed": false,
          "internalType": "string",
          "name": "metadata",
          "type": "string"
        }
      ],
      "name": "Bid",
      "type": "event"
    },
    {
      "anonymous": false,
      "inputs": [
        {
          "indexed": false,
          "internalType": "uint256",
          "name": "postId",
          "type": "uint256"
        },
        {
          "indexed": false,
          "internalType": "address",
          "name": "owner",
          "type": "address"
        },
        {
          "indexed": false,
          "internalType": "string",
          "name": "metadata",
          "type": "string"
        },
        {
          "indexed": false,
          "internalType": "uint256",
          "name": "currentPrice",
          "type": "uint256"
        },
        {
          "indexed": false,
          "internalType": "uint256",
          "name": "periodHours",
          "type": "uint256"
        },
        {
          "indexed": false,
          "internalType": "uint256",
          "name": "startTime",
          "type": "uint256"
        },
        {
          "indexed": false,
          "internalType": "uint256",
          "name": "endTime",
          "type": "uint256"
        }
      ],
      "name": "NewPost",
      "type": "event"
    },
    {
      "inputs": [
        {
          "internalType": "uint256",
          "name": "",
          "type": "uint256"
        },
        {
          "internalType": "uint256",
          "name": "",
          "type": "uint256"
        }
      ],
      "name": "allBidders",
      "outputs": [
        {
          "internalType": "uint256",
          "name": "bidId",
          "type": "uint256"
        },
        {
          "internalType": "uint256",
          "name": "postId",
          "type": "uint256"
        },
        {
          "internalType": "address",
          "name": "sender",
          "type": "address"
        },
        {
          "internalType": "uint256",
          "name": "price",
          "type": "uint256"
        },
        {
          "internalType": "string",
          "name": "metadata",
          "type": "string"
        }
      ],
      "stateMutability": "view",
      "type": "function"
    },
    {
      "inputs": [
        {
          "internalType": "uint256",
          "name": "",
          "type": "uint256"
        }
      ],
      "name": "allPosts",
      "outputs": [
        {
          "internalType": "uint256",
          "name": "postId",
          "type": "uint256"
        },
        {
          "internalType": "address",
          "name": "owner",
          "type": "address"
        },
        {
          "internalType": "string",
          "name": "metadata",
          "type": "string"
        },
        {
          "internalType": "uint256",
          "name": "currentPrice",
          "type": "uint256"
        },
        {
          "internalType": "uint256",
          "name": "periodHours",
          "type": "uint256"
        },
        {
          "internalType": "uint256",
          "name": "startTime",
          "type": "uint256"
        },
        {
          "internalType": "uint256",
          "name": "endTime",
          "type": "uint256"
        },
        {
          "internalType": "address",
          "name": "successfulBidder",
          "type": "address"
        }
      ],
      "stateMutability": "view",
      "type": "function"
    },
    {
      "inputs": [
        {
          "internalType": "uint256",
          "name": "postId",
          "type": "uint256"
        },
        {
          "internalType": "string",
          "name": "metadata",
          "type": "string"
        }
      ],
      "name": "bid",
      "outputs": [],
      "stateMutability": "payable",
      "type": "function"
    },
    {
      "inputs": [
        {
          "internalType": "uint256",
          "name": "",
          "type": "uint256"
        }
      ],
      "name": "bidderInfo",
      "outputs": [
        {
          "internalType": "uint256",
          "name": "bidId",
          "type": "uint256"
        },
        {
          "internalType": "uint256",
          "name": "postId",
          "type": "uint256"
        },
        {
          "internalType": "address",
          "name": "sender",
          "type": "address"
        },
        {
          "internalType": "uint256",
          "name": "price",
          "type": "uint256"
        },
        {
          "internalType": "string",
          "name": "metadata",
          "type": "string"
        }
      ],
      "stateMutability": "view",
      "type": "function"
    },
    {
      "inputs": [
        {
          "internalType": "uint256",
          "name": "bidId",
          "type": "uint256"
        }
      ],
      "name": "close",
      "outputs": [],
      "stateMutability": "nonpayable",
      "type": "function"
    },
    {
      "inputs": [
        {
          "internalType": "uint256",
          "name": "postId",
          "type": "uint256"
        },
        {
          "internalType": "string",
          "name": "metadata",
          "type": "string"
        }
      ],
      "name": "computeBidId",
      "outputs": [
        {
          "internalType": "uint256",
          "name": "",
          "type": "uint256"
        }
      ],
      "stateMutability": "pure",
      "type": "function"
    },
    {
      "inputs": [
        {
          "internalType": "string",
          "name": "metadata",
          "type": "string"
        },
        {
          "internalType": "uint256",
          "name": "blockNumber",
          "type": "uint256"
        }
      ],
      "name": "computePostId",
      "outputs": [
        {
          "internalType": "uint256",
          "name": "",
          "type": "uint256"
        }
      ],
      "stateMutability": "pure",
      "type": "function"
    },
    {
      "inputs": [],
      "name": "distributionRight",
      "outputs": [
        {
          "internalType": "address",
          "name": "",
          "type": "address"
        }
      ],
      "stateMutability": "view",
      "type": "function"
    },
    {
      "inputs": [],
      "name": "nameRegistryAddress",
      "outputs": [
        {
          "internalType": "address",
          "name": "",
          "type": "address"
        }
      ],
      "stateMutability": "view",
      "type": "function"
    },
    {
      "inputs": [
        {
          "internalType": "string",
          "name": "metadata",
          "type": "string"
        },
        {
          "internalType": "uint256",
          "name": "initialPrice",
          "type": "uint256"
        },
        {
          "internalType": "uint256",
          "name": "periodHours",
          "type": "uint256"
        }
      ],
      "name": "newPost",
      "outputs": [],
      "stateMutability": "nonpayable",
      "type": "function"
    },
    {
      "inputs": [],
      "name": "owner",
      "outputs": [
        {
          "internalType": "address",
          "name": "",
          "type": "address"
        }
      ],
      "stateMutability": "view",
      "type": "function"
    },
    {
      "inputs": [
        {
          "internalType": "uint256",
          "name": "bidId",
          "type": "uint256"
        }
      ],
      "name": "refund",
      "outputs": [],
      "stateMutability": "nonpayable",
      "type": "function"
    }
  ],
  "bytecode": "0x608060405234801561001057600080fd5b506040516113d33803806113d383398101604081905261002f91610054565b600080546001600160a01b0319166001600160a01b0392909216919091179055610084565b60006020828403121561006657600080fd5b81516001600160a01b038116811461007d57600080fd5b9392505050565b611340806100936000396000f3fe6080604052600436106100c75760003560e01c806339c1b91f116100745780638f50b1431161004e5780638f50b14314610219578063d2db17f914610239578063e7ac32c91461025957600080fd5b806339c1b91f146101bb578063718ce2bc146101d05780638da5cb5b1461020457600080fd5b8063278ecde1116100a5578063278ecde11461013b57806327b7a2f51461015b5780632ef883d51461018d57600080fd5b80630aebeb4e146100cc5780630d5daf3b146100ee5780630fc55fd114610128575b600080fd5b3480156100d857600080fd5b506100ec6100e7366004611037565b610279565b005b3480156100fa57600080fd5b5061010e610109366004611037565b610558565b60405161011f95949392919061120b565b60405180910390f35b6100ec610136366004611069565b61061e565b34801561014757600080fd5b506100ec610156366004611037565b610838565b34801561016757600080fd5b506000546001600160a01b03165b6040516001600160a01b03909116815260200161011f565b34801561019957600080fd5b506101ad6101a8366004610fa4565b6108e4565b60405190815260200161011f565b3480156101c757600080fd5b50610175610977565b3480156101dc57600080fd5b506101f06101eb366004611037565b610a42565b60405161011f98979695949392919061118f565b34801561021057600080fd5b50610175610b20565b34801561022557600080fd5b506100ec610234366004610fe9565b610b6f565b34801561024557600080fd5b506101ad610254366004611069565b610dac565b34801561026557600080fd5b5061010e6102743660046110b0565b610de8565b6000818152600360208181526040808420815160a0810183528154815260018201549381019390935260028101546001600160a01b0316918301919091529182015460608201526004820180549192916080840191906102d8906112a3565b80601f0160208091040260200160405190810160405280929190818152602001828054610304906112a3565b80156103515780601f1061032657610100808354040283529160200191610351565b820191906000526020600020905b81548152906001019060200180831161033457829003601f168201915b5050509190925250508151919250506103b15760405162461bcd60e51b815260206004820152600560248201527f414431303300000000000000000000000000000000000000000000000000000060448201526064015b60405180910390fd5b60208082015160009081526001918290526040902001546001600160a01b0316331461041f5760405162461bcd60e51b815260206004820152600560248201527f414431303200000000000000000000000000000000000000000000000000000060448201526064016103a8565b336001600160a01b03166108fc600a8360600151600961043f9190611284565b6104499190611262565b6040518115909202916000818181858888f19350505050158015610471573d6000803e3d6000fd5b5061047a610b20565b6001600160a01b03166108fc600a836060015160016104999190611284565b6104a39190611262565b6040518115909202916000818181858888f193505050501580156104cb573d6000803e3d6000fd5b506104d4610e4b565b60408083015190517f40c10f190000000000000000000000000000000000000000000000000000000081526001600160a01b039182166004820152602481018590529116906340c10f1990604401600060405180830381600087803b15801561053c57600080fd5b505af1158015610550573d6000803e3d6000fd5b505050505050565b600360208190526000918252604090912080546001820154600283015493830154600484018054939592946001600160a01b039093169391929161059b906112a3565b80601f01602080910402602001604051908101604052809291908181526020018280546105c7906112a3565b80156106145780601f106105e957610100808354040283529160200191610614565b820191906000526020600020905b8154815290600101906020018083116105f757829003601f168201915b5050505050905085565b600082815260016020526040902060060154421061067e5760405162461bcd60e51b815260206004820152600560248201527f414431303100000000000000000000000000000000000000000000000000000060448201526064016103a8565b6106b96040518060a00160405280600081526020016000815260200160006001600160a01b0316815260200160008152602001606081525090565b60405163d2db17f960e01b815273__$f662caf489fd8d22a3db0ce873690c8b4a$__9063d2db17f9906106f290869086906004016111ea565b60206040518083038186803b15801561070a57600080fd5b505af415801561071e573d6000803e3d6000fd5b505050506040513d601f19601f820116820180604052508101906107429190611050565b81526020808201848152336040808501918252346060860190815260808601878152600089815260028088529381208054600180820183559183529188902089516005909302019182559551958101959095559251918401805473ffffffffffffffffffffffffffffffffffffffff19166001600160a01b039093169290921790915551600383015551805184936107e1926004850192910190610e55565b5050815160208301516040808501516060860151608087015192517f01662ff7392d9961759cf40cab7a64e5ad660ba64a9df944343ce23b2b94c447965061082b9594939061120b565b60405180910390a1505050565b6000818152600360205260409020600201546001600160a01b031633146108a15760405162461bcd60e51b815260206004820152600560248201527f414431303400000000000000000000000000000000000000000000000000000060448201526064016103a8565b6000818152600360208190526040808320909101549051339282156108fc02929190818181858888f193505050501580156108e0573d6000803e3d6000fd5b5050565b604051632ef883d560e01b815260009073__$f662caf489fd8d22a3db0ce873690c8b4a$__90632ef883d590610920908690869060040161111f565b60206040518083038186803b15801561093857600080fd5b505af415801561094c573d6000803e3d6000fd5b505050506040513d601f19601f820116820180604052508101906109709190611050565b9392505050565b600080546040517f446973747269627574696f6e526967687400000000000000000000000000000060208201526001600160a01b0390911690638eaa6ac090603101604051602081830303815290604052805190602001206040518263ffffffff1660e01b81526004016109ed91815260200190565b60206040518083038186803b158015610a0557600080fd5b505afa158015610a19573d6000803e3d6000fd5b505050506040513d601f19601f82011682018060405250810190610a3d9190610f7b565b905090565b60016020819052600091825260409091208054918101546002820180546001600160a01b039092169291610a75906112a3565b80601f0160208091040260200160405190810160405280929190818152602001828054610aa1906112a3565b8015610aee5780601f10610ac357610100808354040283529160200191610aee565b820191906000526020600020905b815481529060010190602001808311610ad157829003601f168201915b50505060038401546004850154600586015460068701546007909701549596929591945092506001600160a01b031688565b60008060009054906101000a90046001600160a01b03166001600160a01b0316638da5cb5b6040518163ffffffff1660e01b815260040160206040518083038186803b158015610a0557600080fd5b610bc96040518061010001604052806000815260200160006001600160a01b03168152602001606081526020016000815260200160008152602001600081526020016000815260200160006001600160a01b031681525090565b604051632ef883d560e01b815273__$f662caf489fd8d22a3db0ce873690c8b4a$__90632ef883d590610c02908790439060040161111f565b60206040518083038186803b158015610c1a57600080fd5b505af4158015610c2e573d6000803e3d6000fd5b505050506040513d601f19601f82011682018060405250810190610c529190611050565b81523360208201526040810184905260608101839052608081018290524260a08201819052610c8290839061124a565b60c082015280516000908152600160208181526040928390208451815581850151928101805473ffffffffffffffffffffffffffffffffffffffff19166001600160a01b03909416939093179092559183015180518493610cea926002850192910190610e55565b50606082015181600301556080820151816004015560a0820151816005015560c0820151816006015560e08201518160070160006101000a8154816001600160a01b0302191690836001600160a01b031602179055509050507fc5b1508e582b10d2db0917542b3881b71cc569a7e1ad667ccbe4c5de45d8daa981600001518260200151836040015184606001518686608001818152508660a001518760c00151604051610d9e9796959493929190611141565b60405180910390a150505050565b60405163d2db17f960e01b815260009073__$f662caf489fd8d22a3db0ce873690c8b4a$__9063d2db17f99061092090869086906004016111ea565b60026020528160005260406000208181548110610e0457600080fd5b6000918252602090912060059091020180546001820154600283015460038401546004850180549497509295506001600160a01b0390911693909290919061059b906112a3565b6000610a3d610977565b828054610e61906112a3565b90600052602060002090601f016020900481019282610e835760008555610ec9565b82601f10610e9c57805160ff1916838001178555610ec9565b82800160010185558215610ec9579182015b82811115610ec9578251825591602001919060010190610eae565b50610ed5929150610ed9565b5090565b5b80821115610ed55760008155600101610eda565b600082601f830112610eff57600080fd5b813567ffffffffffffffff80821115610f1a57610f1a6112f4565b604051601f8301601f19908116603f01168101908282118183101715610f4257610f426112f4565b81604052838152866020858801011115610f5b57600080fd5b836020870160208301376000602085830101528094505050505092915050565b600060208284031215610f8d57600080fd5b81516001600160a01b038116811461097057600080fd5b60008060408385031215610fb757600080fd5b823567ffffffffffffffff811115610fce57600080fd5b610fda85828601610eee565b95602094909401359450505050565b600080600060608486031215610ffe57600080fd5b833567ffffffffffffffff81111561101557600080fd5b61102186828701610eee565b9660208601359650604090950135949350505050565b60006020828403121561104957600080fd5b5035919050565b60006020828403121561106257600080fd5b5051919050565b6000806040838503121561107c57600080fd5b82359150602083013567ffffffffffffffff81111561109a57600080fd5b6110a685828601610eee565b9150509250929050565b600080604083850312156110c357600080fd5b50508035926020909101359150565b6000815180845260005b818110156110f8576020818501810151868301820152016110dc565b8181111561110a576000602083870101525b50601f01601f19169290920160200192915050565b60408152600061113260408301856110d2565b90508260208301529392505050565b8781526001600160a01b038716602082015260e06040820152600061116960e08301886110d2565b90508560608301528460808301528360a08301528260c083015298975050505050505050565b60006101008a83526001600160a01b03808b1660208501528160408501526111b98285018b6110d2565b92508860608501528760808501528660a08501528560c085015280851660e085015250509998505050505050505050565b82815260406020820152600061120360408301846110d2565b949350505050565b8581528460208201526001600160a01b038416604082015282606082015260a06080820152600061123f60a08301846110d2565b979650505050505050565b6000821982111561125d5761125d6112de565b500190565b60008261127f57634e487b7160e01b600052601260045260246000fd5b500490565b600081600019048311821515161561129e5761129e6112de565b500290565b600181811c908216806112b757607f821691505b602082108114156112d857634e487b7160e01b600052602260045260246000fd5b50919050565b634e487b7160e01b600052601160045260246000fd5b634e487b7160e01b600052604160045260246000fdfea2646970667358221220d6fc91526ee001db1803aa76baabd14475d531feafadab66e952a771256a2f8364736f6c63430008060033",
  "linkReferences": {
    "contracts/libraries/IDGenerator.sol": {
      "IDGenerator": [
        {
          "length": 20,
          "start": 1883
        },
        {
          "length": 20,
          "start": 2441
        },
        {
          "length": 20,
          "start": 3179
        },
        {
          "length": 20,
          "start": 3665
        }
      ]
    }
  },
  "deployedLinkReferences": {
    "contracts/libraries/IDGenerator.sol": {
      "IDGenerator": [
        {
          "length": 20,
          "start": 1736
        },
        {
          "length": 20,
          "start": 2294
        },
        {
          "length": 20,
          "start": 3032
        },
        {
          "length": 20,
          "start": 3518
        }
      ]
    }
  }
}