{
  "_format": "hh-sol-artifact-1",
  "contractName": "AdManager",
  "sourceName": "contracts/base/AdManager.sol",
  "abi": [
    {
      "inputs": [
        {
          "internalType": "address",
          "name": "nameRegistry",
          "type": "address"
        }
      ],
      "stateMutability": "nonpayable",
      "type": "constructor"
    },
    {
      "inputs": [
        {
          "internalType": "uint256",
          "name": "",
          "type": "uint256"
        }
      ],
      "name": "allPosts",
      "outputs": [
        {
          "internalType": "uint256",
          "name": "postId",
          "type": "uint256"
        },
        {
          "internalType": "string",
          "name": "metadata",
          "type": "string"
        },
        {
          "internalType": "uint256",
          "name": "currentPrice",
          "type": "uint256"
        },
        {
          "internalType": "uint256",
          "name": "periodHours",
          "type": "uint256"
        },
        {
          "internalType": "uint256",
          "name": "startTime",
          "type": "uint256"
        },
        {
          "internalType": "uint256",
          "name": "endTime",
          "type": "uint256"
        },
        {
          "internalType": "address",
          "name": "successfulBidder",
          "type": "address"
        }
      ],
      "stateMutability": "view",
      "type": "function"
    },
    {
      "inputs": [],
      "name": "distributionRight",
      "outputs": [
        {
          "internalType": "address",
          "name": "",
          "type": "address"
        }
      ],
      "stateMutability": "view",
      "type": "function"
    },
    {
      "inputs": [],
      "name": "nameRegistryAddress",
      "outputs": [
        {
          "internalType": "address",
          "name": "",
          "type": "address"
        }
      ],
      "stateMutability": "view",
      "type": "function"
    },
    {
      "inputs": [
        {
          "internalType": "string",
          "name": "metadata",
          "type": "string"
        },
        {
          "internalType": "uint256",
          "name": "currentPrice",
          "type": "uint256"
        },
        {
          "internalType": "uint256",
          "name": "periodHours",
          "type": "uint256"
        }
      ],
      "name": "newPost",
      "outputs": [],
      "stateMutability": "nonpayable",
      "type": "function"
    },
    {
      "inputs": [],
      "name": "owner",
      "outputs": [
        {
          "internalType": "address",
          "name": "",
          "type": "address"
        }
      ],
      "stateMutability": "view",
      "type": "function"
    }
  ],
  "bytecode": "0x608060405234801561001057600080fd5b506040516108c33803806108c383398101604081905261002f91610054565b600080546001600160a01b0319166001600160a01b0392909216919091179055610084565b60006020828403121561006657600080fd5b81516001600160a01b038116811461007d57600080fd5b9392505050565b610830806100936000396000f3fe608060405234801561001057600080fd5b50600436106100675760003560e01c8063718ce2bc11610050578063718ce2bc1461009e5780638da5cb5b146100c45780638f50b143146100cc57600080fd5b806327b7a2f51461006c57806339c1b91f14610096575b600080fd5b6000546001600160a01b03165b6040516001600160a01b0390911681526020015b60405180910390f35b6100796100e1565b6100b16100ac366004610696565b6101ac565b60405161008d9796959493929190610737565b610079610278565b6100df6100da3660046105d2565b6102c7565b005b600080546040517f446973747269627574696f6e526967687400000000000000000000000000000060208201526001600160a01b0390911690638eaa6ac090603101604051602081830303815290604052805190602001206040518263ffffffff1660e01b815260040161015791815260200190565b60206040518083038186803b15801561016f57600080fd5b505afa158015610183573d6000803e3d6000fd5b505050506040513d601f19601f820116820180604052508101906101a791906105a2565b905090565b6001602081905260009182526040909120805491810180546101cd906107a9565b80601f01602080910402602001604051908101604052809291908181526020018280546101f9906107a9565b80156102465780601f1061021b57610100808354040283529160200191610246565b820191906000526020600020905b81548152906001019060200180831161022957829003601f168201915b50505060028401546003850154600486015460058701546006909701549596929591945092506001600160a01b031687565b60008060009054906101000a90046001600160a01b03166001600160a01b0316638da5cb5b6040518163ffffffff1660e01b815260040160206040518083038186803b15801561016f57600080fd5b6103106040518060e0016040528060008152602001606081526020016000815260200160008152602001600081526020016000815260200160006001600160a01b031681525090565b6040517f4a5f317200000000000000000000000000000000000000000000000000000000815273__$f662caf489fd8d22a3db0ce873690c8b4a$__90634a5f3172906103629087904390600401610715565b60206040518083038186803b15801561037a57600080fd5b505af415801561038e573d6000803e3d6000fd5b505050506040513d601f19601f820116820180604052508101906103b291906106af565b8152602081018490526040810183905242608082018190526103d5908390610783565b60a082015280516000908152600160208181526040909220835181558284015180518594929361040a93908501920190610509565b5060408201516002820155606082015160038201556080820151600482015560a0820151600582015560c090910151600690910180547fffffffffffffffffffffffff0000000000000000000000000000000000000000166001600160a01b0390921691909117905561047b6104ff565b81516040517f40c10f1900000000000000000000000000000000000000000000000000000000815233600482015260248101919091526001600160a01b0391909116906340c10f1990604401600060405180830381600087803b1580156104e157600080fd5b505af11580156104f5573d6000803e3d6000fd5b5050505050505050565b60006101a76100e1565b828054610515906107a9565b90600052602060002090601f016020900481019282610537576000855561057d565b82601f1061055057805160ff191683800117855561057d565b8280016001018555821561057d579182015b8281111561057d578251825591602001919060010190610562565b5061058992915061058d565b5090565b5b80821115610589576000815560010161058e565b6000602082840312156105b457600080fd5b81516001600160a01b03811681146105cb57600080fd5b9392505050565b6000806000606084860312156105e757600080fd5b833567ffffffffffffffff808211156105ff57600080fd5b818601915086601f83011261061357600080fd5b813581811115610625576106256107e4565b604051601f8201601f19908116603f0116810190838211818310171561064d5761064d6107e4565b8160405282815289602084870101111561066657600080fd5b82602086016020830137600060208483010152809750505050505060208401359150604084013590509250925092565b6000602082840312156106a857600080fd5b5035919050565b6000602082840312156106c157600080fd5b5051919050565b6000815180845260005b818110156106ee576020818501810151868301820152016106d2565b81811115610700576000602083870101525b50601f01601f19169290920160200192915050565b60408152600061072860408301856106c8565b90508260208301529392505050565b87815260e06020820152600061075060e08301896106c8565b6040830197909752506060810194909452608084019290925260a08301526001600160a01b031660c09091015292915050565b600082198211156107a457634e487b7160e01b600052601160045260246000fd5b500190565b600181811c908216806107bd57607f821691505b602082108114156107de57634e487b7160e01b600052602260045260246000fd5b50919050565b634e487b7160e01b600052604160045260246000fdfea2646970667358221220c7dc8c7d8fdc13f512efe7166d44c541b6d348381f45cd64e1d4be8c0a7d3e7164736f6c63430008060033",
  "linkReferences": {
    "contracts/libraries/IDGenerator.sol": {
      "IDGenerator": [
        {
          "length": 20,
          "start": 971
        }
      ]
    }
  },
  "deployedLinkReferences": {
    "contracts/libraries/IDGenerator.sol": {
      "IDGenerator": [
        {
          "length": 20,
          "start": 824
        }
      ]
    }
  }
}