{
  "_format": "hh-sol-artifact-1",
  "contractName": "AdManager",
  "sourceName": "contracts/base/AdManager.sol",
  "abi": [
    {
      "inputs": [
        {
          "internalType": "address",
          "name": "nameRegistry",
          "type": "address"
        }
      ],
      "stateMutability": "nonpayable",
      "type": "constructor"
    },
    {
      "inputs": [
        {
          "internalType": "uint256",
          "name": "",
          "type": "uint256"
        },
        {
          "internalType": "uint256",
          "name": "",
          "type": "uint256"
        }
      ],
      "name": "allBidders",
      "outputs": [
        {
          "internalType": "uint256",
          "name": "bidId",
          "type": "uint256"
        },
        {
          "internalType": "uint256",
          "name": "postId",
          "type": "uint256"
        },
        {
          "internalType": "address",
          "name": "sender",
          "type": "address"
        },
        {
          "internalType": "uint256",
          "name": "price",
          "type": "uint256"
        },
        {
          "internalType": "string",
          "name": "metadata",
          "type": "string"
        }
      ],
      "stateMutability": "view",
      "type": "function"
    },
    {
      "inputs": [
        {
          "internalType": "uint256",
          "name": "",
          "type": "uint256"
        }
      ],
      "name": "allPosts",
      "outputs": [
        {
          "internalType": "uint256",
          "name": "postId",
          "type": "uint256"
        },
        {
          "internalType": "address",
          "name": "owner",
          "type": "address"
        },
        {
          "internalType": "string",
          "name": "metadata",
          "type": "string"
        },
        {
          "internalType": "uint256",
          "name": "currentPrice",
          "type": "uint256"
        },
        {
          "internalType": "uint256",
          "name": "periodHours",
          "type": "uint256"
        },
        {
          "internalType": "uint256",
          "name": "startTime",
          "type": "uint256"
        },
        {
          "internalType": "uint256",
          "name": "endTime",
          "type": "uint256"
        },
        {
          "internalType": "address",
          "name": "successfulBidder",
          "type": "address"
        }
      ],
      "stateMutability": "view",
      "type": "function"
    },
    {
      "inputs": [
        {
          "internalType": "uint256",
          "name": "postId",
          "type": "uint256"
        },
        {
          "internalType": "string",
          "name": "metadata",
          "type": "string"
        }
      ],
      "name": "bid",
      "outputs": [],
      "stateMutability": "payable",
      "type": "function"
    },
    {
      "inputs": [
        {
          "internalType": "uint256",
          "name": "",
          "type": "uint256"
        }
      ],
      "name": "bidderInfo",
      "outputs": [
        {
          "internalType": "uint256",
          "name": "bidId",
          "type": "uint256"
        },
        {
          "internalType": "uint256",
          "name": "postId",
          "type": "uint256"
        },
        {
          "internalType": "address",
          "name": "sender",
          "type": "address"
        },
        {
          "internalType": "uint256",
          "name": "price",
          "type": "uint256"
        },
        {
          "internalType": "string",
          "name": "metadata",
          "type": "string"
        }
      ],
      "stateMutability": "view",
      "type": "function"
    },
    {
      "inputs": [
        {
          "internalType": "uint256",
          "name": "bidId",
          "type": "uint256"
        }
      ],
      "name": "close",
      "outputs": [],
      "stateMutability": "nonpayable",
      "type": "function"
    },
    {
      "inputs": [],
      "name": "distributionRight",
      "outputs": [
        {
          "internalType": "address",
          "name": "",
          "type": "address"
        }
      ],
      "stateMutability": "view",
      "type": "function"
    },
    {
      "inputs": [],
      "name": "nameRegistryAddress",
      "outputs": [
        {
          "internalType": "address",
          "name": "",
          "type": "address"
        }
      ],
      "stateMutability": "view",
      "type": "function"
    },
    {
      "inputs": [
        {
          "internalType": "string",
          "name": "metadata",
          "type": "string"
        },
        {
          "internalType": "uint256",
          "name": "currentPrice",
          "type": "uint256"
        },
        {
          "internalType": "uint256",
          "name": "periodHours",
          "type": "uint256"
        }
      ],
      "name": "newPost",
      "outputs": [],
      "stateMutability": "nonpayable",
      "type": "function"
    },
    {
      "inputs": [],
      "name": "owner",
      "outputs": [
        {
          "internalType": "address",
          "name": "",
          "type": "address"
        }
      ],
      "stateMutability": "view",
      "type": "function"
    },
    {
      "inputs": [
        {
          "internalType": "uint256",
          "name": "bidId",
          "type": "uint256"
        }
      ],
      "name": "refund",
      "outputs": [],
      "stateMutability": "nonpayable",
      "type": "function"
    }
  ],
  "bytecode": "0x608060405234801561001057600080fd5b5060405161118438038061118483398101604081905261002f91610054565b600080546001600160a01b0319166001600160a01b0392909216919091179055610084565b60006020828403121561006657600080fd5b81516001600160a01b038116811461007d57600080fd5b9392505050565b6110f1806100936000396000f3fe6080604052600436106100b15760003560e01c806339c1b91f116100695780638da5cb5b1161004e5780638da5cb5b146101c05780638f50b143146101d5578063e7ac32c9146101f557600080fd5b806339c1b91f14610177578063718ce2bc1461018c57600080fd5b80630fc55fd11161009a5780630fc55fd114610112578063278ecde11461012557806327b7a2f51461014557600080fd5b80630aebeb4e146100b65780630d5daf3b146100d8575b600080fd5b3480156100c257600080fd5b506100d66100d1366004610e36565b610215565b005b3480156100e457600080fd5b506100f86100f3366004610e36565b6104f4565b604051610109959493929190610fbc565b60405180910390f35b6100d6610120366004610e68565b6105ba565b34801561013157600080fd5b506100d6610140366004610e36565b610796565b34801561015157600080fd5b506000546001600160a01b03165b6040516001600160a01b039091168152602001610109565b34801561018357600080fd5b5061015f610842565b34801561019857600080fd5b506101ac6101a7366004610e36565b61090d565b604051610109989796959493929190610f40565b3480156101cc57600080fd5b5061015f6109eb565b3480156101e157600080fd5b506100d66101f0366004610de8565b610a3a565b34801561020157600080fd5b506100f8610210366004610eaf565b610c25565b6000818152600360208181526040808420815160a0810183528154815260018201549381019390935260028101546001600160a01b03169183019190915291820154606082015260048201805491929160808401919061027490611054565b80601f01602080910402602001604051908101604052809291908181526020018280546102a090611054565b80156102ed5780601f106102c2576101008083540402835291602001916102ed565b820191906000526020600020905b8154815290600101906020018083116102d057829003601f168201915b50505091909252505081519192505061034d5760405162461bcd60e51b815260206004820152600560248201527f414431303300000000000000000000000000000000000000000000000000000060448201526064015b60405180910390fd5b60208082015160009081526001918290526040902001546001600160a01b031633146103bb5760405162461bcd60e51b815260206004820152600560248201527f41443130320000000000000000000000000000000000000000000000000000006044820152606401610344565b336001600160a01b03166108fc600a836060015160096103db9190611035565b6103e59190611013565b6040518115909202916000818181858888f1935050505015801561040d573d6000803e3d6000fd5b506104166109eb565b6001600160a01b03166108fc600a836060015160016104359190611035565b61043f9190611013565b6040518115909202916000818181858888f19350505050158015610467573d6000803e3d6000fd5b50610470610c88565b60408083015190517f40c10f190000000000000000000000000000000000000000000000000000000081526001600160a01b039182166004820152602481018590529116906340c10f1990604401600060405180830381600087803b1580156104d857600080fd5b505af11580156104ec573d6000803e3d6000fd5b505050505050565b600360208190526000918252604090912080546001820154600283015493830154600484018054939592946001600160a01b039093169391929161053790611054565b80601f016020809104026020016040519081016040528092919081815260200182805461056390611054565b80156105b05780601f10610585576101008083540402835291602001916105b0565b820191906000526020600020905b81548152906001019060200180831161059357829003601f168201915b5050505050905085565b600082815260016020526040902060060154421061061a5760405162461bcd60e51b815260206004820152600560248201527f41443130310000000000000000000000000000000000000000000000000000006044820152606401610344565b6106556040518060a00160405280600081526020016000815260200160006001600160a01b0316815260200160008152602001606081525090565b6040517fd2db17f900000000000000000000000000000000000000000000000000000000815273__$f662caf489fd8d22a3db0ce873690c8b4a$__9063d2db17f9906106a79086908690600401610f9b565b60206040518083038186803b1580156106bf57600080fd5b505af41580156106d3573d6000803e3d6000fd5b505050506040513d601f19601f820116820180604052508101906106f79190610e4f565b81526020808201848152336040808501918252346060860190815260808601878152600089815260028088529381208054600180820183559183529188902089516005909302019182559551958101959095559251918401805473ffffffffffffffffffffffffffffffffffffffff19166001600160a01b039093169290921790915551600383015551805184936104ec926004850192910190610c92565b6000818152600360205260409020600201546001600160a01b031633146107ff5760405162461bcd60e51b815260206004820152600560248201527f41443130340000000000000000000000000000000000000000000000000000006044820152606401610344565b6000818152600360208190526040808320909101549051339282156108fc02929190818181858888f1935050505015801561083e573d6000803e3d6000fd5b5050565b600080546040517f446973747269627574696f6e526967687400000000000000000000000000000060208201526001600160a01b0390911690638eaa6ac090603101604051602081830303815290604052805190602001206040518263ffffffff1660e01b81526004016108b891815260200190565b60206040518083038186803b1580156108d057600080fd5b505afa1580156108e4573d6000803e3d6000fd5b505050506040513d601f19601f820116820180604052508101906109089190610db8565b905090565b60016020819052600091825260409091208054918101546002820180546001600160a01b03909216929161094090611054565b80601f016020809104026020016040519081016040528092919081815260200182805461096c90611054565b80156109b95780601f1061098e576101008083540402835291602001916109b9565b820191906000526020600020905b81548152906001019060200180831161099c57829003601f168201915b50505060038401546004850154600586015460068701546007909701549596929591945092506001600160a01b031688565b60008060009054906101000a90046001600160a01b03166001600160a01b0316638da5cb5b6040518163ffffffff1660e01b815260040160206040518083038186803b1580156108d057600080fd5b610a946040518061010001604052806000815260200160006001600160a01b03168152602001606081526020016000815260200160008152602001600081526020016000815260200160006001600160a01b031681525090565b6040517f2ef883d500000000000000000000000000000000000000000000000000000000815273__$f662caf489fd8d22a3db0ce873690c8b4a$__90632ef883d590610ae69087904390600401610f1e565b60206040518083038186803b158015610afe57600080fd5b505af4158015610b12573d6000803e3d6000fd5b505050506040513d601f19601f82011682018060405250810190610b369190610e4f565b815260408101849052606081018390524260a08201819052610b59908390610ffb565b60c082015280516000908152600160208181526040928390208451815581850151928101805473ffffffffffffffffffffffffffffffffffffffff19166001600160a01b03909416939093179092559183015180518493610bc1926002850192910190610c92565b50606082015160038201556080820151600482015560a0820151600582015560c0820151600682015560e0909101516007909101805473ffffffffffffffffffffffffffffffffffffffff19166001600160a01b0390921691909117905550505050565b60026020528160005260406000208181548110610c4157600080fd5b6000918252602090912060059091020180546001820154600283015460038401546004850180549497509295506001600160a01b0390911693909290919061053790611054565b6000610908610842565b828054610c9e90611054565b90600052602060002090601f016020900481019282610cc05760008555610d06565b82601f10610cd957805160ff1916838001178555610d06565b82800160010185558215610d06579182015b82811115610d06578251825591602001919060010190610ceb565b50610d12929150610d16565b5090565b5b80821115610d125760008155600101610d17565b600082601f830112610d3c57600080fd5b813567ffffffffffffffff80821115610d5757610d576110a5565b604051601f8301601f19908116603f01168101908282118183101715610d7f57610d7f6110a5565b81604052838152866020858801011115610d9857600080fd5b836020870160208301376000602085830101528094505050505092915050565b600060208284031215610dca57600080fd5b81516001600160a01b0381168114610de157600080fd5b9392505050565b600080600060608486031215610dfd57600080fd5b833567ffffffffffffffff811115610e1457600080fd5b610e2086828701610d2b565b9660208601359650604090950135949350505050565b600060208284031215610e4857600080fd5b5035919050565b600060208284031215610e6157600080fd5b5051919050565b60008060408385031215610e7b57600080fd5b82359150602083013567ffffffffffffffff811115610e9957600080fd5b610ea585828601610d2b565b9150509250929050565b60008060408385031215610ec257600080fd5b50508035926020909101359150565b6000815180845260005b81811015610ef757602081850181015186830182015201610edb565b81811115610f09576000602083870101525b50601f01601f19169290920160200192915050565b604081526000610f316040830185610ed1565b90508260208301529392505050565b60006101008a83526001600160a01b03808b166020850152816040850152610f6a8285018b610ed1565b92508860608501528760808501528660a08501528560c085015280851660e085015250509998505050505050505050565b828152604060208201526000610fb46040830184610ed1565b949350505050565b8581528460208201526001600160a01b038416604082015282606082015260a060808201526000610ff060a0830184610ed1565b979650505050505050565b6000821982111561100e5761100e61108f565b500190565b60008261103057634e487b7160e01b600052601260045260246000fd5b500490565b600081600019048311821515161561104f5761104f61108f565b500290565b600181811c9082168061106857607f821691505b6020821081141561108957634e487b7160e01b600052602260045260246000fd5b50919050565b634e487b7160e01b600052601160045260246000fd5b634e487b7160e01b600052604160045260246000fdfea26469706673582212205fec1eed76480dc92cdfbb894d188294cb9e17e8ceb10e0bd2a6f5e20ad0957364736f6c63430008060033",
  "linkReferences": {
    "contracts/libraries/IDGenerator.sol": {
      "IDGenerator": [
        {
          "length": 20,
          "start": 1808
        },
        {
          "length": 20,
          "start": 2895
        }
      ]
    }
  },
  "deployedLinkReferences": {
    "contracts/libraries/IDGenerator.sol": {
      "IDGenerator": [
        {
          "length": 20,
          "start": 1661
        },
        {
          "length": 20,
          "start": 2748
        }
      ]
    }
  }
}