{
  "_format": "hh-sol-artifact-1",
  "contractName": "AdManager",
  "sourceName": "contracts/base/AdManager.sol",
  "abi": [
    {
      "inputs": [
        {
          "internalType": "address",
          "name": "nameRegistry",
          "type": "address"
        }
      ],
      "stateMutability": "nonpayable",
      "type": "constructor"
    },
    {
      "anonymous": false,
      "inputs": [
        {
          "indexed": false,
          "internalType": "uint256",
          "name": "postId",
          "type": "uint256"
        },
        {
          "indexed": false,
          "internalType": "address",
          "name": "owner",
          "type": "address"
        },
        {
          "indexed": false,
          "internalType": "string",
          "name": "metadata",
          "type": "string"
        },
        {
          "indexed": false,
          "internalType": "uint256",
          "name": "currentPrice",
          "type": "uint256"
        },
        {
          "indexed": false,
          "internalType": "uint256",
          "name": "periodHours",
          "type": "uint256"
        },
        {
          "indexed": false,
          "internalType": "uint256",
          "name": "startTime",
          "type": "uint256"
        },
        {
          "indexed": false,
          "internalType": "uint256",
          "name": "endTime",
          "type": "uint256"
        }
      ],
      "name": "NewPost",
      "type": "event"
    },
    {
      "inputs": [
        {
          "internalType": "uint256",
          "name": "",
          "type": "uint256"
        },
        {
          "internalType": "uint256",
          "name": "",
          "type": "uint256"
        }
      ],
      "name": "allBidders",
      "outputs": [
        {
          "internalType": "uint256",
          "name": "bidId",
          "type": "uint256"
        },
        {
          "internalType": "uint256",
          "name": "postId",
          "type": "uint256"
        },
        {
          "internalType": "address",
          "name": "sender",
          "type": "address"
        },
        {
          "internalType": "uint256",
          "name": "price",
          "type": "uint256"
        },
        {
          "internalType": "string",
          "name": "metadata",
          "type": "string"
        }
      ],
      "stateMutability": "view",
      "type": "function"
    },
    {
      "inputs": [
        {
          "internalType": "uint256",
          "name": "",
          "type": "uint256"
        }
      ],
      "name": "allPosts",
      "outputs": [
        {
          "internalType": "uint256",
          "name": "postId",
          "type": "uint256"
        },
        {
          "internalType": "address",
          "name": "owner",
          "type": "address"
        },
        {
          "internalType": "string",
          "name": "metadata",
          "type": "string"
        },
        {
          "internalType": "uint256",
          "name": "currentPrice",
          "type": "uint256"
        },
        {
          "internalType": "uint256",
          "name": "periodHours",
          "type": "uint256"
        },
        {
          "internalType": "uint256",
          "name": "startTime",
          "type": "uint256"
        },
        {
          "internalType": "uint256",
          "name": "endTime",
          "type": "uint256"
        },
        {
          "internalType": "address",
          "name": "successfulBidder",
          "type": "address"
        }
      ],
      "stateMutability": "view",
      "type": "function"
    },
    {
      "inputs": [
        {
          "internalType": "uint256",
          "name": "postId",
          "type": "uint256"
        },
        {
          "internalType": "string",
          "name": "metadata",
          "type": "string"
        }
      ],
      "name": "bid",
      "outputs": [],
      "stateMutability": "payable",
      "type": "function"
    },
    {
      "inputs": [
        {
          "internalType": "uint256",
          "name": "",
          "type": "uint256"
        }
      ],
      "name": "bidderInfo",
      "outputs": [
        {
          "internalType": "uint256",
          "name": "bidId",
          "type": "uint256"
        },
        {
          "internalType": "uint256",
          "name": "postId",
          "type": "uint256"
        },
        {
          "internalType": "address",
          "name": "sender",
          "type": "address"
        },
        {
          "internalType": "uint256",
          "name": "price",
          "type": "uint256"
        },
        {
          "internalType": "string",
          "name": "metadata",
          "type": "string"
        }
      ],
      "stateMutability": "view",
      "type": "function"
    },
    {
      "inputs": [
        {
          "internalType": "uint256",
          "name": "bidId",
          "type": "uint256"
        }
      ],
      "name": "close",
      "outputs": [],
      "stateMutability": "nonpayable",
      "type": "function"
    },
    {
      "inputs": [
        {
          "internalType": "string",
          "name": "metadata",
          "type": "string"
        },
        {
          "internalType": "uint256",
          "name": "blockNumber",
          "type": "uint256"
        }
      ],
      "name": "computePostId",
      "outputs": [
        {
          "internalType": "uint256",
          "name": "",
          "type": "uint256"
        }
      ],
      "stateMutability": "pure",
      "type": "function"
    },
    {
      "inputs": [],
      "name": "distributionRight",
      "outputs": [
        {
          "internalType": "address",
          "name": "",
          "type": "address"
        }
      ],
      "stateMutability": "view",
      "type": "function"
    },
    {
      "inputs": [],
      "name": "nameRegistryAddress",
      "outputs": [
        {
          "internalType": "address",
          "name": "",
          "type": "address"
        }
      ],
      "stateMutability": "view",
      "type": "function"
    },
    {
      "inputs": [
        {
          "internalType": "string",
          "name": "metadata",
          "type": "string"
        },
        {
          "internalType": "uint256",
          "name": "initialPrice",
          "type": "uint256"
        },
        {
          "internalType": "uint256",
          "name": "periodHours",
          "type": "uint256"
        }
      ],
      "name": "newPost",
      "outputs": [],
      "stateMutability": "nonpayable",
      "type": "function"
    },
    {
      "inputs": [],
      "name": "owner",
      "outputs": [
        {
          "internalType": "address",
          "name": "",
          "type": "address"
        }
      ],
      "stateMutability": "view",
      "type": "function"
    },
    {
      "inputs": [
        {
          "internalType": "uint256",
          "name": "bidId",
          "type": "uint256"
        }
      ],
      "name": "refund",
      "outputs": [],
      "stateMutability": "nonpayable",
      "type": "function"
    }
  ],
  "bytecode": "0x608060405234801561001057600080fd5b5060405161132e38038061132e83398101604081905261002f91610054565b600080546001600160a01b0319166001600160a01b0392909216919091179055610084565b60006020828403121561006657600080fd5b81516001600160a01b038116811461007d57600080fd5b9392505050565b61129b806100936000396000f3fe6080604052600436106100bc5760003560e01c80632ef883d5116100745780638da5cb5b1161004e5780638da5cb5b146101f95780638f50b1431461020e578063e7ac32c91461022e57600080fd5b80632ef883d51461018257806339c1b91f146101b0578063718ce2bc146101c557600080fd5b80630fc55fd1116100a55780630fc55fd11461011d578063278ecde11461013057806327b7a2f51461015057600080fd5b80630aebeb4e146100c15780630d5daf3b146100e3575b600080fd5b3480156100cd57600080fd5b506100e16100dc366004610f92565b61024e565b005b3480156100ef57600080fd5b506101036100fe366004610f92565b61052d565b604051610114959493929190611166565b60405180910390f35b6100e161012b366004610fc4565b6105f3565b34801561013c57600080fd5b506100e161014b366004610f92565b6107cf565b34801561015c57600080fd5b506000546001600160a01b03165b6040516001600160a01b039091168152602001610114565b34801561018e57600080fd5b506101a261019d366004610eff565b61087b565b604051908152602001610114565b3480156101bc57600080fd5b5061016a61090e565b3480156101d157600080fd5b506101e56101e0366004610f92565b6109d9565b6040516101149897969594939291906110ea565b34801561020557600080fd5b5061016a610ab7565b34801561021a57600080fd5b506100e1610229366004610f44565b610b06565b34801561023a57600080fd5b5061010361024936600461100b565b610d43565b6000818152600360208181526040808420815160a0810183528154815260018201549381019390935260028101546001600160a01b0316918301919091529182015460608201526004820180549192916080840191906102ad906111fe565b80601f01602080910402602001604051908101604052809291908181526020018280546102d9906111fe565b80156103265780601f106102fb57610100808354040283529160200191610326565b820191906000526020600020905b81548152906001019060200180831161030957829003601f168201915b5050509190925250508151919250506103865760405162461bcd60e51b815260206004820152600560248201527f414431303300000000000000000000000000000000000000000000000000000060448201526064015b60405180910390fd5b60208082015160009081526001918290526040902001546001600160a01b031633146103f45760405162461bcd60e51b815260206004820152600560248201527f4144313032000000000000000000000000000000000000000000000000000000604482015260640161037d565b336001600160a01b03166108fc600a8360600151600961041491906111df565b61041e91906111bd565b6040518115909202916000818181858888f19350505050158015610446573d6000803e3d6000fd5b5061044f610ab7565b6001600160a01b03166108fc600a8360600151600161046e91906111df565b61047891906111bd565b6040518115909202916000818181858888f193505050501580156104a0573d6000803e3d6000fd5b506104a9610da6565b60408083015190517f40c10f190000000000000000000000000000000000000000000000000000000081526001600160a01b039182166004820152602481018590529116906340c10f1990604401600060405180830381600087803b15801561051157600080fd5b505af1158015610525573d6000803e3d6000fd5b505050505050565b600360208190526000918252604090912080546001820154600283015493830154600484018054939592946001600160a01b0390931693919291610570906111fe565b80601f016020809104026020016040519081016040528092919081815260200182805461059c906111fe565b80156105e95780601f106105be576101008083540402835291602001916105e9565b820191906000526020600020905b8154815290600101906020018083116105cc57829003601f168201915b5050505050905085565b60008281526001602052604090206006015442106106535760405162461bcd60e51b815260206004820152600560248201527f4144313031000000000000000000000000000000000000000000000000000000604482015260640161037d565b61068e6040518060a00160405280600081526020016000815260200160006001600160a01b0316815260200160008152602001606081525090565b6040517fd2db17f900000000000000000000000000000000000000000000000000000000815273__$f662caf489fd8d22a3db0ce873690c8b4a$__9063d2db17f9906106e09086908690600401611145565b60206040518083038186803b1580156106f857600080fd5b505af415801561070c573d6000803e3d6000fd5b505050506040513d601f19601f820116820180604052508101906107309190610fab565b81526020808201848152336040808501918252346060860190815260808601878152600089815260028088529381208054600180820183559183529188902089516005909302019182559551958101959095559251918401805473ffffffffffffffffffffffffffffffffffffffff19166001600160a01b03909316929092179091555160038301555180518493610525926004850192910190610db0565b6000818152600360205260409020600201546001600160a01b031633146108385760405162461bcd60e51b815260206004820152600560248201527f4144313034000000000000000000000000000000000000000000000000000000604482015260640161037d565b6000818152600360208190526040808320909101549051339282156108fc02929190818181858888f19350505050158015610877573d6000803e3d6000fd5b5050565b604051632ef883d560e01b815260009073__$f662caf489fd8d22a3db0ce873690c8b4a$__90632ef883d5906108b7908690869060040161107a565b60206040518083038186803b1580156108cf57600080fd5b505af41580156108e3573d6000803e3d6000fd5b505050506040513d601f19601f820116820180604052508101906109079190610fab565b9392505050565b600080546040517f446973747269627574696f6e526967687400000000000000000000000000000060208201526001600160a01b0390911690638eaa6ac090603101604051602081830303815290604052805190602001206040518263ffffffff1660e01b815260040161098491815260200190565b60206040518083038186803b15801561099c57600080fd5b505afa1580156109b0573d6000803e3d6000fd5b505050506040513d601f19601f820116820180604052508101906109d49190610ed6565b905090565b60016020819052600091825260409091208054918101546002820180546001600160a01b039092169291610a0c906111fe565b80601f0160208091040260200160405190810160405280929190818152602001828054610a38906111fe565b8015610a855780601f10610a5a57610100808354040283529160200191610a85565b820191906000526020600020905b815481529060010190602001808311610a6857829003601f168201915b50505060038401546004850154600586015460068701546007909701549596929591945092506001600160a01b031688565b60008060009054906101000a90046001600160a01b03166001600160a01b0316638da5cb5b6040518163ffffffff1660e01b815260040160206040518083038186803b15801561099c57600080fd5b610b606040518061010001604052806000815260200160006001600160a01b03168152602001606081526020016000815260200160008152602001600081526020016000815260200160006001600160a01b031681525090565b604051632ef883d560e01b815273__$f662caf489fd8d22a3db0ce873690c8b4a$__90632ef883d590610b99908790439060040161107a565b60206040518083038186803b158015610bb157600080fd5b505af4158015610bc5573d6000803e3d6000fd5b505050506040513d601f19601f82011682018060405250810190610be99190610fab565b81523360208201526040810184905260608101839052608081018290524260a08201819052610c199083906111a5565b60c082015280516000908152600160208181526040928390208451815581850151928101805473ffffffffffffffffffffffffffffffffffffffff19166001600160a01b03909416939093179092559183015180518493610c81926002850192910190610db0565b50606082015181600301556080820151816004015560a0820151816005015560c0820151816006015560e08201518160070160006101000a8154816001600160a01b0302191690836001600160a01b031602179055509050507fc5b1508e582b10d2db0917542b3881b71cc569a7e1ad667ccbe4c5de45d8daa981600001518260200151836040015184606001518686608001818152508660a001518760c00151604051610d35979695949392919061109c565b60405180910390a150505050565b60026020528160005260406000208181548110610d5f57600080fd5b6000918252602090912060059091020180546001820154600283015460038401546004850180549497509295506001600160a01b03909116939092909190610570906111fe565b60006109d461090e565b828054610dbc906111fe565b90600052602060002090601f016020900481019282610dde5760008555610e24565b82601f10610df757805160ff1916838001178555610e24565b82800160010185558215610e24579182015b82811115610e24578251825591602001919060010190610e09565b50610e30929150610e34565b5090565b5b80821115610e305760008155600101610e35565b600082601f830112610e5a57600080fd5b813567ffffffffffffffff80821115610e7557610e7561124f565b604051601f8301601f19908116603f01168101908282118183101715610e9d57610e9d61124f565b81604052838152866020858801011115610eb657600080fd5b836020870160208301376000602085830101528094505050505092915050565b600060208284031215610ee857600080fd5b81516001600160a01b038116811461090757600080fd5b60008060408385031215610f1257600080fd5b823567ffffffffffffffff811115610f2957600080fd5b610f3585828601610e49565b95602094909401359450505050565b600080600060608486031215610f5957600080fd5b833567ffffffffffffffff811115610f7057600080fd5b610f7c86828701610e49565b9660208601359650604090950135949350505050565b600060208284031215610fa457600080fd5b5035919050565b600060208284031215610fbd57600080fd5b5051919050565b60008060408385031215610fd757600080fd5b82359150602083013567ffffffffffffffff811115610ff557600080fd5b61100185828601610e49565b9150509250929050565b6000806040838503121561101e57600080fd5b50508035926020909101359150565b6000815180845260005b8181101561105357602081850181015186830182015201611037565b81811115611065576000602083870101525b50601f01601f19169290920160200192915050565b60408152600061108d604083018561102d565b90508260208301529392505050565b8781526001600160a01b038716602082015260e0604082015260006110c460e083018861102d565b90508560608301528460808301528360a08301528260c083015298975050505050505050565b60006101008a83526001600160a01b03808b1660208501528160408501526111148285018b61102d565b92508860608501528760808501528660a08501528560c085015280851660e085015250509998505050505050505050565b82815260406020820152600061115e604083018461102d565b949350505050565b8581528460208201526001600160a01b038416604082015282606082015260a06080820152600061119a60a083018461102d565b979650505050505050565b600082198211156111b8576111b8611239565b500190565b6000826111da57634e487b7160e01b600052601260045260246000fd5b500490565b60008160001904831182151516156111f9576111f9611239565b500290565b600181811c9082168061121257607f821691505b6020821081141561123357634e487b7160e01b600052602260045260246000fd5b50919050565b634e487b7160e01b600052601160045260246000fd5b634e487b7160e01b600052604160045260246000fdfea2646970667358221220e8a3b18c5abca4b519192f8d013926ba3a450dde1f7e7fce63af18d188c1d4ae64736f6c63430008060033",
  "linkReferences": {
    "contracts/libraries/IDGenerator.sol": {
      "IDGenerator": [
        {
          "length": 20,
          "start": 1865
        },
        {
          "length": 20,
          "start": 2336
        },
        {
          "length": 20,
          "start": 3074
        }
      ]
    }
  },
  "deployedLinkReferences": {
    "contracts/libraries/IDGenerator.sol": {
      "IDGenerator": [
        {
          "length": 20,
          "start": 1718
        },
        {
          "length": 20,
          "start": 2189
        },
        {
          "length": 20,
          "start": 2927
        }
      ]
    }
  }
}