{
  "_format": "hh-sol-artifact-1",
  "contractName": "NameAccessor",
  "sourceName": "contracts/access/NameAccessor.sol",
  "abi": [
    {
      "inputs": [
        {
          "internalType": "address",
          "name": "nameRegistry",
          "type": "address"
        }
      ],
      "stateMutability": "nonpayable",
      "type": "constructor"
    },
    {
      "inputs": [],
      "name": "distributionRight",
      "outputs": [
        {
          "internalType": "address",
          "name": "",
          "type": "address"
        }
      ],
      "stateMutability": "view",
      "type": "function"
    },
    {
      "inputs": [],
      "name": "nameRegistryAddress",
      "outputs": [
        {
          "internalType": "address",
          "name": "",
          "type": "address"
        }
      ],
      "stateMutability": "view",
      "type": "function"
    },
    {
      "inputs": [],
      "name": "owner",
      "outputs": [
        {
          "internalType": "address",
          "name": "",
          "type": "address"
        }
      ],
      "stateMutability": "view",
      "type": "function"
    }
  ],
  "bytecode": "0x608060405234801561001057600080fd5b5060405161029238038061029283398101604081905261002f91610054565b600080546001600160a01b0319166001600160a01b0392909216919091179055610084565b60006020828403121561006657600080fd5b81516001600160a01b038116811461007d57600080fd5b9392505050565b6101ff806100936000396000f3fe608060405234801561001057600080fd5b50600436106100415760003560e01c806327b7a2f51461004657806339c1b91f1461006f5780638da5cb5b14610077575b600080fd5b6000546001600160a01b03165b6040516001600160a01b03909116815260200160405180910390f35b61005361007f565b61005361014a565b600080546040517f446973747269627574696f6e526967687400000000000000000000000000000060208201526001600160a01b0390911690638eaa6ac090603101604051602081830303815290604052805190602001206040518263ffffffff1660e01b81526004016100f591815260200190565b60206040518083038186803b15801561010d57600080fd5b505afa158015610121573d6000803e3d6000fd5b505050506040513d601f19601f820116820180604052508101906101459190610199565b905090565b60008060009054906101000a90046001600160a01b03166001600160a01b0316638da5cb5b6040518163ffffffff1660e01b815260040160206040518083038186803b15801561010d57600080fd5b6000602082840312156101ab57600080fd5b81516001600160a01b03811681146101c257600080fd5b939250505056fea26469706673582212200e5e8082dd40d216c6c9b72d96e5021fb9207e2aeb90ace1e35aa4a6db6efc4564736f6c63430008060033",
  "linkReferences": {},
  "deployedLinkReferences": {}
}