{
  "_format": "hh-sol-artifact-1",
  "contractName": "IDGenerator",
  "sourceName": "contracts/libraries/IDGenerator.sol",
  "abi": [
    {
      "inputs": [
        {
          "internalType": "string",
          "name": "metadata",
          "type": "string"
        },
        {
          "internalType": "uint256",
          "name": "blockNumber",
          "type": "uint256"
        }
      ],
      "name": "postId",
      "outputs": [
        {
          "internalType": "uint256",
          "name": "",
          "type": "uint256"
        }
      ],
      "stateMutability": "pure",
      "type": "function"
    }
  ],
  "bytecode": "0x61021061003a600b82828239805160001a60731461002d57634e487b7160e01b600052600060045260246000fd5b30600052607381538281f3fe73000000000000000000000000000000000000000030146080604052600436106100355760003560e01c80634a5f31721461003a575b600080fd5b61004d6100483660046100a6565b61005f565b60405190815260200160405180910390f35b6000662386f26fc10000828460405160200161007c92919061015b565b6040516020818303038152906040528051906020012060001c61009f91906101a2565b9392505050565b600080604083850312156100b957600080fd5b823567ffffffffffffffff808211156100d157600080fd5b818501915085601f8301126100e557600080fd5b8135818111156100f7576100f76101c4565b604051601f8201601f19908116603f0116810190838211818310171561011f5761011f6101c4565b8160405282815288602084870101111561013857600080fd5b826020860160208301376000602093820184015298969091013596505050505050565b8281526000825160005b8181101561018157602081860181015185830182015201610165565b81811115610193576000602083860101525b50919091016020019392505050565b6000826101bf57634e487b7160e01b600052601260045260246000fd5b500690565b634e487b7160e01b600052604160045260246000fdfea2646970667358221220f0ef888ebe36589fe23bd55d286bf452f8ef0552a143357b4ac80b814e148a5964736f6c63430008060033",
  "linkReferences": {},
  "deployedLinkReferences": {}
}