{
  "_format": "hh-sol-artifact-1",
  "contractName": "DistributionRight",
  "sourceName": "contracts/token/DistributionRight.sol",
  "abi": [
    {
      "inputs": [
        {
          "internalType": "string",
          "name": "name_",
          "type": "string"
        },
        {
          "internalType": "string",
          "name": "symbol_",
          "type": "string"
        },
        {
          "internalType": "string",
          "name": "baseURI_",
          "type": "string"
        },
        {
          "internalType": "address",
          "name": "nameRegistry",
          "type": "address"
        }
      ],
      "stateMutability": "nonpayable",
      "type": "constructor"
    },
    {
      "anonymous": false,
      "inputs": [
        {
          "indexed": true,
          "internalType": "address",
          "name": "owner",
          "type": "address"
        },
        {
          "indexed": true,
          "internalType": "address",
          "name": "approved",
          "type": "address"
        },
        {
          "indexed": true,
          "internalType": "uint256",
          "name": "tokenId",
          "type": "uint256"
        }
      ],
      "name": "Approval",
      "type": "event"
    },
    {
      "anonymous": false,
      "inputs": [
        {
          "indexed": true,
          "internalType": "address",
          "name": "owner",
          "type": "address"
        },
        {
          "indexed": true,
          "internalType": "address",
          "name": "operator",
          "type": "address"
        },
        {
          "indexed": false,
          "internalType": "bool",
          "name": "approved",
          "type": "bool"
        }
      ],
      "name": "ApprovalForAll",
      "type": "event"
    },
    {
      "anonymous": false,
      "inputs": [
        {
          "indexed": true,
          "internalType": "address",
          "name": "from",
          "type": "address"
        },
        {
          "indexed": true,
          "internalType": "address",
          "name": "to",
          "type": "address"
        },
        {
          "indexed": true,
          "internalType": "uint256",
          "name": "tokenId",
          "type": "uint256"
        }
      ],
      "name": "Transfer",
      "type": "event"
    },
    {
      "inputs": [
        {
          "internalType": "address",
          "name": "to",
          "type": "address"
        },
        {
          "internalType": "uint256",
          "name": "tokenId",
          "type": "uint256"
        }
      ],
      "name": "approve",
      "outputs": [],
      "stateMutability": "nonpayable",
      "type": "function"
    },
    {
      "inputs": [
        {
          "internalType": "address",
          "name": "owner",
          "type": "address"
        }
      ],
      "name": "balanceOf",
      "outputs": [
        {
          "internalType": "uint256",
          "name": "",
          "type": "uint256"
        }
      ],
      "stateMutability": "view",
      "type": "function"
    },
    {
      "inputs": [
        {
          "internalType": "uint256",
          "name": "tokenId",
          "type": "uint256"
        }
      ],
      "name": "burn",
      "outputs": [],
      "stateMutability": "nonpayable",
      "type": "function"
    },
    {
      "inputs": [],
      "name": "distributionRight",
      "outputs": [
        {
          "internalType": "address",
          "name": "",
          "type": "address"
        }
      ],
      "stateMutability": "view",
      "type": "function"
    },
    {
      "inputs": [
        {
          "internalType": "uint256",
          "name": "tokenId",
          "type": "uint256"
        }
      ],
      "name": "getApproved",
      "outputs": [
        {
          "internalType": "address",
          "name": "",
          "type": "address"
        }
      ],
      "stateMutability": "view",
      "type": "function"
    },
    {
      "inputs": [
        {
          "internalType": "address",
          "name": "owner",
          "type": "address"
        },
        {
          "internalType": "address",
          "name": "operator",
          "type": "address"
        }
      ],
      "name": "isApprovedForAll",
      "outputs": [
        {
          "internalType": "bool",
          "name": "",
          "type": "bool"
        }
      ],
      "stateMutability": "view",
      "type": "function"
    },
    {
      "inputs": [
        {
          "internalType": "address",
          "name": "account",
          "type": "address"
        },
        {
          "internalType": "uint256",
          "name": "tokenId",
          "type": "uint256"
        }
      ],
      "name": "mint",
      "outputs": [],
      "stateMutability": "nonpayable",
      "type": "function"
    },
    {
      "inputs": [],
      "name": "name",
      "outputs": [
        {
          "internalType": "string",
          "name": "",
          "type": "string"
        }
      ],
      "stateMutability": "view",
      "type": "function"
    },
    {
      "inputs": [],
      "name": "nameRegistryAddress",
      "outputs": [
        {
          "internalType": "address",
          "name": "",
          "type": "address"
        }
      ],
      "stateMutability": "view",
      "type": "function"
    },
    {
      "inputs": [],
      "name": "owner",
      "outputs": [
        {
          "internalType": "address",
          "name": "",
          "type": "address"
        }
      ],
      "stateMutability": "view",
      "type": "function"
    },
    {
      "inputs": [
        {
          "internalType": "uint256",
          "name": "tokenId",
          "type": "uint256"
        }
      ],
      "name": "ownerOf",
      "outputs": [
        {
          "internalType": "address",
          "name": "",
          "type": "address"
        }
      ],
      "stateMutability": "view",
      "type": "function"
    },
    {
      "inputs": [
        {
          "internalType": "address",
          "name": "from",
          "type": "address"
        },
        {
          "internalType": "address",
          "name": "to",
          "type": "address"
        },
        {
          "internalType": "uint256",
          "name": "tokenId",
          "type": "uint256"
        }
      ],
      "name": "safeTransferFrom",
      "outputs": [],
      "stateMutability": "nonpayable",
      "type": "function"
    },
    {
      "inputs": [
        {
          "internalType": "address",
          "name": "from",
          "type": "address"
        },
        {
          "internalType": "address",
          "name": "to",
          "type": "address"
        },
        {
          "internalType": "uint256",
          "name": "tokenId",
          "type": "uint256"
        },
        {
          "internalType": "bytes",
          "name": "_data",
          "type": "bytes"
        }
      ],
      "name": "safeTransferFrom",
      "outputs": [],
      "stateMutability": "nonpayable",
      "type": "function"
    },
    {
      "inputs": [
        {
          "internalType": "address",
          "name": "operator",
          "type": "address"
        },
        {
          "internalType": "bool",
          "name": "approved",
          "type": "bool"
        }
      ],
      "name": "setApprovalForAll",
      "outputs": [],
      "stateMutability": "nonpayable",
      "type": "function"
    },
    {
      "inputs": [
        {
          "internalType": "bytes4",
          "name": "interfaceId",
          "type": "bytes4"
        }
      ],
      "name": "supportsInterface",
      "outputs": [
        {
          "internalType": "bool",
          "name": "",
          "type": "bool"
        }
      ],
      "stateMutability": "view",
      "type": "function"
    },
    {
      "inputs": [],
      "name": "symbol",
      "outputs": [
        {
          "internalType": "string",
          "name": "",
          "type": "string"
        }
      ],
      "stateMutability": "view",
      "type": "function"
    },
    {
      "inputs": [
        {
          "internalType": "uint256",
          "name": "tokenId",
          "type": "uint256"
        }
      ],
      "name": "tokenURI",
      "outputs": [
        {
          "internalType": "string",
          "name": "",
          "type": "string"
        }
      ],
      "stateMutability": "view",
      "type": "function"
    },
    {
      "inputs": [
        {
          "internalType": "address",
          "name": "from",
          "type": "address"
        },
        {
          "internalType": "address",
          "name": "to",
          "type": "address"
        },
        {
          "internalType": "uint256",
          "name": "tokenId",
          "type": "uint256"
        }
      ],
      "name": "transferFrom",
      "outputs": [],
      "stateMutability": "nonpayable",
      "type": "function"
    }
  ],
  "bytecode": "0x60806040523480156200001157600080fd5b5060405162001d4738038062001d47833981016040819052620000349162000209565b80848484826000908051906020019062000050929190620000ac565b50815162000066906001906020850190620000ac565b5080516200007c906002906020840190620000ac565b5050600780546001600160a01b0319166001600160a01b039490941693909317909255506200030f945050505050565b828054620000ba90620002bc565b90600052602060002090601f016020900481019282620000de576000855562000129565b82601f10620000f957805160ff191683800117855562000129565b8280016001018555821562000129579182015b82811115620001295782518255916020019190600101906200010c565b50620001379291506200013b565b5090565b5b808211156200013757600081556001016200013c565b600082601f8301126200016457600080fd5b81516001600160401b0380821115620001815762000181620002f9565b604051601f8301601f19908116603f01168101908282118183101715620001ac57620001ac620002f9565b81604052838152602092508683858801011115620001c957600080fd5b600091505b83821015620001ed5785820183015181830184015290820190620001ce565b83821115620001ff5760008385830101525b9695505050505050565b600080600080608085870312156200022057600080fd5b84516001600160401b03808211156200023857600080fd5b620002468883890162000152565b955060208701519150808211156200025d57600080fd5b6200026b8883890162000152565b945060408701519150808211156200028257600080fd5b50620002918782880162000152565b606087015190935090506001600160a01b0381168114620002b157600080fd5b939692955090935050565b600181811c90821680620002d157607f821691505b60208210811415620002f357634e487b7160e01b600052602260045260246000fd5b50919050565b634e487b7160e01b600052604160045260246000fd5b611a28806200031f6000396000f3fe608060405234801561001057600080fd5b50600436106101365760003560e01c806342966c68116100b257806395d89b4111610081578063b88d4fde11610066578063b88d4fde14610274578063c87b56dd14610287578063e985e9c51461029a57600080fd5b806395d89b4114610259578063a22cb4651461026157600080fd5b806342966c681461020a5780636352211e1461021d57806370a08231146102305780638da5cb5b1461025157600080fd5b806323b872dd1161010957806339c1b91f116100ee57806339c1b91f146101dc57806340c10f19146101e457806342842e0e146101f757600080fd5b806323b872dd146101b857806327b7a2f5146101cb57600080fd5b806301ffc9a71461013b57806306fdde0314610163578063081812fc14610178578063095ea7b3146101a3575b600080fd5b61014e6101493660046116f7565b6102d6565b60405190151581526020015b60405180910390f35b61016b610373565b60405161015a9190611875565b61018b610186366004611731565b610405565b6040516001600160a01b03909116815260200161015a565b6101b66101b13660046116ae565b61049f565b005b6101b66101c636600461155f565b6105d1565b6007546001600160a01b031661018b565b61018b610658565b6101b66101f23660046116ae565b610723565b6101b661020536600461155f565b6107e0565b6101b6610218366004611731565b6107fb565b61018b61022b366004611731565b6108b6565b61024361023e3660046114e5565b610941565b60405190815260200161015a565b61018b6109db565b61016b610a39565b6101b661026f366004611680565b610a48565b6101b66102823660046115a0565b610b0d565b61016b610295366004611731565b610b9b565b61014e6102a8366004611526565b6001600160a01b03918216600090815260066020908152604080832093909416825291909152205460ff1690565b60006001600160e01b031982167f80ac58cd00000000000000000000000000000000000000000000000000000000148061033957506001600160e01b031982167f5b5e139f00000000000000000000000000000000000000000000000000000000145b8061036d57507f01ffc9a7000000000000000000000000000000000000000000000000000000006001600160e01b03198316145b92915050565b606060008054610382906118f7565b80601f01602080910402602001604051908101604052809291908181526020018280546103ae906118f7565b80156103fb5780601f106103d0576101008083540402835291602001916103fb565b820191906000526020600020905b8154815290600101906020018083116103de57829003601f168201915b5050505050905090565b6000818152600360205260408120546001600160a01b03166104835760405162461bcd60e51b815260206004820152602c60248201527f4552433732313a20617070726f76656420717565727920666f72206e6f6e657860448201526b34b9ba32b73a103a37b5b2b760a11b60648201526084015b60405180910390fd5b506000908152600560205260409020546001600160a01b031690565b60006104aa826108b6565b9050806001600160a01b0316836001600160a01b031614156105345760405162461bcd60e51b815260206004820152602160248201527f4552433732313a20617070726f76616c20746f2063757272656e74206f776e6560448201527f7200000000000000000000000000000000000000000000000000000000000000606482015260840161047a565b336001600160a01b0382161480610550575061055081336102a8565b6105c25760405162461bcd60e51b815260206004820152603860248201527f4552433732313a20617070726f76652063616c6c6572206973206e6f74206f7760448201527f6e6572206e6f7220617070726f76656420666f7220616c6c0000000000000000606482015260840161047a565b6105cc8383610c84565b505050565b6105db3382610cff565b61064d5760405162461bcd60e51b815260206004820152603160248201527f4552433732313a207472616e736665722063616c6c6572206973206e6f74206f60448201527f776e6572206e6f7220617070726f766564000000000000000000000000000000606482015260840161047a565b6105cc838383610df6565b6007546040517f446973747269627574696f6e526967687400000000000000000000000000000060208201526000916001600160a01b031690638eaa6ac090603101604051602081830303815290604052805190602001206040518263ffffffff1660e01b81526004016106ce91815260200190565b60206040518083038186803b1580156106e657600080fd5b505afa1580156106fa573d6000803e3d6000fd5b505050506040513d601f19601f8201168201806040525081019061071e9190611509565b905090565b6007546040516351e0e26b60e01b81523360048201526001600160a01b03909116906351e0e26b9060240160206040518083038186803b15801561076657600080fd5b505afa15801561077a573d6000803e3d6000fd5b505050506040513d601f19601f8201168201806040525081019061079e91906116da565b6107d25760405162461bcd60e51b8152602060048201526005602482015264415232303160d81b604482015260640161047a565b6107dc8282610fd0565b5050565b6105cc83838360405180602001604052806000815250610b0d565b6007546040516351e0e26b60e01b81523360048201526001600160a01b03909116906351e0e26b9060240160206040518083038186803b15801561083e57600080fd5b505afa158015610852573d6000803e3d6000fd5b505050506040513d601f19601f8201168201806040525081019061087691906116da565b6108aa5760405162461bcd60e51b8152602060048201526005602482015264415232303160d81b604482015260640161047a565b6108b38161111f565b50565b6000818152600360205260408120546001600160a01b03168061036d5760405162461bcd60e51b815260206004820152602960248201527f4552433732313a206f776e657220717565727920666f72206e6f6e657869737460448201527f656e7420746f6b656e0000000000000000000000000000000000000000000000606482015260840161047a565b60006001600160a01b0382166109bf5760405162461bcd60e51b815260206004820152602a60248201527f4552433732313a2062616c616e636520717565727920666f7220746865207a6560448201527f726f206164647265737300000000000000000000000000000000000000000000606482015260840161047a565b506001600160a01b031660009081526004602052604090205490565b600754604080517f8da5cb5b00000000000000000000000000000000000000000000000000000000815290516000926001600160a01b031691638da5cb5b916004808301926020929190829003018186803b1580156106e657600080fd5b606060018054610382906118f7565b6001600160a01b038216331415610aa15760405162461bcd60e51b815260206004820152601960248201527f4552433732313a20617070726f766520746f2063616c6c657200000000000000604482015260640161047a565b3360008181526006602090815260408083206001600160a01b03871680855290835292819020805460ff191686151590811790915590519081529192917f17307eab39ab6107e8899845ad3d59bd9653f200f220920489ca2b5937696c31910160405180910390a35050565b610b173383610cff565b610b895760405162461bcd60e51b815260206004820152603160248201527f4552433732313a207472616e736665722063616c6c6572206973206e6f74206f60448201527f776e6572206e6f7220617070726f766564000000000000000000000000000000606482015260840161047a565b610b95848484846111c7565b50505050565b6000818152600360205260409020546060906001600160a01b0316610c285760405162461bcd60e51b815260206004820152602f60248201527f4552433732314d657461646174613a2055524920717565727920666f72206e6f60448201527f6e6578697374656e7420746f6b656e0000000000000000000000000000000000606482015260840161047a565b600060028054610c37906118f7565b905011610c53576040518060200160405280600081525061036d565b6002610c5e83611250565b604051602001610c6f929190611792565b60405160208183030381529060405292915050565b6000818152600560205260409020805473ffffffffffffffffffffffffffffffffffffffff19166001600160a01b0384169081179091558190610cc6826108b6565b6001600160a01b03167f8c5be1e5ebec7d5bd14f71427d1e84f3dd0314c0f7b2291e5b200ac8c7c3b92560405160405180910390a45050565b6000818152600360205260408120546001600160a01b0316610d785760405162461bcd60e51b815260206004820152602c60248201527f4552433732313a206f70657261746f7220717565727920666f72206e6f6e657860448201526b34b9ba32b73a103a37b5b2b760a11b606482015260840161047a565b6000610d83836108b6565b9050806001600160a01b0316846001600160a01b03161480610dbe5750836001600160a01b0316610db384610405565b6001600160a01b0316145b80610dee57506001600160a01b0380821660009081526006602090815260408083209388168352929052205460ff165b949350505050565b826001600160a01b0316610e09826108b6565b6001600160a01b031614610e855760405162461bcd60e51b815260206004820152602960248201527f4552433732313a207472616e73666572206f6620746f6b656e2074686174206960448201527f73206e6f74206f776e0000000000000000000000000000000000000000000000606482015260840161047a565b6001600160a01b038216610f005760405162461bcd60e51b8152602060048201526024808201527f4552433732313a207472616e7366657220746f20746865207a65726f2061646460448201527f7265737300000000000000000000000000000000000000000000000000000000606482015260840161047a565b610f0b600082610c84565b6001600160a01b0383166000908152600460205260408120805460019290610f349084906118b4565b90915550506001600160a01b0382166000908152600460205260408120805460019290610f62908490611888565b9091555050600081815260036020526040808220805473ffffffffffffffffffffffffffffffffffffffff19166001600160a01b0386811691821790925591518493918716917fddf252ad1be2c89b69c2b068fc378daa952ba7f163c4a11628f55a4df523b3ef91a4505050565b6001600160a01b0382166110265760405162461bcd60e51b815260206004820181905260248201527f4552433732313a206d696e7420746f20746865207a65726f2061646472657373604482015260640161047a565b6000818152600360205260409020546001600160a01b03161561108b5760405162461bcd60e51b815260206004820152601c60248201527f4552433732313a20746f6b656e20616c7265616479206d696e74656400000000604482015260640161047a565b6001600160a01b03821660009081526004602052604081208054600192906110b4908490611888565b9091555050600081815260036020526040808220805473ffffffffffffffffffffffffffffffffffffffff19166001600160a01b03861690811790915590518392907fddf252ad1be2c89b69c2b068fc378daa952ba7f163c4a11628f55a4df523b3ef908290a45050565b600061112a826108b6565b9050611137600083610c84565b6001600160a01b03811660009081526004602052604081208054600192906111609084906118b4565b9091555050600082815260036020526040808220805473ffffffffffffffffffffffffffffffffffffffff19169055518391906001600160a01b038416907fddf252ad1be2c89b69c2b068fc378daa952ba7f163c4a11628f55a4df523b3ef908390a45050565b6111d2848484610df6565b6111de84848484611382565b610b955760405162461bcd60e51b815260206004820152603260248201527f4552433732313a207472616e7366657220746f206e6f6e20455243373231526560448201527f63656976657220696d706c656d656e7465720000000000000000000000000000606482015260840161047a565b60608161129057505060408051808201909152600181527f3000000000000000000000000000000000000000000000000000000000000000602082015290565b8160005b81156112ba57806112a481611932565b91506112b39050600a836118a0565b9150611294565b60008167ffffffffffffffff8111156112d5576112d56119a3565b6040519080825280601f01601f1916602001820160405280156112ff576020820181803683370190505b5090505b8415610dee576113146001836118b4565b9150611321600a8661194d565b61132c906030611888565b60f81b8183815181106113415761134161198d565b60200101907effffffffffffffffffffffffffffffffffffffffffffffffffffffffffffff1916908160001a90535061137b600a866118a0565b9450611303565b60006001600160a01b0384163b156114da57604051630a85bd0160e11b81526001600160a01b0385169063150b7a02906113c6903390899088908890600401611839565b602060405180830381600087803b1580156113e057600080fd5b505af1925050508015611410575060408051601f3d908101601f1916820190925261140d91810190611714565b60015b6114c0573d80801561143e576040519150601f19603f3d011682016040523d82523d6000602084013e611443565b606091505b5080516114b85760405162461bcd60e51b815260206004820152603260248201527f4552433732313a207472616e7366657220746f206e6f6e20455243373231526560448201527f63656976657220696d706c656d656e7465720000000000000000000000000000606482015260840161047a565b805181602001fd5b6001600160e01b031916630a85bd0160e11b149050610dee565b506001949350505050565b6000602082840312156114f757600080fd5b8135611502816119b9565b9392505050565b60006020828403121561151b57600080fd5b8151611502816119b9565b6000806040838503121561153957600080fd5b8235611544816119b9565b91506020830135611554816119b9565b809150509250929050565b60008060006060848603121561157457600080fd5b833561157f816119b9565b9250602084013561158f816119b9565b929592945050506040919091013590565b600080600080608085870312156115b657600080fd5b84356115c1816119b9565b935060208501356115d1816119b9565b925060408501359150606085013567ffffffffffffffff808211156115f557600080fd5b818701915087601f83011261160957600080fd5b81358181111561161b5761161b6119a3565b604051601f8201601f19908116603f01168101908382118183101715611643576116436119a3565b816040528281528a602084870101111561165c57600080fd5b82602086016020830137600060208483010152809550505050505092959194509250565b6000806040838503121561169357600080fd5b823561169e816119b9565b91506020830135611554816119ce565b600080604083850312156116c157600080fd5b82356116cc816119b9565b946020939093013593505050565b6000602082840312156116ec57600080fd5b8151611502816119ce565b60006020828403121561170957600080fd5b8135611502816119dc565b60006020828403121561172657600080fd5b8151611502816119dc565b60006020828403121561174357600080fd5b5035919050565b600081518084526117628160208601602086016118cb565b601f01601f19169290920160200192915050565b600081516117888185602086016118cb565b9290920192915050565b600080845481600182811c9150808316806117ae57607f831692505b60208084108214156117ce57634e487b7160e01b86526022600452602486fd5b8180156117e257600181146117f357611820565b60ff19861689528489019650611820565b60008b81526020902060005b868110156118185781548b8201529085019083016117ff565b505084890196505b5050505050506118308185611776565b95945050505050565b60006001600160a01b0380871683528086166020840152508360408301526080606083015261186b608083018461174a565b9695505050505050565b602081526000611502602083018461174a565b6000821982111561189b5761189b611961565b500190565b6000826118af576118af611977565b500490565b6000828210156118c6576118c6611961565b500390565b60005b838110156118e65781810151838201526020016118ce565b83811115610b955750506000910152565b600181811c9082168061190b57607f821691505b6020821081141561192c57634e487b7160e01b600052602260045260246000fd5b50919050565b600060001982141561194657611946611961565b5060010190565b60008261195c5761195c611977565b500690565b634e487b7160e01b600052601160045260246000fd5b634e487b7160e01b600052601260045260246000fd5b634e487b7160e01b600052603260045260246000fd5b634e487b7160e01b600052604160045260246000fd5b6001600160a01b03811681146108b357600080fd5b80151581146108b357600080fd5b6001600160e01b0319811681146108b357600080fdfea26469706673582212200442093cc11688896e7bd38d739759c2e65df03ad7d215fb63c0ebb17d7bf1b164736f6c63430008060033",
  "linkReferences": {},
  "deployedLinkReferences": {}
}