{
  "address": "0x5D1DD9f4232D8Bd861d0A50f882537C3871e4A41",
  "abi": [
    {
      "inputs": [
        {
          "internalType": "string",
          "name": "metadata",
          "type": "string"
        },
        {
          "internalType": "uint256",
          "name": "displayStartTimestamp",
          "type": "uint256"
        },
        {
          "internalType": "uint256",
          "name": "displayEndTimestamp",
          "type": "uint256"
        }
      ],
      "name": "id",
      "outputs": [
        {
          "internalType": "uint256",
          "name": "",
          "type": "uint256"
        }
      ],
      "stateMutability": "pure",
      "type": "function"
    }
  ],
  "transactionHash": "0xde24b1251871d16c13ed613b0bf196c4ca5c28852ea04748607b439ab46a7552",
  "args": [],
  "solcInputHash": "e8d9bb358a5713c49109d8869137d9b3",
  "bytecode": "0x61022861003a600b82828239805160001a60731461002d57634e487b7160e01b600052600060045260246000fd5b30600052607381538281f3fe73000000000000000000000000000000000000000030146080604052600436106100355760003560e01c80633fb4aab01461003a575b600080fd5b61004d6100483660046100c6565b61005f565b60405190815260200160405180910390f35b60006d04ee2d6d415b85acef81000000008484846040516020016100859392919061018a565b6040516020818303038152906040528051906020012060001c6100a891906101d0565b949350505050565b634e487b7160e01b600052604160045260246000fd5b6000806000606084860312156100db57600080fd5b833567ffffffffffffffff808211156100f357600080fd5b818601915086601f83011261010757600080fd5b813581811115610119576101196100b0565b604051601f8201601f19908116603f01168101908382118183101715610141576101416100b0565b8160405282815289602084870101111561015a57600080fd5b82602086016020830137600060208483010152809750505050505060208401359150604084013590509250925092565b6000845160005b818110156101ab5760208188018101518583015201610191565b818111156101ba576000828501525b5091909101928352506020820152604001919050565b6000826101ed57634e487b7160e01b600052601260045260246000fd5b50069056fea264697066735822122050090c869989f0d07ded8990b07f65d81df3820661ecc5cb557d6f4932a0272964736f6c63430008090033",
  "devdoc": {
    "kind": "dev",
    "methods": {},
    "version": 1
  },
  "userdoc": {
    "kind": "user",
    "methods": {},
    "version": 1
  },
  "storageLayout": {
    "storage": [],
    "types": null
  }
}