{
  "address": "0x9F397D94EC32D43EeC60dCF9A38a44322D54d42A",
  "abi": [
    {
      "inputs": [
        {
          "internalType": "string",
          "name": "metadata",
          "type": "string"
        },
        {
          "internalType": "uint256",
          "name": "displayStartTimestamp",
          "type": "uint256"
        },
        {
          "internalType": "uint256",
          "name": "displayEndTimestamp",
          "type": "uint256"
        }
      ],
      "name": "id",
      "outputs": [
        {
          "internalType": "uint256",
          "name": "",
          "type": "uint256"
        }
      ],
      "stateMutability": "pure",
      "type": "function"
    }
  ],
  "transactionHash": "0x9734e365f120a6da0e74b681d0840929c3fd40929feceffd451206fd6de932a6",
  "args": [],
  "solcInputHash": "d3d38aa74a09225e7603340a0e8b265f",
  "bytecode": "0x61022661003a600b82828239805160001a60731461002d57634e487b7160e01b600052600060045260246000fd5b30600052607381538281f3fe73000000000000000000000000000000000000000030146080604052600436106100355760003560e01c80633fb4aab01461003a575b600080fd5b61004d6100483660046100c5565b61005f565b60405190815260200160405180910390f35b60006904ee2d6d415b85acef8160201b84848460405160200161008493929190610188565b6040516020818303038152906040528051906020012060001c6100a791906101ce565b949350505050565b634e487b7160e01b600052604160045260246000fd5b6000806000606084860312156100da57600080fd5b83356001600160401b03808211156100f157600080fd5b818601915086601f83011261010557600080fd5b813581811115610117576101176100af565b604051601f8201601f19908116603f0116810190838211818310171561013f5761013f6100af565b8160405282815289602084870101111561015857600080fd5b82602086016020830137600060208483010152809750505050505060208401359150604084013590509250925092565b6000845160005b818110156101a9576020818801810151858301520161018f565b818111156101b8576000828501525b5091909101928352506020820152604001919050565b6000826101eb57634e487b7160e01b600052601260045260246000fd5b50069056fea2646970667358221220a45ced4643544cb5f284c9eec1d326d85c05bf57f073510d2de20ee2d288317564736f6c63430008090033",
  "devdoc": {
    "kind": "dev",
    "methods": {},
    "version": 1
  },
  "userdoc": {
    "kind": "user",
    "methods": {},
    "version": 1
  },
  "storageLayout": {
    "storage": [],
    "types": null
  }
}