{
  "address": "0x1ad7259Cf50FD99A58C44C5c48875aec0556D9EA",
  "abi": [
    {
      "inputs": [
        {
          "internalType": "address",
          "name": "nameRegistry",
          "type": "address"
        }
      ],
      "stateMutability": "nonpayable",
      "type": "constructor"
    },
    {
      "anonymous": false,
      "inputs": [
        {
          "indexed": false,
          "internalType": "uint256",
          "name": "postId",
          "type": "uint256"
        },
        {
          "indexed": false,
          "internalType": "uint256",
          "name": "bidId",
          "type": "uint256"
        }
      ],
      "name": "Accept",
      "type": "event"
    },
    {
      "anonymous": false,
      "inputs": [
        {
          "indexed": false,
          "internalType": "uint256",
          "name": "bidId",
          "type": "uint256"
        },
        {
          "indexed": false,
          "internalType": "uint256",
          "name": "postId",
          "type": "uint256"
        },
        {
          "indexed": false,
          "internalType": "address",
          "name": "sender",
          "type": "address"
        },
        {
          "indexed": false,
          "internalType": "uint256",
          "name": "price",
          "type": "uint256"
        },
        {
          "indexed": false,
          "internalType": "string",
          "name": "metadata",
          "type": "string"
        }
      ],
      "name": "Bid",
      "type": "event"
    },
    {
      "anonymous": false,
      "inputs": [
        {
          "indexed": false,
          "internalType": "uint256",
          "name": "bidId",
          "type": "uint256"
        },
        {
          "indexed": false,
          "internalType": "uint256",
          "name": "postId",
          "type": "uint256"
        },
        {
          "indexed": false,
          "internalType": "address",
          "name": "sender",
          "type": "address"
        },
        {
          "indexed": false,
          "internalType": "uint256",
          "name": "price",
          "type": "uint256"
        }
      ],
      "name": "Book",
      "type": "event"
    },
    {
      "anonymous": false,
      "inputs": [
        {
          "indexed": false,
          "internalType": "uint256",
          "name": "bidId",
          "type": "uint256"
        },
        {
          "indexed": false,
          "internalType": "uint256",
          "name": "postId",
          "type": "uint256"
        },
        {
          "indexed": false,
          "internalType": "address",
          "name": "sender",
          "type": "address"
        },
        {
          "indexed": false,
          "internalType": "uint256",
          "name": "price",
          "type": "uint256"
        }
      ],
      "name": "Call",
      "type": "event"
    },
    {
      "anonymous": false,
      "inputs": [
        {
          "indexed": false,
          "internalType": "uint256",
          "name": "bitId",
          "type": "uint256"
        },
        {
          "indexed": false,
          "internalType": "uint256",
          "name": "postId",
          "type": "uint256"
        },
        {
          "indexed": false,
          "internalType": "address",
          "name": "successfulBidder",
          "type": "address"
        },
        {
          "indexed": false,
          "internalType": "uint256",
          "name": "price",
          "type": "uint256"
        },
        {
          "indexed": false,
          "internalType": "string",
          "name": "metadata",
          "type": "string"
        }
      ],
      "name": "Close",
      "type": "event"
    },
    {
      "anonymous": false,
      "inputs": [
        {
          "indexed": false,
          "internalType": "uint256",
          "name": "bidId",
          "type": "uint256"
        },
        {
          "indexed": false,
          "internalType": "uint256",
          "name": "postId",
          "type": "uint256"
        }
      ],
      "name": "Deny",
      "type": "event"
    },
    {
      "anonymous": false,
      "inputs": [
        {
          "indexed": false,
          "internalType": "uint256",
          "name": "postId",
          "type": "uint256"
        },
        {
          "indexed": false,
          "internalType": "address",
          "name": "owner",
          "type": "address"
        },
        {
          "indexed": false,
          "internalType": "string",
          "name": "metadata",
          "type": "string"
        },
        {
          "indexed": false,
          "internalType": "uint256",
          "name": "fromTimestamp",
          "type": "uint256"
        },
        {
          "indexed": false,
          "internalType": "uint256",
          "name": "toTimestamp",
          "type": "uint256"
        }
      ],
      "name": "NewPost",
      "type": "event"
    },
    {
      "anonymous": false,
      "inputs": [
        {
          "indexed": false,
          "internalType": "uint256",
          "name": "bidId",
          "type": "uint256"
        },
        {
          "indexed": false,
          "internalType": "uint256",
          "name": "postId",
          "type": "uint256"
        },
        {
          "indexed": false,
          "internalType": "string",
          "name": "metadata",
          "type": "string"
        }
      ],
      "name": "Propose",
      "type": "event"
    },
    {
      "anonymous": false,
      "inputs": [
        {
          "indexed": false,
          "internalType": "uint256",
          "name": "bitId",
          "type": "uint256"
        },
        {
          "indexed": false,
          "internalType": "uint256",
          "name": "postId",
          "type": "uint256"
        },
        {
          "indexed": false,
          "internalType": "address",
          "name": "sender",
          "type": "address"
        },
        {
          "indexed": false,
          "internalType": "uint256",
          "name": "price",
          "type": "uint256"
        }
      ],
      "name": "Refund",
      "type": "event"
    },
    {
      "inputs": [
        {
          "internalType": "uint256",
          "name": "postId",
          "type": "uint256"
        }
      ],
      "name": "accept",
      "outputs": [],
      "stateMutability": "nonpayable",
      "type": "function"
    },
    {
      "inputs": [],
      "name": "adPoolAddress",
      "outputs": [
        {
          "internalType": "address",
          "name": "",
          "type": "address"
        }
      ],
      "stateMutability": "view",
      "type": "function"
    },
    {
      "inputs": [
        {
          "internalType": "uint256",
          "name": "",
          "type": "uint256"
        }
      ],
      "name": "allPosts",
      "outputs": [
        {
          "internalType": "uint256",
          "name": "postId",
          "type": "uint256"
        },
        {
          "internalType": "address",
          "name": "owner",
          "type": "address"
        },
        {
          "internalType": "string",
          "name": "metadata",
          "type": "string"
        },
        {
          "internalType": "uint256",
          "name": "fromTimestamp",
          "type": "uint256"
        },
        {
          "internalType": "uint256",
          "name": "toTimestamp",
          "type": "uint256"
        },
        {
          "internalType": "uint256",
          "name": "successfulBidId",
          "type": "uint256"
        }
      ],
      "stateMutability": "view",
      "type": "function"
    },
    {
      "inputs": [
        {
          "internalType": "uint256",
          "name": "postId",
          "type": "uint256"
        },
        {
          "internalType": "string",
          "name": "metadata",
          "type": "string"
        }
      ],
      "name": "bid",
      "outputs": [],
      "stateMutability": "payable",
      "type": "function"
    },
    {
      "inputs": [
        {
          "internalType": "uint256",
          "name": "",
          "type": "uint256"
        }
      ],
      "name": "bidderInfo",
      "outputs": [
        {
          "internalType": "uint256",
          "name": "bidId",
          "type": "uint256"
        },
        {
          "internalType": "uint256",
          "name": "postId",
          "type": "uint256"
        },
        {
          "internalType": "address",
          "name": "sender",
          "type": "address"
        },
        {
          "internalType": "uint256",
          "name": "price",
          "type": "uint256"
        },
        {
          "internalType": "string",
          "name": "metadata",
          "type": "string"
        },
        {
          "internalType": "enum AdManager.DraftStatus",
          "name": "status",
          "type": "uint8"
        }
      ],
      "stateMutability": "view",
      "type": "function"
    },
    {
      "inputs": [
        {
          "internalType": "uint256",
          "name": "postId",
          "type": "uint256"
        }
      ],
      "name": "bidderList",
      "outputs": [
        {
          "internalType": "uint256[]",
          "name": "",
          "type": "uint256[]"
        }
      ],
      "stateMutability": "view",
      "type": "function"
    },
    {
      "inputs": [
        {
          "internalType": "uint256",
          "name": "",
          "type": "uint256"
        },
        {
          "internalType": "uint256",
          "name": "",
          "type": "uint256"
        }
      ],
      "name": "bidders",
      "outputs": [
        {
          "internalType": "uint256",
          "name": "",
          "type": "uint256"
        }
      ],
      "stateMutability": "view",
      "type": "function"
    },
    {
      "inputs": [
        {
          "internalType": "uint256",
          "name": "postId",
          "type": "uint256"
        }
      ],
      "name": "book",
      "outputs": [],
      "stateMutability": "payable",
      "type": "function"
    },
    {
      "inputs": [
        {
          "internalType": "uint256",
          "name": "",
          "type": "uint256"
        }
      ],
      "name": "bookedBidIds",
      "outputs": [
        {
          "internalType": "uint256",
          "name": "",
          "type": "uint256"
        }
      ],
      "stateMutability": "view",
      "type": "function"
    },
    {
      "inputs": [
        {
          "internalType": "uint256",
          "name": "bidId",
          "type": "uint256"
        }
      ],
      "name": "call",
      "outputs": [],
      "stateMutability": "nonpayable",
      "type": "function"
    },
    {
      "inputs": [
        {
          "internalType": "uint256",
          "name": "bidId",
          "type": "uint256"
        }
      ],
      "name": "close",
      "outputs": [],
      "stateMutability": "nonpayable",
      "type": "function"
    },
    {
      "inputs": [
        {
          "internalType": "uint256",
          "name": "postId",
          "type": "uint256"
        }
      ],
      "name": "deny",
      "outputs": [],
      "stateMutability": "nonpayable",
      "type": "function"
    },
    {
      "inputs": [
        {
          "internalType": "address",
          "name": "account",
          "type": "address"
        },
        {
          "internalType": "string",
          "name": "metadata",
          "type": "string"
        }
      ],
      "name": "displayByMetadata",
      "outputs": [
        {
          "internalType": "string",
          "name": "",
          "type": "string"
        }
      ],
      "stateMutability": "view",
      "type": "function"
    },
    {
      "inputs": [],
      "name": "distributionRightAddress",
      "outputs": [
        {
          "internalType": "address",
          "name": "",
          "type": "address"
        }
      ],
      "stateMutability": "view",
      "type": "function"
    },
    {
      "inputs": [
        {
          "internalType": "address",
          "name": "",
          "type": "address"
        },
        {
          "internalType": "string",
          "name": "",
          "type": "string"
        },
        {
          "internalType": "uint256",
          "name": "",
          "type": "uint256"
        }
      ],
      "name": "inventories",
      "outputs": [
        {
          "internalType": "uint256",
          "name": "",
          "type": "uint256"
        }
      ],
      "stateMutability": "view",
      "type": "function"
    },
    {
      "inputs": [
        {
          "internalType": "address",
          "name": "",
          "type": "address"
        },
        {
          "internalType": "uint256",
          "name": "",
          "type": "uint256"
        }
      ],
      "name": "mediaMetadata",
      "outputs": [
        {
          "internalType": "string",
          "name": "",
          "type": "string"
        }
      ],
      "stateMutability": "view",
      "type": "function"
    },
    {
      "inputs": [],
      "name": "metadataList",
      "outputs": [
        {
          "internalType": "string[]",
          "name": "",
          "type": "string[]"
        }
      ],
      "stateMutability": "view",
      "type": "function"
    },
    {
      "inputs": [],
      "name": "nameRegistryAddress",
      "outputs": [
        {
          "internalType": "address",
          "name": "",
          "type": "address"
        }
      ],
      "stateMutability": "view",
      "type": "function"
    },
    {
      "inputs": [
        {
          "internalType": "string",
          "name": "metadata",
          "type": "string"
        },
        {
          "internalType": "uint256",
          "name": "fromTimestamp",
          "type": "uint256"
        },
        {
          "internalType": "uint256",
          "name": "toTimestamp",
          "type": "uint256"
        }
      ],
      "name": "newPost",
      "outputs": [],
      "stateMutability": "nonpayable",
      "type": "function"
    },
    {
      "inputs": [],
      "name": "nextBidId",
      "outputs": [
        {
          "internalType": "uint256",
          "name": "",
          "type": "uint256"
        }
      ],
      "stateMutability": "view",
      "type": "function"
    },
    {
      "inputs": [],
      "name": "nextPostId",
      "outputs": [
        {
          "internalType": "uint256",
          "name": "",
          "type": "uint256"
        }
      ],
      "stateMutability": "view",
      "type": "function"
    },
    {
      "inputs": [],
      "name": "owner",
      "outputs": [
        {
          "internalType": "address",
          "name": "",
          "type": "address"
        }
      ],
      "stateMutability": "view",
      "type": "function"
    },
    {
      "inputs": [],
      "name": "postOwnerPoolAddress",
      "outputs": [
        {
          "internalType": "address",
          "name": "",
          "type": "address"
        }
      ],
      "stateMutability": "view",
      "type": "function"
    },
    {
      "inputs": [
        {
          "internalType": "uint256",
          "name": "postId",
          "type": "uint256"
        },
        {
          "internalType": "string",
          "name": "metadata",
          "type": "string"
        }
      ],
      "name": "propose",
      "outputs": [],
      "stateMutability": "nonpayable",
      "type": "function"
    },
    {
      "inputs": [
        {
          "internalType": "uint256",
          "name": "bidId",
          "type": "uint256"
        }
      ],
      "name": "refund",
      "outputs": [],
      "stateMutability": "nonpayable",
      "type": "function"
    },
    {
      "inputs": [],
      "name": "reservedRightAddress",
      "outputs": [
        {
          "internalType": "address",
          "name": "",
          "type": "address"
        }
      ],
      "stateMutability": "view",
      "type": "function"
    },
    {
      "inputs": [],
      "name": "vaultAddress",
      "outputs": [
        {
          "internalType": "address",
          "name": "",
          "type": "address"
        }
      ],
      "stateMutability": "view",
      "type": "function"
    }
  ],
  "transactionHash": "0xa6c8b3c982c698a0612e19d0432ea1cf376c7662e2d763c9c2efa7b60ce63dab",
  "args": [
    "0x5EBA2dD6C26Dae8e733D55e4DC6D5B6EEBFa8F20"
  ],
  "solcInputHash": "c27ddb5270c8945da4be08b6aedd84d4",
  "bytecode": "0x6001600781905560085560c0604052601360808190527f68747470733a2f2f6b616c6569646f2e696f2f0000000000000000000000000060a09081526200004a9160099190620000a1565b503480156200005857600080fd5b50604051620030cd380380620030cd8339810160408190526200007b9162000147565b600080546001600160a01b0319166001600160a01b0392909216919091179055620001b6565b828054620000af9062000179565b90600052602060002090601f016020900481019282620000d357600085556200011e565b82601f10620000ee57805160ff19168380011785556200011e565b828001600101855582156200011e579182015b828111156200011e57825182559160200191906001019062000101565b506200012c92915062000130565b5090565b5b808211156200012c576000815560010162000131565b6000602082840312156200015a57600080fd5b81516001600160a01b03811681146200017257600080fd5b9392505050565b600181811c908216806200018e57607f821691505b60208210811415620001b057634e487b7160e01b600052602260045260246000fd5b50919050565b612f0780620001c66000396000f3fe6080604052600436106101ac5760003560e01c80635c09bd98116100ec578063ac6919a51161008a578063d3584e8411610064578063d3584e84146104a1578063d4f6b5ec146104ce578063dc269049146104ee578063ef95e90f1461050457600080fd5b8063ac6919a514610457578063c9cd71b51461046c578063d1c112051461048157600080fd5b80638da5cb5b116100c65780638da5cb5b146103e25780638f50b143146103f7578063938baab814610417578063971e178d1461043757600080fd5b80635c09bd9814610378578063718ce2bc1461038e5780637859427a146103c057600080fd5b806319b05f491161015957806329a594b51161013357806329a594b51461030e5780632b09692614610323578063430bf08a1461034357806356f662821461035857600080fd5b806319b05f491461029c578063278ecde1146102bc57806327b7a2f5146102dc57600080fd5b80630e376fda1161018a5780630e376fda1461023b5780630fc55fd1146102765780631116fd041461028957600080fd5b806304caebc0146101b15780630aebeb4e146101e75780630d5daf3b14610209575b600080fd5b3480156101bd57600080fd5b506101d16101cc3660046129b0565b610519565b6040516101de9190612c45565b60405180910390f35b3480156101f357600080fd5b50610207610202366004612a2a565b6105d2565b005b34801561021557600080fd5b50610229610224366004612a2a565b610a9f565b6040516101de96959493929190612d19565b34801561024757600080fd5b50610268610256366004612a2a565b60046020526000908152604090205481565b6040519081526020016101de565b610207610284366004612a43565b610b6b565b610207610297366004612a2a565b610b79565b3480156102a857600080fd5b506102076102b7366004612a2a565b610b85565b3480156102c857600080fd5b506102076102d7366004612a2a565b610d54565b3480156102e857600080fd5b506000546001600160a01b03165b6040516001600160a01b0390911681526020016101de565b34801561031a57600080fd5b506102f6610fdf565b34801561032f57600080fd5b5061020761033e366004612a2a565b6110ab565b34801561034f57600080fd5b506102f66115b0565b34801561036457600080fd5b50610207610373366004612a2a565b6115f7565b34801561038457600080fd5b5061026860075481565b34801561039a57600080fd5b506103ae6103a9366004612a2a565b611733565b6040516101de96959493929190612c94565b3480156103cc57600080fd5b506103d56117fb565b6040516101de9190612b9f565b3480156103ee57600080fd5b506102f66118df565b34801561040357600080fd5b506102076104123660046129dc565b61192e565b34801561042357600080fd5b506101d1610432366004612907565b611dd0565b34801561044357600080fd5b50610268610452366004612957565b6120d8565b34801561046357600080fd5b506102f6612125565b34801561047857600080fd5b506102f661216c565b34801561048d57600080fd5b5061026861049c366004612a74565b6121b3565b3480156104ad57600080fd5b506104c16104bc366004612a2a565b6121e4565b6040516101de9190612c01565b3480156104da57600080fd5b506102076104e9366004612a43565b612246565b3480156104fa57600080fd5b5061026860085481565b34801561051057600080fd5b506102f6612451565b6006602052816000526040600020818154811061053557600080fd5b9060005260206000200160009150915050805461055190612e0e565b80601f016020809104026020016040519081016040528092919081815260200182805461057d90612e0e565b80156105ca5780601f1061059f576101008083540402835291602001916105ca565b820191906000526020600020905b8154815290600101906020018083116105ad57829003601f168201915b505050505081565b6000818152600560209081526040808320815160c0810183528154815260018201549381019390935260028101546001600160a01b031691830191909152600381015460608301526004810180548594939291608084019161063390612e0e565b80601f016020809104026020016040519081016040528092919081815260200182805461065f90612e0e565b80156106ac5780601f10610681576101008083540402835291602001916106ac565b820191906000526020600020905b81548152906001019060200180831161068f57829003601f168201915b5050509183525050600582015460209091019060ff1660068111156106d3576106d3612e7a565b60068111156106e4576106e4612e7a565b8152505090504260016000836020015181526020019081526020016000206004015410156107415760405162461bcd60e51b8152602060048201526005602482015264082886260760db1b60448201526064015b60405180910390fd5b6000838152600560209081526040808320815160c0810183528154815260018201549381019390935260028101546001600160a01b0316918301919091526003810154606083015260048101805460808401919061079e90612e0e565b80601f01602080910402602001604051908101604052809291908181526020018280546107ca90612e0e565b80156108175780601f106107ec57610100808354040283529160200191610817565b820191906000526020600020905b8154815290600101906020018083116107fa57829003601f168201915b5050509183525050600582015460209091019060ff16600681111561083e5761083e612e7a565b600681111561084f5761084f612e7a565b905250805190915061088b5760405162461bcd60e51b8152602060048201526005602482015264414431303360d81b6044820152606401610738565b60208082015160009081526001918290526040902001546001600160a01b031633146108e15760405162461bcd60e51b815260206004820152600560248201526420a218981960d91b6044820152606401610738565b6020808201516000908152600190915260409020600501541561092e5760405162461bcd60e51b815260206004820152600560248201526420a218981960d91b6044820152606401610738565b60018160a00151600681111561094657610946612e7a565b1461097b5760405162461bcd60e51b815260206004820152600560248201526420a218981960d91b6044820152606401610738565b61099981602001518560009182526001602052604090912060050155565b600560a0820152606081015133906108fc90600a906109b9906009612dbf565b6109c39190612d9d565b6040518115909202916000818181858888f193505050501580156109eb573d6000803e3d6000fd5b506109f4612498565b6001600160a01b03166108fc600a83606001516001610a139190612dbf565b610a1d9190612d9d565b6040518115909202916000818181858888f19350505050158015610a45573d6000803e3d6000fd5b507ff763d6ab2a4f1accf9c4fca103d30b90f90db83afeaad6b67481601184b1690d81600001518260200151836040015184606001518560800151604051610a91959493929190612cda565b60405180910390a150505050565b60056020526000908152604090208054600182015460028301546003840154600485018054949593946001600160a01b03909316939192610adf90612e0e565b80601f0160208091040260200160405190810160405280929190818152602001828054610b0b90612e0e565b8015610b585780601f10610b2d57610100808354040283529160200191610b58565b820191906000526020600020905b815481529060010190602001808311610b3b57829003601f168201915b5050506005909301549192505060ff1686565b610b7582826124a2565b5050565b610b82816124fd565b50565b6000818152600160205260409020600401548190421115610bd05760405162461bcd60e51b8152602060048201526005602482015264082886260760db1b6044820152606401610738565b600082815260016020819052604090912001546001600160a01b03163314610c225760405162461bcd60e51b8152602060048201526005602482015264414431303560d81b6044820152606401610738565b60008281526004602052604090205460036000828152600560208190526040909120015460ff166006811115610c5a57610c5a612e7a565b14610c8f5760405162461bcd60e51b815260206004820152600560248201526420a218981960d91b6044820152606401610738565b60008181526005602081905260409091208101805460ff19169091179055610cb5612576565b6001600160a01b03166342966c68846040518263ffffffff1660e01b8152600401610ce291815260200190565b600060405180830381600087803b158015610cfc57600080fd5b505af1158015610d10573d6000803e3d6000fd5b505060408051868152602081018590527f66b40296db692bd2f393bda18cf3f9d917966186767279128a62afeb90e43b3993500190505b60405180910390a1505050565b6000818152600560209081526040808320815160c0810183528154815260018201549381019390935260028101546001600160a01b03169183019190915260038101546060830152600481018054608084019190610db190612e0e565b80601f0160208091040260200160405190810160405280929190818152602001828054610ddd90612e0e565b8015610e2a5780601f10610dff57610100808354040283529160200191610e2a565b820191906000526020600020905b815481529060010190602001808311610e0d57829003601f168201915b5050509183525050600582015460209091019060ff166006811115610e5157610e51612e7a565b6006811115610e6257610e62612e7a565b90525060408101519091506001600160a01b03163314610ec45760405162461bcd60e51b815260206004820152600560248201527f41443130340000000000000000000000000000000000000000000000000000006044820152606401610738565b602080820151600090815260019091526040902060050154821415610f2b5760405162461bcd60e51b815260206004820152600560248201527f41443130370000000000000000000000000000000000000000000000000000006044820152606401610738565b600082815260056020526040808220600301549051339282156108fc02929190818181858888f19350505050158015610f68573d6000803e3d6000fd5b50600082815260056020818152604092839020918201805460ff191660061790556001820154600390920154835186815291820192909252339281019290925260608201527f303a7a5ed564cf1b7e8ec302e0d290e0c69d9785d1e5d43db651d7995f0bc019906080015b60405180910390a15050565b600080546040517f526573657276656452696768740000000000000000000000000000000000000060208201526001600160a01b0390911690638eaa6ac090602d015b604051602081830303815290604052805190602001206040518263ffffffff1660e01b815260040161105691815260200190565b60206040518083038186803b15801561106e57600080fd5b505afa158015611082573d6000803e3d6000fd5b505050506040513d601f19601f820116820180604052508101906110a691906128e3565b905090565b6000818152600560209081526040808320815160c0810183528154815260018201549381019390935260028101546001600160a01b031691830191909152600381015460608301526004810180548594939291608084019161110c90612e0e565b80601f016020809104026020016040519081016040528092919081815260200182805461113890612e0e565b80156111855780601f1061115a57610100808354040283529160200191611185565b820191906000526020600020905b81548152906001019060200180831161116857829003601f168201915b5050509183525050600582015460209091019060ff1660068111156111ac576111ac612e7a565b60068111156111bd576111bd612e7a565b8152505090504260016000836020015181526020019081526020016000206004015410156112155760405162461bcd60e51b8152602060048201526005602482015264082886260760db1b6044820152606401610738565b6000838152600560209081526040808320815160c0810183528154815260018201549381019390935260028101546001600160a01b0316918301919091526003810154606083015260048101805460808401919061127290612e0e565b80601f016020809104026020016040519081016040528092919081815260200182805461129e90612e0e565b80156112eb5780601f106112c0576101008083540402835291602001916112eb565b820191906000526020600020905b8154815290600101906020018083116112ce57829003601f168201915b5050509183525050600582015460209091019060ff16600681111561131257611312612e7a565b600681111561132357611323612e7a565b905250805190915061135f5760405162461bcd60e51b8152602060048201526005602482015264414431303360d81b6044820152606401610738565b60208082015160009081526001918290526040902001546001600160a01b031633146113b55760405162461bcd60e51b815260206004820152600560248201526420a218981960d91b6044820152606401610738565b6020808201516000908152600190915260409020600501541561141a5760405162461bcd60e51b815260206004820152600560248201527f41443131330000000000000000000000000000000000000000000000000000006044820152606401610738565b60008160a00151600681111561143257611432612e7a565b146114675760405162461bcd60e51b815260206004820152600560248201526420a218981960d91b6044820152606401610738565b602081810180516000908152600483526040808220889055600260a08601529151878252600190935220600501556060810151604051339180156108fc02916000818181858888f193505050501580156114c5573d6000803e3d6000fd5b506114ce612576565b6001600160a01b031663d3fc98648260400151836020015160016000866020015181526020019081526020016000206002016040518463ffffffff1660e01b815260040161151e93929190612ade565b600060405180830381600087803b15801561153857600080fd5b505af115801561154c573d6000803e3d6000fd5b505050507f70c21df4a109699ac5cbee04e25054d865a14a532529a731a11afcd25ed1914a84826020015183604001518460600151604051610a91949392919093845260208401929092526001600160a01b03166040830152606082015260800190565b600080546040517f5661756c7400000000000000000000000000000000000000000000000000000060208201526001600160a01b0390911690638eaa6ac090602501611022565b600081815260046020908152604080832054600192839052922001546001600160a01b0316331461166a5760405162461bcd60e51b815260206004820152600560248201527f41443131310000000000000000000000000000000000000000000000000000006044820152606401610738565b60036000828152600560208190526040909120015460ff16600681111561169357611693612e7a565b146116e05760405162461bcd60e51b815260206004820152600560248201527f41443130360000000000000000000000000000000000000000000000000000006044820152606401610738565b600081815260056020818152604092839020909101805460ff1916600417905581518381529081018490527fb4f2cd71a07f3c432393e99783b21b73c1ccf8f528fd95885166c9f8a83669d69101610fd3565b60016020819052600091825260409091208054918101546002820180546001600160a01b03909216929161176690612e0e565b80601f016020809104026020016040519081016040528092919081815260200182805461179290612e0e565b80156117df5780601f106117b4576101008083540402835291602001916117df565b820191906000526020600020905b8154815290600101906020018083116117c257829003601f168201915b5050505050908060030154908060040154908060050154905086565b336000908152600660209081526040808320805482518185028101850190935280835260609492939192909184015b828210156118d657838290600052602060002001805461184990612e0e565b80601f016020809104026020016040519081016040528092919081815260200182805461187590612e0e565b80156118c25780601f10611897576101008083540402835291602001916118c2565b820191906000526020600020905b8154815290600101906020018083116118a557829003601f168201915b50505050508152602001906001019061182a565b50505050905090565b60008060009054906101000a90046001600160a01b03166001600160a01b0316638da5cb5b6040518163ffffffff1660e01b815260040160206040518083038186803b15801561106e57600080fd5b8082106119655760405162461bcd60e51b8152602060048201526005602482015264414431303160d81b6044820152606401610738565b4281116119b45760405162461bcd60e51b815260206004820152600560248201527f41443131340000000000000000000000000000000000000000000000000000006044820152606401610738565b6119f66040518060c001604052806000815260200160006001600160a01b03168152602001606081526020016000815260200160008152602001600081525090565b60078054906000611a0683612e49565b90915550815233602082015260408101849052606081018390526080810182905260005b33600090815260026020526040908190208382015191519091611a4c91612ac2565b90815260405190819003602001902054811015611bf95733600090815260026020526040808220848201519151600192849291611a899190612ac2565b90815260200160405180910390208481548110611aa857611aa8612e90565b600091825260208083209091015483528281019390935260409182019020815160c0810183528154815260018201546001600160a01b0316938101939093526002810180549192840191611afb90612e0e565b80601f0160208091040260200160405190810160405280929190818152602001828054611b2790612e0e565b8015611b745780601f10611b4957610100808354040283529160200191611b74565b820191906000526020600020905b815481529060010190602001808311611b5757829003601f168201915b5050505050815260200160038201548152602001600482015481526020016005820154815250509050611bb1858583606001518460800151612580565b15611be65760405162461bcd60e51b8152602060048201526005602482015264414431303160d81b6044820152606401610738565b5080611bf181612e49565b915050611a2a565b5033600090815260066020908152604082208054600181018255908352918190208651611c2d93919091019187019061276e565b5080516000908152600160208181526040928390208451815581850151928101805473ffffffffffffffffffffffffffffffffffffffff19166001600160a01b03909416939093179092559183015180518493611c9192600285019291019061276e565b50606082015160038201556080820151600482015560a09091015160059091015533600090815260026020526040908190208282015191519091611cd491612ac2565b908152604051602091819003820190208251815460018101835560009283529290912090910155611d0361259a565b815160208301516040517f016a752200000000000000000000000000000000000000000000000000000000815260048101929092526001600160a01b039081166024830152919091169063016a752290604401600060405180830381600087803b158015611d7057600080fd5b505af1158015611d84573d6000803e3d6000fd5b5050825160208401516040808601516060870151608088015192517fe535a02a01920b38061e7785d5f3d4688d895a51cc21bb9e09b59a11d3befcfb9750610a91965091929091612c58565b606060005b6001600160a01b038416600090815260026020526040908190209051611dfc908590612ac2565b90815260405190819003602001902054811015612089576001600160a01b0384166000908152600260205260408082209051611f59926001929091611e42908890612ac2565b90815260200160405180910390208481548110611e6157611e61612e90565b600091825260208083209091015483528281019390935260409182019020815160c0810183528154815260018201546001600160a01b0316938101939093526002810180549192840191611eb490612e0e565b80601f0160208091040260200160405190810160405280929190818152602001828054611ee090612e0e565b8015611f2d5780601f10611f0257610100808354040283529160200191611f2d565b820191906000526020600020905b815481529060010190602001808311611f1057829003601f168201915b5050505050815260200160038201548152602001600482015481526020016005820154815250506125a4565b1561207757600560006001600060026000896001600160a01b03166001600160a01b0316815260200190815260200160002087604051611f999190612ac2565b90815260200160405180910390208581548110611fb857611fb8612e90565b906000526020600020015481526020019081526020016000206005015481526020019081526020016000206004018054611ff190612e0e565b80601f016020809104026020016040519081016040528092919081815260200182805461201d90612e0e565b801561206a5780601f1061203f5761010080835404028352916020019161206a565b820191906000526020600020905b81548152906001019060200180831161204d57829003601f168201915b50505050509150506120d2565b8061208181612e49565b915050611dd5565b5060405162461bcd60e51b815260206004820152600560248201527f41443131300000000000000000000000000000000000000000000000000000006044820152606401610738565b92915050565b6002602090815260008481526040902083518085018301805192815290830192850192909220915280548290811061210f57600080fd5b9060005260206000200160009250925050505481565b600080546040517f446973747269627574696f6e526967687400000000000000000000000000000060208201526001600160a01b0390911690638eaa6ac090603101611022565b600080546040517f4164506f6f6c000000000000000000000000000000000000000000000000000060208201526001600160a01b0390911690638eaa6ac090602601611022565b600360205281600052604060002081815481106121cf57600080fd5b90600052602060002001600091509150505481565b60008181526003602090815260409182902080548351818402810184019094528084526060939283018282801561223a57602002820191906000526020600020905b815481526020019060010190808311612226575b50505050509050919050565b60008281526001602052604090206004015482904211156122915760405162461bcd60e51b8152602060048201526005602482015264082886260760db1b6044820152606401610738565b3361229a612576565b6001600160a01b0316636352211e856040518263ffffffff1660e01b81526004016122c791815260200190565b60206040518083038186803b1580156122df57600080fd5b505afa1580156122f3573d6000803e3d6000fd5b505050506040513d601f19601f8201168201806040525081019061231791906128e3565b6001600160a01b0316146123555760405162461bcd60e51b8152602060048201526005602482015264414431303560d81b6044820152606401610738565b60008381526004602052604090205460036000828152600560208190526040909120015460ff16600681111561238d5761238d612e7a565b14156123db5760405162461bcd60e51b815260206004820152600560248201527f41443131320000000000000000000000000000000000000000000000000000006044820152606401610738565b600081815260056020908152604090912084516124009260049092019186019061276e565b5060008181526005602081905260409182902001805460ff19166003179055517f3210cee2deb4838dde3ae606fd6b2e36543e05f2629f4d6fe336fc572c06a33590610a9190839087908790612d7e565b600080546040517f506f73744f776e6572506f6f6c0000000000000000000000000000000000000060208201526001600160a01b0390911690638eaa6ac090602d01611022565b60006110a66115b0565b60088054600091826124b383612e49565b9190505590506124c683828460016125be565b7f01662ff7392d9961759cf40cab7a64e5ad660ba64a9df944343ce23b2b94c4478184333486604051610d47959493929190612cda565b600880546000918261250e83612e49565b91905055905061253082826040518060200160405280600081525060006125be565b604080518281526020810184905233918101919091523460608201527fa9dfceace4f13fa67be6499ce107d4e132c418d2cdeb93219a08c7f9c7fa634a90608001610fd3565b60006110a6612125565b600083831115806125915750848210155b95945050505050565b60006110a6612451565b60004282606001511080156120d257505060800151421090565b60008481526001602052604090206004015484904211156126095760405162461bcd60e51b8152602060048201526005602482015264082886260760db1b6044820152606401610738565b600085815260016020526040902060050154156126505760405162461bcd60e51b815260206004820152600560248201526420a218981960d91b6044820152606401610738565b6126586127f2565b848152602081018690523360408201523460608201526080810184905260a0810183600681111561268b5761268b612e7a565b9081600681111561269e5761269e612e7a565b9052508051600090815260056020908152604091829020835181558184015160018201559183015160028301805473ffffffffffffffffffffffffffffffffffffffff19166001600160a01b03909216919091179055606083015160038301556080830151805184939261271992600485019291019061276e565b5060a082015160058201805460ff1916600183600681111561273d5761273d612e7a565b0217905550505060009586526003602090815260408720915182546001810184559288529620019490945550505050565b82805461277a90612e0e565b90600052602060002090601f01602090048101928261279c57600085556127e2565b82601f106127b557805160ff19168380011785556127e2565b828001600101855582156127e2579182015b828111156127e25782518255916020019190600101906127c7565b506127ee929150612841565b5090565b6040518060c00160405280600081526020016000815260200160006001600160a01b0316815260200160008152602001606081526020016000600681111561283c5761283c612e7a565b905290565b5b808211156127ee5760008155600101612842565b600082601f83011261286757600080fd5b813567ffffffffffffffff8082111561288257612882612ea6565b604051601f8301601f19908116603f011681019082821181831017156128aa576128aa612ea6565b816040528381528660208588010111156128c357600080fd5b836020870160208301376000602085830101528094505050505092915050565b6000602082840312156128f557600080fd5b815161290081612ebc565b9392505050565b6000806040838503121561291a57600080fd5b823561292581612ebc565b9150602083013567ffffffffffffffff81111561294157600080fd5b61294d85828601612856565b9150509250929050565b60008060006060848603121561296c57600080fd5b833561297781612ebc565b9250602084013567ffffffffffffffff81111561299357600080fd5b61299f86828701612856565b925050604084013590509250925092565b600080604083850312156129c357600080fd5b82356129ce81612ebc565b946020939093013593505050565b6000806000606084860312156129f157600080fd5b833567ffffffffffffffff811115612a0857600080fd5b612a1486828701612856565b9660208601359650604090950135949350505050565b600060208284031215612a3c57600080fd5b5035919050565b60008060408385031215612a5657600080fd5b82359150602083013567ffffffffffffffff81111561294157600080fd5b60008060408385031215612a8757600080fd5b50508035926020909101359150565b60008151808452612aae816020860160208601612dde565b601f01601f19169290920160200192915050565b60008251612ad4818460208701612dde565b9190910192915050565b6001600160a01b0384168152600060208481840152606060408401526000845481600182811c915080831680612b1557607f831692505b858310811415612b3357634e487b7160e01b85526022600452602485fd5b6060880183905260808801818015612b525760018114612b6357612b8e565b60ff19861682528782019650612b8e565b60008b81526020902060005b86811015612b8857815484820152908501908901612b6f565b83019750505b50949b9a5050505050505050505050565b6000602080830181845280855180835260408601915060408160051b870101925083870160005b82811015612bf457603f19888603018452612be2858351612a96565b94509285019290850190600101612bc6565b5092979650505050505050565b6020808252825182820181905260009190848201906040850190845b81811015612c3957835183529284019291840191600101612c1d565b50909695505050505050565b6020815260006129006020830184612a96565b8581526001600160a01b038516602082015260a060408201526000612c8060a0830186612a96565b606083019490945250608001529392505050565b8681526001600160a01b038616602082015260c060408201526000612cbc60c0830187612a96565b606083019590955250608081019290925260a0909101529392505050565b8581528460208201526001600160a01b038416604082015282606082015260a060808201526000612d0e60a0830184612a96565b979650505050505050565b8681528560208201526001600160a01b038516604082015283606082015260c060808201526000612d4d60c0830185612a96565b905060078310612d6d57634e487b7160e01b600052602160045260246000fd5b8260a0830152979650505050505050565b8381528260208201526060604082015260006125916060830184612a96565b600082612dba57634e487b7160e01b600052601260045260246000fd5b500490565b6000816000190483118215151615612dd957612dd9612e64565b500290565b60005b83811015612df9578181015183820152602001612de1565b83811115612e08576000848401525b50505050565b600181811c90821680612e2257607f821691505b60208210811415612e4357634e487b7160e01b600052602260045260246000fd5b50919050565b6000600019821415612e5d57612e5d612e64565b5060010190565b634e487b7160e01b600052601160045260246000fd5b634e487b7160e01b600052602160045260246000fd5b634e487b7160e01b600052603260045260246000fd5b634e487b7160e01b600052604160045260246000fd5b6001600160a01b0381168114610b8257600080fdfea2646970667358221220c171d36467aec140474b94614de9ce756eb6d06bd5c553cd302ee42b7409cdba64736f6c63430008060033",
  "devdoc": {
    "author": "Shumpei Koike - <shumpei.koike@bridges.inc>",
    "kind": "dev",
    "methods": {
      "accept(uint256)": {
        "details": "Accepts the proposal if you like the content.",
        "params": {
          "postId": "uint256 of the post ID"
        }
      },
      "adPoolAddress()": {
        "details": "Gets the address of AdPool."
      },
      "bid(uint256,string)": {
        "details": "Bids to the post, sharing what kind of Ads would be public. The owner of the Ad space can select the one according to not only the price but also the preference inside the metadata.",
        "params": {
          "metadata": "string of the hashed path to the storage",
          "postId": "uint256 of the post ID"
        }
      },
      "book(uint256)": {
        "details": "Books to the post without any specific metadata.",
        "params": {
          "postId": "uint256 of the post ID"
        }
      },
      "call(uint256)": {
        "details": "Calls the book related with the bidId. The NFT representing a right to propose is sent to the bidder in this function.",
        "params": {
          "bidId": "uint256 of the bid ID"
        }
      },
      "close(uint256)": {
        "details": "Closes the offering and mints the NFT to the successful bidder. The amount would be paid to the post owner.",
        "params": {
          "bidId": "uint256 of the bid ID"
        }
      },
      "deny(uint256)": {
        "details": "Denies the proposal if you dislike the content.",
        "params": {
          "postId": "uint256 of the post ID"
        }
      },
      "displayByMetadata(address,string)": {
        "details": "Returns metadata hash that the account is supposed to deliver.",
        "params": {
          "account": "address of the post owner",
          "metadata": "string of the media metadata"
        }
      },
      "distributionRightAddress()": {
        "details": "Gets the address of DistributionRight."
      },
      "nameRegistryAddress()": {
        "details": "Gets the address of NameRegistry"
      },
      "newPost(string,uint256,uint256)": {
        "details": "Creates a new post where the owner who has the advertising area can public the space. The basic infomation of the area is described on the storage, which is accessed by the metadata hash.",
        "params": {
          "fromTimestamp": "uint256 of the timestamp to display the ad",
          "metadata": "string of the hashed path to the storage",
          "toTimestamp": "uint256 of the timestamp to display the ad"
        }
      },
      "owner()": {
        "details": "Gets the owner address."
      },
      "propose(uint256,string)": {
        "details": "Proposes metadata to the book.",
        "params": {
          "metadata": "string of the hashed path to the storage",
          "postId": "uint256 of the post ID"
        }
      },
      "refund(uint256)": {
        "details": "Can refund the amount if you want to cancel or the other is determinted as the successful bidder.",
        "params": {
          "bidId": "uint256 of the bid ID"
        }
      },
      "reservedRightAddress()": {
        "details": "Gets the address of ReservedRight."
      },
      "vaultAddress()": {
        "details": "Gets the address of Vault."
      }
    },
    "title": "AdManager - allows anyone to create a post and bit to the post.",
    "version": 1
  },
  "userdoc": {
    "kind": "user",
    "methods": {},
    "version": 1
  },
  "storageLayout": {
    "storage": [
      {
        "astId": 1643,
        "contract": "contracts/AdManager.sol:AdManager",
        "label": "_nameRegistry",
        "offset": 0,
        "slot": "0",
        "type": "t_contract(NameRegistry)1858"
      },
      {
        "astId": 572,
        "contract": "contracts/AdManager.sol:AdManager",
        "label": "allPosts",
        "offset": 0,
        "slot": "1",
        "type": "t_mapping(t_uint256,t_struct(PostContent)553_storage)"
      },
      {
        "astId": 579,
        "contract": "contracts/AdManager.sol:AdManager",
        "label": "inventories",
        "offset": 0,
        "slot": "2",
        "type": "t_mapping(t_address,t_mapping(t_string_memory_ptr,t_array(t_uint256)dyn_storage))"
      },
      {
        "astId": 584,
        "contract": "contracts/AdManager.sol:AdManager",
        "label": "bidders",
        "offset": 0,
        "slot": "3",
        "type": "t_mapping(t_uint256,t_array(t_uint256)dyn_storage)"
      },
      {
        "astId": 588,
        "contract": "contracts/AdManager.sol:AdManager",
        "label": "bookedBidIds",
        "offset": 0,
        "slot": "4",
        "type": "t_mapping(t_uint256,t_uint256)"
      },
      {
        "astId": 593,
        "contract": "contracts/AdManager.sol:AdManager",
        "label": "bidderInfo",
        "offset": 0,
        "slot": "5",
        "type": "t_mapping(t_uint256,t_struct(Bidder)567_storage)"
      },
      {
        "astId": 598,
        "contract": "contracts/AdManager.sol:AdManager",
        "label": "mediaMetadata",
        "offset": 0,
        "slot": "6",
        "type": "t_mapping(t_address,t_array(t_string_storage)dyn_storage)"
      },
      {
        "astId": 601,
        "contract": "contracts/AdManager.sol:AdManager",
        "label": "nextPostId",
        "offset": 0,
        "slot": "7",
        "type": "t_uint256"
      },
      {
        "astId": 604,
        "contract": "contracts/AdManager.sol:AdManager",
        "label": "nextBidId",
        "offset": 0,
        "slot": "8",
        "type": "t_uint256"
      },
      {
        "astId": 607,
        "contract": "contracts/AdManager.sol:AdManager",
        "label": "_baseURI",
        "offset": 0,
        "slot": "9",
        "type": "t_string_storage"
      }
    ],
    "types": {
      "t_address": {
        "encoding": "inplace",
        "label": "address",
        "numberOfBytes": "20"
      },
      "t_array(t_string_storage)dyn_storage": {
        "base": "t_string_storage",
        "encoding": "dynamic_array",
        "label": "string[]",
        "numberOfBytes": "32"
      },
      "t_array(t_uint256)dyn_storage": {
        "base": "t_uint256",
        "encoding": "dynamic_array",
        "label": "uint256[]",
        "numberOfBytes": "32"
      },
      "t_contract(NameRegistry)1858": {
        "encoding": "inplace",
        "label": "contract NameRegistry",
        "numberOfBytes": "20"
      },
      "t_enum(DraftStatus)540": {
        "encoding": "inplace",
        "label": "enum AdManager.DraftStatus",
        "numberOfBytes": "1"
      },
      "t_mapping(t_address,t_array(t_string_storage)dyn_storage)": {
        "encoding": "mapping",
        "key": "t_address",
        "label": "mapping(address => string[])",
        "numberOfBytes": "32",
        "value": "t_array(t_string_storage)dyn_storage"
      },
      "t_mapping(t_address,t_mapping(t_string_memory_ptr,t_array(t_uint256)dyn_storage))": {
        "encoding": "mapping",
        "key": "t_address",
        "label": "mapping(address => mapping(string => uint256[]))",
        "numberOfBytes": "32",
        "value": "t_mapping(t_string_memory_ptr,t_array(t_uint256)dyn_storage)"
      },
      "t_mapping(t_string_memory_ptr,t_array(t_uint256)dyn_storage)": {
        "encoding": "mapping",
        "key": "t_string_memory_ptr",
        "label": "mapping(string => uint256[])",
        "numberOfBytes": "32",
        "value": "t_array(t_uint256)dyn_storage"
      },
      "t_mapping(t_uint256,t_array(t_uint256)dyn_storage)": {
        "encoding": "mapping",
        "key": "t_uint256",
        "label": "mapping(uint256 => uint256[])",
        "numberOfBytes": "32",
        "value": "t_array(t_uint256)dyn_storage"
      },
      "t_mapping(t_uint256,t_struct(Bidder)567_storage)": {
        "encoding": "mapping",
        "key": "t_uint256",
        "label": "mapping(uint256 => struct AdManager.Bidder)",
        "numberOfBytes": "32",
        "value": "t_struct(Bidder)567_storage"
      },
      "t_mapping(t_uint256,t_struct(PostContent)553_storage)": {
        "encoding": "mapping",
        "key": "t_uint256",
        "label": "mapping(uint256 => struct AdManager.PostContent)",
        "numberOfBytes": "32",
        "value": "t_struct(PostContent)553_storage"
      },
      "t_mapping(t_uint256,t_uint256)": {
        "encoding": "mapping",
        "key": "t_uint256",
        "label": "mapping(uint256 => uint256)",
        "numberOfBytes": "32",
        "value": "t_uint256"
      },
      "t_string_memory_ptr": {
        "encoding": "bytes",
        "label": "string",
        "numberOfBytes": "32"
      },
      "t_string_storage": {
        "encoding": "bytes",
        "label": "string",
        "numberOfBytes": "32"
      },
      "t_struct(Bidder)567_storage": {
        "encoding": "inplace",
        "label": "struct AdManager.Bidder",
        "members": [
          {
            "astId": 555,
            "contract": "contracts/AdManager.sol:AdManager",
            "label": "bidId",
            "offset": 0,
            "slot": "0",
            "type": "t_uint256"
          },
          {
            "astId": 557,
            "contract": "contracts/AdManager.sol:AdManager",
            "label": "postId",
            "offset": 0,
            "slot": "1",
            "type": "t_uint256"
          },
          {
            "astId": 559,
            "contract": "contracts/AdManager.sol:AdManager",
            "label": "sender",
            "offset": 0,
            "slot": "2",
            "type": "t_address"
          },
          {
            "astId": 561,
            "contract": "contracts/AdManager.sol:AdManager",
            "label": "price",
            "offset": 0,
            "slot": "3",
            "type": "t_uint256"
          },
          {
            "astId": 563,
            "contract": "contracts/AdManager.sol:AdManager",
            "label": "metadata",
            "offset": 0,
            "slot": "4",
            "type": "t_string_storage"
          },
          {
            "astId": 566,
            "contract": "contracts/AdManager.sol:AdManager",
            "label": "status",
            "offset": 0,
            "slot": "5",
            "type": "t_enum(DraftStatus)540"
          }
        ],
        "numberOfBytes": "192"
      },
      "t_struct(PostContent)553_storage": {
        "encoding": "inplace",
        "label": "struct AdManager.PostContent",
        "members": [
          {
            "astId": 542,
            "contract": "contracts/AdManager.sol:AdManager",
            "label": "postId",
            "offset": 0,
            "slot": "0",
            "type": "t_uint256"
          },
          {
            "astId": 544,
            "contract": "contracts/AdManager.sol:AdManager",
            "label": "owner",
            "offset": 0,
            "slot": "1",
            "type": "t_address"
          },
          {
            "astId": 546,
            "contract": "contracts/AdManager.sol:AdManager",
            "label": "metadata",
            "offset": 0,
            "slot": "2",
            "type": "t_string_storage"
          },
          {
            "astId": 548,
            "contract": "contracts/AdManager.sol:AdManager",
            "label": "fromTimestamp",
            "offset": 0,
            "slot": "3",
            "type": "t_uint256"
          },
          {
            "astId": 550,
            "contract": "contracts/AdManager.sol:AdManager",
            "label": "toTimestamp",
            "offset": 0,
            "slot": "4",
            "type": "t_uint256"
          },
          {
            "astId": 552,
            "contract": "contracts/AdManager.sol:AdManager",
            "label": "successfulBidId",
            "offset": 0,
            "slot": "5",
            "type": "t_uint256"
          }
        ],
        "numberOfBytes": "192"
      },
      "t_uint256": {
        "encoding": "inplace",
        "label": "uint256",
        "numberOfBytes": "32"
      }
    }
  }
}