{
  "address": "0xCC985362858FcEa2879a3401949795F7C22BA41B",
  "abi": [
    {
      "anonymous": false,
      "inputs": [
        {
          "indexed": true,
          "internalType": "address",
          "name": "owner",
          "type": "address"
        },
        {
          "indexed": true,
          "internalType": "address",
          "name": "approved",
          "type": "address"
        },
        {
          "indexed": true,
          "internalType": "uint256",
          "name": "tokenId",
          "type": "uint256"
        }
      ],
      "name": "Approval",
      "type": "event"
    },
    {
      "anonymous": false,
      "inputs": [
        {
          "indexed": true,
          "internalType": "address",
          "name": "owner",
          "type": "address"
        },
        {
          "indexed": true,
          "internalType": "address",
          "name": "operator",
          "type": "address"
        },
        {
          "indexed": false,
          "internalType": "bool",
          "name": "approved",
          "type": "bool"
        }
      ],
      "name": "ApprovalForAll",
      "type": "event"
    },
    {
      "anonymous": false,
      "inputs": [
        {
          "indexed": true,
          "internalType": "address",
          "name": "from",
          "type": "address"
        },
        {
          "indexed": true,
          "internalType": "address",
          "name": "to",
          "type": "address"
        },
        {
          "indexed": true,
          "internalType": "uint256",
          "name": "tokenId",
          "type": "uint256"
        }
      ],
      "name": "Transfer",
      "type": "event"
    },
    {
      "inputs": [
        {
          "internalType": "uint256",
          "name": "tokenId",
          "type": "uint256"
        }
      ],
      "name": "accept",
      "outputs": [],
      "stateMutability": "nonpayable",
      "type": "function"
    },
    {
      "inputs": [
        {
          "internalType": "uint256",
          "name": "tokenId",
          "type": "uint256"
        },
        {
          "internalType": "string",
          "name": "tokenMetadata",
          "type": "string"
        }
      ],
      "name": "acceptOffer",
      "outputs": [],
      "stateMutability": "nonpayable",
      "type": "function"
    },
    {
      "inputs": [
        {
          "internalType": "uint256",
          "name": "",
          "type": "uint256"
        }
      ],
      "name": "accepted",
      "outputs": [
        {
          "internalType": "string",
          "name": "",
          "type": "string"
        }
      ],
      "stateMutability": "view",
      "type": "function"
    },
    {
      "inputs": [
        {
          "internalType": "string",
          "name": "spaceMetadata",
          "type": "string"
        },
        {
          "internalType": "uint256",
          "name": "displayStartTimestamp",
          "type": "uint256"
        },
        {
          "internalType": "uint256",
          "name": "displayEndTimestamp",
          "type": "uint256"
        }
      ],
      "name": "adId",
      "outputs": [
        {
          "internalType": "uint256",
          "name": "",
          "type": "uint256"
        }
      ],
      "stateMutability": "pure",
      "type": "function"
    },
    {
      "inputs": [],
      "name": "adPoolAddress",
      "outputs": [
        {
          "internalType": "address",
          "name": "",
          "type": "address"
        }
      ],
      "stateMutability": "view",
      "type": "function"
    },
    {
      "inputs": [
        {
          "internalType": "uint256",
          "name": "",
          "type": "uint256"
        }
      ],
      "name": "allPeriods",
      "outputs": [
        {
          "internalType": "address",
          "name": "mediaProxy",
          "type": "address"
        },
        {
          "internalType": "string",
          "name": "spaceMetadata",
          "type": "string"
        },
        {
          "internalType": "string",
          "name": "tokenMetadata",
          "type": "string"
        },
        {
          "internalType": "uint256",
          "name": "saleStartTimestamp",
          "type": "uint256"
        },
        {
          "internalType": "uint256",
          "name": "saleEndTimestamp",
          "type": "uint256"
        },
        {
          "internalType": "uint256",
          "name": "displayStartTimestamp",
          "type": "uint256"
        },
        {
          "internalType": "uint256",
          "name": "displayEndTimestamp",
          "type": "uint256"
        },
        {
          "internalType": "enum Ad.Pricing",
          "name": "pricing",
          "type": "uint8"
        },
        {
          "internalType": "uint256",
          "name": "minPrice",
          "type": "uint256"
        },
        {
          "internalType": "uint256",
          "name": "startPrice",
          "type": "uint256"
        },
        {
          "internalType": "bool",
          "name": "sold",
          "type": "bool"
        }
      ],
      "stateMutability": "view",
      "type": "function"
    },
    {
      "inputs": [
        {
          "internalType": "address",
          "name": "to",
          "type": "address"
        },
        {
          "internalType": "uint256",
          "name": "tokenId",
          "type": "uint256"
        }
      ],
      "name": "approve",
      "outputs": [],
      "stateMutability": "nonpayable",
      "type": "function"
    },
    {
      "inputs": [],
      "name": "balance",
      "outputs": [
        {
          "internalType": "uint256",
          "name": "",
          "type": "uint256"
        }
      ],
      "stateMutability": "view",
      "type": "function"
    },
    {
      "inputs": [
        {
          "internalType": "address",
          "name": "owner",
          "type": "address"
        }
      ],
      "name": "balanceOf",
      "outputs": [
        {
          "internalType": "uint256",
          "name": "",
          "type": "uint256"
        }
      ],
      "stateMutability": "view",
      "type": "function"
    },
    {
      "inputs": [
        {
          "internalType": "uint256",
          "name": "tokenId",
          "type": "uint256"
        }
      ],
      "name": "bid",
      "outputs": [],
      "stateMutability": "payable",
      "type": "function"
    },
    {
      "inputs": [
        {
          "internalType": "uint256",
          "name": "",
          "type": "uint256"
        }
      ],
      "name": "bidding",
      "outputs": [
        {
          "internalType": "uint256",
          "name": "tokenId",
          "type": "uint256"
        },
        {
          "internalType": "address",
          "name": "bidder",
          "type": "address"
        },
        {
          "internalType": "uint256",
          "name": "price",
          "type": "uint256"
        }
      ],
      "stateMutability": "view",
      "type": "function"
    },
    {
      "inputs": [
        {
          "internalType": "uint256",
          "name": "tokenId",
          "type": "uint256"
        }
      ],
      "name": "buy",
      "outputs": [],
      "stateMutability": "payable",
      "type": "function"
    },
    {
      "inputs": [
        {
          "internalType": "uint256",
          "name": "tokenId",
          "type": "uint256"
        }
      ],
      "name": "buyBasedOnTime",
      "outputs": [],
      "stateMutability": "payable",
      "type": "function"
    },
    {
      "inputs": [
        {
          "internalType": "uint256",
          "name": "tokenId",
          "type": "uint256"
        }
      ],
      "name": "currentPrice",
      "outputs": [
        {
          "internalType": "uint256",
          "name": "",
          "type": "uint256"
        }
      ],
      "stateMutability": "view",
      "type": "function"
    },
    {
      "inputs": [
        {
          "internalType": "uint256",
          "name": "tokenId",
          "type": "uint256"
        }
      ],
      "name": "deletePeriod",
      "outputs": [],
      "stateMutability": "nonpayable",
      "type": "function"
    },
    {
      "inputs": [
        {
          "internalType": "uint256",
          "name": "",
          "type": "uint256"
        }
      ],
      "name": "deniedReason",
      "outputs": [
        {
          "internalType": "string",
          "name": "",
          "type": "string"
        }
      ],
      "stateMutability": "view",
      "type": "function"
    },
    {
      "inputs": [
        {
          "internalType": "uint256",
          "name": "tokenId",
          "type": "uint256"
        },
        {
          "internalType": "string",
          "name": "reason",
          "type": "string"
        }
      ],
      "name": "deny",
      "outputs": [],
      "stateMutability": "nonpayable",
      "type": "function"
    },
    {
      "inputs": [
        {
          "internalType": "string",
          "name": "spaceMetadata",
          "type": "string"
        }
      ],
      "name": "display",
      "outputs": [
        {
          "internalType": "string",
          "name": "",
          "type": "string"
        }
      ],
      "stateMutability": "view",
      "type": "function"
    },
    {
      "inputs": [],
      "name": "eventEmitterAddress",
      "outputs": [
        {
          "internalType": "address",
          "name": "",
          "type": "address"
        }
      ],
      "stateMutability": "view",
      "type": "function"
    },
    {
      "inputs": [
        {
          "internalType": "uint256",
          "name": "tokenId",
          "type": "uint256"
        }
      ],
      "name": "getApproved",
      "outputs": [
        {
          "internalType": "address",
          "name": "",
          "type": "address"
        }
      ],
      "stateMutability": "view",
      "type": "function"
    },
    {
      "inputs": [
        {
          "internalType": "string",
          "name": "title",
          "type": "string"
        },
        {
          "internalType": "string",
          "name": "baseURI",
          "type": "string"
        },
        {
          "internalType": "address",
          "name": "nameRegistry",
          "type": "address"
        }
      ],
      "name": "initialize",
      "outputs": [],
      "stateMutability": "nonpayable",
      "type": "function"
    },
    {
      "inputs": [
        {
          "internalType": "address",
          "name": "owner",
          "type": "address"
        },
        {
          "internalType": "address",
          "name": "operator",
          "type": "address"
        }
      ],
      "name": "isApprovedForAll",
      "outputs": [
        {
          "internalType": "bool",
          "name": "",
          "type": "bool"
        }
      ],
      "stateMutability": "view",
      "type": "function"
    },
    {
      "inputs": [],
      "name": "mediaFactoryAddress",
      "outputs": [
        {
          "internalType": "address",
          "name": "",
          "type": "address"
        }
      ],
      "stateMutability": "view",
      "type": "function"
    },
    {
      "inputs": [],
      "name": "mediaRegistryAddress",
      "outputs": [
        {
          "internalType": "address",
          "name": "",
          "type": "address"
        }
      ],
      "stateMutability": "view",
      "type": "function"
    },
    {
      "inputs": [],
      "name": "name",
      "outputs": [
        {
          "internalType": "string",
          "name": "",
          "type": "string"
        }
      ],
      "stateMutability": "view",
      "type": "function"
    },
    {
      "inputs": [],
      "name": "nameRegistryAddress",
      "outputs": [
        {
          "internalType": "address",
          "name": "",
          "type": "address"
        }
      ],
      "stateMutability": "view",
      "type": "function"
    },
    {
      "inputs": [
        {
          "internalType": "string",
          "name": "spaceMetadata",
          "type": "string"
        },
        {
          "internalType": "string",
          "name": "tokenMetadata",
          "type": "string"
        },
        {
          "internalType": "uint256",
          "name": "saleEndTimestamp",
          "type": "uint256"
        },
        {
          "internalType": "uint256",
          "name": "displayStartTimestamp",
          "type": "uint256"
        },
        {
          "internalType": "uint256",
          "name": "displayEndTimestamp",
          "type": "uint256"
        },
        {
          "internalType": "enum Ad.Pricing",
          "name": "pricing",
          "type": "uint8"
        },
        {
          "internalType": "uint256",
          "name": "minPrice",
          "type": "uint256"
        }
      ],
      "name": "newPeriod",
      "outputs": [],
      "stateMutability": "nonpayable",
      "type": "function"
    },
    {
      "inputs": [
        {
          "internalType": "string",
          "name": "spaceMetadata",
          "type": "string"
        }
      ],
      "name": "newSpace",
      "outputs": [],
      "stateMutability": "nonpayable",
      "type": "function"
    },
    {
      "inputs": [
        {
          "internalType": "string",
          "name": "spaceMetadata",
          "type": "string"
        },
        {
          "internalType": "uint256",
          "name": "displayStartTimestamp",
          "type": "uint256"
        },
        {
          "internalType": "uint256",
          "name": "displayEndTimestamp",
          "type": "uint256"
        }
      ],
      "name": "offerPeriod",
      "outputs": [],
      "stateMutability": "payable",
      "type": "function"
    },
    {
      "inputs": [
        {
          "internalType": "uint256",
          "name": "",
          "type": "uint256"
        }
      ],
      "name": "offered",
      "outputs": [
        {
          "internalType": "string",
          "name": "spaceMetadata",
          "type": "string"
        },
        {
          "internalType": "uint256",
          "name": "displayStartTimestamp",
          "type": "uint256"
        },
        {
          "internalType": "uint256",
          "name": "displayEndTimestamp",
          "type": "uint256"
        },
        {
          "internalType": "address",
          "name": "sender",
          "type": "address"
        },
        {
          "internalType": "uint256",
          "name": "price",
          "type": "uint256"
        }
      ],
      "stateMutability": "view",
      "type": "function"
    },
    {
      "inputs": [],
      "name": "owner",
      "outputs": [
        {
          "internalType": "address",
          "name": "",
          "type": "address"
        }
      ],
      "stateMutability": "view",
      "type": "function"
    },
    {
      "inputs": [
        {
          "internalType": "uint256",
          "name": "tokenId",
          "type": "uint256"
        }
      ],
      "name": "ownerOf",
      "outputs": [
        {
          "internalType": "address",
          "name": "",
          "type": "address"
        }
      ],
      "stateMutability": "view",
      "type": "function"
    },
    {
      "inputs": [
        {
          "internalType": "uint256",
          "name": "tokenId",
          "type": "uint256"
        },
        {
          "internalType": "string",
          "name": "metadata",
          "type": "string"
        }
      ],
      "name": "propose",
      "outputs": [],
      "stateMutability": "nonpayable",
      "type": "function"
    },
    {
      "inputs": [
        {
          "internalType": "uint256",
          "name": "",
          "type": "uint256"
        }
      ],
      "name": "proposed",
      "outputs": [
        {
          "internalType": "string",
          "name": "",
          "type": "string"
        }
      ],
      "stateMutability": "view",
      "type": "function"
    },
    {
      "inputs": [
        {
          "internalType": "uint256",
          "name": "tokenId",
          "type": "uint256"
        }
      ],
      "name": "receiveToken",
      "outputs": [],
      "stateMutability": "payable",
      "type": "function"
    },
    {
      "inputs": [
        {
          "internalType": "address",
          "name": "from",
          "type": "address"
        },
        {
          "internalType": "address",
          "name": "to",
          "type": "address"
        },
        {
          "internalType": "uint256",
          "name": "tokenId",
          "type": "uint256"
        }
      ],
      "name": "safeTransferFrom",
      "outputs": [],
      "stateMutability": "nonpayable",
      "type": "function"
    },
    {
      "inputs": [
        {
          "internalType": "address",
          "name": "from",
          "type": "address"
        },
        {
          "internalType": "address",
          "name": "to",
          "type": "address"
        },
        {
          "internalType": "uint256",
          "name": "tokenId",
          "type": "uint256"
        },
        {
          "internalType": "bytes",
          "name": "_data",
          "type": "bytes"
        }
      ],
      "name": "safeTransferFrom",
      "outputs": [],
      "stateMutability": "nonpayable",
      "type": "function"
    },
    {
      "inputs": [
        {
          "internalType": "address",
          "name": "operator",
          "type": "address"
        },
        {
          "internalType": "bool",
          "name": "approved",
          "type": "bool"
        }
      ],
      "name": "setApprovalForAll",
      "outputs": [],
      "stateMutability": "nonpayable",
      "type": "function"
    },
    {
      "inputs": [
        {
          "internalType": "string",
          "name": "",
          "type": "string"
        }
      ],
      "name": "spaced",
      "outputs": [
        {
          "internalType": "bool",
          "name": "",
          "type": "bool"
        }
      ],
      "stateMutability": "view",
      "type": "function"
    },
    {
      "inputs": [
        {
          "internalType": "bytes4",
          "name": "interfaceId",
          "type": "bytes4"
        }
      ],
      "name": "supportsInterface",
      "outputs": [
        {
          "internalType": "bool",
          "name": "",
          "type": "bool"
        }
      ],
      "stateMutability": "pure",
      "type": "function"
    },
    {
      "inputs": [],
      "name": "symbol",
      "outputs": [
        {
          "internalType": "string",
          "name": "",
          "type": "string"
        }
      ],
      "stateMutability": "view",
      "type": "function"
    },
    {
      "inputs": [
        {
          "internalType": "uint256",
          "name": "index",
          "type": "uint256"
        }
      ],
      "name": "tokenByIndex",
      "outputs": [
        {
          "internalType": "uint256",
          "name": "",
          "type": "uint256"
        }
      ],
      "stateMutability": "view",
      "type": "function"
    },
    {
      "inputs": [
        {
          "internalType": "string",
          "name": "spaceMetadata",
          "type": "string"
        }
      ],
      "name": "tokenIdsOf",
      "outputs": [
        {
          "internalType": "uint256[]",
          "name": "",
          "type": "uint256[]"
        }
      ],
      "stateMutability": "view",
      "type": "function"
    },
    {
      "inputs": [
        {
          "internalType": "address",
          "name": "owner",
          "type": "address"
        },
        {
          "internalType": "uint256",
          "name": "index",
          "type": "uint256"
        }
      ],
      "name": "tokenOfOwnerByIndex",
      "outputs": [
        {
          "internalType": "uint256",
          "name": "",
          "type": "uint256"
        }
      ],
      "stateMutability": "view",
      "type": "function"
    },
    {
      "inputs": [
        {
          "internalType": "uint256",
          "name": "tokenId",
          "type": "uint256"
        }
      ],
      "name": "tokenURI",
      "outputs": [
        {
          "internalType": "string",
          "name": "",
          "type": "string"
        }
      ],
      "stateMutability": "view",
      "type": "function"
    },
    {
      "inputs": [],
      "name": "totalSupply",
      "outputs": [
        {
          "internalType": "uint256",
          "name": "",
          "type": "uint256"
        }
      ],
      "stateMutability": "view",
      "type": "function"
    },
    {
      "inputs": [
        {
          "internalType": "address",
          "name": "from",
          "type": "address"
        },
        {
          "internalType": "address",
          "name": "to",
          "type": "address"
        },
        {
          "internalType": "uint256",
          "name": "tokenId",
          "type": "uint256"
        }
      ],
      "name": "transferFrom",
      "outputs": [],
      "stateMutability": "nonpayable",
      "type": "function"
    },
    {
      "inputs": [
        {
          "internalType": "address",
          "name": "from",
          "type": "address"
        },
        {
          "internalType": "address",
          "name": "to",
          "type": "address"
        },
        {
          "internalType": "uint256",
          "name": "tokenId",
          "type": "uint256"
        }
      ],
      "name": "transferToBundle",
      "outputs": [],
      "stateMutability": "nonpayable",
      "type": "function"
    },
    {
      "inputs": [
        {
          "internalType": "address",
          "name": "newMediaEOA",
          "type": "address"
        },
        {
          "internalType": "string",
          "name": "newMetadata",
          "type": "string"
        }
      ],
      "name": "updateMedia",
      "outputs": [],
      "stateMutability": "nonpayable",
      "type": "function"
    },
    {
      "inputs": [],
      "name": "vaultAddress",
      "outputs": [
        {
          "internalType": "address",
          "name": "",
          "type": "address"
        }
      ],
      "stateMutability": "view",
      "type": "function"
    },
    {
      "inputs": [],
      "name": "withdraw",
      "outputs": [],
      "stateMutability": "nonpayable",
      "type": "function"
    }
  ],
  "transactionHash": "0xda1f1b56ca12d5c3b757f6671c09a2847ba2bd1aca1995f3fc0b1647a4df6663",
  "args": [],
  "solcInputHash": "e8d9bb358a5713c49109d8869137d9b3",
  "bytecode": "0x608060405234801561001057600080fd5b506001601655615d7580620000266000396000f3fe6080604052600436106103345760003560e01c806365045a65116101b0578063b88d4fde116100ec578063d1b900cd11610095578063d96a094a1161006f578063d96a094a14610955578063e985e9c514610968578063f0726291146109b1578063f19b8273146109c657600080fd5b8063d1b900cd14610902578063d4f6b5ec14610922578063d86800691461094257600080fd5b8063c9cd71b5116100c6578063c9cd71b514610858578063cc889b0b1461086d578063d028bd66146108d557600080fd5b8063b88d4fde146107f8578063c531c23614610818578063c87b56dd1461083857600080fd5b80638da5cb5b11610159578063a22cb46511610133578063a22cb4651461076e578063a9a86f0e1461078e578063b3a0ebc9146107ae578063b69ef8a8146107e557600080fd5b80638da5cb5b1461072f5780638f6059d61461074457806395d89b411461075957600080fd5b80637393f2891161018a5780637393f289146106cf5780637a3c4c17146106ef578063899c99891461070f57600080fd5b806365045a651461065f5780636a58767e1461069a57806370a08231146106af57600080fd5b80632bc4bc681161027f578063444115f6116102285780634f6ccce7116102025780634f6ccce7146105df57806353c14776146105ff57806358ba1bb81461061f5780636352211e1461063f57600080fd5b8063444115f61461058c578063454a2ab3146105ac5780634b455a51146105bf57600080fd5b80633ccfd60b116102595780633ccfd60b1461054257806342842e0e14610557578063430bf08a1461057757600080fd5b80632bc4bc68146104ef5780632f745c591461050f57806337df00c91461052f57600080fd5b8063179bcff7116102e15780631daf7ff9116102bb5780631daf7ff91461049e57806323b872dd146104b157806327b7a2f5146104d157600080fd5b8063179bcff71461043f57806318160ddd1461045f57806319b05f491461047e57600080fd5b8063077f224a11610312578063077f224a146103c5578063081812fc146103e7578063095ea7b31461041f57600080fd5b806301b99e041461033957806301ffc9a71461037357806306fdde03146103a3575b600080fd5b34801561034557600080fd5b506103596103543660046151bf565b6109e6565b60405161036a959493929190615230565b60405180910390f35b34801561037f57600080fd5b5061039361038e366004615286565b610aa9565b604051901515815260200161036a565b3480156103af57600080fd5b506103b8610b12565b60405161036a91906152a3565b3480156103d157600080fd5b506103e56103e0366004615377565b610ba4565b005b3480156103f357600080fd5b506104076104023660046151bf565b610c27565b6040516001600160a01b03909116815260200161036a565b34801561042b57600080fd5b506103e561043a3660046153ef565b610cc1565b34801561044b57600080fd5b506103e561045a36600461541b565b610dee565b34801561046b57600080fd5b50600b545b60405190815260200161036a565b34801561048a57600080fd5b506103e56104993660046151bf565b610f82565b6103e56104ac36600461546b565b611215565b3480156104bd57600080fd5b506103e56104cc3660046154b9565b611513565b3480156104dd57600080fd5b506010546001600160a01b0316610407565b3480156104fb57600080fd5b506103e561050a3660046154fa565b61159a565b34801561051b57600080fd5b5061047061052a3660046153ef565b611666565b6103e561053d3660046151bf565b61170e565b34801561054e57600080fd5b506103e5611890565b34801561056357600080fd5b506103e56105723660046154b9565b6119ea565b34801561058357600080fd5b50610407611a05565b34801561059857600080fd5b506103e56105a736600461552f565b611ad1565b6103e56105ba3660046151bf565b611eff565b3480156105cb57600080fd5b506103e56105da3660046151bf565b612113565b3480156105eb57600080fd5b506104706105fa3660046151bf565b61240c565b34801561060b57600080fd5b506103b861061a3660046154fa565b6124b0565b34801561062b57600080fd5b506103b861063a3660046151bf565b6127de565b34801561064b57600080fd5b5061040761065a3660046151bf565b612878565b34801561066b57600080fd5b5061039361067a3660046154fa565b805160208183018101805160118252928201919093012091525460ff1681565b3480156106a657600080fd5b506104076128c5565b3480156106bb57600080fd5b506104706106ca366004615560565b61290c565b3480156106db57600080fd5b506103e56106ea36600461552f565b6129a6565b3480156106fb57600080fd5b5061047061070a3660046151bf565b612b90565b34801561071b57600080fd5b506103e561072a36600461557d565b612ebe565b34801561073b57600080fd5b5061040761340e565b34801561075057600080fd5b5061040761346c565b34801561076557600080fd5b506103b86134b3565b34801561077a57600080fd5b506103e5610789366004615620565b6134c2565b34801561079a57600080fd5b506103b86107a93660046151bf565b613587565b3480156107ba57600080fd5b506107ce6107c93660046151bf565b6135a0565b60405161036a9b9a99989796959493929190615696565b3480156107f157600080fd5b5047610470565b34801561080457600080fd5b506103e561081336600461571c565b613717565b34801561082457600080fd5b5061047061083336600461546b565b6137a5565b34801561084457600080fd5b506103b86108533660046151bf565b61383b565b34801561086457600080fd5b506104076139b5565b34801561087957600080fd5b506108b26108883660046151bf565b60146020526000908152604090208054600182015460029092015490916001600160a01b03169083565b604080519384526001600160a01b0390921660208401529082015260600161036a565b3480156108e157600080fd5b506108f56108f03660046154fa565b6139fc565b60405161036a919061579c565b34801561090e57600080fd5b506103e561091d3660046154b9565b61158f565b34801561092e57600080fd5b506103e561093d36600461552f565b613a6c565b6103e56109503660046151bf565b613af3565b6103e56109633660046151bf565b613cb6565b34801561097457600080fd5b506103936109833660046157e0565b6001600160a01b03918216600090815260086020908152604080832093909416825291909152205460ff1690565b3480156109bd57600080fd5b50610407613d80565b3480156109d257600080fd5b506103b86109e13660046151bf565b613dc7565b601560205260009081526040902080548190610a019061580e565b80601f0160208091040260200160405190810160405280929190818152602001828054610a2d9061580e565b8015610a7a5780601f10610a4f57610100808354040283529160200191610a7a565b820191906000526020600020905b815481529060010190602001808311610a5d57829003601f168201915b505050600184015460028501546003860154600490960154949591949093506001600160a01b03909116915085565b60006001600160e01b031982167f80ac58cd000000000000000000000000000000000000000000000000000000001480610b0c57506001600160e01b031982167f5b5e139f00000000000000000000000000000000000000000000000000000000145b92915050565b606060018054610b219061580e565b80601f0160208091040260200160405190810160405280929190818152602001828054610b4d9061580e565b8015610b9a5780601f10610b6f57610100808354040283529160200191610b9a565b820191906000526020600020905b815481529060010190602001808311610b7d57829003601f168201915b5050505050905090565b8251610bb79060019060208601906150f0565b5082604051602001610bc99190615849565b60405160208183030381529060405260029080519060200190610bed9291906150f0565b508151610c019060039060208501906150f0565b50601080546001600160a01b0319166001600160a01b038316179055505050565b505050565b6000818152600560205260408120546001600160a01b0316610ca55760405162461bcd60e51b815260206004820152602c60248201527f4552433732313a20617070726f76656420717565727920666f72206e6f6e657860448201526b34b9ba32b73a103a37b5b2b760a11b60648201526084015b60405180910390fd5b506000908152600760205260409020546001600160a01b031690565b6000610ccc82612878565b9050806001600160a01b0316836001600160a01b03161415610d565760405162461bcd60e51b815260206004820152602160248201527f4552433732313a20617070726f76616c20746f2063757272656e74206f776e6560448201527f72000000000000000000000000000000000000000000000000000000000000006064820152608401610c9c565b336001600160a01b0382161480610d725750610d728133610983565b610de45760405162461bcd60e51b815260206004820152603860248201527f4552433732313a20617070726f76652063616c6c6572206973206e6f74206f7760448201527f6e6572206e6f7220617070726f76656420666f7220616c6c00000000000000006064820152608401610c9c565b610c228383613de0565b33610df7613e4e565b604051630a57ebcf60e11b81523060048201526001600160a01b0391909116906314afd79e9060240160206040518083038186803b158015610e3857600080fd5b505afa158015610e4c573d6000803e3d6000fd5b505050506040513d601f19601f82011682018060405250810190610e70919061588e565b6001600160a01b031614610eae5760405162461bcd60e51b815260206004820152600560248201526425a218189960d91b6044820152606401610c9c565b610eb6613e4e565b6001600160a01b031663179bcff783836040518363ffffffff1660e01b8152600401610ee39291906158ab565b600060405180830381600087803b158015610efd57600080fd5b505af1158015610f11573d6000803e3d6000fd5b50505050610f1d613e58565b6001600160a01b031663262360133084846040518463ffffffff1660e01b8152600401610f4c939291906158cd565b600060405180830381600087803b158015610f6657600080fd5b505af1158015610f7a573d6000803e3d6000fd5b505050505050565b33610f8b613e4e565b604051630a57ebcf60e11b81523060048201526001600160a01b0391909116906314afd79e9060240160206040518083038186803b158015610fcc57600080fd5b505afa158015610fe0573d6000803e3d6000fd5b505050506040513d601f19601f82011682018060405250810190611004919061588e565b6001600160a01b0316146110425760405162461bcd60e51b815260206004820152600560248201526425a218189960d91b6044820152606401610c9c565b6000818152600d60205260408120805461105b9061580e565b80601f01602080910402602001604051908101604052809291908181526020018280546110879061580e565b80156110d45780601f106110a9576101008083540402835291602001916110d4565b820191906000526020600020905b8154815290600101906020018083116110b757829003601f168201915b505050505090508051600014156111155760405162461bcd60e51b815260206004820152600560248201526404b443133360dc1b6044820152606401610c9c565b600061112083612878565b905061112b83613e62565b6111358383613e97565b61113d613e58565b6001600160a01b031663746f1b2084846040518363ffffffff1660e01b815260040161116a929190615902565b600060405180830381600087803b15801561118457600080fd5b505af1158015611198573d6000803e3d6000fd5b505050506111a4613e58565b60405163465bcf0560e01b81526001600160a01b0383811660048301526000602483015260448201869052919091169063465bcf05906064015b600060405180830381600087803b1580156111f857600080fd5b505af115801561120c573d6000803e3d6000fd5b50505050505050565b3361121e613e4e565b604051630a57ebcf60e11b81523060048201526001600160a01b0391909116906314afd79e9060240160206040518083038186803b15801561125f57600080fd5b505afa158015611273573d6000803e3d6000fd5b505050506040513d601f19601f82011682018060405250810190611297919061588e565b6001600160a01b031614156112d65760405162461bcd60e51b815260206004820152600560248201526412d10c0c4d60da1b6044820152606401610c9c565b6011836040516112e6919061591b565b9081526040519081900360200190205460ff166113455760405162461bcd60e51b815260206004820152600560248201527f4b443130310000000000000000000000000000000000000000000000000000006044820152606401610c9c565b80821061137c5760405162461bcd60e51b81526020600482015260056024820152644b4431313360d81b6044820152606401610c9c565b6040516303fb4aab60e41b8152600090735D1DD9f4232D8Bd861d0A50f882537C3871e4A4190633fb4aab0906113ba90879087908790600401615937565b60206040518083038186803b1580156113d257600080fd5b505af41580156113e6573d6000803e3d6000fd5b505050506040513d601f19601f8201168201806040525081019061140a919061595c565b6040805160a08101825286815260208082018790528183018690523360608301523460808301526000848152601582529290922081518051949550919390926114579284929101906150f0565b50602082015160018201556040820151600282015560608201516003820180546001600160a01b0319166001600160a01b039092169190911790556080909101516004909101556114a6613e58565b6001600160a01b031663f4cb45e58286868633346040518763ffffffff1660e01b81526004016114db96959493929190615975565b600060405180830381600087803b1580156114f557600080fd5b505af1158015611509573d6000803e3d6000fd5b5050505050505050565b61151d3382613ec0565b61158f5760405162461bcd60e51b815260206004820152603160248201527f4552433732313a207472616e736665722063616c6c6572206973206e6f74206f60448201527f776e6572206e6f7220617070726f7665640000000000000000000000000000006064820152608401610c9c565b610c22838383613fb3565b336115a3613e4e565b604051630a57ebcf60e11b81523060048201526001600160a01b0391909116906314afd79e9060240160206040518083038186803b1580156115e457600080fd5b505afa1580156115f8573d6000803e3d6000fd5b505050506040513d601f19601f8201168201806040525081019061161c919061588e565b6001600160a01b03161461165a5760405162461bcd60e51b815260206004820152600560248201526425a218189960d91b6044820152606401610c9c565b6116638161418b565b50565b60006116718361290c565b82106116e55760405162461bcd60e51b815260206004820152602b60248201527f455243373231456e756d657261626c653a206f776e657220696e646578206f7560448201527f74206f6620626f756e64730000000000000000000000000000000000000000006064820152608401610c9c565b506001600160a01b03919091166000908152600960209081526040808320938352929052205490565b60008181526014602052604090206001015481906001600160a01b031633146117795760405162461bcd60e51b815260206004820152600560248201527f4b443132360000000000000000000000000000000000000000000000000000006044820152606401610c9c565b61178282614260565b6000828152601260205260409020600a01805460ff191660011790556117a782614367565b6117af614372565b6117b7613e58565b600083815260146020526040908190206002015490517fd2e163600000000000000000000000000000000000000000000000000000000081526004810185905260248101919091523360448201526001600160a01b03919091169063d2e1636090606401600060405180830381600087803b15801561183557600080fd5b505af1158015611849573d6000803e3d6000fd5b50505050611855613e58565b60405163465bcf0560e01b8152306004820152336024820152604481018490526001600160a01b03919091169063465bcf0590606401610f4c565b33611899613e4e565b604051630a57ebcf60e11b81523060048201526001600160a01b0391909116906314afd79e9060240160206040518083038186803b1580156118da57600080fd5b505afa1580156118ee573d6000803e3d6000fd5b505050506040513d601f19601f82011682018060405250810190611912919061588e565b6001600160a01b0316146119505760405162461bcd60e51b815260206004820152600560248201526425a218189960d91b6044820152606401610c9c565b6040514790339082156108fc029083906000818181858888f1935050505015801561197f573d6000803e3d6000fd5b50611988613e58565b6001600160a01b031663279862cb826040518263ffffffff1660e01b81526004016119b591815260200190565b600060405180830381600087803b1580156119cf57600080fd5b505af11580156119e3573d6000803e3d6000fd5b5050505050565b610c2283838360405180602001604052806000815250613717565b6010546040517f5661756c7400000000000000000000000000000000000000000000000000000060208201526000916001600160a01b031690638eaa6ac0906025015b604051602081830303815290604052805190602001206040518263ffffffff1660e01b8152600401611a7c91815260200190565b60206040518083038186803b158015611a9457600080fd5b505afa158015611aa8573d6000803e3d6000fd5b505050506040513d601f19601f82011682018060405250810190611acc919061588e565b905090565b33611ada613e4e565b604051630a57ebcf60e11b81523060048201526001600160a01b0391909116906314afd79e9060240160206040518083038186803b158015611b1b57600080fd5b505afa158015611b2f573d6000803e3d6000fd5b505050506040513d601f19601f82011682018060405250810190611b53919061588e565b6001600160a01b031614611b915760405162461bcd60e51b815260206004820152600560248201526425a218189960d91b6044820152606401610c9c565b600082815260156020526040808220815160a08101909252805482908290611bb89061580e565b80601f0160208091040260200160405190810160405280929190818152602001828054611be49061580e565b8015611c315780601f10611c0657610100808354040283529160200191611c31565b820191906000526020600020905b815481529060010190602001808311611c1457829003601f168201915b5050509183525050600182015460208201526002820154604082015260038201546001600160a01b039081166060808401919091526004909301546080909201919091529082015191925016611cc95760405162461bcd60e51b815260206004820152600560248201527f4b443131350000000000000000000000000000000000000000000000000000006044820152606401610c9c565b611ce08160000151826020015183604001516143b9565b60408051610160810182523081528251602080830191825282840186905242606084018190526080808501919091528186015160a08501528585015160c0850152600360e085015285018051610100850152516101208401526001610140840181905260008881526012835294909420835181546001600160a01b0319166001600160a01b039091161781559151805193948594611d859391850192909101906150f0565b5060408201518051611da19160028401916020909101906150f0565b50606082015181600301556080820151816004015560a0820151816005015560c0820151816006015560e08201518160070160006101000a81548160ff02191690836003811115611df457611df461565e565b02179055506101008201516008820155610120820151600982015561014090910151600a909101805460ff1916911515919091179055611e348484614688565b611e3c614372565b611e44613e58565b6001600160a01b0316630ca82afb858460000151868660200151876040015188608001516040518763ffffffff1660e01b8152600401611e89969594939291906159bc565b600060405180830381600087803b158015611ea357600080fd5b505af1158015611eb7573d6000803e3d6000fd5b50505050611ec3613e58565b60405163465bcf0560e01b815260006004820152306024820152604481018690526001600160a01b03919091169063465bcf05906064016114db565b33611f08613e4e565b604051630a57ebcf60e11b81523060048201526001600160a01b0391909116906314afd79e9060240160206040518083038186803b158015611f4957600080fd5b505afa158015611f5d573d6000803e3d6000fd5b505050506040513d601f19601f82011682018060405250810190611f81919061588e565b6001600160a01b03161415611fc05760405162461bcd60e51b815260206004820152600560248201526412d10c0c4d60da1b6044820152606401610c9c565b600260165414156120135760405162461bcd60e51b815260206004820152601f60248201527f5265656e7472616e637947756172643a207265656e7472616e742063616c6c006044820152606401610c9c565b6002601655612021816146b1565b61202a81614798565b60408051606081018252828152336020808301918252348385019081526000868152601490925293902091518255516001820180546001600160a01b0319166001600160a01b03909216919091179055905160029091015561208a613e58565b6040517f9e7e11d7000000000000000000000000000000000000000000000000000000008152600481018390523460248201523360448201526001600160a01b039190911690639e7e11d790606401600060405180830381600087803b1580156120f357600080fd5b505af1158015612107573d6000803e3d6000fd5b50506001601655505050565b3361211c613e4e565b604051630a57ebcf60e11b81523060048201526001600160a01b0391909116906314afd79e9060240160206040518083038186803b15801561215d57600080fd5b505afa158015612171573d6000803e3d6000fd5b505050506040513d601f19601f82011682018060405250810190612195919061588e565b6001600160a01b0316146121d35760405162461bcd60e51b815260206004820152600560248201526425a218189960d91b6044820152606401610c9c565b6000818152601260205260409020546001600160a01b031661221f5760405162461bcd60e51b815260206004820152600560248201526412d10c4c4d60da1b6044820152606401610c9c565b3061222982612878565b6001600160a01b0316146122675760405162461bcd60e51b81526020600482015260056024820152644b4431323160d81b6044820152606401610c9c565b61227081614798565b600081815260126020526040812080546001600160a01b03191681559061229a6001830182615174565b6122a8600283016000615174565b5060006003820181905560048201819055600582018190556006820181905560078201805460ff19908116909155600883018290556009830191909155600a909101805490911690556122fa81613e62565b612302614839565b6001600160a01b0316634b455a51826040518263ffffffff1660e01b815260040161232f91815260200190565b600060405180830381600087803b15801561234957600080fd5b505af115801561235d573d6000803e3d6000fd5b50505050612369613e58565b6001600160a01b031663ccb55a98826040518263ffffffff1660e01b815260040161239691815260200190565b600060405180830381600087803b1580156123b057600080fd5b505af11580156123c4573d6000803e3d6000fd5b505050506123d0613e58565b60405163465bcf0560e01b815230600482015260006024820152604481018390526001600160a01b03919091169063465bcf05906064016119b5565b6000612417600b5490565b821061248b5760405162461bcd60e51b815260206004820152602c60248201527f455243373231456e756d657261626c653a20676c6f62616c20696e646578206f60448201527f7574206f6620626f756e647300000000000000000000000000000000000000006064820152608401610c9c565b600b828154811061249e5761249e615a06565b90600052602060002001549050919050565b606060006124bd836139fc565b905060005b81518110156127c7576000601260008484815181106124e3576124e3615a06565b60200260200101518152602001908152602001600020604051806101600160405290816000820160009054906101000a90046001600160a01b03166001600160a01b03166001600160a01b031681526020016001820180546125449061580e565b80601f01602080910402602001604051908101604052809291908181526020018280546125709061580e565b80156125bd5780601f10612592576101008083540402835291602001916125bd565b820191906000526020600020905b8154815290600101906020018083116125a057829003601f168201915b505050505081526020016002820180546125d69061580e565b80601f01602080910402602001604051908101604052809291908181526020018280546126029061580e565b801561264f5780601f106126245761010080835404028352916020019161264f565b820191906000526020600020905b81548152906001019060200180831161263257829003601f168201915b50505091835250506003828101546020830152600483015460408301526005830154606083015260068301546080830152600783015460a09092019160ff169081111561269e5761269e61565e565b60038111156126af576126af61565e565b81526008820154602082015260098201546040820152600a9091015460ff1615156060909101529050428160a00151111580156126f05750428160c0015110155b156127b457600f600084848151811061270b5761270b615a06565b60200260200101518152602001908152602001600020805461272c9061580e565b80601f01602080910402602001604051908101604052809291908181526020018280546127589061580e565b80156127a55780601f1061277a576101008083540402835291602001916127a5565b820191906000526020600020905b81548152906001019060200180831161278857829003601f168201915b50505050509350505050919050565b50806127bf81615a32565b9150506124c2565b505060408051602081019091526000815292915050565b600d60205260009081526040902080546127f79061580e565b80601f01602080910402602001604051908101604052809291908181526020018280546128239061580e565b80156128705780601f1061284557610100808354040283529160200191612870565b820191906000526020600020905b81548152906001019060200180831161285357829003601f168201915b505050505081565b6000818152600560205260408120546001600160a01b031680610b0c5760405162461bcd60e51b815260206004820152600560248201526412d10c4c4d60da1b6044820152606401610c9c565b6010546040517f4d6564696152656769737472790000000000000000000000000000000000000060208201526000916001600160a01b031690638eaa6ac090602d01611a48565b60006001600160a01b03821661298a5760405162461bcd60e51b815260206004820152602a60248201527f4552433732313a2062616c616e636520717565727920666f7220746865207a6560448201527f726f2061646472657373000000000000000000000000000000000000000000006064820152608401610c9c565b506001600160a01b031660009081526006602052604090205490565b336129af613e4e565b604051630a57ebcf60e11b81523060048201526001600160a01b0391909116906314afd79e9060240160206040518083038186803b1580156129f057600080fd5b505afa158015612a04573d6000803e3d6000fd5b505050506040513d601f19601f82011682018060405250810190612a28919061588e565b6001600160a01b031614612a665760405162461bcd60e51b815260206004820152600560248201526425a218189960d91b6044820152606401610c9c565b6000828152600d602052604081208054612a7f9061580e565b80601f0160208091040260200160405190810160405280929190818152602001828054612aab9061580e565b8015612af85780601f10612acd57610100808354040283529160200191612af8565b820191906000526020600020905b815481529060010190602001808311612adb57829003601f168201915b50505050509050805160001415612b395760405162461bcd60e51b815260206004820152600560248201526404b443133360dc1b6044820152606401610c9c565b6000838152600e602090815260409091208351612b58928501906150f0565b50612b61613e58565b6001600160a01b0316636422b7aa8483856040518463ffffffff1660e01b81526004016111de93929190615a4d565b60008181526012602090815260408083208151610160810190925280546001600160a01b03168252600181018054859484019190612bcd9061580e565b80601f0160208091040260200160405190810160405280929190818152602001828054612bf99061580e565b8015612c465780601f10612c1b57610100808354040283529160200191612c46565b820191906000526020600020905b815481529060010190602001808311612c2957829003601f168201915b50505050508152602001600282018054612c5f9061580e565b80601f0160208091040260200160405190810160405280929190818152602001828054612c8b9061580e565b8015612cd85780601f10612cad57610100808354040283529160200191612cd8565b820191906000526020600020905b815481529060010190602001808311612cbb57829003601f168201915b50505091835250506003828101546020830152600483015460408301526005830154606083015260068301546080830152600783015460a09092019160ff1690811115612d2757612d2761565e565b6003811115612d3857612d3861565e565b81526008820154602082015260098201546040820152600a9091015460ff161515606090910152905060008160e001516003811115612d7957612d7961565e565b1415612d8a57610100015192915050565b60018160e001516003811115612da257612da261565e565b1415612e0c5780606001518160800151612dbc9190615a82565b6060820151612dcb9042615a82565b826101000151836101200151612de19190615a82565b612deb9190615a99565b612df59190615ab8565b816101200151612e059190615a82565b9392505050565b60028160e001516003811115612e2457612e2461565e565b1415612e4157505060009081526014602052604090206002015490565b60038160e001516003811115612e5957612e5961565e565b1415612e7657505060009081526015602052604090206004015490565b60405162461bcd60e51b815260206004820152600960248201527f6e6f7420657869737400000000000000000000000000000000000000000000006044820152606401610c9c565b33612ec7613e4e565b604051630a57ebcf60e11b81523060048201526001600160a01b0391909116906314afd79e9060240160206040518083038186803b158015612f0857600080fd5b505afa158015612f1c573d6000803e3d6000fd5b505050506040513d601f19601f82011682018060405250810190612f40919061588e565b6001600160a01b031614612f7e5760405162461bcd60e51b815260206004820152600560248201526425a218189960d91b6044820152606401610c9c565b428511612fcd5760405162461bcd60e51b815260206004820152600560248201527f4b443131310000000000000000000000000000000000000000000000000000006044820152606401610c9c565b83851061301c5760405162461bcd60e51b815260206004820152600560248201527f4b443131320000000000000000000000000000000000000000000000000000006044820152606401610c9c565b8284106130535760405162461bcd60e51b81526020600482015260056024820152644b4431313360d81b6044820152606401610c9c565b601187604051613063919061591b565b9081526040519081900360200190205460ff16613083576130838761418b565b61308e8785856143b9565b6040516303fb4aab60e41b8152600090735D1DD9f4232D8Bd861d0A50f882537C3871e4A4190633fb4aab0906130cc908b9089908990600401615937565b60206040518083038186803b1580156130e457600080fd5b505af41580156130f8573d6000803e3d6000fd5b505050506040513d601f19601f8201168201806040525081019061311c919061595c565b905060138860405161312e919061591b565b90815260408051602092819003830181208054600181018255600091825284822001859055610160820183523082529281018b9052908101899052606081014281526020018881526020018781526020018681526020018560038111156131975761319761565e565b8152602001848152602001600081526020016000151581525090506131bb81614843565b6101208201526000828152601260209081526040909120825181546001600160a01b0319166001600160a01b0390911617815581830151805184936132079260018501929101906150f0565b50604082015180516132239160028401916020909101906150f0565b50606082015181600301556080820151816004015560a0820151816005015560c0820151816006015560e08201518160070160006101000a81548160ff021916908360038111156132765761327661565e565b02179055506101008201516008820155610120820151600982015561014090910151600a909101805460ff19169115159190911790556132b68289614688565b6132be614839565b6001600160a01b031663979c249183836040518363ffffffff1660e01b81526004016132eb929190615ada565b600060405180830381600087803b15801561330557600080fd5b505af1158015613319573d6000803e3d6000fd5b50505050613325613e58565b6001600160a01b0316637bab635a838b8b428c8c8c8c8c6040518a63ffffffff1660e01b815260040161336099989796959493929190615ba8565b600060405180830381600087803b15801561337a57600080fd5b505af115801561338e573d6000803e3d6000fd5b5050505061339a613e58565b60405163465bcf0560e01b815260006004820152306024820152604481018490526001600160a01b03919091169063465bcf0590606401600060405180830381600087803b1580156133eb57600080fd5b505af11580156133ff573d6000803e3d6000fd5b50505050505050505050505050565b601054604080517f8da5cb5b00000000000000000000000000000000000000000000000000000000815290516000926001600160a01b031691638da5cb5b916004808301926020929190829003018186803b158015611a9457600080fd5b6010546040517f4d65646961466163746f7279000000000000000000000000000000000000000060208201526000916001600160a01b031690638eaa6ac090602c01611a48565b606060028054610b219061580e565b6001600160a01b03821633141561351b5760405162461bcd60e51b815260206004820152601960248201527f4552433732313a20617070726f766520746f2063616c6c6572000000000000006044820152606401610c9c565b3360008181526008602090815260408083206001600160a01b03871680855290835292819020805460ff191686151590811790915590519081529192917f17307eab39ab6107e8899845ad3d59bd9653f200f220920489ca2b5937696c31910160405180910390a35050565b600e60205260009081526040902080546127f79061580e565b601260205260009081526040902080546001820180546001600160a01b0390921692916135cc9061580e565b80601f01602080910402602001604051908101604052809291908181526020018280546135f89061580e565b80156136455780601f1061361a57610100808354040283529160200191613645565b820191906000526020600020905b81548152906001019060200180831161362857829003601f168201915b50505050509080600201805461365a9061580e565b80601f01602080910402602001604051908101604052809291908181526020018280546136869061580e565b80156136d35780601f106136a8576101008083540402835291602001916136d3565b820191906000526020600020905b8154815290600101906020018083116136b657829003601f168201915b50505060038401546004850154600586015460068701546007880154600889015460098a0154600a909a015498999598949750929550909360ff918216939091168b565b6137213383613ec0565b6137935760405162461bcd60e51b815260206004820152603160248201527f4552433732313a207472616e736665722063616c6c6572206973206e6f74206f60448201527f776e6572206e6f7220617070726f7665640000000000000000000000000000006064820152608401610c9c565b61379f848484846148f0565b50505050565b6040516303fb4aab60e41b8152600090735D1DD9f4232D8Bd861d0A50f882537C3871e4A4190633fb4aab0906137e390879087908790600401615937565b60206040518083038186803b1580156137fb57600080fd5b505af415801561380f573d6000803e3d6000fd5b505050506040513d601f19601f82011682018060405250810190613833919061595c565b949350505050565b6000818152600560205260409020546060906001600160a01b03166138c85760405162461bcd60e51b815260206004820152602f60248201527f4552433732314d657461646174613a2055524920717565727920666f72206e6f60448201527f6e6578697374656e7420746f6b656e00000000000000000000000000000000006064820152608401610c9c565b6000600380546138d79061580e565b90501161397a57600082815260046020526040902080546138f79061580e565b80601f01602080910402602001604051908101604052809291908181526020018280546139239061580e565b80156139705780601f1061394557610100808354040283529160200191613970565b820191906000526020600020905b81548152906001019060200180831161395357829003601f168201915b5050505050610b0c565b6003600460008481526020019081526020016000206040516020016139a0929190615cad565b60405160208183030381529060405292915050565b6010546040517f4164506f6f6c000000000000000000000000000000000000000000000000000060208201526000916001600160a01b031690638eaa6ac090602601611a48565b6060601382604051613a0e919061591b565b9081526040805191829003602090810183208054808302850183019093528284529190830182828015613a6057602002820191906000526020600020905b815481526020019060010190808311613a4c575b50505050509050919050565b33613a7683612878565b6001600160a01b031614613ab45760405162461bcd60e51b815260206004820152600560248201526425a218189960d91b6044820152606401610c9c565b613abe8282614979565b613ac6613e58565b6001600160a01b0316635bcefb5383836040518363ffffffff1660e01b8152600401610f4c929190615902565b33613afc613e4e565b604051630a57ebcf60e11b81523060048201526001600160a01b0391909116906314afd79e9060240160206040518083038186803b158015613b3d57600080fd5b505afa158015613b51573d6000803e3d6000fd5b505050506040513d601f19601f82011682018060405250810190613b75919061588e565b6001600160a01b03161415613bb45760405162461bcd60e51b815260206004820152600560248201526412d10c0c4d60da1b6044820152606401610c9c565b613bbd81614998565b6000818152601260205260409020600a01805460ff19166001179055613be281614367565b613bea614372565b613bf2613e58565b6040517f385c5521000000000000000000000000000000000000000000000000000000008152600481018390523460248201523360448201526001600160a01b03919091169063385c552190606401600060405180830381600087803b158015613c5b57600080fd5b505af1158015613c6f573d6000803e3d6000fd5b50505050613c7b613e58565b60405163465bcf0560e01b8152306004820152336024820152604481018390526001600160a01b03919091169063465bcf05906064016119b5565b33613cbf613e4e565b604051630a57ebcf60e11b81523060048201526001600160a01b0391909116906314afd79e9060240160206040518083038186803b158015613d0057600080fd5b505afa158015613d14573d6000803e3d6000fd5b505050506040513d601f19601f82011682018060405250810190613d38919061588e565b6001600160a01b03161415613d775760405162461bcd60e51b815260206004820152600560248201526412d10c0c4d60da1b6044820152606401610c9c565b613bbd81614a0d565b6010546040517f4576656e74456d6974746572000000000000000000000000000000000000000060208201526000916001600160a01b031690638eaa6ac090602c01611a48565b600f60205260009081526040902080546127f79061580e565b600081815260076020526040902080546001600160a01b0319166001600160a01b0384169081179091558190613e1582612878565b6001600160a01b03167f8c5be1e5ebec7d5bd14f71427d1e84f3dd0314c0f7b2291e5b200ac8c7c3b92560405160405180910390a45050565b6000611acc6128c5565b6000611acc613d80565b613e6b81614b12565b604080516020808201808452600080845285815260049092529290209051613e9392906150f0565b5050565b6000828152600f602090815260409091208251613eb6928401906150f0565b50613e9382614bb9565b6000818152600560205260408120546001600160a01b0316613f395760405162461bcd60e51b815260206004820152602c60248201527f4552433732313a206f70657261746f7220717565727920666f72206e6f6e657860448201526b34b9ba32b73a103a37b5b2b760a11b6064820152608401610c9c565b6000613f4483612878565b9050806001600160a01b0316846001600160a01b03161480613f7f5750836001600160a01b0316613f7484610c27565b6001600160a01b0316145b8061383357506001600160a01b0380821660009081526008602090815260408083209388168352929052205460ff16613833565b826001600160a01b0316613fc682612878565b6001600160a01b0316146140425760405162461bcd60e51b815260206004820152602960248201527f4552433732313a207472616e73666572206f6620746f6b656e2074686174206960448201527f73206e6f74206f776e00000000000000000000000000000000000000000000006064820152608401610c9c565b6001600160a01b0382166140bd5760405162461bcd60e51b8152602060048201526024808201527f4552433732313a207472616e7366657220746f20746865207a65726f2061646460448201527f72657373000000000000000000000000000000000000000000000000000000006064820152608401610c9c565b6140c8838383614be1565b6140d3600082613de0565b6001600160a01b03831660009081526006602052604081208054600192906140fc908490615a82565b90915550506001600160a01b038216600090815260066020526040812080546001929061412a908490615cc2565b909155505060008181526005602052604080822080546001600160a01b0319166001600160a01b0386811691821790925591518493918716917fddf252ad1be2c89b69c2b068fc378daa952ba7f163c4a11628f55a4df523b3ef91a4505050565b60118160405161419b919061591b565b9081526040519081900360200190205460ff16156141fb5760405162461bcd60e51b815260206004820152600560248201527f4b443130300000000000000000000000000000000000000000000000000000006044820152606401610c9c565b600160118260405161420d919061591b565b908152604051908190036020019020805491151560ff19909216919091179055614235613e58565b6001600160a01b03166378689c64826040518263ffffffff1660e01b81526004016119b591906152a3565b600260008281526012602052604090206007015460ff1660038111156142885761428861565e565b146142bd5760405162461bcd60e51b815260206004820152600560248201526412d10c4c8d60da1b6044820152606401610c9c565b6000818152601260205260409020600a015460ff16156143075760405162461bcd60e51b81526020600482015260056024820152644b4431323160d81b6044820152606401610c9c565b42600082815260126020526040902060040154106116635760405162461bcd60e51b815260206004820152600560248201527f4b443132350000000000000000000000000000000000000000000000000000006044820152606401610c9c565b611663303383613fb3565b61437a611a05565b6001600160a01b03166108fc614391600a34615ab8565b6040518115909202916000818181858888f19350505050158015611663573d6000803e3d6000fd5b60005b6013846040516143cc919061591b565b9081526040519081900360200190205481101561379f576000601260006013876040516143f9919061591b565b9081526020016040518091039020848154811061441857614418615a06565b90600052602060002001548152602001908152602001600020604051806101600160405290816000820160009054906101000a90046001600160a01b03166001600160a01b03166001600160a01b0316815260200160018201805461447c9061580e565b80601f01602080910402602001604051908101604052809291908181526020018280546144a89061580e565b80156144f55780601f106144ca576101008083540402835291602001916144f5565b820191906000526020600020905b8154815290600101906020018083116144d857829003601f168201915b5050505050815260200160028201805461450e9061580e565b80601f016020809104026020016040519081016040528092919081815260200182805461453a9061580e565b80156145875780601f1061455c57610100808354040283529160200191614587565b820191906000526020600020905b81548152906001019060200180831161456a57829003601f168201915b50505091835250506003828101546020830152600483015460408301526005830154606083015260068301546080830152600783015460a09092019160ff16908111156145d6576145d661565e565b60038111156145e7576145e761565e565b81526008820154602082015260098201546040820152600a9091015460ff16151560609091015260a081015160c08201519192506146289186918691614c99565b156146755760405162461bcd60e51b815260206004820152600560248201527f4b443131300000000000000000000000000000000000000000000000000000006044820152606401610c9c565b508061468081615a32565b9150506143bc565b6146923083614cb2565b60008281526004602090815260409091208251610c22928401906150f0565b600260008281526012602052604090206007015460ff1660038111156146d9576146d961565e565b1461470e5760405162461bcd60e51b815260206004820152600560248201526412d10c4c8d60da1b6044820152606401610c9c565b6000818152601260205260409020600a015460ff16156147585760405162461bcd60e51b81526020600482015260056024820152644b4431323160d81b6044820152606401610c9c565b3461476282612b90565b11156116635760405162461bcd60e51b815260206004820152600560248201526425a218991960d91b6044820152606401610c9c565b600260008281526012602052604090206007015460ff1660038111156147c0576147c061565e565b1480156147e657506000818152601460205260409020600101546001600160a01b031615155b1561166357600081815260146020526040808220600181015460029091015491516001600160a01b039091169282156108fc02929190818181858888f19350505050158015613e93573d6000803e3d6000fd5b6000611acc6139b5565b6000808260e00151600381111561485c5761485c61565e565b141561486b5750610100015190565b60018260e0015160038111156148835761488361565e565b141561489a57610100820151610b0c90600a615a99565b60028260e0015160038111156148b2576148b261565e565b14156148c15750610100015190565b60038260e0015160038111156148d9576148d961565e565b14156148e85750610100015190565b506000919050565b6148fb848484613fb3565b61490784848484614e00565b61379f5760405162461bcd60e51b815260206004820152603260248201527f4552433732313a207472616e7366657220746f206e6f6e20455243373231526560448201527f63656976657220696d706c656d656e74657200000000000000000000000000006064820152608401610c9c565b6000828152600d602090815260409091208251610c22928401906150f0565b600160008281526012602052604090206007015460ff1660038111156149c0576149c061565e565b1461470e5760405162461bcd60e51b815260206004820152600560248201527f4b443132330000000000000000000000000000000000000000000000000000006044820152606401610c9c565b60008181526012602052604081206007015460ff166003811115614a3357614a3361565e565b14614a805760405162461bcd60e51b815260206004820152600560248201527f4b443132300000000000000000000000000000000000000000000000000000006044820152606401610c9c565b6000818152601260205260409020600a015460ff1615614aca5760405162461bcd60e51b81526020600482015260056024820152644b4431323160d81b6044820152606401610c9c565b60008181526012602052604090206008015434146116635760405162461bcd60e51b815260206004820152600560248201526425a218991960d91b6044820152606401610c9c565b6000614b1d82612878565b9050614b2b81600084614be1565b614b36600083613de0565b6001600160a01b0381166000908152600660205260408120805460019290614b5f908490615a82565b909155505060008281526005602052604080822080546001600160a01b0319169055518391906001600160a01b038416907fddf252ad1be2c89b69c2b068fc378daa952ba7f163c4a11628f55a4df523b3ef908390a45050565b6040805160208082018084526000808452858152600d9092529290209051613e9392906150f0565b6001600160a01b038316614c3c57614c3781600b80546000838152600c60205260408120829055600182018355919091527f0175b7a638427703f0dbe7bb9bbf987a2551717b34e79f33b5b1008d1fa01db90155565b614c5f565b816001600160a01b0316836001600160a01b031614614c5f57614c5f8382614f60565b6001600160a01b038216614c7657610c2281614ffd565b826001600160a01b0316826001600160a01b031614610c2257610c2282826150ac565b600083831180614ca857508482105b1595945050505050565b6001600160a01b038216614d085760405162461bcd60e51b815260206004820181905260248201527f4552433732313a206d696e7420746f20746865207a65726f20616464726573736044820152606401610c9c565b6000818152600560205260409020546001600160a01b031615614d6d5760405162461bcd60e51b815260206004820152601c60248201527f4552433732313a20746f6b656e20616c7265616479206d696e746564000000006044820152606401610c9c565b614d7960008383614be1565b6001600160a01b0382166000908152600660205260408120805460019290614da2908490615cc2565b909155505060008181526005602052604080822080546001600160a01b0319166001600160a01b03861690811790915590518392907fddf252ad1be2c89b69c2b068fc378daa952ba7f163c4a11628f55a4df523b3ef908290a45050565b60006001600160a01b0384163b15614f5857604051630a85bd0160e11b81526001600160a01b0385169063150b7a0290614e44903390899088908890600401615cda565b602060405180830381600087803b158015614e5e57600080fd5b505af1925050508015614e8e575060408051601f3d908101601f19168201909252614e8b91810190615d0c565b60015b614f3e573d808015614ebc576040519150601f19603f3d011682016040523d82523d6000602084013e614ec1565b606091505b508051614f365760405162461bcd60e51b815260206004820152603260248201527f4552433732313a207472616e7366657220746f206e6f6e20455243373231526560448201527f63656976657220696d706c656d656e74657200000000000000000000000000006064820152608401610c9c565b805181602001fd5b6001600160e01b031916630a85bd0160e11b149050613833565b506001613833565b60006001614f6d8461290c565b614f779190615a82565b6000838152600a6020526040902054909150808214614fca576001600160a01b03841660009081526009602090815260408083208584528252808320548484528184208190558352600a90915290208190555b506000918252600a602090815260408084208490556001600160a01b039094168352600981528383209183525290812055565b600b5460009061500f90600190615a82565b6000838152600c6020526040812054600b805493945090928490811061503757615037615a06565b9060005260206000200154905080600b838154811061505857615058615a06565b6000918252602080832090910192909255828152600c9091526040808220849055858252812055600b80548061509057615090615d29565b6001900381819060005260206000200160009055905550505050565b60006150b78361290c565b6001600160a01b0390931660009081526009602090815260408083208684528252808320859055938252600a9052919091209190915550565b8280546150fc9061580e565b90600052602060002090601f01602090048101928261511e5760008555615164565b82601f1061513757805160ff1916838001178555615164565b82800160010185558215615164579182015b82811115615164578251825591602001919060010190615149565b506151709291506151aa565b5090565b5080546151809061580e565b6000825580601f10615190575050565b601f01602090049060005260206000209081019061166391905b5b8082111561517057600081556001016151ab565b6000602082840312156151d157600080fd5b5035919050565b60005b838110156151f35781810151838201526020016151db565b8381111561379f5750506000910152565b6000815180845261521c8160208601602086016151d8565b601f01601f19169290920160200192915050565b60a08152600061524360a0830188615204565b90508560208301528460408301526001600160a01b03841660608301528260808301529695505050505050565b6001600160e01b03198116811461166357600080fd5b60006020828403121561529857600080fd5b8135612e0581615270565b602081526000612e056020830184615204565b634e487b7160e01b600052604160045260246000fd5b600067ffffffffffffffff808411156152e7576152e76152b6565b604051601f8501601f19908116603f0116810190828211818310171561530f5761530f6152b6565b8160405280935085815286868601111561532857600080fd5b858560208301376000602087830101525050509392505050565b600082601f83011261535357600080fd5b612e05838335602085016152cc565b6001600160a01b038116811461166357600080fd5b60008060006060848603121561538c57600080fd5b833567ffffffffffffffff808211156153a457600080fd5b6153b087838801615342565b945060208601359150808211156153c657600080fd5b506153d386828701615342565b92505060408401356153e481615362565b809150509250925092565b6000806040838503121561540257600080fd5b823561540d81615362565b946020939093013593505050565b6000806040838503121561542e57600080fd5b823561543981615362565b9150602083013567ffffffffffffffff81111561545557600080fd5b61546185828601615342565b9150509250929050565b60008060006060848603121561548057600080fd5b833567ffffffffffffffff81111561549757600080fd5b6154a386828701615342565b9660208601359650604090950135949350505050565b6000806000606084860312156154ce57600080fd5b83356154d981615362565b925060208401356154e981615362565b929592945050506040919091013590565b60006020828403121561550c57600080fd5b813567ffffffffffffffff81111561552357600080fd5b61383384828501615342565b6000806040838503121561554257600080fd5b82359150602083013567ffffffffffffffff81111561545557600080fd5b60006020828403121561557257600080fd5b8135612e0581615362565b600080600080600080600060e0888a03121561559857600080fd5b873567ffffffffffffffff808211156155b057600080fd5b6155bc8b838c01615342565b985060208a01359150808211156155d257600080fd5b506155df8a828b01615342565b96505060408801359450606088013593506080880135925060a08801356004811061560957600080fd5b8092505060c0880135905092959891949750929550565b6000806040838503121561563357600080fd5b823561563e81615362565b91506020830135801515811461565357600080fd5b809150509250929050565b634e487b7160e01b600052602160045260246000fd5b6004811061569257634e487b7160e01b600052602160045260246000fd5b9052565b60006101606001600160a01b038e1683528060208401526156b98184018e615204565b905082810360408401526156cd818d615204565b9150508960608301528860808301528760a08301528660c08301526156f560e0830187615674565b84610100830152836101208301528215156101408301529c9b505050505050505050505050565b6000806000806080858703121561573257600080fd5b843561573d81615362565b9350602085013561574d81615362565b925060408501359150606085013567ffffffffffffffff81111561577057600080fd5b8501601f8101871361578157600080fd5b615790878235602084016152cc565b91505092959194509250565b6020808252825182820181905260009190848201906040850190845b818110156157d4578351835292840192918401916001016157b8565b50909695505050505050565b600080604083850312156157f357600080fd5b82356157fe81615362565b9150602083013561565381615362565b600181811c9082168061582257607f821691505b6020821081141561584357634e487b7160e01b600052602260045260246000fd5b50919050565b7f4b616c6569646f5f0000000000000000000000000000000000000000000000008152600082516158818160088501602087016151d8565b9190910160080192915050565b6000602082840312156158a057600080fd5b8151612e0581615362565b6001600160a01b03831681526040602082015260006138336040830184615204565b60006001600160a01b038086168352808516602084015250606060408301526158f96060830184615204565b95945050505050565b8281526040602082015260006138336040830184615204565b6000825161592d8184602087016151d8565b9190910192915050565b60608152600061594a6060830186615204565b60208301949094525060400152919050565b60006020828403121561596e57600080fd5b5051919050565b86815260c06020820152600061598e60c0830188615204565b90508560408301528460608301526001600160a01b03841660808301528260a0830152979650505050505050565b86815260c0602082015260006159d560c0830188615204565b82810360408401526159e78188615204565b60608401969096525050608081019290925260a0909101529392505050565b634e487b7160e01b600052603260045260246000fd5b634e487b7160e01b600052601160045260246000fd5b6000600019821415615a4657615a46615a1c565b5060010190565b838152606060208201526000615a666060830185615204565b8281036040840152615a788185615204565b9695505050505050565b600082821015615a9457615a94615a1c565b500390565b6000816000190483118215151615615ab357615ab3615a1c565b500290565b600082615ad557634e487b7160e01b600052601260045260246000fd5b500490565b82815260406020820152615afa6040820183516001600160a01b03169052565b60006020830151610160806060850152615b186101a0850183615204565b91506040850151603f19858403016080860152615b358382615204565b925050606085015160a0850152608085015160c085015260a085015160e085015260c0850151610100818187015260e08701519150610120615b7981880184615674565b908701516101408781019190915290870151928601929092525084015180151561018085015250949350505050565b60006101208b8352806020840152615bc28184018c615204565b90508281036040840152615bd6818b615204565b9150508760608301528660808301528560a08301528460c0830152615bfe60e0830185615674565b826101008301529a9950505050505050505050565b8054600090600181811c9080831680615c2d57607f831692505b6020808410821415615c4f57634e487b7160e01b600052602260045260246000fd5b818015615c635760018114615c7457615ca1565b60ff19861689528489019650615ca1565b60008881526020902060005b86811015615c995781548b820152908501908301615c80565b505084890196505b50505050505092915050565b6000613833615cbc8386615c13565b84615c13565b60008219821115615cd557615cd5615a1c565b500190565b60006001600160a01b03808716835280861660208401525083604083015260806060830152615a786080830184615204565b600060208284031215615d1e57600080fd5b8151612e0581615270565b634e487b7160e01b600052603160045260246000fdfea264697066735822122032acd01ba98b1dd6e31c8a71b9926dc6c17b9d3fb1150b0abe7fe4c107f5b53264736f6c63430008090033",
  "deployedBytecode": "0x6080604052600436106103345760003560e01c806365045a65116101b0578063b88d4fde116100ec578063d1b900cd11610095578063d96a094a1161006f578063d96a094a14610955578063e985e9c514610968578063f0726291146109b1578063f19b8273146109c657600080fd5b8063d1b900cd14610902578063d4f6b5ec14610922578063d86800691461094257600080fd5b8063c9cd71b5116100c6578063c9cd71b514610858578063cc889b0b1461086d578063d028bd66146108d557600080fd5b8063b88d4fde146107f8578063c531c23614610818578063c87b56dd1461083857600080fd5b80638da5cb5b11610159578063a22cb46511610133578063a22cb4651461076e578063a9a86f0e1461078e578063b3a0ebc9146107ae578063b69ef8a8146107e557600080fd5b80638da5cb5b1461072f5780638f6059d61461074457806395d89b411461075957600080fd5b80637393f2891161018a5780637393f289146106cf5780637a3c4c17146106ef578063899c99891461070f57600080fd5b806365045a651461065f5780636a58767e1461069a57806370a08231146106af57600080fd5b80632bc4bc681161027f578063444115f6116102285780634f6ccce7116102025780634f6ccce7146105df57806353c14776146105ff57806358ba1bb81461061f5780636352211e1461063f57600080fd5b8063444115f61461058c578063454a2ab3146105ac5780634b455a51146105bf57600080fd5b80633ccfd60b116102595780633ccfd60b1461054257806342842e0e14610557578063430bf08a1461057757600080fd5b80632bc4bc68146104ef5780632f745c591461050f57806337df00c91461052f57600080fd5b8063179bcff7116102e15780631daf7ff9116102bb5780631daf7ff91461049e57806323b872dd146104b157806327b7a2f5146104d157600080fd5b8063179bcff71461043f57806318160ddd1461045f57806319b05f491461047e57600080fd5b8063077f224a11610312578063077f224a146103c5578063081812fc146103e7578063095ea7b31461041f57600080fd5b806301b99e041461033957806301ffc9a71461037357806306fdde03146103a3575b600080fd5b34801561034557600080fd5b506103596103543660046151bf565b6109e6565b60405161036a959493929190615230565b60405180910390f35b34801561037f57600080fd5b5061039361038e366004615286565b610aa9565b604051901515815260200161036a565b3480156103af57600080fd5b506103b8610b12565b60405161036a91906152a3565b3480156103d157600080fd5b506103e56103e0366004615377565b610ba4565b005b3480156103f357600080fd5b506104076104023660046151bf565b610c27565b6040516001600160a01b03909116815260200161036a565b34801561042b57600080fd5b506103e561043a3660046153ef565b610cc1565b34801561044b57600080fd5b506103e561045a36600461541b565b610dee565b34801561046b57600080fd5b50600b545b60405190815260200161036a565b34801561048a57600080fd5b506103e56104993660046151bf565b610f82565b6103e56104ac36600461546b565b611215565b3480156104bd57600080fd5b506103e56104cc3660046154b9565b611513565b3480156104dd57600080fd5b506010546001600160a01b0316610407565b3480156104fb57600080fd5b506103e561050a3660046154fa565b61159a565b34801561051b57600080fd5b5061047061052a3660046153ef565b611666565b6103e561053d3660046151bf565b61170e565b34801561054e57600080fd5b506103e5611890565b34801561056357600080fd5b506103e56105723660046154b9565b6119ea565b34801561058357600080fd5b50610407611a05565b34801561059857600080fd5b506103e56105a736600461552f565b611ad1565b6103e56105ba3660046151bf565b611eff565b3480156105cb57600080fd5b506103e56105da3660046151bf565b612113565b3480156105eb57600080fd5b506104706105fa3660046151bf565b61240c565b34801561060b57600080fd5b506103b861061a3660046154fa565b6124b0565b34801561062b57600080fd5b506103b861063a3660046151bf565b6127de565b34801561064b57600080fd5b5061040761065a3660046151bf565b612878565b34801561066b57600080fd5b5061039361067a3660046154fa565b805160208183018101805160118252928201919093012091525460ff1681565b3480156106a657600080fd5b506104076128c5565b3480156106bb57600080fd5b506104706106ca366004615560565b61290c565b3480156106db57600080fd5b506103e56106ea36600461552f565b6129a6565b3480156106fb57600080fd5b5061047061070a3660046151bf565b612b90565b34801561071b57600080fd5b506103e561072a36600461557d565b612ebe565b34801561073b57600080fd5b5061040761340e565b34801561075057600080fd5b5061040761346c565b34801561076557600080fd5b506103b86134b3565b34801561077a57600080fd5b506103e5610789366004615620565b6134c2565b34801561079a57600080fd5b506103b86107a93660046151bf565b613587565b3480156107ba57600080fd5b506107ce6107c93660046151bf565b6135a0565b60405161036a9b9a99989796959493929190615696565b3480156107f157600080fd5b5047610470565b34801561080457600080fd5b506103e561081336600461571c565b613717565b34801561082457600080fd5b5061047061083336600461546b565b6137a5565b34801561084457600080fd5b506103b86108533660046151bf565b61383b565b34801561086457600080fd5b506104076139b5565b34801561087957600080fd5b506108b26108883660046151bf565b60146020526000908152604090208054600182015460029092015490916001600160a01b03169083565b604080519384526001600160a01b0390921660208401529082015260600161036a565b3480156108e157600080fd5b506108f56108f03660046154fa565b6139fc565b60405161036a919061579c565b34801561090e57600080fd5b506103e561091d3660046154b9565b61158f565b34801561092e57600080fd5b506103e561093d36600461552f565b613a6c565b6103e56109503660046151bf565b613af3565b6103e56109633660046151bf565b613cb6565b34801561097457600080fd5b506103936109833660046157e0565b6001600160a01b03918216600090815260086020908152604080832093909416825291909152205460ff1690565b3480156109bd57600080fd5b50610407613d80565b3480156109d257600080fd5b506103b86109e13660046151bf565b613dc7565b601560205260009081526040902080548190610a019061580e565b80601f0160208091040260200160405190810160405280929190818152602001828054610a2d9061580e565b8015610a7a5780601f10610a4f57610100808354040283529160200191610a7a565b820191906000526020600020905b815481529060010190602001808311610a5d57829003601f168201915b505050600184015460028501546003860154600490960154949591949093506001600160a01b03909116915085565b60006001600160e01b031982167f80ac58cd000000000000000000000000000000000000000000000000000000001480610b0c57506001600160e01b031982167f5b5e139f00000000000000000000000000000000000000000000000000000000145b92915050565b606060018054610b219061580e565b80601f0160208091040260200160405190810160405280929190818152602001828054610b4d9061580e565b8015610b9a5780601f10610b6f57610100808354040283529160200191610b9a565b820191906000526020600020905b815481529060010190602001808311610b7d57829003601f168201915b5050505050905090565b8251610bb79060019060208601906150f0565b5082604051602001610bc99190615849565b60405160208183030381529060405260029080519060200190610bed9291906150f0565b508151610c019060039060208501906150f0565b50601080546001600160a01b0319166001600160a01b038316179055505050565b505050565b6000818152600560205260408120546001600160a01b0316610ca55760405162461bcd60e51b815260206004820152602c60248201527f4552433732313a20617070726f76656420717565727920666f72206e6f6e657860448201526b34b9ba32b73a103a37b5b2b760a11b60648201526084015b60405180910390fd5b506000908152600760205260409020546001600160a01b031690565b6000610ccc82612878565b9050806001600160a01b0316836001600160a01b03161415610d565760405162461bcd60e51b815260206004820152602160248201527f4552433732313a20617070726f76616c20746f2063757272656e74206f776e6560448201527f72000000000000000000000000000000000000000000000000000000000000006064820152608401610c9c565b336001600160a01b0382161480610d725750610d728133610983565b610de45760405162461bcd60e51b815260206004820152603860248201527f4552433732313a20617070726f76652063616c6c6572206973206e6f74206f7760448201527f6e6572206e6f7220617070726f76656420666f7220616c6c00000000000000006064820152608401610c9c565b610c228383613de0565b33610df7613e4e565b604051630a57ebcf60e11b81523060048201526001600160a01b0391909116906314afd79e9060240160206040518083038186803b158015610e3857600080fd5b505afa158015610e4c573d6000803e3d6000fd5b505050506040513d601f19601f82011682018060405250810190610e70919061588e565b6001600160a01b031614610eae5760405162461bcd60e51b815260206004820152600560248201526425a218189960d91b6044820152606401610c9c565b610eb6613e4e565b6001600160a01b031663179bcff783836040518363ffffffff1660e01b8152600401610ee39291906158ab565b600060405180830381600087803b158015610efd57600080fd5b505af1158015610f11573d6000803e3d6000fd5b50505050610f1d613e58565b6001600160a01b031663262360133084846040518463ffffffff1660e01b8152600401610f4c939291906158cd565b600060405180830381600087803b158015610f6657600080fd5b505af1158015610f7a573d6000803e3d6000fd5b505050505050565b33610f8b613e4e565b604051630a57ebcf60e11b81523060048201526001600160a01b0391909116906314afd79e9060240160206040518083038186803b158015610fcc57600080fd5b505afa158015610fe0573d6000803e3d6000fd5b505050506040513d601f19601f82011682018060405250810190611004919061588e565b6001600160a01b0316146110425760405162461bcd60e51b815260206004820152600560248201526425a218189960d91b6044820152606401610c9c565b6000818152600d60205260408120805461105b9061580e565b80601f01602080910402602001604051908101604052809291908181526020018280546110879061580e565b80156110d45780601f106110a9576101008083540402835291602001916110d4565b820191906000526020600020905b8154815290600101906020018083116110b757829003601f168201915b505050505090508051600014156111155760405162461bcd60e51b815260206004820152600560248201526404b443133360dc1b6044820152606401610c9c565b600061112083612878565b905061112b83613e62565b6111358383613e97565b61113d613e58565b6001600160a01b031663746f1b2084846040518363ffffffff1660e01b815260040161116a929190615902565b600060405180830381600087803b15801561118457600080fd5b505af1158015611198573d6000803e3d6000fd5b505050506111a4613e58565b60405163465bcf0560e01b81526001600160a01b0383811660048301526000602483015260448201869052919091169063465bcf05906064015b600060405180830381600087803b1580156111f857600080fd5b505af115801561120c573d6000803e3d6000fd5b50505050505050565b3361121e613e4e565b604051630a57ebcf60e11b81523060048201526001600160a01b0391909116906314afd79e9060240160206040518083038186803b15801561125f57600080fd5b505afa158015611273573d6000803e3d6000fd5b505050506040513d601f19601f82011682018060405250810190611297919061588e565b6001600160a01b031614156112d65760405162461bcd60e51b815260206004820152600560248201526412d10c0c4d60da1b6044820152606401610c9c565b6011836040516112e6919061591b565b9081526040519081900360200190205460ff166113455760405162461bcd60e51b815260206004820152600560248201527f4b443130310000000000000000000000000000000000000000000000000000006044820152606401610c9c565b80821061137c5760405162461bcd60e51b81526020600482015260056024820152644b4431313360d81b6044820152606401610c9c565b6040516303fb4aab60e41b815260009073__$a79fa16630ef50be54c6520a39abca49df$__90633fb4aab0906113ba90879087908790600401615937565b60206040518083038186803b1580156113d257600080fd5b505af41580156113e6573d6000803e3d6000fd5b505050506040513d601f19601f8201168201806040525081019061140a919061595c565b6040805160a08101825286815260208082018790528183018690523360608301523460808301526000848152601582529290922081518051949550919390926114579284929101906150f0565b50602082015160018201556040820151600282015560608201516003820180546001600160a01b0319166001600160a01b039092169190911790556080909101516004909101556114a6613e58565b6001600160a01b031663f4cb45e58286868633346040518763ffffffff1660e01b81526004016114db96959493929190615975565b600060405180830381600087803b1580156114f557600080fd5b505af1158015611509573d6000803e3d6000fd5b5050505050505050565b61151d3382613ec0565b61158f5760405162461bcd60e51b815260206004820152603160248201527f4552433732313a207472616e736665722063616c6c6572206973206e6f74206f60448201527f776e6572206e6f7220617070726f7665640000000000000000000000000000006064820152608401610c9c565b610c22838383613fb3565b336115a3613e4e565b604051630a57ebcf60e11b81523060048201526001600160a01b0391909116906314afd79e9060240160206040518083038186803b1580156115e457600080fd5b505afa1580156115f8573d6000803e3d6000fd5b505050506040513d601f19601f8201168201806040525081019061161c919061588e565b6001600160a01b03161461165a5760405162461bcd60e51b815260206004820152600560248201526425a218189960d91b6044820152606401610c9c565b6116638161418b565b50565b60006116718361290c565b82106116e55760405162461bcd60e51b815260206004820152602b60248201527f455243373231456e756d657261626c653a206f776e657220696e646578206f7560448201527f74206f6620626f756e64730000000000000000000000000000000000000000006064820152608401610c9c565b506001600160a01b03919091166000908152600960209081526040808320938352929052205490565b60008181526014602052604090206001015481906001600160a01b031633146117795760405162461bcd60e51b815260206004820152600560248201527f4b443132360000000000000000000000000000000000000000000000000000006044820152606401610c9c565b61178282614260565b6000828152601260205260409020600a01805460ff191660011790556117a782614367565b6117af614372565b6117b7613e58565b600083815260146020526040908190206002015490517fd2e163600000000000000000000000000000000000000000000000000000000081526004810185905260248101919091523360448201526001600160a01b03919091169063d2e1636090606401600060405180830381600087803b15801561183557600080fd5b505af1158015611849573d6000803e3d6000fd5b50505050611855613e58565b60405163465bcf0560e01b8152306004820152336024820152604481018490526001600160a01b03919091169063465bcf0590606401610f4c565b33611899613e4e565b604051630a57ebcf60e11b81523060048201526001600160a01b0391909116906314afd79e9060240160206040518083038186803b1580156118da57600080fd5b505afa1580156118ee573d6000803e3d6000fd5b505050506040513d601f19601f82011682018060405250810190611912919061588e565b6001600160a01b0316146119505760405162461bcd60e51b815260206004820152600560248201526425a218189960d91b6044820152606401610c9c565b6040514790339082156108fc029083906000818181858888f1935050505015801561197f573d6000803e3d6000fd5b50611988613e58565b6001600160a01b031663279862cb826040518263ffffffff1660e01b81526004016119b591815260200190565b600060405180830381600087803b1580156119cf57600080fd5b505af11580156119e3573d6000803e3d6000fd5b5050505050565b610c2283838360405180602001604052806000815250613717565b6010546040517f5661756c7400000000000000000000000000000000000000000000000000000060208201526000916001600160a01b031690638eaa6ac0906025015b604051602081830303815290604052805190602001206040518263ffffffff1660e01b8152600401611a7c91815260200190565b60206040518083038186803b158015611a9457600080fd5b505afa158015611aa8573d6000803e3d6000fd5b505050506040513d601f19601f82011682018060405250810190611acc919061588e565b905090565b33611ada613e4e565b604051630a57ebcf60e11b81523060048201526001600160a01b0391909116906314afd79e9060240160206040518083038186803b158015611b1b57600080fd5b505afa158015611b2f573d6000803e3d6000fd5b505050506040513d601f19601f82011682018060405250810190611b53919061588e565b6001600160a01b031614611b915760405162461bcd60e51b815260206004820152600560248201526425a218189960d91b6044820152606401610c9c565b600082815260156020526040808220815160a08101909252805482908290611bb89061580e565b80601f0160208091040260200160405190810160405280929190818152602001828054611be49061580e565b8015611c315780601f10611c0657610100808354040283529160200191611c31565b820191906000526020600020905b815481529060010190602001808311611c1457829003601f168201915b5050509183525050600182015460208201526002820154604082015260038201546001600160a01b039081166060808401919091526004909301546080909201919091529082015191925016611cc95760405162461bcd60e51b815260206004820152600560248201527f4b443131350000000000000000000000000000000000000000000000000000006044820152606401610c9c565b611ce08160000151826020015183604001516143b9565b60408051610160810182523081528251602080830191825282840186905242606084018190526080808501919091528186015160a08501528585015160c0850152600360e085015285018051610100850152516101208401526001610140840181905260008881526012835294909420835181546001600160a01b0319166001600160a01b039091161781559151805193948594611d859391850192909101906150f0565b5060408201518051611da19160028401916020909101906150f0565b50606082015181600301556080820151816004015560a0820151816005015560c0820151816006015560e08201518160070160006101000a81548160ff02191690836003811115611df457611df461565e565b02179055506101008201516008820155610120820151600982015561014090910151600a909101805460ff1916911515919091179055611e348484614688565b611e3c614372565b611e44613e58565b6001600160a01b0316630ca82afb858460000151868660200151876040015188608001516040518763ffffffff1660e01b8152600401611e89969594939291906159bc565b600060405180830381600087803b158015611ea357600080fd5b505af1158015611eb7573d6000803e3d6000fd5b50505050611ec3613e58565b60405163465bcf0560e01b815260006004820152306024820152604481018690526001600160a01b03919091169063465bcf05906064016114db565b33611f08613e4e565b604051630a57ebcf60e11b81523060048201526001600160a01b0391909116906314afd79e9060240160206040518083038186803b158015611f4957600080fd5b505afa158015611f5d573d6000803e3d6000fd5b505050506040513d601f19601f82011682018060405250810190611f81919061588e565b6001600160a01b03161415611fc05760405162461bcd60e51b815260206004820152600560248201526412d10c0c4d60da1b6044820152606401610c9c565b600260165414156120135760405162461bcd60e51b815260206004820152601f60248201527f5265656e7472616e637947756172643a207265656e7472616e742063616c6c006044820152606401610c9c565b6002601655612021816146b1565b61202a81614798565b60408051606081018252828152336020808301918252348385019081526000868152601490925293902091518255516001820180546001600160a01b0319166001600160a01b03909216919091179055905160029091015561208a613e58565b6040517f9e7e11d7000000000000000000000000000000000000000000000000000000008152600481018390523460248201523360448201526001600160a01b039190911690639e7e11d790606401600060405180830381600087803b1580156120f357600080fd5b505af1158015612107573d6000803e3d6000fd5b50506001601655505050565b3361211c613e4e565b604051630a57ebcf60e11b81523060048201526001600160a01b0391909116906314afd79e9060240160206040518083038186803b15801561215d57600080fd5b505afa158015612171573d6000803e3d6000fd5b505050506040513d601f19601f82011682018060405250810190612195919061588e565b6001600160a01b0316146121d35760405162461bcd60e51b815260206004820152600560248201526425a218189960d91b6044820152606401610c9c565b6000818152601260205260409020546001600160a01b031661221f5760405162461bcd60e51b815260206004820152600560248201526412d10c4c4d60da1b6044820152606401610c9c565b3061222982612878565b6001600160a01b0316146122675760405162461bcd60e51b81526020600482015260056024820152644b4431323160d81b6044820152606401610c9c565b61227081614798565b600081815260126020526040812080546001600160a01b03191681559061229a6001830182615174565b6122a8600283016000615174565b5060006003820181905560048201819055600582018190556006820181905560078201805460ff19908116909155600883018290556009830191909155600a909101805490911690556122fa81613e62565b612302614839565b6001600160a01b0316634b455a51826040518263ffffffff1660e01b815260040161232f91815260200190565b600060405180830381600087803b15801561234957600080fd5b505af115801561235d573d6000803e3d6000fd5b50505050612369613e58565b6001600160a01b031663ccb55a98826040518263ffffffff1660e01b815260040161239691815260200190565b600060405180830381600087803b1580156123b057600080fd5b505af11580156123c4573d6000803e3d6000fd5b505050506123d0613e58565b60405163465bcf0560e01b815230600482015260006024820152604481018390526001600160a01b03919091169063465bcf05906064016119b5565b6000612417600b5490565b821061248b5760405162461bcd60e51b815260206004820152602c60248201527f455243373231456e756d657261626c653a20676c6f62616c20696e646578206f60448201527f7574206f6620626f756e647300000000000000000000000000000000000000006064820152608401610c9c565b600b828154811061249e5761249e615a06565b90600052602060002001549050919050565b606060006124bd836139fc565b905060005b81518110156127c7576000601260008484815181106124e3576124e3615a06565b60200260200101518152602001908152602001600020604051806101600160405290816000820160009054906101000a90046001600160a01b03166001600160a01b03166001600160a01b031681526020016001820180546125449061580e565b80601f01602080910402602001604051908101604052809291908181526020018280546125709061580e565b80156125bd5780601f10612592576101008083540402835291602001916125bd565b820191906000526020600020905b8154815290600101906020018083116125a057829003601f168201915b505050505081526020016002820180546125d69061580e565b80601f01602080910402602001604051908101604052809291908181526020018280546126029061580e565b801561264f5780601f106126245761010080835404028352916020019161264f565b820191906000526020600020905b81548152906001019060200180831161263257829003601f168201915b50505091835250506003828101546020830152600483015460408301526005830154606083015260068301546080830152600783015460a09092019160ff169081111561269e5761269e61565e565b60038111156126af576126af61565e565b81526008820154602082015260098201546040820152600a9091015460ff1615156060909101529050428160a00151111580156126f05750428160c0015110155b156127b457600f600084848151811061270b5761270b615a06565b60200260200101518152602001908152602001600020805461272c9061580e565b80601f01602080910402602001604051908101604052809291908181526020018280546127589061580e565b80156127a55780601f1061277a576101008083540402835291602001916127a5565b820191906000526020600020905b81548152906001019060200180831161278857829003601f168201915b50505050509350505050919050565b50806127bf81615a32565b9150506124c2565b505060408051602081019091526000815292915050565b600d60205260009081526040902080546127f79061580e565b80601f01602080910402602001604051908101604052809291908181526020018280546128239061580e565b80156128705780601f1061284557610100808354040283529160200191612870565b820191906000526020600020905b81548152906001019060200180831161285357829003601f168201915b505050505081565b6000818152600560205260408120546001600160a01b031680610b0c5760405162461bcd60e51b815260206004820152600560248201526412d10c4c4d60da1b6044820152606401610c9c565b6010546040517f4d6564696152656769737472790000000000000000000000000000000000000060208201526000916001600160a01b031690638eaa6ac090602d01611a48565b60006001600160a01b03821661298a5760405162461bcd60e51b815260206004820152602a60248201527f4552433732313a2062616c616e636520717565727920666f7220746865207a6560448201527f726f2061646472657373000000000000000000000000000000000000000000006064820152608401610c9c565b506001600160a01b031660009081526006602052604090205490565b336129af613e4e565b604051630a57ebcf60e11b81523060048201526001600160a01b0391909116906314afd79e9060240160206040518083038186803b1580156129f057600080fd5b505afa158015612a04573d6000803e3d6000fd5b505050506040513d601f19601f82011682018060405250810190612a28919061588e565b6001600160a01b031614612a665760405162461bcd60e51b815260206004820152600560248201526425a218189960d91b6044820152606401610c9c565b6000828152600d602052604081208054612a7f9061580e565b80601f0160208091040260200160405190810160405280929190818152602001828054612aab9061580e565b8015612af85780601f10612acd57610100808354040283529160200191612af8565b820191906000526020600020905b815481529060010190602001808311612adb57829003601f168201915b50505050509050805160001415612b395760405162461bcd60e51b815260206004820152600560248201526404b443133360dc1b6044820152606401610c9c565b6000838152600e602090815260409091208351612b58928501906150f0565b50612b61613e58565b6001600160a01b0316636422b7aa8483856040518463ffffffff1660e01b81526004016111de93929190615a4d565b60008181526012602090815260408083208151610160810190925280546001600160a01b03168252600181018054859484019190612bcd9061580e565b80601f0160208091040260200160405190810160405280929190818152602001828054612bf99061580e565b8015612c465780601f10612c1b57610100808354040283529160200191612c46565b820191906000526020600020905b815481529060010190602001808311612c2957829003601f168201915b50505050508152602001600282018054612c5f9061580e565b80601f0160208091040260200160405190810160405280929190818152602001828054612c8b9061580e565b8015612cd85780601f10612cad57610100808354040283529160200191612cd8565b820191906000526020600020905b815481529060010190602001808311612cbb57829003601f168201915b50505091835250506003828101546020830152600483015460408301526005830154606083015260068301546080830152600783015460a09092019160ff1690811115612d2757612d2761565e565b6003811115612d3857612d3861565e565b81526008820154602082015260098201546040820152600a9091015460ff161515606090910152905060008160e001516003811115612d7957612d7961565e565b1415612d8a57610100015192915050565b60018160e001516003811115612da257612da261565e565b1415612e0c5780606001518160800151612dbc9190615a82565b6060820151612dcb9042615a82565b826101000151836101200151612de19190615a82565b612deb9190615a99565b612df59190615ab8565b816101200151612e059190615a82565b9392505050565b60028160e001516003811115612e2457612e2461565e565b1415612e4157505060009081526014602052604090206002015490565b60038160e001516003811115612e5957612e5961565e565b1415612e7657505060009081526015602052604090206004015490565b60405162461bcd60e51b815260206004820152600960248201527f6e6f7420657869737400000000000000000000000000000000000000000000006044820152606401610c9c565b33612ec7613e4e565b604051630a57ebcf60e11b81523060048201526001600160a01b0391909116906314afd79e9060240160206040518083038186803b158015612f0857600080fd5b505afa158015612f1c573d6000803e3d6000fd5b505050506040513d601f19601f82011682018060405250810190612f40919061588e565b6001600160a01b031614612f7e5760405162461bcd60e51b815260206004820152600560248201526425a218189960d91b6044820152606401610c9c565b428511612fcd5760405162461bcd60e51b815260206004820152600560248201527f4b443131310000000000000000000000000000000000000000000000000000006044820152606401610c9c565b83851061301c5760405162461bcd60e51b815260206004820152600560248201527f4b443131320000000000000000000000000000000000000000000000000000006044820152606401610c9c565b8284106130535760405162461bcd60e51b81526020600482015260056024820152644b4431313360d81b6044820152606401610c9c565b601187604051613063919061591b565b9081526040519081900360200190205460ff16613083576130838761418b565b61308e8785856143b9565b6040516303fb4aab60e41b815260009073__$a79fa16630ef50be54c6520a39abca49df$__90633fb4aab0906130cc908b9089908990600401615937565b60206040518083038186803b1580156130e457600080fd5b505af41580156130f8573d6000803e3d6000fd5b505050506040513d601f19601f8201168201806040525081019061311c919061595c565b905060138860405161312e919061591b565b90815260408051602092819003830181208054600181018255600091825284822001859055610160820183523082529281018b9052908101899052606081014281526020018881526020018781526020018681526020018560038111156131975761319761565e565b8152602001848152602001600081526020016000151581525090506131bb81614843565b6101208201526000828152601260209081526040909120825181546001600160a01b0319166001600160a01b0390911617815581830151805184936132079260018501929101906150f0565b50604082015180516132239160028401916020909101906150f0565b50606082015181600301556080820151816004015560a0820151816005015560c0820151816006015560e08201518160070160006101000a81548160ff021916908360038111156132765761327661565e565b02179055506101008201516008820155610120820151600982015561014090910151600a909101805460ff19169115159190911790556132b68289614688565b6132be614839565b6001600160a01b031663979c249183836040518363ffffffff1660e01b81526004016132eb929190615ada565b600060405180830381600087803b15801561330557600080fd5b505af1158015613319573d6000803e3d6000fd5b50505050613325613e58565b6001600160a01b0316637bab635a838b8b428c8c8c8c8c6040518a63ffffffff1660e01b815260040161336099989796959493929190615ba8565b600060405180830381600087803b15801561337a57600080fd5b505af115801561338e573d6000803e3d6000fd5b5050505061339a613e58565b60405163465bcf0560e01b815260006004820152306024820152604481018490526001600160a01b03919091169063465bcf0590606401600060405180830381600087803b1580156133eb57600080fd5b505af11580156133ff573d6000803e3d6000fd5b50505050505050505050505050565b601054604080517f8da5cb5b00000000000000000000000000000000000000000000000000000000815290516000926001600160a01b031691638da5cb5b916004808301926020929190829003018186803b158015611a9457600080fd5b6010546040517f4d65646961466163746f7279000000000000000000000000000000000000000060208201526000916001600160a01b031690638eaa6ac090602c01611a48565b606060028054610b219061580e565b6001600160a01b03821633141561351b5760405162461bcd60e51b815260206004820152601960248201527f4552433732313a20617070726f766520746f2063616c6c6572000000000000006044820152606401610c9c565b3360008181526008602090815260408083206001600160a01b03871680855290835292819020805460ff191686151590811790915590519081529192917f17307eab39ab6107e8899845ad3d59bd9653f200f220920489ca2b5937696c31910160405180910390a35050565b600e60205260009081526040902080546127f79061580e565b601260205260009081526040902080546001820180546001600160a01b0390921692916135cc9061580e565b80601f01602080910402602001604051908101604052809291908181526020018280546135f89061580e565b80156136455780601f1061361a57610100808354040283529160200191613645565b820191906000526020600020905b81548152906001019060200180831161362857829003601f168201915b50505050509080600201805461365a9061580e565b80601f01602080910402602001604051908101604052809291908181526020018280546136869061580e565b80156136d35780601f106136a8576101008083540402835291602001916136d3565b820191906000526020600020905b8154815290600101906020018083116136b657829003601f168201915b50505060038401546004850154600586015460068701546007880154600889015460098a0154600a909a015498999598949750929550909360ff918216939091168b565b6137213383613ec0565b6137935760405162461bcd60e51b815260206004820152603160248201527f4552433732313a207472616e736665722063616c6c6572206973206e6f74206f60448201527f776e6572206e6f7220617070726f7665640000000000000000000000000000006064820152608401610c9c565b61379f848484846148f0565b50505050565b6040516303fb4aab60e41b815260009073__$a79fa16630ef50be54c6520a39abca49df$__90633fb4aab0906137e390879087908790600401615937565b60206040518083038186803b1580156137fb57600080fd5b505af415801561380f573d6000803e3d6000fd5b505050506040513d601f19601f82011682018060405250810190613833919061595c565b949350505050565b6000818152600560205260409020546060906001600160a01b03166138c85760405162461bcd60e51b815260206004820152602f60248201527f4552433732314d657461646174613a2055524920717565727920666f72206e6f60448201527f6e6578697374656e7420746f6b656e00000000000000000000000000000000006064820152608401610c9c565b6000600380546138d79061580e565b90501161397a57600082815260046020526040902080546138f79061580e565b80601f01602080910402602001604051908101604052809291908181526020018280546139239061580e565b80156139705780601f1061394557610100808354040283529160200191613970565b820191906000526020600020905b81548152906001019060200180831161395357829003601f168201915b5050505050610b0c565b6003600460008481526020019081526020016000206040516020016139a0929190615cad565b60405160208183030381529060405292915050565b6010546040517f4164506f6f6c000000000000000000000000000000000000000000000000000060208201526000916001600160a01b031690638eaa6ac090602601611a48565b6060601382604051613a0e919061591b565b9081526040805191829003602090810183208054808302850183019093528284529190830182828015613a6057602002820191906000526020600020905b815481526020019060010190808311613a4c575b50505050509050919050565b33613a7683612878565b6001600160a01b031614613ab45760405162461bcd60e51b815260206004820152600560248201526425a218189960d91b6044820152606401610c9c565b613abe8282614979565b613ac6613e58565b6001600160a01b0316635bcefb5383836040518363ffffffff1660e01b8152600401610f4c929190615902565b33613afc613e4e565b604051630a57ebcf60e11b81523060048201526001600160a01b0391909116906314afd79e9060240160206040518083038186803b158015613b3d57600080fd5b505afa158015613b51573d6000803e3d6000fd5b505050506040513d601f19601f82011682018060405250810190613b75919061588e565b6001600160a01b03161415613bb45760405162461bcd60e51b815260206004820152600560248201526412d10c0c4d60da1b6044820152606401610c9c565b613bbd81614998565b6000818152601260205260409020600a01805460ff19166001179055613be281614367565b613bea614372565b613bf2613e58565b6040517f385c5521000000000000000000000000000000000000000000000000000000008152600481018390523460248201523360448201526001600160a01b03919091169063385c552190606401600060405180830381600087803b158015613c5b57600080fd5b505af1158015613c6f573d6000803e3d6000fd5b50505050613c7b613e58565b60405163465bcf0560e01b8152306004820152336024820152604481018390526001600160a01b03919091169063465bcf05906064016119b5565b33613cbf613e4e565b604051630a57ebcf60e11b81523060048201526001600160a01b0391909116906314afd79e9060240160206040518083038186803b158015613d0057600080fd5b505afa158015613d14573d6000803e3d6000fd5b505050506040513d601f19601f82011682018060405250810190613d38919061588e565b6001600160a01b03161415613d775760405162461bcd60e51b815260206004820152600560248201526412d10c0c4d60da1b6044820152606401610c9c565b613bbd81614a0d565b6010546040517f4576656e74456d6974746572000000000000000000000000000000000000000060208201526000916001600160a01b031690638eaa6ac090602c01611a48565b600f60205260009081526040902080546127f79061580e565b600081815260076020526040902080546001600160a01b0319166001600160a01b0384169081179091558190613e1582612878565b6001600160a01b03167f8c5be1e5ebec7d5bd14f71427d1e84f3dd0314c0f7b2291e5b200ac8c7c3b92560405160405180910390a45050565b6000611acc6128c5565b6000611acc613d80565b613e6b81614b12565b604080516020808201808452600080845285815260049092529290209051613e9392906150f0565b5050565b6000828152600f602090815260409091208251613eb6928401906150f0565b50613e9382614bb9565b6000818152600560205260408120546001600160a01b0316613f395760405162461bcd60e51b815260206004820152602c60248201527f4552433732313a206f70657261746f7220717565727920666f72206e6f6e657860448201526b34b9ba32b73a103a37b5b2b760a11b6064820152608401610c9c565b6000613f4483612878565b9050806001600160a01b0316846001600160a01b03161480613f7f5750836001600160a01b0316613f7484610c27565b6001600160a01b0316145b8061383357506001600160a01b0380821660009081526008602090815260408083209388168352929052205460ff16613833565b826001600160a01b0316613fc682612878565b6001600160a01b0316146140425760405162461bcd60e51b815260206004820152602960248201527f4552433732313a207472616e73666572206f6620746f6b656e2074686174206960448201527f73206e6f74206f776e00000000000000000000000000000000000000000000006064820152608401610c9c565b6001600160a01b0382166140bd5760405162461bcd60e51b8152602060048201526024808201527f4552433732313a207472616e7366657220746f20746865207a65726f2061646460448201527f72657373000000000000000000000000000000000000000000000000000000006064820152608401610c9c565b6140c8838383614be1565b6140d3600082613de0565b6001600160a01b03831660009081526006602052604081208054600192906140fc908490615a82565b90915550506001600160a01b038216600090815260066020526040812080546001929061412a908490615cc2565b909155505060008181526005602052604080822080546001600160a01b0319166001600160a01b0386811691821790925591518493918716917fddf252ad1be2c89b69c2b068fc378daa952ba7f163c4a11628f55a4df523b3ef91a4505050565b60118160405161419b919061591b565b9081526040519081900360200190205460ff16156141fb5760405162461bcd60e51b815260206004820152600560248201527f4b443130300000000000000000000000000000000000000000000000000000006044820152606401610c9c565b600160118260405161420d919061591b565b908152604051908190036020019020805491151560ff19909216919091179055614235613e58565b6001600160a01b03166378689c64826040518263ffffffff1660e01b81526004016119b591906152a3565b600260008281526012602052604090206007015460ff1660038111156142885761428861565e565b146142bd5760405162461bcd60e51b815260206004820152600560248201526412d10c4c8d60da1b6044820152606401610c9c565b6000818152601260205260409020600a015460ff16156143075760405162461bcd60e51b81526020600482015260056024820152644b4431323160d81b6044820152606401610c9c565b42600082815260126020526040902060040154106116635760405162461bcd60e51b815260206004820152600560248201527f4b443132350000000000000000000000000000000000000000000000000000006044820152606401610c9c565b611663303383613fb3565b61437a611a05565b6001600160a01b03166108fc614391600a34615ab8565b6040518115909202916000818181858888f19350505050158015611663573d6000803e3d6000fd5b60005b6013846040516143cc919061591b565b9081526040519081900360200190205481101561379f576000601260006013876040516143f9919061591b565b9081526020016040518091039020848154811061441857614418615a06565b90600052602060002001548152602001908152602001600020604051806101600160405290816000820160009054906101000a90046001600160a01b03166001600160a01b03166001600160a01b0316815260200160018201805461447c9061580e565b80601f01602080910402602001604051908101604052809291908181526020018280546144a89061580e565b80156144f55780601f106144ca576101008083540402835291602001916144f5565b820191906000526020600020905b8154815290600101906020018083116144d857829003601f168201915b5050505050815260200160028201805461450e9061580e565b80601f016020809104026020016040519081016040528092919081815260200182805461453a9061580e565b80156145875780601f1061455c57610100808354040283529160200191614587565b820191906000526020600020905b81548152906001019060200180831161456a57829003601f168201915b50505091835250506003828101546020830152600483015460408301526005830154606083015260068301546080830152600783015460a09092019160ff16908111156145d6576145d661565e565b60038111156145e7576145e761565e565b81526008820154602082015260098201546040820152600a9091015460ff16151560609091015260a081015160c08201519192506146289186918691614c99565b156146755760405162461bcd60e51b815260206004820152600560248201527f4b443131300000000000000000000000000000000000000000000000000000006044820152606401610c9c565b508061468081615a32565b9150506143bc565b6146923083614cb2565b60008281526004602090815260409091208251610c22928401906150f0565b600260008281526012602052604090206007015460ff1660038111156146d9576146d961565e565b1461470e5760405162461bcd60e51b815260206004820152600560248201526412d10c4c8d60da1b6044820152606401610c9c565b6000818152601260205260409020600a015460ff16156147585760405162461bcd60e51b81526020600482015260056024820152644b4431323160d81b6044820152606401610c9c565b3461476282612b90565b11156116635760405162461bcd60e51b815260206004820152600560248201526425a218991960d91b6044820152606401610c9c565b600260008281526012602052604090206007015460ff1660038111156147c0576147c061565e565b1480156147e657506000818152601460205260409020600101546001600160a01b031615155b1561166357600081815260146020526040808220600181015460029091015491516001600160a01b039091169282156108fc02929190818181858888f19350505050158015613e93573d6000803e3d6000fd5b6000611acc6139b5565b6000808260e00151600381111561485c5761485c61565e565b141561486b5750610100015190565b60018260e0015160038111156148835761488361565e565b141561489a57610100820151610b0c90600a615a99565b60028260e0015160038111156148b2576148b261565e565b14156148c15750610100015190565b60038260e0015160038111156148d9576148d961565e565b14156148e85750610100015190565b506000919050565b6148fb848484613fb3565b61490784848484614e00565b61379f5760405162461bcd60e51b815260206004820152603260248201527f4552433732313a207472616e7366657220746f206e6f6e20455243373231526560448201527f63656976657220696d706c656d656e74657200000000000000000000000000006064820152608401610c9c565b6000828152600d602090815260409091208251610c22928401906150f0565b600160008281526012602052604090206007015460ff1660038111156149c0576149c061565e565b1461470e5760405162461bcd60e51b815260206004820152600560248201527f4b443132330000000000000000000000000000000000000000000000000000006044820152606401610c9c565b60008181526012602052604081206007015460ff166003811115614a3357614a3361565e565b14614a805760405162461bcd60e51b815260206004820152600560248201527f4b443132300000000000000000000000000000000000000000000000000000006044820152606401610c9c565b6000818152601260205260409020600a015460ff1615614aca5760405162461bcd60e51b81526020600482015260056024820152644b4431323160d81b6044820152606401610c9c565b60008181526012602052604090206008015434146116635760405162461bcd60e51b815260206004820152600560248201526425a218991960d91b6044820152606401610c9c565b6000614b1d82612878565b9050614b2b81600084614be1565b614b36600083613de0565b6001600160a01b0381166000908152600660205260408120805460019290614b5f908490615a82565b909155505060008281526005602052604080822080546001600160a01b0319169055518391906001600160a01b038416907fddf252ad1be2c89b69c2b068fc378daa952ba7f163c4a11628f55a4df523b3ef908390a45050565b6040805160208082018084526000808452858152600d9092529290209051613e9392906150f0565b6001600160a01b038316614c3c57614c3781600b80546000838152600c60205260408120829055600182018355919091527f0175b7a638427703f0dbe7bb9bbf987a2551717b34e79f33b5b1008d1fa01db90155565b614c5f565b816001600160a01b0316836001600160a01b031614614c5f57614c5f8382614f60565b6001600160a01b038216614c7657610c2281614ffd565b826001600160a01b0316826001600160a01b031614610c2257610c2282826150ac565b600083831180614ca857508482105b1595945050505050565b6001600160a01b038216614d085760405162461bcd60e51b815260206004820181905260248201527f4552433732313a206d696e7420746f20746865207a65726f20616464726573736044820152606401610c9c565b6000818152600560205260409020546001600160a01b031615614d6d5760405162461bcd60e51b815260206004820152601c60248201527f4552433732313a20746f6b656e20616c7265616479206d696e746564000000006044820152606401610c9c565b614d7960008383614be1565b6001600160a01b0382166000908152600660205260408120805460019290614da2908490615cc2565b909155505060008181526005602052604080822080546001600160a01b0319166001600160a01b03861690811790915590518392907fddf252ad1be2c89b69c2b068fc378daa952ba7f163c4a11628f55a4df523b3ef908290a45050565b60006001600160a01b0384163b15614f5857604051630a85bd0160e11b81526001600160a01b0385169063150b7a0290614e44903390899088908890600401615cda565b602060405180830381600087803b158015614e5e57600080fd5b505af1925050508015614e8e575060408051601f3d908101601f19168201909252614e8b91810190615d0c565b60015b614f3e573d808015614ebc576040519150601f19603f3d011682016040523d82523d6000602084013e614ec1565b606091505b508051614f365760405162461bcd60e51b815260206004820152603260248201527f4552433732313a207472616e7366657220746f206e6f6e20455243373231526560448201527f63656976657220696d706c656d656e74657200000000000000000000000000006064820152608401610c9c565b805181602001fd5b6001600160e01b031916630a85bd0160e11b149050613833565b506001613833565b60006001614f6d8461290c565b614f779190615a82565b6000838152600a6020526040902054909150808214614fca576001600160a01b03841660009081526009602090815260408083208584528252808320548484528184208190558352600a90915290208190555b506000918252600a602090815260408084208490556001600160a01b039094168352600981528383209183525290812055565b600b5460009061500f90600190615a82565b6000838152600c6020526040812054600b805493945090928490811061503757615037615a06565b9060005260206000200154905080600b838154811061505857615058615a06565b6000918252602080832090910192909255828152600c9091526040808220849055858252812055600b80548061509057615090615d29565b6001900381819060005260206000200160009055905550505050565b60006150b78361290c565b6001600160a01b0390931660009081526009602090815260408083208684528252808320859055938252600a9052919091209190915550565b8280546150fc9061580e565b90600052602060002090601f01602090048101928261511e5760008555615164565b82601f1061513757805160ff1916838001178555615164565b82800160010185558215615164579182015b82811115615164578251825591602001919060010190615149565b506151709291506151aa565b5090565b5080546151809061580e565b6000825580601f10615190575050565b601f01602090049060005260206000209081019061166391905b5b8082111561517057600081556001016151ab565b6000602082840312156151d157600080fd5b5035919050565b60005b838110156151f35781810151838201526020016151db565b8381111561379f5750506000910152565b6000815180845261521c8160208601602086016151d8565b601f01601f19169290920160200192915050565b60a08152600061524360a0830188615204565b90508560208301528460408301526001600160a01b03841660608301528260808301529695505050505050565b6001600160e01b03198116811461166357600080fd5b60006020828403121561529857600080fd5b8135612e0581615270565b602081526000612e056020830184615204565b634e487b7160e01b600052604160045260246000fd5b600067ffffffffffffffff808411156152e7576152e76152b6565b604051601f8501601f19908116603f0116810190828211818310171561530f5761530f6152b6565b8160405280935085815286868601111561532857600080fd5b858560208301376000602087830101525050509392505050565b600082601f83011261535357600080fd5b612e05838335602085016152cc565b6001600160a01b038116811461166357600080fd5b60008060006060848603121561538c57600080fd5b833567ffffffffffffffff808211156153a457600080fd5b6153b087838801615342565b945060208601359150808211156153c657600080fd5b506153d386828701615342565b92505060408401356153e481615362565b809150509250925092565b6000806040838503121561540257600080fd5b823561540d81615362565b946020939093013593505050565b6000806040838503121561542e57600080fd5b823561543981615362565b9150602083013567ffffffffffffffff81111561545557600080fd5b61546185828601615342565b9150509250929050565b60008060006060848603121561548057600080fd5b833567ffffffffffffffff81111561549757600080fd5b6154a386828701615342565b9660208601359650604090950135949350505050565b6000806000606084860312156154ce57600080fd5b83356154d981615362565b925060208401356154e981615362565b929592945050506040919091013590565b60006020828403121561550c57600080fd5b813567ffffffffffffffff81111561552357600080fd5b61383384828501615342565b6000806040838503121561554257600080fd5b82359150602083013567ffffffffffffffff81111561545557600080fd5b60006020828403121561557257600080fd5b8135612e0581615362565b600080600080600080600060e0888a03121561559857600080fd5b873567ffffffffffffffff808211156155b057600080fd5b6155bc8b838c01615342565b985060208a01359150808211156155d257600080fd5b506155df8a828b01615342565b96505060408801359450606088013593506080880135925060a08801356004811061560957600080fd5b8092505060c0880135905092959891949750929550565b6000806040838503121561563357600080fd5b823561563e81615362565b91506020830135801515811461565357600080fd5b809150509250929050565b634e487b7160e01b600052602160045260246000fd5b6004811061569257634e487b7160e01b600052602160045260246000fd5b9052565b60006101606001600160a01b038e1683528060208401526156b98184018e615204565b905082810360408401526156cd818d615204565b9150508960608301528860808301528760a08301528660c08301526156f560e0830187615674565b84610100830152836101208301528215156101408301529c9b505050505050505050505050565b6000806000806080858703121561573257600080fd5b843561573d81615362565b9350602085013561574d81615362565b925060408501359150606085013567ffffffffffffffff81111561577057600080fd5b8501601f8101871361578157600080fd5b615790878235602084016152cc565b91505092959194509250565b6020808252825182820181905260009190848201906040850190845b818110156157d4578351835292840192918401916001016157b8565b50909695505050505050565b600080604083850312156157f357600080fd5b82356157fe81615362565b9150602083013561565381615362565b600181811c9082168061582257607f821691505b6020821081141561584357634e487b7160e01b600052602260045260246000fd5b50919050565b7f4b616c6569646f5f0000000000000000000000000000000000000000000000008152600082516158818160088501602087016151d8565b9190910160080192915050565b6000602082840312156158a057600080fd5b8151612e0581615362565b6001600160a01b03831681526040602082015260006138336040830184615204565b60006001600160a01b038086168352808516602084015250606060408301526158f96060830184615204565b95945050505050565b8281526040602082015260006138336040830184615204565b6000825161592d8184602087016151d8565b9190910192915050565b60608152600061594a6060830186615204565b60208301949094525060400152919050565b60006020828403121561596e57600080fd5b5051919050565b86815260c06020820152600061598e60c0830188615204565b90508560408301528460608301526001600160a01b03841660808301528260a0830152979650505050505050565b86815260c0602082015260006159d560c0830188615204565b82810360408401526159e78188615204565b60608401969096525050608081019290925260a0909101529392505050565b634e487b7160e01b600052603260045260246000fd5b634e487b7160e01b600052601160045260246000fd5b6000600019821415615a4657615a46615a1c565b5060010190565b838152606060208201526000615a666060830185615204565b8281036040840152615a788185615204565b9695505050505050565b600082821015615a9457615a94615a1c565b500390565b6000816000190483118215151615615ab357615ab3615a1c565b500290565b600082615ad557634e487b7160e01b600052601260045260246000fd5b500490565b82815260406020820152615afa6040820183516001600160a01b03169052565b60006020830151610160806060850152615b186101a0850183615204565b91506040850151603f19858403016080860152615b358382615204565b925050606085015160a0850152608085015160c085015260a085015160e085015260c0850151610100818187015260e08701519150610120615b7981880184615674565b908701516101408781019190915290870151928601929092525084015180151561018085015250949350505050565b60006101208b8352806020840152615bc28184018c615204565b90508281036040840152615bd6818b615204565b9150508760608301528660808301528560a08301528460c0830152615bfe60e0830185615674565b826101008301529a9950505050505050505050565b8054600090600181811c9080831680615c2d57607f831692505b6020808410821415615c4f57634e487b7160e01b600052602260045260246000fd5b818015615c635760018114615c7457615ca1565b60ff19861689528489019650615ca1565b60008881526020902060005b86811015615c995781548b820152908501908301615c80565b505084890196505b50505050505092915050565b6000613833615cbc8386615c13565b84615c13565b60008219821115615cd557615cd5615a1c565b500190565b60006001600160a01b03808716835280861660208401525083604083015260806060830152615a786080830184615204565b600060208284031215615d1e57600080fd5b8151612e0581615270565b634e487b7160e01b600052603160045260246000fdfea264697066735822122032acd01ba98b1dd6e31c8a71b9926dc6c17b9d3fb1150b0abe7fe4c107f5b53264736f6c63430008090033",
  "libraries": {
    "Ad": "0x5D1DD9f4232D8Bd861d0A50f882537C3871e4A41"
  },
  "devdoc": {
    "author": "Shumpei Koike - <shumpei.koike@bridges.inc>",
    "kind": "dev",
    "methods": {
      "accept(uint256)": {
        "details": "Accepts the proposal.",
        "params": {
          "tokenId": "uint256 of the token ID"
        }
      },
      "acceptOffer(uint256,string)": {
        "details": "Accepts an offer by the Media.",
        "params": {
          "tokenId": "uint256 of the token ID",
          "tokenMetadata": "string of the NFT token metadata"
        }
      },
      "adId(string,uint256,uint256)": {
        "details": "Returns ID based on the space metadata, display start timestamp, and      display end timestamp. These three makes it the unique.",
        "params": {
          "displayEndTimestamp": "uint256 of the end timestamp for the display",
          "displayStartTimestamp": "uint256 of the start timestamp for the display",
          "spaceMetadata": "uint256 of the space metadata"
        }
      },
      "adPoolAddress()": {
        "details": "Gets the address of AdPool."
      },
      "approve(address,uint256)": {
        "details": "See {IERC721-approve}."
      },
      "balance()": {
        "details": "Returns the balacne deposited on the proxy contract."
      },
      "balanceOf(address)": {
        "details": "See {IERC721-balanceOf}."
      },
      "bid(uint256)": {
        "details": "Bids to participate in an auction.",
        "params": {
          "tokenId": "uint256 of the token ID"
        }
      },
      "buy(uint256)": {
        "details": "Buys the token that is defined as the specific period on an ad space.      The price of the token is fixed.",
        "params": {
          "tokenId": "uint256 of the token ID"
        }
      },
      "buyBasedOnTime(uint256)": {
        "details": "Buys the token that is defined as the specific period on an ad space.      The price is decreasing as time goes by.",
        "params": {
          "tokenId": "uint256 of the token ID"
        }
      },
      "currentPrice(uint256)": {
        "details": "Returns the current price.",
        "params": {
          "tokenId": "uint256 of the token ID"
        }
      },
      "deletePeriod(uint256)": {
        "details": "Deletes a period and its token.      If there is any users locking the fund for the sale, the amount would be transfered      to the user when deleting the period.",
        "params": {
          "tokenId": "uint256 of the token ID"
        }
      },
      "deny(uint256,string)": {
        "details": "Denies the submitted proposal, mentioning what is the problem.",
        "params": {
          "reason": "string of the reason why it is rejected",
          "tokenId": "uint256 of the token ID"
        }
      },
      "display(string)": {
        "details": "Displays the ad content that is approved by the media owner.",
        "params": {
          "spaceMetadata": "string of the space metadata"
        }
      },
      "eventEmitterAddress()": {
        "details": "Gets the address of EventEmitter."
      },
      "getApproved(uint256)": {
        "details": "See {IERC721-getApproved}."
      },
      "initialize(string,string,address)": {
        "details": "Initialize the instance.",
        "params": {
          "baseURI": "string of the base URI",
          "nameRegistry": "address of NameRegistry",
          "title": "string of the title of the instance"
        }
      },
      "isApprovedForAll(address,address)": {
        "details": "See {IERC721-isApprovedForAll}."
      },
      "mediaFactoryAddress()": {
        "details": "Gets the address of MediaFactory."
      },
      "mediaRegistryAddress()": {
        "details": "Gets the address of MediaRegistry."
      },
      "name()": {
        "details": "See {IERC721Metadata-name}."
      },
      "nameRegistryAddress()": {
        "details": "Gets the address of NameRegistry"
      },
      "newPeriod(string,string,uint256,uint256,uint256,uint8,uint256)": {
        "details": "Create a new period for a space. This function requires some params      to decide which kinds of pricing way and how much price to get started.",
        "params": {
          "displayEndTimestamp": "uint256 of the end timestamp for the display",
          "displayStartTimestamp": "uint256 of the start timestamp for the display",
          "minPrice": "uint256 of the minimum price to sell it out",
          "pricing": "uint256 of the pricing way",
          "saleEndTimestamp": "uint256 of the end timestamp for the sale",
          "spaceMetadata": "string of the space metadata",
          "tokenMetadata": "string of the token metadata"
        }
      },
      "newSpace(string)": {
        "details": "Creates a new space for the media account.",
        "params": {
          "spaceMetadata": "string of the space metadata"
        }
      },
      "offerPeriod(string,uint256,uint256)": {
        "details": "Offers to buy a period that the sender requests.",
        "params": {
          "displayEndTimestamp": "uint256 of the end timestamp for the display",
          "displayStartTimestamp": "uint256 of the start timestamp for the display",
          "spaceMetadata": "string of the space metadata"
        }
      },
      "owner()": {
        "details": "Gets the owner address."
      },
      "ownerOf(uint256)": {
        "details": "See {IERC721-ownerOf}."
      },
      "propose(uint256,string)": {
        "details": "Proposes the metadata to the token you bought.      Users can propose many times as long as it is accepted.",
        "params": {
          "metadata": "string of the proposal metadata",
          "tokenId": "uint256 of the token ID"
        }
      },
      "receiveToken(uint256)": {
        "details": "Receives the token you bidded if you are the successful bidder.",
        "params": {
          "tokenId": "uint256 of the token ID"
        }
      },
      "safeTransferFrom(address,address,uint256)": {
        "details": "See {IERC721-safeTransferFrom}."
      },
      "safeTransferFrom(address,address,uint256,bytes)": {
        "details": "See {IERC721-safeTransferFrom}."
      },
      "setApprovalForAll(address,bool)": {
        "details": "See {IERC721-setApprovalForAll}."
      },
      "supportsInterface(bytes4)": {
        "details": "See {IERC165-supportsInterface}."
      },
      "symbol()": {
        "details": "See {IERC721Metadata-symbol}."
      },
      "tokenByIndex(uint256)": {
        "details": "See {IERC721Enumerable-tokenByIndex}."
      },
      "tokenIdsOf(string)": {
        "details": "Returns tokenIds tied with the space metadata",
        "params": {
          "spaceMetadata": "string of the space metadata"
        }
      },
      "tokenOfOwnerByIndex(address,uint256)": {
        "details": "See {IERC721Enumerable-tokenOfOwnerByIndex}."
      },
      "tokenURI(uint256)": {
        "details": "See {IERC721Metadata-tokenURI}."
      },
      "totalSupply()": {
        "details": "See {IERC721Enumerable-totalSupply}."
      },
      "transferFrom(address,address,uint256)": {
        "details": "See {IERC721-transferFrom}."
      },
      "updateMedia(address,string)": {
        "details": "Updates the media EOA and the metadata.",
        "params": {
          "newMediaEOA": "address of a new EOA",
          "newMetadata": "string of a new metadata"
        }
      },
      "vaultAddress()": {
        "details": "Gets the address of Vault."
      },
      "withdraw()": {
        "details": "Withdraws the fund deposited to the proxy contract."
      }
    },
    "title": "AdManager - manages ad spaces and its periods to sell them to users.",
    "version": 1
  },
  "userdoc": {
    "kind": "user",
    "methods": {},
    "version": 1
  },
  "storageLayout": {
    "storage": [
      {
        "astId": 2129,
        "contract": "contracts/AdManager.sol:AdManager",
        "label": "dummy",
        "offset": 0,
        "slot": "0",
        "type": "t_string_storage"
      },
      {
        "astId": 2131,
        "contract": "contracts/AdManager.sol:AdManager",
        "label": "_name",
        "offset": 0,
        "slot": "1",
        "type": "t_string_storage"
      },
      {
        "astId": 2133,
        "contract": "contracts/AdManager.sol:AdManager",
        "label": "_symbol",
        "offset": 0,
        "slot": "2",
        "type": "t_string_storage"
      },
      {
        "astId": 2135,
        "contract": "contracts/AdManager.sol:AdManager",
        "label": "_baseURI",
        "offset": 0,
        "slot": "3",
        "type": "t_string_storage"
      },
      {
        "astId": 2139,
        "contract": "contracts/AdManager.sol:AdManager",
        "label": "_tokenURIs",
        "offset": 0,
        "slot": "4",
        "type": "t_mapping(t_uint256,t_string_storage)"
      },
      {
        "astId": 2143,
        "contract": "contracts/AdManager.sol:AdManager",
        "label": "_owners",
        "offset": 0,
        "slot": "5",
        "type": "t_mapping(t_uint256,t_address)"
      },
      {
        "astId": 2147,
        "contract": "contracts/AdManager.sol:AdManager",
        "label": "_balances",
        "offset": 0,
        "slot": "6",
        "type": "t_mapping(t_address,t_uint256)"
      },
      {
        "astId": 2151,
        "contract": "contracts/AdManager.sol:AdManager",
        "label": "_tokenApprovals",
        "offset": 0,
        "slot": "7",
        "type": "t_mapping(t_uint256,t_address)"
      },
      {
        "astId": 2157,
        "contract": "contracts/AdManager.sol:AdManager",
        "label": "_operatorApprovals",
        "offset": 0,
        "slot": "8",
        "type": "t_mapping(t_address,t_mapping(t_address,t_bool))"
      },
      {
        "astId": 2163,
        "contract": "contracts/AdManager.sol:AdManager",
        "label": "_ownedTokens",
        "offset": 0,
        "slot": "9",
        "type": "t_mapping(t_address,t_mapping(t_uint256,t_uint256))"
      },
      {
        "astId": 2167,
        "contract": "contracts/AdManager.sol:AdManager",
        "label": "_ownedTokensIndex",
        "offset": 0,
        "slot": "10",
        "type": "t_mapping(t_uint256,t_uint256)"
      },
      {
        "astId": 2170,
        "contract": "contracts/AdManager.sol:AdManager",
        "label": "_allTokens",
        "offset": 0,
        "slot": "11",
        "type": "t_array(t_uint256)dyn_storage"
      },
      {
        "astId": 2174,
        "contract": "contracts/AdManager.sol:AdManager",
        "label": "_allTokensIndex",
        "offset": 0,
        "slot": "12",
        "type": "t_mapping(t_uint256,t_uint256)"
      },
      {
        "astId": 1984,
        "contract": "contracts/AdManager.sol:AdManager",
        "label": "proposed",
        "offset": 0,
        "slot": "13",
        "type": "t_mapping(t_uint256,t_string_storage)"
      },
      {
        "astId": 1988,
        "contract": "contracts/AdManager.sol:AdManager",
        "label": "deniedReason",
        "offset": 0,
        "slot": "14",
        "type": "t_mapping(t_uint256,t_string_storage)"
      },
      {
        "astId": 1992,
        "contract": "contracts/AdManager.sol:AdManager",
        "label": "accepted",
        "offset": 0,
        "slot": "15",
        "type": "t_mapping(t_uint256,t_string_storage)"
      },
      {
        "astId": 1639,
        "contract": "contracts/AdManager.sol:AdManager",
        "label": "_nameRegistry",
        "offset": 0,
        "slot": "16",
        "type": "t_contract(NameRegistry)1868"
      },
      {
        "astId": 3708,
        "contract": "contracts/AdManager.sol:AdManager",
        "label": "spaced",
        "offset": 0,
        "slot": "17",
        "type": "t_mapping(t_string_memory_ptr,t_bool)"
      },
      {
        "astId": 3182,
        "contract": "contracts/AdManager.sol:AdManager",
        "label": "allPeriods",
        "offset": 0,
        "slot": "18",
        "type": "t_mapping(t_uint256,t_struct(Period)4070_storage)"
      },
      {
        "astId": 3188,
        "contract": "contracts/AdManager.sol:AdManager",
        "label": "_periodKeys",
        "offset": 0,
        "slot": "19",
        "type": "t_mapping(t_string_memory_ptr,t_array(t_uint256)dyn_storage)"
      },
      {
        "astId": 3378,
        "contract": "contracts/AdManager.sol:AdManager",
        "label": "bidding",
        "offset": 0,
        "slot": "20",
        "type": "t_mapping(t_uint256,t_struct(Bidding)3361_storage)"
      },
      {
        "astId": 3384,
        "contract": "contracts/AdManager.sol:AdManager",
        "label": "offered",
        "offset": 0,
        "slot": "21",
        "type": "t_mapping(t_uint256,t_struct(Offer)3372_storage)"
      },
      {
        "astId": 10,
        "contract": "contracts/AdManager.sol:AdManager",
        "label": "_status",
        "offset": 0,
        "slot": "22",
        "type": "t_uint256"
      }
    ],
    "types": {
      "t_address": {
        "encoding": "inplace",
        "label": "address",
        "numberOfBytes": "20"
      },
      "t_array(t_uint256)dyn_storage": {
        "base": "t_uint256",
        "encoding": "dynamic_array",
        "label": "uint256[]",
        "numberOfBytes": "32"
      },
      "t_bool": {
        "encoding": "inplace",
        "label": "bool",
        "numberOfBytes": "1"
      },
      "t_contract(NameRegistry)1868": {
        "encoding": "inplace",
        "label": "contract NameRegistry",
        "numberOfBytes": "20"
      },
      "t_enum(Pricing)4046": {
        "encoding": "inplace",
        "label": "enum Ad.Pricing",
        "numberOfBytes": "1"
      },
      "t_mapping(t_address,t_bool)": {
        "encoding": "mapping",
        "key": "t_address",
        "label": "mapping(address => bool)",
        "numberOfBytes": "32",
        "value": "t_bool"
      },
      "t_mapping(t_address,t_mapping(t_address,t_bool))": {
        "encoding": "mapping",
        "key": "t_address",
        "label": "mapping(address => mapping(address => bool))",
        "numberOfBytes": "32",
        "value": "t_mapping(t_address,t_bool)"
      },
      "t_mapping(t_address,t_mapping(t_uint256,t_uint256))": {
        "encoding": "mapping",
        "key": "t_address",
        "label": "mapping(address => mapping(uint256 => uint256))",
        "numberOfBytes": "32",
        "value": "t_mapping(t_uint256,t_uint256)"
      },
      "t_mapping(t_address,t_uint256)": {
        "encoding": "mapping",
        "key": "t_address",
        "label": "mapping(address => uint256)",
        "numberOfBytes": "32",
        "value": "t_uint256"
      },
      "t_mapping(t_string_memory_ptr,t_array(t_uint256)dyn_storage)": {
        "encoding": "mapping",
        "key": "t_string_memory_ptr",
        "label": "mapping(string => uint256[])",
        "numberOfBytes": "32",
        "value": "t_array(t_uint256)dyn_storage"
      },
      "t_mapping(t_string_memory_ptr,t_bool)": {
        "encoding": "mapping",
        "key": "t_string_memory_ptr",
        "label": "mapping(string => bool)",
        "numberOfBytes": "32",
        "value": "t_bool"
      },
      "t_mapping(t_uint256,t_address)": {
        "encoding": "mapping",
        "key": "t_uint256",
        "label": "mapping(uint256 => address)",
        "numberOfBytes": "32",
        "value": "t_address"
      },
      "t_mapping(t_uint256,t_string_storage)": {
        "encoding": "mapping",
        "key": "t_uint256",
        "label": "mapping(uint256 => string)",
        "numberOfBytes": "32",
        "value": "t_string_storage"
      },
      "t_mapping(t_uint256,t_struct(Bidding)3361_storage)": {
        "encoding": "mapping",
        "key": "t_uint256",
        "label": "mapping(uint256 => struct PricingStrategy.Bidding)",
        "numberOfBytes": "32",
        "value": "t_struct(Bidding)3361_storage"
      },
      "t_mapping(t_uint256,t_struct(Offer)3372_storage)": {
        "encoding": "mapping",
        "key": "t_uint256",
        "label": "mapping(uint256 => struct PricingStrategy.Offer)",
        "numberOfBytes": "32",
        "value": "t_struct(Offer)3372_storage"
      },
      "t_mapping(t_uint256,t_struct(Period)4070_storage)": {
        "encoding": "mapping",
        "key": "t_uint256",
        "label": "mapping(uint256 => struct Ad.Period)",
        "numberOfBytes": "32",
        "value": "t_struct(Period)4070_storage"
      },
      "t_mapping(t_uint256,t_uint256)": {
        "encoding": "mapping",
        "key": "t_uint256",
        "label": "mapping(uint256 => uint256)",
        "numberOfBytes": "32",
        "value": "t_uint256"
      },
      "t_string_memory_ptr": {
        "encoding": "bytes",
        "label": "string",
        "numberOfBytes": "32"
      },
      "t_string_storage": {
        "encoding": "bytes",
        "label": "string",
        "numberOfBytes": "32"
      },
      "t_struct(Bidding)3361_storage": {
        "encoding": "inplace",
        "label": "struct PricingStrategy.Bidding",
        "members": [
          {
            "astId": 3356,
            "contract": "contracts/AdManager.sol:AdManager",
            "label": "tokenId",
            "offset": 0,
            "slot": "0",
            "type": "t_uint256"
          },
          {
            "astId": 3358,
            "contract": "contracts/AdManager.sol:AdManager",
            "label": "bidder",
            "offset": 0,
            "slot": "1",
            "type": "t_address"
          },
          {
            "astId": 3360,
            "contract": "contracts/AdManager.sol:AdManager",
            "label": "price",
            "offset": 0,
            "slot": "2",
            "type": "t_uint256"
          }
        ],
        "numberOfBytes": "96"
      },
      "t_struct(Offer)3372_storage": {
        "encoding": "inplace",
        "label": "struct PricingStrategy.Offer",
        "members": [
          {
            "astId": 3363,
            "contract": "contracts/AdManager.sol:AdManager",
            "label": "spaceMetadata",
            "offset": 0,
            "slot": "0",
            "type": "t_string_storage"
          },
          {
            "astId": 3365,
            "contract": "contracts/AdManager.sol:AdManager",
            "label": "displayStartTimestamp",
            "offset": 0,
            "slot": "1",
            "type": "t_uint256"
          },
          {
            "astId": 3367,
            "contract": "contracts/AdManager.sol:AdManager",
            "label": "displayEndTimestamp",
            "offset": 0,
            "slot": "2",
            "type": "t_uint256"
          },
          {
            "astId": 3369,
            "contract": "contracts/AdManager.sol:AdManager",
            "label": "sender",
            "offset": 0,
            "slot": "3",
            "type": "t_address"
          },
          {
            "astId": 3371,
            "contract": "contracts/AdManager.sol:AdManager",
            "label": "price",
            "offset": 0,
            "slot": "4",
            "type": "t_uint256"
          }
        ],
        "numberOfBytes": "160"
      },
      "t_struct(Period)4070_storage": {
        "encoding": "inplace",
        "label": "struct Ad.Period",
        "members": [
          {
            "astId": 4048,
            "contract": "contracts/AdManager.sol:AdManager",
            "label": "mediaProxy",
            "offset": 0,
            "slot": "0",
            "type": "t_address"
          },
          {
            "astId": 4050,
            "contract": "contracts/AdManager.sol:AdManager",
            "label": "spaceMetadata",
            "offset": 0,
            "slot": "1",
            "type": "t_string_storage"
          },
          {
            "astId": 4052,
            "contract": "contracts/AdManager.sol:AdManager",
            "label": "tokenMetadata",
            "offset": 0,
            "slot": "2",
            "type": "t_string_storage"
          },
          {
            "astId": 4054,
            "contract": "contracts/AdManager.sol:AdManager",
            "label": "saleStartTimestamp",
            "offset": 0,
            "slot": "3",
            "type": "t_uint256"
          },
          {
            "astId": 4056,
            "contract": "contracts/AdManager.sol:AdManager",
            "label": "saleEndTimestamp",
            "offset": 0,
            "slot": "4",
            "type": "t_uint256"
          },
          {
            "astId": 4058,
            "contract": "contracts/AdManager.sol:AdManager",
            "label": "displayStartTimestamp",
            "offset": 0,
            "slot": "5",
            "type": "t_uint256"
          },
          {
            "astId": 4060,
            "contract": "contracts/AdManager.sol:AdManager",
            "label": "displayEndTimestamp",
            "offset": 0,
            "slot": "6",
            "type": "t_uint256"
          },
          {
            "astId": 4063,
            "contract": "contracts/AdManager.sol:AdManager",
            "label": "pricing",
            "offset": 0,
            "slot": "7",
            "type": "t_enum(Pricing)4046"
          },
          {
            "astId": 4065,
            "contract": "contracts/AdManager.sol:AdManager",
            "label": "minPrice",
            "offset": 0,
            "slot": "8",
            "type": "t_uint256"
          },
          {
            "astId": 4067,
            "contract": "contracts/AdManager.sol:AdManager",
            "label": "startPrice",
            "offset": 0,
            "slot": "9",
            "type": "t_uint256"
          },
          {
            "astId": 4069,
            "contract": "contracts/AdManager.sol:AdManager",
            "label": "sold",
            "offset": 0,
            "slot": "10",
            "type": "t_bool"
          }
        ],
        "numberOfBytes": "352"
      },
      "t_uint256": {
        "encoding": "inplace",
        "label": "uint256",
        "numberOfBytes": "32"
      }
    }
  }
}