{
  "address": "0x48B427352955D62DED973b59C35F445CC205192D",
  "abi": [
    {
      "anonymous": false,
      "inputs": [
        {
          "indexed": false,
          "internalType": "uint256",
          "name": "tokenId",
          "type": "uint256"
        }
      ],
      "name": "Accept",
      "type": "event"
    },
    {
      "anonymous": false,
      "inputs": [
        {
          "indexed": true,
          "internalType": "address",
          "name": "owner",
          "type": "address"
        },
        {
          "indexed": true,
          "internalType": "address",
          "name": "approved",
          "type": "address"
        },
        {
          "indexed": true,
          "internalType": "uint256",
          "name": "tokenId",
          "type": "uint256"
        }
      ],
      "name": "Approval",
      "type": "event"
    },
    {
      "anonymous": false,
      "inputs": [
        {
          "indexed": true,
          "internalType": "address",
          "name": "owner",
          "type": "address"
        },
        {
          "indexed": true,
          "internalType": "address",
          "name": "operator",
          "type": "address"
        },
        {
          "indexed": false,
          "internalType": "bool",
          "name": "approved",
          "type": "bool"
        }
      ],
      "name": "ApprovalForAll",
      "type": "event"
    },
    {
      "anonymous": false,
      "inputs": [
        {
          "indexed": false,
          "internalType": "uint256",
          "name": "tokenId",
          "type": "uint256"
        },
        {
          "indexed": false,
          "internalType": "uint256",
          "name": "price",
          "type": "uint256"
        },
        {
          "indexed": false,
          "internalType": "address",
          "name": "buyer",
          "type": "address"
        },
        {
          "indexed": false,
          "internalType": "uint256",
          "name": "timestamp",
          "type": "uint256"
        }
      ],
      "name": "Buy",
      "type": "event"
    },
    {
      "anonymous": false,
      "inputs": [
        {
          "indexed": false,
          "internalType": "uint256",
          "name": "tokenId",
          "type": "uint256"
        },
        {
          "indexed": false,
          "internalType": "string",
          "name": "reason",
          "type": "string"
        }
      ],
      "name": "Deny",
      "type": "event"
    },
    {
      "anonymous": false,
      "inputs": [
        {
          "indexed": false,
          "internalType": "uint256",
          "name": "tokenId",
          "type": "uint256"
        },
        {
          "indexed": false,
          "internalType": "string",
          "name": "metadata",
          "type": "string"
        },
        {
          "indexed": false,
          "internalType": "uint256",
          "name": "fromTimestamp",
          "type": "uint256"
        },
        {
          "indexed": false,
          "internalType": "uint256",
          "name": "toTimestamp",
          "type": "uint256"
        },
        {
          "indexed": false,
          "internalType": "enum AdManager.Pricing",
          "name": "pricing",
          "type": "uint8"
        },
        {
          "indexed": false,
          "internalType": "uint256",
          "name": "minPrice",
          "type": "uint256"
        }
      ],
      "name": "NewPeriod",
      "type": "event"
    },
    {
      "anonymous": false,
      "inputs": [
        {
          "indexed": false,
          "internalType": "string",
          "name": "metadata",
          "type": "string"
        }
      ],
      "name": "NewSpace",
      "type": "event"
    },
    {
      "anonymous": false,
      "inputs": [
        {
          "indexed": false,
          "internalType": "uint256",
          "name": "tokenId",
          "type": "uint256"
        },
        {
          "indexed": false,
          "internalType": "string",
          "name": "metadata",
          "type": "string"
        }
      ],
      "name": "Propose",
      "type": "event"
    },
    {
      "anonymous": false,
      "inputs": [
        {
          "indexed": true,
          "internalType": "address",
          "name": "from",
          "type": "address"
        },
        {
          "indexed": true,
          "internalType": "address",
          "name": "to",
          "type": "address"
        },
        {
          "indexed": true,
          "internalType": "uint256",
          "name": "tokenId",
          "type": "uint256"
        }
      ],
      "name": "Transfer",
      "type": "event"
    },
    {
      "anonymous": false,
      "inputs": [
        {
          "indexed": false,
          "internalType": "uint256",
          "name": "amount",
          "type": "uint256"
        }
      ],
      "name": "Withdraw",
      "type": "event"
    },
    {
      "inputs": [
        {
          "internalType": "uint256",
          "name": "tokenId",
          "type": "uint256"
        }
      ],
      "name": "accept",
      "outputs": [],
      "stateMutability": "nonpayable",
      "type": "function"
    },
    {
      "inputs": [
        {
          "internalType": "string",
          "name": "metadata",
          "type": "string"
        },
        {
          "internalType": "uint256",
          "name": "fromTimestamp",
          "type": "uint256"
        },
        {
          "internalType": "uint256",
          "name": "toTimestamp",
          "type": "uint256"
        }
      ],
      "name": "adId",
      "outputs": [
        {
          "internalType": "uint256",
          "name": "",
          "type": "uint256"
        }
      ],
      "stateMutability": "pure",
      "type": "function"
    },
    {
      "inputs": [
        {
          "internalType": "uint256",
          "name": "",
          "type": "uint256"
        }
      ],
      "name": "allPeriods",
      "outputs": [
        {
          "internalType": "uint256",
          "name": "fromTimestamp",
          "type": "uint256"
        },
        {
          "internalType": "uint256",
          "name": "toTimestamp",
          "type": "uint256"
        },
        {
          "internalType": "enum AdManager.Pricing",
          "name": "pricing",
          "type": "uint8"
        },
        {
          "internalType": "uint256",
          "name": "minPrice",
          "type": "uint256"
        },
        {
          "internalType": "bool",
          "name": "sold",
          "type": "bool"
        }
      ],
      "stateMutability": "view",
      "type": "function"
    },
    {
      "inputs": [
        {
          "internalType": "address",
          "name": "to",
          "type": "address"
        },
        {
          "internalType": "uint256",
          "name": "tokenId",
          "type": "uint256"
        }
      ],
      "name": "approve",
      "outputs": [],
      "stateMutability": "nonpayable",
      "type": "function"
    },
    {
      "inputs": [],
      "name": "balance",
      "outputs": [
        {
          "internalType": "uint256",
          "name": "",
          "type": "uint256"
        }
      ],
      "stateMutability": "view",
      "type": "function"
    },
    {
      "inputs": [
        {
          "internalType": "address",
          "name": "owner",
          "type": "address"
        }
      ],
      "name": "balanceOf",
      "outputs": [
        {
          "internalType": "uint256",
          "name": "",
          "type": "uint256"
        }
      ],
      "stateMutability": "view",
      "type": "function"
    },
    {
      "inputs": [
        {
          "internalType": "uint256",
          "name": "tokenId",
          "type": "uint256"
        }
      ],
      "name": "buy",
      "outputs": [],
      "stateMutability": "payable",
      "type": "function"
    },
    {
      "inputs": [
        {
          "internalType": "uint256",
          "name": "",
          "type": "uint256"
        }
      ],
      "name": "deniedReason",
      "outputs": [
        {
          "internalType": "string",
          "name": "",
          "type": "string"
        }
      ],
      "stateMutability": "view",
      "type": "function"
    },
    {
      "inputs": [
        {
          "internalType": "uint256",
          "name": "tokenId",
          "type": "uint256"
        },
        {
          "internalType": "string",
          "name": "reason",
          "type": "string"
        }
      ],
      "name": "deny",
      "outputs": [],
      "stateMutability": "nonpayable",
      "type": "function"
    },
    {
      "inputs": [],
      "name": "distributionRightAddress",
      "outputs": [
        {
          "internalType": "address",
          "name": "",
          "type": "address"
        }
      ],
      "stateMutability": "view",
      "type": "function"
    },
    {
      "inputs": [
        {
          "internalType": "uint256",
          "name": "tokenId",
          "type": "uint256"
        }
      ],
      "name": "getApproved",
      "outputs": [
        {
          "internalType": "address",
          "name": "",
          "type": "address"
        }
      ],
      "stateMutability": "view",
      "type": "function"
    },
    {
      "inputs": [
        {
          "internalType": "string",
          "name": "title",
          "type": "string"
        },
        {
          "internalType": "string",
          "name": "baseURI",
          "type": "string"
        },
        {
          "internalType": "address",
          "name": "nameRegistry",
          "type": "address"
        }
      ],
      "name": "initialize",
      "outputs": [],
      "stateMutability": "nonpayable",
      "type": "function"
    },
    {
      "inputs": [
        {
          "internalType": "address",
          "name": "owner",
          "type": "address"
        },
        {
          "internalType": "address",
          "name": "operator",
          "type": "address"
        }
      ],
      "name": "isApprovedForAll",
      "outputs": [
        {
          "internalType": "bool",
          "name": "",
          "type": "bool"
        }
      ],
      "stateMutability": "view",
      "type": "function"
    },
    {
      "inputs": [],
      "name": "mediaId",
      "outputs": [
        {
          "internalType": "string",
          "name": "",
          "type": "string"
        }
      ],
      "stateMutability": "view",
      "type": "function"
    },
    {
      "inputs": [],
      "name": "mediaRegistryAddress",
      "outputs": [
        {
          "internalType": "address",
          "name": "",
          "type": "address"
        }
      ],
      "stateMutability": "view",
      "type": "function"
    },
    {
      "inputs": [],
      "name": "name",
      "outputs": [
        {
          "internalType": "string",
          "name": "",
          "type": "string"
        }
      ],
      "stateMutability": "view",
      "type": "function"
    },
    {
      "inputs": [],
      "name": "nameRegistryAddress",
      "outputs": [
        {
          "internalType": "address",
          "name": "",
          "type": "address"
        }
      ],
      "stateMutability": "view",
      "type": "function"
    },
    {
      "inputs": [
        {
          "internalType": "string",
          "name": "metadata",
          "type": "string"
        },
        {
          "internalType": "uint256",
          "name": "fromTimestamp",
          "type": "uint256"
        },
        {
          "internalType": "uint256",
          "name": "toTimestamp",
          "type": "uint256"
        },
        {
          "internalType": "enum AdManager.Pricing",
          "name": "pricing",
          "type": "uint8"
        },
        {
          "internalType": "uint256",
          "name": "minPrice",
          "type": "uint256"
        }
      ],
      "name": "newPeriod",
      "outputs": [],
      "stateMutability": "nonpayable",
      "type": "function"
    },
    {
      "inputs": [
        {
          "internalType": "string",
          "name": "metadata",
          "type": "string"
        }
      ],
      "name": "newSpace",
      "outputs": [],
      "stateMutability": "nonpayable",
      "type": "function"
    },
    {
      "inputs": [],
      "name": "owner",
      "outputs": [
        {
          "internalType": "address",
          "name": "",
          "type": "address"
        }
      ],
      "stateMutability": "view",
      "type": "function"
    },
    {
      "inputs": [
        {
          "internalType": "uint256",
          "name": "tokenId",
          "type": "uint256"
        }
      ],
      "name": "ownerOf",
      "outputs": [
        {
          "internalType": "address",
          "name": "",
          "type": "address"
        }
      ],
      "stateMutability": "view",
      "type": "function"
    },
    {
      "inputs": [
        {
          "internalType": "string",
          "name": "",
          "type": "string"
        },
        {
          "internalType": "uint256",
          "name": "",
          "type": "uint256"
        }
      ],
      "name": "_periodKeys",
      "outputs": [
        {
          "internalType": "uint256",
          "name": "",
          "type": "uint256"
        }
      ],
      "stateMutability": "view",
      "type": "function"
    },
    {
      "inputs": [],
      "name": "postOwnerPoolAddress",
      "outputs": [
        {
          "internalType": "address",
          "name": "",
          "type": "address"
        }
      ],
      "stateMutability": "view",
      "type": "function"
    },
    {
      "inputs": [
        {
          "internalType": "uint256",
          "name": "tokenId",
          "type": "uint256"
        },
        {
          "internalType": "string",
          "name": "metadata",
          "type": "string"
        }
      ],
      "name": "propose",
      "outputs": [],
      "stateMutability": "nonpayable",
      "type": "function"
    },
    {
      "inputs": [
        {
          "internalType": "uint256",
          "name": "",
          "type": "uint256"
        }
      ],
      "name": "proposed",
      "outputs": [
        {
          "internalType": "string",
          "name": "",
          "type": "string"
        }
      ],
      "stateMutability": "view",
      "type": "function"
    },
    {
      "inputs": [],
      "name": "reservedRightAddress",
      "outputs": [
        {
          "internalType": "address",
          "name": "",
          "type": "address"
        }
      ],
      "stateMutability": "view",
      "type": "function"
    },
    {
      "inputs": [
        {
          "internalType": "address",
          "name": "from",
          "type": "address"
        },
        {
          "internalType": "address",
          "name": "to",
          "type": "address"
        },
        {
          "internalType": "uint256",
          "name": "tokenId",
          "type": "uint256"
        }
      ],
      "name": "safeTransferFrom",
      "outputs": [],
      "stateMutability": "nonpayable",
      "type": "function"
    },
    {
      "inputs": [
        {
          "internalType": "address",
          "name": "from",
          "type": "address"
        },
        {
          "internalType": "address",
          "name": "to",
          "type": "address"
        },
        {
          "internalType": "uint256",
          "name": "tokenId",
          "type": "uint256"
        },
        {
          "internalType": "bytes",
          "name": "_data",
          "type": "bytes"
        }
      ],
      "name": "safeTransferFrom",
      "outputs": [],
      "stateMutability": "nonpayable",
      "type": "function"
    },
    {
      "inputs": [
        {
          "internalType": "address",
          "name": "operator",
          "type": "address"
        },
        {
          "internalType": "bool",
          "name": "approved",
          "type": "bool"
        }
      ],
      "name": "setApprovalForAll",
      "outputs": [],
      "stateMutability": "nonpayable",
      "type": "function"
    },
    {
      "inputs": [
        {
          "internalType": "string",
          "name": "",
          "type": "string"
        }
      ],
      "name": "spaced",
      "outputs": [
        {
          "internalType": "bool",
          "name": "",
          "type": "bool"
        }
      ],
      "stateMutability": "view",
      "type": "function"
    },
    {
      "inputs": [
        {
          "internalType": "bytes4",
          "name": "interfaceId",
          "type": "bytes4"
        }
      ],
      "name": "supportsInterface",
      "outputs": [
        {
          "internalType": "bool",
          "name": "",
          "type": "bool"
        }
      ],
      "stateMutability": "pure",
      "type": "function"
    },
    {
      "inputs": [],
      "name": "symbol",
      "outputs": [
        {
          "internalType": "string",
          "name": "",
          "type": "string"
        }
      ],
      "stateMutability": "view",
      "type": "function"
    },
    {
      "inputs": [
        {
          "internalType": "uint256",
          "name": "index",
          "type": "uint256"
        }
      ],
      "name": "tokenByIndex",
      "outputs": [
        {
          "internalType": "uint256",
          "name": "",
          "type": "uint256"
        }
      ],
      "stateMutability": "view",
      "type": "function"
    },
    {
      "inputs": [
        {
          "internalType": "address",
          "name": "owner",
          "type": "address"
        },
        {
          "internalType": "uint256",
          "name": "index",
          "type": "uint256"
        }
      ],
      "name": "tokenOfOwnerByIndex",
      "outputs": [
        {
          "internalType": "uint256",
          "name": "",
          "type": "uint256"
        }
      ],
      "stateMutability": "view",
      "type": "function"
    },
    {
      "inputs": [
        {
          "internalType": "uint256",
          "name": "tokenId",
          "type": "uint256"
        }
      ],
      "name": "tokenURI",
      "outputs": [
        {
          "internalType": "string",
          "name": "",
          "type": "string"
        }
      ],
      "stateMutability": "view",
      "type": "function"
    },
    {
      "inputs": [],
      "name": "totalSupply",
      "outputs": [
        {
          "internalType": "uint256",
          "name": "",
          "type": "uint256"
        }
      ],
      "stateMutability": "view",
      "type": "function"
    },
    {
      "inputs": [
        {
          "internalType": "address",
          "name": "from",
          "type": "address"
        },
        {
          "internalType": "address",
          "name": "to",
          "type": "address"
        },
        {
          "internalType": "uint256",
          "name": "tokenId",
          "type": "uint256"
        }
      ],
      "name": "transferFrom",
      "outputs": [],
      "stateMutability": "nonpayable",
      "type": "function"
    },
    {
      "inputs": [],
      "name": "vaultAddress",
      "outputs": [
        {
          "internalType": "address",
          "name": "",
          "type": "address"
        }
      ],
      "stateMutability": "view",
      "type": "function"
    },
    {
      "inputs": [],
      "name": "withdraw",
      "outputs": [],
      "stateMutability": "nonpayable",
      "type": "function"
    }
  ],
  "transactionHash": "0xa591055de6d3ab3c213106f67573fbd8cec2cd34d36dc1ce9f84d1cf49d166d1",
  "args": [],
  "solcInputHash": "fc4da257fbaf063229ca670f252bfef7",
  "bytecode": "0x608060405234801561001057600080fd5b5061323e806100206000396000f3fe6080604052600436106102a05760003560e01c80636a58767e1161016e578063b3a0ebc9116100cb578063cf85a77c1161007f578063d96a094a11610064578063d96a094a14610749578063e985e9c51461075c578063ef95e90f146107a557600080fd5b8063cf85a77c14610714578063d4f6b5ec1461072957600080fd5b8063b88d4fde116100b0578063b88d4fde146106b4578063c531c236146106d4578063c87b56dd146106f457600080fd5b8063b3a0ebc914610641578063b69ef8a8146106a157600080fd5b806395d89b4111610122578063a9a86f0e11610107578063a9a86f0e146105ec578063ab886cf21461060c578063ac6919a51461062c57600080fd5b806395d89b41146105b7578063a22cb465146105cc57600080fd5b80637393f289116101535780637393f28914610562578063773f2fe4146105825780638da5cb5b146105a257600080fd5b80636a58767e1461052d57806370a082311461054257600080fd5b806329a594b51161021c578063430bf08a116101d057806358ba1bb8116101b557806358ba1bb8146104b25780636352211e146104d257806365045a65146104f257600080fd5b8063430bf08a1461047d5780634f6ccce71461049257600080fd5b80632f745c59116102015780632f745c59146104285780633ccfd60b1461044857806342842e0e1461045d57600080fd5b806329a594b5146103f35780632bc4bc681461040857600080fd5b8063095ea7b31161027357806319b05f491161025857806319b05f491461039557806323b872dd146103b557806327b7a2f5146103d557600080fd5b8063095ea7b31461035657806318160ddd1461037657600080fd5b806301ffc9a7146102a557806306fdde03146102da578063077f224a146102fc578063081812fc1461031e575b600080fd5b3480156102b157600080fd5b506102c56102c03660046129b8565b6107ba565b60405190151581526020015b60405180910390f35b3480156102e657600080fd5b506102ef610823565b6040516102d19190612a34565b34801561030857600080fd5b5061031c610317366004612b08565b6108b5565b005b34801561032a57600080fd5b5061033e610339366004612b80565b610938565b6040516001600160a01b0390911681526020016102d1565b34801561036257600080fd5b5061031c610371366004612b99565b6109d2565b34801561038257600080fd5b50600b545b6040519081526020016102d1565b3480156103a157600080fd5b5061031c6103b0366004612b80565b610aff565b3480156103c157600080fd5b5061031c6103d0366004612bc5565b610b3f565b3480156103e157600080fd5b50600d546001600160a01b031661033e565b3480156103ff57600080fd5b5061033e610bc6565b34801561041457600080fd5b5061031c610423366004612c06565b610c92565b34801561043457600080fd5b50610387610443366004612b99565b610e22565b34801561045457600080fd5b5061031c610eca565b34801561046957600080fd5b5061031c610478366004612bc5565b611002565b34801561048957600080fd5b5061033e61101d565b34801561049e57600080fd5b506103876104ad366004612b80565b611064565b3480156104be57600080fd5b506102ef6104cd366004612b80565b611108565b3480156104de57600080fd5b5061033e6104ed366004612b80565b6111a2565b3480156104fe57600080fd5b506102c561050d366004612c06565b805160208183018101805160108252928201919093012091525460ff1681565b34801561053957600080fd5b5061033e611207565b34801561054e57600080fd5b5061038761055d366004612c3b565b61124e565b34801561056e57600080fd5b5061031c61057d366004612c58565b6112e8565b34801561058e57600080fd5b5061038761059d366004612c9f565b611345565b3480156105ae57600080fd5b5061033e611385565b3480156105c357600080fd5b506102ef6113e3565b3480156105d857600080fd5b5061031c6105e7366004612ce4565b6113f2565b3480156105f857600080fd5b506102ef610607366004612b80565b6114b7565b34801561061857600080fd5b5061031c610627366004612d22565b6114d0565b34801561063857600080fd5b5061033e6117b0565b34801561064d57600080fd5b5061069061065c366004612b80565b601260205260009081526040902080546001820154600283015460038401546004909401549293919260ff91821692911685565b6040516102d1959493929190612dc9565b3480156106ad57600080fd5b5047610387565b3480156106c057600080fd5b5061031c6106cf366004612dfc565b6117f7565b3480156106e057600080fd5b506103876106ef366004612e7c565b611885565b34801561070057600080fd5b506102ef61070f366004612b80565b6118cf565b34801561072057600080fd5b506102ef611a49565b34801561073557600080fd5b5061031c610744366004612c58565b611a56565b61031c610757366004612b80565b611a91565b34801561076857600080fd5b506102c5610777366004612eca565b6001600160a01b03918216600090815260086020908152604080832093909416825291909152205460ff1690565b3480156107b157600080fd5b5061033e611d52565b60006001600160e01b031982167f80ac58cd00000000000000000000000000000000000000000000000000000000148061081d57506001600160e01b031982167f5b5e139f00000000000000000000000000000000000000000000000000000000145b92915050565b60606001805461083290612ef8565b80601f016020809104026020016040519081016040528092919081815260200182805461085e90612ef8565b80156108ab5780601f10610880576101008083540402835291602001916108ab565b820191906000526020600020905b81548152906001019060200180831161088e57829003601f168201915b5050505050905090565b82516108c8906001906020860190612909565b50826040516020016108da9190612f33565b604051602081830303815290604052600290805190602001906108fe929190612909565b508151610912906003906020850190612909565b50600d80546001600160a01b0319166001600160a01b038316179055505050565b505050565b6000818152600560205260408120546001600160a01b03166109b65760405162461bcd60e51b815260206004820152602c60248201527f4552433732313a20617070726f76656420717565727920666f72206e6f6e657860448201526b34b9ba32b73a103a37b5b2b760a11b60648201526084015b60405180910390fd5b506000908152600760205260409020546001600160a01b031690565b60006109dd826111a2565b9050806001600160a01b0316836001600160a01b03161415610a675760405162461bcd60e51b815260206004820152602160248201527f4552433732313a20617070726f76616c20746f2063757272656e74206f776e6560448201527f720000000000000000000000000000000000000000000000000000000000000060648201526084016109ad565b336001600160a01b0382161480610a835750610a838133610777565b610af55760405162461bcd60e51b815260206004820152603860248201527f4552433732313a20617070726f76652063616c6c6572206973206e6f74206f7760448201527f6e6572206e6f7220617070726f76656420666f7220616c6c000000000000000060648201526084016109ad565b6109338383611d99565b610b0881611e07565b6040518181527fa573f6e77cec35b255a3fb35b673473461473d63e293d50c5eba0d7d18942383906020015b60405180910390a150565b610b493382611e3c565b610bbb5760405162461bcd60e51b815260206004820152603160248201527f4552433732313a207472616e736665722063616c6c6572206973206e6f74206f60448201527f776e6572206e6f7220617070726f76656400000000000000000000000000000060648201526084016109ad565b610933838383611f2f565b600d546040517f526573657276656452696768740000000000000000000000000000000000000060208201526000916001600160a01b031690638eaa6ac090602d015b604051602081830303815290604052805190602001206040518263ffffffff1660e01b8152600401610c3d91815260200190565b60206040518083038186803b158015610c5557600080fd5b505afa158015610c69573d6000803e3d6000fd5b505050506040513d601f19601f82011682018060405250810190610c8d9190612f78565b905090565b33610c9b612107565b604051630a57ebcf60e11b81523060048201526001600160a01b0391909116906314afd79e9060240160206040518083038186803b158015610cdc57600080fd5b505afa158015610cf0573d6000803e3d6000fd5b505050506040513d601f19601f82011682018060405250810190610d149190612f78565b6001600160a01b031614610d525760405162461bcd60e51b815260206004820152600560248201526425a218189960d91b60448201526064016109ad565b601081604051610d629190612f95565b9081526040519081900360200190205460ff1615610dc25760405162461bcd60e51b815260206004820152600560248201527f4b4431303200000000000000000000000000000000000000000000000000000060448201526064016109ad565b6001601082604051610dd49190612f95565b908152604051908190036020018120805492151560ff19909316929092179091557f8f59e770815c7e70fd6a66c717f1f6c6b2a938c9de6fd82d2c8ac7946377108990610b34908390612a34565b6000610e2d8361124e565b8210610ea15760405162461bcd60e51b815260206004820152602b60248201527f455243373231456e756d657261626c653a206f776e657220696e646578206f7560448201527f74206f6620626f756e647300000000000000000000000000000000000000000060648201526084016109ad565b506001600160a01b03919091166000908152600960209081526040808320938352929052205490565b33610ed3612107565b604051630a57ebcf60e11b81523060048201526001600160a01b0391909116906314afd79e9060240160206040518083038186803b158015610f1457600080fd5b505afa158015610f28573d6000803e3d6000fd5b505050506040513d601f19601f82011682018060405250810190610f4c9190612f78565b6001600160a01b031614610fa25760405162461bcd60e51b815260206004820152601060248201527f6973206e6f7420746865206f776e65720000000000000000000000000000000060448201526064016109ad565b6040514790339082156108fc029083906000818181858888f19350505050158015610fd1573d6000803e3d6000fd5b506040518181527f5b6b431d4476a211bb7d41c20d1aab9ae2321deee0d20be3d9fc9b1093fa6e3d90602001610b34565b610933838383604051806020016040528060008152506117f7565b600d546040517f5661756c7400000000000000000000000000000000000000000000000000000060208201526000916001600160a01b031690638eaa6ac090602501610c09565b600061106f600b5490565b82106110e35760405162461bcd60e51b815260206004820152602c60248201527f455243373231456e756d657261626c653a20676c6f62616c20696e646578206f60448201527f7574206f6620626f756e6473000000000000000000000000000000000000000060648201526084016109ad565b600b82815481106110f6576110f6612fb1565b90600052602060002001549050919050565b600e602052600090815260409020805461112190612ef8565b80601f016020809104026020016040519081016040528092919081815260200182805461114d90612ef8565b801561119a5780601f1061116f5761010080835404028352916020019161119a565b820191906000526020600020905b81548152906001019060200180831161117d57829003601f168201915b505050505081565b6000818152600560205260408120546001600160a01b03168061081d5760405162461bcd60e51b815260206004820152600560248201527f415232303200000000000000000000000000000000000000000000000000000060448201526064016109ad565b600d546040517f4d6564696152656769737472790000000000000000000000000000000000000060208201526000916001600160a01b031690638eaa6ac090602d01610c09565b60006001600160a01b0382166112cc5760405162461bcd60e51b815260206004820152602a60248201527f4552433732313a2062616c616e636520717565727920666f7220746865207a6560448201527f726f20616464726573730000000000000000000000000000000000000000000060648201526084016109ad565b506001600160a01b031660009081526006602052604090205490565b6000828152600f60209081526040909120825161130792840190612909565b507f2a14c60610aeb4a739b22a484ef8150e45f108eda24f5c35038b7ac1149de2fc8282604051611339929190612fc7565b60405180910390a15050565b8151602081840181018051601182529282019185019190912091905280548290811061137057600080fd5b90600052602060002001600091509150505481565b600d54604080517f8da5cb5b00000000000000000000000000000000000000000000000000000000815290516000926001600160a01b031691638da5cb5b916004808301926020929190829003018186803b158015610c5557600080fd5b60606002805461083290612ef8565b6001600160a01b03821633141561144b5760405162461bcd60e51b815260206004820152601960248201527f4552433732313a20617070726f766520746f2063616c6c65720000000000000060448201526064016109ad565b3360008181526008602090815260408083206001600160a01b03871680855290835292819020805460ff191686151590811790915590519081529192917f17307eab39ab6107e8899845ad3d59bd9653f200f220920489ca2b5937696c31910160405180910390a35050565b600f602052600090815260409020805461112190612ef8565b336114d9612107565b604051630a57ebcf60e11b81523060048201526001600160a01b0391909116906314afd79e9060240160206040518083038186803b15801561151a57600080fd5b505afa15801561152e573d6000803e3d6000fd5b505050506040513d601f19601f820116820180604052508101906115529190612f78565b6001600160a01b0316146115905760405162461bcd60e51b815260206004820152600560248201526425a218189960d91b60448201526064016109ad565b8284106115df5760405162461bcd60e51b815260206004820152600560248201527f4b4431303300000000000000000000000000000000000000000000000000000060448201526064016109ad565b42831161162e5760405162461bcd60e51b815260206004820152600560248201527f4b4431303400000000000000000000000000000000000000000000000000000060448201526064016109ad565b60108560405161163e9190612f95565b9081526040519081900360200190205460ff1661165e5761165e85610c92565b611669858585612111565b6000611676868686611885565b90506011866040516116889190612f95565b90815260408051918290036020908101832080546001810182556000918252908290200184905560a083018252878352820186905281018460028111156116d1576116d1612d91565b81526020018381526020016000151581525060126000838152602001908152602001600020600082015181600001556020820151816001015560408201518160020160006101000a81548160ff0219169083600281111561173457611734612d91565b0217905550606082015160038201556080909101516004909101805460ff19169115159190911790556117678187612274565b7f9d444c16141fe12704de633986a943c98d70142bfb744c5d4bb8ab2d268f04978187878787876040516117a096959493929190612fe0565b60405180910390a1505050505050565b600d546040517f446973747269627574696f6e526967687400000000000000000000000000000060208201526000916001600160a01b031690638eaa6ac090603101610c09565b6118013383611e3c565b6118735760405162461bcd60e51b815260206004820152603160248201527f4552433732313a207472616e736665722063616c6c6572206973206e6f74206f60448201527f776e6572206e6f7220617070726f76656400000000000000000000000000000060648201526084016109ad565b61187f8484848461229d565b50505050565b600066038d7ea4c680008484846040516020016118a493929190613025565b6040516020818303038152906040528051906020012060001c6118c79190613062565b949350505050565b6000818152600560205260409020546060906001600160a01b031661195c5760405162461bcd60e51b815260206004820152602f60248201527f4552433732314d657461646174613a2055524920717565727920666f72206e6f60448201527f6e6578697374656e7420746f6b656e000000000000000000000000000000000060648201526084016109ad565b60006003805461196b90612ef8565b905011611a0e576000828152600460205260409020805461198b90612ef8565b80601f01602080910402602001604051908101604052809291908181526020018280546119b790612ef8565b8015611a045780601f106119d957610100808354040283529160200191611a04565b820191906000526020600020905b8154815290600101906020018083116119e757829003601f168201915b505050505061081d565b600360046000848152602001908152602001600020604051602001611a34929190613110565b60405160208183030381529060405292915050565b6013805461112190612ef8565b611a608282612326565b7ffbcaf6dcca8992dde10374342f4a59e51717c327e0a8fcf5b460894126c4ac118282604051611339929190612fc7565b600081815260126020526040812060029081015460ff1690811115611ab857611ab8612d91565b14611b055760405162461bcd60e51b815260206004820152600760248201527f6e6f74205252500000000000000000000000000000000000000000000000000060448201526064016109ad565b60008181526012602052604090206004015460ff1615611b675760405162461bcd60e51b815260206004820152601060248201527f68617320616c726561647920736f6c640000000000000000000000000000000060448201526064016109ad565b33611b70612107565b604051630a57ebcf60e11b81523060048201526001600160a01b0391909116906314afd79e9060240160206040518083038186803b158015611bb157600080fd5b505afa158015611bc5573d6000803e3d6000fd5b505050506040513d601f19601f82011682018060405250810190611be99190612f78565b6001600160a01b03161415611c405760405162461bcd60e51b815260206004820152600c60248201527f697320746865206f776e6572000000000000000000000000000000000000000060448201526064016109ad565b6000818152601260205260409020600301543414611ca05760405162461bcd60e51b815260206004820152601460248201527f696e617070726f70726961746520616d6f756e7400000000000000000000000060448201526064016109ad565b6000818152601260205260409020600401805460ff19166001179055611cc581612345565b611ccd61101d565b6001600160a01b03166108fc611ce4600a3461313b565b6040518115909202916000818181858888f19350505050158015611d0c573d6000803e3d6000fd5b506040805182815234602082015233918101919091524260608201527f27f0e57684cd818b3b06246bbc63cf3366959e8e4dcdbd46aa5b2778f25e73b090608001610b34565b600d546040517f506f73744f776e6572506f6f6c0000000000000000000000000000000000000060208201526000916001600160a01b031690638eaa6ac090602d01610c09565b600081815260076020526040902080546001600160a01b0319166001600160a01b0384169081179091558190611dce826111a2565b6001600160a01b03167f8c5be1e5ebec7d5bd14f71427d1e84f3dd0314c0f7b2291e5b200ac8c7c3b92560405160405180910390a45050565b611e1081612353565b604080516020808201808452600080845285815260049092529290209051611e389290612909565b5050565b6000818152600560205260408120546001600160a01b0316611eb55760405162461bcd60e51b815260206004820152602c60248201527f4552433732313a206f70657261746f7220717565727920666f72206e6f6e657860448201526b34b9ba32b73a103a37b5b2b760a11b60648201526084016109ad565b6000611ec0836111a2565b9050806001600160a01b0316846001600160a01b03161480611efb5750836001600160a01b0316611ef084610938565b6001600160a01b0316145b806118c757506001600160a01b0380821660009081526008602090815260408083209388168352929052205460ff166118c7565b826001600160a01b0316611f42826111a2565b6001600160a01b031614611fbe5760405162461bcd60e51b815260206004820152602960248201527f4552433732313a207472616e73666572206f6620746f6b656e2074686174206960448201527f73206e6f74206f776e000000000000000000000000000000000000000000000060648201526084016109ad565b6001600160a01b0382166120395760405162461bcd60e51b8152602060048201526024808201527f4552433732313a207472616e7366657220746f20746865207a65726f2061646460448201527f726573730000000000000000000000000000000000000000000000000000000060648201526084016109ad565b6120448383836123fa565b61204f600082611d99565b6001600160a01b038316600090815260066020526040812080546001929061207890849061314f565b90915550506001600160a01b03821660009081526006602052604081208054600192906120a6908490613166565b909155505060008181526005602052604080822080546001600160a01b0319166001600160a01b0386811691821790925591518493918716917fddf252ad1be2c89b69c2b068fc378daa952ba7f163c4a11628f55a4df523b3ef91a4505050565b6000610c8d611207565b60005b6011846040516121249190612f95565b9081526040519081900360200190205481101561187f576000601260006011876040516121519190612f95565b9081526020016040518091039020848154811061217057612170612fb1565b906000526020600020015481526020019081526020016000206040518060a001604052908160008201548152602001600182015481526020016002820160009054906101000a900460ff1660028111156121cc576121cc612d91565b60028111156121dd576121dd612d91565b8152600382015460208083019190915260049092015460ff16151560409091015281519082015191925061221491869186916124b2565b156122615760405162461bcd60e51b815260206004820152600560248201527f4b4431303100000000000000000000000000000000000000000000000000000060448201526064016109ad565b508061226c8161317e565b915050612114565b61227e30836124cb565b6000828152600460209081526040909120825161093392840190612909565b6122a8848484611f2f565b6122b484848484612619565b61187f5760405162461bcd60e51b815260206004820152603260248201527f4552433732313a207472616e7366657220746f206e6f6e20455243373231526560448201527f63656976657220696d706c656d656e746572000000000000000000000000000060648201526084016109ad565b6000828152600e60209081526040909120825161093392840190612909565b612350303383611f2f565b50565b600061235e826111a2565b905061236c816000846123fa565b612377600083611d99565b6001600160a01b03811660009081526006602052604081208054600192906123a090849061314f565b909155505060008281526005602052604080822080546001600160a01b0319169055518391906001600160a01b038416907fddf252ad1be2c89b69c2b068fc378daa952ba7f163c4a11628f55a4df523b3ef908390a45050565b6001600160a01b0383166124555761245081600b80546000838152600c60205260408120829055600182018355919091527f0175b7a638427703f0dbe7bb9bbf987a2551717b34e79f33b5b1008d1fa01db90155565b612478565b816001600160a01b0316836001600160a01b031614612478576124788382612779565b6001600160a01b03821661248f5761093381612816565b826001600160a01b0316826001600160a01b0316146109335761093382826128c5565b6000818511806124c157508284105b1595945050505050565b6001600160a01b0382166125215760405162461bcd60e51b815260206004820181905260248201527f4552433732313a206d696e7420746f20746865207a65726f206164647265737360448201526064016109ad565b6000818152600560205260409020546001600160a01b0316156125865760405162461bcd60e51b815260206004820152601c60248201527f4552433732313a20746f6b656e20616c7265616479206d696e7465640000000060448201526064016109ad565b612592600083836123fa565b6001600160a01b03821660009081526006602052604081208054600192906125bb908490613166565b909155505060008181526005602052604080822080546001600160a01b0319166001600160a01b03861690811790915590518392907fddf252ad1be2c89b69c2b068fc378daa952ba7f163c4a11628f55a4df523b3ef908290a45050565b60006001600160a01b0384163b1561277157604051630a85bd0160e11b81526001600160a01b0385169063150b7a029061265d903390899088908890600401613199565b602060405180830381600087803b15801561267757600080fd5b505af19250505080156126a7575060408051601f3d908101601f191682019092526126a4918101906131d5565b60015b612757573d8080156126d5576040519150601f19603f3d011682016040523d82523d6000602084013e6126da565b606091505b50805161274f5760405162461bcd60e51b815260206004820152603260248201527f4552433732313a207472616e7366657220746f206e6f6e20455243373231526560448201527f63656976657220696d706c656d656e746572000000000000000000000000000060648201526084016109ad565b805181602001fd5b6001600160e01b031916630a85bd0160e11b1490506118c7565b5060016118c7565b600060016127868461124e565b612790919061314f565b6000838152600a60205260409020549091508082146127e3576001600160a01b03841660009081526009602090815260408083208584528252808320548484528184208190558352600a90915290208190555b506000918252600a602090815260408084208490556001600160a01b039094168352600981528383209183525290812055565b600b546000906128289060019061314f565b6000838152600c6020526040812054600b805493945090928490811061285057612850612fb1565b9060005260206000200154905080600b838154811061287157612871612fb1565b6000918252602080832090910192909255828152600c9091526040808220849055858252812055600b8054806128a9576128a96131f2565b6001900381819060005260206000200160009055905550505050565b60006128d08361124e565b6001600160a01b0390931660009081526009602090815260408083208684528252808320859055938252600a9052919091209190915550565b82805461291590612ef8565b90600052602060002090601f016020900481019282612937576000855561297d565b82601f1061295057805160ff191683800117855561297d565b8280016001018555821561297d579182015b8281111561297d578251825591602001919060010190612962565b5061298992915061298d565b5090565b5b80821115612989576000815560010161298e565b6001600160e01b03198116811461235057600080fd5b6000602082840312156129ca57600080fd5b81356129d5816129a2565b9392505050565b60005b838110156129f75781810151838201526020016129df565b8381111561187f5750506000910152565b60008151808452612a208160208601602086016129dc565b601f01601f19169290920160200192915050565b6020815260006129d56020830184612a08565b634e487b7160e01b600052604160045260246000fd5b600067ffffffffffffffff80841115612a7857612a78612a47565b604051601f8501601f19908116603f01168101908282118183101715612aa057612aa0612a47565b81604052809350858152868686011115612ab957600080fd5b858560208301376000602087830101525050509392505050565b600082601f830112612ae457600080fd5b6129d583833560208501612a5d565b6001600160a01b038116811461235057600080fd5b600080600060608486031215612b1d57600080fd5b833567ffffffffffffffff80821115612b3557600080fd5b612b4187838801612ad3565b94506020860135915080821115612b5757600080fd5b50612b6486828701612ad3565b9250506040840135612b7581612af3565b809150509250925092565b600060208284031215612b9257600080fd5b5035919050565b60008060408385031215612bac57600080fd5b8235612bb781612af3565b946020939093013593505050565b600080600060608486031215612bda57600080fd5b8335612be581612af3565b92506020840135612bf581612af3565b929592945050506040919091013590565b600060208284031215612c1857600080fd5b813567ffffffffffffffff811115612c2f57600080fd5b6118c784828501612ad3565b600060208284031215612c4d57600080fd5b81356129d581612af3565b60008060408385031215612c6b57600080fd5b82359150602083013567ffffffffffffffff811115612c8957600080fd5b612c9585828601612ad3565b9150509250929050565b60008060408385031215612cb257600080fd5b823567ffffffffffffffff811115612cc957600080fd5b612cd585828601612ad3565b95602094909401359450505050565b60008060408385031215612cf757600080fd5b8235612d0281612af3565b915060208301358015158114612d1757600080fd5b809150509250929050565b600080600080600060a08688031215612d3a57600080fd5b853567ffffffffffffffff811115612d5157600080fd5b612d5d88828901612ad3565b9550506020860135935060408601359250606086013560038110612d8057600080fd5b949793965091946080013592915050565b634e487b7160e01b600052602160045260246000fd5b60038110612dc557634e487b7160e01b600052602160045260246000fd5b9052565b8581526020810185905260a08101612de46040830186612da7565b83606083015282151560808301529695505050505050565b60008060008060808587031215612e1257600080fd5b8435612e1d81612af3565b93506020850135612e2d81612af3565b925060408501359150606085013567ffffffffffffffff811115612e5057600080fd5b8501601f81018713612e6157600080fd5b612e7087823560208401612a5d565b91505092959194509250565b600080600060608486031215612e9157600080fd5b833567ffffffffffffffff811115612ea857600080fd5b612eb486828701612ad3565b9660208601359650604090950135949350505050565b60008060408385031215612edd57600080fd5b8235612ee881612af3565b91506020830135612d1781612af3565b600181811c90821680612f0c57607f821691505b60208210811415612f2d57634e487b7160e01b600052602260045260246000fd5b50919050565b7f4b616c6569646f5f000000000000000000000000000000000000000000000000815260008251612f6b8160088501602087016129dc565b9190910160080192915050565b600060208284031215612f8a57600080fd5b81516129d581612af3565b60008251612fa78184602087016129dc565b9190910192915050565b634e487b7160e01b600052603260045260246000fd5b8281526040602082015260006118c76040830184612a08565b86815260c060208201526000612ff960c0830188612a08565b90508560408301528460608301526130146080830185612da7565b8260a0830152979650505050505050565b600084516130378184602089016129dc565b91909101928352506020820152604001919050565b634e487b7160e01b600052601260045260246000fd5b6000826130715761307161304c565b500690565b8054600090600181811c908083168061309057607f831692505b60208084108214156130b257634e487b7160e01b600052602260045260246000fd5b8180156130c657600181146130d757613104565b60ff19861689528489019650613104565b60008881526020902060005b868110156130fc5781548b8201529085019083016130e3565b505084890196505b50505050505092915050565b60006118c761311f8386613076565b84613076565b634e487b7160e01b600052601160045260246000fd5b60008261314a5761314a61304c565b500490565b60008282101561316157613161613125565b500390565b6000821982111561317957613179613125565b500190565b600060001982141561319257613192613125565b5060010190565b60006001600160a01b038087168352808616602084015250836040830152608060608301526131cb6080830184612a08565b9695505050505050565b6000602082840312156131e757600080fd5b81516129d5816129a2565b634e487b7160e01b600052603160045260246000fdfea2646970667358221220caddd9c81ad2d9e58292a547321ac3bfd2ffd73e4f8db0c4328ad62ee74c040a64736f6c63430008090033",
  "devdoc": {
    "author": "Shumpei Koike - <shumpei.koike@bridges.inc>",
    "kind": "dev",
    "methods": {
      "approve(address,uint256)": {
        "details": "See {IERC721-approve}."
      },
      "balanceOf(address)": {
        "details": "See {IERC721-balanceOf}."
      },
      "distributionRightAddress()": {
        "details": "Gets the address of DistributionRight."
      },
      "getApproved(uint256)": {
        "details": "See {IERC721-getApproved}."
      },
      "isApprovedForAll(address,address)": {
        "details": "See {IERC721-isApprovedForAll}."
      },
      "mediaRegistryAddress()": {
        "details": "Gets the address of MediaRegistry."
      },
      "name()": {
        "details": "See {IERC721Metadata-name}."
      },
      "nameRegistryAddress()": {
        "details": "Gets the address of NameRegistry"
      },
      "owner()": {
        "details": "Gets the owner address."
      },
      "ownerOf(uint256)": {
        "details": "See {IERC721-ownerOf}."
      },
      "reservedRightAddress()": {
        "details": "Gets the address of ReservedRight."
      },
      "safeTransferFrom(address,address,uint256)": {
        "details": "See {IERC721-safeTransferFrom}."
      },
      "safeTransferFrom(address,address,uint256,bytes)": {
        "details": "See {IERC721-safeTransferFrom}."
      },
      "setApprovalForAll(address,bool)": {
        "details": "See {IERC721-setApprovalForAll}."
      },
      "supportsInterface(bytes4)": {
        "details": "See {IERC165-supportsInterface}."
      },
      "symbol()": {
        "details": "See {IERC721Metadata-symbol}."
      },
      "tokenByIndex(uint256)": {
        "details": "See {IERC721Enumerable-tokenByIndex}."
      },
      "tokenOfOwnerByIndex(address,uint256)": {
        "details": "See {IERC721Enumerable-tokenOfOwnerByIndex}."
      },
      "tokenURI(uint256)": {
        "details": "See {IERC721Metadata-tokenURI}."
      },
      "totalSupply()": {
        "details": "See {IERC721Enumerable-totalSupply}."
      },
      "transferFrom(address,address,uint256)": {
        "details": "See {IERC721-transferFrom}."
      },
      "vaultAddress()": {
        "details": "Gets the address of Vault."
      }
    },
    "title": "AdManager - allows anyone to create a post and bit to the post.",
    "version": 1
  },
  "userdoc": {
    "kind": "user",
    "methods": {},
    "version": 1
  },
  "storageLayout": {
    "storage": [
      {
        "astId": 1605,
        "contract": "contracts/AdManager.sol:AdManager",
        "label": "dummy",
        "offset": 0,
        "slot": "0",
        "type": "t_string_storage"
      },
      {
        "astId": 1607,
        "contract": "contracts/AdManager.sol:AdManager",
        "label": "_name",
        "offset": 0,
        "slot": "1",
        "type": "t_string_storage"
      },
      {
        "astId": 1609,
        "contract": "contracts/AdManager.sol:AdManager",
        "label": "_symbol",
        "offset": 0,
        "slot": "2",
        "type": "t_string_storage"
      },
      {
        "astId": 1611,
        "contract": "contracts/AdManager.sol:AdManager",
        "label": "_baseURI",
        "offset": 0,
        "slot": "3",
        "type": "t_string_storage"
      },
      {
        "astId": 1615,
        "contract": "contracts/AdManager.sol:AdManager",
        "label": "_tokenURIs",
        "offset": 0,
        "slot": "4",
        "type": "t_mapping(t_uint256,t_string_storage)"
      },
      {
        "astId": 1619,
        "contract": "contracts/AdManager.sol:AdManager",
        "label": "_owners",
        "offset": 0,
        "slot": "5",
        "type": "t_mapping(t_uint256,t_address)"
      },
      {
        "astId": 1623,
        "contract": "contracts/AdManager.sol:AdManager",
        "label": "_balances",
        "offset": 0,
        "slot": "6",
        "type": "t_mapping(t_address,t_uint256)"
      },
      {
        "astId": 1627,
        "contract": "contracts/AdManager.sol:AdManager",
        "label": "_tokenApprovals",
        "offset": 0,
        "slot": "7",
        "type": "t_mapping(t_uint256,t_address)"
      },
      {
        "astId": 1633,
        "contract": "contracts/AdManager.sol:AdManager",
        "label": "_operatorApprovals",
        "offset": 0,
        "slot": "8",
        "type": "t_mapping(t_address,t_mapping(t_address,t_bool))"
      },
      {
        "astId": 1639,
        "contract": "contracts/AdManager.sol:AdManager",
        "label": "_ownedTokens",
        "offset": 0,
        "slot": "9",
        "type": "t_mapping(t_address,t_mapping(t_uint256,t_uint256))"
      },
      {
        "astId": 1643,
        "contract": "contracts/AdManager.sol:AdManager",
        "label": "_ownedTokensIndex",
        "offset": 0,
        "slot": "10",
        "type": "t_mapping(t_uint256,t_uint256)"
      },
      {
        "astId": 1646,
        "contract": "contracts/AdManager.sol:AdManager",
        "label": "_allTokens",
        "offset": 0,
        "slot": "11",
        "type": "t_array(t_uint256)dyn_storage"
      },
      {
        "astId": 1650,
        "contract": "contracts/AdManager.sol:AdManager",
        "label": "_allTokensIndex",
        "offset": 0,
        "slot": "12",
        "type": "t_mapping(t_uint256,t_uint256)"
      },
      {
        "astId": 1125,
        "contract": "contracts/AdManager.sol:AdManager",
        "label": "_nameRegistry",
        "offset": 0,
        "slot": "13",
        "type": "t_contract(NameRegistry)1340"
      },
      {
        "astId": 1510,
        "contract": "contracts/AdManager.sol:AdManager",
        "label": "proposed",
        "offset": 0,
        "slot": "14",
        "type": "t_mapping(t_uint256,t_string_storage)"
      },
      {
        "astId": 1514,
        "contract": "contracts/AdManager.sol:AdManager",
        "label": "deniedReason",
        "offset": 0,
        "slot": "15",
        "type": "t_mapping(t_uint256,t_string_storage)"
      },
      {
        "astId": 597,
        "contract": "contracts/AdManager.sol:AdManager",
        "label": "spaced",
        "offset": 0,
        "slot": "16",
        "type": "t_mapping(t_string_memory_ptr,t_bool)"
      },
      {
        "astId": 602,
        "contract": "contracts/AdManager.sol:AdManager",
        "label": "_periodKeys",
        "offset": 0,
        "slot": "17",
        "type": "t_mapping(t_string_memory_ptr,t_array(t_uint256)dyn_storage)"
      },
      {
        "astId": 607,
        "contract": "contracts/AdManager.sol:AdManager",
        "label": "allPeriods",
        "offset": 0,
        "slot": "18",
        "type": "t_mapping(t_uint256,t_struct(AdPeriod)593_storage)"
      },
      {
        "astId": 609,
        "contract": "contracts/AdManager.sol:AdManager",
        "label": "mediaId",
        "offset": 0,
        "slot": "19",
        "type": "t_string_storage"
      }
    ],
    "types": {
      "t_address": {
        "encoding": "inplace",
        "label": "address",
        "numberOfBytes": "20"
      },
      "t_array(t_uint256)dyn_storage": {
        "base": "t_uint256",
        "encoding": "dynamic_array",
        "label": "uint256[]",
        "numberOfBytes": "32"
      },
      "t_bool": {
        "encoding": "inplace",
        "label": "bool",
        "numberOfBytes": "1"
      },
      "t_contract(NameRegistry)1340": {
        "encoding": "inplace",
        "label": "contract NameRegistry",
        "numberOfBytes": "20"
      },
      "t_enum(Pricing)532": {
        "encoding": "inplace",
        "label": "enum AdManager.Pricing",
        "numberOfBytes": "1"
      },
      "t_mapping(t_address,t_bool)": {
        "encoding": "mapping",
        "key": "t_address",
        "label": "mapping(address => bool)",
        "numberOfBytes": "32",
        "value": "t_bool"
      },
      "t_mapping(t_address,t_mapping(t_address,t_bool))": {
        "encoding": "mapping",
        "key": "t_address",
        "label": "mapping(address => mapping(address => bool))",
        "numberOfBytes": "32",
        "value": "t_mapping(t_address,t_bool)"
      },
      "t_mapping(t_address,t_mapping(t_uint256,t_uint256))": {
        "encoding": "mapping",
        "key": "t_address",
        "label": "mapping(address => mapping(uint256 => uint256))",
        "numberOfBytes": "32",
        "value": "t_mapping(t_uint256,t_uint256)"
      },
      "t_mapping(t_address,t_uint256)": {
        "encoding": "mapping",
        "key": "t_address",
        "label": "mapping(address => uint256)",
        "numberOfBytes": "32",
        "value": "t_uint256"
      },
      "t_mapping(t_string_memory_ptr,t_array(t_uint256)dyn_storage)": {
        "encoding": "mapping",
        "key": "t_string_memory_ptr",
        "label": "mapping(string => uint256[])",
        "numberOfBytes": "32",
        "value": "t_array(t_uint256)dyn_storage"
      },
      "t_mapping(t_string_memory_ptr,t_bool)": {
        "encoding": "mapping",
        "key": "t_string_memory_ptr",
        "label": "mapping(string => bool)",
        "numberOfBytes": "32",
        "value": "t_bool"
      },
      "t_mapping(t_uint256,t_address)": {
        "encoding": "mapping",
        "key": "t_uint256",
        "label": "mapping(uint256 => address)",
        "numberOfBytes": "32",
        "value": "t_address"
      },
      "t_mapping(t_uint256,t_string_storage)": {
        "encoding": "mapping",
        "key": "t_uint256",
        "label": "mapping(uint256 => string)",
        "numberOfBytes": "32",
        "value": "t_string_storage"
      },
      "t_mapping(t_uint256,t_struct(AdPeriod)593_storage)": {
        "encoding": "mapping",
        "key": "t_uint256",
        "label": "mapping(uint256 => struct AdManager.AdPeriod)",
        "numberOfBytes": "32",
        "value": "t_struct(AdPeriod)593_storage"
      },
      "t_mapping(t_uint256,t_uint256)": {
        "encoding": "mapping",
        "key": "t_uint256",
        "label": "mapping(uint256 => uint256)",
        "numberOfBytes": "32",
        "value": "t_uint256"
      },
      "t_string_memory_ptr": {
        "encoding": "bytes",
        "label": "string",
        "numberOfBytes": "32"
      },
      "t_string_storage": {
        "encoding": "bytes",
        "label": "string",
        "numberOfBytes": "32"
      },
      "t_struct(AdPeriod)593_storage": {
        "encoding": "inplace",
        "label": "struct AdManager.AdPeriod",
        "members": [
          {
            "astId": 583,
            "contract": "contracts/AdManager.sol:AdManager",
            "label": "fromTimestamp",
            "offset": 0,
            "slot": "0",
            "type": "t_uint256"
          },
          {
            "astId": 585,
            "contract": "contracts/AdManager.sol:AdManager",
            "label": "toTimestamp",
            "offset": 0,
            "slot": "1",
            "type": "t_uint256"
          },
          {
            "astId": 588,
            "contract": "contracts/AdManager.sol:AdManager",
            "label": "pricing",
            "offset": 0,
            "slot": "2",
            "type": "t_enum(Pricing)532"
          },
          {
            "astId": 590,
            "contract": "contracts/AdManager.sol:AdManager",
            "label": "minPrice",
            "offset": 0,
            "slot": "3",
            "type": "t_uint256"
          },
          {
            "astId": 592,
            "contract": "contracts/AdManager.sol:AdManager",
            "label": "sold",
            "offset": 0,
            "slot": "4",
            "type": "t_bool"
          }
        ],
        "numberOfBytes": "160"
      },
      "t_uint256": {
        "encoding": "inplace",
        "label": "uint256",
        "numberOfBytes": "32"
      }
    }
  }
}