{
  "address": "0x6dd19478Ad2a5faa686CffCDc93Ef158F2EFDCbf",
  "abi": [
    {
      "inputs": [
        {
          "internalType": "address",
          "name": "nameRegistry",
          "type": "address"
        }
      ],
      "stateMutability": "nonpayable",
      "type": "constructor"
    },
    {
      "anonymous": false,
      "inputs": [
        {
          "indexed": false,
          "internalType": "uint256",
          "name": "bidId",
          "type": "uint256"
        },
        {
          "indexed": false,
          "internalType": "uint256",
          "name": "postId",
          "type": "uint256"
        },
        {
          "indexed": false,
          "internalType": "address",
          "name": "sender",
          "type": "address"
        },
        {
          "indexed": false,
          "internalType": "uint256",
          "name": "price",
          "type": "uint256"
        },
        {
          "indexed": false,
          "internalType": "string",
          "name": "metadata",
          "type": "string"
        }
      ],
      "name": "Bid",
      "type": "event"
    },
    {
      "anonymous": false,
      "inputs": [
        {
          "indexed": false,
          "internalType": "uint256",
          "name": "bitId",
          "type": "uint256"
        },
        {
          "indexed": false,
          "internalType": "uint256",
          "name": "postId",
          "type": "uint256"
        },
        {
          "indexed": false,
          "internalType": "address",
          "name": "successfulBidder",
          "type": "address"
        },
        {
          "indexed": false,
          "internalType": "uint256",
          "name": "price",
          "type": "uint256"
        },
        {
          "indexed": false,
          "internalType": "string",
          "name": "metadata",
          "type": "string"
        }
      ],
      "name": "Close",
      "type": "event"
    },
    {
      "anonymous": false,
      "inputs": [
        {
          "indexed": false,
          "internalType": "uint256",
          "name": "postId",
          "type": "uint256"
        },
        {
          "indexed": false,
          "internalType": "address",
          "name": "owner",
          "type": "address"
        },
        {
          "indexed": false,
          "internalType": "string",
          "name": "metadata",
          "type": "string"
        },
        {
          "indexed": false,
          "internalType": "uint256",
          "name": "fromTimestamp",
          "type": "uint256"
        },
        {
          "indexed": false,
          "internalType": "uint256",
          "name": "toTimestamp",
          "type": "uint256"
        }
      ],
      "name": "NewPost",
      "type": "event"
    },
    {
      "anonymous": false,
      "inputs": [
        {
          "indexed": false,
          "internalType": "uint256",
          "name": "bitId",
          "type": "uint256"
        },
        {
          "indexed": false,
          "internalType": "uint256",
          "name": "postId",
          "type": "uint256"
        },
        {
          "indexed": false,
          "internalType": "address",
          "name": "sender",
          "type": "address"
        },
        {
          "indexed": false,
          "internalType": "uint256",
          "name": "price",
          "type": "uint256"
        }
      ],
      "name": "Refund",
      "type": "event"
    },
    {
      "inputs": [
        {
          "internalType": "uint256",
          "name": "postId",
          "type": "uint256"
        },
        {
          "internalType": "string",
          "name": "metadata",
          "type": "string"
        }
      ],
      "name": "_bid",
      "outputs": [],
      "stateMutability": "payable",
      "type": "function"
    },
    {
      "inputs": [
        {
          "internalType": "uint256",
          "name": "postId",
          "type": "uint256"
        }
      ],
      "name": "accept",
      "outputs": [],
      "stateMutability": "nonpayable",
      "type": "function"
    },
    {
      "inputs": [],
      "name": "adPoolAddress",
      "outputs": [
        {
          "internalType": "address",
          "name": "",
          "type": "address"
        }
      ],
      "stateMutability": "view",
      "type": "function"
    },
    {
      "inputs": [
        {
          "internalType": "uint256",
          "name": "",
          "type": "uint256"
        }
      ],
      "name": "allPosts",
      "outputs": [
        {
          "internalType": "uint256",
          "name": "postId",
          "type": "uint256"
        },
        {
          "internalType": "address",
          "name": "owner",
          "type": "address"
        },
        {
          "internalType": "string",
          "name": "metadata",
          "type": "string"
        },
        {
          "internalType": "uint256",
          "name": "fromTimestamp",
          "type": "uint256"
        },
        {
          "internalType": "uint256",
          "name": "toTimestamp",
          "type": "uint256"
        },
        {
          "internalType": "address",
          "name": "successfulBidder",
          "type": "address"
        }
      ],
      "stateMutability": "view",
      "type": "function"
    },
    {
      "inputs": [
        {
          "internalType": "uint256",
          "name": "postId",
          "type": "uint256"
        },
        {
          "internalType": "string",
          "name": "metadata",
          "type": "string"
        }
      ],
      "name": "bid",
      "outputs": [],
      "stateMutability": "payable",
      "type": "function"
    },
    {
      "inputs": [
        {
          "internalType": "uint256",
          "name": "",
          "type": "uint256"
        }
      ],
      "name": "bidderInfo",
      "outputs": [
        {
          "internalType": "uint256",
          "name": "bidId",
          "type": "uint256"
        },
        {
          "internalType": "uint256",
          "name": "postId",
          "type": "uint256"
        },
        {
          "internalType": "address",
          "name": "sender",
          "type": "address"
        },
        {
          "internalType": "uint256",
          "name": "price",
          "type": "uint256"
        },
        {
          "internalType": "string",
          "name": "metadata",
          "type": "string"
        }
      ],
      "stateMutability": "view",
      "type": "function"
    },
    {
      "inputs": [
        {
          "internalType": "uint256",
          "name": "postId",
          "type": "uint256"
        }
      ],
      "name": "bidderList",
      "outputs": [
        {
          "internalType": "uint256[]",
          "name": "",
          "type": "uint256[]"
        }
      ],
      "stateMutability": "view",
      "type": "function"
    },
    {
      "inputs": [
        {
          "internalType": "uint256",
          "name": "",
          "type": "uint256"
        },
        {
          "internalType": "uint256",
          "name": "",
          "type": "uint256"
        }
      ],
      "name": "bidders",
      "outputs": [
        {
          "internalType": "uint256",
          "name": "",
          "type": "uint256"
        }
      ],
      "stateMutability": "view",
      "type": "function"
    },
    {
      "inputs": [
        {
          "internalType": "uint256",
          "name": "bidId",
          "type": "uint256"
        }
      ],
      "name": "call",
      "outputs": [],
      "stateMutability": "nonpayable",
      "type": "function"
    },
    {
      "inputs": [
        {
          "internalType": "uint256",
          "name": "bidId",
          "type": "uint256"
        }
      ],
      "name": "close",
      "outputs": [],
      "stateMutability": "nonpayable",
      "type": "function"
    },
    {
      "inputs": [
        {
          "internalType": "string",
          "name": "metadata",
          "type": "string"
        },
        {
          "internalType": "uint256",
          "name": "fromTimestamp",
          "type": "uint256"
        },
        {
          "internalType": "uint256",
          "name": "toTimestamp",
          "type": "uint256"
        }
      ],
      "name": "computePostId",
      "outputs": [
        {
          "internalType": "uint256",
          "name": "",
          "type": "uint256"
        }
      ],
      "stateMutability": "pure",
      "type": "function"
    },
    {
      "inputs": [],
      "name": "distributionRightAddress",
      "outputs": [
        {
          "internalType": "address",
          "name": "",
          "type": "address"
        }
      ],
      "stateMutability": "view",
      "type": "function"
    },
    {
      "inputs": [],
      "name": "nameRegistryAddress",
      "outputs": [
        {
          "internalType": "address",
          "name": "",
          "type": "address"
        }
      ],
      "stateMutability": "view",
      "type": "function"
    },
    {
      "inputs": [
        {
          "internalType": "string",
          "name": "metadata",
          "type": "string"
        },
        {
          "internalType": "uint256",
          "name": "fromTimestamp",
          "type": "uint256"
        },
        {
          "internalType": "uint256",
          "name": "toTimestamp",
          "type": "uint256"
        }
      ],
      "name": "newPost",
      "outputs": [],
      "stateMutability": "nonpayable",
      "type": "function"
    },
    {
      "inputs": [],
      "name": "nextBidId",
      "outputs": [
        {
          "internalType": "uint256",
          "name": "",
          "type": "uint256"
        }
      ],
      "stateMutability": "view",
      "type": "function"
    },
    {
      "inputs": [],
      "name": "owner",
      "outputs": [
        {
          "internalType": "address",
          "name": "",
          "type": "address"
        }
      ],
      "stateMutability": "view",
      "type": "function"
    },
    {
      "inputs": [
        {
          "internalType": "uint256",
          "name": "postId",
          "type": "uint256"
        },
        {
          "internalType": "string",
          "name": "metadata",
          "type": "string"
        }
      ],
      "name": "propose",
      "outputs": [],
      "stateMutability": "nonpayable",
      "type": "function"
    },
    {
      "inputs": [
        {
          "internalType": "uint256",
          "name": "postId",
          "type": "uint256"
        }
      ],
      "name": "raise",
      "outputs": [],
      "stateMutability": "payable",
      "type": "function"
    },
    {
      "inputs": [
        {
          "internalType": "uint256",
          "name": "bidId",
          "type": "uint256"
        }
      ],
      "name": "refund",
      "outputs": [],
      "stateMutability": "nonpayable",
      "type": "function"
    },
    {
      "inputs": [
        {
          "internalType": "uint256",
          "name": "",
          "type": "uint256"
        }
      ],
      "name": "reservations",
      "outputs": [
        {
          "internalType": "uint256",
          "name": "price",
          "type": "uint256"
        },
        {
          "internalType": "address",
          "name": "currentBidder",
          "type": "address"
        },
        {
          "internalType": "address",
          "name": "postOwner",
          "type": "address"
        },
        {
          "internalType": "string",
          "name": "metadata",
          "type": "string"
        }
      ],
      "stateMutability": "view",
      "type": "function"
    },
    {
      "inputs": [
        {
          "internalType": "uint256",
          "name": "postId",
          "type": "uint256"
        }
      ],
      "name": "reserve",
      "outputs": [],
      "stateMutability": "payable",
      "type": "function"
    },
    {
      "inputs": [],
      "name": "reservedRightAddress",
      "outputs": [
        {
          "internalType": "address",
          "name": "",
          "type": "address"
        }
      ],
      "stateMutability": "view",
      "type": "function"
    },
    {
      "inputs": [
        {
          "internalType": "enum AdManager.SampleEnum",
          "name": "enumParam",
          "type": "uint8"
        }
      ],
      "name": "testEnumParam",
      "outputs": [
        {
          "internalType": "enum AdManager.SampleEnum",
          "name": "",
          "type": "uint8"
        }
      ],
      "stateMutability": "pure",
      "type": "function"
    },
    {
      "inputs": [],
      "name": "vaultAddress",
      "outputs": [
        {
          "internalType": "address",
          "name": "",
          "type": "address"
        }
      ],
      "stateMutability": "view",
      "type": "function"
    }
  ],
  "transactionHash": "0xb9b80bf63f3a85e54aaddee31eb3e7a3b7c81bdddca69a744f08e29ee3da6140",
  "args": [
    "0x83b8cD9BC87a5f910fc73646c0Fa623D4d3d7f3D"
  ],
  "solcInputHash": "8212c2184ff8dd6d9991f02150a121e1",
  "bytecode": "0x60806040526001600555600160065534801561001a57600080fd5b50604051611fd7380380611fd78339810160408190526100399161005e565b600080546001600160a01b0319166001600160a01b039290921691909117905561008e565b60006020828403121561007057600080fd5b81516001600160a01b038116811461008757600080fd5b9392505050565b611f3a8061009d6000396000f3fe60806040526004361061018a5760003560e01c8063718ce2bc116100d6578063c9cd71b51161007f578063d4f6b5ec11610059578063d4f6b5ec1461043a578063dc2690491461045a578063fef7c2231461047057600080fd5b8063c9cd71b5146103ca578063d1c11205146103df578063d3584e841461040d57600080fd5b80638da5cb5b116100b05780638da5cb5b146103805780638f50b14314610395578063ac6919a5146103b557600080fd5b8063718ce2bc1461032857806377a1eecd1461035a578063819b25ba1461036d57600080fd5b8063278ecde1116101385780632b096926116101125780632b096926146102c85780633e4b2a42146102e8578063430bf08a1461031357600080fd5b8063278ecde11461026157806327b7a2f51461028157806329a594b5146102b357600080fd5b80630d5daf3b116101695780630d5daf3b146101fd5780630fc55fd11461022e57806319b05f491461024157600080fd5b80624f48031461018f578063067cf832146101a45780630aebeb4e146101dd575b600080fd5b6101a261019d366004611afb565b610490565b005b3480156101b057600080fd5b506101c46101bf366004611afb565b610513565b6040516101d49493929190611d41565b60405180910390f35b3480156101e957600080fd5b506101a26101f8366004611afb565b6105d2565b34801561020957600080fd5b5061021d610218366004611afb565b61090d565b6040516101d4959493929190611e02565b6101a261023c366004611b2d565b6109d3565b34801561024d57600080fd5b506101a261025c366004611afb565b610a31565b34801561026d57600080fd5b506101a261027c366004611afb565b610c39565b34801561028d57600080fd5b506000546001600160a01b03165b6040516001600160a01b0390911681526020016101d4565b3480156102bf57600080fd5b5061029b610d45565b3480156102d457600080fd5b506101a26102e3366004611afb565b610e11565b3480156102f457600080fd5b50610306610303366004611a8c565b90565b6040516101d49190611cf4565b34801561031f57600080fd5b5061029b611107565b34801561033457600080fd5b50610348610343366004611afb565b61114e565b6040516101d496959493929190611db9565b6101a2610368366004611b2d565b611221565b6101a261037b366004611afb565b611369565b34801561038c57600080fd5b5061029b6113d5565b3480156103a157600080fd5b506101a26103b0366004611aad565b611424565b3480156103c157600080fd5b5061029b6116b4565b3480156103d657600080fd5b5061029b6116fb565b3480156103eb57600080fd5b506103ff6103fa366004611b74565b611742565b6040519081526020016101d4565b34801561041957600080fd5b5061042d610428366004611afb565b611773565b6040516101d49190611cb0565b34801561044657600080fd5b506101a2610455366004611b2d565b6117d5565b34801561046657600080fd5b506103ff60065481565b34801561047c57600080fd5b506103ff61048b366004611aad565b611848565b6000818152600460205260409020600101546001600160a01b031634338214156104e65760405162461bcd60e51b8152602060048201526002602482015261105160f21b60448201526064015b60405180910390fd5b60405162461bcd60e51b8152602060048201526002602482015261105160f21b60448201526064016104dd565b600460205260009081526040902080546001820154600283015460038401805493946001600160a01b0393841694939092169261054f90611e82565b80601f016020809104026020016040519081016040528092919081815260200182805461057b90611e82565b80156105c85780601f1061059d576101008083540402835291602001916105c8565b820191906000526020600020905b8154815290600101906020018083116105ab57829003601f168201915b5050505050905084565b6000818152600360208181526040808420815160a0810183528154815260018201549381019390935260028101546001600160a01b03169183019190915291820154606082015260048201805491929160808401919061063190611e82565b80601f016020809104026020016040519081016040528092919081815260200182805461065d90611e82565b80156106aa5780601f1061067f576101008083540402835291602001916106aa565b820191906000526020600020905b81548152906001019060200180831161068d57829003601f168201915b5050509190925250508151919250506106ed5760405162461bcd60e51b8152602060048201526005602482015264414431303360d81b60448201526064016104dd565b60208082015160009081526001918290526040902001546001600160a01b031633146107435760405162461bcd60e51b815260206004820152600560248201526420a218981960d91b60448201526064016104dd565b604081810151602080840151600090815260019091529190912060050180546001600160a01b0319166001600160a01b03909216919091179055606081015133906108fc90600a90610796906009611e63565b6107a09190611e41565b6040518115909202916000818181858888f193505050501580156107c8573d6000803e3d6000fd5b506107d16118de565b6001600160a01b03166108fc600a836060015160016107f09190611e63565b6107fa9190611e41565b6040518115909202916000818181858888f19350505050158015610822573d6000803e3d6000fd5b5061082b6118e8565b604080830151602084015191517f8e9e614e0000000000000000000000000000000000000000000000000000000081523360048201526001600160a01b03918216602482015260448101929092529190911690638e9e614e90606401600060405180830381600087803b1580156108a157600080fd5b505af11580156108b5573d6000803e3d6000fd5b5050825160208401516040808601516060870151608088015192517ff763d6ab2a4f1accf9c4fca103d30b90f90db83afeaad6b67481601184b1690d9750610901965091929091611e02565b60405180910390a15050565b600360208190526000918252604090912080546001820154600283015493830154600484018054939592946001600160a01b039093169391929161095090611e82565b80601f016020809104026020016040519081016040528092919081815260200182805461097c90611e82565b80156109c95780601f1061099e576101008083540402835291602001916109c9565b820191906000526020600020905b8154815290600101906020018083116109ac57829003601f168201915b5050505050905085565b6000828152600160205260409020600501546001600160a01b031615610a235760405162461bcd60e51b8152602060048201526005602482015264414431303160d81b60448201526064016104dd565b610a2d8282611221565b5050565b7fc5d2460186f7233c927e7db2dcc703c0e500b653ca82273b7bfad8045d85a47060046000838152602001908152602001600020600301604051602001610a789190611be3565b604051602081830303815290604052805190602001201415610ac15760405162461bcd60e51b8152602060048201526002602482015261105160f21b60448201526064016104dd565b610ac96118e8565b6001600160a01b0316638e9e614e610adf6116fb565b6040517fffffffff0000000000000000000000000000000000000000000000000000000060e084901b1681526001600160a01b03909116600482015233602482015260448101849052606401600060405180830381600087803b158015610b4557600080fd5b505af1158015610b59573d6000803e3d6000fd5b50505050610b656118f2565b6000828152600460208190526040918290205491517faa90b35f000000000000000000000000000000000000000000000000000000008152339181019190915260248101919091526001600160a01b03919091169063aa90b35f90604401600060405180830381600087803b158015610bdd57600080fd5b505af1158015610bf1573d6000803e3d6000fd5b50505060008281526004602052604081208181556001810180546001600160a01b031990811690915560028201805490911690559150610c3460038301826118fc565b505050565b6000818152600360205260409020600201546001600160a01b03163314610ca25760405162461bcd60e51b815260206004820152600560248201527f414431303400000000000000000000000000000000000000000000000000000060448201526064016104dd565b6000818152600360208190526040808320909101549051339282156108fc02929190818181858888f19350505050158015610ce1573d6000803e3d6000fd5b506000818152600360208181526040928390206001810154920154835185815291820192909252339281019290925260608201527f303a7a5ed564cf1b7e8ec302e0d290e0c69d9785d1e5d43db651d7995f0bc0199060800160405180910390a150565b600080546040517f526573657276656452696768740000000000000000000000000000000000000060208201526001600160a01b0390911690638eaa6ac090602d015b604051602081830303815290604052805190602001206040518263ffffffff1660e01b8152600401610dbc91815260200190565b60206040518083038186803b158015610dd457600080fd5b505afa158015610de8573d6000803e3d6000fd5b505050506040513d601f19601f82011682018060405250810190610e0c9190611a5c565b905090565b6000818152600360208181526040808420815160a0810183528154815260018201549381019390935260028101546001600160a01b031691830191909152918201546060820152600482018054919291608084019190610e7090611e82565b80601f0160208091040260200160405190810160405280929190818152602001828054610e9c90611e82565b8015610ee95780601f10610ebe57610100808354040283529160200191610ee9565b820191906000526020600020905b815481529060010190602001808311610ecc57829003601f168201915b505050919092525050815191925050610f2c5760405162461bcd60e51b8152602060048201526005602482015264414431303360d81b60448201526064016104dd565b60208082015160009081526001918290526040902001546001600160a01b03163314610f825760405162461bcd60e51b815260206004820152600560248201526420a218981960d91b60448201526064016104dd565b604080516080810182526060808401518252838301516001600160a01b0390811660208085019182523385870190815286518083018852600080825295870190815282890151865260048352969094208551815591516001830180549185166001600160a01b03199283161790559351600283018054919094169416939093179091559251805192939261101c9260038501920190611936565b509050506110286118e8565b6001600160a01b0316638e9e614e3361103f6116fb565b60208501516040517fffffffff0000000000000000000000000000000000000000000000000000000060e086901b1681526001600160a01b0393841660048201529290911660248301526044820152606401600060405180830381600087803b1580156110ab57600080fd5b505af11580156110bf573d6000803e3d6000fd5b505050506110cb6116fb565b6001600160a01b03166108fc82606001519081150290604051600060405180830381858888f19350505050158015610c34573d6000803e3d6000fd5b600080546040517f5661756c7400000000000000000000000000000000000000000000000000000060208201526001600160a01b0390911690638eaa6ac090602501610d88565b60016020819052600091825260409091208054918101546002820180546001600160a01b03909216929161118190611e82565b80601f01602080910402602001604051908101604052809291908181526020018280546111ad90611e82565b80156111fa5780601f106111cf576101008083540402835291602001916111fa565b820191906000526020600020905b8154815290600101906020018083116111dd57829003601f168201915b5050505060038301546004840154600590940154929390929091506001600160a01b031686565b61125c6040518060a00160405280600081526020016000815260200160006001600160a01b0316815260200160008152602001606081525090565b6006805490600061126c83611ebd565b9091555080825260208083018581523360408086019182523460608701908152608087018881526000968752600380875292909620875181559351600185015591516002840180546001600160a01b0319166001600160a01b03909216919091179055905190820155915180518493926112ed926004850192910190611936565b505050600083815260026020908152604080832084518154600181018355918552938390200192909255825190830151838301516060850151608086015194517f01662ff7392d9961759cf40cab7a64e5ad660ba64a9df944343ce23b2b94c4479561135c9594939291611e02565b60405180910390a1505050565b6000818152600160205260409020600501546001600160a01b0316156113b95760405162461bcd60e51b8152602060048201526005602482015264414431303160d81b60448201526064016104dd565b6113d28160405180602001604052806000815250611221565b50565b60008060009054906101000a90046001600160a01b03166001600160a01b0316638da5cb5b6040518163ffffffff1660e01b815260040160206040518083038186803b158015610dd457600080fd5b8082106114585760405162461bcd60e51b8152602060048201526002602482015261105160f21b60448201526064016104dd565b6114a36040518060c001604052806000815260200160006001600160a01b0316815260200160608152602001600081526020016000815260200160006001600160a01b031681525090565b60405163fef7c22360e01b815273a118E19Ee2673A8803EbBB7b9369dF8c4346ccd69063fef7c223906114de90879087908790600401611d1c565b60206040518083038186803b1580156114f657600080fd5b505af415801561150a573d6000803e3d6000fd5b505050506040513d601f19601f8201168201806040525081019061152e9190611b14565b80825233602080840191825260408085018881526060860188905260808601879052600094855260018084529190942085518155925190830180546001600160a01b0319166001600160a01b0390921691909117905591518051849361159b926002850192910190611936565b50606082015160038201556080820151600482015560a090910151600590910180546001600160a01b0319166001600160a01b039092169190911790556115e06118e8565b81516040517fd3fc98640000000000000000000000000000000000000000000000000000000081526001600160a01b03929092169163d3fc98649161162c913391908990600401611c7f565b600060405180830381600087803b15801561164657600080fd5b505af115801561165a573d6000803e3d6000fd5b5050825160208401516040808601516060870151608088015192517fe535a02a01920b38061e7785d5f3d4688d895a51cc21bb9e09b59a11d3befcfb97506116a6965091929091611d7d565b60405180910390a150505050565b600080546040517f446973747269627574696f6e526967687400000000000000000000000000000060208201526001600160a01b0390911690638eaa6ac090603101610d88565b600080546040517f4164506f6f6c000000000000000000000000000000000000000000000000000060208201526001600160a01b0390911690638eaa6ac090602601610d88565b6002602052816000526040600020818154811061175e57600080fd5b90600052602060002001600091509150505481565b6000818152600260209081526040918290208054835181840281018401909452808452606093928301828280156117c957602002820191906000526020600020905b8154815260200190600101908083116117b5575b50505050509050919050565b6000828152600460205260409020600101546001600160a01b031633146118235760405162461bcd60e51b8152602060048201526002602482015261105160f21b60448201526064016104dd565b60008281526004602090815260409091208251610c3492600390920191840190611936565b60405163fef7c22360e01b815260009073a118E19Ee2673A8803EbBB7b9369dF8c4346ccd69063fef7c2239061188690879087908790600401611d1c565b60206040518083038186803b15801561189e57600080fd5b505af41580156118b2573d6000803e3d6000fd5b505050506040513d601f19601f820116820180604052508101906118d69190611b14565b949350505050565b6000610e0c611107565b6000610e0c6116b4565b6000610e0c6116fb565b50805461190890611e82565b6000825580601f10611918575050565b601f0160209004906000526020600020908101906113d291906119ba565b82805461194290611e82565b90600052602060002090601f01602090048101928261196457600085556119aa565b82601f1061197d57805160ff19168380011785556119aa565b828001600101855582156119aa579182015b828111156119aa57825182559160200191906001019061198f565b506119b69291506119ba565b5090565b5b808211156119b657600081556001016119bb565b600082601f8301126119e057600080fd5b813567ffffffffffffffff808211156119fb576119fb611eee565b604051601f8301601f19908116603f01168101908282118183101715611a2357611a23611eee565b81604052838152866020858801011115611a3c57600080fd5b836020870160208301376000602085830101528094505050505092915050565b600060208284031215611a6e57600080fd5b81516001600160a01b0381168114611a8557600080fd5b9392505050565b600060208284031215611a9e57600080fd5b813560048110611a8557600080fd5b600080600060608486031215611ac257600080fd5b833567ffffffffffffffff811115611ad957600080fd5b611ae5868287016119cf565b9660208601359650604090950135949350505050565b600060208284031215611b0d57600080fd5b5035919050565b600060208284031215611b2657600080fd5b5051919050565b60008060408385031215611b4057600080fd5b82359150602083013567ffffffffffffffff811115611b5e57600080fd5b611b6a858286016119cf565b9150509250929050565b60008060408385031215611b8757600080fd5b50508035926020909101359150565b6000815180845260005b81811015611bbc57602081850181015186830182015201611ba0565b81811115611bce576000602083870101525b50601f01601f19169290920160200192915050565b600080835481600182811c915080831680611bff57607f831692505b6020808410821415611c1f57634e487b7160e01b86526022600452602486fd5b818015611c335760018114611c4457611c71565b60ff19861689528489019650611c71565b60008a81526020902060005b86811015611c695781548b820152908501908301611c50565b505084890196505b509498975050505050505050565b6001600160a01b0384168152826020820152606060408201526000611ca76060830184611b96565b95945050505050565b6020808252825182820181905260009190848201906040850190845b81811015611ce857835183529284019291840191600101611ccc565b50909695505050505050565b6020810160048310611d1657634e487b7160e01b600052602160045260246000fd5b91905290565b606081526000611d2f6060830186611b96565b60208301949094525060400152919050565b84815260006001600160a01b03808616602084015280851660408401525060806060830152611d736080830184611b96565b9695505050505050565b8581526001600160a01b038516602082015260a060408201526000611da560a0830186611b96565b606083019490945250608001529392505050565b86815260006001600160a01b03808816602084015260c06040840152611de260c0840188611b96565b6060840196909652608083019490945250911660a0909101529392505050565b8581528460208201526001600160a01b038416604082015282606082015260a060808201526000611e3660a0830184611b96565b979650505050505050565b600082611e5e57634e487b7160e01b600052601260045260246000fd5b500490565b6000816000190483118215151615611e7d57611e7d611ed8565b500290565b600181811c90821680611e9657607f821691505b60208210811415611eb757634e487b7160e01b600052602260045260246000fd5b50919050565b6000600019821415611ed157611ed1611ed8565b5060010190565b634e487b7160e01b600052601160045260246000fd5b634e487b7160e01b600052604160045260246000fdfea264697066735822122069038c89df6a18aa823ce4e4a0cf786a2316d6772c403978c42b8fb7865fe3f264736f6c63430008060033",
  "deployedBytecode": "0x60806040526004361061018a5760003560e01c8063718ce2bc116100d6578063c9cd71b51161007f578063d4f6b5ec11610059578063d4f6b5ec1461043a578063dc2690491461045a578063fef7c2231461047057600080fd5b8063c9cd71b5146103ca578063d1c11205146103df578063d3584e841461040d57600080fd5b80638da5cb5b116100b05780638da5cb5b146103805780638f50b14314610395578063ac6919a5146103b557600080fd5b8063718ce2bc1461032857806377a1eecd1461035a578063819b25ba1461036d57600080fd5b8063278ecde1116101385780632b096926116101125780632b096926146102c85780633e4b2a42146102e8578063430bf08a1461031357600080fd5b8063278ecde11461026157806327b7a2f51461028157806329a594b5146102b357600080fd5b80630d5daf3b116101695780630d5daf3b146101fd5780630fc55fd11461022e57806319b05f491461024157600080fd5b80624f48031461018f578063067cf832146101a45780630aebeb4e146101dd575b600080fd5b6101a261019d366004611afb565b610490565b005b3480156101b057600080fd5b506101c46101bf366004611afb565b610513565b6040516101d49493929190611d41565b60405180910390f35b3480156101e957600080fd5b506101a26101f8366004611afb565b6105d2565b34801561020957600080fd5b5061021d610218366004611afb565b61090d565b6040516101d4959493929190611e02565b6101a261023c366004611b2d565b6109d3565b34801561024d57600080fd5b506101a261025c366004611afb565b610a31565b34801561026d57600080fd5b506101a261027c366004611afb565b610c39565b34801561028d57600080fd5b506000546001600160a01b03165b6040516001600160a01b0390911681526020016101d4565b3480156102bf57600080fd5b5061029b610d45565b3480156102d457600080fd5b506101a26102e3366004611afb565b610e11565b3480156102f457600080fd5b50610306610303366004611a8c565b90565b6040516101d49190611cf4565b34801561031f57600080fd5b5061029b611107565b34801561033457600080fd5b50610348610343366004611afb565b61114e565b6040516101d496959493929190611db9565b6101a2610368366004611b2d565b611221565b6101a261037b366004611afb565b611369565b34801561038c57600080fd5b5061029b6113d5565b3480156103a157600080fd5b506101a26103b0366004611aad565b611424565b3480156103c157600080fd5b5061029b6116b4565b3480156103d657600080fd5b5061029b6116fb565b3480156103eb57600080fd5b506103ff6103fa366004611b74565b611742565b6040519081526020016101d4565b34801561041957600080fd5b5061042d610428366004611afb565b611773565b6040516101d49190611cb0565b34801561044657600080fd5b506101a2610455366004611b2d565b6117d5565b34801561046657600080fd5b506103ff60065481565b34801561047c57600080fd5b506103ff61048b366004611aad565b611848565b6000818152600460205260409020600101546001600160a01b031634338214156104e65760405162461bcd60e51b8152602060048201526002602482015261105160f21b60448201526064015b60405180910390fd5b60405162461bcd60e51b8152602060048201526002602482015261105160f21b60448201526064016104dd565b600460205260009081526040902080546001820154600283015460038401805493946001600160a01b0393841694939092169261054f90611e82565b80601f016020809104026020016040519081016040528092919081815260200182805461057b90611e82565b80156105c85780601f1061059d576101008083540402835291602001916105c8565b820191906000526020600020905b8154815290600101906020018083116105ab57829003601f168201915b5050505050905084565b6000818152600360208181526040808420815160a0810183528154815260018201549381019390935260028101546001600160a01b03169183019190915291820154606082015260048201805491929160808401919061063190611e82565b80601f016020809104026020016040519081016040528092919081815260200182805461065d90611e82565b80156106aa5780601f1061067f576101008083540402835291602001916106aa565b820191906000526020600020905b81548152906001019060200180831161068d57829003601f168201915b5050509190925250508151919250506106ed5760405162461bcd60e51b8152602060048201526005602482015264414431303360d81b60448201526064016104dd565b60208082015160009081526001918290526040902001546001600160a01b031633146107435760405162461bcd60e51b815260206004820152600560248201526420a218981960d91b60448201526064016104dd565b604081810151602080840151600090815260019091529190912060050180546001600160a01b0319166001600160a01b03909216919091179055606081015133906108fc90600a90610796906009611e63565b6107a09190611e41565b6040518115909202916000818181858888f193505050501580156107c8573d6000803e3d6000fd5b506107d16118de565b6001600160a01b03166108fc600a836060015160016107f09190611e63565b6107fa9190611e41565b6040518115909202916000818181858888f19350505050158015610822573d6000803e3d6000fd5b5061082b6118e8565b604080830151602084015191517f8e9e614e0000000000000000000000000000000000000000000000000000000081523360048201526001600160a01b03918216602482015260448101929092529190911690638e9e614e90606401600060405180830381600087803b1580156108a157600080fd5b505af11580156108b5573d6000803e3d6000fd5b5050825160208401516040808601516060870151608088015192517ff763d6ab2a4f1accf9c4fca103d30b90f90db83afeaad6b67481601184b1690d9750610901965091929091611e02565b60405180910390a15050565b600360208190526000918252604090912080546001820154600283015493830154600484018054939592946001600160a01b039093169391929161095090611e82565b80601f016020809104026020016040519081016040528092919081815260200182805461097c90611e82565b80156109c95780601f1061099e576101008083540402835291602001916109c9565b820191906000526020600020905b8154815290600101906020018083116109ac57829003601f168201915b5050505050905085565b6000828152600160205260409020600501546001600160a01b031615610a235760405162461bcd60e51b8152602060048201526005602482015264414431303160d81b60448201526064016104dd565b610a2d8282611221565b5050565b7fc5d2460186f7233c927e7db2dcc703c0e500b653ca82273b7bfad8045d85a47060046000838152602001908152602001600020600301604051602001610a789190611be3565b604051602081830303815290604052805190602001201415610ac15760405162461bcd60e51b8152602060048201526002602482015261105160f21b60448201526064016104dd565b610ac96118e8565b6001600160a01b0316638e9e614e610adf6116fb565b6040517fffffffff0000000000000000000000000000000000000000000000000000000060e084901b1681526001600160a01b03909116600482015233602482015260448101849052606401600060405180830381600087803b158015610b4557600080fd5b505af1158015610b59573d6000803e3d6000fd5b50505050610b656118f2565b6000828152600460208190526040918290205491517faa90b35f000000000000000000000000000000000000000000000000000000008152339181019190915260248101919091526001600160a01b03919091169063aa90b35f90604401600060405180830381600087803b158015610bdd57600080fd5b505af1158015610bf1573d6000803e3d6000fd5b50505060008281526004602052604081208181556001810180546001600160a01b031990811690915560028201805490911690559150610c3460038301826118fc565b505050565b6000818152600360205260409020600201546001600160a01b03163314610ca25760405162461bcd60e51b815260206004820152600560248201527f414431303400000000000000000000000000000000000000000000000000000060448201526064016104dd565b6000818152600360208190526040808320909101549051339282156108fc02929190818181858888f19350505050158015610ce1573d6000803e3d6000fd5b506000818152600360208181526040928390206001810154920154835185815291820192909252339281019290925260608201527f303a7a5ed564cf1b7e8ec302e0d290e0c69d9785d1e5d43db651d7995f0bc0199060800160405180910390a150565b600080546040517f526573657276656452696768740000000000000000000000000000000000000060208201526001600160a01b0390911690638eaa6ac090602d015b604051602081830303815290604052805190602001206040518263ffffffff1660e01b8152600401610dbc91815260200190565b60206040518083038186803b158015610dd457600080fd5b505afa158015610de8573d6000803e3d6000fd5b505050506040513d601f19601f82011682018060405250810190610e0c9190611a5c565b905090565b6000818152600360208181526040808420815160a0810183528154815260018201549381019390935260028101546001600160a01b031691830191909152918201546060820152600482018054919291608084019190610e7090611e82565b80601f0160208091040260200160405190810160405280929190818152602001828054610e9c90611e82565b8015610ee95780601f10610ebe57610100808354040283529160200191610ee9565b820191906000526020600020905b815481529060010190602001808311610ecc57829003601f168201915b505050919092525050815191925050610f2c5760405162461bcd60e51b8152602060048201526005602482015264414431303360d81b60448201526064016104dd565b60208082015160009081526001918290526040902001546001600160a01b03163314610f825760405162461bcd60e51b815260206004820152600560248201526420a218981960d91b60448201526064016104dd565b604080516080810182526060808401518252838301516001600160a01b0390811660208085019182523385870190815286518083018852600080825295870190815282890151865260048352969094208551815591516001830180549185166001600160a01b03199283161790559351600283018054919094169416939093179091559251805192939261101c9260038501920190611936565b509050506110286118e8565b6001600160a01b0316638e9e614e3361103f6116fb565b60208501516040517fffffffff0000000000000000000000000000000000000000000000000000000060e086901b1681526001600160a01b0393841660048201529290911660248301526044820152606401600060405180830381600087803b1580156110ab57600080fd5b505af11580156110bf573d6000803e3d6000fd5b505050506110cb6116fb565b6001600160a01b03166108fc82606001519081150290604051600060405180830381858888f19350505050158015610c34573d6000803e3d6000fd5b600080546040517f5661756c7400000000000000000000000000000000000000000000000000000060208201526001600160a01b0390911690638eaa6ac090602501610d88565b60016020819052600091825260409091208054918101546002820180546001600160a01b03909216929161118190611e82565b80601f01602080910402602001604051908101604052809291908181526020018280546111ad90611e82565b80156111fa5780601f106111cf576101008083540402835291602001916111fa565b820191906000526020600020905b8154815290600101906020018083116111dd57829003601f168201915b5050505060038301546004840154600590940154929390929091506001600160a01b031686565b61125c6040518060a00160405280600081526020016000815260200160006001600160a01b0316815260200160008152602001606081525090565b6006805490600061126c83611ebd565b9091555080825260208083018581523360408086019182523460608701908152608087018881526000968752600380875292909620875181559351600185015591516002840180546001600160a01b0319166001600160a01b03909216919091179055905190820155915180518493926112ed926004850192910190611936565b505050600083815260026020908152604080832084518154600181018355918552938390200192909255825190830151838301516060850151608086015194517f01662ff7392d9961759cf40cab7a64e5ad660ba64a9df944343ce23b2b94c4479561135c9594939291611e02565b60405180910390a1505050565b6000818152600160205260409020600501546001600160a01b0316156113b95760405162461bcd60e51b8152602060048201526005602482015264414431303160d81b60448201526064016104dd565b6113d28160405180602001604052806000815250611221565b50565b60008060009054906101000a90046001600160a01b03166001600160a01b0316638da5cb5b6040518163ffffffff1660e01b815260040160206040518083038186803b158015610dd457600080fd5b8082106114585760405162461bcd60e51b8152602060048201526002602482015261105160f21b60448201526064016104dd565b6114a36040518060c001604052806000815260200160006001600160a01b0316815260200160608152602001600081526020016000815260200160006001600160a01b031681525090565b60405163fef7c22360e01b815273__$f662caf489fd8d22a3db0ce873690c8b4a$__9063fef7c223906114de90879087908790600401611d1c565b60206040518083038186803b1580156114f657600080fd5b505af415801561150a573d6000803e3d6000fd5b505050506040513d601f19601f8201168201806040525081019061152e9190611b14565b80825233602080840191825260408085018881526060860188905260808601879052600094855260018084529190942085518155925190830180546001600160a01b0319166001600160a01b0390921691909117905591518051849361159b926002850192910190611936565b50606082015160038201556080820151600482015560a090910151600590910180546001600160a01b0319166001600160a01b039092169190911790556115e06118e8565b81516040517fd3fc98640000000000000000000000000000000000000000000000000000000081526001600160a01b03929092169163d3fc98649161162c913391908990600401611c7f565b600060405180830381600087803b15801561164657600080fd5b505af115801561165a573d6000803e3d6000fd5b5050825160208401516040808601516060870151608088015192517fe535a02a01920b38061e7785d5f3d4688d895a51cc21bb9e09b59a11d3befcfb97506116a6965091929091611d7d565b60405180910390a150505050565b600080546040517f446973747269627574696f6e526967687400000000000000000000000000000060208201526001600160a01b0390911690638eaa6ac090603101610d88565b600080546040517f4164506f6f6c000000000000000000000000000000000000000000000000000060208201526001600160a01b0390911690638eaa6ac090602601610d88565b6002602052816000526040600020818154811061175e57600080fd5b90600052602060002001600091509150505481565b6000818152600260209081526040918290208054835181840281018401909452808452606093928301828280156117c957602002820191906000526020600020905b8154815260200190600101908083116117b5575b50505050509050919050565b6000828152600460205260409020600101546001600160a01b031633146118235760405162461bcd60e51b8152602060048201526002602482015261105160f21b60448201526064016104dd565b60008281526004602090815260409091208251610c3492600390920191840190611936565b60405163fef7c22360e01b815260009073__$f662caf489fd8d22a3db0ce873690c8b4a$__9063fef7c2239061188690879087908790600401611d1c565b60206040518083038186803b15801561189e57600080fd5b505af41580156118b2573d6000803e3d6000fd5b505050506040513d601f19601f820116820180604052508101906118d69190611b14565b949350505050565b6000610e0c611107565b6000610e0c6116b4565b6000610e0c6116fb565b50805461190890611e82565b6000825580601f10611918575050565b601f0160209004906000526020600020908101906113d291906119ba565b82805461194290611e82565b90600052602060002090601f01602090048101928261196457600085556119aa565b82601f1061197d57805160ff19168380011785556119aa565b828001600101855582156119aa579182015b828111156119aa57825182559160200191906001019061198f565b506119b69291506119ba565b5090565b5b808211156119b657600081556001016119bb565b600082601f8301126119e057600080fd5b813567ffffffffffffffff808211156119fb576119fb611eee565b604051601f8301601f19908116603f01168101908282118183101715611a2357611a23611eee565b81604052838152866020858801011115611a3c57600080fd5b836020870160208301376000602085830101528094505050505092915050565b600060208284031215611a6e57600080fd5b81516001600160a01b0381168114611a8557600080fd5b9392505050565b600060208284031215611a9e57600080fd5b813560048110611a8557600080fd5b600080600060608486031215611ac257600080fd5b833567ffffffffffffffff811115611ad957600080fd5b611ae5868287016119cf565b9660208601359650604090950135949350505050565b600060208284031215611b0d57600080fd5b5035919050565b600060208284031215611b2657600080fd5b5051919050565b60008060408385031215611b4057600080fd5b82359150602083013567ffffffffffffffff811115611b5e57600080fd5b611b6a858286016119cf565b9150509250929050565b60008060408385031215611b8757600080fd5b50508035926020909101359150565b6000815180845260005b81811015611bbc57602081850181015186830182015201611ba0565b81811115611bce576000602083870101525b50601f01601f19169290920160200192915050565b600080835481600182811c915080831680611bff57607f831692505b6020808410821415611c1f57634e487b7160e01b86526022600452602486fd5b818015611c335760018114611c4457611c71565b60ff19861689528489019650611c71565b60008a81526020902060005b86811015611c695781548b820152908501908301611c50565b505084890196505b509498975050505050505050565b6001600160a01b0384168152826020820152606060408201526000611ca76060830184611b96565b95945050505050565b6020808252825182820181905260009190848201906040850190845b81811015611ce857835183529284019291840191600101611ccc565b50909695505050505050565b6020810160048310611d1657634e487b7160e01b600052602160045260246000fd5b91905290565b606081526000611d2f6060830186611b96565b60208301949094525060400152919050565b84815260006001600160a01b03808616602084015280851660408401525060806060830152611d736080830184611b96565b9695505050505050565b8581526001600160a01b038516602082015260a060408201526000611da560a0830186611b96565b606083019490945250608001529392505050565b86815260006001600160a01b03808816602084015260c06040840152611de260c0840188611b96565b6060840196909652608083019490945250911660a0909101529392505050565b8581528460208201526001600160a01b038416604082015282606082015260a060808201526000611e3660a0830184611b96565b979650505050505050565b600082611e5e57634e487b7160e01b600052601260045260246000fd5b500490565b6000816000190483118215151615611e7d57611e7d611ed8565b500290565b600181811c90821680611e9657607f821691505b60208210811415611eb757634e487b7160e01b600052602260045260246000fd5b50919050565b6000600019821415611ed157611ed1611ed8565b5060010190565b634e487b7160e01b600052601160045260246000fd5b634e487b7160e01b600052604160045260246000fdfea264697066735822122069038c89df6a18aa823ce4e4a0cf786a2316d6772c403978c42b8fb7865fe3f264736f6c63430008060033",
  "libraries": {
    "IDGenerator": "0xa118E19Ee2673A8803EbBB7b9369dF8c4346ccd6"
  },
  "devdoc": {
    "author": "Shumpei Koike - <shumpei.koike@bridges.inc>",
    "kind": "dev",
    "methods": {
      "adPoolAddress()": {
        "details": "Gets the address of AdPool."
      },
      "bid(uint256,string)": {
        "details": "Bids to the post, sharing what kind of Ads would be public.      The owner of the Ad space can select the one according to not only      the price but also the preference inside the metadata.",
        "params": {
          "metadata": "string of the hashed path to the storage",
          "postId": "uint256 of the post ID"
        }
      },
      "close(uint256)": {
        "details": "Closes the offering and mints the NFT to the successful bidder.      The amount would be paid to the post owner.",
        "params": {
          "bidId": "uint256 of the bid ID"
        }
      },
      "distributionRightAddress()": {
        "details": "Gets the address of DistributionRight."
      },
      "nameRegistryAddress()": {
        "details": "Gets the address of NameRegistry"
      },
      "newPost(string,uint256,uint256)": {
        "details": "Creates a new post where the owner who has the advertising area      can public the space. The basic infomation of the area is described      on the storage, which is accessed by the metadata hash.",
        "params": {
          "fromTimestamp": "uint256 of the timestamp to display the ad",
          "metadata": "string of the hashed path to the storage",
          "toTimestamp": "uint256 of the timestamp to display the ad"
        }
      },
      "owner()": {
        "details": "Gets the owner address."
      },
      "refund(uint256)": {
        "details": "Can refund the amount if you want to cancel or      the other is determinted as the successful bidder.",
        "params": {
          "bidId": "uint256 of the bid ID"
        }
      },
      "reservedRightAddress()": {
        "details": "Gets the address of ReservedRight."
      },
      "vaultAddress()": {
        "details": "Gets the address of Vault."
      }
    },
    "title": "AdManager - allows anyone to create a post and bit to the post.",
    "version": 1
  },
  "userdoc": {
    "kind": "user",
    "methods": {},
    "version": 1
  },
  "storageLayout": {
    "storage": [
      {
        "astId": 526,
        "contract": "contracts/base/AdManager.sol:AdManager",
        "label": "_nameRegistry",
        "offset": 0,
        "slot": "0",
        "type": "t_contract(NameRegistry)725"
      },
      {
        "astId": 887,
        "contract": "contracts/base/AdManager.sol:AdManager",
        "label": "allPosts",
        "offset": 0,
        "slot": "1",
        "type": "t_mapping(t_uint256,t_struct(PostContent)857_storage)"
      },
      {
        "astId": 892,
        "contract": "contracts/base/AdManager.sol:AdManager",
        "label": "bidders",
        "offset": 0,
        "slot": "2",
        "type": "t_mapping(t_uint256,t_array(t_uint256)dyn_storage)"
      },
      {
        "astId": 897,
        "contract": "contracts/base/AdManager.sol:AdManager",
        "label": "bidderInfo",
        "offset": 0,
        "slot": "3",
        "type": "t_mapping(t_uint256,t_struct(Bidder)868_storage)"
      },
      {
        "astId": 902,
        "contract": "contracts/base/AdManager.sol:AdManager",
        "label": "reservations",
        "offset": 0,
        "slot": "4",
        "type": "t_mapping(t_uint256,t_struct(Reservation)877_storage)"
      },
      {
        "astId": 905,
        "contract": "contracts/base/AdManager.sol:AdManager",
        "label": "_nextPostId",
        "offset": 0,
        "slot": "5",
        "type": "t_uint256"
      },
      {
        "astId": 908,
        "contract": "contracts/base/AdManager.sol:AdManager",
        "label": "nextBidId",
        "offset": 0,
        "slot": "6",
        "type": "t_uint256"
      }
    ],
    "types": {
      "t_address": {
        "encoding": "inplace",
        "label": "address",
        "numberOfBytes": "20"
      },
      "t_array(t_uint256)dyn_storage": {
        "base": "t_uint256",
        "encoding": "dynamic_array",
        "label": "uint256[]",
        "numberOfBytes": "32"
      },
      "t_contract(NameRegistry)725": {
        "encoding": "inplace",
        "label": "contract NameRegistry",
        "numberOfBytes": "20"
      },
      "t_mapping(t_uint256,t_array(t_uint256)dyn_storage)": {
        "encoding": "mapping",
        "key": "t_uint256",
        "label": "mapping(uint256 => uint256[])",
        "numberOfBytes": "32",
        "value": "t_array(t_uint256)dyn_storage"
      },
      "t_mapping(t_uint256,t_struct(Bidder)868_storage)": {
        "encoding": "mapping",
        "key": "t_uint256",
        "label": "mapping(uint256 => struct AdManager.Bidder)",
        "numberOfBytes": "32",
        "value": "t_struct(Bidder)868_storage"
      },
      "t_mapping(t_uint256,t_struct(PostContent)857_storage)": {
        "encoding": "mapping",
        "key": "t_uint256",
        "label": "mapping(uint256 => struct AdManager.PostContent)",
        "numberOfBytes": "32",
        "value": "t_struct(PostContent)857_storage"
      },
      "t_mapping(t_uint256,t_struct(Reservation)877_storage)": {
        "encoding": "mapping",
        "key": "t_uint256",
        "label": "mapping(uint256 => struct AdManager.Reservation)",
        "numberOfBytes": "32",
        "value": "t_struct(Reservation)877_storage"
      },
      "t_string_storage": {
        "encoding": "bytes",
        "label": "string",
        "numberOfBytes": "32"
      },
      "t_struct(Bidder)868_storage": {
        "encoding": "inplace",
        "label": "struct AdManager.Bidder",
        "members": [
          {
            "astId": 859,
            "contract": "contracts/base/AdManager.sol:AdManager",
            "label": "bidId",
            "offset": 0,
            "slot": "0",
            "type": "t_uint256"
          },
          {
            "astId": 861,
            "contract": "contracts/base/AdManager.sol:AdManager",
            "label": "postId",
            "offset": 0,
            "slot": "1",
            "type": "t_uint256"
          },
          {
            "astId": 863,
            "contract": "contracts/base/AdManager.sol:AdManager",
            "label": "sender",
            "offset": 0,
            "slot": "2",
            "type": "t_address"
          },
          {
            "astId": 865,
            "contract": "contracts/base/AdManager.sol:AdManager",
            "label": "price",
            "offset": 0,
            "slot": "3",
            "type": "t_uint256"
          },
          {
            "astId": 867,
            "contract": "contracts/base/AdManager.sol:AdManager",
            "label": "metadata",
            "offset": 0,
            "slot": "4",
            "type": "t_string_storage"
          }
        ],
        "numberOfBytes": "160"
      },
      "t_struct(PostContent)857_storage": {
        "encoding": "inplace",
        "label": "struct AdManager.PostContent",
        "members": [
          {
            "astId": 846,
            "contract": "contracts/base/AdManager.sol:AdManager",
            "label": "postId",
            "offset": 0,
            "slot": "0",
            "type": "t_uint256"
          },
          {
            "astId": 848,
            "contract": "contracts/base/AdManager.sol:AdManager",
            "label": "owner",
            "offset": 0,
            "slot": "1",
            "type": "t_address"
          },
          {
            "astId": 850,
            "contract": "contracts/base/AdManager.sol:AdManager",
            "label": "metadata",
            "offset": 0,
            "slot": "2",
            "type": "t_string_storage"
          },
          {
            "astId": 852,
            "contract": "contracts/base/AdManager.sol:AdManager",
            "label": "fromTimestamp",
            "offset": 0,
            "slot": "3",
            "type": "t_uint256"
          },
          {
            "astId": 854,
            "contract": "contracts/base/AdManager.sol:AdManager",
            "label": "toTimestamp",
            "offset": 0,
            "slot": "4",
            "type": "t_uint256"
          },
          {
            "astId": 856,
            "contract": "contracts/base/AdManager.sol:AdManager",
            "label": "successfulBidder",
            "offset": 0,
            "slot": "5",
            "type": "t_address"
          }
        ],
        "numberOfBytes": "192"
      },
      "t_struct(Reservation)877_storage": {
        "encoding": "inplace",
        "label": "struct AdManager.Reservation",
        "members": [
          {
            "astId": 870,
            "contract": "contracts/base/AdManager.sol:AdManager",
            "label": "price",
            "offset": 0,
            "slot": "0",
            "type": "t_uint256"
          },
          {
            "astId": 872,
            "contract": "contracts/base/AdManager.sol:AdManager",
            "label": "currentBidder",
            "offset": 0,
            "slot": "1",
            "type": "t_address"
          },
          {
            "astId": 874,
            "contract": "contracts/base/AdManager.sol:AdManager",
            "label": "postOwner",
            "offset": 0,
            "slot": "2",
            "type": "t_address"
          },
          {
            "astId": 876,
            "contract": "contracts/base/AdManager.sol:AdManager",
            "label": "metadata",
            "offset": 0,
            "slot": "3",
            "type": "t_string_storage"
          }
        ],
        "numberOfBytes": "128"
      },
      "t_uint256": {
        "encoding": "inplace",
        "label": "uint256",
        "numberOfBytes": "32"
      }
    }
  }
}