{
  "address": "0xA3e4fadad91698daDdB9C5b5bc2a628eC1Dde1D0",
  "abi": [
    {
      "anonymous": false,
      "inputs": [
        {
          "indexed": true,
          "internalType": "address",
          "name": "owner",
          "type": "address"
        },
        {
          "indexed": true,
          "internalType": "address",
          "name": "approved",
          "type": "address"
        },
        {
          "indexed": true,
          "internalType": "uint256",
          "name": "tokenId",
          "type": "uint256"
        }
      ],
      "name": "Approval",
      "type": "event"
    },
    {
      "anonymous": false,
      "inputs": [
        {
          "indexed": true,
          "internalType": "address",
          "name": "owner",
          "type": "address"
        },
        {
          "indexed": true,
          "internalType": "address",
          "name": "operator",
          "type": "address"
        },
        {
          "indexed": false,
          "internalType": "bool",
          "name": "approved",
          "type": "bool"
        }
      ],
      "name": "ApprovalForAll",
      "type": "event"
    },
    {
      "anonymous": false,
      "inputs": [
        {
          "indexed": true,
          "internalType": "address",
          "name": "from",
          "type": "address"
        },
        {
          "indexed": true,
          "internalType": "address",
          "name": "to",
          "type": "address"
        },
        {
          "indexed": true,
          "internalType": "uint256",
          "name": "tokenId",
          "type": "uint256"
        }
      ],
      "name": "Transfer",
      "type": "event"
    },
    {
      "inputs": [
        {
          "internalType": "uint256",
          "name": "tokenId",
          "type": "uint256"
        },
        {
          "internalType": "string",
          "name": "tokenMetadata",
          "type": "string"
        }
      ],
      "name": "acceptOffer",
      "outputs": [],
      "stateMutability": "nonpayable",
      "type": "function"
    },
    {
      "inputs": [
        {
          "internalType": "uint256",
          "name": "tokenId",
          "type": "uint256"
        }
      ],
      "name": "acceptProposal",
      "outputs": [],
      "stateMutability": "nonpayable",
      "type": "function"
    },
    {
      "inputs": [
        {
          "internalType": "string",
          "name": "spaceMetadata",
          "type": "string"
        },
        {
          "internalType": "uint256",
          "name": "displayStartTimestamp",
          "type": "uint256"
        },
        {
          "internalType": "uint256",
          "name": "displayEndTimestamp",
          "type": "uint256"
        }
      ],
      "name": "adId",
      "outputs": [
        {
          "internalType": "uint256",
          "name": "",
          "type": "uint256"
        }
      ],
      "stateMutability": "pure",
      "type": "function"
    },
    {
      "inputs": [],
      "name": "adPoolAddress",
      "outputs": [
        {
          "internalType": "address",
          "name": "",
          "type": "address"
        }
      ],
      "stateMutability": "view",
      "type": "function"
    },
    {
      "inputs": [
        {
          "internalType": "address",
          "name": "to",
          "type": "address"
        },
        {
          "internalType": "uint256",
          "name": "tokenId",
          "type": "uint256"
        }
      ],
      "name": "approve",
      "outputs": [],
      "stateMutability": "nonpayable",
      "type": "function"
    },
    {
      "inputs": [],
      "name": "balance",
      "outputs": [
        {
          "internalType": "uint256",
          "name": "",
          "type": "uint256"
        }
      ],
      "stateMutability": "view",
      "type": "function"
    },
    {
      "inputs": [
        {
          "internalType": "address",
          "name": "owner",
          "type": "address"
        }
      ],
      "name": "balanceOf",
      "outputs": [
        {
          "internalType": "uint256",
          "name": "",
          "type": "uint256"
        }
      ],
      "stateMutability": "view",
      "type": "function"
    },
    {
      "inputs": [
        {
          "internalType": "uint256",
          "name": "tokenId",
          "type": "uint256"
        }
      ],
      "name": "bid",
      "outputs": [],
      "stateMutability": "payable",
      "type": "function"
    },
    {
      "inputs": [
        {
          "internalType": "uint256",
          "name": "tokenId",
          "type": "uint256"
        },
        {
          "internalType": "string",
          "name": "proposalMetadata",
          "type": "string"
        }
      ],
      "name": "bidWithProposal",
      "outputs": [],
      "stateMutability": "payable",
      "type": "function"
    },
    {
      "inputs": [
        {
          "internalType": "uint256",
          "name": "tokenId",
          "type": "uint256"
        }
      ],
      "name": "buy",
      "outputs": [],
      "stateMutability": "payable",
      "type": "function"
    },
    {
      "inputs": [
        {
          "internalType": "uint256",
          "name": "tokenId",
          "type": "uint256"
        }
      ],
      "name": "buyBasedOnTime",
      "outputs": [],
      "stateMutability": "payable",
      "type": "function"
    },
    {
      "inputs": [
        {
          "internalType": "uint256",
          "name": "tokenId",
          "type": "uint256"
        }
      ],
      "name": "cancelOffer",
      "outputs": [],
      "stateMutability": "nonpayable",
      "type": "function"
    },
    {
      "inputs": [
        {
          "internalType": "uint256",
          "name": "tokenId",
          "type": "uint256"
        }
      ],
      "name": "currentPrice",
      "outputs": [
        {
          "internalType": "uint256",
          "name": "",
          "type": "uint256"
        }
      ],
      "stateMutability": "view",
      "type": "function"
    },
    {
      "inputs": [
        {
          "internalType": "uint256",
          "name": "tokenId",
          "type": "uint256"
        }
      ],
      "name": "deletePeriod",
      "outputs": [],
      "stateMutability": "nonpayable",
      "type": "function"
    },
    {
      "inputs": [
        {
          "internalType": "uint256",
          "name": "tokenId",
          "type": "uint256"
        },
        {
          "internalType": "string",
          "name": "reason",
          "type": "string"
        },
        {
          "internalType": "bool",
          "name": "offensive",
          "type": "bool"
        }
      ],
      "name": "denyProposal",
      "outputs": [],
      "stateMutability": "nonpayable",
      "type": "function"
    },
    {
      "inputs": [
        {
          "internalType": "string",
          "name": "spaceMetadata",
          "type": "string"
        }
      ],
      "name": "display",
      "outputs": [
        {
          "internalType": "string",
          "name": "",
          "type": "string"
        },
        {
          "internalType": "uint256",
          "name": "",
          "type": "uint256"
        }
      ],
      "stateMutability": "view",
      "type": "function"
    },
    {
      "inputs": [],
      "name": "englishAuctionAddress",
      "outputs": [
        {
          "internalType": "address",
          "name": "",
          "type": "address"
        }
      ],
      "stateMutability": "view",
      "type": "function"
    },
    {
      "inputs": [],
      "name": "eventEmitterAddress",
      "outputs": [
        {
          "internalType": "address",
          "name": "",
          "type": "address"
        }
      ],
      "stateMutability": "view",
      "type": "function"
    },
    {
      "inputs": [
        {
          "internalType": "uint256",
          "name": "tokenId",
          "type": "uint256"
        }
      ],
      "name": "getApproved",
      "outputs": [
        {
          "internalType": "address",
          "name": "",
          "type": "address"
        }
      ],
      "stateMutability": "view",
      "type": "function"
    },
    {
      "inputs": [
        {
          "internalType": "string",
          "name": "title",
          "type": "string"
        },
        {
          "internalType": "string",
          "name": "baseURI",
          "type": "string"
        },
        {
          "internalType": "string",
          "name": "tokenMetadata",
          "type": "string"
        },
        {
          "internalType": "address",
          "name": "mediaEOA",
          "type": "address"
        },
        {
          "internalType": "address",
          "name": "nameRegistry",
          "type": "address"
        }
      ],
      "name": "initialize",
      "outputs": [],
      "stateMutability": "nonpayable",
      "type": "function"
    },
    {
      "inputs": [
        {
          "internalType": "address",
          "name": "owner",
          "type": "address"
        },
        {
          "internalType": "address",
          "name": "operator",
          "type": "address"
        }
      ],
      "name": "isApprovedForAll",
      "outputs": [
        {
          "internalType": "bool",
          "name": "",
          "type": "bool"
        }
      ],
      "stateMutability": "view",
      "type": "function"
    },
    {
      "inputs": [],
      "name": "mediaFactoryAddress",
      "outputs": [
        {
          "internalType": "address",
          "name": "",
          "type": "address"
        }
      ],
      "stateMutability": "view",
      "type": "function"
    },
    {
      "inputs": [],
      "name": "mediaRegistryAddress",
      "outputs": [
        {
          "internalType": "address",
          "name": "",
          "type": "address"
        }
      ],
      "stateMutability": "view",
      "type": "function"
    },
    {
      "inputs": [],
      "name": "name",
      "outputs": [
        {
          "internalType": "string",
          "name": "",
          "type": "string"
        }
      ],
      "stateMutability": "view",
      "type": "function"
    },
    {
      "inputs": [],
      "name": "nameRegistryAddress",
      "outputs": [
        {
          "internalType": "address",
          "name": "",
          "type": "address"
        }
      ],
      "stateMutability": "view",
      "type": "function"
    },
    {
      "inputs": [
        {
          "internalType": "string",
          "name": "spaceMetadata",
          "type": "string"
        },
        {
          "internalType": "string",
          "name": "tokenMetadata",
          "type": "string"
        },
        {
          "internalType": "uint256",
          "name": "saleEndTimestamp",
          "type": "uint256"
        },
        {
          "internalType": "uint256",
          "name": "displayStartTimestamp",
          "type": "uint256"
        },
        {
          "internalType": "uint256",
          "name": "displayEndTimestamp",
          "type": "uint256"
        },
        {
          "internalType": "enum Ad.Pricing",
          "name": "pricing",
          "type": "uint8"
        },
        {
          "internalType": "uint256",
          "name": "minPrice",
          "type": "uint256"
        }
      ],
      "name": "newPeriod",
      "outputs": [],
      "stateMutability": "nonpayable",
      "type": "function"
    },
    {
      "inputs": [
        {
          "internalType": "string",
          "name": "spaceMetadata",
          "type": "string"
        }
      ],
      "name": "newSpace",
      "outputs": [],
      "stateMutability": "nonpayable",
      "type": "function"
    },
    {
      "inputs": [],
      "name": "offerBidAddress",
      "outputs": [
        {
          "internalType": "address",
          "name": "",
          "type": "address"
        }
      ],
      "stateMutability": "view",
      "type": "function"
    },
    {
      "inputs": [
        {
          "internalType": "string",
          "name": "spaceMetadata",
          "type": "string"
        },
        {
          "internalType": "uint256",
          "name": "displayStartTimestamp",
          "type": "uint256"
        },
        {
          "internalType": "uint256",
          "name": "displayEndTimestamp",
          "type": "uint256"
        }
      ],
      "name": "offerPeriod",
      "outputs": [],
      "stateMutability": "payable",
      "type": "function"
    },
    {
      "inputs": [],
      "name": "openBidAddress",
      "outputs": [
        {
          "internalType": "address",
          "name": "",
          "type": "address"
        }
      ],
      "stateMutability": "view",
      "type": "function"
    },
    {
      "inputs": [],
      "name": "owner",
      "outputs": [
        {
          "internalType": "address",
          "name": "",
          "type": "address"
        }
      ],
      "stateMutability": "view",
      "type": "function"
    },
    {
      "inputs": [
        {
          "internalType": "uint256",
          "name": "tokenId",
          "type": "uint256"
        }
      ],
      "name": "ownerOf",
      "outputs": [
        {
          "internalType": "address",
          "name": "",
          "type": "address"
        }
      ],
      "stateMutability": "view",
      "type": "function"
    },
    {
      "inputs": [],
      "name": "proposalReviewAddress",
      "outputs": [
        {
          "internalType": "address",
          "name": "",
          "type": "address"
        }
      ],
      "stateMutability": "view",
      "type": "function"
    },
    {
      "inputs": [
        {
          "internalType": "uint256",
          "name": "tokenId",
          "type": "uint256"
        },
        {
          "internalType": "string",
          "name": "metadata",
          "type": "string"
        }
      ],
      "name": "propose",
      "outputs": [],
      "stateMutability": "nonpayable",
      "type": "function"
    },
    {
      "inputs": [
        {
          "internalType": "uint256",
          "name": "tokenId",
          "type": "uint256"
        }
      ],
      "name": "pushToSuccessfulBidder",
      "outputs": [],
      "stateMutability": "nonpayable",
      "type": "function"
    },
    {
      "inputs": [
        {
          "internalType": "uint256",
          "name": "tokenId",
          "type": "uint256"
        }
      ],
      "name": "receiveToken",
      "outputs": [],
      "stateMutability": "nonpayable",
      "type": "function"
    },
    {
      "inputs": [
        {
          "internalType": "address",
          "name": "from",
          "type": "address"
        },
        {
          "internalType": "address",
          "name": "to",
          "type": "address"
        },
        {
          "internalType": "uint256",
          "name": "tokenId",
          "type": "uint256"
        }
      ],
      "name": "safeTransferFrom",
      "outputs": [],
      "stateMutability": "nonpayable",
      "type": "function"
    },
    {
      "inputs": [
        {
          "internalType": "address",
          "name": "from",
          "type": "address"
        },
        {
          "internalType": "address",
          "name": "to",
          "type": "address"
        },
        {
          "internalType": "uint256",
          "name": "tokenId",
          "type": "uint256"
        },
        {
          "internalType": "bytes",
          "name": "_data",
          "type": "bytes"
        }
      ],
      "name": "safeTransferFrom",
      "outputs": [],
      "stateMutability": "nonpayable",
      "type": "function"
    },
    {
      "inputs": [
        {
          "internalType": "uint256",
          "name": "tokenId",
          "type": "uint256"
        },
        {
          "internalType": "uint256",
          "name": "index",
          "type": "uint256"
        }
      ],
      "name": "selectProposal",
      "outputs": [],
      "stateMutability": "nonpayable",
      "type": "function"
    },
    {
      "inputs": [
        {
          "internalType": "address",
          "name": "operator",
          "type": "address"
        },
        {
          "internalType": "bool",
          "name": "approved",
          "type": "bool"
        }
      ],
      "name": "setApprovalForAll",
      "outputs": [],
      "stateMutability": "nonpayable",
      "type": "function"
    },
    {
      "inputs": [
        {
          "internalType": "bytes4",
          "name": "interfaceId",
          "type": "bytes4"
        }
      ],
      "name": "supportsInterface",
      "outputs": [
        {
          "internalType": "bool",
          "name": "",
          "type": "bool"
        }
      ],
      "stateMutability": "pure",
      "type": "function"
    },
    {
      "inputs": [],
      "name": "symbol",
      "outputs": [
        {
          "internalType": "string",
          "name": "",
          "type": "string"
        }
      ],
      "stateMutability": "view",
      "type": "function"
    },
    {
      "inputs": [
        {
          "internalType": "uint256",
          "name": "index",
          "type": "uint256"
        }
      ],
      "name": "tokenByIndex",
      "outputs": [
        {
          "internalType": "uint256",
          "name": "",
          "type": "uint256"
        }
      ],
      "stateMutability": "view",
      "type": "function"
    },
    {
      "inputs": [
        {
          "internalType": "address",
          "name": "owner",
          "type": "address"
        },
        {
          "internalType": "uint256",
          "name": "index",
          "type": "uint256"
        }
      ],
      "name": "tokenOfOwnerByIndex",
      "outputs": [
        {
          "internalType": "uint256",
          "name": "",
          "type": "uint256"
        }
      ],
      "stateMutability": "view",
      "type": "function"
    },
    {
      "inputs": [
        {
          "internalType": "uint256",
          "name": "tokenId",
          "type": "uint256"
        }
      ],
      "name": "tokenURI",
      "outputs": [
        {
          "internalType": "string",
          "name": "",
          "type": "string"
        }
      ],
      "stateMutability": "view",
      "type": "function"
    },
    {
      "inputs": [],
      "name": "totalSupply",
      "outputs": [
        {
          "internalType": "uint256",
          "name": "",
          "type": "uint256"
        }
      ],
      "stateMutability": "view",
      "type": "function"
    },
    {
      "inputs": [
        {
          "internalType": "address",
          "name": "from",
          "type": "address"
        },
        {
          "internalType": "address",
          "name": "to",
          "type": "address"
        },
        {
          "internalType": "uint256",
          "name": "tokenId",
          "type": "uint256"
        }
      ],
      "name": "transferFrom",
      "outputs": [],
      "stateMutability": "nonpayable",
      "type": "function"
    },
    {
      "inputs": [
        {
          "internalType": "address",
          "name": "newMediaEOA",
          "type": "address"
        },
        {
          "internalType": "string",
          "name": "newMetadata",
          "type": "string"
        }
      ],
      "name": "updateMedia",
      "outputs": [],
      "stateMutability": "nonpayable",
      "type": "function"
    },
    {
      "inputs": [],
      "name": "vaultAddress",
      "outputs": [
        {
          "internalType": "address",
          "name": "",
          "type": "address"
        }
      ],
      "stateMutability": "view",
      "type": "function"
    },
    {
      "inputs": [],
      "name": "withdraw",
      "outputs": [],
      "stateMutability": "nonpayable",
      "type": "function"
    },
    {
      "inputs": [],
      "name": "withdrawalAmount",
      "outputs": [
        {
          "internalType": "uint256",
          "name": "",
          "type": "uint256"
        }
      ],
      "stateMutability": "view",
      "type": "function"
    }
  ],
  "transactionHash": "0x95faf508822d5eca2e96da752e304daee3489348db2770361228efad1ade281d",
  "args": [],
  "solcInputHash": "289fa2710193a113c0b3ec7823c19cab",
  "bytecode": "0x608060405234801561001057600080fd5b506001600c55615aef80620000266000396000f3fe6080604052600436106102445760003560e01c80630106d8eb1461024957806301ffc9a71461027457806306fdde03146102a4578063081812fc146102c6578063095ea7b3146102e657806313c1f27814610308578063179bcff71461032857806318160ddd146103485780631daf7ff9146103675780632231c1eb1461037a57806323b872dd1461038f57806327b7a2f5146103af5780632bc4bc68146103cd5780632f745c59146103ed57806332b18f6d1461040d57806337df00c91461042d5780633ccfd60b1461044d57806342842e0e14610462578063430bf08a14610482578063444115f614610497578063454a2ab3146104b75780634b455a51146104ca5780634f6ccce7146104ea57806353c147761461050a57806360c5cc3a146105385780636352211e146105585780636a58767e1461057857806370a082311461058d5780637a3c4c17146105ad5780637ccacd49146105cd5780637cf175fb146105e0578063899c9989146105f55780638da5cb5b146106155780638f6059d61461062a57806393525d391461063f57806395d89b411461065f578063a22cb46514610674578063b69ef8a814610694578063b88d4fde146106a7578063c531c236146106c7578063c87b56dd146106e7578063c9cd71b514610707578063d4f6b5ec1461071c578063d6d0faee1461073c578063d86800691461075c578063d96a094a1461076f578063e2f5fc7814610782578063e6e268f414610797578063e985e9c5146107ac578063ef706adf146107cc578063f0726291146107ec575b600080fd5b34801561025557600080fd5b5061025e610801565b60405161026b919061481f565b60405180910390f35b34801561028057600080fd5b5061029461028f366004614849565b6108be565b604051901515815260200161026b565b3480156102b057600080fd5b506102b96108f5565b60405161026b91906148be565b3480156102d257600080fd5b5061025e6102e13660046148d1565b610987565b3480156102f257600080fd5b506103066103013660046148ff565b610a14565b005b34801561031457600080fd5b50610306610323366004614a71565b610b25565b34801561033457600080fd5b50610306610343366004614acb565b610c3d565b34801561035457600080fd5b50600a545b60405190815260200161026b565b610306610375366004614b1a565b610dbb565b34801561038657600080fd5b5061025e610f10565b34801561039b57600080fd5b506103066103aa366004614b67565b610f41565b3480156103bb57600080fd5b50600d546001600160a01b031661025e565b3480156103d957600080fd5b506103066103e8366004614ba8565b610f83565b3480156103f957600080fd5b506103596104083660046148ff565b611095565b34801561041957600080fd5b50610306610428366004614bdc565b61112b565b34801561043957600080fd5b506103066104483660046148d1565b6112af565b34801561045957600080fd5b50610306611386565b34801561046e57600080fd5b5061030661047d366004614b67565b6114fd565b34801561048e57600080fd5b5061025e611508565b3480156104a357600080fd5b506103066104b2366004614bfe565b611537565b6103066104c53660046148d1565b611755565b3480156104d657600080fd5b506103066104e53660046148d1565b6119cd565b3480156104f657600080fd5b506103596105053660046148d1565b611c58565b34801561051657600080fd5b5061052a610525366004614ba8565b611ceb565b60405161026b929190614c2e565b34801561054457600080fd5b506103066105533660046148d1565b611f69565b34801561056457600080fd5b5061025e6105733660046148d1565b61211d565b34801561058457600080fd5b5061025e612152565b34801561059957600080fd5b506103596105a8366004614c50565b612189565b3480156105b957600080fd5b506103596105c83660046148d1565b612210565b6103066105db366004614bfe565b61246d565b3480156105ec57600080fd5b5061025e6126bf565b34801561060157600080fd5b50610306610610366004614c7a565b6126f1565b34801561062157600080fd5b5061025e6128b1565b34801561063657600080fd5b5061025e6128f6565b34801561064b57600080fd5b5061030661065a3660046148d1565b61292c565b34801561066b57600080fd5b506102b9612a6b565b34801561068057600080fd5b5061030661068f366004614d18565b612a7a565b3480156106a057600080fd5b5047610359565b3480156106b357600080fd5b506103066106c2366004614d51565b612b3b565b3480156106d357600080fd5b506103596106e2366004614b1a565b612b73565b3480156106f357600080fd5b506102b96107023660046148d1565b612c09565b34801561071357600080fd5b5061025e612d65565b34801561072857600080fd5b50610306610737366004614bfe565b612d95565b34801561074857600080fd5b50610306610757366004614dd0565b612dfc565b61030661076a3660046148d1565b612ec7565b61030661077d3660046148d1565b613199565b34801561078e57600080fd5b5061025e613305565b3480156107a357600080fd5b5061035961333d565b3480156107b857600080fd5b506102946107c7366004614e7f565b61334d565b3480156107d857600080fd5b506103066107e73660046148d1565b61337b565b3480156107f857600080fd5b5061025e6134b8565b600d546040516d22b733b634b9b420bab1ba34b7b760911b60208201526000916001600160a01b031690638eaa6ac090602e015b604051602081830303815290604052805190602001206040518263ffffffff1660e01b815260040161086991815260200190565b60206040518083038186803b15801561088157600080fd5b505afa158015610895573d6000803e3d6000fd5b505050506040513d601f19601f820116820180604052508101906108b99190614ebd565b905090565b60006001600160e01b031982166380ac58cd60e01b14806108ef57506001600160e01b03198216635b5e139f60e01b145b92915050565b60606000805461090490614eda565b80601f016020809104026020016040519081016040528092919081815260200182805461093090614eda565b801561097d5780601f106109525761010080835404028352916020019161097d565b820191906000526020600020905b81548152906001019060200180831161096057829003601f168201915b5050505050905090565b6000610992826134ee565b6109f85760405162461bcd60e51b815260206004820152602c60248201527f4552433732313a20617070726f76656420717565727920666f72206e6f6e657860448201526b34b9ba32b73a103a37b5b2b760a11b60648201526084015b60405180910390fd5b506000908152600660205260409020546001600160a01b031690565b6000610a1f8261211d565b9050806001600160a01b0316836001600160a01b03161415610a8d5760405162461bcd60e51b815260206004820152602160248201527f4552433732313a20617070726f76616c20746f2063757272656e74206f776e656044820152603960f91b60648201526084016109ef565b336001600160a01b0382161480610aa95750610aa9813361334d565b610b165760405162461bcd60e51b815260206004820152603860248201527f4552433732313a20617070726f76652063616c6c6572206973206e6f74206f776044820152771b995c881b9bdc88185c1c1c9bdd995908199bdc88185b1b60421b60648201526084016109ef565b610b20838361350b565b505050565b33610b2e613579565b6001600160a01b03166314afd79e306040518263ffffffff1660e01b8152600401610b59919061481f565b60206040518083038186803b158015610b7157600080fd5b505afa158015610b85573d6000803e3d6000fd5b505050506040513d601f19601f82011682018060405250810190610ba99190614ebd565b6001600160a01b031614610bcf5760405162461bcd60e51b81526004016109ef90614f15565b610bd7613583565b6001600160a01b03166313c1f2788484846040518463ffffffff1660e01b8152600401610c0693929190614f34565b600060405180830381600087803b158015610c2057600080fd5b505af1158015610c34573d6000803e3d6000fd5b50505050505050565b33610c46613579565b6001600160a01b03166314afd79e306040518263ffffffff1660e01b8152600401610c71919061481f565b60206040518083038186803b158015610c8957600080fd5b505afa158015610c9d573d6000803e3d6000fd5b505050506040513d601f19601f82011682018060405250810190610cc19190614ebd565b6001600160a01b031614610ce75760405162461bcd60e51b81526004016109ef90614f15565b610cef613579565b6001600160a01b031663179bcff783836040518363ffffffff1660e01b8152600401610d1c929190614f5f565b600060405180830381600087803b158015610d3657600080fd5b505af1158015610d4a573d6000803e3d6000fd5b50505050610d5661358d565b6001600160a01b031663262360133084846040518463ffffffff1660e01b8152600401610d8593929190614f83565b600060405180830381600087803b158015610d9f57600080fd5b505af1158015610db3573d6000803e3d6000fd5b505050505050565b33610dc4613579565b6001600160a01b03166314afd79e306040518263ffffffff1660e01b8152600401610def919061481f565b60206040518083038186803b158015610e0757600080fd5b505afa158015610e1b573d6000803e3d6000fd5b505050506040513d601f19601f82011682018060405250810190610e3f9190614ebd565b6001600160a01b03161415610e665760405162461bcd60e51b81526004016109ef90614fb8565b610e6e613597565b6001600160a01b031663171a133d84848433346040518663ffffffff1660e01b8152600401610ea1959493929190614fd7565b602060405180830381600087803b158015610ebb57600080fd5b505af1158015610ecf573d6000803e3d6000fd5b505050506040513d601f19601f82011682018060405250810190610ef39190615017565b5034600e6000828254610f069190615046565b9091555050505050565b600d546040516613dc195b909a5960ca1b60208201526000916001600160a01b031690638eaa6ac090602701610835565b610f4c8383836135a1565b610f5461358d565b6001600160a01b031663465bcf058484846040518463ffffffff1660e01b8152600401610c069392919061505e565b33610f8c613579565b6001600160a01b03166314afd79e306040518263ffffffff1660e01b8152600401610fb7919061481f565b60206040518083038186803b158015610fcf57600080fd5b505afa158015610fe3573d6000803e3d6000fd5b505050506040513d601f19601f820116820180604052508101906110079190614ebd565b6001600160a01b03161461102d5760405162461bcd60e51b81526004016109ef90614f15565b6110356135d2565b6001600160a01b031663b8926f2c826040518263ffffffff1660e01b815260040161106091906148be565b600060405180830381600087803b15801561107a57600080fd5b505af115801561108e573d6000803e3d6000fd5b5050505050565b60006110a083612189565b82106111025760405162461bcd60e51b815260206004820152602b60248201527f455243373231456e756d657261626c653a206f776e657220696e646578206f7560448201526a74206f6620626f756e647360a81b60648201526084016109ef565b506001600160a01b03919091166000908152600860209081526040808320938352929052205490565b33611134613579565b6001600160a01b03166314afd79e306040518263ffffffff1660e01b815260040161115f919061481f565b60206040518083038186803b15801561117757600080fd5b505afa15801561118b573d6000803e3d6000fd5b505050506040513d601f19601f820116820180604052508101906111af9190614ebd565b6001600160a01b0316146111d55760405162461bcd60e51b81526004016109ef90614f15565b6111df82826135dc565b60006111e96137bc565b6040516332b18f6d60e01b815260048101859052602481018490526001600160a01b0391909116906332b18f6d90604401602060405180830381600087803b15801561123457600080fd5b505af1158015611248573d6000803e3d6000fd5b505050506040513d601f19601f8201168201806040525081019061126c9190614ebd565b905061127881846137c6565b61128061358d565b6001600160a01b031663465bcf053083866040518463ffffffff1660e01b8152600401610c069392919061505e565b80336112b96137d1565b6001600160a01b031663cc889b0b836040518263ffffffff1660e01b81526004016112e691815260200190565b60606040518083038186803b1580156112fe57600080fd5b505afa158015611312573d6000803e3d6000fd5b505050506040513d601f19601f820116820180604052508101906113369190615082565b602001516001600160a01b0316146113785760405162461bcd60e51b815260206004820152600560248201526425a218991b60d91b60448201526064016109ef565b61138282336137db565b5050565b3361138f613579565b6001600160a01b03166314afd79e306040518263ffffffff1660e01b81526004016113ba919061481f565b60206040518083038186803b1580156113d257600080fd5b505afa1580156113e6573d6000803e3d6000fd5b505050506040513d601f19601f8201168201806040525081019061140a9190614ebd565b6001600160a01b0316146114305760405162461bcd60e51b81526004016109ef90614f15565b600061143a61333d565b604051909150600090339061271090849084818181858888f193505050503d8060008114611484576040519150601f19603f3d011682016040523d82523d6000602084013e611489565b606091505b5050905080156114c85761149b61358d565b6001600160a01b031663279862cb836040518263ffffffff1660e01b8152600401610d8591815260200190565b6114d061358d565b6001600160a01b031663ec720b9b33846040518363ffffffff1660e01b8152600401610d859291906150e3565b610f4c83838361396e565b600d546040516415985d5b1d60da1b60208201526000916001600160a01b031690638eaa6ac090602501610835565b33611540613579565b6001600160a01b03166314afd79e306040518263ffffffff1660e01b815260040161156b919061481f565b60206040518083038186803b15801561158357600080fd5b505afa158015611597573d6000803e3d6000fd5b505050506040513d601f19601f820116820180604052508101906115bb9190614ebd565b6001600160a01b0316146115e15760405162461bcd60e51b81526004016109ef90614f15565b60006115eb613597565b6001600160a01b03166319b05f49846040518263ffffffff1660e01b815260040161161891815260200190565b600060405180830381600087803b15801561163257600080fd5b505af1158015611646573d6000803e3d6000fd5b505050506040513d6000823e601f3d908101601f1916820160405261166e9190810190615141565b90506116786135d2565b6001600160a01b031663a9ad60f38484846040518463ffffffff1660e01b81526004016116a7939291906151e4565b600060405180830381600087803b1580156116c157600080fd5b505af11580156116d5573d6000803e3d6000fd5b505050506116e881606001518484613989565b611701600a82608001516116fc9190615256565b6139b2565b8060800151600e60008282546117179190615278565b90915550611725905061358d565b6001600160a01b031663465bcf05600030866040518463ffffffff1660e01b8152600401610c069392919061505e565b3361175e613579565b6001600160a01b03166314afd79e306040518263ffffffff1660e01b8152600401611789919061481f565b60206040518083038186803b1580156117a157600080fd5b505afa1580156117b5573d6000803e3d6000fd5b505050506040513d601f19601f820116820180604052508101906117d99190614ebd565b6001600160a01b031614156118005760405162461bcd60e51b81526004016109ef90614fb8565b6002600c5414156118235760405162461bcd60e51b81526004016109ef9061528f565b6002600c5573A5DD71afe7c4a1e123f3aF11624642F39A67e06A639e1b393661184a6135d2565b6001600160a01b031663b3a0ebc9846040518263ffffffff1660e01b815260040161187791815260200190565b60006040518083038186803b15801561188f57600080fd5b505afa1580156118a3573d6000803e3d6000fd5b505050506040513d6000823e601f3d908101601f191682016040526118cb91908101906152dc565b6118d484612210565b42346040518563ffffffff1660e01b81526004016118f594939291906154c7565b60006040518083038186803b15801561190d57600080fd5b505af4158015611921573d6000803e3d6000fd5b50505050600061193082613a53565b905061193a6137d1565b60405163c0f4ed3160e01b8152600481018490523360248201523460448201526001600160a01b03919091169063c0f4ed3190606401600060405180830381600087803b15801561198a57600080fd5b505af115801561199e573d6000803e3d6000fd5b5050505080346119ae9190615278565b600e60008282546119bf9190615046565b90915550506001600c555050565b336119d6613579565b6001600160a01b03166314afd79e306040518263ffffffff1660e01b8152600401611a01919061481f565b60206040518083038186803b158015611a1957600080fd5b505afa158015611a2d573d6000803e3d6000fd5b505050506040513d601f19601f82011682018060405250810190611a519190614ebd565b6001600160a01b031614611a775760405162461bcd60e51b81526004016109ef90614f15565b6000611a816135d2565b6001600160a01b031663b3a0ebc9836040518263ffffffff1660e01b8152600401611aae91815260200190565b60006040518083038186803b158015611ac657600080fd5b505afa158015611ada573d6000803e3d6000fd5b505050506040513d6000823e601f3d908101601f19168201604052611b0291908101906152dc565b516001600160a01b03161415611b2a5760405162461bcd60e51b81526004016109ef906154f6565b30611b348261211d565b6001600160a01b031614611b725760405162461bcd60e51b81526020600482015260056024820152644b4431323160d81b60448201526064016109ef565b611b7b81613c88565b15611bb05760405162461bcd60e51b8152602060048201526005602482015264096886264760db1b60448201526064016109ef565b611bb981613db7565b611bc16135d2565b6001600160a01b0316634b455a51826040518263ffffffff1660e01b8152600401611bee91815260200190565b600060405180830381600087803b158015611c0857600080fd5b505af1158015611c1c573d6000803e3d6000fd5b50505050611c2861358d565b6001600160a01b031663465bcf05306000846040518463ffffffff1660e01b81526004016110609392919061505e565b6000611c63600a5490565b8210611cc65760405162461bcd60e51b815260206004820152602c60248201527f455243373231456e756d657261626c653a20676c6f62616c20696e646578206f60448201526b7574206f6620626f756e647360a01b60648201526084016109ef565b600a8281548110611cd957611cd9615515565b90600052602060002001549050919050565b6060600080611cf86135d2565b6001600160a01b031663d028bd66856040518263ffffffff1660e01b8152600401611d2391906148be565b60006040518083038186803b158015611d3b57600080fd5b505afa158015611d4f573d6000803e3d6000fd5b505050506040513d6000823e601f3d908101601f19168201604052611d77919081019061554e565b905060005b8151811015611f4b57818181518110611d9757611d97615515565b6020026020010151600014611f39576000611db06135d2565b6001600160a01b031663b3a0ebc9848481518110611dd057611dd0615515565b60200260200101516040518263ffffffff1660e01b8152600401611df691815260200190565b60006040518083038186803b158015611e0e57600080fd5b505afa158015611e22573d6000803e3d6000fd5b505050506040513d6000823e601f3d908101601f19168201604052611e4a91908101906152dc565b9050428160a0015111158015611e645750428160c0015110155b15611f37576000611e73613583565b6001600160a01b031663bd365642858581518110611e9357611e93615515565b60200260200101516040518263ffffffff1660e01b8152600401611eb991815260200190565b60006040518083038186803b158015611ed157600080fd5b505afa158015611ee5573d6000803e3d6000fd5b505050506040513d6000823e601f3d908101601f19168201604052611f0d91908101906155de565b905080848481518110611f2257611f22615515565b60200260200101519550955050505050915091565b505b80611f4381615612565b915050611d7c565b50600060405180602001604052806000815250909250925050915091565b33611f72613579565b6001600160a01b03166314afd79e306040518263ffffffff1660e01b8152600401611f9d919061481f565b60206040518083038186803b158015611fb557600080fd5b505afa158015611fc9573d6000803e3d6000fd5b505050506040513d601f19601f82011682018060405250810190611fed9190614ebd565b6001600160a01b0316146120135760405162461bcd60e51b81526004016109ef90614f15565b61201b613583565b6001600160a01b031663897615e6826040518263ffffffff1660e01b815260040161204891815260200190565b60206040518083038186803b15801561206057600080fd5b505afa158015612074573d6000803e3d6000fd5b505050506040513d601f19601f820116820180604052508101906120989190614ebd565b6001600160a01b03166120aa8261211d565b6001600160a01b0316146120e85760405162461bcd60e51b81526020600482015260056024820152644b4431333160d81b60448201526064016109ef565b6120f0613583565b6001600160a01b03166319b05f49826040518263ffffffff1660e01b815260040161106091815260200190565b6000818152600460205260408120546001600160a01b0316806108ef5760405162461bcd60e51b81526004016109ef906154f6565b600d546040516c4d65646961526567697374727960981b60208201526000916001600160a01b031690638eaa6ac090602d01610835565b60006001600160a01b0382166121f45760405162461bcd60e51b815260206004820152602a60248201527f4552433732313a2062616c616e636520717565727920666f7220746865207a65604482015269726f206164647265737360b01b60648201526084016109ef565b506001600160a01b031660009081526005602052604090205490565b60008061221b6135d2565b6001600160a01b031663b3a0ebc9846040518263ffffffff1660e01b815260040161224891815260200190565b60006040518083038186803b15801561226057600080fd5b505afa158015612274573d6000803e3d6000fd5b505050506040513d6000823e601f3d908101601f1916820160405261229c91908101906152dc565b905060008160e0015160048111156122b6576122b66153e3565b14156122c757610100015192915050565b60018160e0015160048111156122df576122df6153e3565b141561234957806060015181608001516122f99190615278565b60608201516123089042615278565b82610100015183610120015161231e9190615278565b612328919061562d565b6123329190615256565b8161012001516123429190615278565b9392505050565b60028160e001516004811115612361576123616153e3565b14156123ec5761236f6137d1565b6001600160a01b0316637a3c4c17846040518263ffffffff1660e01b815260040161239c91815260200190565b60206040518083038186803b1580156123b457600080fd5b505afa1580156123c8573d6000803e3d6000fd5b505050506040513d601f19601f820116820180604052508101906123429190615017565b60038160e001516004811115612404576124046153e3565b14156124125761236f613597565b60048160e00151600481111561242a5761242a6153e3565b14156124395750600092915050565b60405162461bcd60e51b81526020600482015260096024820152681b9bdd08195e1a5cdd60ba1b60448201526064016109ef565b33612476613579565b6001600160a01b03166314afd79e306040518263ffffffff1660e01b81526004016124a1919061481f565b60206040518083038186803b1580156124b957600080fd5b505afa1580156124cd573d6000803e3d6000fd5b505050506040513d601f19601f820116820180604052508101906124f19190614ebd565b6001600160a01b031614156125185760405162461bcd60e51b81526004016109ef90614fb8565b6002600c54141561253b5760405162461bcd60e51b81526004016109ef9061528f565b6002600c5573A5DD71afe7c4a1e123f3aF11624642F39A67e06A6368a8f9516125626135d2565b6001600160a01b031663b3a0ebc9856040518263ffffffff1660e01b815260040161258f91815260200190565b60006040518083038186803b1580156125a757600080fd5b505afa1580156125bb573d6000803e3d6000fd5b505050506040513d6000823e601f3d908101601f191682016040526125e391908101906152dc565b42346040518463ffffffff1660e01b81526004016126039392919061564c565b60006040518083038186803b15801561261b57600080fd5b505af415801561262f573d6000803e3d6000fd5b5050505034600e60008282546126459190615046565b9091555061265390506137bc565b6001600160a01b031663389ad90e838333346040518563ffffffff1660e01b81526004016126849493929190615671565b600060405180830381600087803b15801561269e57600080fd5b505af11580156126b2573d6000803e3d6000fd5b50506001600c5550505050565b600d546040516713d999995c909a5960c21b60208201526000916001600160a01b031690638eaa6ac090602801610835565b336126fa613579565b6001600160a01b03166314afd79e306040518263ffffffff1660e01b8152600401612725919061481f565b60206040518083038186803b15801561273d57600080fd5b505afa158015612751573d6000803e3d6000fd5b505050506040513d601f19601f820116820180604052508101906127759190614ebd565b6001600160a01b03161461279b5760405162461bcd60e51b81526004016109ef90614f15565b60006127a56135d2565b6001600160a01b031663e6851b98308a8a8a8a8a8a8a6040518963ffffffff1660e01b81526004016127de9897969594939291906156a6565b602060405180830381600087803b1580156127f857600080fd5b505af115801561280c573d6000803e3d6000fd5b505050506040513d601f19601f820116820180604052508101906128309190615017565b905061283d308289613989565b61284561358d565b6001600160a01b031663465bcf05600030846040518463ffffffff1660e01b81526004016128759392919061505e565b600060405180830381600087803b15801561288f57600080fd5b505af11580156128a3573d6000803e3d6000fd5b505050505050505050505050565b600d5460408051631abe729160e31b815290516000926001600160a01b03169163d5f39488916004808301926020929190829003018186803b15801561088157600080fd5b600d546040516b4d65646961466163746f727960a01b60208201526000916001600160a01b031690638eaa6ac090602c01610835565b33612935613579565b6001600160a01b03166314afd79e306040518263ffffffff1660e01b8152600401612960919061481f565b60206040518083038186803b15801561297857600080fd5b505afa15801561298c573d6000803e3d6000fd5b505050506040513d601f19601f820116820180604052508101906129b09190614ebd565b6001600160a01b0316146129d65760405162461bcd60e51b81526004016109ef90614f15565b612a68816129e26137d1565b6001600160a01b031663cc889b0b846040518263ffffffff1660e01b8152600401612a0f91815260200190565b60606040518083038186803b158015612a2757600080fd5b505afa158015612a3b573d6000803e3d6000fd5b505050506040513d601f19601f82011682018060405250810190612a5f9190615082565b602001516137db565b50565b60606001805461090490614eda565b6001600160a01b038216331415612acf5760405162461bcd60e51b815260206004820152601960248201527822a9219b99189d1030b8383937bb32903a379031b0b63632b960391b60448201526064016109ef565b3360008181526007602090815260408083206001600160a01b03871680855290835292819020805460ff191686151590811790915590519081529192917f17307eab39ab6107e8899845ad3d59bd9653f200f220920489ca2b5937696c31910160405180910390a35050565b612b453383613de8565b612b615760405162461bcd60e51b81526004016109ef90615714565b612b6d84848484613eaa565b50505050565b6040516303fb4aab60e41b8152600090739F397D94EC32D43EeC60dCF9A38a44322D54d42A90633fb4aab090612bb190879087908790600401615765565b60206040518083038186803b158015612bc957600080fd5b505af4158015612bdd573d6000803e3d6000fd5b505050506040513d601f19601f82011682018060405250810190612c019190615017565b949350505050565b6060612c14826134ee565b612c785760405162461bcd60e51b815260206004820152602f60248201527f4552433732314d657461646174613a2055524920717565727920666f72206e6f60448201526e3732bc34b9ba32b73a103a37b5b2b760891b60648201526084016109ef565b600060028054612c8790614eda565b905011612d2a5760008281526003602052604090208054612ca790614eda565b80601f0160208091040260200160405190810160405280929190818152602001828054612cd390614eda565b8015612d205780601f10612cf557610100808354040283529160200191612d20565b820191906000526020600020905b815481529060010190602001808311612d0357829003601f168201915b50505050506108ef565b600260036000848152602001908152602001600020604051602001612d50929190615812565b60405160208183030381529060405292915050565b600d54604051651059141bdbdb60d21b60208201526000916001600160a01b031690638eaa6ac090602601610835565b33612d9f8361211d565b6001600160a01b031614612dc55760405162461bcd60e51b81526004016109ef90614f15565b612dcd613583565b6001600160a01b031663fb772f4b8383336040518463ffffffff1660e01b8152600401610d8593929190615827565b600d546001600160a01b031615612e3d5760405162461bcd60e51b8152602060048201526005602482015264041523030360dc1b60448201526064016109ef565b8451612e50906000906020880190614786565b5084604051602001612e629190615858565b60405160208183030381529060405260019080519060200190612e86929190614786565b508351612e9a906002906020870190614786565b50612ea782600085613989565b600d80546001600160a01b0319166001600160a01b03831617905561108e565b33612ed0613579565b6001600160a01b03166314afd79e306040518263ffffffff1660e01b8152600401612efb919061481f565b60206040518083038186803b158015612f1357600080fd5b505afa158015612f27573d6000803e3d6000fd5b505050506040513d601f19601f82011682018060405250810190612f4b9190614ebd565b6001600160a01b03161415612f725760405162461bcd60e51b81526004016109ef90614fb8565b73A5DD71afe7c4a1e123f3aF11624642F39A67e06A63bbd1abd7612f946135d2565b6001600160a01b031663b3a0ebc9846040518263ffffffff1660e01b8152600401612fc191815260200190565b60006040518083038186803b158015612fd957600080fd5b505afa158015612fed573d6000803e3d6000fd5b505050506040513d6000823e601f3d908101601f1916820160405261301591908101906152dc565b61301e84612210565b346040518463ffffffff1660e01b815260040161303d9392919061564c565b60006040518083038186803b15801561305557600080fd5b505af4158015613069573d6000803e3d6000fd5b505050506130756135d2565b6001600160a01b0316639c03facb826040518263ffffffff1660e01b81526004016130a291815260200190565b600060405180830381600087803b1580156130bc57600080fd5b505af11580156130d0573d6000803e3d6000fd5b505050506130de33826137c6565b6130ec6116fc600a34615256565b6130f461358d565b604051635dd995b560e01b8152600481018390523460248201523360448201524260648201526001600160a01b039190911690635dd995b590608401600060405180830381600087803b15801561314a57600080fd5b505af115801561315e573d6000803e3d6000fd5b5050505061316a61358d565b6001600160a01b031663465bcf053033846040518463ffffffff1660e01b81526004016110609392919061505e565b336131a2613579565b6001600160a01b03166314afd79e306040518263ffffffff1660e01b81526004016131cd919061481f565b60206040518083038186803b1580156131e557600080fd5b505afa1580156131f9573d6000803e3d6000fd5b505050506040513d601f19601f8201168201806040525081019061321d9190614ebd565b6001600160a01b031614156132445760405162461bcd60e51b81526004016109ef90614fb8565b73A5DD71afe7c4a1e123f3aF11624642F39A67e06A63c4bbd6766132666135d2565b6001600160a01b031663b3a0ebc9846040518263ffffffff1660e01b815260040161329391815260200190565b60006040518083038186803b1580156132ab57600080fd5b505afa1580156132bf573d6000803e3d6000fd5b505050506040513d6000823e601f3d908101601f191682016040526132e791908101906152dc565b346040518363ffffffff1660e01b815260040161303d929190615888565b600d546040516d50726f706f73616c52657669657760901b60208201526000916001600160a01b031690638eaa6ac090602e01610835565b6000600e54476108b99190615278565b6001600160a01b03918216600090815260076020908152604080832093909416825291909152205460ff1690565b33613384613579565b6001600160a01b03166314afd79e306040518263ffffffff1660e01b81526004016133af919061481f565b60206040518083038186803b1580156133c757600080fd5b505afa1580156133db573d6000803e3d6000fd5b505050506040513d601f19601f820116820180604052508101906133ff9190614ebd565b6001600160a01b031614156134265760405162461bcd60e51b81526004016109ef90614fb8565b600061343182613edd565b905061343b613597565b6040516315f5a0b160e21b8152600481018490523360248201526001600160a01b0391909116906357d682c490604401600060405180830381600087803b15801561348557600080fd5b505af1158015613499573d6000803e3d6000fd5b5050505080600e60008282546134af9190615278565b90915550505050565b600d546040516b22bb32b73a22b6b4ba3a32b960a11b60208201526000916001600160a01b031690638eaa6ac090602c01610835565b6000908152600460205260409020546001600160a01b0316151590565b600081815260066020526040902080546001600160a01b0319166001600160a01b03841690811790915581906135408261211d565b6001600160a01b03167f8c5be1e5ebec7d5bd14f71427d1e84f3dd0314c0f7b2291e5b200ac8c7c3b92560405160405180910390a45050565b60006108b9612152565b60006108b9613305565b60006108b96134b8565b60006108b96126bf565b6135ab3382613de8565b6135c75760405162461bcd60e51b81526004016109ef90615714565b610b208383836140d7565b60006108b9612d65565b60006135e66137bc565b6001600160a01b031663761ce95d846040518263ffffffff1660e01b815260040161361391815260200190565b60006040518083038186803b15801561362b57600080fd5b505afa15801561363f573d6000803e3d6000fd5b505050506040513d6000823e601f3d908101601f19168201604052613667919081019061589b565b905060005b8151811015612b6d57600082828151811061368957613689615515565b602002602001015190508060400151600e60008282546136a99190615278565b9091555050818414156136cf576136ca600a82604001516116fc9190615256565b6137a9565b600081602001516001600160a01b0316826040015161271090604051600060405180830381858888f193505050503d8060008114613729576040519150601f19603f3d011682016040523d82523d6000602084013e61372e565b606091505b50509050806137a75761373f61358d565b6001600160a01b031663ec720b9b836020015184604001516040518363ffffffff1660e01b81526004016137749291906150e3565b600060405180830381600087803b15801561378e57600080fd5b505af11580156137a2573d6000803e3d6000fd5b505050505b505b50806137b481615612565b91505061366c565b60006108b9610f10565b6113823083836140d7565b60006108b9610801565b6000806137e66137d1565b6001600160a01b03166337df00c9856040518263ffffffff1660e01b815260040161381391815260200190565b6040805180830381600087803b15801561382c57600080fd5b505af1158015613840573d6000803e3d6000fd5b505050506040513d601f19601f8201168201806040525081019061386491906159a9565b915091506138706135d2565b6001600160a01b0316639c03facb856040518263ffffffff1660e01b815260040161389d91815260200190565b600060405180830381600087803b1580156138b757600080fd5b505af11580156138cb573d6000803e3d6000fd5b5050505080600e60008282546138e19190615278565b909155506138f1905082856137c6565b6138ff6116fc600a83615256565b61390761358d565b6001600160a01b031663465bcf053085876040518463ffffffff1660e01b81526004016139369392919061505e565b600060405180830381600087803b15801561395057600080fd5b505af1158015613964573d6000803e3d6000fd5b5050505050505050565b610b2083838360405180602001604052806000815250612b3b565b6139938383614270565b60008281526003602090815260409091208251612b6d92840190614786565b60006139bc611508565b90506000816001600160a01b03168361271090604051600060405180830381858888f193505050503d8060008114613a10576040519150601f19603f3d011682016040523d82523d6000602084013e613a15565b606091505b5050905080610b2057613a2661358d565b6001600160a01b031663ec720b9b83856040518363ffffffff1660e01b8152600401610c069291906150e3565b600080613a5e6135d2565b6001600160a01b031663b3a0ebc9846040518263ffffffff1660e01b8152600401613a8b91815260200190565b60006040518083038186803b158015613aa357600080fd5b505afa158015613ab7573d6000803e3d6000fd5b505050506040513d6000823e601f3d908101601f19168201604052613adf91908101906152dc565b90506000613aeb6137d1565b6001600160a01b031663cc889b0b856040518263ffffffff1660e01b8152600401613b1891815260200190565b60606040518083038186803b158015613b3057600080fd5b505afa158015613b44573d6000803e3d6000fd5b505050506040513d601f19601f82011682018060405250810190613b689190615082565b905060028260e001516004811115613b8257613b826153e3565b148015613b9b575060208101516001600160a01b031615155b15613c8157600081602001516001600160a01b0316826040015161271090604051600060405180830381858888f193505050503d8060008114613bfa576040519150601f19603f3d011682016040523d82523d6000602084013e613bff565b606091505b505090508160400151935080613c7f57613c1761358d565b6001600160a01b031663ec720b9b836020015184604001516040518363ffffffff1660e01b8152600401613c4c9291906150e3565b600060405180830381600087803b158015613c6657600080fd5b505af1158015613c7a573d6000803e3d6000fd5b505050505b505b5050919050565b600080613c936137d1565b6001600160a01b031663cc889b0b846040518263ffffffff1660e01b8152600401613cc091815260200190565b60606040518083038186803b158015613cd857600080fd5b505afa158015613cec573d6000803e3d6000fd5b505050506040513d601f19601f82011682018060405250810190613d109190615082565b602001516001600160a01b03161415806108ef5750613d2d6137bc565b6001600160a01b031663761ce95d836040518263ffffffff1660e01b8152600401613d5a91815260200190565b60006040518083038186803b158015613d7257600080fd5b505afa158015613d86573d6000803e3d6000fd5b505050506040513d6000823e601f3d908101601f19168201604052613dae919081019061589b565b51151592915050565b613dc08161439c565b6040805160208082018084526000808452858152600390925292902090516113829290614786565b6000613df3826134ee565b613e545760405162461bcd60e51b815260206004820152602c60248201527f4552433732313a206f70657261746f7220717565727920666f72206e6f6e657860448201526b34b9ba32b73a103a37b5b2b760a11b60648201526084016109ef565b6000613e5f8361211d565b9050806001600160a01b0316846001600160a01b03161480613e9a5750836001600160a01b0316613e8f84610987565b6001600160a01b0316145b80612c015750612c01818561334d565b613eb58484846140d7565b613ec184848484614431565b612b6d5760405162461bcd60e51b81526004016109ef906159d7565b600080613ee86135d2565b6001600160a01b031663b3a0ebc9846040518263ffffffff1660e01b8152600401613f1591815260200190565b60006040518083038186803b158015613f2d57600080fd5b505afa158015613f41573d6000803e3d6000fd5b505050506040513d6000823e601f3d908101601f19168201604052613f6991908101906152dc565b90506000613f75613597565b6001600160a01b03166301b99e04856040518263ffffffff1660e01b8152600401613fa291815260200190565b60006040518083038186803b158015613fba57600080fd5b505afa158015613fce573d6000803e3d6000fd5b505050506040513d6000823e601f3d908101601f19168201604052613ff69190810190615141565b905060038260e001516004811115614010576140106153e3565b148015614029575060608101516001600160a01b031615155b15613c8157606081015160808201516040516000926001600160a01b0316916127109184818181858888f193505050503d8060008114614085576040519150601f19603f3d011682016040523d82523d6000602084013e61408a565b606091505b505090508160800151935080613c7f576140a261358d565b6001600160a01b031663ec720b9b836060015184608001516040518363ffffffff1660e01b8152600401613c4c9291906150e3565b826001600160a01b03166140ea8261211d565b6001600160a01b0316146141525760405162461bcd60e51b815260206004820152602960248201527f4552433732313a207472616e73666572206f6620746f6b656e2074686174206960448201526839903737ba1037bbb760b91b60648201526084016109ef565b6001600160a01b0382166141b45760405162461bcd60e51b8152602060048201526024808201527f4552433732313a207472616e7366657220746f20746865207a65726f206164646044820152637265737360e01b60648201526084016109ef565b6141bf83838361453e565b6141ca60008261350b565b6001600160a01b03831660009081526005602052604081208054600192906141f3908490615278565b90915550506001600160a01b0382166000908152600560205260408120805460019290614221908490615046565b909155505060008181526004602052604080822080546001600160a01b0319166001600160a01b038681169182179092559151849391871691600080516020615a9a83398151915291a4505050565b6001600160a01b0382166142c65760405162461bcd60e51b815260206004820181905260248201527f4552433732313a206d696e7420746f20746865207a65726f206164647265737360448201526064016109ef565b6142cf816134ee565b1561431b5760405162461bcd60e51b815260206004820152601c60248201527b115490cdcc8c4e881d1bdad95b88185b1c9958591e481b5a5b9d195960221b60448201526064016109ef565b6143276000838361453e565b6001600160a01b0382166000908152600560205260408120805460019290614350908490615046565b909155505060008181526004602052604080822080546001600160a01b0319166001600160a01b0386169081179091559051839290600080516020615a9a833981519152908290a45050565b60006143a78261211d565b90506143b58160008461453e565b6143c060008361350b565b6001600160a01b03811660009081526005602052604081208054600192906143e9908490615278565b909155505060008281526004602052604080822080546001600160a01b0319169055518391906001600160a01b03841690600080516020615a9a833981519152908390a45050565b60006001600160a01b0384163b1561453357604051630a85bd0160e11b81526001600160a01b0385169063150b7a0290614475903390899088908890600401615a29565b602060405180830381600087803b15801561448f57600080fd5b505af19250505080156144bf575060408051601f3d908101601f191682019092526144bc91810190615a66565b60015b614519573d8080156144ed576040519150601f19603f3d011682016040523d82523d6000602084013e6144f2565b606091505b5080516145115760405162461bcd60e51b81526004016109ef906159d7565b805181602001fd5b6001600160e01b031916630a85bd0160e11b149050612c01565b506001949350505050565b6001600160a01b0383166145995761459481600a80546000838152600b60205260408120829055600182018355919091527fc65a7bb8d6351c1cf70c95a316cc6a92839c986682d98bc35f958f4883f9d2a80155565b6145bc565b816001600160a01b0316836001600160a01b0316146145bc576145bc83826145f6565b6001600160a01b0382166145d357610b2081614693565b826001600160a01b0316826001600160a01b031614610b2057610b208282614742565b6000600161460384612189565b61460d9190615278565b600083815260096020526040902054909150808214614660576001600160a01b03841660009081526008602090815260408083208584528252808320548484528184208190558352600990915290208190555b5060009182526009602090815260408084208490556001600160a01b039094168352600881528383209183525290812055565b600a546000906146a590600190615278565b6000838152600b6020526040812054600a80549394509092849081106146cd576146cd615515565b9060005260206000200154905080600a83815481106146ee576146ee615515565b6000918252602080832090910192909255828152600b9091526040808220849055858252812055600a80548061472657614726615a83565b6001900381819060005260206000200160009055905550505050565b600061474d83612189565b6001600160a01b039093166000908152600860209081526040808320868452825280832085905593825260099052919091209190915550565b82805461479290614eda565b90600052602060002090601f0160209004810192826147b457600085556147fa565b82601f106147cd57805160ff19168380011785556147fa565b828001600101855582156147fa579182015b828111156147fa5782518255916020019190600101906147df565b5061480692915061480a565b5090565b5b80821115614806576000815560010161480b565b6001600160a01b0391909116815260200190565b6001600160e01b031981168114612a6857600080fd5b60006020828403121561485b57600080fd5b813561234281614833565b60005b83811015614881578181015183820152602001614869565b83811115612b6d5750506000910152565b600081518084526148aa816020860160208601614866565b601f01601f19169290920160200192915050565b6020815260006123426020830184614892565b6000602082840312156148e357600080fd5b5035919050565b6001600160a01b0381168114612a6857600080fd5b6000806040838503121561491257600080fd5b823561491d816148ea565b946020939093013593505050565b634e487b7160e01b600052604160045260246000fd5b60405160a081016001600160401b03811182821017156149635761496361492b565b60405290565b60405161016081016001600160401b03811182821017156149635761496361492b565b604051608081016001600160401b03811182821017156149635761496361492b565b604051601f8201601f191681016001600160401b03811182821017156149d6576149d661492b565b604052919050565b60006001600160401b038211156149f7576149f761492b565b50601f01601f191660200190565b6000614a18614a13846149de565b6149ae565b9050828152838383011115614a2c57600080fd5b828260208301376000602084830101529392505050565b600082601f830112614a5457600080fd5b61234283833560208501614a05565b8015158114612a6857600080fd5b600080600060608486031215614a8657600080fd5b8335925060208401356001600160401b03811115614aa357600080fd5b614aaf86828701614a43565b9250506040840135614ac081614a63565b809150509250925092565b60008060408385031215614ade57600080fd5b8235614ae9816148ea565b915060208301356001600160401b03811115614b0457600080fd5b614b1085828601614a43565b9150509250929050565b600080600060608486031215614b2f57600080fd5b83356001600160401b03811115614b4557600080fd5b614b5186828701614a43565b9660208601359650604090950135949350505050565b600080600060608486031215614b7c57600080fd5b8335614b87816148ea565b92506020840135614b97816148ea565b929592945050506040919091013590565b600060208284031215614bba57600080fd5b81356001600160401b03811115614bd057600080fd5b612c0184828501614a43565b60008060408385031215614bef57600080fd5b50508035926020909101359150565b60008060408385031215614c1157600080fd5b8235915060208301356001600160401b03811115614b0457600080fd5b604081526000614c416040830185614892565b90508260208301529392505050565b600060208284031215614c6257600080fd5b8135612342816148ea565b60058110612a6857600080fd5b600080600080600080600060e0888a031215614c9557600080fd5b87356001600160401b0380821115614cac57600080fd5b614cb88b838c01614a43565b985060208a0135915080821115614cce57600080fd5b50614cdb8a828b01614a43565b96505060408801359450606088013593506080880135925060a0880135614d0181614c6d565b8092505060c0880135905092959891949750929550565b60008060408385031215614d2b57600080fd5b8235614d36816148ea565b91506020830135614d4681614a63565b809150509250929050565b60008060008060808587031215614d6757600080fd5b8435614d72816148ea565b93506020850135614d82816148ea565b92506040850135915060608501356001600160401b03811115614da457600080fd5b8501601f81018713614db557600080fd5b614dc487823560208401614a05565b91505092959194509250565b600080600080600060a08688031215614de857600080fd5b85356001600160401b0380821115614dff57600080fd5b614e0b89838a01614a43565b96506020880135915080821115614e2157600080fd5b614e2d89838a01614a43565b95506040880135915080821115614e4357600080fd5b50614e5088828901614a43565b9350506060860135614e61816148ea565b91506080860135614e71816148ea565b809150509295509295909350565b60008060408385031215614e9257600080fd5b8235614e9d816148ea565b91506020830135614d46816148ea565b8051614eb8816148ea565b919050565b600060208284031215614ecf57600080fd5b8151612342816148ea565b600181811c90821680614eee57607f821691505b60208210811415614f0f57634e487b7160e01b600052602260045260246000fd5b50919050565b60208082526005908201526425a218189960d91b604082015260600190565b838152606060208201526000614f4d6060830185614892565b90508215156040830152949350505050565b6001600160a01b0383168152604060208201819052600090612c0190830184614892565b6001600160a01b03848116825283166020820152606060408201819052600090614faf90830184614892565b95945050505050565b60208082526005908201526412d10c0c4d60da1b604082015260600190565b60a081526000614fea60a0830188614892565b60208301969096525060408101939093526001600160a01b03919091166060830152608090910152919050565b60006020828403121561502957600080fd5b5051919050565b634e487b7160e01b600052601160045260246000fd5b6000821982111561505957615059615030565b500190565b6001600160a01b039384168152919092166020820152604081019190915260600190565b60006060828403121561509457600080fd5b604051606081016001600160401b03811182821017156150b6576150b661492b565b6040528251815260208301516150cb816148ea565b60208201526040928301519281019290925250919050565b6001600160a01b03929092168252602082015260400190565b600082601f83011261510d57600080fd5b815161511b614a13826149de565b81815284602083860101111561513057600080fd5b612c01826020830160208701614866565b60006020828403121561515357600080fd5b81516001600160401b038082111561516a57600080fd5b9083019060a0828603121561517e57600080fd5b615186614941565b82518281111561519557600080fd5b6151a1878286016150fc565b8252506020830151602082015260408301516040820152606083015191506151c8826148ea565b8160608201526080830151608082015280935050505092915050565b8381526060602082015260006151fd6060830185614892565b8281036040840152835160a0825261521860a0830182614892565b60208681015190840152604080870151908401526060808701516001600160a01b031690840152608095860151959092019490945295945050505050565b60008261527357634e487b7160e01b600052601260045260246000fd5b500490565b60008282101561528a5761528a615030565b500390565b6020808252601f908201527f5265656e7472616e637947756172643a207265656e7472616e742063616c6c00604082015260600190565b8051614eb881614c6d565b8051614eb881614a63565b6000602082840312156152ee57600080fd5b81516001600160401b038082111561530557600080fd5b90830190610160828603121561531a57600080fd5b615322614969565b61532b83614ead565b815260208301518281111561533f57600080fd5b61534b878286016150fc565b60208301525060408301518281111561536357600080fd5b61536f878286016150fc565b604083015250606083015160608201526080830151608082015260a083015160a082015260c083015160c08201526153a960e084016152c6565b60e08201526101008381015190820152610120808401519082015261014091506153d48284016152d1565b91810191909152949350505050565b634e487b7160e01b600052602160045260246000fd5b6005811061541757634e487b7160e01b600052602160045260246000fd5b9052565b80516001600160a01b031682526000610160602083015181602086015261544482860182614892565b9150506040830151848203604086015261545e8282614892565b915050606083015160608501526080830151608085015260a083015160a085015260c083015160c085015260e083015161549b60e08601826153f9565b506101008381015190850152610120808401519085015261014092830151151592909301919091525090565b6080815260006154da608083018761541b565b6020830195909552506040810192909252606090910152919050565b60208082526005908201526412d10c4c4d60da1b604082015260600190565b634e487b7160e01b600052603260045260246000fd5b60006001600160401b038211156155445761554461492b565b5060051b60200190565b6000602080838503121561556157600080fd5b82516001600160401b0381111561557757600080fd5b8301601f8101851361558857600080fd5b8051615596614a138261552b565b81815260059190911b820183019083810190878311156155b557600080fd5b928401925b828410156155d3578351825292840192908401906155ba565b979650505050505050565b6000602082840312156155f057600080fd5b81516001600160401b0381111561560657600080fd5b612c01848285016150fc565b600060001982141561562657615626615030565b5060010190565b600081600019048311821515161561564757615647615030565b500290565b60608152600061565f606083018661541b565b60208301949094525060400152919050565b84815260806020820152600061568a6080830186614892565b6001600160a01b03949094166040830152506060015292915050565b6001600160a01b0389168152610100602082018190526000906156cb8382018b614892565b905082810360408401526156df818a614892565b9150508660608301528560808301528460a083015261570160c08301856153f9565b8260e08301529998505050505050505050565b60208082526031908201527f4552433732313a207472616e736665722063616c6c6572206973206e6f74206f6040820152701ddb995c881b9bdc88185c1c1c9bdd9959607a1b606082015260800190565b60608152600061565f6060830186614892565b8054600090600181811c908083168061579257607f831692505b60208084108214156157b457634e487b7160e01b600052602260045260246000fd5b8180156157c857600181146157d957615806565b60ff19861689528489019650615806565b60008881526020902060005b868110156157fe5781548b8201529085019083016157e5565b505084890196505b50505050505092915050565b6000612c016158218386615778565b84615778565b8381526060602082015260006158406060830185614892565b905060018060a01b0383166040830152949350505050565b674b616c6569646f5f60c01b81526000825161587b816008850160208701614866565b9190910160080192915050565b604081526000614c41604083018561541b565b600060208083850312156158ae57600080fd5b82516001600160401b03808211156158c557600080fd5b818501915085601f8301126158d957600080fd5b81516158e7614a138261552b565b81815260059190911b8301840190848101908883111561590657600080fd5b8585015b8381101561599c578051858111156159225760008081fd5b86016080818c03601f190181131561593a5760008081fd5b61594261498c565b898301518152604080840151615957816148ea565b828c01526060848101518284015292840151928984111561597a57600091508182fd5b6159888f8d868801016150fc565b90830152508552505091860191860161590a565b5098975050505050505050565b600080604083850312156159bc57600080fd5b82516159c7816148ea565b6020939093015192949293505050565b60208082526032908201527f4552433732313a207472616e7366657220746f206e6f6e20455243373231526560408201527131b2b4bb32b91034b6b83632b6b2b73a32b960711b606082015260800190565b6001600160a01b0385811682528416602082015260408101839052608060608201819052600090615a5c90830184614892565b9695505050505050565b600060208284031215615a7857600080fd5b815161234281614833565b634e487b7160e01b600052603160045260246000fdfeddf252ad1be2c89b69c2b068fc378daa952ba7f163c4a11628f55a4df523b3efa2646970667358221220aa15a61ac09115658b129487e19c9ed6e377c1c491c3658bf64d911ba0235c2264736f6c63430008090033",
  "deployedBytecode": "0x6080604052600436106102445760003560e01c80630106d8eb1461024957806301ffc9a71461027457806306fdde03146102a4578063081812fc146102c6578063095ea7b3146102e657806313c1f27814610308578063179bcff71461032857806318160ddd146103485780631daf7ff9146103675780632231c1eb1461037a57806323b872dd1461038f57806327b7a2f5146103af5780632bc4bc68146103cd5780632f745c59146103ed57806332b18f6d1461040d57806337df00c91461042d5780633ccfd60b1461044d57806342842e0e14610462578063430bf08a14610482578063444115f614610497578063454a2ab3146104b75780634b455a51146104ca5780634f6ccce7146104ea57806353c147761461050a57806360c5cc3a146105385780636352211e146105585780636a58767e1461057857806370a082311461058d5780637a3c4c17146105ad5780637ccacd49146105cd5780637cf175fb146105e0578063899c9989146105f55780638da5cb5b146106155780638f6059d61461062a57806393525d391461063f57806395d89b411461065f578063a22cb46514610674578063b69ef8a814610694578063b88d4fde146106a7578063c531c236146106c7578063c87b56dd146106e7578063c9cd71b514610707578063d4f6b5ec1461071c578063d6d0faee1461073c578063d86800691461075c578063d96a094a1461076f578063e2f5fc7814610782578063e6e268f414610797578063e985e9c5146107ac578063ef706adf146107cc578063f0726291146107ec575b600080fd5b34801561025557600080fd5b5061025e610801565b60405161026b919061481f565b60405180910390f35b34801561028057600080fd5b5061029461028f366004614849565b6108be565b604051901515815260200161026b565b3480156102b057600080fd5b506102b96108f5565b60405161026b91906148be565b3480156102d257600080fd5b5061025e6102e13660046148d1565b610987565b3480156102f257600080fd5b506103066103013660046148ff565b610a14565b005b34801561031457600080fd5b50610306610323366004614a71565b610b25565b34801561033457600080fd5b50610306610343366004614acb565b610c3d565b34801561035457600080fd5b50600a545b60405190815260200161026b565b610306610375366004614b1a565b610dbb565b34801561038657600080fd5b5061025e610f10565b34801561039b57600080fd5b506103066103aa366004614b67565b610f41565b3480156103bb57600080fd5b50600d546001600160a01b031661025e565b3480156103d957600080fd5b506103066103e8366004614ba8565b610f83565b3480156103f957600080fd5b506103596104083660046148ff565b611095565b34801561041957600080fd5b50610306610428366004614bdc565b61112b565b34801561043957600080fd5b506103066104483660046148d1565b6112af565b34801561045957600080fd5b50610306611386565b34801561046e57600080fd5b5061030661047d366004614b67565b6114fd565b34801561048e57600080fd5b5061025e611508565b3480156104a357600080fd5b506103066104b2366004614bfe565b611537565b6103066104c53660046148d1565b611755565b3480156104d657600080fd5b506103066104e53660046148d1565b6119cd565b3480156104f657600080fd5b506103596105053660046148d1565b611c58565b34801561051657600080fd5b5061052a610525366004614ba8565b611ceb565b60405161026b929190614c2e565b34801561054457600080fd5b506103066105533660046148d1565b611f69565b34801561056457600080fd5b5061025e6105733660046148d1565b61211d565b34801561058457600080fd5b5061025e612152565b34801561059957600080fd5b506103596105a8366004614c50565b612189565b3480156105b957600080fd5b506103596105c83660046148d1565b612210565b6103066105db366004614bfe565b61246d565b3480156105ec57600080fd5b5061025e6126bf565b34801561060157600080fd5b50610306610610366004614c7a565b6126f1565b34801561062157600080fd5b5061025e6128b1565b34801561063657600080fd5b5061025e6128f6565b34801561064b57600080fd5b5061030661065a3660046148d1565b61292c565b34801561066b57600080fd5b506102b9612a6b565b34801561068057600080fd5b5061030661068f366004614d18565b612a7a565b3480156106a057600080fd5b5047610359565b3480156106b357600080fd5b506103066106c2366004614d51565b612b3b565b3480156106d357600080fd5b506103596106e2366004614b1a565b612b73565b3480156106f357600080fd5b506102b96107023660046148d1565b612c09565b34801561071357600080fd5b5061025e612d65565b34801561072857600080fd5b50610306610737366004614bfe565b612d95565b34801561074857600080fd5b50610306610757366004614dd0565b612dfc565b61030661076a3660046148d1565b612ec7565b61030661077d3660046148d1565b613199565b34801561078e57600080fd5b5061025e613305565b3480156107a357600080fd5b5061035961333d565b3480156107b857600080fd5b506102946107c7366004614e7f565b61334d565b3480156107d857600080fd5b506103066107e73660046148d1565b61337b565b3480156107f857600080fd5b5061025e6134b8565b600d546040516d22b733b634b9b420bab1ba34b7b760911b60208201526000916001600160a01b031690638eaa6ac090602e015b604051602081830303815290604052805190602001206040518263ffffffff1660e01b815260040161086991815260200190565b60206040518083038186803b15801561088157600080fd5b505afa158015610895573d6000803e3d6000fd5b505050506040513d601f19601f820116820180604052508101906108b99190614ebd565b905090565b60006001600160e01b031982166380ac58cd60e01b14806108ef57506001600160e01b03198216635b5e139f60e01b145b92915050565b60606000805461090490614eda565b80601f016020809104026020016040519081016040528092919081815260200182805461093090614eda565b801561097d5780601f106109525761010080835404028352916020019161097d565b820191906000526020600020905b81548152906001019060200180831161096057829003601f168201915b5050505050905090565b6000610992826134ee565b6109f85760405162461bcd60e51b815260206004820152602c60248201527f4552433732313a20617070726f76656420717565727920666f72206e6f6e657860448201526b34b9ba32b73a103a37b5b2b760a11b60648201526084015b60405180910390fd5b506000908152600660205260409020546001600160a01b031690565b6000610a1f8261211d565b9050806001600160a01b0316836001600160a01b03161415610a8d5760405162461bcd60e51b815260206004820152602160248201527f4552433732313a20617070726f76616c20746f2063757272656e74206f776e656044820152603960f91b60648201526084016109ef565b336001600160a01b0382161480610aa95750610aa9813361334d565b610b165760405162461bcd60e51b815260206004820152603860248201527f4552433732313a20617070726f76652063616c6c6572206973206e6f74206f776044820152771b995c881b9bdc88185c1c1c9bdd995908199bdc88185b1b60421b60648201526084016109ef565b610b20838361350b565b505050565b33610b2e613579565b6001600160a01b03166314afd79e306040518263ffffffff1660e01b8152600401610b59919061481f565b60206040518083038186803b158015610b7157600080fd5b505afa158015610b85573d6000803e3d6000fd5b505050506040513d601f19601f82011682018060405250810190610ba99190614ebd565b6001600160a01b031614610bcf5760405162461bcd60e51b81526004016109ef90614f15565b610bd7613583565b6001600160a01b03166313c1f2788484846040518463ffffffff1660e01b8152600401610c0693929190614f34565b600060405180830381600087803b158015610c2057600080fd5b505af1158015610c34573d6000803e3d6000fd5b50505050505050565b33610c46613579565b6001600160a01b03166314afd79e306040518263ffffffff1660e01b8152600401610c71919061481f565b60206040518083038186803b158015610c8957600080fd5b505afa158015610c9d573d6000803e3d6000fd5b505050506040513d601f19601f82011682018060405250810190610cc19190614ebd565b6001600160a01b031614610ce75760405162461bcd60e51b81526004016109ef90614f15565b610cef613579565b6001600160a01b031663179bcff783836040518363ffffffff1660e01b8152600401610d1c929190614f5f565b600060405180830381600087803b158015610d3657600080fd5b505af1158015610d4a573d6000803e3d6000fd5b50505050610d5661358d565b6001600160a01b031663262360133084846040518463ffffffff1660e01b8152600401610d8593929190614f83565b600060405180830381600087803b158015610d9f57600080fd5b505af1158015610db3573d6000803e3d6000fd5b505050505050565b33610dc4613579565b6001600160a01b03166314afd79e306040518263ffffffff1660e01b8152600401610def919061481f565b60206040518083038186803b158015610e0757600080fd5b505afa158015610e1b573d6000803e3d6000fd5b505050506040513d601f19601f82011682018060405250810190610e3f9190614ebd565b6001600160a01b03161415610e665760405162461bcd60e51b81526004016109ef90614fb8565b610e6e613597565b6001600160a01b031663171a133d84848433346040518663ffffffff1660e01b8152600401610ea1959493929190614fd7565b602060405180830381600087803b158015610ebb57600080fd5b505af1158015610ecf573d6000803e3d6000fd5b505050506040513d601f19601f82011682018060405250810190610ef39190615017565b5034600e6000828254610f069190615046565b9091555050505050565b600d546040516613dc195b909a5960ca1b60208201526000916001600160a01b031690638eaa6ac090602701610835565b610f4c8383836135a1565b610f5461358d565b6001600160a01b031663465bcf058484846040518463ffffffff1660e01b8152600401610c069392919061505e565b33610f8c613579565b6001600160a01b03166314afd79e306040518263ffffffff1660e01b8152600401610fb7919061481f565b60206040518083038186803b158015610fcf57600080fd5b505afa158015610fe3573d6000803e3d6000fd5b505050506040513d601f19601f820116820180604052508101906110079190614ebd565b6001600160a01b03161461102d5760405162461bcd60e51b81526004016109ef90614f15565b6110356135d2565b6001600160a01b031663b8926f2c826040518263ffffffff1660e01b815260040161106091906148be565b600060405180830381600087803b15801561107a57600080fd5b505af115801561108e573d6000803e3d6000fd5b5050505050565b60006110a083612189565b82106111025760405162461bcd60e51b815260206004820152602b60248201527f455243373231456e756d657261626c653a206f776e657220696e646578206f7560448201526a74206f6620626f756e647360a81b60648201526084016109ef565b506001600160a01b03919091166000908152600860209081526040808320938352929052205490565b33611134613579565b6001600160a01b03166314afd79e306040518263ffffffff1660e01b815260040161115f919061481f565b60206040518083038186803b15801561117757600080fd5b505afa15801561118b573d6000803e3d6000fd5b505050506040513d601f19601f820116820180604052508101906111af9190614ebd565b6001600160a01b0316146111d55760405162461bcd60e51b81526004016109ef90614f15565b6111df82826135dc565b60006111e96137bc565b6040516332b18f6d60e01b815260048101859052602481018490526001600160a01b0391909116906332b18f6d90604401602060405180830381600087803b15801561123457600080fd5b505af1158015611248573d6000803e3d6000fd5b505050506040513d601f19601f8201168201806040525081019061126c9190614ebd565b905061127881846137c6565b61128061358d565b6001600160a01b031663465bcf053083866040518463ffffffff1660e01b8152600401610c069392919061505e565b80336112b96137d1565b6001600160a01b031663cc889b0b836040518263ffffffff1660e01b81526004016112e691815260200190565b60606040518083038186803b1580156112fe57600080fd5b505afa158015611312573d6000803e3d6000fd5b505050506040513d601f19601f820116820180604052508101906113369190615082565b602001516001600160a01b0316146113785760405162461bcd60e51b815260206004820152600560248201526425a218991b60d91b60448201526064016109ef565b61138282336137db565b5050565b3361138f613579565b6001600160a01b03166314afd79e306040518263ffffffff1660e01b81526004016113ba919061481f565b60206040518083038186803b1580156113d257600080fd5b505afa1580156113e6573d6000803e3d6000fd5b505050506040513d601f19601f8201168201806040525081019061140a9190614ebd565b6001600160a01b0316146114305760405162461bcd60e51b81526004016109ef90614f15565b600061143a61333d565b604051909150600090339061271090849084818181858888f193505050503d8060008114611484576040519150601f19603f3d011682016040523d82523d6000602084013e611489565b606091505b5050905080156114c85761149b61358d565b6001600160a01b031663279862cb836040518263ffffffff1660e01b8152600401610d8591815260200190565b6114d061358d565b6001600160a01b031663ec720b9b33846040518363ffffffff1660e01b8152600401610d859291906150e3565b610f4c83838361396e565b600d546040516415985d5b1d60da1b60208201526000916001600160a01b031690638eaa6ac090602501610835565b33611540613579565b6001600160a01b03166314afd79e306040518263ffffffff1660e01b815260040161156b919061481f565b60206040518083038186803b15801561158357600080fd5b505afa158015611597573d6000803e3d6000fd5b505050506040513d601f19601f820116820180604052508101906115bb9190614ebd565b6001600160a01b0316146115e15760405162461bcd60e51b81526004016109ef90614f15565b60006115eb613597565b6001600160a01b03166319b05f49846040518263ffffffff1660e01b815260040161161891815260200190565b600060405180830381600087803b15801561163257600080fd5b505af1158015611646573d6000803e3d6000fd5b505050506040513d6000823e601f3d908101601f1916820160405261166e9190810190615141565b90506116786135d2565b6001600160a01b031663a9ad60f38484846040518463ffffffff1660e01b81526004016116a7939291906151e4565b600060405180830381600087803b1580156116c157600080fd5b505af11580156116d5573d6000803e3d6000fd5b505050506116e881606001518484613989565b611701600a82608001516116fc9190615256565b6139b2565b8060800151600e60008282546117179190615278565b90915550611725905061358d565b6001600160a01b031663465bcf05600030866040518463ffffffff1660e01b8152600401610c069392919061505e565b3361175e613579565b6001600160a01b03166314afd79e306040518263ffffffff1660e01b8152600401611789919061481f565b60206040518083038186803b1580156117a157600080fd5b505afa1580156117b5573d6000803e3d6000fd5b505050506040513d601f19601f820116820180604052508101906117d99190614ebd565b6001600160a01b031614156118005760405162461bcd60e51b81526004016109ef90614fb8565b6002600c5414156118235760405162461bcd60e51b81526004016109ef9061528f565b6002600c5573__$d7d41b463f0c25cd0b86b1d270805192c7$__639e1b393661184a6135d2565b6001600160a01b031663b3a0ebc9846040518263ffffffff1660e01b815260040161187791815260200190565b60006040518083038186803b15801561188f57600080fd5b505afa1580156118a3573d6000803e3d6000fd5b505050506040513d6000823e601f3d908101601f191682016040526118cb91908101906152dc565b6118d484612210565b42346040518563ffffffff1660e01b81526004016118f594939291906154c7565b60006040518083038186803b15801561190d57600080fd5b505af4158015611921573d6000803e3d6000fd5b50505050600061193082613a53565b905061193a6137d1565b60405163c0f4ed3160e01b8152600481018490523360248201523460448201526001600160a01b03919091169063c0f4ed3190606401600060405180830381600087803b15801561198a57600080fd5b505af115801561199e573d6000803e3d6000fd5b5050505080346119ae9190615278565b600e60008282546119bf9190615046565b90915550506001600c555050565b336119d6613579565b6001600160a01b03166314afd79e306040518263ffffffff1660e01b8152600401611a01919061481f565b60206040518083038186803b158015611a1957600080fd5b505afa158015611a2d573d6000803e3d6000fd5b505050506040513d601f19601f82011682018060405250810190611a519190614ebd565b6001600160a01b031614611a775760405162461bcd60e51b81526004016109ef90614f15565b6000611a816135d2565b6001600160a01b031663b3a0ebc9836040518263ffffffff1660e01b8152600401611aae91815260200190565b60006040518083038186803b158015611ac657600080fd5b505afa158015611ada573d6000803e3d6000fd5b505050506040513d6000823e601f3d908101601f19168201604052611b0291908101906152dc565b516001600160a01b03161415611b2a5760405162461bcd60e51b81526004016109ef906154f6565b30611b348261211d565b6001600160a01b031614611b725760405162461bcd60e51b81526020600482015260056024820152644b4431323160d81b60448201526064016109ef565b611b7b81613c88565b15611bb05760405162461bcd60e51b8152602060048201526005602482015264096886264760db1b60448201526064016109ef565b611bb981613db7565b611bc16135d2565b6001600160a01b0316634b455a51826040518263ffffffff1660e01b8152600401611bee91815260200190565b600060405180830381600087803b158015611c0857600080fd5b505af1158015611c1c573d6000803e3d6000fd5b50505050611c2861358d565b6001600160a01b031663465bcf05306000846040518463ffffffff1660e01b81526004016110609392919061505e565b6000611c63600a5490565b8210611cc65760405162461bcd60e51b815260206004820152602c60248201527f455243373231456e756d657261626c653a20676c6f62616c20696e646578206f60448201526b7574206f6620626f756e647360a01b60648201526084016109ef565b600a8281548110611cd957611cd9615515565b90600052602060002001549050919050565b6060600080611cf86135d2565b6001600160a01b031663d028bd66856040518263ffffffff1660e01b8152600401611d2391906148be565b60006040518083038186803b158015611d3b57600080fd5b505afa158015611d4f573d6000803e3d6000fd5b505050506040513d6000823e601f3d908101601f19168201604052611d77919081019061554e565b905060005b8151811015611f4b57818181518110611d9757611d97615515565b6020026020010151600014611f39576000611db06135d2565b6001600160a01b031663b3a0ebc9848481518110611dd057611dd0615515565b60200260200101516040518263ffffffff1660e01b8152600401611df691815260200190565b60006040518083038186803b158015611e0e57600080fd5b505afa158015611e22573d6000803e3d6000fd5b505050506040513d6000823e601f3d908101601f19168201604052611e4a91908101906152dc565b9050428160a0015111158015611e645750428160c0015110155b15611f37576000611e73613583565b6001600160a01b031663bd365642858581518110611e9357611e93615515565b60200260200101516040518263ffffffff1660e01b8152600401611eb991815260200190565b60006040518083038186803b158015611ed157600080fd5b505afa158015611ee5573d6000803e3d6000fd5b505050506040513d6000823e601f3d908101601f19168201604052611f0d91908101906155de565b905080848481518110611f2257611f22615515565b60200260200101519550955050505050915091565b505b80611f4381615612565b915050611d7c565b50600060405180602001604052806000815250909250925050915091565b33611f72613579565b6001600160a01b03166314afd79e306040518263ffffffff1660e01b8152600401611f9d919061481f565b60206040518083038186803b158015611fb557600080fd5b505afa158015611fc9573d6000803e3d6000fd5b505050506040513d601f19601f82011682018060405250810190611fed9190614ebd565b6001600160a01b0316146120135760405162461bcd60e51b81526004016109ef90614f15565b61201b613583565b6001600160a01b031663897615e6826040518263ffffffff1660e01b815260040161204891815260200190565b60206040518083038186803b15801561206057600080fd5b505afa158015612074573d6000803e3d6000fd5b505050506040513d601f19601f820116820180604052508101906120989190614ebd565b6001600160a01b03166120aa8261211d565b6001600160a01b0316146120e85760405162461bcd60e51b81526020600482015260056024820152644b4431333160d81b60448201526064016109ef565b6120f0613583565b6001600160a01b03166319b05f49826040518263ffffffff1660e01b815260040161106091815260200190565b6000818152600460205260408120546001600160a01b0316806108ef5760405162461bcd60e51b81526004016109ef906154f6565b600d546040516c4d65646961526567697374727960981b60208201526000916001600160a01b031690638eaa6ac090602d01610835565b60006001600160a01b0382166121f45760405162461bcd60e51b815260206004820152602a60248201527f4552433732313a2062616c616e636520717565727920666f7220746865207a65604482015269726f206164647265737360b01b60648201526084016109ef565b506001600160a01b031660009081526005602052604090205490565b60008061221b6135d2565b6001600160a01b031663b3a0ebc9846040518263ffffffff1660e01b815260040161224891815260200190565b60006040518083038186803b15801561226057600080fd5b505afa158015612274573d6000803e3d6000fd5b505050506040513d6000823e601f3d908101601f1916820160405261229c91908101906152dc565b905060008160e0015160048111156122b6576122b66153e3565b14156122c757610100015192915050565b60018160e0015160048111156122df576122df6153e3565b141561234957806060015181608001516122f99190615278565b60608201516123089042615278565b82610100015183610120015161231e9190615278565b612328919061562d565b6123329190615256565b8161012001516123429190615278565b9392505050565b60028160e001516004811115612361576123616153e3565b14156123ec5761236f6137d1565b6001600160a01b0316637a3c4c17846040518263ffffffff1660e01b815260040161239c91815260200190565b60206040518083038186803b1580156123b457600080fd5b505afa1580156123c8573d6000803e3d6000fd5b505050506040513d601f19601f820116820180604052508101906123429190615017565b60038160e001516004811115612404576124046153e3565b14156124125761236f613597565b60048160e00151600481111561242a5761242a6153e3565b14156124395750600092915050565b60405162461bcd60e51b81526020600482015260096024820152681b9bdd08195e1a5cdd60ba1b60448201526064016109ef565b33612476613579565b6001600160a01b03166314afd79e306040518263ffffffff1660e01b81526004016124a1919061481f565b60206040518083038186803b1580156124b957600080fd5b505afa1580156124cd573d6000803e3d6000fd5b505050506040513d601f19601f820116820180604052508101906124f19190614ebd565b6001600160a01b031614156125185760405162461bcd60e51b81526004016109ef90614fb8565b6002600c54141561253b5760405162461bcd60e51b81526004016109ef9061528f565b6002600c5573__$d7d41b463f0c25cd0b86b1d270805192c7$__6368a8f9516125626135d2565b6001600160a01b031663b3a0ebc9856040518263ffffffff1660e01b815260040161258f91815260200190565b60006040518083038186803b1580156125a757600080fd5b505afa1580156125bb573d6000803e3d6000fd5b505050506040513d6000823e601f3d908101601f191682016040526125e391908101906152dc565b42346040518463ffffffff1660e01b81526004016126039392919061564c565b60006040518083038186803b15801561261b57600080fd5b505af415801561262f573d6000803e3d6000fd5b5050505034600e60008282546126459190615046565b9091555061265390506137bc565b6001600160a01b031663389ad90e838333346040518563ffffffff1660e01b81526004016126849493929190615671565b600060405180830381600087803b15801561269e57600080fd5b505af11580156126b2573d6000803e3d6000fd5b50506001600c5550505050565b600d546040516713d999995c909a5960c21b60208201526000916001600160a01b031690638eaa6ac090602801610835565b336126fa613579565b6001600160a01b03166314afd79e306040518263ffffffff1660e01b8152600401612725919061481f565b60206040518083038186803b15801561273d57600080fd5b505afa158015612751573d6000803e3d6000fd5b505050506040513d601f19601f820116820180604052508101906127759190614ebd565b6001600160a01b03161461279b5760405162461bcd60e51b81526004016109ef90614f15565b60006127a56135d2565b6001600160a01b031663e6851b98308a8a8a8a8a8a8a6040518963ffffffff1660e01b81526004016127de9897969594939291906156a6565b602060405180830381600087803b1580156127f857600080fd5b505af115801561280c573d6000803e3d6000fd5b505050506040513d601f19601f820116820180604052508101906128309190615017565b905061283d308289613989565b61284561358d565b6001600160a01b031663465bcf05600030846040518463ffffffff1660e01b81526004016128759392919061505e565b600060405180830381600087803b15801561288f57600080fd5b505af11580156128a3573d6000803e3d6000fd5b505050505050505050505050565b600d5460408051631abe729160e31b815290516000926001600160a01b03169163d5f39488916004808301926020929190829003018186803b15801561088157600080fd5b600d546040516b4d65646961466163746f727960a01b60208201526000916001600160a01b031690638eaa6ac090602c01610835565b33612935613579565b6001600160a01b03166314afd79e306040518263ffffffff1660e01b8152600401612960919061481f565b60206040518083038186803b15801561297857600080fd5b505afa15801561298c573d6000803e3d6000fd5b505050506040513d601f19601f820116820180604052508101906129b09190614ebd565b6001600160a01b0316146129d65760405162461bcd60e51b81526004016109ef90614f15565b612a68816129e26137d1565b6001600160a01b031663cc889b0b846040518263ffffffff1660e01b8152600401612a0f91815260200190565b60606040518083038186803b158015612a2757600080fd5b505afa158015612a3b573d6000803e3d6000fd5b505050506040513d601f19601f82011682018060405250810190612a5f9190615082565b602001516137db565b50565b60606001805461090490614eda565b6001600160a01b038216331415612acf5760405162461bcd60e51b815260206004820152601960248201527822a9219b99189d1030b8383937bb32903a379031b0b63632b960391b60448201526064016109ef565b3360008181526007602090815260408083206001600160a01b03871680855290835292819020805460ff191686151590811790915590519081529192917f17307eab39ab6107e8899845ad3d59bd9653f200f220920489ca2b5937696c31910160405180910390a35050565b612b453383613de8565b612b615760405162461bcd60e51b81526004016109ef90615714565b612b6d84848484613eaa565b50505050565b6040516303fb4aab60e41b815260009073__$a79fa16630ef50be54c6520a39abca49df$__90633fb4aab090612bb190879087908790600401615765565b60206040518083038186803b158015612bc957600080fd5b505af4158015612bdd573d6000803e3d6000fd5b505050506040513d601f19601f82011682018060405250810190612c019190615017565b949350505050565b6060612c14826134ee565b612c785760405162461bcd60e51b815260206004820152602f60248201527f4552433732314d657461646174613a2055524920717565727920666f72206e6f60448201526e3732bc34b9ba32b73a103a37b5b2b760891b60648201526084016109ef565b600060028054612c8790614eda565b905011612d2a5760008281526003602052604090208054612ca790614eda565b80601f0160208091040260200160405190810160405280929190818152602001828054612cd390614eda565b8015612d205780601f10612cf557610100808354040283529160200191612d20565b820191906000526020600020905b815481529060010190602001808311612d0357829003601f168201915b50505050506108ef565b600260036000848152602001908152602001600020604051602001612d50929190615812565b60405160208183030381529060405292915050565b600d54604051651059141bdbdb60d21b60208201526000916001600160a01b031690638eaa6ac090602601610835565b33612d9f8361211d565b6001600160a01b031614612dc55760405162461bcd60e51b81526004016109ef90614f15565b612dcd613583565b6001600160a01b031663fb772f4b8383336040518463ffffffff1660e01b8152600401610d8593929190615827565b600d546001600160a01b031615612e3d5760405162461bcd60e51b8152602060048201526005602482015264041523030360dc1b60448201526064016109ef565b8451612e50906000906020880190614786565b5084604051602001612e629190615858565b60405160208183030381529060405260019080519060200190612e86929190614786565b508351612e9a906002906020870190614786565b50612ea782600085613989565b600d80546001600160a01b0319166001600160a01b03831617905561108e565b33612ed0613579565b6001600160a01b03166314afd79e306040518263ffffffff1660e01b8152600401612efb919061481f565b60206040518083038186803b158015612f1357600080fd5b505afa158015612f27573d6000803e3d6000fd5b505050506040513d601f19601f82011682018060405250810190612f4b9190614ebd565b6001600160a01b03161415612f725760405162461bcd60e51b81526004016109ef90614fb8565b73__$d7d41b463f0c25cd0b86b1d270805192c7$__63bbd1abd7612f946135d2565b6001600160a01b031663b3a0ebc9846040518263ffffffff1660e01b8152600401612fc191815260200190565b60006040518083038186803b158015612fd957600080fd5b505afa158015612fed573d6000803e3d6000fd5b505050506040513d6000823e601f3d908101601f1916820160405261301591908101906152dc565b61301e84612210565b346040518463ffffffff1660e01b815260040161303d9392919061564c565b60006040518083038186803b15801561305557600080fd5b505af4158015613069573d6000803e3d6000fd5b505050506130756135d2565b6001600160a01b0316639c03facb826040518263ffffffff1660e01b81526004016130a291815260200190565b600060405180830381600087803b1580156130bc57600080fd5b505af11580156130d0573d6000803e3d6000fd5b505050506130de33826137c6565b6130ec6116fc600a34615256565b6130f461358d565b604051635dd995b560e01b8152600481018390523460248201523360448201524260648201526001600160a01b039190911690635dd995b590608401600060405180830381600087803b15801561314a57600080fd5b505af115801561315e573d6000803e3d6000fd5b5050505061316a61358d565b6001600160a01b031663465bcf053033846040518463ffffffff1660e01b81526004016110609392919061505e565b336131a2613579565b6001600160a01b03166314afd79e306040518263ffffffff1660e01b81526004016131cd919061481f565b60206040518083038186803b1580156131e557600080fd5b505afa1580156131f9573d6000803e3d6000fd5b505050506040513d601f19601f8201168201806040525081019061321d9190614ebd565b6001600160a01b031614156132445760405162461bcd60e51b81526004016109ef90614fb8565b73__$d7d41b463f0c25cd0b86b1d270805192c7$__63c4bbd6766132666135d2565b6001600160a01b031663b3a0ebc9846040518263ffffffff1660e01b815260040161329391815260200190565b60006040518083038186803b1580156132ab57600080fd5b505afa1580156132bf573d6000803e3d6000fd5b505050506040513d6000823e601f3d908101601f191682016040526132e791908101906152dc565b346040518363ffffffff1660e01b815260040161303d929190615888565b600d546040516d50726f706f73616c52657669657760901b60208201526000916001600160a01b031690638eaa6ac090602e01610835565b6000600e54476108b99190615278565b6001600160a01b03918216600090815260076020908152604080832093909416825291909152205460ff1690565b33613384613579565b6001600160a01b03166314afd79e306040518263ffffffff1660e01b81526004016133af919061481f565b60206040518083038186803b1580156133c757600080fd5b505afa1580156133db573d6000803e3d6000fd5b505050506040513d601f19601f820116820180604052508101906133ff9190614ebd565b6001600160a01b031614156134265760405162461bcd60e51b81526004016109ef90614fb8565b600061343182613edd565b905061343b613597565b6040516315f5a0b160e21b8152600481018490523360248201526001600160a01b0391909116906357d682c490604401600060405180830381600087803b15801561348557600080fd5b505af1158015613499573d6000803e3d6000fd5b5050505080600e60008282546134af9190615278565b90915550505050565b600d546040516b22bb32b73a22b6b4ba3a32b960a11b60208201526000916001600160a01b031690638eaa6ac090602c01610835565b6000908152600460205260409020546001600160a01b0316151590565b600081815260066020526040902080546001600160a01b0319166001600160a01b03841690811790915581906135408261211d565b6001600160a01b03167f8c5be1e5ebec7d5bd14f71427d1e84f3dd0314c0f7b2291e5b200ac8c7c3b92560405160405180910390a45050565b60006108b9612152565b60006108b9613305565b60006108b96134b8565b60006108b96126bf565b6135ab3382613de8565b6135c75760405162461bcd60e51b81526004016109ef90615714565b610b208383836140d7565b60006108b9612d65565b60006135e66137bc565b6001600160a01b031663761ce95d846040518263ffffffff1660e01b815260040161361391815260200190565b60006040518083038186803b15801561362b57600080fd5b505afa15801561363f573d6000803e3d6000fd5b505050506040513d6000823e601f3d908101601f19168201604052613667919081019061589b565b905060005b8151811015612b6d57600082828151811061368957613689615515565b602002602001015190508060400151600e60008282546136a99190615278565b9091555050818414156136cf576136ca600a82604001516116fc9190615256565b6137a9565b600081602001516001600160a01b0316826040015161271090604051600060405180830381858888f193505050503d8060008114613729576040519150601f19603f3d011682016040523d82523d6000602084013e61372e565b606091505b50509050806137a75761373f61358d565b6001600160a01b031663ec720b9b836020015184604001516040518363ffffffff1660e01b81526004016137749291906150e3565b600060405180830381600087803b15801561378e57600080fd5b505af11580156137a2573d6000803e3d6000fd5b505050505b505b50806137b481615612565b91505061366c565b60006108b9610f10565b6113823083836140d7565b60006108b9610801565b6000806137e66137d1565b6001600160a01b03166337df00c9856040518263ffffffff1660e01b815260040161381391815260200190565b6040805180830381600087803b15801561382c57600080fd5b505af1158015613840573d6000803e3d6000fd5b505050506040513d601f19601f8201168201806040525081019061386491906159a9565b915091506138706135d2565b6001600160a01b0316639c03facb856040518263ffffffff1660e01b815260040161389d91815260200190565b600060405180830381600087803b1580156138b757600080fd5b505af11580156138cb573d6000803e3d6000fd5b5050505080600e60008282546138e19190615278565b909155506138f1905082856137c6565b6138ff6116fc600a83615256565b61390761358d565b6001600160a01b031663465bcf053085876040518463ffffffff1660e01b81526004016139369392919061505e565b600060405180830381600087803b15801561395057600080fd5b505af1158015613964573d6000803e3d6000fd5b5050505050505050565b610b2083838360405180602001604052806000815250612b3b565b6139938383614270565b60008281526003602090815260409091208251612b6d92840190614786565b60006139bc611508565b90506000816001600160a01b03168361271090604051600060405180830381858888f193505050503d8060008114613a10576040519150601f19603f3d011682016040523d82523d6000602084013e613a15565b606091505b5050905080610b2057613a2661358d565b6001600160a01b031663ec720b9b83856040518363ffffffff1660e01b8152600401610c069291906150e3565b600080613a5e6135d2565b6001600160a01b031663b3a0ebc9846040518263ffffffff1660e01b8152600401613a8b91815260200190565b60006040518083038186803b158015613aa357600080fd5b505afa158015613ab7573d6000803e3d6000fd5b505050506040513d6000823e601f3d908101601f19168201604052613adf91908101906152dc565b90506000613aeb6137d1565b6001600160a01b031663cc889b0b856040518263ffffffff1660e01b8152600401613b1891815260200190565b60606040518083038186803b158015613b3057600080fd5b505afa158015613b44573d6000803e3d6000fd5b505050506040513d601f19601f82011682018060405250810190613b689190615082565b905060028260e001516004811115613b8257613b826153e3565b148015613b9b575060208101516001600160a01b031615155b15613c8157600081602001516001600160a01b0316826040015161271090604051600060405180830381858888f193505050503d8060008114613bfa576040519150601f19603f3d011682016040523d82523d6000602084013e613bff565b606091505b505090508160400151935080613c7f57613c1761358d565b6001600160a01b031663ec720b9b836020015184604001516040518363ffffffff1660e01b8152600401613c4c9291906150e3565b600060405180830381600087803b158015613c6657600080fd5b505af1158015613c7a573d6000803e3d6000fd5b505050505b505b5050919050565b600080613c936137d1565b6001600160a01b031663cc889b0b846040518263ffffffff1660e01b8152600401613cc091815260200190565b60606040518083038186803b158015613cd857600080fd5b505afa158015613cec573d6000803e3d6000fd5b505050506040513d601f19601f82011682018060405250810190613d109190615082565b602001516001600160a01b03161415806108ef5750613d2d6137bc565b6001600160a01b031663761ce95d836040518263ffffffff1660e01b8152600401613d5a91815260200190565b60006040518083038186803b158015613d7257600080fd5b505afa158015613d86573d6000803e3d6000fd5b505050506040513d6000823e601f3d908101601f19168201604052613dae919081019061589b565b51151592915050565b613dc08161439c565b6040805160208082018084526000808452858152600390925292902090516113829290614786565b6000613df3826134ee565b613e545760405162461bcd60e51b815260206004820152602c60248201527f4552433732313a206f70657261746f7220717565727920666f72206e6f6e657860448201526b34b9ba32b73a103a37b5b2b760a11b60648201526084016109ef565b6000613e5f8361211d565b9050806001600160a01b0316846001600160a01b03161480613e9a5750836001600160a01b0316613e8f84610987565b6001600160a01b0316145b80612c015750612c01818561334d565b613eb58484846140d7565b613ec184848484614431565b612b6d5760405162461bcd60e51b81526004016109ef906159d7565b600080613ee86135d2565b6001600160a01b031663b3a0ebc9846040518263ffffffff1660e01b8152600401613f1591815260200190565b60006040518083038186803b158015613f2d57600080fd5b505afa158015613f41573d6000803e3d6000fd5b505050506040513d6000823e601f3d908101601f19168201604052613f6991908101906152dc565b90506000613f75613597565b6001600160a01b03166301b99e04856040518263ffffffff1660e01b8152600401613fa291815260200190565b60006040518083038186803b158015613fba57600080fd5b505afa158015613fce573d6000803e3d6000fd5b505050506040513d6000823e601f3d908101601f19168201604052613ff69190810190615141565b905060038260e001516004811115614010576140106153e3565b148015614029575060608101516001600160a01b031615155b15613c8157606081015160808201516040516000926001600160a01b0316916127109184818181858888f193505050503d8060008114614085576040519150601f19603f3d011682016040523d82523d6000602084013e61408a565b606091505b505090508160800151935080613c7f576140a261358d565b6001600160a01b031663ec720b9b836060015184608001516040518363ffffffff1660e01b8152600401613c4c9291906150e3565b826001600160a01b03166140ea8261211d565b6001600160a01b0316146141525760405162461bcd60e51b815260206004820152602960248201527f4552433732313a207472616e73666572206f6620746f6b656e2074686174206960448201526839903737ba1037bbb760b91b60648201526084016109ef565b6001600160a01b0382166141b45760405162461bcd60e51b8152602060048201526024808201527f4552433732313a207472616e7366657220746f20746865207a65726f206164646044820152637265737360e01b60648201526084016109ef565b6141bf83838361453e565b6141ca60008261350b565b6001600160a01b03831660009081526005602052604081208054600192906141f3908490615278565b90915550506001600160a01b0382166000908152600560205260408120805460019290614221908490615046565b909155505060008181526004602052604080822080546001600160a01b0319166001600160a01b038681169182179092559151849391871691600080516020615a9a83398151915291a4505050565b6001600160a01b0382166142c65760405162461bcd60e51b815260206004820181905260248201527f4552433732313a206d696e7420746f20746865207a65726f206164647265737360448201526064016109ef565b6142cf816134ee565b1561431b5760405162461bcd60e51b815260206004820152601c60248201527b115490cdcc8c4e881d1bdad95b88185b1c9958591e481b5a5b9d195960221b60448201526064016109ef565b6143276000838361453e565b6001600160a01b0382166000908152600560205260408120805460019290614350908490615046565b909155505060008181526004602052604080822080546001600160a01b0319166001600160a01b0386169081179091559051839290600080516020615a9a833981519152908290a45050565b60006143a78261211d565b90506143b58160008461453e565b6143c060008361350b565b6001600160a01b03811660009081526005602052604081208054600192906143e9908490615278565b909155505060008281526004602052604080822080546001600160a01b0319169055518391906001600160a01b03841690600080516020615a9a833981519152908390a45050565b60006001600160a01b0384163b1561453357604051630a85bd0160e11b81526001600160a01b0385169063150b7a0290614475903390899088908890600401615a29565b602060405180830381600087803b15801561448f57600080fd5b505af19250505080156144bf575060408051601f3d908101601f191682019092526144bc91810190615a66565b60015b614519573d8080156144ed576040519150601f19603f3d011682016040523d82523d6000602084013e6144f2565b606091505b5080516145115760405162461bcd60e51b81526004016109ef906159d7565b805181602001fd5b6001600160e01b031916630a85bd0160e11b149050612c01565b506001949350505050565b6001600160a01b0383166145995761459481600a80546000838152600b60205260408120829055600182018355919091527fc65a7bb8d6351c1cf70c95a316cc6a92839c986682d98bc35f958f4883f9d2a80155565b6145bc565b816001600160a01b0316836001600160a01b0316146145bc576145bc83826145f6565b6001600160a01b0382166145d357610b2081614693565b826001600160a01b0316826001600160a01b031614610b2057610b208282614742565b6000600161460384612189565b61460d9190615278565b600083815260096020526040902054909150808214614660576001600160a01b03841660009081526008602090815260408083208584528252808320548484528184208190558352600990915290208190555b5060009182526009602090815260408084208490556001600160a01b039094168352600881528383209183525290812055565b600a546000906146a590600190615278565b6000838152600b6020526040812054600a80549394509092849081106146cd576146cd615515565b9060005260206000200154905080600a83815481106146ee576146ee615515565b6000918252602080832090910192909255828152600b9091526040808220849055858252812055600a80548061472657614726615a83565b6001900381819060005260206000200160009055905550505050565b600061474d83612189565b6001600160a01b039093166000908152600860209081526040808320868452825280832085905593825260099052919091209190915550565b82805461479290614eda565b90600052602060002090601f0160209004810192826147b457600085556147fa565b82601f106147cd57805160ff19168380011785556147fa565b828001600101855582156147fa579182015b828111156147fa5782518255916020019190600101906147df565b5061480692915061480a565b5090565b5b80821115614806576000815560010161480b565b6001600160a01b0391909116815260200190565b6001600160e01b031981168114612a6857600080fd5b60006020828403121561485b57600080fd5b813561234281614833565b60005b83811015614881578181015183820152602001614869565b83811115612b6d5750506000910152565b600081518084526148aa816020860160208601614866565b601f01601f19169290920160200192915050565b6020815260006123426020830184614892565b6000602082840312156148e357600080fd5b5035919050565b6001600160a01b0381168114612a6857600080fd5b6000806040838503121561491257600080fd5b823561491d816148ea565b946020939093013593505050565b634e487b7160e01b600052604160045260246000fd5b60405160a081016001600160401b03811182821017156149635761496361492b565b60405290565b60405161016081016001600160401b03811182821017156149635761496361492b565b604051608081016001600160401b03811182821017156149635761496361492b565b604051601f8201601f191681016001600160401b03811182821017156149d6576149d661492b565b604052919050565b60006001600160401b038211156149f7576149f761492b565b50601f01601f191660200190565b6000614a18614a13846149de565b6149ae565b9050828152838383011115614a2c57600080fd5b828260208301376000602084830101529392505050565b600082601f830112614a5457600080fd5b61234283833560208501614a05565b8015158114612a6857600080fd5b600080600060608486031215614a8657600080fd5b8335925060208401356001600160401b03811115614aa357600080fd5b614aaf86828701614a43565b9250506040840135614ac081614a63565b809150509250925092565b60008060408385031215614ade57600080fd5b8235614ae9816148ea565b915060208301356001600160401b03811115614b0457600080fd5b614b1085828601614a43565b9150509250929050565b600080600060608486031215614b2f57600080fd5b83356001600160401b03811115614b4557600080fd5b614b5186828701614a43565b9660208601359650604090950135949350505050565b600080600060608486031215614b7c57600080fd5b8335614b87816148ea565b92506020840135614b97816148ea565b929592945050506040919091013590565b600060208284031215614bba57600080fd5b81356001600160401b03811115614bd057600080fd5b612c0184828501614a43565b60008060408385031215614bef57600080fd5b50508035926020909101359150565b60008060408385031215614c1157600080fd5b8235915060208301356001600160401b03811115614b0457600080fd5b604081526000614c416040830185614892565b90508260208301529392505050565b600060208284031215614c6257600080fd5b8135612342816148ea565b60058110612a6857600080fd5b600080600080600080600060e0888a031215614c9557600080fd5b87356001600160401b0380821115614cac57600080fd5b614cb88b838c01614a43565b985060208a0135915080821115614cce57600080fd5b50614cdb8a828b01614a43565b96505060408801359450606088013593506080880135925060a0880135614d0181614c6d565b8092505060c0880135905092959891949750929550565b60008060408385031215614d2b57600080fd5b8235614d36816148ea565b91506020830135614d4681614a63565b809150509250929050565b60008060008060808587031215614d6757600080fd5b8435614d72816148ea565b93506020850135614d82816148ea565b92506040850135915060608501356001600160401b03811115614da457600080fd5b8501601f81018713614db557600080fd5b614dc487823560208401614a05565b91505092959194509250565b600080600080600060a08688031215614de857600080fd5b85356001600160401b0380821115614dff57600080fd5b614e0b89838a01614a43565b96506020880135915080821115614e2157600080fd5b614e2d89838a01614a43565b95506040880135915080821115614e4357600080fd5b50614e5088828901614a43565b9350506060860135614e61816148ea565b91506080860135614e71816148ea565b809150509295509295909350565b60008060408385031215614e9257600080fd5b8235614e9d816148ea565b91506020830135614d46816148ea565b8051614eb8816148ea565b919050565b600060208284031215614ecf57600080fd5b8151612342816148ea565b600181811c90821680614eee57607f821691505b60208210811415614f0f57634e487b7160e01b600052602260045260246000fd5b50919050565b60208082526005908201526425a218189960d91b604082015260600190565b838152606060208201526000614f4d6060830185614892565b90508215156040830152949350505050565b6001600160a01b0383168152604060208201819052600090612c0190830184614892565b6001600160a01b03848116825283166020820152606060408201819052600090614faf90830184614892565b95945050505050565b60208082526005908201526412d10c0c4d60da1b604082015260600190565b60a081526000614fea60a0830188614892565b60208301969096525060408101939093526001600160a01b03919091166060830152608090910152919050565b60006020828403121561502957600080fd5b5051919050565b634e487b7160e01b600052601160045260246000fd5b6000821982111561505957615059615030565b500190565b6001600160a01b039384168152919092166020820152604081019190915260600190565b60006060828403121561509457600080fd5b604051606081016001600160401b03811182821017156150b6576150b661492b565b6040528251815260208301516150cb816148ea565b60208201526040928301519281019290925250919050565b6001600160a01b03929092168252602082015260400190565b600082601f83011261510d57600080fd5b815161511b614a13826149de565b81815284602083860101111561513057600080fd5b612c01826020830160208701614866565b60006020828403121561515357600080fd5b81516001600160401b038082111561516a57600080fd5b9083019060a0828603121561517e57600080fd5b615186614941565b82518281111561519557600080fd5b6151a1878286016150fc565b8252506020830151602082015260408301516040820152606083015191506151c8826148ea565b8160608201526080830151608082015280935050505092915050565b8381526060602082015260006151fd6060830185614892565b8281036040840152835160a0825261521860a0830182614892565b60208681015190840152604080870151908401526060808701516001600160a01b031690840152608095860151959092019490945295945050505050565b60008261527357634e487b7160e01b600052601260045260246000fd5b500490565b60008282101561528a5761528a615030565b500390565b6020808252601f908201527f5265656e7472616e637947756172643a207265656e7472616e742063616c6c00604082015260600190565b8051614eb881614c6d565b8051614eb881614a63565b6000602082840312156152ee57600080fd5b81516001600160401b038082111561530557600080fd5b90830190610160828603121561531a57600080fd5b615322614969565b61532b83614ead565b815260208301518281111561533f57600080fd5b61534b878286016150fc565b60208301525060408301518281111561536357600080fd5b61536f878286016150fc565b604083015250606083015160608201526080830151608082015260a083015160a082015260c083015160c08201526153a960e084016152c6565b60e08201526101008381015190820152610120808401519082015261014091506153d48284016152d1565b91810191909152949350505050565b634e487b7160e01b600052602160045260246000fd5b6005811061541757634e487b7160e01b600052602160045260246000fd5b9052565b80516001600160a01b031682526000610160602083015181602086015261544482860182614892565b9150506040830151848203604086015261545e8282614892565b915050606083015160608501526080830151608085015260a083015160a085015260c083015160c085015260e083015161549b60e08601826153f9565b506101008381015190850152610120808401519085015261014092830151151592909301919091525090565b6080815260006154da608083018761541b565b6020830195909552506040810192909252606090910152919050565b60208082526005908201526412d10c4c4d60da1b604082015260600190565b634e487b7160e01b600052603260045260246000fd5b60006001600160401b038211156155445761554461492b565b5060051b60200190565b6000602080838503121561556157600080fd5b82516001600160401b0381111561557757600080fd5b8301601f8101851361558857600080fd5b8051615596614a138261552b565b81815260059190911b820183019083810190878311156155b557600080fd5b928401925b828410156155d3578351825292840192908401906155ba565b979650505050505050565b6000602082840312156155f057600080fd5b81516001600160401b0381111561560657600080fd5b612c01848285016150fc565b600060001982141561562657615626615030565b5060010190565b600081600019048311821515161561564757615647615030565b500290565b60608152600061565f606083018661541b565b60208301949094525060400152919050565b84815260806020820152600061568a6080830186614892565b6001600160a01b03949094166040830152506060015292915050565b6001600160a01b0389168152610100602082018190526000906156cb8382018b614892565b905082810360408401526156df818a614892565b9150508660608301528560808301528460a083015261570160c08301856153f9565b8260e08301529998505050505050505050565b60208082526031908201527f4552433732313a207472616e736665722063616c6c6572206973206e6f74206f6040820152701ddb995c881b9bdc88185c1c1c9bdd9959607a1b606082015260800190565b60608152600061565f6060830186614892565b8054600090600181811c908083168061579257607f831692505b60208084108214156157b457634e487b7160e01b600052602260045260246000fd5b8180156157c857600181146157d957615806565b60ff19861689528489019650615806565b60008881526020902060005b868110156157fe5781548b8201529085019083016157e5565b505084890196505b50505050505092915050565b6000612c016158218386615778565b84615778565b8381526060602082015260006158406060830185614892565b905060018060a01b0383166040830152949350505050565b674b616c6569646f5f60c01b81526000825161587b816008850160208701614866565b9190910160080192915050565b604081526000614c41604083018561541b565b600060208083850312156158ae57600080fd5b82516001600160401b03808211156158c557600080fd5b818501915085601f8301126158d957600080fd5b81516158e7614a138261552b565b81815260059190911b8301840190848101908883111561590657600080fd5b8585015b8381101561599c578051858111156159225760008081fd5b86016080818c03601f190181131561593a5760008081fd5b61594261498c565b898301518152604080840151615957816148ea565b828c01526060848101518284015292840151928984111561597a57600091508182fd5b6159888f8d868801016150fc565b90830152508552505091860191860161590a565b5098975050505050505050565b600080604083850312156159bc57600080fd5b82516159c7816148ea565b6020939093015192949293505050565b60208082526032908201527f4552433732313a207472616e7366657220746f206e6f6e20455243373231526560408201527131b2b4bb32b91034b6b83632b6b2b73a32b960711b606082015260800190565b6001600160a01b0385811682528416602082015260408101839052608060608201819052600090615a5c90830184614892565b9695505050505050565b600060208284031215615a7857600080fd5b815161234281614833565b634e487b7160e01b600052603160045260246000fdfeddf252ad1be2c89b69c2b068fc378daa952ba7f163c4a11628f55a4df523b3efa2646970667358221220aa15a61ac09115658b129487e19c9ed6e377c1c491c3658bf64d911ba0235c2264736f6c63430008090033",
  "libraries": {
    "Ad": "0x9F397D94EC32D43EeC60dCF9A38a44322D54d42A",
    "Purchase": "0xA5DD71afe7c4a1e123f3aF11624642F39A67e06A"
  },
  "devdoc": {
    "author": "Shumpei Koike - <shumpei.koike@bridges.inc>",
    "kind": "dev",
    "methods": {
      "acceptOffer(uint256,string)": {
        "details": "Accepts an offer by the Media.",
        "params": {
          "tokenId": "uint256 of the token ID",
          "tokenMetadata": "string of the NFT token metadata"
        }
      },
      "acceptProposal(uint256)": {
        "details": "Accepts the proposal.",
        "params": {
          "tokenId": "uint256 of the token ID"
        }
      },
      "adId(string,uint256,uint256)": {
        "details": "Returns ID based on the space metadata, display start timestamp, and      display end timestamp. These three makes it the unique.",
        "params": {
          "displayEndTimestamp": "uint256 of the end timestamp for the display",
          "displayStartTimestamp": "uint256 of the start timestamp for the display",
          "spaceMetadata": "uint256 of the space metadata"
        }
      },
      "adPoolAddress()": {
        "details": "Gets the address of AdPool."
      },
      "approve(address,uint256)": {
        "details": "See {IERC721-approve}."
      },
      "balance()": {
        "details": "Returns the balacne deposited on the proxy contract."
      },
      "balanceOf(address)": {
        "details": "See {IERC721-balanceOf}."
      },
      "bid(uint256)": {
        "details": "Bids to participate in an auction.      It is defined as an English Auction.",
        "params": {
          "tokenId": "uint256 of the token ID"
        }
      },
      "bidWithProposal(uint256,string)": {
        "details": "Bids to participate in an auction.      It is defined as an Open Bid.",
        "params": {
          "proposalMetadata": "string of the metadata hash",
          "tokenId": "uint256 of the token ID"
        }
      },
      "buy(uint256)": {
        "details": "Buys the token that is defined as the specific period on an ad space.      The price of the token is fixed.",
        "params": {
          "tokenId": "uint256 of the token ID"
        }
      },
      "buyBasedOnTime(uint256)": {
        "details": "Buys the token that is defined as the specific period on an ad space.      The price is decreasing as time goes by, that is defined as an Dutch Auction.",
        "params": {
          "tokenId": "uint256 of the token ID"
        }
      },
      "cancelOffer(uint256)": {
        "details": "Cancels an offer.",
        "params": {
          "tokenId": "uint256 of the token ID"
        }
      },
      "currentPrice(uint256)": {
        "details": "Returns the current price.",
        "params": {
          "tokenId": "uint256 of the token ID"
        }
      },
      "deletePeriod(uint256)": {
        "details": "Deletes a period and its token.      If there is any users locking the fund for the sale, the amount would be transfered      to the user when deleting the period.",
        "params": {
          "tokenId": "uint256 of the token ID"
        }
      },
      "denyProposal(uint256,string,bool)": {
        "details": "Denies the submitted proposal, mentioning what is the problem.",
        "params": {
          "offensive": "bool if the content would offend somebody",
          "reason": "string of the reason why it is rejected",
          "tokenId": "uint256 of the token ID"
        }
      },
      "display(string)": {
        "details": "Displays the ad content that is approved by the media owner.",
        "params": {
          "spaceMetadata": "string of the space metadata"
        }
      },
      "englishAuctionAddress()": {
        "details": "Gets the address of EnglishAuction."
      },
      "eventEmitterAddress()": {
        "details": "Gets the address of EventEmitter."
      },
      "getApproved(uint256)": {
        "details": "See {IERC721-getApproved}."
      },
      "initialize(string,string,string,address,address)": {
        "details": "Initialize the instance.",
        "params": {
          "baseURI": "string of the base URI",
          "mediaEOA": "address of the media owner",
          "nameRegistry": "address of NameRegistry",
          "title": "string of the title of the instance",
          "tokenMetadata": "string of the token metadata"
        }
      },
      "isApprovedForAll(address,address)": {
        "details": "See {IERC721-isApprovedForAll}."
      },
      "mediaFactoryAddress()": {
        "details": "Gets the address of MediaFactory."
      },
      "mediaRegistryAddress()": {
        "details": "Gets the address of MediaRegistry."
      },
      "name()": {
        "details": "See {IERC721Metadata-name}."
      },
      "nameRegistryAddress()": {
        "details": "Gets the address of NameRegistry"
      },
      "newPeriod(string,string,uint256,uint256,uint256,uint8,uint256)": {
        "details": "Create a new period for a space. This function requires some params      to decide which kinds of pricing way and how much price to get started.",
        "params": {
          "displayEndTimestamp": "uint256 of the end timestamp for the display",
          "displayStartTimestamp": "uint256 of the start timestamp for the display",
          "minPrice": "uint256 of the minimum price to sell it out",
          "pricing": "uint256 of the pricing way",
          "saleEndTimestamp": "uint256 of the end timestamp for the sale",
          "spaceMetadata": "string of the space metadata",
          "tokenMetadata": "string of the token metadata"
        }
      },
      "newSpace(string)": {
        "details": "Creates a new space for the media account.",
        "params": {
          "spaceMetadata": "string of the space metadata"
        }
      },
      "offerBidAddress()": {
        "details": "Gets the address of OfferBid."
      },
      "offerPeriod(string,uint256,uint256)": {
        "details": "Offers to buy a period that the sender requests.",
        "params": {
          "displayEndTimestamp": "uint256 of the end timestamp for the display",
          "displayStartTimestamp": "uint256 of the start timestamp for the display",
          "spaceMetadata": "string of the space metadata"
        }
      },
      "openBidAddress()": {
        "details": "Gets the address of OpenBid."
      },
      "owner()": {
        "details": "Gets the owner address."
      },
      "ownerOf(uint256)": {
        "details": "See {IERC721-ownerOf}."
      },
      "proposalReviewAddress()": {
        "details": "Gets the address of ProposalReview."
      },
      "propose(uint256,string)": {
        "details": "Proposes the metadata to the token you bought.      Users can propose many times as long as it is accepted.",
        "params": {
          "metadata": "string of the proposal metadata",
          "tokenId": "uint256 of the token ID"
        }
      },
      "pushToSuccessfulBidder(uint256)": {
        "details": "Receives the token you bidded if you are the successful bidder.",
        "params": {
          "tokenId": "uint256 of the token ID"
        }
      },
      "receiveToken(uint256)": {
        "details": "Receives the token you bidded if you are the successful bidder.",
        "params": {
          "tokenId": "uint256 of the token ID"
        }
      },
      "safeTransferFrom(address,address,uint256)": {
        "details": "Overrides transferFrom to emit an event from the common emitter."
      },
      "safeTransferFrom(address,address,uint256,bytes)": {
        "details": "See {IERC721-safeTransferFrom}."
      },
      "selectProposal(uint256,uint256)": {
        "details": "Selects the best proposal bidded with.",
        "params": {
          "index": "uint256 of the index number",
          "tokenId": "uint256 of the token ID"
        }
      },
      "setApprovalForAll(address,bool)": {
        "details": "See {IERC721-setApprovalForAll}."
      },
      "supportsInterface(bytes4)": {
        "details": "See {IERC165-supportsInterface}."
      },
      "symbol()": {
        "details": "See {IERC721Metadata-symbol}."
      },
      "tokenByIndex(uint256)": {
        "details": "See {IERC721Enumerable-tokenByIndex}."
      },
      "tokenOfOwnerByIndex(address,uint256)": {
        "details": "See {IERC721Enumerable-tokenOfOwnerByIndex}."
      },
      "tokenURI(uint256)": {
        "details": "See {IERC721Metadata-tokenURI}."
      },
      "totalSupply()": {
        "details": "See {IERC721Enumerable-totalSupply}."
      },
      "transferFrom(address,address,uint256)": {
        "details": "Overrides transferFrom to emit an event from the common emitter."
      },
      "updateMedia(address,string)": {
        "details": "Updates the media EOA and the metadata.",
        "params": {
          "newMediaEOA": "address of a new EOA",
          "newMetadata": "string of a new metadata"
        }
      },
      "vaultAddress()": {
        "details": "Gets the address of Vault."
      },
      "withdraw()": {
        "details": "Withdraws the fund deposited to the proxy contract.      If you put 0 as the amount, you can withdraw as much as possible."
      },
      "withdrawalAmount()": {
        "details": "Returns the withdrawal amount."
      }
    },
    "title": "MediaFacade - manages ad spaces and its periods to sell them to users.",
    "version": 1
  },
  "userdoc": {
    "kind": "user",
    "methods": {},
    "version": 1
  },
  "storageLayout": {
    "storage": [
      {
        "astId": 2742,
        "contract": "contracts/MediaFacade.sol:MediaFacade",
        "label": "_name",
        "offset": 0,
        "slot": "0",
        "type": "t_string_storage"
      },
      {
        "astId": 2744,
        "contract": "contracts/MediaFacade.sol:MediaFacade",
        "label": "_symbol",
        "offset": 0,
        "slot": "1",
        "type": "t_string_storage"
      },
      {
        "astId": 2746,
        "contract": "contracts/MediaFacade.sol:MediaFacade",
        "label": "_baseURI",
        "offset": 0,
        "slot": "2",
        "type": "t_string_storage"
      },
      {
        "astId": 2750,
        "contract": "contracts/MediaFacade.sol:MediaFacade",
        "label": "_tokenURIs",
        "offset": 0,
        "slot": "3",
        "type": "t_mapping(t_uint256,t_string_storage)"
      },
      {
        "astId": 2754,
        "contract": "contracts/MediaFacade.sol:MediaFacade",
        "label": "_owners",
        "offset": 0,
        "slot": "4",
        "type": "t_mapping(t_uint256,t_address)"
      },
      {
        "astId": 2758,
        "contract": "contracts/MediaFacade.sol:MediaFacade",
        "label": "_balances",
        "offset": 0,
        "slot": "5",
        "type": "t_mapping(t_address,t_uint256)"
      },
      {
        "astId": 2762,
        "contract": "contracts/MediaFacade.sol:MediaFacade",
        "label": "_tokenApprovals",
        "offset": 0,
        "slot": "6",
        "type": "t_mapping(t_uint256,t_address)"
      },
      {
        "astId": 2768,
        "contract": "contracts/MediaFacade.sol:MediaFacade",
        "label": "_operatorApprovals",
        "offset": 0,
        "slot": "7",
        "type": "t_mapping(t_address,t_mapping(t_address,t_bool))"
      },
      {
        "astId": 2774,
        "contract": "contracts/MediaFacade.sol:MediaFacade",
        "label": "_ownedTokens",
        "offset": 0,
        "slot": "8",
        "type": "t_mapping(t_address,t_mapping(t_uint256,t_uint256))"
      },
      {
        "astId": 2778,
        "contract": "contracts/MediaFacade.sol:MediaFacade",
        "label": "_ownedTokensIndex",
        "offset": 0,
        "slot": "9",
        "type": "t_mapping(t_uint256,t_uint256)"
      },
      {
        "astId": 2781,
        "contract": "contracts/MediaFacade.sol:MediaFacade",
        "label": "_allTokens",
        "offset": 0,
        "slot": "10",
        "type": "t_array(t_uint256)dyn_storage"
      },
      {
        "astId": 2785,
        "contract": "contracts/MediaFacade.sol:MediaFacade",
        "label": "_allTokensIndex",
        "offset": 0,
        "slot": "11",
        "type": "t_mapping(t_uint256,t_uint256)"
      },
      {
        "astId": 114,
        "contract": "contracts/MediaFacade.sol:MediaFacade",
        "label": "_status",
        "offset": 0,
        "slot": "12",
        "type": "t_uint256"
      },
      {
        "astId": 2345,
        "contract": "contracts/MediaFacade.sol:MediaFacade",
        "label": "_nameRegistry",
        "offset": 0,
        "slot": "13",
        "type": "t_contract(INameRegistry)4466"
      },
      {
        "astId": 3786,
        "contract": "contracts/MediaFacade.sol:MediaFacade",
        "label": "_processingTotal",
        "offset": 0,
        "slot": "14",
        "type": "t_uint256"
      }
    ],
    "types": {
      "t_address": {
        "encoding": "inplace",
        "label": "address",
        "numberOfBytes": "20"
      },
      "t_array(t_uint256)dyn_storage": {
        "base": "t_uint256",
        "encoding": "dynamic_array",
        "label": "uint256[]",
        "numberOfBytes": "32"
      },
      "t_bool": {
        "encoding": "inplace",
        "label": "bool",
        "numberOfBytes": "1"
      },
      "t_contract(INameRegistry)4466": {
        "encoding": "inplace",
        "label": "contract INameRegistry",
        "numberOfBytes": "20"
      },
      "t_mapping(t_address,t_bool)": {
        "encoding": "mapping",
        "key": "t_address",
        "label": "mapping(address => bool)",
        "numberOfBytes": "32",
        "value": "t_bool"
      },
      "t_mapping(t_address,t_mapping(t_address,t_bool))": {
        "encoding": "mapping",
        "key": "t_address",
        "label": "mapping(address => mapping(address => bool))",
        "numberOfBytes": "32",
        "value": "t_mapping(t_address,t_bool)"
      },
      "t_mapping(t_address,t_mapping(t_uint256,t_uint256))": {
        "encoding": "mapping",
        "key": "t_address",
        "label": "mapping(address => mapping(uint256 => uint256))",
        "numberOfBytes": "32",
        "value": "t_mapping(t_uint256,t_uint256)"
      },
      "t_mapping(t_address,t_uint256)": {
        "encoding": "mapping",
        "key": "t_address",
        "label": "mapping(address => uint256)",
        "numberOfBytes": "32",
        "value": "t_uint256"
      },
      "t_mapping(t_uint256,t_address)": {
        "encoding": "mapping",
        "key": "t_uint256",
        "label": "mapping(uint256 => address)",
        "numberOfBytes": "32",
        "value": "t_address"
      },
      "t_mapping(t_uint256,t_string_storage)": {
        "encoding": "mapping",
        "key": "t_uint256",
        "label": "mapping(uint256 => string)",
        "numberOfBytes": "32",
        "value": "t_string_storage"
      },
      "t_mapping(t_uint256,t_uint256)": {
        "encoding": "mapping",
        "key": "t_uint256",
        "label": "mapping(uint256 => uint256)",
        "numberOfBytes": "32",
        "value": "t_uint256"
      },
      "t_string_storage": {
        "encoding": "bytes",
        "label": "string",
        "numberOfBytes": "32"
      },
      "t_uint256": {
        "encoding": "inplace",
        "label": "uint256",
        "numberOfBytes": "32"
      }
    }
  }
}