{
  "address": "0x3De0f3A753Af3c8ae3614C3396f152F2d68e538F",
  "abi": [
    {
      "inputs": [
        {
          "internalType": "address",
          "name": "nameRegistry",
          "type": "address"
        }
      ],
      "stateMutability": "nonpayable",
      "type": "constructor"
    },
    {
      "anonymous": false,
      "inputs": [
        {
          "indexed": false,
          "internalType": "uint256",
          "name": "postId",
          "type": "uint256"
        },
        {
          "indexed": false,
          "internalType": "uint256",
          "name": "bidId",
          "type": "uint256"
        }
      ],
      "name": "Accept",
      "type": "event"
    },
    {
      "anonymous": false,
      "inputs": [
        {
          "indexed": false,
          "internalType": "uint256",
          "name": "bidId",
          "type": "uint256"
        },
        {
          "indexed": false,
          "internalType": "uint256",
          "name": "postId",
          "type": "uint256"
        },
        {
          "indexed": false,
          "internalType": "address",
          "name": "sender",
          "type": "address"
        },
        {
          "indexed": false,
          "internalType": "uint256",
          "name": "price",
          "type": "uint256"
        },
        {
          "indexed": false,
          "internalType": "string",
          "name": "metadata",
          "type": "string"
        },
        {
          "indexed": false,
          "internalType": "string",
          "name": "originalLink",
          "type": "string"
        }
      ],
      "name": "Bid",
      "type": "event"
    },
    {
      "anonymous": false,
      "inputs": [
        {
          "indexed": false,
          "internalType": "uint256",
          "name": "bidId",
          "type": "uint256"
        },
        {
          "indexed": false,
          "internalType": "uint256",
          "name": "postId",
          "type": "uint256"
        },
        {
          "indexed": false,
          "internalType": "address",
          "name": "sender",
          "type": "address"
        },
        {
          "indexed": false,
          "internalType": "uint256",
          "name": "price",
          "type": "uint256"
        }
      ],
      "name": "Call",
      "type": "event"
    },
    {
      "anonymous": false,
      "inputs": [
        {
          "indexed": false,
          "internalType": "uint256",
          "name": "bitId",
          "type": "uint256"
        },
        {
          "indexed": false,
          "internalType": "uint256",
          "name": "postId",
          "type": "uint256"
        },
        {
          "indexed": false,
          "internalType": "address",
          "name": "successfulBidder",
          "type": "address"
        },
        {
          "indexed": false,
          "internalType": "uint256",
          "name": "price",
          "type": "uint256"
        },
        {
          "indexed": false,
          "internalType": "string",
          "name": "metadata",
          "type": "string"
        }
      ],
      "name": "Close",
      "type": "event"
    },
    {
      "anonymous": false,
      "inputs": [
        {
          "indexed": false,
          "internalType": "uint256",
          "name": "bidId",
          "type": "uint256"
        },
        {
          "indexed": false,
          "internalType": "uint256",
          "name": "postId",
          "type": "uint256"
        }
      ],
      "name": "Deny",
      "type": "event"
    },
    {
      "anonymous": false,
      "inputs": [
        {
          "indexed": false,
          "internalType": "uint256",
          "name": "postId",
          "type": "uint256"
        },
        {
          "indexed": false,
          "internalType": "address",
          "name": "owner",
          "type": "address"
        },
        {
          "indexed": false,
          "internalType": "string",
          "name": "metadata",
          "type": "string"
        },
        {
          "indexed": false,
          "internalType": "uint256",
          "name": "width",
          "type": "uint256"
        },
        {
          "indexed": false,
          "internalType": "uint256",
          "name": "height",
          "type": "uint256"
        },
        {
          "indexed": false,
          "internalType": "uint256",
          "name": "fromTimestamp",
          "type": "uint256"
        },
        {
          "indexed": false,
          "internalType": "uint256",
          "name": "toTimestamp",
          "type": "uint256"
        }
      ],
      "name": "NewPost",
      "type": "event"
    },
    {
      "anonymous": false,
      "inputs": [
        {
          "indexed": false,
          "internalType": "uint256",
          "name": "bidId",
          "type": "uint256"
        },
        {
          "indexed": false,
          "internalType": "uint256",
          "name": "postId",
          "type": "uint256"
        },
        {
          "indexed": false,
          "internalType": "string",
          "name": "metadata",
          "type": "string"
        },
        {
          "indexed": false,
          "internalType": "string",
          "name": "originalLink",
          "type": "string"
        }
      ],
      "name": "Propose",
      "type": "event"
    },
    {
      "anonymous": false,
      "inputs": [
        {
          "indexed": false,
          "internalType": "uint256",
          "name": "postId",
          "type": "uint256"
        },
        {
          "indexed": false,
          "internalType": "uint256",
          "name": "fromBidId",
          "type": "uint256"
        },
        {
          "indexed": false,
          "internalType": "uint256",
          "name": "toBidId",
          "type": "uint256"
        }
      ],
      "name": "Recall",
      "type": "event"
    },
    {
      "anonymous": false,
      "inputs": [
        {
          "indexed": false,
          "internalType": "uint256",
          "name": "bitId",
          "type": "uint256"
        },
        {
          "indexed": false,
          "internalType": "uint256",
          "name": "postId",
          "type": "uint256"
        },
        {
          "indexed": false,
          "internalType": "address",
          "name": "sender",
          "type": "address"
        },
        {
          "indexed": false,
          "internalType": "uint256",
          "name": "price",
          "type": "uint256"
        }
      ],
      "name": "Refund",
      "type": "event"
    },
    {
      "anonymous": false,
      "inputs": [
        {
          "indexed": false,
          "internalType": "uint256",
          "name": "postId",
          "type": "uint256"
        },
        {
          "indexed": false,
          "internalType": "string",
          "name": "metadata",
          "type": "string"
        }
      ],
      "name": "UpdateMetadata",
      "type": "event"
    },
    {
      "inputs": [
        {
          "internalType": "uint256",
          "name": "postId",
          "type": "uint256"
        },
        {
          "internalType": "string",
          "name": "metadata",
          "type": "string"
        },
        {
          "internalType": "string",
          "name": "originalLink",
          "type": "string"
        }
      ],
      "name": "_bid",
      "outputs": [],
      "stateMutability": "payable",
      "type": "function"
    },
    {
      "inputs": [
        {
          "internalType": "uint256",
          "name": "postId",
          "type": "uint256"
        }
      ],
      "name": "accept",
      "outputs": [],
      "stateMutability": "nonpayable",
      "type": "function"
    },
    {
      "inputs": [],
      "name": "adPoolAddress",
      "outputs": [
        {
          "internalType": "address",
          "name": "",
          "type": "address"
        }
      ],
      "stateMutability": "view",
      "type": "function"
    },
    {
      "inputs": [
        {
          "internalType": "uint256",
          "name": "",
          "type": "uint256"
        }
      ],
      "name": "allPosts",
      "outputs": [
        {
          "internalType": "uint256",
          "name": "postId",
          "type": "uint256"
        },
        {
          "internalType": "address",
          "name": "owner",
          "type": "address"
        },
        {
          "internalType": "string",
          "name": "metadata",
          "type": "string"
        },
        {
          "internalType": "uint256",
          "name": "width",
          "type": "uint256"
        },
        {
          "internalType": "uint256",
          "name": "height",
          "type": "uint256"
        },
        {
          "internalType": "uint256",
          "name": "fromTimestamp",
          "type": "uint256"
        },
        {
          "internalType": "uint256",
          "name": "toTimestamp",
          "type": "uint256"
        },
        {
          "internalType": "uint256",
          "name": "successfulBidId",
          "type": "uint256"
        }
      ],
      "stateMutability": "view",
      "type": "function"
    },
    {
      "inputs": [
        {
          "internalType": "uint256",
          "name": "postId",
          "type": "uint256"
        },
        {
          "internalType": "string",
          "name": "metadata",
          "type": "string"
        },
        {
          "internalType": "string",
          "name": "originalLink",
          "type": "string"
        }
      ],
      "name": "bid",
      "outputs": [],
      "stateMutability": "payable",
      "type": "function"
    },
    {
      "inputs": [
        {
          "internalType": "uint256",
          "name": "",
          "type": "uint256"
        }
      ],
      "name": "bidderInfo",
      "outputs": [
        {
          "internalType": "uint256",
          "name": "bidId",
          "type": "uint256"
        },
        {
          "internalType": "uint256",
          "name": "postId",
          "type": "uint256"
        },
        {
          "internalType": "address",
          "name": "sender",
          "type": "address"
        },
        {
          "internalType": "uint256",
          "name": "price",
          "type": "uint256"
        },
        {
          "internalType": "string",
          "name": "metadata",
          "type": "string"
        },
        {
          "internalType": "string",
          "name": "originalLink",
          "type": "string"
        },
        {
          "internalType": "enum AdManager.DraftStatus",
          "name": "status",
          "type": "uint8"
        }
      ],
      "stateMutability": "view",
      "type": "function"
    },
    {
      "inputs": [
        {
          "internalType": "uint256",
          "name": "postId",
          "type": "uint256"
        }
      ],
      "name": "bidderList",
      "outputs": [
        {
          "internalType": "uint256[]",
          "name": "",
          "type": "uint256[]"
        }
      ],
      "stateMutability": "view",
      "type": "function"
    },
    {
      "inputs": [
        {
          "internalType": "uint256",
          "name": "",
          "type": "uint256"
        },
        {
          "internalType": "uint256",
          "name": "",
          "type": "uint256"
        }
      ],
      "name": "bidders",
      "outputs": [
        {
          "internalType": "uint256",
          "name": "",
          "type": "uint256"
        }
      ],
      "stateMutability": "view",
      "type": "function"
    },
    {
      "inputs": [
        {
          "internalType": "uint256",
          "name": "bidId",
          "type": "uint256"
        }
      ],
      "name": "call",
      "outputs": [],
      "stateMutability": "nonpayable",
      "type": "function"
    },
    {
      "inputs": [
        {
          "internalType": "uint256",
          "name": "bidId",
          "type": "uint256"
        }
      ],
      "name": "close",
      "outputs": [],
      "stateMutability": "nonpayable",
      "type": "function"
    },
    {
      "inputs": [
        {
          "internalType": "uint256",
          "name": "postId",
          "type": "uint256"
        }
      ],
      "name": "deny",
      "outputs": [],
      "stateMutability": "nonpayable",
      "type": "function"
    },
    {
      "inputs": [
        {
          "internalType": "address",
          "name": "account",
          "type": "address"
        },
        {
          "internalType": "uint256",
          "name": "fromPostIdIndex",
          "type": "uint256"
        },
        {
          "internalType": "uint256",
          "name": "toPostIdIndex",
          "type": "uint256"
        }
      ],
      "name": "display",
      "outputs": [
        {
          "internalType": "string",
          "name": "",
          "type": "string"
        }
      ],
      "stateMutability": "view",
      "type": "function"
    },
    {
      "inputs": [],
      "name": "distributionRightAddress",
      "outputs": [
        {
          "internalType": "address",
          "name": "",
          "type": "address"
        }
      ],
      "stateMutability": "view",
      "type": "function"
    },
    {
      "inputs": [],
      "name": "nameRegistryAddress",
      "outputs": [
        {
          "internalType": "address",
          "name": "",
          "type": "address"
        }
      ],
      "stateMutability": "view",
      "type": "function"
    },
    {
      "inputs": [
        {
          "internalType": "string",
          "name": "metadata",
          "type": "string"
        },
        {
          "internalType": "uint256",
          "name": "width",
          "type": "uint256"
        },
        {
          "internalType": "uint256",
          "name": "height",
          "type": "uint256"
        },
        {
          "internalType": "uint256",
          "name": "fromTimestamp",
          "type": "uint256"
        },
        {
          "internalType": "uint256",
          "name": "toTimestamp",
          "type": "uint256"
        }
      ],
      "name": "newPost",
      "outputs": [],
      "stateMutability": "nonpayable",
      "type": "function"
    },
    {
      "inputs": [],
      "name": "nextBidId",
      "outputs": [
        {
          "internalType": "uint256",
          "name": "",
          "type": "uint256"
        }
      ],
      "stateMutability": "view",
      "type": "function"
    },
    {
      "inputs": [],
      "name": "nextPostId",
      "outputs": [
        {
          "internalType": "uint256",
          "name": "",
          "type": "uint256"
        }
      ],
      "stateMutability": "view",
      "type": "function"
    },
    {
      "inputs": [],
      "name": "owner",
      "outputs": [
        {
          "internalType": "address",
          "name": "",
          "type": "address"
        }
      ],
      "stateMutability": "view",
      "type": "function"
    },
    {
      "inputs": [
        {
          "internalType": "uint256",
          "name": "postId",
          "type": "uint256"
        },
        {
          "internalType": "string",
          "name": "metadata",
          "type": "string"
        },
        {
          "internalType": "string",
          "name": "originalLink",
          "type": "string"
        }
      ],
      "name": "propose",
      "outputs": [],
      "stateMutability": "nonpayable",
      "type": "function"
    },
    {
      "inputs": [
        {
          "internalType": "uint256",
          "name": "postId",
          "type": "uint256"
        },
        {
          "internalType": "uint256",
          "name": "toBidId",
          "type": "uint256"
        }
      ],
      "name": "recall",
      "outputs": [],
      "stateMutability": "nonpayable",
      "type": "function"
    },
    {
      "inputs": [
        {
          "internalType": "uint256",
          "name": "bidId",
          "type": "uint256"
        }
      ],
      "name": "refund",
      "outputs": [],
      "stateMutability": "nonpayable",
      "type": "function"
    },
    {
      "inputs": [
        {
          "internalType": "uint256",
          "name": "postId",
          "type": "uint256"
        }
      ],
      "name": "reserve",
      "outputs": [],
      "stateMutability": "payable",
      "type": "function"
    },
    {
      "inputs": [
        {
          "internalType": "uint256",
          "name": "",
          "type": "uint256"
        }
      ],
      "name": "reservedBidIds",
      "outputs": [
        {
          "internalType": "uint256",
          "name": "",
          "type": "uint256"
        }
      ],
      "stateMutability": "view",
      "type": "function"
    },
    {
      "inputs": [],
      "name": "reservedRightAddress",
      "outputs": [
        {
          "internalType": "address",
          "name": "",
          "type": "address"
        }
      ],
      "stateMutability": "view",
      "type": "function"
    },
    {
      "inputs": [
        {
          "internalType": "uint256",
          "name": "postId",
          "type": "uint256"
        },
        {
          "internalType": "string",
          "name": "metadata",
          "type": "string"
        }
      ],
      "name": "updateMetadata",
      "outputs": [],
      "stateMutability": "nonpayable",
      "type": "function"
    },
    {
      "inputs": [],
      "name": "vaultAddress",
      "outputs": [
        {
          "internalType": "address",
          "name": "",
          "type": "address"
        }
      ],
      "stateMutability": "view",
      "type": "function"
    }
  ],
  "transactionHash": "0x4412eeef4da989b0d4732d6371da8d4db0f200c2b22be373ec1494e96934e34e",
  "args": [
    "0x83b8cD9BC87a5f910fc73646c0Fa623D4d3d7f3D"
  ],
  "solcInputHash": "ff16b92df4b4266ae2cae48cfd1b9199",
  "bytecode": "0x6001600581905560065560c0604052601360808190527f68747470733a2f2f6b616c6569646f2e696f2f0000000000000000000000000060a09081526200004a9160079190620000a1565b503480156200005857600080fd5b5060405162002b3338038062002b338339810160408190526200007b9162000147565b600080546001600160a01b0319166001600160a01b0392909216919091179055620001b6565b828054620000af9062000179565b90600052602060002090601f016020900481019282620000d357600085556200011e565b82601f10620000ee57805160ff19168380011785556200011e565b828001600101855582156200011e579182015b828111156200011e57825182559160200191906001019062000101565b506200012c92915062000130565b5090565b5b808211156200012c576000815560010162000131565b6000602082840312156200015a57600080fd5b81516001600160a01b03811681146200017257600080fd5b9392505050565b600181811c908216806200018e57607f821691505b60208210811415620001b057634e487b7160e01b600052602260045260246000fd5b50919050565b61296d80620001c66000396000f3fe6080604052600436106101a15760003560e01c8063718ce2bc116100e1578063cd9596241161008a578063dc26904911610064578063dc26904914610484578063de55cd151461049a578063e3945bfd146104ad578063fefdc5d1146104cd57600080fd5b8063cd95962414610424578063d1c1120514610437578063d3584e841461045757600080fd5b80638da5cb5b116100bb5780638da5cb5b146103e5578063ac6919a5146103fa578063c9cd71b51461040f57600080fd5b8063718ce2bc1461037e5780637eaf8578146103b2578063819b25ba146103d257600080fd5b80632b0969261161014e57806353c8388e1161012857806353c8388e146102fb57806356f662821461031b5780635c09bd981461033b578063694d42001461035157600080fd5b80632b0969261461028b578063313c8d4b146102ab578063430bf08a146102e657600080fd5b8063278ecde11161017f578063278ecde11461022457806327b7a2f51461024457806329a594b51461027657600080fd5b80630aebeb4e146101a65780630d5daf3b146101c857806319b05f4914610204575b600080fd5b3480156101b257600080fd5b506101c66101c13660046124a6565b6104ed565b005b3480156101d457600080fd5b506101e86101e33660046124a6565b6108d7565b6040516101fb979695949392919061279f565b60405180910390f35b34801561021057600080fd5b506101c661021f3660046124a6565b610a31565b34801561023057600080fd5b506101c661023f3660046124a6565b610c15565b34801561025057600080fd5b506000546001600160a01b03165b6040516001600160a01b0390911681526020016101fb565b34801561028257600080fd5b5061025e610d2e565b34801561029757600080fd5b506101c66102a63660046124a6565b610dfa565b3480156102b757600080fd5b506102d86102c63660046124a6565b60036020526000908152604090205481565b6040519081526020016101fb565b3480156102f257600080fd5b5061025e611194565b34801561030757600080fd5b506101c66103163660046124bf565b6111db565b34801561032757600080fd5b506101c66103363660046124a6565b611213565b34801561034757600080fd5b506102d860055481565b34801561035d57600080fd5b5061037161036c366004612414565b6112ea565b6040516101fb9190612657565b34801561038a57600080fd5b5061039e6103993660046124a6565b611468565b6040516101fb9897969594939291906126b8565b3480156103be57600080fd5b506101c66103cd366004612506565b61153c565b6101c66103e03660046124a6565b611648565b3480156103f157600080fd5b5061025e6116bb565b34801561040657600080fd5b5061025e61170a565b34801561041b57600080fd5b5061025e611751565b6101c6610432366004612506565b611798565b34801561044357600080fd5b506102d8610452366004612573565b6117ef565b34801561046357600080fd5b506104776104723660046124a6565b611820565b6040516101fb9190612613565b34801561049057600080fd5b506102d860065481565b6101c66104a8366004612506565b611882565b3480156104b957600080fd5b506101c66104c8366004612449565b6119ee565b3480156104d957600080fd5b506101c66104e8366004612573565b611c4c565b6000818152600460208181526040808420815160e0810183528154815260018201549381019390935260028101546001600160a01b03169183019190915260038101546060830152918201805491929160808401919061054c9061288a565b80601f01602080910402602001604051908101604052809291908181526020018280546105789061288a565b80156105c55780601f1061059a576101008083540402835291602001916105c5565b820191906000526020600020905b8154815290600101906020018083116105a857829003601f168201915b505050505081526020016005820180546105de9061288a565b80601f016020809104026020016040519081016040528092919081815260200182805461060a9061288a565b80156106575780601f1061062c57610100808354040283529160200191610657565b820191906000526020600020905b81548152906001019060200180831161063a57829003601f168201915b5050509183525050600682015460209091019060ff16600581111561067e5761067e6128f6565b600581111561068f5761068f6128f6565b90525080519091506106d05760405162461bcd60e51b8152602060048201526005602482015264414431303360d81b60448201526064015b60405180910390fd5b60208082015160009081526001918290526040902001546001600160a01b031633146107265760405162461bcd60e51b815260206004820152600560248201526420a218981960d91b60448201526064016106c7565b6020818101516000908152600190915260409020600701829055600460c0820152606081015133906108fc90600a9061076090600961286b565b61076a9190612849565b6040518115909202916000818181858888f19350505050158015610792573d6000803e3d6000fd5b5061079b61225d565b6001600160a01b03166108fc600a836060015160016107ba919061286b565b6107c49190612849565b6040518115909202916000818181858888f193505050501580156107ec573d6000803e3d6000fd5b506107f5612267565b604080830151602084015191517f8e9e614e0000000000000000000000000000000000000000000000000000000081523360048201526001600160a01b03918216602482015260448101929092529190911690638e9e614e90606401600060405180830381600087803b15801561086b57600080fd5b505af115801561087f573d6000803e3d6000fd5b5050825160208401516040808601516060870151608088015192517ff763d6ab2a4f1accf9c4fca103d30b90f90db83afeaad6b67481601184b1690d97506108cb96509192909161270d565b60405180910390a15050565b600460208190526000918252604090912080546001820154600283015460038401549484018054939592946001600160a01b03909216936109179061288a565b80601f01602080910402602001604051908101604052809291908181526020018280546109439061288a565b80156109905780601f1061096557610100808354040283529160200191610990565b820191906000526020600020905b81548152906001019060200180831161097357829003601f168201915b5050505050908060050180546109a59061288a565b80601f01602080910402602001604051908101604052809291908181526020018280546109d19061288a565b8015610a1e5780601f106109f357610100808354040283529160200191610a1e565b820191906000526020600020905b815481529060010190602001808311610a0157829003601f168201915b5050506006909301549192505060ff1687565b600081815260016020819052604090912001546001600160a01b03163314610a835760405162461bcd60e51b8152602060048201526005602482015264414431303560d81b60448201526064016106c7565b610a8b612267565b6001600160a01b0316638e9e614e610aa1611751565b6040517fffffffff0000000000000000000000000000000000000000000000000000000060e084901b1681526001600160a01b03909116600482015233602482015260448101849052606401600060405180830381600087803b158015610b0757600080fd5b505af1158015610b1b573d6000803e3d6000fd5b5050506000828152600360205260409020549050610b37612271565b60008281526004602081905260409182902060030154915163aa90b35f60e01b8152339181019190915260248101919091526001600160a01b03919091169063aa90b35f90604401600060405180830381600087803b158015610b9957600080fd5b505af1158015610bad573d6000803e3d6000fd5b5050506000828152600460208181526040808420600601805460ff1916909317909255858352600181529181902060070184905580518581529182018490527f66b40296db692bd2f393bda18cf3f9d917966186767279128a62afeb90e43b399250016108cb565b6000818152600460205260409020600201546001600160a01b03163314610c7e5760405162461bcd60e51b815260206004820152600560248201527f414431303400000000000000000000000000000000000000000000000000000060448201526064016106c7565b600081815260046020526040808220600301549051339282156108fc02929190818181858888f19350505050158015610cbb573d6000803e3d6000fd5b5060008181526004602090815260409182902060068101805460ff1916600517905560018101546003909101548351858152928301919091523382840152606082015290517f303a7a5ed564cf1b7e8ec302e0d290e0c69d9785d1e5d43db651d7995f0bc019916080908290030190a150565b600080546040517f526573657276656452696768740000000000000000000000000000000000000060208201526001600160a01b0390911690638eaa6ac090602d015b604051602081830303815290604052805190602001206040518263ffffffff1660e01b8152600401610da591815260200190565b60206040518083038186803b158015610dbd57600080fd5b505afa158015610dd1573d6000803e3d6000fd5b505050506040513d601f19601f82011682018060405250810190610df591906123f7565b905090565b6000818152600460208181526040808420815160e0810183528154815260018201549381019390935260028101546001600160a01b031691830191909152600381015460608301529182018054919291608084019190610e599061288a565b80601f0160208091040260200160405190810160405280929190818152602001828054610e859061288a565b8015610ed25780601f10610ea757610100808354040283529160200191610ed2565b820191906000526020600020905b815481529060010190602001808311610eb557829003601f168201915b50505050508152602001600582018054610eeb9061288a565b80601f0160208091040260200160405190810160405280929190818152602001828054610f179061288a565b8015610f645780601f10610f3957610100808354040283529160200191610f64565b820191906000526020600020905b815481529060010190602001808311610f4757829003601f168201915b5050509183525050600682015460209091019060ff166005811115610f8b57610f8b6128f6565b6005811115610f9c57610f9c6128f6565b9052508051909150610fd85760405162461bcd60e51b8152602060048201526005602482015264414431303360d81b60448201526064016106c7565b60208082015160009081526001918290526040902001546001600160a01b0316331461102e5760405162461bcd60e51b815260206004820152600560248201526420a218981960d91b60448201526064016106c7565b6020818101516000908152600390915260409020829055600160c0820152611054612267565b6001600160a01b0316638e9e614e3361106b611751565b60208501516040517fffffffff0000000000000000000000000000000000000000000000000000000060e086901b1681526001600160a01b0393841660048201529290911660248301526044820152606401600060405180830381600087803b1580156110d757600080fd5b505af11580156110eb573d6000803e3d6000fd5b505050506110f7611751565b6001600160a01b03166108fc82606001519081150290604051600060405180830381858888f19350505050158015611133573d6000803e3d6000fd5b507f70c21df4a109699ac5cbee04e25054d865a14a532529a731a11afcd25ed1914a828260200151836040015184606001516040516108cb949392919093845260208401929092526001600160a01b03166040830152606082015260800190565b600080546040517f5661756c7400000000000000000000000000000000000000000000000000000060208201526001600160a01b0390911690638eaa6ac090602501610d71565b600082815260036020908152604080832054808452600480845291909320845161120d9391909201919085019061227b565b50505050565b600081815260036020526040902054600260008281526004602052604090206006015460ff16600581111561124a5761124a6128f6565b146112975760405162461bcd60e51b815260206004820152600560248201527f414431303600000000000000000000000000000000000000000000000000000060448201526064016106c7565b600081815260046020908152604091829020600601805460ff1916600117905581518381529081018490527fb4f2cd71a07f3c432393e99783b21b73c1ccf8f528fd95885166c9f8a83669d691016108cb565b6060825b8281101561141857600081815260016020819052604090912001546001600160a01b038681169116148015611333575060008181526001602052604090206005015442115b801561134f575060008181526001602052604090206006015442105b156114065760008181526001602090815260408083206007015483526004918290529091200180546113809061288a565b80601f01602080910402602001604051908101604052809291908181526020018280546113ac9061288a565b80156113f95780601f106113ce576101008083540402835291602001916113f9565b820191906000526020600020905b8154815290600101906020018083116113dc57829003601f168201915b5050505050915050611461565b80611410816128c5565b9150506112ee565b5060405162461bcd60e51b815260206004820152600260248201527f414400000000000000000000000000000000000000000000000000000000000060448201526064016106c7565b9392505050565b60016020819052600091825260409091208054918101546002820180546001600160a01b03909216929161149b9061288a565b80601f01602080910402602001604051908101604052809291908181526020018280546114c79061288a565b80156115145780601f106114e957610100808354040283529160200191611514565b820191906000526020600020905b8154815290600101906020018083116114f757829003601f168201915b5050505050908060030154908060040154908060050154908060060154908060070154905088565b6000838152600360209081526040808320548084526004909252909120600201546001600160a01b0316331461159c5760405162461bcd60e51b8152602060048201526005602482015264414431303560d81b60448201526064016106c7565b600081815260046020818152604090922085516115c19391909201919086019061227b565b50600081815260046020908152604090912083516115e79260059092019185019061227b565b5060008181526004602052604090819020600601805460ff19166002179055517facf1a4a97394444387f3458d02bd2e5c6e9486d300f4f7c14ac402e2a116c0839061163a908390879087908790612818565b60405180910390a150505050565b6000818152600160205260409020600701541561168f5760405162461bcd60e51b815260206004820152600560248201526420a218981960d91b60448201526064016106c7565b6116b8816040518060200160405280600081525060405180602001604052806000815250611882565b50565b60008060009054906101000a90046001600160a01b03166001600160a01b0316638da5cb5b6040518163ffffffff1660e01b815260040160206040518083038186803b158015610dbd57600080fd5b600080546040517f446973747269627574696f6e526967687400000000000000000000000000000060208201526001600160a01b0390911690638eaa6ac090603101610d71565b600080546040517f4164506f6f6c000000000000000000000000000000000000000000000000000060208201526001600160a01b0390911690638eaa6ac090602601610d71565b600083815260016020526040902060070154156117df5760405162461bcd60e51b815260206004820152600560248201526420a218981960d91b60448201526064016106c7565b6117ea838383611882565b505050565b6002602052816000526040600020818154811061180b57600080fd5b90600052602060002001600091509150505481565b60008181526002602090815260409182902080548351818402810184019094528084526060939283018282801561187657602002820191906000526020600020905b815481526020019060010190808311611862575b50505050509050919050565b61188a6122ff565b6006805490600061189a836128c5565b90915550808252602080830186815233604080860191825234606087019081526080870189815260a08801899052600060c089018190529687526004808752929096208751815593516001850155915160028401805473ffffffffffffffffffffffffffffffffffffffff19166001600160a01b0390921691909117905590516003830155925180518594929361193593850192019061227b565b5060a0820151805161195191600584019160209091019061227b565b5060c082015160068201805460ff19166001836005811115611975576119756128f6565b02179055505050600084815260026020908152604080832084518154600181018355918552938390200192909255825190830151838301516060850151608086015160a087015195517f3e7f9a65d541ccee63177d29635cbb0ffec0bf032e171ee86ab9037c7e5c2d049661163a96959493929161274c565b808210611a3d5760405162461bcd60e51b815260206004820152600560248201527f414431303100000000000000000000000000000000000000000000000000000060448201526064016106c7565b611a8e6040518061010001604052806000815260200160006001600160a01b031681526020016060815260200160008152602001600081526020016000815260200160008152602001600081525090565b60058054906000611a9e836128c5565b9091555080825233602080840191825260408085018a8152606086018a90526080860189905260a0860188905260c086018790526000948552600180845291909420855181559251908301805473ffffffffffffffffffffffffffffffffffffffff19166001600160a01b03909216919091179055915180518493611b2a92600285019291019061227b565b50606082015160038201556080820151600482015560a0820151600582015560c0820151600682015560e090910151600790910155611b67612267565b81516040517fd3fc98640000000000000000000000000000000000000000000000000000000081526001600160a01b03929092169163d3fc986491611bb3913391908b906004016125e2565b600060405180830381600087803b158015611bcd57600080fd5b505af1158015611be1573d6000803e3d6000fd5b505050507fc5b1508e582b10d2db0917542b3881b71cc569a7e1ad667ccbe4c5de45d8daa9816000015182602001518360400151846060015185608001518660a001518760c00151604051611c3c979695949392919061266a565b60405180910390a1505050505050565b600082815260016020819052604090912001546001600160a01b03163314611c9e5760405162461bcd60e51b8152602060048201526005602482015264414431303560d81b60448201526064016106c7565b6000828152600360208181526040808420548085526004808452828620835160e0810185528154815260018201549581019590955260028101546001600160a01b0316938501939093529382015460608401529281018054939493608084019190611d089061288a565b80601f0160208091040260200160405190810160405280929190818152602001828054611d349061288a565b8015611d815780601f10611d5657610100808354040283529160200191611d81565b820191906000526020600020905b815481529060010190602001808311611d6457829003601f168201915b50505050508152602001600582018054611d9a9061288a565b80601f0160208091040260200160405190810160405280929190818152602001828054611dc69061288a565b8015611e135780601f10611de857610100808354040283529160200191611e13565b820191906000526020600020905b815481529060010190602001808311611df657829003601f168201915b5050509183525050600682015460209091019060ff166005811115611e3a57611e3a6128f6565b6005811115611e4b57611e4b6128f6565b9052506000848152600460208181526040808420815160e0810183528154815260018201549381019390935260028101546001600160a01b031691830191909152600381015460608301529182018054949550929390926080840191611eb09061288a565b80601f0160208091040260200160405190810160405280929190818152602001828054611edc9061288a565b8015611f295780601f10611efe57610100808354040283529160200191611f29565b820191906000526020600020905b815481529060010190602001808311611f0c57829003601f168201915b50505050508152602001600582018054611f429061288a565b80601f0160208091040260200160405190810160405280929190818152602001828054611f6e9061288a565b8015611fbb5780601f10611f9057610100808354040283529160200191611fbb565b820191906000526020600020905b815481529060010190602001808311611f9e57829003601f168201915b5050509183525050600682015460209091019060ff166005811115611fe257611fe26128f6565b6005811115611ff357611ff36128f6565b81525050905080606001518260600151106120505760405162461bcd60e51b815260206004820152600560248201527f414431303700000000000000000000000000000000000000000000000000000060448201526064016106c7565b60018260c001516005811115612068576120686128f6565b146120b55760405162461bcd60e51b815260206004820152600560248201527f414431303800000000000000000000000000000000000000000000000000000060448201526064016106c7565b600083815260046020908152604080832060069081018054600360ff19918216811790925589865283862090920180549092166001179091558884529091529020849055612101612271565b6040808401516060850151915163aa90b35f60e01b81526001600160a01b0391821660048201526024810192909252919091169063aa90b35f90604401600060405180830381600087803b15801561215857600080fd5b505af115801561216c573d6000803e3d6000fd5b50505050612178611751565b6001600160a01b03166108fc606483606001516063612197919061286b565b6121a19190612849565b6040518115909202916000818181858888f193505050501580156121c9573d6000803e3d6000fd5b5081604001516001600160a01b03166108fc606484606001516121ec9190612849565b6040518115909202916000818181858888f19350505050158015612214573d6000803e3d6000fd5b5060408051868152602081018590529081018590527f8fd474607adac0322dd5e58b957d3cc516ea6a80026937e3fadea6e31aed7dda9060600160405180910390a15050505050565b6000610df5611194565b6000610df561170a565b6000610df5611751565b8280546122879061288a565b90600052602060002090601f0160209004810192826122a957600085556122ef565b82601f106122c257805160ff19168380011785556122ef565b828001600101855582156122ef579182015b828111156122ef5782518255916020019190600101906122d4565b506122fb929150612355565b5090565b6040518060e00160405280600081526020016000815260200160006001600160a01b0316815260200160008152602001606081526020016060815260200160006005811115612350576123506128f6565b905290565b5b808211156122fb5760008155600101612356565b600082601f83011261237b57600080fd5b813567ffffffffffffffff808211156123965761239661290c565b604051601f8301601f19908116603f011681019082821181831017156123be576123be61290c565b816040528381528660208588010111156123d757600080fd5b836020870160208301376000602085830101528094505050505092915050565b60006020828403121561240957600080fd5b815161146181612922565b60008060006060848603121561242957600080fd5b833561243481612922565b95602085013595506040909401359392505050565b600080600080600060a0868803121561246157600080fd5b853567ffffffffffffffff81111561247857600080fd5b6124848882890161236a565b9860208801359850604088013597606081013597506080013595509350505050565b6000602082840312156124b857600080fd5b5035919050565b600080604083850312156124d257600080fd5b82359150602083013567ffffffffffffffff8111156124f057600080fd5b6124fc8582860161236a565b9150509250929050565b60008060006060848603121561251b57600080fd5b83359250602084013567ffffffffffffffff8082111561253a57600080fd5b6125468783880161236a565b9350604086013591508082111561255c57600080fd5b506125698682870161236a565b9150509250925092565b6000806040838503121561258657600080fd5b50508035926020909101359150565b6000815180845260005b818110156125bb5760208185018101518683018201520161259f565b818111156125cd576000602083870101525b50601f01601f19169290920160200192915050565b6001600160a01b038416815282602082015260606040820152600061260a6060830184612595565b95945050505050565b6020808252825182820181905260009190848201906040850190845b8181101561264b5783518352928401929184019160010161262f565b50909695505050505050565b6020815260006114616020830184612595565b8781526001600160a01b038716602082015260e06040820152600061269260e0830188612595565b90508560608301528460808301528360a08301528260c083015298975050505050505050565b60006101008a83526001600160a01b038a1660208401528060408401526126e18184018a612595565b60608401989098525050608081019490945260a084019290925260c083015260e0909101529392505050565b8581528460208201526001600160a01b038416604082015282606082015260a06080820152600061274160a0830184612595565b979650505050505050565b8681528560208201526001600160a01b038516604082015283606082015260c06080820152600061278060c0830185612595565b82810360a08401526127928185612595565b9998505050505050505050565b8781528660208201526001600160a01b038616604082015284606082015260e0608082015260006127d360e0830186612595565b82810360a08401526127e58186612595565b9150506006831061280657634e487b7160e01b600052602160045260246000fd5b8260c083015298975050505050505050565b8481528360208201526080604082015260006128376080830185612595565b82810360608401526127418185612595565b60008261286657634e487b7160e01b600052601260045260246000fd5b500490565b6000816000190483118215151615612885576128856128e0565b500290565b600181811c9082168061289e57607f821691505b602082108114156128bf57634e487b7160e01b600052602260045260246000fd5b50919050565b60006000198214156128d9576128d96128e0565b5060010190565b634e487b7160e01b600052601160045260246000fd5b634e487b7160e01b600052602160045260246000fd5b634e487b7160e01b600052604160045260246000fd5b6001600160a01b03811681146116b857600080fdfea2646970667358221220068db02d50225b7db63a644e3df3aa0068d454a16d0f0ad44530b06d554dc8ad64736f6c63430008060033",
  "devdoc": {
    "author": "Shumpei Koike - <shumpei.koike@bridges.inc>",
    "kind": "dev",
    "methods": {
      "adPoolAddress()": {
        "details": "Gets the address of AdPool."
      },
      "bid(uint256,string,string)": {
        "details": "Bids to the post, sharing what kind of Ads would be public. The owner of the Ad space can select the one according to not only the price but also the preference inside the metadata.",
        "params": {
          "metadata": "string of the hashed path to the storage",
          "postId": "uint256 of the post ID"
        }
      },
      "close(uint256)": {
        "details": "Closes the offering and mints the NFT to the successful bidder. The amount would be paid to the post owner.",
        "params": {
          "bidId": "uint256 of the bid ID"
        }
      },
      "distributionRightAddress()": {
        "details": "Gets the address of DistributionRight."
      },
      "nameRegistryAddress()": {
        "details": "Gets the address of NameRegistry"
      },
      "newPost(string,uint256,uint256,uint256,uint256)": {
        "details": "Creates a new post where the owner who has the advertising area can public the space. The basic infomation of the area is described on the storage, which is accessed by the metadata hash.",
        "params": {
          "fromTimestamp": "uint256 of the timestamp to display the ad",
          "height": "uint256 of the display height for the Ad space",
          "metadata": "string of the hashed path to the storage",
          "toTimestamp": "uint256 of the timestamp to display the ad",
          "width": "uint256 of the display width for the Ad space"
        }
      },
      "owner()": {
        "details": "Gets the owner address."
      },
      "refund(uint256)": {
        "details": "Can refund the amount if you want to cancel or the other is determinted as the successful bidder.",
        "params": {
          "bidId": "uint256 of the bid ID"
        }
      },
      "reservedRightAddress()": {
        "details": "Gets the address of ReservedRight."
      },
      "vaultAddress()": {
        "details": "Gets the address of Vault."
      }
    },
    "title": "AdManager - allows anyone to create a post and bit to the post.",
    "version": 1
  },
  "userdoc": {
    "kind": "user",
    "methods": {},
    "version": 1
  },
  "storageLayout": {
    "storage": [
      {
        "astId": 526,
        "contract": "contracts/base/AdManager.sol:AdManager",
        "label": "_nameRegistry",
        "offset": 0,
        "slot": "0",
        "type": "t_contract(NameRegistry)725"
      },
      {
        "astId": 887,
        "contract": "contracts/base/AdManager.sol:AdManager",
        "label": "allPosts",
        "offset": 0,
        "slot": "1",
        "type": "t_mapping(t_uint256,t_struct(PostContent)866_storage)"
      },
      {
        "astId": 892,
        "contract": "contracts/base/AdManager.sol:AdManager",
        "label": "bidders",
        "offset": 0,
        "slot": "2",
        "type": "t_mapping(t_uint256,t_array(t_uint256)dyn_storage)"
      },
      {
        "astId": 896,
        "contract": "contracts/base/AdManager.sol:AdManager",
        "label": "reservedBidIds",
        "offset": 0,
        "slot": "3",
        "type": "t_mapping(t_uint256,t_uint256)"
      },
      {
        "astId": 901,
        "contract": "contracts/base/AdManager.sol:AdManager",
        "label": "bidderInfo",
        "offset": 0,
        "slot": "4",
        "type": "t_mapping(t_uint256,t_struct(Bidder)882_storage)"
      },
      {
        "astId": 904,
        "contract": "contracts/base/AdManager.sol:AdManager",
        "label": "nextPostId",
        "offset": 0,
        "slot": "5",
        "type": "t_uint256"
      },
      {
        "astId": 907,
        "contract": "contracts/base/AdManager.sol:AdManager",
        "label": "nextBidId",
        "offset": 0,
        "slot": "6",
        "type": "t_uint256"
      },
      {
        "astId": 910,
        "contract": "contracts/base/AdManager.sol:AdManager",
        "label": "_baseURI",
        "offset": 0,
        "slot": "7",
        "type": "t_string_storage"
      }
    ],
    "types": {
      "t_address": {
        "encoding": "inplace",
        "label": "address",
        "numberOfBytes": "20"
      },
      "t_array(t_uint256)dyn_storage": {
        "base": "t_uint256",
        "encoding": "dynamic_array",
        "label": "uint256[]",
        "numberOfBytes": "32"
      },
      "t_contract(NameRegistry)725": {
        "encoding": "inplace",
        "label": "contract NameRegistry",
        "numberOfBytes": "20"
      },
      "t_enum(DraftStatus)849": {
        "encoding": "inplace",
        "label": "enum AdManager.DraftStatus",
        "numberOfBytes": "1"
      },
      "t_mapping(t_uint256,t_array(t_uint256)dyn_storage)": {
        "encoding": "mapping",
        "key": "t_uint256",
        "label": "mapping(uint256 => uint256[])",
        "numberOfBytes": "32",
        "value": "t_array(t_uint256)dyn_storage"
      },
      "t_mapping(t_uint256,t_struct(Bidder)882_storage)": {
        "encoding": "mapping",
        "key": "t_uint256",
        "label": "mapping(uint256 => struct AdManager.Bidder)",
        "numberOfBytes": "32",
        "value": "t_struct(Bidder)882_storage"
      },
      "t_mapping(t_uint256,t_struct(PostContent)866_storage)": {
        "encoding": "mapping",
        "key": "t_uint256",
        "label": "mapping(uint256 => struct AdManager.PostContent)",
        "numberOfBytes": "32",
        "value": "t_struct(PostContent)866_storage"
      },
      "t_mapping(t_uint256,t_uint256)": {
        "encoding": "mapping",
        "key": "t_uint256",
        "label": "mapping(uint256 => uint256)",
        "numberOfBytes": "32",
        "value": "t_uint256"
      },
      "t_string_storage": {
        "encoding": "bytes",
        "label": "string",
        "numberOfBytes": "32"
      },
      "t_struct(Bidder)882_storage": {
        "encoding": "inplace",
        "label": "struct AdManager.Bidder",
        "members": [
          {
            "astId": 868,
            "contract": "contracts/base/AdManager.sol:AdManager",
            "label": "bidId",
            "offset": 0,
            "slot": "0",
            "type": "t_uint256"
          },
          {
            "astId": 870,
            "contract": "contracts/base/AdManager.sol:AdManager",
            "label": "postId",
            "offset": 0,
            "slot": "1",
            "type": "t_uint256"
          },
          {
            "astId": 872,
            "contract": "contracts/base/AdManager.sol:AdManager",
            "label": "sender",
            "offset": 0,
            "slot": "2",
            "type": "t_address"
          },
          {
            "astId": 874,
            "contract": "contracts/base/AdManager.sol:AdManager",
            "label": "price",
            "offset": 0,
            "slot": "3",
            "type": "t_uint256"
          },
          {
            "astId": 876,
            "contract": "contracts/base/AdManager.sol:AdManager",
            "label": "metadata",
            "offset": 0,
            "slot": "4",
            "type": "t_string_storage"
          },
          {
            "astId": 878,
            "contract": "contracts/base/AdManager.sol:AdManager",
            "label": "originalLink",
            "offset": 0,
            "slot": "5",
            "type": "t_string_storage"
          },
          {
            "astId": 881,
            "contract": "contracts/base/AdManager.sol:AdManager",
            "label": "status",
            "offset": 0,
            "slot": "6",
            "type": "t_enum(DraftStatus)849"
          }
        ],
        "numberOfBytes": "224"
      },
      "t_struct(PostContent)866_storage": {
        "encoding": "inplace",
        "label": "struct AdManager.PostContent",
        "members": [
          {
            "astId": 851,
            "contract": "contracts/base/AdManager.sol:AdManager",
            "label": "postId",
            "offset": 0,
            "slot": "0",
            "type": "t_uint256"
          },
          {
            "astId": 853,
            "contract": "contracts/base/AdManager.sol:AdManager",
            "label": "owner",
            "offset": 0,
            "slot": "1",
            "type": "t_address"
          },
          {
            "astId": 855,
            "contract": "contracts/base/AdManager.sol:AdManager",
            "label": "metadata",
            "offset": 0,
            "slot": "2",
            "type": "t_string_storage"
          },
          {
            "astId": 857,
            "contract": "contracts/base/AdManager.sol:AdManager",
            "label": "width",
            "offset": 0,
            "slot": "3",
            "type": "t_uint256"
          },
          {
            "astId": 859,
            "contract": "contracts/base/AdManager.sol:AdManager",
            "label": "height",
            "offset": 0,
            "slot": "4",
            "type": "t_uint256"
          },
          {
            "astId": 861,
            "contract": "contracts/base/AdManager.sol:AdManager",
            "label": "fromTimestamp",
            "offset": 0,
            "slot": "5",
            "type": "t_uint256"
          },
          {
            "astId": 863,
            "contract": "contracts/base/AdManager.sol:AdManager",
            "label": "toTimestamp",
            "offset": 0,
            "slot": "6",
            "type": "t_uint256"
          },
          {
            "astId": 865,
            "contract": "contracts/base/AdManager.sol:AdManager",
            "label": "successfulBidId",
            "offset": 0,
            "slot": "7",
            "type": "t_uint256"
          }
        ],
        "numberOfBytes": "256"
      },
      "t_uint256": {
        "encoding": "inplace",
        "label": "uint256",
        "numberOfBytes": "32"
      }
    }
  }
}