{
  "address": "0x710F4fb5b5f6c7106AD0463D2cc3689A7dBb1b71",
  "abi": [
    {
      "anonymous": false,
      "inputs": [
        {
          "indexed": true,
          "internalType": "address",
          "name": "owner",
          "type": "address"
        },
        {
          "indexed": true,
          "internalType": "address",
          "name": "approved",
          "type": "address"
        },
        {
          "indexed": true,
          "internalType": "uint256",
          "name": "tokenId",
          "type": "uint256"
        }
      ],
      "name": "Approval",
      "type": "event"
    },
    {
      "anonymous": false,
      "inputs": [
        {
          "indexed": true,
          "internalType": "address",
          "name": "owner",
          "type": "address"
        },
        {
          "indexed": true,
          "internalType": "address",
          "name": "operator",
          "type": "address"
        },
        {
          "indexed": false,
          "internalType": "bool",
          "name": "approved",
          "type": "bool"
        }
      ],
      "name": "ApprovalForAll",
      "type": "event"
    },
    {
      "anonymous": false,
      "inputs": [
        {
          "indexed": true,
          "internalType": "address",
          "name": "from",
          "type": "address"
        },
        {
          "indexed": true,
          "internalType": "address",
          "name": "to",
          "type": "address"
        },
        {
          "indexed": true,
          "internalType": "uint256",
          "name": "tokenId",
          "type": "uint256"
        }
      ],
      "name": "Transfer",
      "type": "event"
    },
    {
      "inputs": [
        {
          "internalType": "uint256",
          "name": "tokenId",
          "type": "uint256"
        }
      ],
      "name": "accept",
      "outputs": [],
      "stateMutability": "nonpayable",
      "type": "function"
    },
    {
      "inputs": [
        {
          "internalType": "uint256",
          "name": "tokenId",
          "type": "uint256"
        },
        {
          "internalType": "string",
          "name": "tokenMetadata",
          "type": "string"
        }
      ],
      "name": "acceptOffer",
      "outputs": [],
      "stateMutability": "nonpayable",
      "type": "function"
    },
    {
      "inputs": [
        {
          "internalType": "uint256",
          "name": "",
          "type": "uint256"
        }
      ],
      "name": "accepted",
      "outputs": [
        {
          "internalType": "string",
          "name": "",
          "type": "string"
        }
      ],
      "stateMutability": "view",
      "type": "function"
    },
    {
      "inputs": [
        {
          "internalType": "string",
          "name": "spaceMetadata",
          "type": "string"
        },
        {
          "internalType": "uint256",
          "name": "displayStartTimestamp",
          "type": "uint256"
        },
        {
          "internalType": "uint256",
          "name": "displayEndTimestamp",
          "type": "uint256"
        }
      ],
      "name": "adId",
      "outputs": [
        {
          "internalType": "uint256",
          "name": "",
          "type": "uint256"
        }
      ],
      "stateMutability": "pure",
      "type": "function"
    },
    {
      "inputs": [],
      "name": "adPoolAddress",
      "outputs": [
        {
          "internalType": "address",
          "name": "",
          "type": "address"
        }
      ],
      "stateMutability": "view",
      "type": "function"
    },
    {
      "inputs": [
        {
          "internalType": "uint256",
          "name": "",
          "type": "uint256"
        }
      ],
      "name": "allPeriods",
      "outputs": [
        {
          "internalType": "address",
          "name": "mediaProxy",
          "type": "address"
        },
        {
          "internalType": "string",
          "name": "spaceMetadata",
          "type": "string"
        },
        {
          "internalType": "string",
          "name": "tokenMetadata",
          "type": "string"
        },
        {
          "internalType": "uint256",
          "name": "saleStartTimestamp",
          "type": "uint256"
        },
        {
          "internalType": "uint256",
          "name": "saleEndTimestamp",
          "type": "uint256"
        },
        {
          "internalType": "uint256",
          "name": "displayStartTimestamp",
          "type": "uint256"
        },
        {
          "internalType": "uint256",
          "name": "displayEndTimestamp",
          "type": "uint256"
        },
        {
          "internalType": "enum Ad.Pricing",
          "name": "pricing",
          "type": "uint8"
        },
        {
          "internalType": "uint256",
          "name": "minPrice",
          "type": "uint256"
        },
        {
          "internalType": "uint256",
          "name": "startPrice",
          "type": "uint256"
        },
        {
          "internalType": "bool",
          "name": "sold",
          "type": "bool"
        }
      ],
      "stateMutability": "view",
      "type": "function"
    },
    {
      "inputs": [
        {
          "internalType": "address",
          "name": "to",
          "type": "address"
        },
        {
          "internalType": "uint256",
          "name": "tokenId",
          "type": "uint256"
        }
      ],
      "name": "approve",
      "outputs": [],
      "stateMutability": "nonpayable",
      "type": "function"
    },
    {
      "inputs": [],
      "name": "balance",
      "outputs": [
        {
          "internalType": "uint256",
          "name": "",
          "type": "uint256"
        }
      ],
      "stateMutability": "view",
      "type": "function"
    },
    {
      "inputs": [
        {
          "internalType": "address",
          "name": "owner",
          "type": "address"
        }
      ],
      "name": "balanceOf",
      "outputs": [
        {
          "internalType": "uint256",
          "name": "",
          "type": "uint256"
        }
      ],
      "stateMutability": "view",
      "type": "function"
    },
    {
      "inputs": [
        {
          "internalType": "uint256",
          "name": "tokenId",
          "type": "uint256"
        }
      ],
      "name": "bid",
      "outputs": [],
      "stateMutability": "payable",
      "type": "function"
    },
    {
      "inputs": [
        {
          "internalType": "uint256",
          "name": "",
          "type": "uint256"
        }
      ],
      "name": "bidding",
      "outputs": [
        {
          "internalType": "uint256",
          "name": "tokenId",
          "type": "uint256"
        },
        {
          "internalType": "address",
          "name": "bidder",
          "type": "address"
        },
        {
          "internalType": "uint256",
          "name": "price",
          "type": "uint256"
        }
      ],
      "stateMutability": "view",
      "type": "function"
    },
    {
      "inputs": [
        {
          "internalType": "uint256",
          "name": "tokenId",
          "type": "uint256"
        }
      ],
      "name": "buy",
      "outputs": [],
      "stateMutability": "payable",
      "type": "function"
    },
    {
      "inputs": [
        {
          "internalType": "uint256",
          "name": "tokenId",
          "type": "uint256"
        }
      ],
      "name": "buyBasedOnTime",
      "outputs": [],
      "stateMutability": "payable",
      "type": "function"
    },
    {
      "inputs": [
        {
          "internalType": "uint256",
          "name": "tokenId",
          "type": "uint256"
        }
      ],
      "name": "currentPrice",
      "outputs": [
        {
          "internalType": "uint256",
          "name": "",
          "type": "uint256"
        }
      ],
      "stateMutability": "view",
      "type": "function"
    },
    {
      "inputs": [
        {
          "internalType": "uint256",
          "name": "tokenId",
          "type": "uint256"
        }
      ],
      "name": "deletePeriod",
      "outputs": [],
      "stateMutability": "nonpayable",
      "type": "function"
    },
    {
      "inputs": [
        {
          "internalType": "uint256",
          "name": "",
          "type": "uint256"
        }
      ],
      "name": "deniedReason",
      "outputs": [
        {
          "internalType": "string",
          "name": "",
          "type": "string"
        }
      ],
      "stateMutability": "view",
      "type": "function"
    },
    {
      "inputs": [
        {
          "internalType": "uint256",
          "name": "tokenId",
          "type": "uint256"
        },
        {
          "internalType": "string",
          "name": "reason",
          "type": "string"
        }
      ],
      "name": "deny",
      "outputs": [],
      "stateMutability": "nonpayable",
      "type": "function"
    },
    {
      "inputs": [
        {
          "internalType": "string",
          "name": "spaceMetadata",
          "type": "string"
        }
      ],
      "name": "display",
      "outputs": [
        {
          "internalType": "string",
          "name": "",
          "type": "string"
        }
      ],
      "stateMutability": "view",
      "type": "function"
    },
    {
      "inputs": [],
      "name": "eventEmitterAddress",
      "outputs": [
        {
          "internalType": "address",
          "name": "",
          "type": "address"
        }
      ],
      "stateMutability": "view",
      "type": "function"
    },
    {
      "inputs": [
        {
          "internalType": "uint256",
          "name": "tokenId",
          "type": "uint256"
        }
      ],
      "name": "getApproved",
      "outputs": [
        {
          "internalType": "address",
          "name": "",
          "type": "address"
        }
      ],
      "stateMutability": "view",
      "type": "function"
    },
    {
      "inputs": [
        {
          "internalType": "string",
          "name": "title",
          "type": "string"
        },
        {
          "internalType": "string",
          "name": "baseURI",
          "type": "string"
        },
        {
          "internalType": "address",
          "name": "nameRegistry",
          "type": "address"
        }
      ],
      "name": "initialize",
      "outputs": [],
      "stateMutability": "nonpayable",
      "type": "function"
    },
    {
      "inputs": [
        {
          "internalType": "address",
          "name": "owner",
          "type": "address"
        },
        {
          "internalType": "address",
          "name": "operator",
          "type": "address"
        }
      ],
      "name": "isApprovedForAll",
      "outputs": [
        {
          "internalType": "bool",
          "name": "",
          "type": "bool"
        }
      ],
      "stateMutability": "view",
      "type": "function"
    },
    {
      "inputs": [],
      "name": "mediaFactoryAddress",
      "outputs": [
        {
          "internalType": "address",
          "name": "",
          "type": "address"
        }
      ],
      "stateMutability": "view",
      "type": "function"
    },
    {
      "inputs": [],
      "name": "mediaRegistryAddress",
      "outputs": [
        {
          "internalType": "address",
          "name": "",
          "type": "address"
        }
      ],
      "stateMutability": "view",
      "type": "function"
    },
    {
      "inputs": [],
      "name": "name",
      "outputs": [
        {
          "internalType": "string",
          "name": "",
          "type": "string"
        }
      ],
      "stateMutability": "view",
      "type": "function"
    },
    {
      "inputs": [],
      "name": "nameRegistryAddress",
      "outputs": [
        {
          "internalType": "address",
          "name": "",
          "type": "address"
        }
      ],
      "stateMutability": "view",
      "type": "function"
    },
    {
      "inputs": [
        {
          "internalType": "string",
          "name": "spaceMetadata",
          "type": "string"
        },
        {
          "internalType": "string",
          "name": "tokenMetadata",
          "type": "string"
        },
        {
          "internalType": "uint256",
          "name": "saleEndTimestamp",
          "type": "uint256"
        },
        {
          "internalType": "uint256",
          "name": "displayStartTimestamp",
          "type": "uint256"
        },
        {
          "internalType": "uint256",
          "name": "displayEndTimestamp",
          "type": "uint256"
        },
        {
          "internalType": "enum Ad.Pricing",
          "name": "pricing",
          "type": "uint8"
        },
        {
          "internalType": "uint256",
          "name": "minPrice",
          "type": "uint256"
        }
      ],
      "name": "newPeriod",
      "outputs": [],
      "stateMutability": "nonpayable",
      "type": "function"
    },
    {
      "inputs": [
        {
          "internalType": "string",
          "name": "spaceMetadata",
          "type": "string"
        }
      ],
      "name": "newSpace",
      "outputs": [],
      "stateMutability": "nonpayable",
      "type": "function"
    },
    {
      "inputs": [
        {
          "internalType": "string",
          "name": "spaceMetadata",
          "type": "string"
        },
        {
          "internalType": "uint256",
          "name": "displayStartTimestamp",
          "type": "uint256"
        },
        {
          "internalType": "uint256",
          "name": "displayEndTimestamp",
          "type": "uint256"
        }
      ],
      "name": "offerPeriod",
      "outputs": [],
      "stateMutability": "payable",
      "type": "function"
    },
    {
      "inputs": [
        {
          "internalType": "uint256",
          "name": "",
          "type": "uint256"
        }
      ],
      "name": "offered",
      "outputs": [
        {
          "internalType": "string",
          "name": "spaceMetadata",
          "type": "string"
        },
        {
          "internalType": "uint256",
          "name": "displayStartTimestamp",
          "type": "uint256"
        },
        {
          "internalType": "uint256",
          "name": "displayEndTimestamp",
          "type": "uint256"
        },
        {
          "internalType": "address",
          "name": "sender",
          "type": "address"
        },
        {
          "internalType": "uint256",
          "name": "price",
          "type": "uint256"
        }
      ],
      "stateMutability": "view",
      "type": "function"
    },
    {
      "inputs": [],
      "name": "owner",
      "outputs": [
        {
          "internalType": "address",
          "name": "",
          "type": "address"
        }
      ],
      "stateMutability": "view",
      "type": "function"
    },
    {
      "inputs": [
        {
          "internalType": "uint256",
          "name": "tokenId",
          "type": "uint256"
        }
      ],
      "name": "ownerOf",
      "outputs": [
        {
          "internalType": "address",
          "name": "",
          "type": "address"
        }
      ],
      "stateMutability": "view",
      "type": "function"
    },
    {
      "inputs": [
        {
          "internalType": "uint256",
          "name": "tokenId",
          "type": "uint256"
        },
        {
          "internalType": "string",
          "name": "metadata",
          "type": "string"
        }
      ],
      "name": "propose",
      "outputs": [],
      "stateMutability": "nonpayable",
      "type": "function"
    },
    {
      "inputs": [
        {
          "internalType": "uint256",
          "name": "",
          "type": "uint256"
        }
      ],
      "name": "proposed",
      "outputs": [
        {
          "internalType": "string",
          "name": "",
          "type": "string"
        }
      ],
      "stateMutability": "view",
      "type": "function"
    },
    {
      "inputs": [
        {
          "internalType": "uint256",
          "name": "tokenId",
          "type": "uint256"
        }
      ],
      "name": "receiveToken",
      "outputs": [],
      "stateMutability": "payable",
      "type": "function"
    },
    {
      "inputs": [
        {
          "internalType": "address",
          "name": "from",
          "type": "address"
        },
        {
          "internalType": "address",
          "name": "to",
          "type": "address"
        },
        {
          "internalType": "uint256",
          "name": "tokenId",
          "type": "uint256"
        }
      ],
      "name": "safeTransferFrom",
      "outputs": [],
      "stateMutability": "nonpayable",
      "type": "function"
    },
    {
      "inputs": [
        {
          "internalType": "address",
          "name": "from",
          "type": "address"
        },
        {
          "internalType": "address",
          "name": "to",
          "type": "address"
        },
        {
          "internalType": "uint256",
          "name": "tokenId",
          "type": "uint256"
        },
        {
          "internalType": "bytes",
          "name": "_data",
          "type": "bytes"
        }
      ],
      "name": "safeTransferFrom",
      "outputs": [],
      "stateMutability": "nonpayable",
      "type": "function"
    },
    {
      "inputs": [
        {
          "internalType": "address",
          "name": "operator",
          "type": "address"
        },
        {
          "internalType": "bool",
          "name": "approved",
          "type": "bool"
        }
      ],
      "name": "setApprovalForAll",
      "outputs": [],
      "stateMutability": "nonpayable",
      "type": "function"
    },
    {
      "inputs": [
        {
          "internalType": "string",
          "name": "",
          "type": "string"
        }
      ],
      "name": "spaced",
      "outputs": [
        {
          "internalType": "bool",
          "name": "",
          "type": "bool"
        }
      ],
      "stateMutability": "view",
      "type": "function"
    },
    {
      "inputs": [
        {
          "internalType": "bytes4",
          "name": "interfaceId",
          "type": "bytes4"
        }
      ],
      "name": "supportsInterface",
      "outputs": [
        {
          "internalType": "bool",
          "name": "",
          "type": "bool"
        }
      ],
      "stateMutability": "pure",
      "type": "function"
    },
    {
      "inputs": [],
      "name": "symbol",
      "outputs": [
        {
          "internalType": "string",
          "name": "",
          "type": "string"
        }
      ],
      "stateMutability": "view",
      "type": "function"
    },
    {
      "inputs": [
        {
          "internalType": "uint256",
          "name": "index",
          "type": "uint256"
        }
      ],
      "name": "tokenByIndex",
      "outputs": [
        {
          "internalType": "uint256",
          "name": "",
          "type": "uint256"
        }
      ],
      "stateMutability": "view",
      "type": "function"
    },
    {
      "inputs": [
        {
          "internalType": "string",
          "name": "spaceMetadata",
          "type": "string"
        }
      ],
      "name": "tokenIdsOf",
      "outputs": [
        {
          "internalType": "uint256[]",
          "name": "",
          "type": "uint256[]"
        }
      ],
      "stateMutability": "view",
      "type": "function"
    },
    {
      "inputs": [
        {
          "internalType": "address",
          "name": "owner",
          "type": "address"
        },
        {
          "internalType": "uint256",
          "name": "index",
          "type": "uint256"
        }
      ],
      "name": "tokenOfOwnerByIndex",
      "outputs": [
        {
          "internalType": "uint256",
          "name": "",
          "type": "uint256"
        }
      ],
      "stateMutability": "view",
      "type": "function"
    },
    {
      "inputs": [
        {
          "internalType": "uint256",
          "name": "tokenId",
          "type": "uint256"
        }
      ],
      "name": "tokenURI",
      "outputs": [
        {
          "internalType": "string",
          "name": "",
          "type": "string"
        }
      ],
      "stateMutability": "view",
      "type": "function"
    },
    {
      "inputs": [],
      "name": "totalSupply",
      "outputs": [
        {
          "internalType": "uint256",
          "name": "",
          "type": "uint256"
        }
      ],
      "stateMutability": "view",
      "type": "function"
    },
    {
      "inputs": [
        {
          "internalType": "address",
          "name": "from",
          "type": "address"
        },
        {
          "internalType": "address",
          "name": "to",
          "type": "address"
        },
        {
          "internalType": "uint256",
          "name": "tokenId",
          "type": "uint256"
        }
      ],
      "name": "transferFrom",
      "outputs": [],
      "stateMutability": "nonpayable",
      "type": "function"
    },
    {
      "inputs": [
        {
          "internalType": "address",
          "name": "newMediaEOA",
          "type": "address"
        },
        {
          "internalType": "string",
          "name": "newMetadata",
          "type": "string"
        }
      ],
      "name": "updateMedia",
      "outputs": [],
      "stateMutability": "nonpayable",
      "type": "function"
    },
    {
      "inputs": [],
      "name": "vaultAddress",
      "outputs": [
        {
          "internalType": "address",
          "name": "",
          "type": "address"
        }
      ],
      "stateMutability": "view",
      "type": "function"
    },
    {
      "inputs": [],
      "name": "withdraw",
      "outputs": [],
      "stateMutability": "nonpayable",
      "type": "function"
    }
  ],
  "transactionHash": "0xdeb960bb0e44c355d08d366bf1c512d19f3d82fa38d894997f32ad3730104b92",
  "args": [],
  "solcInputHash": "cac608707b7c127d61fb97ba4566a6cd",
  "bytecode": "0x608060405234801561001057600080fd5b506001601655615e2180620000266000396000f3fe6080604052600436106103295760003560e01c806365045a65116101a5578063b69ef8a8116100ec578063d028bd6611610095578063d96a094a1161006f578063d96a094a1461092a578063e985e9c51461093d578063f072629114610986578063f19b82731461099b57600080fd5b8063d028bd66146108ca578063d4f6b5ec146108f7578063d86800691461091757600080fd5b8063c87b56dd116100c6578063c87b56dd1461082d578063c9cd71b51461084d578063cc889b0b1461086257600080fd5b8063b69ef8a8146107da578063b88d4fde146107ed578063c531c2361461080d57600080fd5b80638da5cb5b1161014e578063a22cb46511610128578063a22cb46514610763578063a9a86f0e14610783578063b3a0ebc9146107a357600080fd5b80638da5cb5b146107245780638f6059d61461073957806395d89b411461074e57600080fd5b80637393f2891161017f5780637393f289146106c45780637a3c4c17146106e4578063899c99891461070457600080fd5b806365045a65146106545780636a58767e1461068f57806370a08231146106a457600080fd5b80632bc4bc6811610274578063444115f61161021d5780634f6ccce7116101f75780634f6ccce7146105d457806353c14776146105f457806358ba1bb8146106145780636352211e1461063457600080fd5b8063444115f614610581578063454a2ab3146105a15780634b455a51146105b457600080fd5b80633ccfd60b1161024e5780633ccfd60b1461053757806342842e0e1461054c578063430bf08a1461056c57600080fd5b80632bc4bc68146104e45780632f745c591461050457806337df00c91461052457600080fd5b8063179bcff7116102d65780631daf7ff9116102b05780631daf7ff91461049357806323b872dd146104a657806327b7a2f5146104c657600080fd5b8063179bcff71461043457806318160ddd1461045457806319b05f491461047357600080fd5b8063077f224a11610307578063077f224a146103ba578063081812fc146103dc578063095ea7b31461041457600080fd5b806301b99e041461032e57806301ffc9a71461036857806306fdde0314610398575b600080fd5b34801561033a57600080fd5b5061034e61034936600461526b565b6109bb565b60405161035f9594939291906152dc565b60405180910390f35b34801561037457600080fd5b50610388610383366004615332565b610a7e565b604051901515815260200161035f565b3480156103a457600080fd5b506103ad610ae7565b60405161035f919061534f565b3480156103c657600080fd5b506103da6103d5366004615423565b610b79565b005b3480156103e857600080fd5b506103fc6103f736600461526b565b610bfc565b6040516001600160a01b03909116815260200161035f565b34801561042057600080fd5b506103da61042f36600461549b565b610c96565b34801561044057600080fd5b506103da61044f3660046154c7565b610dc3565b34801561046057600080fd5b50600b545b60405190815260200161035f565b34801561047f57600080fd5b506103da61048e36600461526b565b610f57565b6103da6104a1366004615517565b6111e1565b3480156104b257600080fd5b506103da6104c1366004615565565b6114df565b3480156104d257600080fd5b506010546001600160a01b03166103fc565b3480156104f057600080fd5b506103da6104ff3660046155a6565b611531565b34801561051057600080fd5b5061046561051f36600461549b565b6115fd565b6103da61053236600461526b565b6116a5565b34801561054357600080fd5b506103da611827565b34801561055857600080fd5b506103da610567366004615565565b611981565b34801561057857600080fd5b506103fc61198c565b34801561058d57600080fd5b506103da61059c3660046155db565b611a58565b6103da6105af36600461526b565b611e86565b3480156105c057600080fd5b506103da6105cf36600461526b565b61209b565b3480156105e057600080fd5b506104656105ef36600461526b565b612395565b34801561060057600080fd5b506103ad61060f3660046155a6565b612439565b34801561062057600080fd5b506103ad61062f36600461526b565b612767565b34801561064057600080fd5b506103fc61064f36600461526b565b612801565b34801561066057600080fd5b5061038861066f3660046155a6565b805160208183018101805160118252928201919093012091525460ff1681565b34801561069b57600080fd5b506103fc61284e565b3480156106b057600080fd5b506104656106bf36600461560c565b612895565b3480156106d057600080fd5b506103da6106df3660046155db565b61292f565b3480156106f057600080fd5b506104656106ff36600461526b565b612b19565b34801561071057600080fd5b506103da61071f366004615629565b612e47565b34801561073057600080fd5b506103fc613397565b34801561074557600080fd5b506103fc6133f5565b34801561075a57600080fd5b506103ad61343c565b34801561076f57600080fd5b506103da61077e3660046156cc565b61344b565b34801561078f57600080fd5b506103ad61079e36600461526b565b613510565b3480156107af57600080fd5b506107c36107be36600461526b565b613529565b60405161035f9b9a99989796959493929190615742565b3480156107e657600080fd5b5047610465565b3480156107f957600080fd5b506103da6108083660046157c8565b6136a0565b34801561081957600080fd5b50610465610828366004615517565b61372e565b34801561083957600080fd5b506103ad61084836600461526b565b6137c4565b34801561085957600080fd5b506103fc61393e565b34801561086e57600080fd5b506108a761087d36600461526b565b60146020526000908152604090208054600182015460029092015490916001600160a01b03169083565b604080519384526001600160a01b0390921660208401529082015260600161035f565b3480156108d657600080fd5b506108ea6108e53660046155a6565b613985565b60405161035f9190615848565b34801561090357600080fd5b506103da6109123660046155db565b6139f5565b6103da61092536600461526b565b613a7c565b6103da61093836600461526b565b613c3f565b34801561094957600080fd5b5061038861095836600461588c565b6001600160a01b03918216600090815260086020908152604080832093909416825291909152205460ff1690565b34801561099257600080fd5b506103fc613d09565b3480156109a757600080fd5b506103ad6109b636600461526b565b613d50565b6015602052600090815260409020805481906109d6906158ba565b80601f0160208091040260200160405190810160405280929190818152602001828054610a02906158ba565b8015610a4f5780601f10610a2457610100808354040283529160200191610a4f565b820191906000526020600020905b815481529060010190602001808311610a3257829003601f168201915b505050600184015460028501546003860154600490960154949591949093506001600160a01b03909116915085565b60006001600160e01b031982167f80ac58cd000000000000000000000000000000000000000000000000000000001480610ae157506001600160e01b031982167f5b5e139f00000000000000000000000000000000000000000000000000000000145b92915050565b606060018054610af6906158ba565b80601f0160208091040260200160405190810160405280929190818152602001828054610b22906158ba565b8015610b6f5780601f10610b4457610100808354040283529160200191610b6f565b820191906000526020600020905b815481529060010190602001808311610b5257829003601f168201915b5050505050905090565b8251610b8c90600190602086019061519c565b5082604051602001610b9e91906158f5565b60405160208183030381529060405260029080519060200190610bc292919061519c565b508151610bd690600390602085019061519c565b50601080546001600160a01b0319166001600160a01b038316179055505050565b505050565b6000818152600560205260408120546001600160a01b0316610c7a5760405162461bcd60e51b815260206004820152602c60248201527f4552433732313a20617070726f76656420717565727920666f72206e6f6e657860448201526b34b9ba32b73a103a37b5b2b760a11b60648201526084015b60405180910390fd5b506000908152600760205260409020546001600160a01b031690565b6000610ca182612801565b9050806001600160a01b0316836001600160a01b03161415610d2b5760405162461bcd60e51b815260206004820152602160248201527f4552433732313a20617070726f76616c20746f2063757272656e74206f776e6560448201527f72000000000000000000000000000000000000000000000000000000000000006064820152608401610c71565b336001600160a01b0382161480610d475750610d478133610958565b610db95760405162461bcd60e51b815260206004820152603860248201527f4552433732313a20617070726f76652063616c6c6572206973206e6f74206f7760448201527f6e6572206e6f7220617070726f76656420666f7220616c6c00000000000000006064820152608401610c71565b610bf78383613d69565b33610dcc613dd7565b604051630a57ebcf60e11b81523060048201526001600160a01b0391909116906314afd79e9060240160206040518083038186803b158015610e0d57600080fd5b505afa158015610e21573d6000803e3d6000fd5b505050506040513d601f19601f82011682018060405250810190610e45919061593a565b6001600160a01b031614610e835760405162461bcd60e51b815260206004820152600560248201526425a218189960d91b6044820152606401610c71565b610e8b613dd7565b6001600160a01b031663179bcff783836040518363ffffffff1660e01b8152600401610eb8929190615957565b600060405180830381600087803b158015610ed257600080fd5b505af1158015610ee6573d6000803e3d6000fd5b50505050610ef2613de1565b6001600160a01b031663262360133084846040518463ffffffff1660e01b8152600401610f2193929190615979565b600060405180830381600087803b158015610f3b57600080fd5b505af1158015610f4f573d6000803e3d6000fd5b505050505050565b33610f60613dd7565b604051630a57ebcf60e11b81523060048201526001600160a01b0391909116906314afd79e9060240160206040518083038186803b158015610fa157600080fd5b505afa158015610fb5573d6000803e3d6000fd5b505050506040513d601f19601f82011682018060405250810190610fd9919061593a565b6001600160a01b0316146110175760405162461bcd60e51b815260206004820152600560248201526425a218189960d91b6044820152606401610c71565b6000818152600d602052604081208054611030906158ba565b80601f016020809104026020016040519081016040528092919081815260200182805461105c906158ba565b80156110a95780601f1061107e576101008083540402835291602001916110a9565b820191906000526020600020905b81548152906001019060200180831161108c57829003601f168201915b505050505090508051600014156110ea5760405162461bcd60e51b815260206004820152600560248201526404b443133360dc1b6044820152606401610c71565b60006110f583612801565b90506111018383613deb565b611109613de1565b6001600160a01b031663746f1b2084846040518363ffffffff1660e01b81526004016111369291906159ae565b600060405180830381600087803b15801561115057600080fd5b505af1158015611164573d6000803e3d6000fd5b50505050611170613de1565b60405163465bcf0560e01b81526001600160a01b0383811660048301526000602483015260448201869052919091169063465bcf05906064015b600060405180830381600087803b1580156111c457600080fd5b505af11580156111d8573d6000803e3d6000fd5b50505050505050565b336111ea613dd7565b604051630a57ebcf60e11b81523060048201526001600160a01b0391909116906314afd79e9060240160206040518083038186803b15801561122b57600080fd5b505afa15801561123f573d6000803e3d6000fd5b505050506040513d601f19601f82011682018060405250810190611263919061593a565b6001600160a01b031614156112a25760405162461bcd60e51b815260206004820152600560248201526412d10c0c4d60da1b6044820152606401610c71565b6011836040516112b291906159c7565b9081526040519081900360200190205460ff166113115760405162461bcd60e51b815260206004820152600560248201527f4b443130310000000000000000000000000000000000000000000000000000006044820152606401610c71565b8082106113485760405162461bcd60e51b81526020600482015260056024820152644b4431313360d81b6044820152606401610c71565b6040516303fb4aab60e41b8152600090735D1DD9f4232D8Bd861d0A50f882537C3871e4A4190633fb4aab090611386908790879087906004016159e3565b60206040518083038186803b15801561139e57600080fd5b505af41580156113b2573d6000803e3d6000fd5b505050506040513d601f19601f820116820180604052508101906113d69190615a08565b6040805160a081018252868152602080820187905281830186905233606083015234608083015260008481526015825292909220815180519495509193909261142392849291019061519c565b50602082015160018201556040820151600282015560608201516003820180546001600160a01b0319166001600160a01b03909216919091179055608090910151600490910155611472613de1565b6001600160a01b031663f4cb45e58286868633346040518763ffffffff1660e01b81526004016114a796959493929190615a21565b600060405180830381600087803b1580156114c157600080fd5b505af11580156114d5573d6000803e3d6000fd5b5050505050505050565b6114ea838383613e18565b6114f2613de1565b60405163465bcf0560e01b81526001600160a01b038581166004830152848116602483015260448201849052919091169063465bcf05906064016111aa565b3361153a613dd7565b604051630a57ebcf60e11b81523060048201526001600160a01b0391909116906314afd79e9060240160206040518083038186803b15801561157b57600080fd5b505afa15801561158f573d6000803e3d6000fd5b505050506040513d601f19601f820116820180604052508101906115b3919061593a565b6001600160a01b0316146115f15760405162461bcd60e51b815260206004820152600560248201526425a218189960d91b6044820152606401610c71565b6115fa81613e9f565b50565b600061160883612895565b821061167c5760405162461bcd60e51b815260206004820152602b60248201527f455243373231456e756d657261626c653a206f776e657220696e646578206f7560448201527f74206f6620626f756e64730000000000000000000000000000000000000000006064820152608401610c71565b506001600160a01b03919091166000908152600960209081526040808320938352929052205490565b60008181526014602052604090206001015481906001600160a01b031633146117105760405162461bcd60e51b815260206004820152600560248201527f4b443132360000000000000000000000000000000000000000000000000000006044820152606401610c71565b61171982613f74565b6000828152601260205260409020600a01805460ff1916600117905561173e8261407b565b611746614086565b61174e613de1565b600083815260146020526040908190206002015490517fd2e163600000000000000000000000000000000000000000000000000000000081526004810185905260248101919091523360448201526001600160a01b03919091169063d2e1636090606401600060405180830381600087803b1580156117cc57600080fd5b505af11580156117e0573d6000803e3d6000fd5b505050506117ec613de1565b60405163465bcf0560e01b8152306004820152336024820152604481018490526001600160a01b03919091169063465bcf0590606401610f21565b33611830613dd7565b604051630a57ebcf60e11b81523060048201526001600160a01b0391909116906314afd79e9060240160206040518083038186803b15801561187157600080fd5b505afa158015611885573d6000803e3d6000fd5b505050506040513d601f19601f820116820180604052508101906118a9919061593a565b6001600160a01b0316146118e75760405162461bcd60e51b815260206004820152600560248201526425a218189960d91b6044820152606401610c71565b6040514790339082156108fc029083906000818181858888f19350505050158015611916573d6000803e3d6000fd5b5061191f613de1565b6001600160a01b031663279862cb826040518263ffffffff1660e01b815260040161194c91815260200190565b600060405180830381600087803b15801561196657600080fd5b505af115801561197a573d6000803e3d6000fd5b5050505050565b6114ea8383836140cd565b6010546040517f5661756c7400000000000000000000000000000000000000000000000000000060208201526000916001600160a01b031690638eaa6ac0906025015b604051602081830303815290604052805190602001206040518263ffffffff1660e01b8152600401611a0391815260200190565b60206040518083038186803b158015611a1b57600080fd5b505afa158015611a2f573d6000803e3d6000fd5b505050506040513d601f19601f82011682018060405250810190611a53919061593a565b905090565b33611a61613dd7565b604051630a57ebcf60e11b81523060048201526001600160a01b0391909116906314afd79e9060240160206040518083038186803b158015611aa257600080fd5b505afa158015611ab6573d6000803e3d6000fd5b505050506040513d601f19601f82011682018060405250810190611ada919061593a565b6001600160a01b031614611b185760405162461bcd60e51b815260206004820152600560248201526425a218189960d91b6044820152606401610c71565b600082815260156020526040808220815160a08101909252805482908290611b3f906158ba565b80601f0160208091040260200160405190810160405280929190818152602001828054611b6b906158ba565b8015611bb85780601f10611b8d57610100808354040283529160200191611bb8565b820191906000526020600020905b815481529060010190602001808311611b9b57829003601f168201915b5050509183525050600182015460208201526002820154604082015260038201546001600160a01b039081166060808401919091526004909301546080909201919091529082015191925016611c505760405162461bcd60e51b815260206004820152600560248201527f4b443131350000000000000000000000000000000000000000000000000000006044820152606401610c71565b611c678160000151826020015183604001516140e8565b60408051610160810182523081528251602080830191825282840186905242606084018190526080808501919091528186015160a08501528585015160c0850152600360e085015285018051610100850152516101208401526001610140840181905260008881526012835294909420835181546001600160a01b0319166001600160a01b039091161781559151805193948594611d0c93918501929091019061519c565b5060408201518051611d2891600284019160209091019061519c565b50606082015181600301556080820151816004015560a0820151816005015560c0820151816006015560e08201518160070160006101000a81548160ff02191690836003811115611d7b57611d7b61570a565b02179055506101008201516008820155610120820151600982015561014090910151600a909101805460ff1916911515919091179055611dbb84846143b7565b611dc3614086565b611dcb613de1565b6001600160a01b0316630ca82afb858460000151868660200151876040015188608001516040518763ffffffff1660e01b8152600401611e1096959493929190615a68565b600060405180830381600087803b158015611e2a57600080fd5b505af1158015611e3e573d6000803e3d6000fd5b50505050611e4a613de1565b60405163465bcf0560e01b815260006004820152306024820152604481018690526001600160a01b03919091169063465bcf05906064016114a7565b33611e8f613dd7565b604051630a57ebcf60e11b81523060048201526001600160a01b0391909116906314afd79e9060240160206040518083038186803b158015611ed057600080fd5b505afa158015611ee4573d6000803e3d6000fd5b505050506040513d601f19601f82011682018060405250810190611f08919061593a565b6001600160a01b03161415611f475760405162461bcd60e51b815260206004820152600560248201526412d10c0c4d60da1b6044820152606401610c71565b60026016541415611f9a5760405162461bcd60e51b815260206004820152601f60248201527f5265656e7472616e637947756172643a207265656e7472616e742063616c6c006044820152606401610c71565b6002601655611fa8816143e0565b611fb1816144c6565b5060408051606081018252828152336020808301918252348385019081526000868152601490925293902091518255516001820180546001600160a01b0319166001600160a01b039092169190911790559051600290910155612012613de1565b6040517f9e7e11d7000000000000000000000000000000000000000000000000000000008152600481018390523460248201523360448201526001600160a01b039190911690639e7e11d790606401600060405180830381600087803b15801561207b57600080fd5b505af115801561208f573d6000803e3d6000fd5b50506001601655505050565b336120a4613dd7565b604051630a57ebcf60e11b81523060048201526001600160a01b0391909116906314afd79e9060240160206040518083038186803b1580156120e557600080fd5b505afa1580156120f9573d6000803e3d6000fd5b505050506040513d601f19601f8201168201806040525081019061211d919061593a565b6001600160a01b03161461215b5760405162461bcd60e51b815260206004820152600560248201526425a218189960d91b6044820152606401610c71565b6000818152601260205260409020546001600160a01b03166121a75760405162461bcd60e51b815260206004820152600560248201526412d10c4c4d60da1b6044820152606401610c71565b306121b182612801565b6001600160a01b0316146121ef5760405162461bcd60e51b81526020600482015260056024820152644b4431323160d81b6044820152606401610c71565b6121f8816144c6565b50600081815260126020526040812080546001600160a01b0319168155906122236001830182615220565b612231600283016000615220565b5060006003820181905560048201819055600582018190556006820181905560078201805460ff19908116909155600883018290556009830191909155600a909101805490911690556122838161455f565b61228b614590565b6001600160a01b0316634b455a51826040518263ffffffff1660e01b81526004016122b891815260200190565b600060405180830381600087803b1580156122d257600080fd5b505af11580156122e6573d6000803e3d6000fd5b505050506122f2613de1565b6001600160a01b031663ccb55a98826040518263ffffffff1660e01b815260040161231f91815260200190565b600060405180830381600087803b15801561233957600080fd5b505af115801561234d573d6000803e3d6000fd5b50505050612359613de1565b60405163465bcf0560e01b815230600482015260006024820152604481018390526001600160a01b03919091169063465bcf059060640161194c565b60006123a0600b5490565b82106124145760405162461bcd60e51b815260206004820152602c60248201527f455243373231456e756d657261626c653a20676c6f62616c20696e646578206f60448201527f7574206f6620626f756e647300000000000000000000000000000000000000006064820152608401610c71565b600b828154811061242757612427615ab2565b90600052602060002001549050919050565b6060600061244683613985565b905060005b81518110156127505760006012600084848151811061246c5761246c615ab2565b60200260200101518152602001908152602001600020604051806101600160405290816000820160009054906101000a90046001600160a01b03166001600160a01b03166001600160a01b031681526020016001820180546124cd906158ba565b80601f01602080910402602001604051908101604052809291908181526020018280546124f9906158ba565b80156125465780601f1061251b57610100808354040283529160200191612546565b820191906000526020600020905b81548152906001019060200180831161252957829003601f168201915b5050505050815260200160028201805461255f906158ba565b80601f016020809104026020016040519081016040528092919081815260200182805461258b906158ba565b80156125d85780601f106125ad576101008083540402835291602001916125d8565b820191906000526020600020905b8154815290600101906020018083116125bb57829003601f168201915b50505091835250506003828101546020830152600483015460408301526005830154606083015260068301546080830152600783015460a09092019160ff16908111156126275761262761570a565b60038111156126385761263861570a565b81526008820154602082015260098201546040820152600a9091015460ff1615156060909101529050428160a00151111580156126795750428160c0015110155b1561273d57600f600084848151811061269457612694615ab2565b6020026020010151815260200190815260200160002080546126b5906158ba565b80601f01602080910402602001604051908101604052809291908181526020018280546126e1906158ba565b801561272e5780601f106127035761010080835404028352916020019161272e565b820191906000526020600020905b81548152906001019060200180831161271157829003601f168201915b50505050509350505050919050565b508061274881615ade565b91505061244b565b505060408051602081019091526000815292915050565b600d6020526000908152604090208054612780906158ba565b80601f01602080910402602001604051908101604052809291908181526020018280546127ac906158ba565b80156127f95780601f106127ce576101008083540402835291602001916127f9565b820191906000526020600020905b8154815290600101906020018083116127dc57829003601f168201915b505050505081565b6000818152600560205260408120546001600160a01b031680610ae15760405162461bcd60e51b815260206004820152600560248201526412d10c4c4d60da1b6044820152606401610c71565b6010546040517f4d6564696152656769737472790000000000000000000000000000000000000060208201526000916001600160a01b031690638eaa6ac090602d016119cf565b60006001600160a01b0382166129135760405162461bcd60e51b815260206004820152602a60248201527f4552433732313a2062616c616e636520717565727920666f7220746865207a6560448201527f726f2061646472657373000000000000000000000000000000000000000000006064820152608401610c71565b506001600160a01b031660009081526006602052604090205490565b33612938613dd7565b604051630a57ebcf60e11b81523060048201526001600160a01b0391909116906314afd79e9060240160206040518083038186803b15801561297957600080fd5b505afa15801561298d573d6000803e3d6000fd5b505050506040513d601f19601f820116820180604052508101906129b1919061593a565b6001600160a01b0316146129ef5760405162461bcd60e51b815260206004820152600560248201526425a218189960d91b6044820152606401610c71565b6000828152600d602052604081208054612a08906158ba565b80601f0160208091040260200160405190810160405280929190818152602001828054612a34906158ba565b8015612a815780601f10612a5657610100808354040283529160200191612a81565b820191906000526020600020905b815481529060010190602001808311612a6457829003601f168201915b50505050509050805160001415612ac25760405162461bcd60e51b815260206004820152600560248201526404b443133360dc1b6044820152606401610c71565b6000838152600e602090815260409091208351612ae19285019061519c565b50612aea613de1565b6001600160a01b0316636422b7aa8483856040518463ffffffff1660e01b81526004016111aa93929190615af9565b60008181526012602090815260408083208151610160810190925280546001600160a01b03168252600181018054859484019190612b56906158ba565b80601f0160208091040260200160405190810160405280929190818152602001828054612b82906158ba565b8015612bcf5780601f10612ba457610100808354040283529160200191612bcf565b820191906000526020600020905b815481529060010190602001808311612bb257829003601f168201915b50505050508152602001600282018054612be8906158ba565b80601f0160208091040260200160405190810160405280929190818152602001828054612c14906158ba565b8015612c615780601f10612c3657610100808354040283529160200191612c61565b820191906000526020600020905b815481529060010190602001808311612c4457829003601f168201915b50505091835250506003828101546020830152600483015460408301526005830154606083015260068301546080830152600783015460a09092019160ff1690811115612cb057612cb061570a565b6003811115612cc157612cc161570a565b81526008820154602082015260098201546040820152600a9091015460ff161515606090910152905060008160e001516003811115612d0257612d0261570a565b1415612d1357610100015192915050565b60018160e001516003811115612d2b57612d2b61570a565b1415612d955780606001518160800151612d459190615b2e565b6060820151612d549042615b2e565b826101000151836101200151612d6a9190615b2e565b612d749190615b45565b612d7e9190615b64565b816101200151612d8e9190615b2e565b9392505050565b60028160e001516003811115612dad57612dad61570a565b1415612dca57505060009081526014602052604090206002015490565b60038160e001516003811115612de257612de261570a565b1415612dff57505060009081526015602052604090206004015490565b60405162461bcd60e51b815260206004820152600960248201527f6e6f7420657869737400000000000000000000000000000000000000000000006044820152606401610c71565b33612e50613dd7565b604051630a57ebcf60e11b81523060048201526001600160a01b0391909116906314afd79e9060240160206040518083038186803b158015612e9157600080fd5b505afa158015612ea5573d6000803e3d6000fd5b505050506040513d601f19601f82011682018060405250810190612ec9919061593a565b6001600160a01b031614612f075760405162461bcd60e51b815260206004820152600560248201526425a218189960d91b6044820152606401610c71565b428511612f565760405162461bcd60e51b815260206004820152600560248201527f4b443131310000000000000000000000000000000000000000000000000000006044820152606401610c71565b838510612fa55760405162461bcd60e51b815260206004820152600560248201527f4b443131320000000000000000000000000000000000000000000000000000006044820152606401610c71565b828410612fdc5760405162461bcd60e51b81526020600482015260056024820152644b4431313360d81b6044820152606401610c71565b601187604051612fec91906159c7565b9081526040519081900360200190205460ff1661300c5761300c87613e9f565b6130178785856140e8565b6040516303fb4aab60e41b8152600090735D1DD9f4232D8Bd861d0A50f882537C3871e4A4190633fb4aab090613055908b90899089906004016159e3565b60206040518083038186803b15801561306d57600080fd5b505af4158015613081573d6000803e3d6000fd5b505050506040513d601f19601f820116820180604052508101906130a59190615a08565b90506013886040516130b791906159c7565b90815260408051602092819003830181208054600181018255600091825284822001859055610160820183523082529281018b9052908101899052606081014281526020018881526020018781526020018681526020018560038111156131205761312061570a565b8152602001848152602001600081526020016000151581525090506131448161459a565b6101208201526000828152601260209081526040909120825181546001600160a01b0319166001600160a01b03909116178155818301518051849361319092600185019291019061519c565b50604082015180516131ac91600284019160209091019061519c565b50606082015181600301556080820151816004015560a0820151816005015560c0820151816006015560e08201518160070160006101000a81548160ff021916908360038111156131ff576131ff61570a565b02179055506101008201516008820155610120820151600982015561014090910151600a909101805460ff191691151591909117905561323f82896143b7565b613247614590565b6001600160a01b031663979c249183836040518363ffffffff1660e01b8152600401613274929190615b86565b600060405180830381600087803b15801561328e57600080fd5b505af11580156132a2573d6000803e3d6000fd5b505050506132ae613de1565b6001600160a01b0316637bab635a838b8b428c8c8c8c8c6040518a63ffffffff1660e01b81526004016132e999989796959493929190615c54565b600060405180830381600087803b15801561330357600080fd5b505af1158015613317573d6000803e3d6000fd5b50505050613323613de1565b60405163465bcf0560e01b815260006004820152306024820152604481018490526001600160a01b03919091169063465bcf0590606401600060405180830381600087803b15801561337457600080fd5b505af1158015613388573d6000803e3d6000fd5b50505050505050505050505050565b601054604080517f8da5cb5b00000000000000000000000000000000000000000000000000000000815290516000926001600160a01b031691638da5cb5b916004808301926020929190829003018186803b158015611a1b57600080fd5b6010546040517f4d65646961466163746f7279000000000000000000000000000000000000000060208201526000916001600160a01b031690638eaa6ac090602c016119cf565b606060028054610af6906158ba565b6001600160a01b0382163314156134a45760405162461bcd60e51b815260206004820152601960248201527f4552433732313a20617070726f766520746f2063616c6c6572000000000000006044820152606401610c71565b3360008181526008602090815260408083206001600160a01b03871680855290835292819020805460ff191686151590811790915590519081529192917f17307eab39ab6107e8899845ad3d59bd9653f200f220920489ca2b5937696c31910160405180910390a35050565b600e6020526000908152604090208054612780906158ba565b601260205260009081526040902080546001820180546001600160a01b039092169291613555906158ba565b80601f0160208091040260200160405190810160405280929190818152602001828054613581906158ba565b80156135ce5780601f106135a3576101008083540402835291602001916135ce565b820191906000526020600020905b8154815290600101906020018083116135b157829003601f168201915b5050505050908060020180546135e3906158ba565b80601f016020809104026020016040519081016040528092919081815260200182805461360f906158ba565b801561365c5780601f106136315761010080835404028352916020019161365c565b820191906000526020600020905b81548152906001019060200180831161363f57829003601f168201915b50505060038401546004850154600586015460068701546007880154600889015460098a0154600a909a015498999598949750929550909360ff918216939091168b565b6136aa3383614647565b61371c5760405162461bcd60e51b815260206004820152603160248201527f4552433732313a207472616e736665722063616c6c6572206973206e6f74206f60448201527f776e6572206e6f7220617070726f7665640000000000000000000000000000006064820152608401610c71565b6137288484848461473a565b50505050565b6040516303fb4aab60e41b8152600090735D1DD9f4232D8Bd861d0A50f882537C3871e4A4190633fb4aab09061376c908790879087906004016159e3565b60206040518083038186803b15801561378457600080fd5b505af4158015613798573d6000803e3d6000fd5b505050506040513d601f19601f820116820180604052508101906137bc9190615a08565b949350505050565b6000818152600560205260409020546060906001600160a01b03166138515760405162461bcd60e51b815260206004820152602f60248201527f4552433732314d657461646174613a2055524920717565727920666f72206e6f60448201527f6e6578697374656e7420746f6b656e00000000000000000000000000000000006064820152608401610c71565b600060038054613860906158ba565b9050116139035760008281526004602052604090208054613880906158ba565b80601f01602080910402602001604051908101604052809291908181526020018280546138ac906158ba565b80156138f95780601f106138ce576101008083540402835291602001916138f9565b820191906000526020600020905b8154815290600101906020018083116138dc57829003601f168201915b5050505050610ae1565b600360046000848152602001908152602001600020604051602001613929929190615d59565b60405160208183030381529060405292915050565b6010546040517f4164506f6f6c000000000000000000000000000000000000000000000000000060208201526000916001600160a01b031690638eaa6ac0906026016119cf565b606060138260405161399791906159c7565b90815260408051918290036020908101832080548083028501830190935282845291908301828280156139e957602002820191906000526020600020905b8154815260200190600101908083116139d5575b50505050509050919050565b336139ff83612801565b6001600160a01b031614613a3d5760405162461bcd60e51b815260206004820152600560248201526425a218189960d91b6044820152606401610c71565b613a4782826147c3565b613a4f613de1565b6001600160a01b0316635bcefb5383836040518363ffffffff1660e01b8152600401610f219291906159ae565b33613a85613dd7565b604051630a57ebcf60e11b81523060048201526001600160a01b0391909116906314afd79e9060240160206040518083038186803b158015613ac657600080fd5b505afa158015613ada573d6000803e3d6000fd5b505050506040513d601f19601f82011682018060405250810190613afe919061593a565b6001600160a01b03161415613b3d5760405162461bcd60e51b815260206004820152600560248201526412d10c0c4d60da1b6044820152606401610c71565b613b46816147e2565b6000818152601260205260409020600a01805460ff19166001179055613b6b8161407b565b613b73614086565b613b7b613de1565b6040517f385c5521000000000000000000000000000000000000000000000000000000008152600481018390523460248201523360448201526001600160a01b03919091169063385c552190606401600060405180830381600087803b158015613be457600080fd5b505af1158015613bf8573d6000803e3d6000fd5b50505050613c04613de1565b60405163465bcf0560e01b8152306004820152336024820152604481018390526001600160a01b03919091169063465bcf059060640161194c565b33613c48613dd7565b604051630a57ebcf60e11b81523060048201526001600160a01b0391909116906314afd79e9060240160206040518083038186803b158015613c8957600080fd5b505afa158015613c9d573d6000803e3d6000fd5b505050506040513d601f19601f82011682018060405250810190613cc1919061593a565b6001600160a01b03161415613d005760405162461bcd60e51b815260206004820152600560248201526412d10c0c4d60da1b6044820152606401610c71565b613b46816148e1565b6010546040517f4576656e74456d6974746572000000000000000000000000000000000000000060208201526000916001600160a01b031690638eaa6ac090602c016119cf565b600f6020526000908152604090208054612780906158ba565b600081815260076020526040902080546001600160a01b0319166001600160a01b0384169081179091558190613d9e82612801565b6001600160a01b03167f8c5be1e5ebec7d5bd14f71427d1e84f3dd0314c0f7b2291e5b200ac8c7c3b92560405160405180910390a45050565b6000611a5361284e565b6000611a53613d09565b6000828152600f602090815260409091208251613e0a9284019061519c565b50613e14826149e6565b5050565b613e223382614647565b613e945760405162461bcd60e51b815260206004820152603160248201527f4552433732313a207472616e736665722063616c6c6572206973206e6f74206f60448201527f776e6572206e6f7220617070726f7665640000000000000000000000000000006064820152608401610c71565b610bf7838383614a0e565b601181604051613eaf91906159c7565b9081526040519081900360200190205460ff1615613f0f5760405162461bcd60e51b815260206004820152600560248201527f4b443130300000000000000000000000000000000000000000000000000000006044820152606401610c71565b6001601182604051613f2191906159c7565b908152604051908190036020019020805491151560ff19909216919091179055613f49613de1565b6001600160a01b03166378689c64826040518263ffffffff1660e01b815260040161194c919061534f565b600260008281526012602052604090206007015460ff166003811115613f9c57613f9c61570a565b14613fd15760405162461bcd60e51b815260206004820152600560248201526412d10c4c8d60da1b6044820152606401610c71565b6000818152601260205260409020600a015460ff161561401b5760405162461bcd60e51b81526020600482015260056024820152644b4431323160d81b6044820152606401610c71565b42600082815260126020526040902060040154106115fa5760405162461bcd60e51b815260206004820152600560248201527f4b443132350000000000000000000000000000000000000000000000000000006044820152606401610c71565b6115fa303383614a0e565b61408e61198c565b6001600160a01b03166108fc6140a5600a34615b64565b6040518115909202916000818181858888f193505050501580156115fa573d6000803e3d6000fd5b610bf7838383604051806020016040528060008152506136a0565b60005b6013846040516140fb91906159c7565b908152604051908190036020019020548110156137285760006012600060138760405161412891906159c7565b9081526020016040518091039020848154811061414757614147615ab2565b90600052602060002001548152602001908152602001600020604051806101600160405290816000820160009054906101000a90046001600160a01b03166001600160a01b03166001600160a01b031681526020016001820180546141ab906158ba565b80601f01602080910402602001604051908101604052809291908181526020018280546141d7906158ba565b80156142245780601f106141f957610100808354040283529160200191614224565b820191906000526020600020905b81548152906001019060200180831161420757829003601f168201915b5050505050815260200160028201805461423d906158ba565b80601f0160208091040260200160405190810160405280929190818152602001828054614269906158ba565b80156142b65780601f1061428b576101008083540402835291602001916142b6565b820191906000526020600020905b81548152906001019060200180831161429957829003601f168201915b50505091835250506003828101546020830152600483015460408301526005830154606083015260068301546080830152600783015460a09092019160ff16908111156143055761430561570a565b60038111156143165761431661570a565b81526008820154602082015260098201546040820152600a9091015460ff16151560609091015260a081015160c08201519192506143579186918691614be6565b156143a45760405162461bcd60e51b815260206004820152600560248201527f4b443131300000000000000000000000000000000000000000000000000000006044820152606401610c71565b50806143af81615ade565b9150506140eb565b6143c13083614bff565b60008281526004602090815260409091208251610bf79284019061519c565b600260008281526012602052604090206007015460ff1660038111156144085761440861570a565b1461443d5760405162461bcd60e51b815260206004820152600560248201526412d10c4c8d60da1b6044820152606401610c71565b6000818152601260205260409020600a015460ff16156144875760405162461bcd60e51b81526020600482015260056024820152644b4431323160d81b6044820152606401610c71565b3461449182612b19565b106115fa5760405162461bcd60e51b815260206004820152600560248201526425a218991960d91b6044820152606401610c71565b6000600260008381526012602052604090206007015460ff1660038111156144f0576144f061570a565b14801561451657506000828152601460205260409020600101546001600160a01b031615155b1561455a57600082815260146020526040808220600181015460029091015491516001600160a01b039091169282156108fc02929190818181858888f19450505050505b919050565b61456881614d4d565b604080516020808201808452600080845285815260049092529290209051613e14929061519c565b6000611a5361393e565b6000808260e0015160038111156145b3576145b361570a565b14156145c25750610100015190565b60018260e0015160038111156145da576145da61570a565b14156145f157610100820151610ae190600a615b45565b60028260e0015160038111156146095761460961570a565b14156146185750610100015190565b60038260e0015160038111156146305761463061570a565b141561463f5750610100015190565b506000919050565b6000818152600560205260408120546001600160a01b03166146c05760405162461bcd60e51b815260206004820152602c60248201527f4552433732313a206f70657261746f7220717565727920666f72206e6f6e657860448201526b34b9ba32b73a103a37b5b2b760a11b6064820152608401610c71565b60006146cb83612801565b9050806001600160a01b0316846001600160a01b031614806147065750836001600160a01b03166146fb84610bfc565b6001600160a01b0316145b806137bc57506001600160a01b0380821660009081526008602090815260408083209388168352929052205460ff166137bc565b614745848484614a0e565b61475184848484614df4565b6137285760405162461bcd60e51b815260206004820152603260248201527f4552433732313a207472616e7366657220746f206e6f6e20455243373231526560448201527f63656976657220696d706c656d656e74657200000000000000000000000000006064820152608401610c71565b6000828152600d602090815260409091208251610bf79284019061519c565b600160008281526012602052604090206007015460ff16600381111561480a5761480a61570a565b146148575760405162461bcd60e51b815260206004820152600560248201527f4b443132330000000000000000000000000000000000000000000000000000006044820152606401610c71565b6000818152601260205260409020600a015460ff16156148a15760405162461bcd60e51b81526020600482015260056024820152644b4431323160d81b6044820152606401610c71565b346148ab82612b19565b11156115fa5760405162461bcd60e51b815260206004820152600560248201526425a218991960d91b6044820152606401610c71565b60008181526012602052604081206007015460ff1660038111156149075761490761570a565b146149545760405162461bcd60e51b815260206004820152600560248201527f4b443132300000000000000000000000000000000000000000000000000000006044820152606401610c71565b6000818152601260205260409020600a015460ff161561499e5760405162461bcd60e51b81526020600482015260056024820152644b4431323160d81b6044820152606401610c71565b60008181526012602052604090206008015434146115fa5760405162461bcd60e51b815260206004820152600560248201526425a218991960d91b6044820152606401610c71565b6040805160208082018084526000808452858152600d9092529290209051613e14929061519c565b826001600160a01b0316614a2182612801565b6001600160a01b031614614a9d5760405162461bcd60e51b815260206004820152602960248201527f4552433732313a207472616e73666572206f6620746f6b656e2074686174206960448201527f73206e6f74206f776e00000000000000000000000000000000000000000000006064820152608401610c71565b6001600160a01b038216614b185760405162461bcd60e51b8152602060048201526024808201527f4552433732313a207472616e7366657220746f20746865207a65726f2061646460448201527f72657373000000000000000000000000000000000000000000000000000000006064820152608401610c71565b614b23838383614f54565b614b2e600082613d69565b6001600160a01b0383166000908152600660205260408120805460019290614b57908490615b2e565b90915550506001600160a01b0382166000908152600660205260408120805460019290614b85908490615d6e565b909155505060008181526005602052604080822080546001600160a01b0319166001600160a01b0386811691821790925591518493918716917fddf252ad1be2c89b69c2b068fc378daa952ba7f163c4a11628f55a4df523b3ef91a4505050565b600083831180614bf557508482105b1595945050505050565b6001600160a01b038216614c555760405162461bcd60e51b815260206004820181905260248201527f4552433732313a206d696e7420746f20746865207a65726f20616464726573736044820152606401610c71565b6000818152600560205260409020546001600160a01b031615614cba5760405162461bcd60e51b815260206004820152601c60248201527f4552433732313a20746f6b656e20616c7265616479206d696e746564000000006044820152606401610c71565b614cc660008383614f54565b6001600160a01b0382166000908152600660205260408120805460019290614cef908490615d6e565b909155505060008181526005602052604080822080546001600160a01b0319166001600160a01b03861690811790915590518392907fddf252ad1be2c89b69c2b068fc378daa952ba7f163c4a11628f55a4df523b3ef908290a45050565b6000614d5882612801565b9050614d6681600084614f54565b614d71600083613d69565b6001600160a01b0381166000908152600660205260408120805460019290614d9a908490615b2e565b909155505060008281526005602052604080822080546001600160a01b0319169055518391906001600160a01b038416907fddf252ad1be2c89b69c2b068fc378daa952ba7f163c4a11628f55a4df523b3ef908390a45050565b60006001600160a01b0384163b15614f4c57604051630a85bd0160e11b81526001600160a01b0385169063150b7a0290614e38903390899088908890600401615d86565b602060405180830381600087803b158015614e5257600080fd5b505af1925050508015614e82575060408051601f3d908101601f19168201909252614e7f91810190615db8565b60015b614f32573d808015614eb0576040519150601f19603f3d011682016040523d82523d6000602084013e614eb5565b606091505b508051614f2a5760405162461bcd60e51b815260206004820152603260248201527f4552433732313a207472616e7366657220746f206e6f6e20455243373231526560448201527f63656976657220696d706c656d656e74657200000000000000000000000000006064820152608401610c71565b805181602001fd5b6001600160e01b031916630a85bd0160e11b1490506137bc565b5060016137bc565b6001600160a01b038316614faf57614faa81600b80546000838152600c60205260408120829055600182018355919091527f0175b7a638427703f0dbe7bb9bbf987a2551717b34e79f33b5b1008d1fa01db90155565b614fd2565b816001600160a01b0316836001600160a01b031614614fd257614fd2838261500c565b6001600160a01b038216614fe957610bf7816150a9565b826001600160a01b0316826001600160a01b031614610bf757610bf78282615158565b6000600161501984612895565b6150239190615b2e565b6000838152600a6020526040902054909150808214615076576001600160a01b03841660009081526009602090815260408083208584528252808320548484528184208190558352600a90915290208190555b506000918252600a602090815260408084208490556001600160a01b039094168352600981528383209183525290812055565b600b546000906150bb90600190615b2e565b6000838152600c6020526040812054600b80549394509092849081106150e3576150e3615ab2565b9060005260206000200154905080600b838154811061510457615104615ab2565b6000918252602080832090910192909255828152600c9091526040808220849055858252812055600b80548061513c5761513c615dd5565b6001900381819060005260206000200160009055905550505050565b600061516383612895565b6001600160a01b0390931660009081526009602090815260408083208684528252808320859055938252600a9052919091209190915550565b8280546151a8906158ba565b90600052602060002090601f0160209004810192826151ca5760008555615210565b82601f106151e357805160ff1916838001178555615210565b82800160010185558215615210579182015b828111156152105782518255916020019190600101906151f5565b5061521c929150615256565b5090565b50805461522c906158ba565b6000825580601f1061523c575050565b601f0160209004906000526020600020908101906115fa91905b5b8082111561521c5760008155600101615257565b60006020828403121561527d57600080fd5b5035919050565b60005b8381101561529f578181015183820152602001615287565b838111156137285750506000910152565b600081518084526152c8816020860160208601615284565b601f01601f19169290920160200192915050565b60a0815260006152ef60a08301886152b0565b90508560208301528460408301526001600160a01b03841660608301528260808301529695505050505050565b6001600160e01b0319811681146115fa57600080fd5b60006020828403121561534457600080fd5b8135612d8e8161531c565b602081526000612d8e60208301846152b0565b634e487b7160e01b600052604160045260246000fd5b600067ffffffffffffffff8084111561539357615393615362565b604051601f8501601f19908116603f011681019082821181831017156153bb576153bb615362565b816040528093508581528686860111156153d457600080fd5b858560208301376000602087830101525050509392505050565b600082601f8301126153ff57600080fd5b612d8e83833560208501615378565b6001600160a01b03811681146115fa57600080fd5b60008060006060848603121561543857600080fd5b833567ffffffffffffffff8082111561545057600080fd5b61545c878388016153ee565b9450602086013591508082111561547257600080fd5b5061547f868287016153ee565b92505060408401356154908161540e565b809150509250925092565b600080604083850312156154ae57600080fd5b82356154b98161540e565b946020939093013593505050565b600080604083850312156154da57600080fd5b82356154e58161540e565b9150602083013567ffffffffffffffff81111561550157600080fd5b61550d858286016153ee565b9150509250929050565b60008060006060848603121561552c57600080fd5b833567ffffffffffffffff81111561554357600080fd5b61554f868287016153ee565b9660208601359650604090950135949350505050565b60008060006060848603121561557a57600080fd5b83356155858161540e565b925060208401356155958161540e565b929592945050506040919091013590565b6000602082840312156155b857600080fd5b813567ffffffffffffffff8111156155cf57600080fd5b6137bc848285016153ee565b600080604083850312156155ee57600080fd5b82359150602083013567ffffffffffffffff81111561550157600080fd5b60006020828403121561561e57600080fd5b8135612d8e8161540e565b600080600080600080600060e0888a03121561564457600080fd5b873567ffffffffffffffff8082111561565c57600080fd5b6156688b838c016153ee565b985060208a013591508082111561567e57600080fd5b5061568b8a828b016153ee565b96505060408801359450606088013593506080880135925060a0880135600481106156b557600080fd5b8092505060c0880135905092959891949750929550565b600080604083850312156156df57600080fd5b82356156ea8161540e565b9150602083013580151581146156ff57600080fd5b809150509250929050565b634e487b7160e01b600052602160045260246000fd5b6004811061573e57634e487b7160e01b600052602160045260246000fd5b9052565b60006101606001600160a01b038e1683528060208401526157658184018e6152b0565b90508281036040840152615779818d6152b0565b9150508960608301528860808301528760a08301528660c08301526157a160e0830187615720565b84610100830152836101208301528215156101408301529c9b505050505050505050505050565b600080600080608085870312156157de57600080fd5b84356157e98161540e565b935060208501356157f98161540e565b925060408501359150606085013567ffffffffffffffff81111561581c57600080fd5b8501601f8101871361582d57600080fd5b61583c87823560208401615378565b91505092959194509250565b6020808252825182820181905260009190848201906040850190845b8181101561588057835183529284019291840191600101615864565b50909695505050505050565b6000806040838503121561589f57600080fd5b82356158aa8161540e565b915060208301356156ff8161540e565b600181811c908216806158ce57607f821691505b602082108114156158ef57634e487b7160e01b600052602260045260246000fd5b50919050565b7f4b616c6569646f5f00000000000000000000000000000000000000000000000081526000825161592d816008850160208701615284565b9190910160080192915050565b60006020828403121561594c57600080fd5b8151612d8e8161540e565b6001600160a01b03831681526040602082015260006137bc60408301846152b0565b60006001600160a01b038086168352808516602084015250606060408301526159a560608301846152b0565b95945050505050565b8281526040602082015260006137bc60408301846152b0565b600082516159d9818460208701615284565b9190910192915050565b6060815260006159f660608301866152b0565b60208301949094525060400152919050565b600060208284031215615a1a57600080fd5b5051919050565b86815260c060208201526000615a3a60c08301886152b0565b90508560408301528460608301526001600160a01b03841660808301528260a0830152979650505050505050565b86815260c060208201526000615a8160c08301886152b0565b8281036040840152615a9381886152b0565b60608401969096525050608081019290925260a0909101529392505050565b634e487b7160e01b600052603260045260246000fd5b634e487b7160e01b600052601160045260246000fd5b6000600019821415615af257615af2615ac8565b5060010190565b838152606060208201526000615b1260608301856152b0565b8281036040840152615b2481856152b0565b9695505050505050565b600082821015615b4057615b40615ac8565b500390565b6000816000190483118215151615615b5f57615b5f615ac8565b500290565b600082615b8157634e487b7160e01b600052601260045260246000fd5b500490565b82815260406020820152615ba66040820183516001600160a01b03169052565b60006020830151610160806060850152615bc46101a08501836152b0565b91506040850151603f19858403016080860152615be183826152b0565b925050606085015160a0850152608085015160c085015260a085015160e085015260c0850151610100818187015260e08701519150610120615c2581880184615720565b908701516101408781019190915290870151928601929092525084015180151561018085015250949350505050565b60006101208b8352806020840152615c6e8184018c6152b0565b90508281036040840152615c82818b6152b0565b9150508760608301528660808301528560a08301528460c0830152615caa60e0830185615720565b826101008301529a9950505050505050505050565b8054600090600181811c9080831680615cd957607f831692505b6020808410821415615cfb57634e487b7160e01b600052602260045260246000fd5b818015615d0f5760018114615d2057615d4d565b60ff19861689528489019650615d4d565b60008881526020902060005b86811015615d455781548b820152908501908301615d2c565b505084890196505b50505050505092915050565b60006137bc615d688386615cbf565b84615cbf565b60008219821115615d8157615d81615ac8565b500190565b60006001600160a01b03808716835280861660208401525083604083015260806060830152615b2460808301846152b0565b600060208284031215615dca57600080fd5b8151612d8e8161531c565b634e487b7160e01b600052603160045260246000fdfea2646970667358221220b421be0afb85151f11ddd5ddec2df518f469dc8f8662e30f2b43c5180f1c369464736f6c63430008090033",
  "deployedBytecode": "0x6080604052600436106103295760003560e01c806365045a65116101a5578063b69ef8a8116100ec578063d028bd6611610095578063d96a094a1161006f578063d96a094a1461092a578063e985e9c51461093d578063f072629114610986578063f19b82731461099b57600080fd5b8063d028bd66146108ca578063d4f6b5ec146108f7578063d86800691461091757600080fd5b8063c87b56dd116100c6578063c87b56dd1461082d578063c9cd71b51461084d578063cc889b0b1461086257600080fd5b8063b69ef8a8146107da578063b88d4fde146107ed578063c531c2361461080d57600080fd5b80638da5cb5b1161014e578063a22cb46511610128578063a22cb46514610763578063a9a86f0e14610783578063b3a0ebc9146107a357600080fd5b80638da5cb5b146107245780638f6059d61461073957806395d89b411461074e57600080fd5b80637393f2891161017f5780637393f289146106c45780637a3c4c17146106e4578063899c99891461070457600080fd5b806365045a65146106545780636a58767e1461068f57806370a08231146106a457600080fd5b80632bc4bc6811610274578063444115f61161021d5780634f6ccce7116101f75780634f6ccce7146105d457806353c14776146105f457806358ba1bb8146106145780636352211e1461063457600080fd5b8063444115f614610581578063454a2ab3146105a15780634b455a51146105b457600080fd5b80633ccfd60b1161024e5780633ccfd60b1461053757806342842e0e1461054c578063430bf08a1461056c57600080fd5b80632bc4bc68146104e45780632f745c591461050457806337df00c91461052457600080fd5b8063179bcff7116102d65780631daf7ff9116102b05780631daf7ff91461049357806323b872dd146104a657806327b7a2f5146104c657600080fd5b8063179bcff71461043457806318160ddd1461045457806319b05f491461047357600080fd5b8063077f224a11610307578063077f224a146103ba578063081812fc146103dc578063095ea7b31461041457600080fd5b806301b99e041461032e57806301ffc9a71461036857806306fdde0314610398575b600080fd5b34801561033a57600080fd5b5061034e61034936600461526b565b6109bb565b60405161035f9594939291906152dc565b60405180910390f35b34801561037457600080fd5b50610388610383366004615332565b610a7e565b604051901515815260200161035f565b3480156103a457600080fd5b506103ad610ae7565b60405161035f919061534f565b3480156103c657600080fd5b506103da6103d5366004615423565b610b79565b005b3480156103e857600080fd5b506103fc6103f736600461526b565b610bfc565b6040516001600160a01b03909116815260200161035f565b34801561042057600080fd5b506103da61042f36600461549b565b610c96565b34801561044057600080fd5b506103da61044f3660046154c7565b610dc3565b34801561046057600080fd5b50600b545b60405190815260200161035f565b34801561047f57600080fd5b506103da61048e36600461526b565b610f57565b6103da6104a1366004615517565b6111e1565b3480156104b257600080fd5b506103da6104c1366004615565565b6114df565b3480156104d257600080fd5b506010546001600160a01b03166103fc565b3480156104f057600080fd5b506103da6104ff3660046155a6565b611531565b34801561051057600080fd5b5061046561051f36600461549b565b6115fd565b6103da61053236600461526b565b6116a5565b34801561054357600080fd5b506103da611827565b34801561055857600080fd5b506103da610567366004615565565b611981565b34801561057857600080fd5b506103fc61198c565b34801561058d57600080fd5b506103da61059c3660046155db565b611a58565b6103da6105af36600461526b565b611e86565b3480156105c057600080fd5b506103da6105cf36600461526b565b61209b565b3480156105e057600080fd5b506104656105ef36600461526b565b612395565b34801561060057600080fd5b506103ad61060f3660046155a6565b612439565b34801561062057600080fd5b506103ad61062f36600461526b565b612767565b34801561064057600080fd5b506103fc61064f36600461526b565b612801565b34801561066057600080fd5b5061038861066f3660046155a6565b805160208183018101805160118252928201919093012091525460ff1681565b34801561069b57600080fd5b506103fc61284e565b3480156106b057600080fd5b506104656106bf36600461560c565b612895565b3480156106d057600080fd5b506103da6106df3660046155db565b61292f565b3480156106f057600080fd5b506104656106ff36600461526b565b612b19565b34801561071057600080fd5b506103da61071f366004615629565b612e47565b34801561073057600080fd5b506103fc613397565b34801561074557600080fd5b506103fc6133f5565b34801561075a57600080fd5b506103ad61343c565b34801561076f57600080fd5b506103da61077e3660046156cc565b61344b565b34801561078f57600080fd5b506103ad61079e36600461526b565b613510565b3480156107af57600080fd5b506107c36107be36600461526b565b613529565b60405161035f9b9a99989796959493929190615742565b3480156107e657600080fd5b5047610465565b3480156107f957600080fd5b506103da6108083660046157c8565b6136a0565b34801561081957600080fd5b50610465610828366004615517565b61372e565b34801561083957600080fd5b506103ad61084836600461526b565b6137c4565b34801561085957600080fd5b506103fc61393e565b34801561086e57600080fd5b506108a761087d36600461526b565b60146020526000908152604090208054600182015460029092015490916001600160a01b03169083565b604080519384526001600160a01b0390921660208401529082015260600161035f565b3480156108d657600080fd5b506108ea6108e53660046155a6565b613985565b60405161035f9190615848565b34801561090357600080fd5b506103da6109123660046155db565b6139f5565b6103da61092536600461526b565b613a7c565b6103da61093836600461526b565b613c3f565b34801561094957600080fd5b5061038861095836600461588c565b6001600160a01b03918216600090815260086020908152604080832093909416825291909152205460ff1690565b34801561099257600080fd5b506103fc613d09565b3480156109a757600080fd5b506103ad6109b636600461526b565b613d50565b6015602052600090815260409020805481906109d6906158ba565b80601f0160208091040260200160405190810160405280929190818152602001828054610a02906158ba565b8015610a4f5780601f10610a2457610100808354040283529160200191610a4f565b820191906000526020600020905b815481529060010190602001808311610a3257829003601f168201915b505050600184015460028501546003860154600490960154949591949093506001600160a01b03909116915085565b60006001600160e01b031982167f80ac58cd000000000000000000000000000000000000000000000000000000001480610ae157506001600160e01b031982167f5b5e139f00000000000000000000000000000000000000000000000000000000145b92915050565b606060018054610af6906158ba565b80601f0160208091040260200160405190810160405280929190818152602001828054610b22906158ba565b8015610b6f5780601f10610b4457610100808354040283529160200191610b6f565b820191906000526020600020905b815481529060010190602001808311610b5257829003601f168201915b5050505050905090565b8251610b8c90600190602086019061519c565b5082604051602001610b9e91906158f5565b60405160208183030381529060405260029080519060200190610bc292919061519c565b508151610bd690600390602085019061519c565b50601080546001600160a01b0319166001600160a01b038316179055505050565b505050565b6000818152600560205260408120546001600160a01b0316610c7a5760405162461bcd60e51b815260206004820152602c60248201527f4552433732313a20617070726f76656420717565727920666f72206e6f6e657860448201526b34b9ba32b73a103a37b5b2b760a11b60648201526084015b60405180910390fd5b506000908152600760205260409020546001600160a01b031690565b6000610ca182612801565b9050806001600160a01b0316836001600160a01b03161415610d2b5760405162461bcd60e51b815260206004820152602160248201527f4552433732313a20617070726f76616c20746f2063757272656e74206f776e6560448201527f72000000000000000000000000000000000000000000000000000000000000006064820152608401610c71565b336001600160a01b0382161480610d475750610d478133610958565b610db95760405162461bcd60e51b815260206004820152603860248201527f4552433732313a20617070726f76652063616c6c6572206973206e6f74206f7760448201527f6e6572206e6f7220617070726f76656420666f7220616c6c00000000000000006064820152608401610c71565b610bf78383613d69565b33610dcc613dd7565b604051630a57ebcf60e11b81523060048201526001600160a01b0391909116906314afd79e9060240160206040518083038186803b158015610e0d57600080fd5b505afa158015610e21573d6000803e3d6000fd5b505050506040513d601f19601f82011682018060405250810190610e45919061593a565b6001600160a01b031614610e835760405162461bcd60e51b815260206004820152600560248201526425a218189960d91b6044820152606401610c71565b610e8b613dd7565b6001600160a01b031663179bcff783836040518363ffffffff1660e01b8152600401610eb8929190615957565b600060405180830381600087803b158015610ed257600080fd5b505af1158015610ee6573d6000803e3d6000fd5b50505050610ef2613de1565b6001600160a01b031663262360133084846040518463ffffffff1660e01b8152600401610f2193929190615979565b600060405180830381600087803b158015610f3b57600080fd5b505af1158015610f4f573d6000803e3d6000fd5b505050505050565b33610f60613dd7565b604051630a57ebcf60e11b81523060048201526001600160a01b0391909116906314afd79e9060240160206040518083038186803b158015610fa157600080fd5b505afa158015610fb5573d6000803e3d6000fd5b505050506040513d601f19601f82011682018060405250810190610fd9919061593a565b6001600160a01b0316146110175760405162461bcd60e51b815260206004820152600560248201526425a218189960d91b6044820152606401610c71565b6000818152600d602052604081208054611030906158ba565b80601f016020809104026020016040519081016040528092919081815260200182805461105c906158ba565b80156110a95780601f1061107e576101008083540402835291602001916110a9565b820191906000526020600020905b81548152906001019060200180831161108c57829003601f168201915b505050505090508051600014156110ea5760405162461bcd60e51b815260206004820152600560248201526404b443133360dc1b6044820152606401610c71565b60006110f583612801565b90506111018383613deb565b611109613de1565b6001600160a01b031663746f1b2084846040518363ffffffff1660e01b81526004016111369291906159ae565b600060405180830381600087803b15801561115057600080fd5b505af1158015611164573d6000803e3d6000fd5b50505050611170613de1565b60405163465bcf0560e01b81526001600160a01b0383811660048301526000602483015260448201869052919091169063465bcf05906064015b600060405180830381600087803b1580156111c457600080fd5b505af11580156111d8573d6000803e3d6000fd5b50505050505050565b336111ea613dd7565b604051630a57ebcf60e11b81523060048201526001600160a01b0391909116906314afd79e9060240160206040518083038186803b15801561122b57600080fd5b505afa15801561123f573d6000803e3d6000fd5b505050506040513d601f19601f82011682018060405250810190611263919061593a565b6001600160a01b031614156112a25760405162461bcd60e51b815260206004820152600560248201526412d10c0c4d60da1b6044820152606401610c71565b6011836040516112b291906159c7565b9081526040519081900360200190205460ff166113115760405162461bcd60e51b815260206004820152600560248201527f4b443130310000000000000000000000000000000000000000000000000000006044820152606401610c71565b8082106113485760405162461bcd60e51b81526020600482015260056024820152644b4431313360d81b6044820152606401610c71565b6040516303fb4aab60e41b815260009073__$a79fa16630ef50be54c6520a39abca49df$__90633fb4aab090611386908790879087906004016159e3565b60206040518083038186803b15801561139e57600080fd5b505af41580156113b2573d6000803e3d6000fd5b505050506040513d601f19601f820116820180604052508101906113d69190615a08565b6040805160a081018252868152602080820187905281830186905233606083015234608083015260008481526015825292909220815180519495509193909261142392849291019061519c565b50602082015160018201556040820151600282015560608201516003820180546001600160a01b0319166001600160a01b03909216919091179055608090910151600490910155611472613de1565b6001600160a01b031663f4cb45e58286868633346040518763ffffffff1660e01b81526004016114a796959493929190615a21565b600060405180830381600087803b1580156114c157600080fd5b505af11580156114d5573d6000803e3d6000fd5b5050505050505050565b6114ea838383613e18565b6114f2613de1565b60405163465bcf0560e01b81526001600160a01b038581166004830152848116602483015260448201849052919091169063465bcf05906064016111aa565b3361153a613dd7565b604051630a57ebcf60e11b81523060048201526001600160a01b0391909116906314afd79e9060240160206040518083038186803b15801561157b57600080fd5b505afa15801561158f573d6000803e3d6000fd5b505050506040513d601f19601f820116820180604052508101906115b3919061593a565b6001600160a01b0316146115f15760405162461bcd60e51b815260206004820152600560248201526425a218189960d91b6044820152606401610c71565b6115fa81613e9f565b50565b600061160883612895565b821061167c5760405162461bcd60e51b815260206004820152602b60248201527f455243373231456e756d657261626c653a206f776e657220696e646578206f7560448201527f74206f6620626f756e64730000000000000000000000000000000000000000006064820152608401610c71565b506001600160a01b03919091166000908152600960209081526040808320938352929052205490565b60008181526014602052604090206001015481906001600160a01b031633146117105760405162461bcd60e51b815260206004820152600560248201527f4b443132360000000000000000000000000000000000000000000000000000006044820152606401610c71565b61171982613f74565b6000828152601260205260409020600a01805460ff1916600117905561173e8261407b565b611746614086565b61174e613de1565b600083815260146020526040908190206002015490517fd2e163600000000000000000000000000000000000000000000000000000000081526004810185905260248101919091523360448201526001600160a01b03919091169063d2e1636090606401600060405180830381600087803b1580156117cc57600080fd5b505af11580156117e0573d6000803e3d6000fd5b505050506117ec613de1565b60405163465bcf0560e01b8152306004820152336024820152604481018490526001600160a01b03919091169063465bcf0590606401610f21565b33611830613dd7565b604051630a57ebcf60e11b81523060048201526001600160a01b0391909116906314afd79e9060240160206040518083038186803b15801561187157600080fd5b505afa158015611885573d6000803e3d6000fd5b505050506040513d601f19601f820116820180604052508101906118a9919061593a565b6001600160a01b0316146118e75760405162461bcd60e51b815260206004820152600560248201526425a218189960d91b6044820152606401610c71565b6040514790339082156108fc029083906000818181858888f19350505050158015611916573d6000803e3d6000fd5b5061191f613de1565b6001600160a01b031663279862cb826040518263ffffffff1660e01b815260040161194c91815260200190565b600060405180830381600087803b15801561196657600080fd5b505af115801561197a573d6000803e3d6000fd5b5050505050565b6114ea8383836140cd565b6010546040517f5661756c7400000000000000000000000000000000000000000000000000000060208201526000916001600160a01b031690638eaa6ac0906025015b604051602081830303815290604052805190602001206040518263ffffffff1660e01b8152600401611a0391815260200190565b60206040518083038186803b158015611a1b57600080fd5b505afa158015611a2f573d6000803e3d6000fd5b505050506040513d601f19601f82011682018060405250810190611a53919061593a565b905090565b33611a61613dd7565b604051630a57ebcf60e11b81523060048201526001600160a01b0391909116906314afd79e9060240160206040518083038186803b158015611aa257600080fd5b505afa158015611ab6573d6000803e3d6000fd5b505050506040513d601f19601f82011682018060405250810190611ada919061593a565b6001600160a01b031614611b185760405162461bcd60e51b815260206004820152600560248201526425a218189960d91b6044820152606401610c71565b600082815260156020526040808220815160a08101909252805482908290611b3f906158ba565b80601f0160208091040260200160405190810160405280929190818152602001828054611b6b906158ba565b8015611bb85780601f10611b8d57610100808354040283529160200191611bb8565b820191906000526020600020905b815481529060010190602001808311611b9b57829003601f168201915b5050509183525050600182015460208201526002820154604082015260038201546001600160a01b039081166060808401919091526004909301546080909201919091529082015191925016611c505760405162461bcd60e51b815260206004820152600560248201527f4b443131350000000000000000000000000000000000000000000000000000006044820152606401610c71565b611c678160000151826020015183604001516140e8565b60408051610160810182523081528251602080830191825282840186905242606084018190526080808501919091528186015160a08501528585015160c0850152600360e085015285018051610100850152516101208401526001610140840181905260008881526012835294909420835181546001600160a01b0319166001600160a01b039091161781559151805193948594611d0c93918501929091019061519c565b5060408201518051611d2891600284019160209091019061519c565b50606082015181600301556080820151816004015560a0820151816005015560c0820151816006015560e08201518160070160006101000a81548160ff02191690836003811115611d7b57611d7b61570a565b02179055506101008201516008820155610120820151600982015561014090910151600a909101805460ff1916911515919091179055611dbb84846143b7565b611dc3614086565b611dcb613de1565b6001600160a01b0316630ca82afb858460000151868660200151876040015188608001516040518763ffffffff1660e01b8152600401611e1096959493929190615a68565b600060405180830381600087803b158015611e2a57600080fd5b505af1158015611e3e573d6000803e3d6000fd5b50505050611e4a613de1565b60405163465bcf0560e01b815260006004820152306024820152604481018690526001600160a01b03919091169063465bcf05906064016114a7565b33611e8f613dd7565b604051630a57ebcf60e11b81523060048201526001600160a01b0391909116906314afd79e9060240160206040518083038186803b158015611ed057600080fd5b505afa158015611ee4573d6000803e3d6000fd5b505050506040513d601f19601f82011682018060405250810190611f08919061593a565b6001600160a01b03161415611f475760405162461bcd60e51b815260206004820152600560248201526412d10c0c4d60da1b6044820152606401610c71565b60026016541415611f9a5760405162461bcd60e51b815260206004820152601f60248201527f5265656e7472616e637947756172643a207265656e7472616e742063616c6c006044820152606401610c71565b6002601655611fa8816143e0565b611fb1816144c6565b5060408051606081018252828152336020808301918252348385019081526000868152601490925293902091518255516001820180546001600160a01b0319166001600160a01b039092169190911790559051600290910155612012613de1565b6040517f9e7e11d7000000000000000000000000000000000000000000000000000000008152600481018390523460248201523360448201526001600160a01b039190911690639e7e11d790606401600060405180830381600087803b15801561207b57600080fd5b505af115801561208f573d6000803e3d6000fd5b50506001601655505050565b336120a4613dd7565b604051630a57ebcf60e11b81523060048201526001600160a01b0391909116906314afd79e9060240160206040518083038186803b1580156120e557600080fd5b505afa1580156120f9573d6000803e3d6000fd5b505050506040513d601f19601f8201168201806040525081019061211d919061593a565b6001600160a01b03161461215b5760405162461bcd60e51b815260206004820152600560248201526425a218189960d91b6044820152606401610c71565b6000818152601260205260409020546001600160a01b03166121a75760405162461bcd60e51b815260206004820152600560248201526412d10c4c4d60da1b6044820152606401610c71565b306121b182612801565b6001600160a01b0316146121ef5760405162461bcd60e51b81526020600482015260056024820152644b4431323160d81b6044820152606401610c71565b6121f8816144c6565b50600081815260126020526040812080546001600160a01b0319168155906122236001830182615220565b612231600283016000615220565b5060006003820181905560048201819055600582018190556006820181905560078201805460ff19908116909155600883018290556009830191909155600a909101805490911690556122838161455f565b61228b614590565b6001600160a01b0316634b455a51826040518263ffffffff1660e01b81526004016122b891815260200190565b600060405180830381600087803b1580156122d257600080fd5b505af11580156122e6573d6000803e3d6000fd5b505050506122f2613de1565b6001600160a01b031663ccb55a98826040518263ffffffff1660e01b815260040161231f91815260200190565b600060405180830381600087803b15801561233957600080fd5b505af115801561234d573d6000803e3d6000fd5b50505050612359613de1565b60405163465bcf0560e01b815230600482015260006024820152604481018390526001600160a01b03919091169063465bcf059060640161194c565b60006123a0600b5490565b82106124145760405162461bcd60e51b815260206004820152602c60248201527f455243373231456e756d657261626c653a20676c6f62616c20696e646578206f60448201527f7574206f6620626f756e647300000000000000000000000000000000000000006064820152608401610c71565b600b828154811061242757612427615ab2565b90600052602060002001549050919050565b6060600061244683613985565b905060005b81518110156127505760006012600084848151811061246c5761246c615ab2565b60200260200101518152602001908152602001600020604051806101600160405290816000820160009054906101000a90046001600160a01b03166001600160a01b03166001600160a01b031681526020016001820180546124cd906158ba565b80601f01602080910402602001604051908101604052809291908181526020018280546124f9906158ba565b80156125465780601f1061251b57610100808354040283529160200191612546565b820191906000526020600020905b81548152906001019060200180831161252957829003601f168201915b5050505050815260200160028201805461255f906158ba565b80601f016020809104026020016040519081016040528092919081815260200182805461258b906158ba565b80156125d85780601f106125ad576101008083540402835291602001916125d8565b820191906000526020600020905b8154815290600101906020018083116125bb57829003601f168201915b50505091835250506003828101546020830152600483015460408301526005830154606083015260068301546080830152600783015460a09092019160ff16908111156126275761262761570a565b60038111156126385761263861570a565b81526008820154602082015260098201546040820152600a9091015460ff1615156060909101529050428160a00151111580156126795750428160c0015110155b1561273d57600f600084848151811061269457612694615ab2565b6020026020010151815260200190815260200160002080546126b5906158ba565b80601f01602080910402602001604051908101604052809291908181526020018280546126e1906158ba565b801561272e5780601f106127035761010080835404028352916020019161272e565b820191906000526020600020905b81548152906001019060200180831161271157829003601f168201915b50505050509350505050919050565b508061274881615ade565b91505061244b565b505060408051602081019091526000815292915050565b600d6020526000908152604090208054612780906158ba565b80601f01602080910402602001604051908101604052809291908181526020018280546127ac906158ba565b80156127f95780601f106127ce576101008083540402835291602001916127f9565b820191906000526020600020905b8154815290600101906020018083116127dc57829003601f168201915b505050505081565b6000818152600560205260408120546001600160a01b031680610ae15760405162461bcd60e51b815260206004820152600560248201526412d10c4c4d60da1b6044820152606401610c71565b6010546040517f4d6564696152656769737472790000000000000000000000000000000000000060208201526000916001600160a01b031690638eaa6ac090602d016119cf565b60006001600160a01b0382166129135760405162461bcd60e51b815260206004820152602a60248201527f4552433732313a2062616c616e636520717565727920666f7220746865207a6560448201527f726f2061646472657373000000000000000000000000000000000000000000006064820152608401610c71565b506001600160a01b031660009081526006602052604090205490565b33612938613dd7565b604051630a57ebcf60e11b81523060048201526001600160a01b0391909116906314afd79e9060240160206040518083038186803b15801561297957600080fd5b505afa15801561298d573d6000803e3d6000fd5b505050506040513d601f19601f820116820180604052508101906129b1919061593a565b6001600160a01b0316146129ef5760405162461bcd60e51b815260206004820152600560248201526425a218189960d91b6044820152606401610c71565b6000828152600d602052604081208054612a08906158ba565b80601f0160208091040260200160405190810160405280929190818152602001828054612a34906158ba565b8015612a815780601f10612a5657610100808354040283529160200191612a81565b820191906000526020600020905b815481529060010190602001808311612a6457829003601f168201915b50505050509050805160001415612ac25760405162461bcd60e51b815260206004820152600560248201526404b443133360dc1b6044820152606401610c71565b6000838152600e602090815260409091208351612ae19285019061519c565b50612aea613de1565b6001600160a01b0316636422b7aa8483856040518463ffffffff1660e01b81526004016111aa93929190615af9565b60008181526012602090815260408083208151610160810190925280546001600160a01b03168252600181018054859484019190612b56906158ba565b80601f0160208091040260200160405190810160405280929190818152602001828054612b82906158ba565b8015612bcf5780601f10612ba457610100808354040283529160200191612bcf565b820191906000526020600020905b815481529060010190602001808311612bb257829003601f168201915b50505050508152602001600282018054612be8906158ba565b80601f0160208091040260200160405190810160405280929190818152602001828054612c14906158ba565b8015612c615780601f10612c3657610100808354040283529160200191612c61565b820191906000526020600020905b815481529060010190602001808311612c4457829003601f168201915b50505091835250506003828101546020830152600483015460408301526005830154606083015260068301546080830152600783015460a09092019160ff1690811115612cb057612cb061570a565b6003811115612cc157612cc161570a565b81526008820154602082015260098201546040820152600a9091015460ff161515606090910152905060008160e001516003811115612d0257612d0261570a565b1415612d1357610100015192915050565b60018160e001516003811115612d2b57612d2b61570a565b1415612d955780606001518160800151612d459190615b2e565b6060820151612d549042615b2e565b826101000151836101200151612d6a9190615b2e565b612d749190615b45565b612d7e9190615b64565b816101200151612d8e9190615b2e565b9392505050565b60028160e001516003811115612dad57612dad61570a565b1415612dca57505060009081526014602052604090206002015490565b60038160e001516003811115612de257612de261570a565b1415612dff57505060009081526015602052604090206004015490565b60405162461bcd60e51b815260206004820152600960248201527f6e6f7420657869737400000000000000000000000000000000000000000000006044820152606401610c71565b33612e50613dd7565b604051630a57ebcf60e11b81523060048201526001600160a01b0391909116906314afd79e9060240160206040518083038186803b158015612e9157600080fd5b505afa158015612ea5573d6000803e3d6000fd5b505050506040513d601f19601f82011682018060405250810190612ec9919061593a565b6001600160a01b031614612f075760405162461bcd60e51b815260206004820152600560248201526425a218189960d91b6044820152606401610c71565b428511612f565760405162461bcd60e51b815260206004820152600560248201527f4b443131310000000000000000000000000000000000000000000000000000006044820152606401610c71565b838510612fa55760405162461bcd60e51b815260206004820152600560248201527f4b443131320000000000000000000000000000000000000000000000000000006044820152606401610c71565b828410612fdc5760405162461bcd60e51b81526020600482015260056024820152644b4431313360d81b6044820152606401610c71565b601187604051612fec91906159c7565b9081526040519081900360200190205460ff1661300c5761300c87613e9f565b6130178785856140e8565b6040516303fb4aab60e41b815260009073__$a79fa16630ef50be54c6520a39abca49df$__90633fb4aab090613055908b90899089906004016159e3565b60206040518083038186803b15801561306d57600080fd5b505af4158015613081573d6000803e3d6000fd5b505050506040513d601f19601f820116820180604052508101906130a59190615a08565b90506013886040516130b791906159c7565b90815260408051602092819003830181208054600181018255600091825284822001859055610160820183523082529281018b9052908101899052606081014281526020018881526020018781526020018681526020018560038111156131205761312061570a565b8152602001848152602001600081526020016000151581525090506131448161459a565b6101208201526000828152601260209081526040909120825181546001600160a01b0319166001600160a01b03909116178155818301518051849361319092600185019291019061519c565b50604082015180516131ac91600284019160209091019061519c565b50606082015181600301556080820151816004015560a0820151816005015560c0820151816006015560e08201518160070160006101000a81548160ff021916908360038111156131ff576131ff61570a565b02179055506101008201516008820155610120820151600982015561014090910151600a909101805460ff191691151591909117905561323f82896143b7565b613247614590565b6001600160a01b031663979c249183836040518363ffffffff1660e01b8152600401613274929190615b86565b600060405180830381600087803b15801561328e57600080fd5b505af11580156132a2573d6000803e3d6000fd5b505050506132ae613de1565b6001600160a01b0316637bab635a838b8b428c8c8c8c8c6040518a63ffffffff1660e01b81526004016132e999989796959493929190615c54565b600060405180830381600087803b15801561330357600080fd5b505af1158015613317573d6000803e3d6000fd5b50505050613323613de1565b60405163465bcf0560e01b815260006004820152306024820152604481018490526001600160a01b03919091169063465bcf0590606401600060405180830381600087803b15801561337457600080fd5b505af1158015613388573d6000803e3d6000fd5b50505050505050505050505050565b601054604080517f8da5cb5b00000000000000000000000000000000000000000000000000000000815290516000926001600160a01b031691638da5cb5b916004808301926020929190829003018186803b158015611a1b57600080fd5b6010546040517f4d65646961466163746f7279000000000000000000000000000000000000000060208201526000916001600160a01b031690638eaa6ac090602c016119cf565b606060028054610af6906158ba565b6001600160a01b0382163314156134a45760405162461bcd60e51b815260206004820152601960248201527f4552433732313a20617070726f766520746f2063616c6c6572000000000000006044820152606401610c71565b3360008181526008602090815260408083206001600160a01b03871680855290835292819020805460ff191686151590811790915590519081529192917f17307eab39ab6107e8899845ad3d59bd9653f200f220920489ca2b5937696c31910160405180910390a35050565b600e6020526000908152604090208054612780906158ba565b601260205260009081526040902080546001820180546001600160a01b039092169291613555906158ba565b80601f0160208091040260200160405190810160405280929190818152602001828054613581906158ba565b80156135ce5780601f106135a3576101008083540402835291602001916135ce565b820191906000526020600020905b8154815290600101906020018083116135b157829003601f168201915b5050505050908060020180546135e3906158ba565b80601f016020809104026020016040519081016040528092919081815260200182805461360f906158ba565b801561365c5780601f106136315761010080835404028352916020019161365c565b820191906000526020600020905b81548152906001019060200180831161363f57829003601f168201915b50505060038401546004850154600586015460068701546007880154600889015460098a0154600a909a015498999598949750929550909360ff918216939091168b565b6136aa3383614647565b61371c5760405162461bcd60e51b815260206004820152603160248201527f4552433732313a207472616e736665722063616c6c6572206973206e6f74206f60448201527f776e6572206e6f7220617070726f7665640000000000000000000000000000006064820152608401610c71565b6137288484848461473a565b50505050565b6040516303fb4aab60e41b815260009073__$a79fa16630ef50be54c6520a39abca49df$__90633fb4aab09061376c908790879087906004016159e3565b60206040518083038186803b15801561378457600080fd5b505af4158015613798573d6000803e3d6000fd5b505050506040513d601f19601f820116820180604052508101906137bc9190615a08565b949350505050565b6000818152600560205260409020546060906001600160a01b03166138515760405162461bcd60e51b815260206004820152602f60248201527f4552433732314d657461646174613a2055524920717565727920666f72206e6f60448201527f6e6578697374656e7420746f6b656e00000000000000000000000000000000006064820152608401610c71565b600060038054613860906158ba565b9050116139035760008281526004602052604090208054613880906158ba565b80601f01602080910402602001604051908101604052809291908181526020018280546138ac906158ba565b80156138f95780601f106138ce576101008083540402835291602001916138f9565b820191906000526020600020905b8154815290600101906020018083116138dc57829003601f168201915b5050505050610ae1565b600360046000848152602001908152602001600020604051602001613929929190615d59565b60405160208183030381529060405292915050565b6010546040517f4164506f6f6c000000000000000000000000000000000000000000000000000060208201526000916001600160a01b031690638eaa6ac0906026016119cf565b606060138260405161399791906159c7565b90815260408051918290036020908101832080548083028501830190935282845291908301828280156139e957602002820191906000526020600020905b8154815260200190600101908083116139d5575b50505050509050919050565b336139ff83612801565b6001600160a01b031614613a3d5760405162461bcd60e51b815260206004820152600560248201526425a218189960d91b6044820152606401610c71565b613a4782826147c3565b613a4f613de1565b6001600160a01b0316635bcefb5383836040518363ffffffff1660e01b8152600401610f219291906159ae565b33613a85613dd7565b604051630a57ebcf60e11b81523060048201526001600160a01b0391909116906314afd79e9060240160206040518083038186803b158015613ac657600080fd5b505afa158015613ada573d6000803e3d6000fd5b505050506040513d601f19601f82011682018060405250810190613afe919061593a565b6001600160a01b03161415613b3d5760405162461bcd60e51b815260206004820152600560248201526412d10c0c4d60da1b6044820152606401610c71565b613b46816147e2565b6000818152601260205260409020600a01805460ff19166001179055613b6b8161407b565b613b73614086565b613b7b613de1565b6040517f385c5521000000000000000000000000000000000000000000000000000000008152600481018390523460248201523360448201526001600160a01b03919091169063385c552190606401600060405180830381600087803b158015613be457600080fd5b505af1158015613bf8573d6000803e3d6000fd5b50505050613c04613de1565b60405163465bcf0560e01b8152306004820152336024820152604481018390526001600160a01b03919091169063465bcf059060640161194c565b33613c48613dd7565b604051630a57ebcf60e11b81523060048201526001600160a01b0391909116906314afd79e9060240160206040518083038186803b158015613c8957600080fd5b505afa158015613c9d573d6000803e3d6000fd5b505050506040513d601f19601f82011682018060405250810190613cc1919061593a565b6001600160a01b03161415613d005760405162461bcd60e51b815260206004820152600560248201526412d10c0c4d60da1b6044820152606401610c71565b613b46816148e1565b6010546040517f4576656e74456d6974746572000000000000000000000000000000000000000060208201526000916001600160a01b031690638eaa6ac090602c016119cf565b600f6020526000908152604090208054612780906158ba565b600081815260076020526040902080546001600160a01b0319166001600160a01b0384169081179091558190613d9e82612801565b6001600160a01b03167f8c5be1e5ebec7d5bd14f71427d1e84f3dd0314c0f7b2291e5b200ac8c7c3b92560405160405180910390a45050565b6000611a5361284e565b6000611a53613d09565b6000828152600f602090815260409091208251613e0a9284019061519c565b50613e14826149e6565b5050565b613e223382614647565b613e945760405162461bcd60e51b815260206004820152603160248201527f4552433732313a207472616e736665722063616c6c6572206973206e6f74206f60448201527f776e6572206e6f7220617070726f7665640000000000000000000000000000006064820152608401610c71565b610bf7838383614a0e565b601181604051613eaf91906159c7565b9081526040519081900360200190205460ff1615613f0f5760405162461bcd60e51b815260206004820152600560248201527f4b443130300000000000000000000000000000000000000000000000000000006044820152606401610c71565b6001601182604051613f2191906159c7565b908152604051908190036020019020805491151560ff19909216919091179055613f49613de1565b6001600160a01b03166378689c64826040518263ffffffff1660e01b815260040161194c919061534f565b600260008281526012602052604090206007015460ff166003811115613f9c57613f9c61570a565b14613fd15760405162461bcd60e51b815260206004820152600560248201526412d10c4c8d60da1b6044820152606401610c71565b6000818152601260205260409020600a015460ff161561401b5760405162461bcd60e51b81526020600482015260056024820152644b4431323160d81b6044820152606401610c71565b42600082815260126020526040902060040154106115fa5760405162461bcd60e51b815260206004820152600560248201527f4b443132350000000000000000000000000000000000000000000000000000006044820152606401610c71565b6115fa303383614a0e565b61408e61198c565b6001600160a01b03166108fc6140a5600a34615b64565b6040518115909202916000818181858888f193505050501580156115fa573d6000803e3d6000fd5b610bf7838383604051806020016040528060008152506136a0565b60005b6013846040516140fb91906159c7565b908152604051908190036020019020548110156137285760006012600060138760405161412891906159c7565b9081526020016040518091039020848154811061414757614147615ab2565b90600052602060002001548152602001908152602001600020604051806101600160405290816000820160009054906101000a90046001600160a01b03166001600160a01b03166001600160a01b031681526020016001820180546141ab906158ba565b80601f01602080910402602001604051908101604052809291908181526020018280546141d7906158ba565b80156142245780601f106141f957610100808354040283529160200191614224565b820191906000526020600020905b81548152906001019060200180831161420757829003601f168201915b5050505050815260200160028201805461423d906158ba565b80601f0160208091040260200160405190810160405280929190818152602001828054614269906158ba565b80156142b65780601f1061428b576101008083540402835291602001916142b6565b820191906000526020600020905b81548152906001019060200180831161429957829003601f168201915b50505091835250506003828101546020830152600483015460408301526005830154606083015260068301546080830152600783015460a09092019160ff16908111156143055761430561570a565b60038111156143165761431661570a565b81526008820154602082015260098201546040820152600a9091015460ff16151560609091015260a081015160c08201519192506143579186918691614be6565b156143a45760405162461bcd60e51b815260206004820152600560248201527f4b443131300000000000000000000000000000000000000000000000000000006044820152606401610c71565b50806143af81615ade565b9150506140eb565b6143c13083614bff565b60008281526004602090815260409091208251610bf79284019061519c565b600260008281526012602052604090206007015460ff1660038111156144085761440861570a565b1461443d5760405162461bcd60e51b815260206004820152600560248201526412d10c4c8d60da1b6044820152606401610c71565b6000818152601260205260409020600a015460ff16156144875760405162461bcd60e51b81526020600482015260056024820152644b4431323160d81b6044820152606401610c71565b3461449182612b19565b106115fa5760405162461bcd60e51b815260206004820152600560248201526425a218991960d91b6044820152606401610c71565b6000600260008381526012602052604090206007015460ff1660038111156144f0576144f061570a565b14801561451657506000828152601460205260409020600101546001600160a01b031615155b1561455a57600082815260146020526040808220600181015460029091015491516001600160a01b039091169282156108fc02929190818181858888f19450505050505b919050565b61456881614d4d565b604080516020808201808452600080845285815260049092529290209051613e14929061519c565b6000611a5361393e565b6000808260e0015160038111156145b3576145b361570a565b14156145c25750610100015190565b60018260e0015160038111156145da576145da61570a565b14156145f157610100820151610ae190600a615b45565b60028260e0015160038111156146095761460961570a565b14156146185750610100015190565b60038260e0015160038111156146305761463061570a565b141561463f5750610100015190565b506000919050565b6000818152600560205260408120546001600160a01b03166146c05760405162461bcd60e51b815260206004820152602c60248201527f4552433732313a206f70657261746f7220717565727920666f72206e6f6e657860448201526b34b9ba32b73a103a37b5b2b760a11b6064820152608401610c71565b60006146cb83612801565b9050806001600160a01b0316846001600160a01b031614806147065750836001600160a01b03166146fb84610bfc565b6001600160a01b0316145b806137bc57506001600160a01b0380821660009081526008602090815260408083209388168352929052205460ff166137bc565b614745848484614a0e565b61475184848484614df4565b6137285760405162461bcd60e51b815260206004820152603260248201527f4552433732313a207472616e7366657220746f206e6f6e20455243373231526560448201527f63656976657220696d706c656d656e74657200000000000000000000000000006064820152608401610c71565b6000828152600d602090815260409091208251610bf79284019061519c565b600160008281526012602052604090206007015460ff16600381111561480a5761480a61570a565b146148575760405162461bcd60e51b815260206004820152600560248201527f4b443132330000000000000000000000000000000000000000000000000000006044820152606401610c71565b6000818152601260205260409020600a015460ff16156148a15760405162461bcd60e51b81526020600482015260056024820152644b4431323160d81b6044820152606401610c71565b346148ab82612b19565b11156115fa5760405162461bcd60e51b815260206004820152600560248201526425a218991960d91b6044820152606401610c71565b60008181526012602052604081206007015460ff1660038111156149075761490761570a565b146149545760405162461bcd60e51b815260206004820152600560248201527f4b443132300000000000000000000000000000000000000000000000000000006044820152606401610c71565b6000818152601260205260409020600a015460ff161561499e5760405162461bcd60e51b81526020600482015260056024820152644b4431323160d81b6044820152606401610c71565b60008181526012602052604090206008015434146115fa5760405162461bcd60e51b815260206004820152600560248201526425a218991960d91b6044820152606401610c71565b6040805160208082018084526000808452858152600d9092529290209051613e14929061519c565b826001600160a01b0316614a2182612801565b6001600160a01b031614614a9d5760405162461bcd60e51b815260206004820152602960248201527f4552433732313a207472616e73666572206f6620746f6b656e2074686174206960448201527f73206e6f74206f776e00000000000000000000000000000000000000000000006064820152608401610c71565b6001600160a01b038216614b185760405162461bcd60e51b8152602060048201526024808201527f4552433732313a207472616e7366657220746f20746865207a65726f2061646460448201527f72657373000000000000000000000000000000000000000000000000000000006064820152608401610c71565b614b23838383614f54565b614b2e600082613d69565b6001600160a01b0383166000908152600660205260408120805460019290614b57908490615b2e565b90915550506001600160a01b0382166000908152600660205260408120805460019290614b85908490615d6e565b909155505060008181526005602052604080822080546001600160a01b0319166001600160a01b0386811691821790925591518493918716917fddf252ad1be2c89b69c2b068fc378daa952ba7f163c4a11628f55a4df523b3ef91a4505050565b600083831180614bf557508482105b1595945050505050565b6001600160a01b038216614c555760405162461bcd60e51b815260206004820181905260248201527f4552433732313a206d696e7420746f20746865207a65726f20616464726573736044820152606401610c71565b6000818152600560205260409020546001600160a01b031615614cba5760405162461bcd60e51b815260206004820152601c60248201527f4552433732313a20746f6b656e20616c7265616479206d696e746564000000006044820152606401610c71565b614cc660008383614f54565b6001600160a01b0382166000908152600660205260408120805460019290614cef908490615d6e565b909155505060008181526005602052604080822080546001600160a01b0319166001600160a01b03861690811790915590518392907fddf252ad1be2c89b69c2b068fc378daa952ba7f163c4a11628f55a4df523b3ef908290a45050565b6000614d5882612801565b9050614d6681600084614f54565b614d71600083613d69565b6001600160a01b0381166000908152600660205260408120805460019290614d9a908490615b2e565b909155505060008281526005602052604080822080546001600160a01b0319169055518391906001600160a01b038416907fddf252ad1be2c89b69c2b068fc378daa952ba7f163c4a11628f55a4df523b3ef908390a45050565b60006001600160a01b0384163b15614f4c57604051630a85bd0160e11b81526001600160a01b0385169063150b7a0290614e38903390899088908890600401615d86565b602060405180830381600087803b158015614e5257600080fd5b505af1925050508015614e82575060408051601f3d908101601f19168201909252614e7f91810190615db8565b60015b614f32573d808015614eb0576040519150601f19603f3d011682016040523d82523d6000602084013e614eb5565b606091505b508051614f2a5760405162461bcd60e51b815260206004820152603260248201527f4552433732313a207472616e7366657220746f206e6f6e20455243373231526560448201527f63656976657220696d706c656d656e74657200000000000000000000000000006064820152608401610c71565b805181602001fd5b6001600160e01b031916630a85bd0160e11b1490506137bc565b5060016137bc565b6001600160a01b038316614faf57614faa81600b80546000838152600c60205260408120829055600182018355919091527f0175b7a638427703f0dbe7bb9bbf987a2551717b34e79f33b5b1008d1fa01db90155565b614fd2565b816001600160a01b0316836001600160a01b031614614fd257614fd2838261500c565b6001600160a01b038216614fe957610bf7816150a9565b826001600160a01b0316826001600160a01b031614610bf757610bf78282615158565b6000600161501984612895565b6150239190615b2e565b6000838152600a6020526040902054909150808214615076576001600160a01b03841660009081526009602090815260408083208584528252808320548484528184208190558352600a90915290208190555b506000918252600a602090815260408084208490556001600160a01b039094168352600981528383209183525290812055565b600b546000906150bb90600190615b2e565b6000838152600c6020526040812054600b80549394509092849081106150e3576150e3615ab2565b9060005260206000200154905080600b838154811061510457615104615ab2565b6000918252602080832090910192909255828152600c9091526040808220849055858252812055600b80548061513c5761513c615dd5565b6001900381819060005260206000200160009055905550505050565b600061516383612895565b6001600160a01b0390931660009081526009602090815260408083208684528252808320859055938252600a9052919091209190915550565b8280546151a8906158ba565b90600052602060002090601f0160209004810192826151ca5760008555615210565b82601f106151e357805160ff1916838001178555615210565b82800160010185558215615210579182015b828111156152105782518255916020019190600101906151f5565b5061521c929150615256565b5090565b50805461522c906158ba565b6000825580601f1061523c575050565b601f0160209004906000526020600020908101906115fa91905b5b8082111561521c5760008155600101615257565b60006020828403121561527d57600080fd5b5035919050565b60005b8381101561529f578181015183820152602001615287565b838111156137285750506000910152565b600081518084526152c8816020860160208601615284565b601f01601f19169290920160200192915050565b60a0815260006152ef60a08301886152b0565b90508560208301528460408301526001600160a01b03841660608301528260808301529695505050505050565b6001600160e01b0319811681146115fa57600080fd5b60006020828403121561534457600080fd5b8135612d8e8161531c565b602081526000612d8e60208301846152b0565b634e487b7160e01b600052604160045260246000fd5b600067ffffffffffffffff8084111561539357615393615362565b604051601f8501601f19908116603f011681019082821181831017156153bb576153bb615362565b816040528093508581528686860111156153d457600080fd5b858560208301376000602087830101525050509392505050565b600082601f8301126153ff57600080fd5b612d8e83833560208501615378565b6001600160a01b03811681146115fa57600080fd5b60008060006060848603121561543857600080fd5b833567ffffffffffffffff8082111561545057600080fd5b61545c878388016153ee565b9450602086013591508082111561547257600080fd5b5061547f868287016153ee565b92505060408401356154908161540e565b809150509250925092565b600080604083850312156154ae57600080fd5b82356154b98161540e565b946020939093013593505050565b600080604083850312156154da57600080fd5b82356154e58161540e565b9150602083013567ffffffffffffffff81111561550157600080fd5b61550d858286016153ee565b9150509250929050565b60008060006060848603121561552c57600080fd5b833567ffffffffffffffff81111561554357600080fd5b61554f868287016153ee565b9660208601359650604090950135949350505050565b60008060006060848603121561557a57600080fd5b83356155858161540e565b925060208401356155958161540e565b929592945050506040919091013590565b6000602082840312156155b857600080fd5b813567ffffffffffffffff8111156155cf57600080fd5b6137bc848285016153ee565b600080604083850312156155ee57600080fd5b82359150602083013567ffffffffffffffff81111561550157600080fd5b60006020828403121561561e57600080fd5b8135612d8e8161540e565b600080600080600080600060e0888a03121561564457600080fd5b873567ffffffffffffffff8082111561565c57600080fd5b6156688b838c016153ee565b985060208a013591508082111561567e57600080fd5b5061568b8a828b016153ee565b96505060408801359450606088013593506080880135925060a0880135600481106156b557600080fd5b8092505060c0880135905092959891949750929550565b600080604083850312156156df57600080fd5b82356156ea8161540e565b9150602083013580151581146156ff57600080fd5b809150509250929050565b634e487b7160e01b600052602160045260246000fd5b6004811061573e57634e487b7160e01b600052602160045260246000fd5b9052565b60006101606001600160a01b038e1683528060208401526157658184018e6152b0565b90508281036040840152615779818d6152b0565b9150508960608301528860808301528760a08301528660c08301526157a160e0830187615720565b84610100830152836101208301528215156101408301529c9b505050505050505050505050565b600080600080608085870312156157de57600080fd5b84356157e98161540e565b935060208501356157f98161540e565b925060408501359150606085013567ffffffffffffffff81111561581c57600080fd5b8501601f8101871361582d57600080fd5b61583c87823560208401615378565b91505092959194509250565b6020808252825182820181905260009190848201906040850190845b8181101561588057835183529284019291840191600101615864565b50909695505050505050565b6000806040838503121561589f57600080fd5b82356158aa8161540e565b915060208301356156ff8161540e565b600181811c908216806158ce57607f821691505b602082108114156158ef57634e487b7160e01b600052602260045260246000fd5b50919050565b7f4b616c6569646f5f00000000000000000000000000000000000000000000000081526000825161592d816008850160208701615284565b9190910160080192915050565b60006020828403121561594c57600080fd5b8151612d8e8161540e565b6001600160a01b03831681526040602082015260006137bc60408301846152b0565b60006001600160a01b038086168352808516602084015250606060408301526159a560608301846152b0565b95945050505050565b8281526040602082015260006137bc60408301846152b0565b600082516159d9818460208701615284565b9190910192915050565b6060815260006159f660608301866152b0565b60208301949094525060400152919050565b600060208284031215615a1a57600080fd5b5051919050565b86815260c060208201526000615a3a60c08301886152b0565b90508560408301528460608301526001600160a01b03841660808301528260a0830152979650505050505050565b86815260c060208201526000615a8160c08301886152b0565b8281036040840152615a9381886152b0565b60608401969096525050608081019290925260a0909101529392505050565b634e487b7160e01b600052603260045260246000fd5b634e487b7160e01b600052601160045260246000fd5b6000600019821415615af257615af2615ac8565b5060010190565b838152606060208201526000615b1260608301856152b0565b8281036040840152615b2481856152b0565b9695505050505050565b600082821015615b4057615b40615ac8565b500390565b6000816000190483118215151615615b5f57615b5f615ac8565b500290565b600082615b8157634e487b7160e01b600052601260045260246000fd5b500490565b82815260406020820152615ba66040820183516001600160a01b03169052565b60006020830151610160806060850152615bc46101a08501836152b0565b91506040850151603f19858403016080860152615be183826152b0565b925050606085015160a0850152608085015160c085015260a085015160e085015260c0850151610100818187015260e08701519150610120615c2581880184615720565b908701516101408781019190915290870151928601929092525084015180151561018085015250949350505050565b60006101208b8352806020840152615c6e8184018c6152b0565b90508281036040840152615c82818b6152b0565b9150508760608301528660808301528560a08301528460c0830152615caa60e0830185615720565b826101008301529a9950505050505050505050565b8054600090600181811c9080831680615cd957607f831692505b6020808410821415615cfb57634e487b7160e01b600052602260045260246000fd5b818015615d0f5760018114615d2057615d4d565b60ff19861689528489019650615d4d565b60008881526020902060005b86811015615d455781548b820152908501908301615d2c565b505084890196505b50505050505092915050565b60006137bc615d688386615cbf565b84615cbf565b60008219821115615d8157615d81615ac8565b500190565b60006001600160a01b03808716835280861660208401525083604083015260806060830152615b2460808301846152b0565b600060208284031215615dca57600080fd5b8151612d8e8161531c565b634e487b7160e01b600052603160045260246000fdfea2646970667358221220b421be0afb85151f11ddd5ddec2df518f469dc8f8662e30f2b43c5180f1c369464736f6c63430008090033",
  "libraries": {
    "Ad": "0x5D1DD9f4232D8Bd861d0A50f882537C3871e4A41"
  },
  "devdoc": {
    "author": "Shumpei Koike - <shumpei.koike@bridges.inc>",
    "kind": "dev",
    "methods": {
      "accept(uint256)": {
        "details": "Accepts the proposal.",
        "params": {
          "tokenId": "uint256 of the token ID"
        }
      },
      "acceptOffer(uint256,string)": {
        "details": "Accepts an offer by the Media.",
        "params": {
          "tokenId": "uint256 of the token ID",
          "tokenMetadata": "string of the NFT token metadata"
        }
      },
      "adId(string,uint256,uint256)": {
        "details": "Returns ID based on the space metadata, display start timestamp, and      display end timestamp. These three makes it the unique.",
        "params": {
          "displayEndTimestamp": "uint256 of the end timestamp for the display",
          "displayStartTimestamp": "uint256 of the start timestamp for the display",
          "spaceMetadata": "uint256 of the space metadata"
        }
      },
      "adPoolAddress()": {
        "details": "Gets the address of AdPool."
      },
      "approve(address,uint256)": {
        "details": "See {IERC721-approve}."
      },
      "balance()": {
        "details": "Returns the balacne deposited on the proxy contract."
      },
      "balanceOf(address)": {
        "details": "See {IERC721-balanceOf}."
      },
      "bid(uint256)": {
        "details": "Bids to participate in an auction.",
        "params": {
          "tokenId": "uint256 of the token ID"
        }
      },
      "buy(uint256)": {
        "details": "Buys the token that is defined as the specific period on an ad space.      The price of the token is fixed.",
        "params": {
          "tokenId": "uint256 of the token ID"
        }
      },
      "buyBasedOnTime(uint256)": {
        "details": "Buys the token that is defined as the specific period on an ad space.      The price is decreasing as time goes by.",
        "params": {
          "tokenId": "uint256 of the token ID"
        }
      },
      "currentPrice(uint256)": {
        "details": "Returns the current price.",
        "params": {
          "tokenId": "uint256 of the token ID"
        }
      },
      "deletePeriod(uint256)": {
        "details": "Deletes a period and its token.      If there is any users locking the fund for the sale, the amount would be transfered      to the user when deleting the period.",
        "params": {
          "tokenId": "uint256 of the token ID"
        }
      },
      "deny(uint256,string)": {
        "details": "Denies the submitted proposal, mentioning what is the problem.",
        "params": {
          "reason": "string of the reason why it is rejected TODO: flag",
          "tokenId": "uint256 of the token ID"
        }
      },
      "display(string)": {
        "details": "Displays the ad content that is approved by the media owner.",
        "params": {
          "spaceMetadata": "string of the space metadata"
        }
      },
      "eventEmitterAddress()": {
        "details": "Gets the address of EventEmitter."
      },
      "getApproved(uint256)": {
        "details": "See {IERC721-getApproved}."
      },
      "initialize(string,string,address)": {
        "details": "Initialize the instance.",
        "params": {
          "baseURI": "string of the base URI",
          "nameRegistry": "address of NameRegistry",
          "title": "string of the title of the instance"
        }
      },
      "isApprovedForAll(address,address)": {
        "details": "See {IERC721-isApprovedForAll}."
      },
      "mediaFactoryAddress()": {
        "details": "Gets the address of MediaFactory."
      },
      "mediaRegistryAddress()": {
        "details": "Gets the address of MediaRegistry."
      },
      "name()": {
        "details": "See {IERC721Metadata-name}."
      },
      "nameRegistryAddress()": {
        "details": "Gets the address of NameRegistry"
      },
      "newPeriod(string,string,uint256,uint256,uint256,uint8,uint256)": {
        "details": "Create a new period for a space. This function requires some params      to decide which kinds of pricing way and how much price to get started.",
        "params": {
          "displayEndTimestamp": "uint256 of the end timestamp for the display",
          "displayStartTimestamp": "uint256 of the start timestamp for the display",
          "minPrice": "uint256 of the minimum price to sell it out",
          "pricing": "uint256 of the pricing way",
          "saleEndTimestamp": "uint256 of the end timestamp for the sale",
          "spaceMetadata": "string of the space metadata",
          "tokenMetadata": "string of the token metadata"
        }
      },
      "newSpace(string)": {
        "details": "Creates a new space for the media account.",
        "params": {
          "spaceMetadata": "string of the space metadata"
        }
      },
      "offerPeriod(string,uint256,uint256)": {
        "details": "Offers to buy a period that the sender requests.",
        "params": {
          "displayEndTimestamp": "uint256 of the end timestamp for the display",
          "displayStartTimestamp": "uint256 of the start timestamp for the display",
          "spaceMetadata": "string of the space metadata"
        }
      },
      "owner()": {
        "details": "Gets the owner address."
      },
      "ownerOf(uint256)": {
        "details": "See {IERC721-ownerOf}."
      },
      "propose(uint256,string)": {
        "details": "Proposes the metadata to the token you bought.      Users can propose many times as long as it is accepted.",
        "params": {
          "metadata": "string of the proposal metadata",
          "tokenId": "uint256 of the token ID"
        }
      },
      "receiveToken(uint256)": {
        "details": "Receives the token you bidded if you are the successful bidder.",
        "params": {
          "tokenId": "uint256 of the token ID"
        }
      },
      "safeTransferFrom(address,address,uint256)": {
        "details": "Overrides transferFrom to emit an event from the common emitter."
      },
      "safeTransferFrom(address,address,uint256,bytes)": {
        "details": "See {IERC721-safeTransferFrom}."
      },
      "setApprovalForAll(address,bool)": {
        "details": "See {IERC721-setApprovalForAll}."
      },
      "supportsInterface(bytes4)": {
        "details": "See {IERC165-supportsInterface}."
      },
      "symbol()": {
        "details": "See {IERC721Metadata-symbol}."
      },
      "tokenByIndex(uint256)": {
        "details": "See {IERC721Enumerable-tokenByIndex}."
      },
      "tokenIdsOf(string)": {
        "details": "Returns tokenIds tied with the space metadata",
        "params": {
          "spaceMetadata": "string of the space metadata"
        }
      },
      "tokenOfOwnerByIndex(address,uint256)": {
        "details": "See {IERC721Enumerable-tokenOfOwnerByIndex}."
      },
      "tokenURI(uint256)": {
        "details": "See {IERC721Metadata-tokenURI}."
      },
      "totalSupply()": {
        "details": "See {IERC721Enumerable-totalSupply}."
      },
      "transferFrom(address,address,uint256)": {
        "details": "Overrides transferFrom to emit an event from the common emitter."
      },
      "updateMedia(address,string)": {
        "details": "Updates the media EOA and the metadata.",
        "params": {
          "newMediaEOA": "address of a new EOA",
          "newMetadata": "string of a new metadata"
        }
      },
      "vaultAddress()": {
        "details": "Gets the address of Vault."
      },
      "withdraw()": {
        "details": "Withdraws the fund deposited to the proxy contract."
      }
    },
    "title": "AdManager - manages ad spaces and its periods to sell them to users.",
    "version": 1
  },
  "userdoc": {
    "kind": "user",
    "methods": {},
    "version": 1
  },
  "storageLayout": {
    "storage": [
      {
        "astId": 2165,
        "contract": "contracts/AdManager.sol:AdManager",
        "label": "dummy",
        "offset": 0,
        "slot": "0",
        "type": "t_string_storage"
      },
      {
        "astId": 2167,
        "contract": "contracts/AdManager.sol:AdManager",
        "label": "_name",
        "offset": 0,
        "slot": "1",
        "type": "t_string_storage"
      },
      {
        "astId": 2169,
        "contract": "contracts/AdManager.sol:AdManager",
        "label": "_symbol",
        "offset": 0,
        "slot": "2",
        "type": "t_string_storage"
      },
      {
        "astId": 2171,
        "contract": "contracts/AdManager.sol:AdManager",
        "label": "_baseURI",
        "offset": 0,
        "slot": "3",
        "type": "t_string_storage"
      },
      {
        "astId": 2175,
        "contract": "contracts/AdManager.sol:AdManager",
        "label": "_tokenURIs",
        "offset": 0,
        "slot": "4",
        "type": "t_mapping(t_uint256,t_string_storage)"
      },
      {
        "astId": 2179,
        "contract": "contracts/AdManager.sol:AdManager",
        "label": "_owners",
        "offset": 0,
        "slot": "5",
        "type": "t_mapping(t_uint256,t_address)"
      },
      {
        "astId": 2183,
        "contract": "contracts/AdManager.sol:AdManager",
        "label": "_balances",
        "offset": 0,
        "slot": "6",
        "type": "t_mapping(t_address,t_uint256)"
      },
      {
        "astId": 2187,
        "contract": "contracts/AdManager.sol:AdManager",
        "label": "_tokenApprovals",
        "offset": 0,
        "slot": "7",
        "type": "t_mapping(t_uint256,t_address)"
      },
      {
        "astId": 2193,
        "contract": "contracts/AdManager.sol:AdManager",
        "label": "_operatorApprovals",
        "offset": 0,
        "slot": "8",
        "type": "t_mapping(t_address,t_mapping(t_address,t_bool))"
      },
      {
        "astId": 2199,
        "contract": "contracts/AdManager.sol:AdManager",
        "label": "_ownedTokens",
        "offset": 0,
        "slot": "9",
        "type": "t_mapping(t_address,t_mapping(t_uint256,t_uint256))"
      },
      {
        "astId": 2203,
        "contract": "contracts/AdManager.sol:AdManager",
        "label": "_ownedTokensIndex",
        "offset": 0,
        "slot": "10",
        "type": "t_mapping(t_uint256,t_uint256)"
      },
      {
        "astId": 2206,
        "contract": "contracts/AdManager.sol:AdManager",
        "label": "_allTokens",
        "offset": 0,
        "slot": "11",
        "type": "t_array(t_uint256)dyn_storage"
      },
      {
        "astId": 2210,
        "contract": "contracts/AdManager.sol:AdManager",
        "label": "_allTokensIndex",
        "offset": 0,
        "slot": "12",
        "type": "t_mapping(t_uint256,t_uint256)"
      },
      {
        "astId": 2036,
        "contract": "contracts/AdManager.sol:AdManager",
        "label": "proposed",
        "offset": 0,
        "slot": "13",
        "type": "t_mapping(t_uint256,t_string_storage)"
      },
      {
        "astId": 2040,
        "contract": "contracts/AdManager.sol:AdManager",
        "label": "deniedReason",
        "offset": 0,
        "slot": "14",
        "type": "t_mapping(t_uint256,t_string_storage)"
      },
      {
        "astId": 2044,
        "contract": "contracts/AdManager.sol:AdManager",
        "label": "accepted",
        "offset": 0,
        "slot": "15",
        "type": "t_mapping(t_uint256,t_string_storage)"
      },
      {
        "astId": 1691,
        "contract": "contracts/AdManager.sol:AdManager",
        "label": "_nameRegistry",
        "offset": 0,
        "slot": "16",
        "type": "t_contract(NameRegistry)1920"
      },
      {
        "astId": 3748,
        "contract": "contracts/AdManager.sol:AdManager",
        "label": "spaced",
        "offset": 0,
        "slot": "17",
        "type": "t_mapping(t_string_memory_ptr,t_bool)"
      },
      {
        "astId": 3218,
        "contract": "contracts/AdManager.sol:AdManager",
        "label": "allPeriods",
        "offset": 0,
        "slot": "18",
        "type": "t_mapping(t_uint256,t_struct(Period)4110_storage)"
      },
      {
        "astId": 3224,
        "contract": "contracts/AdManager.sol:AdManager",
        "label": "_periodKeys",
        "offset": 0,
        "slot": "19",
        "type": "t_mapping(t_string_memory_ptr,t_array(t_uint256)dyn_storage)"
      },
      {
        "astId": 3414,
        "contract": "contracts/AdManager.sol:AdManager",
        "label": "bidding",
        "offset": 0,
        "slot": "20",
        "type": "t_mapping(t_uint256,t_struct(Bidding)3397_storage)"
      },
      {
        "astId": 3420,
        "contract": "contracts/AdManager.sol:AdManager",
        "label": "offered",
        "offset": 0,
        "slot": "21",
        "type": "t_mapping(t_uint256,t_struct(Offer)3408_storage)"
      },
      {
        "astId": 10,
        "contract": "contracts/AdManager.sol:AdManager",
        "label": "_status",
        "offset": 0,
        "slot": "22",
        "type": "t_uint256"
      }
    ],
    "types": {
      "t_address": {
        "encoding": "inplace",
        "label": "address",
        "numberOfBytes": "20"
      },
      "t_array(t_uint256)dyn_storage": {
        "base": "t_uint256",
        "encoding": "dynamic_array",
        "label": "uint256[]",
        "numberOfBytes": "32"
      },
      "t_bool": {
        "encoding": "inplace",
        "label": "bool",
        "numberOfBytes": "1"
      },
      "t_contract(NameRegistry)1920": {
        "encoding": "inplace",
        "label": "contract NameRegistry",
        "numberOfBytes": "20"
      },
      "t_enum(Pricing)4086": {
        "encoding": "inplace",
        "label": "enum Ad.Pricing",
        "numberOfBytes": "1"
      },
      "t_mapping(t_address,t_bool)": {
        "encoding": "mapping",
        "key": "t_address",
        "label": "mapping(address => bool)",
        "numberOfBytes": "32",
        "value": "t_bool"
      },
      "t_mapping(t_address,t_mapping(t_address,t_bool))": {
        "encoding": "mapping",
        "key": "t_address",
        "label": "mapping(address => mapping(address => bool))",
        "numberOfBytes": "32",
        "value": "t_mapping(t_address,t_bool)"
      },
      "t_mapping(t_address,t_mapping(t_uint256,t_uint256))": {
        "encoding": "mapping",
        "key": "t_address",
        "label": "mapping(address => mapping(uint256 => uint256))",
        "numberOfBytes": "32",
        "value": "t_mapping(t_uint256,t_uint256)"
      },
      "t_mapping(t_address,t_uint256)": {
        "encoding": "mapping",
        "key": "t_address",
        "label": "mapping(address => uint256)",
        "numberOfBytes": "32",
        "value": "t_uint256"
      },
      "t_mapping(t_string_memory_ptr,t_array(t_uint256)dyn_storage)": {
        "encoding": "mapping",
        "key": "t_string_memory_ptr",
        "label": "mapping(string => uint256[])",
        "numberOfBytes": "32",
        "value": "t_array(t_uint256)dyn_storage"
      },
      "t_mapping(t_string_memory_ptr,t_bool)": {
        "encoding": "mapping",
        "key": "t_string_memory_ptr",
        "label": "mapping(string => bool)",
        "numberOfBytes": "32",
        "value": "t_bool"
      },
      "t_mapping(t_uint256,t_address)": {
        "encoding": "mapping",
        "key": "t_uint256",
        "label": "mapping(uint256 => address)",
        "numberOfBytes": "32",
        "value": "t_address"
      },
      "t_mapping(t_uint256,t_string_storage)": {
        "encoding": "mapping",
        "key": "t_uint256",
        "label": "mapping(uint256 => string)",
        "numberOfBytes": "32",
        "value": "t_string_storage"
      },
      "t_mapping(t_uint256,t_struct(Bidding)3397_storage)": {
        "encoding": "mapping",
        "key": "t_uint256",
        "label": "mapping(uint256 => struct PricingStrategy.Bidding)",
        "numberOfBytes": "32",
        "value": "t_struct(Bidding)3397_storage"
      },
      "t_mapping(t_uint256,t_struct(Offer)3408_storage)": {
        "encoding": "mapping",
        "key": "t_uint256",
        "label": "mapping(uint256 => struct PricingStrategy.Offer)",
        "numberOfBytes": "32",
        "value": "t_struct(Offer)3408_storage"
      },
      "t_mapping(t_uint256,t_struct(Period)4110_storage)": {
        "encoding": "mapping",
        "key": "t_uint256",
        "label": "mapping(uint256 => struct Ad.Period)",
        "numberOfBytes": "32",
        "value": "t_struct(Period)4110_storage"
      },
      "t_mapping(t_uint256,t_uint256)": {
        "encoding": "mapping",
        "key": "t_uint256",
        "label": "mapping(uint256 => uint256)",
        "numberOfBytes": "32",
        "value": "t_uint256"
      },
      "t_string_memory_ptr": {
        "encoding": "bytes",
        "label": "string",
        "numberOfBytes": "32"
      },
      "t_string_storage": {
        "encoding": "bytes",
        "label": "string",
        "numberOfBytes": "32"
      },
      "t_struct(Bidding)3397_storage": {
        "encoding": "inplace",
        "label": "struct PricingStrategy.Bidding",
        "members": [
          {
            "astId": 3392,
            "contract": "contracts/AdManager.sol:AdManager",
            "label": "tokenId",
            "offset": 0,
            "slot": "0",
            "type": "t_uint256"
          },
          {
            "astId": 3394,
            "contract": "contracts/AdManager.sol:AdManager",
            "label": "bidder",
            "offset": 0,
            "slot": "1",
            "type": "t_address"
          },
          {
            "astId": 3396,
            "contract": "contracts/AdManager.sol:AdManager",
            "label": "price",
            "offset": 0,
            "slot": "2",
            "type": "t_uint256"
          }
        ],
        "numberOfBytes": "96"
      },
      "t_struct(Offer)3408_storage": {
        "encoding": "inplace",
        "label": "struct PricingStrategy.Offer",
        "members": [
          {
            "astId": 3399,
            "contract": "contracts/AdManager.sol:AdManager",
            "label": "spaceMetadata",
            "offset": 0,
            "slot": "0",
            "type": "t_string_storage"
          },
          {
            "astId": 3401,
            "contract": "contracts/AdManager.sol:AdManager",
            "label": "displayStartTimestamp",
            "offset": 0,
            "slot": "1",
            "type": "t_uint256"
          },
          {
            "astId": 3403,
            "contract": "contracts/AdManager.sol:AdManager",
            "label": "displayEndTimestamp",
            "offset": 0,
            "slot": "2",
            "type": "t_uint256"
          },
          {
            "astId": 3405,
            "contract": "contracts/AdManager.sol:AdManager",
            "label": "sender",
            "offset": 0,
            "slot": "3",
            "type": "t_address"
          },
          {
            "astId": 3407,
            "contract": "contracts/AdManager.sol:AdManager",
            "label": "price",
            "offset": 0,
            "slot": "4",
            "type": "t_uint256"
          }
        ],
        "numberOfBytes": "160"
      },
      "t_struct(Period)4110_storage": {
        "encoding": "inplace",
        "label": "struct Ad.Period",
        "members": [
          {
            "astId": 4088,
            "contract": "contracts/AdManager.sol:AdManager",
            "label": "mediaProxy",
            "offset": 0,
            "slot": "0",
            "type": "t_address"
          },
          {
            "astId": 4090,
            "contract": "contracts/AdManager.sol:AdManager",
            "label": "spaceMetadata",
            "offset": 0,
            "slot": "1",
            "type": "t_string_storage"
          },
          {
            "astId": 4092,
            "contract": "contracts/AdManager.sol:AdManager",
            "label": "tokenMetadata",
            "offset": 0,
            "slot": "2",
            "type": "t_string_storage"
          },
          {
            "astId": 4094,
            "contract": "contracts/AdManager.sol:AdManager",
            "label": "saleStartTimestamp",
            "offset": 0,
            "slot": "3",
            "type": "t_uint256"
          },
          {
            "astId": 4096,
            "contract": "contracts/AdManager.sol:AdManager",
            "label": "saleEndTimestamp",
            "offset": 0,
            "slot": "4",
            "type": "t_uint256"
          },
          {
            "astId": 4098,
            "contract": "contracts/AdManager.sol:AdManager",
            "label": "displayStartTimestamp",
            "offset": 0,
            "slot": "5",
            "type": "t_uint256"
          },
          {
            "astId": 4100,
            "contract": "contracts/AdManager.sol:AdManager",
            "label": "displayEndTimestamp",
            "offset": 0,
            "slot": "6",
            "type": "t_uint256"
          },
          {
            "astId": 4103,
            "contract": "contracts/AdManager.sol:AdManager",
            "label": "pricing",
            "offset": 0,
            "slot": "7",
            "type": "t_enum(Pricing)4086"
          },
          {
            "astId": 4105,
            "contract": "contracts/AdManager.sol:AdManager",
            "label": "minPrice",
            "offset": 0,
            "slot": "8",
            "type": "t_uint256"
          },
          {
            "astId": 4107,
            "contract": "contracts/AdManager.sol:AdManager",
            "label": "startPrice",
            "offset": 0,
            "slot": "9",
            "type": "t_uint256"
          },
          {
            "astId": 4109,
            "contract": "contracts/AdManager.sol:AdManager",
            "label": "sold",
            "offset": 0,
            "slot": "10",
            "type": "t_bool"
          }
        ],
        "numberOfBytes": "352"
      },
      "t_uint256": {
        "encoding": "inplace",
        "label": "uint256",
        "numberOfBytes": "32"
      }
    }
  }
}