{
  "address": "0x9a8321499DB90d8711DbbAB9C04A31FCB45AA4B1",
  "abi": [
    {
      "inputs": [
        {
          "internalType": "address",
          "name": "nameRegistry",
          "type": "address"
        }
      ],
      "stateMutability": "nonpayable",
      "type": "constructor"
    },
    {
      "anonymous": false,
      "inputs": [
        {
          "indexed": false,
          "internalType": "uint256",
          "name": "postId",
          "type": "uint256"
        },
        {
          "indexed": false,
          "internalType": "uint256",
          "name": "bidId",
          "type": "uint256"
        }
      ],
      "name": "Accept",
      "type": "event"
    },
    {
      "anonymous": false,
      "inputs": [
        {
          "indexed": false,
          "internalType": "uint256",
          "name": "bidId",
          "type": "uint256"
        },
        {
          "indexed": false,
          "internalType": "uint256",
          "name": "postId",
          "type": "uint256"
        },
        {
          "indexed": false,
          "internalType": "address",
          "name": "sender",
          "type": "address"
        },
        {
          "indexed": false,
          "internalType": "uint256",
          "name": "price",
          "type": "uint256"
        },
        {
          "indexed": false,
          "internalType": "string",
          "name": "metadata",
          "type": "string"
        },
        {
          "indexed": false,
          "internalType": "string",
          "name": "originalLink",
          "type": "string"
        }
      ],
      "name": "Bid",
      "type": "event"
    },
    {
      "anonymous": false,
      "inputs": [
        {
          "indexed": false,
          "internalType": "uint256",
          "name": "bidId",
          "type": "uint256"
        },
        {
          "indexed": false,
          "internalType": "uint256",
          "name": "postId",
          "type": "uint256"
        },
        {
          "indexed": false,
          "internalType": "address",
          "name": "sender",
          "type": "address"
        },
        {
          "indexed": false,
          "internalType": "uint256",
          "name": "price",
          "type": "uint256"
        }
      ],
      "name": "Call",
      "type": "event"
    },
    {
      "anonymous": false,
      "inputs": [
        {
          "indexed": false,
          "internalType": "uint256",
          "name": "bitId",
          "type": "uint256"
        },
        {
          "indexed": false,
          "internalType": "uint256",
          "name": "postId",
          "type": "uint256"
        },
        {
          "indexed": false,
          "internalType": "address",
          "name": "successfulBidder",
          "type": "address"
        },
        {
          "indexed": false,
          "internalType": "uint256",
          "name": "price",
          "type": "uint256"
        },
        {
          "indexed": false,
          "internalType": "string",
          "name": "metadata",
          "type": "string"
        }
      ],
      "name": "Close",
      "type": "event"
    },
    {
      "anonymous": false,
      "inputs": [
        {
          "indexed": false,
          "internalType": "uint256",
          "name": "bidId",
          "type": "uint256"
        },
        {
          "indexed": false,
          "internalType": "uint256",
          "name": "postId",
          "type": "uint256"
        }
      ],
      "name": "Deny",
      "type": "event"
    },
    {
      "anonymous": false,
      "inputs": [
        {
          "indexed": false,
          "internalType": "uint256",
          "name": "postId",
          "type": "uint256"
        },
        {
          "indexed": false,
          "internalType": "address",
          "name": "owner",
          "type": "address"
        },
        {
          "indexed": false,
          "internalType": "string",
          "name": "metadata",
          "type": "string"
        },
        {
          "indexed": false,
          "internalType": "uint8",
          "name": "metadataIndex",
          "type": "uint8"
        },
        {
          "indexed": false,
          "internalType": "uint256",
          "name": "fromTimestamp",
          "type": "uint256"
        },
        {
          "indexed": false,
          "internalType": "uint256",
          "name": "toTimestamp",
          "type": "uint256"
        }
      ],
      "name": "NewPost",
      "type": "event"
    },
    {
      "anonymous": false,
      "inputs": [
        {
          "indexed": false,
          "internalType": "uint256",
          "name": "bidId",
          "type": "uint256"
        },
        {
          "indexed": false,
          "internalType": "uint256",
          "name": "postId",
          "type": "uint256"
        },
        {
          "indexed": false,
          "internalType": "string",
          "name": "metadata",
          "type": "string"
        },
        {
          "indexed": false,
          "internalType": "string",
          "name": "originalLink",
          "type": "string"
        }
      ],
      "name": "Propose",
      "type": "event"
    },
    {
      "anonymous": false,
      "inputs": [
        {
          "indexed": false,
          "internalType": "uint256",
          "name": "postId",
          "type": "uint256"
        },
        {
          "indexed": false,
          "internalType": "uint256",
          "name": "fromBidId",
          "type": "uint256"
        },
        {
          "indexed": false,
          "internalType": "uint256",
          "name": "toBidId",
          "type": "uint256"
        }
      ],
      "name": "Recall",
      "type": "event"
    },
    {
      "anonymous": false,
      "inputs": [
        {
          "indexed": false,
          "internalType": "uint256",
          "name": "bitId",
          "type": "uint256"
        },
        {
          "indexed": false,
          "internalType": "uint256",
          "name": "postId",
          "type": "uint256"
        },
        {
          "indexed": false,
          "internalType": "address",
          "name": "sender",
          "type": "address"
        },
        {
          "indexed": false,
          "internalType": "uint256",
          "name": "price",
          "type": "uint256"
        }
      ],
      "name": "Refund",
      "type": "event"
    },
    {
      "anonymous": false,
      "inputs": [
        {
          "indexed": false,
          "internalType": "uint256",
          "name": "postId",
          "type": "uint256"
        },
        {
          "indexed": false,
          "internalType": "string",
          "name": "metadata",
          "type": "string"
        }
      ],
      "name": "UpdateMetadata",
      "type": "event"
    },
    {
      "inputs": [
        {
          "internalType": "uint256",
          "name": "postId",
          "type": "uint256"
        },
        {
          "internalType": "string",
          "name": "metadata",
          "type": "string"
        },
        {
          "internalType": "string",
          "name": "originalLink",
          "type": "string"
        }
      ],
      "name": "_bid",
      "outputs": [],
      "stateMutability": "payable",
      "type": "function"
    },
    {
      "inputs": [
        {
          "internalType": "uint256",
          "name": "postId",
          "type": "uint256"
        }
      ],
      "name": "accept",
      "outputs": [],
      "stateMutability": "nonpayable",
      "type": "function"
    },
    {
      "inputs": [],
      "name": "adPoolAddress",
      "outputs": [
        {
          "internalType": "address",
          "name": "",
          "type": "address"
        }
      ],
      "stateMutability": "view",
      "type": "function"
    },
    {
      "inputs": [
        {
          "internalType": "uint256",
          "name": "",
          "type": "uint256"
        }
      ],
      "name": "allPosts",
      "outputs": [
        {
          "internalType": "uint256",
          "name": "postId",
          "type": "uint256"
        },
        {
          "internalType": "address",
          "name": "owner",
          "type": "address"
        },
        {
          "internalType": "string",
          "name": "metadata",
          "type": "string"
        },
        {
          "internalType": "uint8",
          "name": "metadataIndex",
          "type": "uint8"
        },
        {
          "internalType": "uint256",
          "name": "fromTimestamp",
          "type": "uint256"
        },
        {
          "internalType": "uint256",
          "name": "toTimestamp",
          "type": "uint256"
        },
        {
          "internalType": "uint256",
          "name": "successfulBidId",
          "type": "uint256"
        }
      ],
      "stateMutability": "view",
      "type": "function"
    },
    {
      "inputs": [
        {
          "internalType": "uint256",
          "name": "postId",
          "type": "uint256"
        },
        {
          "internalType": "string",
          "name": "metadata",
          "type": "string"
        },
        {
          "internalType": "string",
          "name": "originalLink",
          "type": "string"
        }
      ],
      "name": "bid",
      "outputs": [],
      "stateMutability": "payable",
      "type": "function"
    },
    {
      "inputs": [
        {
          "internalType": "uint256",
          "name": "",
          "type": "uint256"
        }
      ],
      "name": "bidderInfo",
      "outputs": [
        {
          "internalType": "uint256",
          "name": "bidId",
          "type": "uint256"
        },
        {
          "internalType": "uint256",
          "name": "postId",
          "type": "uint256"
        },
        {
          "internalType": "address",
          "name": "sender",
          "type": "address"
        },
        {
          "internalType": "uint256",
          "name": "price",
          "type": "uint256"
        },
        {
          "internalType": "string",
          "name": "metadata",
          "type": "string"
        },
        {
          "internalType": "string",
          "name": "originalLink",
          "type": "string"
        },
        {
          "internalType": "enum AdManager.DraftStatus",
          "name": "status",
          "type": "uint8"
        }
      ],
      "stateMutability": "view",
      "type": "function"
    },
    {
      "inputs": [
        {
          "internalType": "uint256",
          "name": "postId",
          "type": "uint256"
        }
      ],
      "name": "bidderList",
      "outputs": [
        {
          "internalType": "uint256[]",
          "name": "",
          "type": "uint256[]"
        }
      ],
      "stateMutability": "view",
      "type": "function"
    },
    {
      "inputs": [
        {
          "internalType": "uint256",
          "name": "",
          "type": "uint256"
        },
        {
          "internalType": "uint256",
          "name": "",
          "type": "uint256"
        }
      ],
      "name": "bidders",
      "outputs": [
        {
          "internalType": "uint256",
          "name": "",
          "type": "uint256"
        }
      ],
      "stateMutability": "view",
      "type": "function"
    },
    {
      "inputs": [
        {
          "internalType": "uint256",
          "name": "bidId",
          "type": "uint256"
        }
      ],
      "name": "call",
      "outputs": [],
      "stateMutability": "nonpayable",
      "type": "function"
    },
    {
      "inputs": [
        {
          "internalType": "uint256",
          "name": "bidId",
          "type": "uint256"
        }
      ],
      "name": "close",
      "outputs": [],
      "stateMutability": "nonpayable",
      "type": "function"
    },
    {
      "inputs": [
        {
          "internalType": "uint256",
          "name": "postId",
          "type": "uint256"
        }
      ],
      "name": "deny",
      "outputs": [],
      "stateMutability": "nonpayable",
      "type": "function"
    },
    {
      "inputs": [
        {
          "internalType": "address",
          "name": "account",
          "type": "address"
        }
      ],
      "name": "display",
      "outputs": [
        {
          "internalType": "string",
          "name": "",
          "type": "string"
        }
      ],
      "stateMutability": "view",
      "type": "function"
    },
    {
      "inputs": [
        {
          "internalType": "address",
          "name": "account",
          "type": "address"
        },
        {
          "internalType": "uint8",
          "name": "metadataIndex",
          "type": "uint8"
        },
        {
          "internalType": "uint256",
          "name": "fromPostIdIndex",
          "type": "uint256"
        },
        {
          "internalType": "uint256",
          "name": "toPostIdIndex",
          "type": "uint256"
        }
      ],
      "name": "displayBetween",
      "outputs": [
        {
          "internalType": "string",
          "name": "",
          "type": "string"
        }
      ],
      "stateMutability": "view",
      "type": "function"
    },
    {
      "inputs": [
        {
          "internalType": "address",
          "name": "account",
          "type": "address"
        },
        {
          "internalType": "uint8",
          "name": "metadataIndex",
          "type": "uint8"
        }
      ],
      "name": "displayByIndex",
      "outputs": [
        {
          "internalType": "string",
          "name": "",
          "type": "string"
        }
      ],
      "stateMutability": "view",
      "type": "function"
    },
    {
      "inputs": [],
      "name": "distributionRightAddress",
      "outputs": [
        {
          "internalType": "address",
          "name": "",
          "type": "address"
        }
      ],
      "stateMutability": "view",
      "type": "function"
    },
    {
      "inputs": [
        {
          "internalType": "address",
          "name": "",
          "type": "address"
        },
        {
          "internalType": "uint256",
          "name": "",
          "type": "uint256"
        }
      ],
      "name": "mediaMetadata",
      "outputs": [
        {
          "internalType": "string",
          "name": "",
          "type": "string"
        }
      ],
      "stateMutability": "view",
      "type": "function"
    },
    {
      "inputs": [],
      "name": "nameRegistryAddress",
      "outputs": [
        {
          "internalType": "address",
          "name": "",
          "type": "address"
        }
      ],
      "stateMutability": "view",
      "type": "function"
    },
    {
      "inputs": [
        {
          "internalType": "string",
          "name": "metadata",
          "type": "string"
        },
        {
          "internalType": "uint256",
          "name": "fromTimestamp",
          "type": "uint256"
        },
        {
          "internalType": "uint256",
          "name": "toTimestamp",
          "type": "uint256"
        }
      ],
      "name": "newPost",
      "outputs": [],
      "stateMutability": "nonpayable",
      "type": "function"
    },
    {
      "inputs": [],
      "name": "nextBidId",
      "outputs": [
        {
          "internalType": "uint256",
          "name": "",
          "type": "uint256"
        }
      ],
      "stateMutability": "view",
      "type": "function"
    },
    {
      "inputs": [],
      "name": "nextPostId",
      "outputs": [
        {
          "internalType": "uint256",
          "name": "",
          "type": "uint256"
        }
      ],
      "stateMutability": "view",
      "type": "function"
    },
    {
      "inputs": [],
      "name": "owner",
      "outputs": [
        {
          "internalType": "address",
          "name": "",
          "type": "address"
        }
      ],
      "stateMutability": "view",
      "type": "function"
    },
    {
      "inputs": [
        {
          "internalType": "uint256",
          "name": "postId",
          "type": "uint256"
        },
        {
          "internalType": "string",
          "name": "metadata",
          "type": "string"
        },
        {
          "internalType": "string",
          "name": "originalLink",
          "type": "string"
        }
      ],
      "name": "propose",
      "outputs": [],
      "stateMutability": "nonpayable",
      "type": "function"
    },
    {
      "inputs": [
        {
          "internalType": "uint256",
          "name": "postId",
          "type": "uint256"
        },
        {
          "internalType": "uint256",
          "name": "toBidId",
          "type": "uint256"
        }
      ],
      "name": "recall",
      "outputs": [],
      "stateMutability": "nonpayable",
      "type": "function"
    },
    {
      "inputs": [
        {
          "internalType": "uint256",
          "name": "bidId",
          "type": "uint256"
        }
      ],
      "name": "refund",
      "outputs": [],
      "stateMutability": "nonpayable",
      "type": "function"
    },
    {
      "inputs": [
        {
          "internalType": "address",
          "name": "",
          "type": "address"
        },
        {
          "internalType": "string",
          "name": "",
          "type": "string"
        }
      ],
      "name": "registered",
      "outputs": [
        {
          "internalType": "bool",
          "name": "",
          "type": "bool"
        }
      ],
      "stateMutability": "view",
      "type": "function"
    },
    {
      "inputs": [
        {
          "internalType": "uint256",
          "name": "postId",
          "type": "uint256"
        }
      ],
      "name": "reserve",
      "outputs": [],
      "stateMutability": "payable",
      "type": "function"
    },
    {
      "inputs": [
        {
          "internalType": "uint256",
          "name": "",
          "type": "uint256"
        }
      ],
      "name": "reservedBidIds",
      "outputs": [
        {
          "internalType": "uint256",
          "name": "",
          "type": "uint256"
        }
      ],
      "stateMutability": "view",
      "type": "function"
    },
    {
      "inputs": [],
      "name": "reservedRightAddress",
      "outputs": [
        {
          "internalType": "address",
          "name": "",
          "type": "address"
        }
      ],
      "stateMutability": "view",
      "type": "function"
    },
    {
      "inputs": [
        {
          "internalType": "uint256",
          "name": "postId",
          "type": "uint256"
        },
        {
          "internalType": "string",
          "name": "metadata",
          "type": "string"
        }
      ],
      "name": "updateMetadata",
      "outputs": [],
      "stateMutability": "nonpayable",
      "type": "function"
    },
    {
      "inputs": [],
      "name": "vaultAddress",
      "outputs": [
        {
          "internalType": "address",
          "name": "",
          "type": "address"
        }
      ],
      "stateMutability": "view",
      "type": "function"
    }
  ],
  "transactionHash": "0x175c3c02c703e832cd2bae2c9b298e3059ebec98a932f7950bc5599513614106",
  "args": [
    "0x83b8cD9BC87a5f910fc73646c0Fa623D4d3d7f3D"
  ],
  "solcInputHash": "102169765d2bcf3204047cb260d4f75d",
  "bytecode": "0x6001600781905560085560c0604052601360808190527f68747470733a2f2f6b616c6569646f2e696f2f0000000000000000000000000060a09081526200004a9160099190620000a1565b503480156200005857600080fd5b5060405162002eb438038062002eb48339810160408190526200007b9162000147565b600080546001600160a01b0319166001600160a01b0392909216919091179055620001b6565b828054620000af9062000179565b90600052602060002090601f016020900481019282620000d357600085556200011e565b82601f10620000ee57805160ff19168380011785556200011e565b828001600101855582156200011e579182015b828111156200011e57825182559160200191906001019062000101565b506200012c92915062000130565b5090565b5b808211156200012c576000815560010162000131565b6000602082840312156200015a57600080fd5b81516001600160a01b03811681146200017257600080fd5b9392505050565b600181811c908216806200018e57607f821691505b60208210811415620001b057634e487b7160e01b600052602260045260246000fd5b50919050565b612cee80620001c66000396000f3fe6080604052600436106101cd5760003560e01c80637eaf8578116100f7578063cd95962411610095578063dc26904911610064578063dc2690491461056b578063de55cd1514610581578063eb39113f14610594578063fefdc5d1146105b457600080fd5b8063cd959624146104eb578063d1c11205146104fe578063d3584e841461051e578063d70fa5e41461054b57600080fd5b80638f50b143116100d15780638f50b14314610481578063ac6919a5146104a1578063c79e9cbb146104b6578063c9cd71b5146104d657600080fd5b80637eaf857814610439578063819b25ba146104595780638da5cb5b1461046c57600080fd5b80632b0969261161016f57806356f662821161013e57806356f66282146103745780635c09bd9814610394578063718ce2bc146103aa5780637aec57f3146103dd57600080fd5b80632b096926146102e4578063313c8d4b14610304578063430bf08a1461033f57806353c8388e1461035457600080fd5b806319b05f49116101ab57806319b05f491461025d578063278ecde11461027d57806327b7a2f51461029d57806329a594b5146102cf57600080fd5b806304caebc0146101d25780630aebeb4e146102085780630d5daf3b1461022a575b600080fd5b3480156101de57600080fd5b506101f26101ed36600461272c565b6105d4565b6040516101ff91906129b5565b60405180910390f35b34801561021457600080fd5b5061022861022336600461281f565b61068d565b005b34801561023657600080fd5b5061024a61024536600461281f565b610a77565b6040516101ff9796959493929190612af4565b34801561026957600080fd5b5061022861027836600461281f565b610bd1565b34801561028957600080fd5b5061022861029836600461281f565b610db7565b3480156102a957600080fd5b506000546001600160a01b03165b6040516001600160a01b0390911681526020016101ff565b3480156102db57600080fd5b506102b7610ed0565b3480156102f057600080fd5b506102286102ff36600461281f565b610f9c565b34801561031057600080fd5b5061033161031f36600461281f565b60036020526000908152604090205481565b6040519081526020016101ff565b34801561034b57600080fd5b506102b7611336565b34801561036057600080fd5b5061022861036f366004612838565b61137d565b34801561038057600080fd5b5061022861038f36600461281f565b6113b5565b3480156103a057600080fd5b5061033160075481565b3480156103b657600080fd5b506103ca6103c536600461281f565b61148c565b6040516101ff9796959493929190612a11565b3480156103e957600080fd5b506104296103f83660046126dc565b6006602090815260009283526040909220815180830184018051928152908401929093019190912091525460ff1681565b60405190151581526020016101ff565b34801561044557600080fd5b50610228610454366004612869565b61155f565b61022861046736600461281f565b61166b565b34801561047857600080fd5b506102b76116de565b34801561048d57600080fd5b5061022861049c3660046127d1565b61172d565b3480156104ad57600080fd5b506102b7611a2c565b3480156104c257600080fd5b506101f26104d136600461278d565b611a73565b3480156104e257600080fd5b506102b7611c14565b6102286104f9366004612869565b611c5b565b34801561050a57600080fd5b506103316105193660046128d6565b611cb2565b34801561052a57600080fd5b5061053e61053936600461281f565b611ce3565b6040516101ff9190612971565b34801561055757600080fd5b506101f2610566366004612758565b611d45565b34801561057757600080fd5b5061033160085481565b61022861058f366004612869565b611d5d565b3480156105a057600080fd5b506101f26105af3660046126a2565b611ec9565b3480156105c057600080fd5b506102286105cf3660046128d6565b611ee1565b600560205281600052604060002081815481106105f057600080fd5b9060005260206000200160009150915050805461060c90612c0b565b80601f016020809104026020016040519081016040528092919081815260200182805461063890612c0b565b80156106855780601f1061065a57610100808354040283529160200191610685565b820191906000526020600020905b81548152906001019060200180831161066857829003601f168201915b505050505081565b6000818152600460208181526040808420815160e0810183528154815260018201549381019390935260028101546001600160a01b0316918301919091526003810154606083015291820180549192916080840191906106ec90612c0b565b80601f016020809104026020016040519081016040528092919081815260200182805461071890612c0b565b80156107655780601f1061073a57610100808354040283529160200191610765565b820191906000526020600020905b81548152906001019060200180831161074857829003601f168201915b5050505050815260200160058201805461077e90612c0b565b80601f01602080910402602001604051908101604052809291908181526020018280546107aa90612c0b565b80156107f75780601f106107cc576101008083540402835291602001916107f7565b820191906000526020600020905b8154815290600101906020018083116107da57829003601f168201915b5050509183525050600682015460209091019060ff16600581111561081e5761081e612c77565b600581111561082f5761082f612c77565b90525080519091506108705760405162461bcd60e51b8152602060048201526005602482015264414431303360d81b60448201526064015b60405180910390fd5b60208082015160009081526001918290526040902001546001600160a01b031633146108c65760405162461bcd60e51b815260206004820152600560248201526420a218981960d91b6044820152606401610867565b6020818101516000908152600190915260409020600601829055600460c0820152606081015133906108fc90600a90610900906009612bc0565b61090a9190612b9e565b6040518115909202916000818181858888f19350505050158015610932573d6000803e3d6000fd5b5061093b6124f2565b6001600160a01b03166108fc600a8360600151600161095a9190612bc0565b6109649190612b9e565b6040518115909202916000818181858888f1935050505015801561098c573d6000803e3d6000fd5b506109956124fc565b604080830151602084015191517f8e9e614e0000000000000000000000000000000000000000000000000000000081523360048201526001600160a01b03918216602482015260448101929092529190911690638e9e614e90606401600060405180830381600087803b158015610a0b57600080fd5b505af1158015610a1f573d6000803e3d6000fd5b5050825160208401516040808601516060870151608088015192517ff763d6ab2a4f1accf9c4fca103d30b90f90db83afeaad6b67481601184b1690d9750610a6b965091929091612a62565b60405180910390a15050565b600460208190526000918252604090912080546001820154600283015460038401549484018054939592946001600160a01b0390921693610ab790612c0b565b80601f0160208091040260200160405190810160405280929190818152602001828054610ae390612c0b565b8015610b305780601f10610b0557610100808354040283529160200191610b30565b820191906000526020600020905b815481529060010190602001808311610b1357829003601f168201915b505050505090806005018054610b4590612c0b565b80601f0160208091040260200160405190810160405280929190818152602001828054610b7190612c0b565b8015610bbe5780601f10610b9357610100808354040283529160200191610bbe565b820191906000526020600020905b815481529060010190602001808311610ba157829003601f168201915b5050506006909301549192505060ff1687565b600081815260016020819052604090912001546001600160a01b03163314610c235760405162461bcd60e51b8152602060048201526005602482015264414431303560d81b6044820152606401610867565b610c2b6124fc565b6001600160a01b0316638e9e614e610c41611c14565b6040517fffffffff0000000000000000000000000000000000000000000000000000000060e084901b1681526001600160a01b03909116600482015233602482015260448101849052606401600060405180830381600087803b158015610ca757600080fd5b505af1158015610cbb573d6000803e3d6000fd5b5050506000828152600360205260409020549050610cd7612506565b60008281526004602081905260409182902060030154915163aa90b35f60e01b8152339181019190915260248101919091526001600160a01b03919091169063aa90b35f90604401600060405180830381600087803b158015610d3957600080fd5b505af1158015610d4d573d6000803e3d6000fd5b50505060008281526004602081815260408084206006908101805460ff1916909417909355868452600182529283902090910184905581518581529081018490527f66b40296db692bd2f393bda18cf3f9d917966186767279128a62afeb90e43b39925001610a6b565b6000818152600460205260409020600201546001600160a01b03163314610e205760405162461bcd60e51b815260206004820152600560248201527f41443130340000000000000000000000000000000000000000000000000000006044820152606401610867565b600081815260046020526040808220600301549051339282156108fc02929190818181858888f19350505050158015610e5d573d6000803e3d6000fd5b5060008181526004602090815260409182902060068101805460ff1916600517905560018101546003909101548351858152928301919091523382840152606082015290517f303a7a5ed564cf1b7e8ec302e0d290e0c69d9785d1e5d43db651d7995f0bc019916080908290030190a150565b600080546040517f526573657276656452696768740000000000000000000000000000000000000060208201526001600160a01b0390911690638eaa6ac090602d015b604051602081830303815290604052805190602001206040518263ffffffff1660e01b8152600401610f4791815260200190565b60206040518083038186803b158015610f5f57600080fd5b505afa158015610f73573d6000803e3d6000fd5b505050506040513d601f19601f82011682018060405250810190610f9791906126bf565b905090565b6000818152600460208181526040808420815160e0810183528154815260018201549381019390935260028101546001600160a01b031691830191909152600381015460608301529182018054919291608084019190610ffb90612c0b565b80601f016020809104026020016040519081016040528092919081815260200182805461102790612c0b565b80156110745780601f1061104957610100808354040283529160200191611074565b820191906000526020600020905b81548152906001019060200180831161105757829003601f168201915b5050505050815260200160058201805461108d90612c0b565b80601f01602080910402602001604051908101604052809291908181526020018280546110b990612c0b565b80156111065780601f106110db57610100808354040283529160200191611106565b820191906000526020600020905b8154815290600101906020018083116110e957829003601f168201915b5050509183525050600682015460209091019060ff16600581111561112d5761112d612c77565b600581111561113e5761113e612c77565b905250805190915061117a5760405162461bcd60e51b8152602060048201526005602482015264414431303360d81b6044820152606401610867565b60208082015160009081526001918290526040902001546001600160a01b031633146111d05760405162461bcd60e51b815260206004820152600560248201526420a218981960d91b6044820152606401610867565b6020818101516000908152600390915260409020829055600160c08201526111f66124fc565b6001600160a01b0316638e9e614e3361120d611c14565b60208501516040517fffffffff0000000000000000000000000000000000000000000000000000000060e086901b1681526001600160a01b0393841660048201529290911660248301526044820152606401600060405180830381600087803b15801561127957600080fd5b505af115801561128d573d6000803e3d6000fd5b50505050611299611c14565b6001600160a01b03166108fc82606001519081150290604051600060405180830381858888f193505050501580156112d5573d6000803e3d6000fd5b507f70c21df4a109699ac5cbee04e25054d865a14a532529a731a11afcd25ed1914a82826020015183604001518460600151604051610a6b949392919093845260208401929092526001600160a01b03166040830152606082015260800190565b600080546040517f5661756c7400000000000000000000000000000000000000000000000000000060208201526001600160a01b0390911690638eaa6ac090602501610f13565b60008281526003602090815260408083205480845260048084529190932084516113af93919092019190850190612510565b50505050565b600081815260036020526040902054600260008281526004602052604090206006015460ff1660058111156113ec576113ec612c77565b146114395760405162461bcd60e51b815260206004820152600560248201527f41443130360000000000000000000000000000000000000000000000000000006044820152606401610867565b600081815260046020908152604091829020600601805460ff1916600117905581518381529081018490527fb4f2cd71a07f3c432393e99783b21b73c1ccf8f528fd95885166c9f8a83669d69101610a6b565b60016020819052600091825260409091208054918101546002820180546001600160a01b0390921692916114bf90612c0b565b80601f01602080910402602001604051908101604052809291908181526020018280546114eb90612c0b565b80156115385780601f1061150d57610100808354040283529160200191611538565b820191906000526020600020905b81548152906001019060200180831161151b57829003601f168201915b50505050600383015460048401546005850154600690950154939460ff9092169390925087565b6000838152600360209081526040808320548084526004909252909120600201546001600160a01b031633146115bf5760405162461bcd60e51b8152602060048201526005602482015264414431303560d81b6044820152606401610867565b600081815260046020818152604090922085516115e493919092019190860190612510565b506000818152600460209081526040909120835161160a92600590920191850190612510565b5060008181526004602052604090819020600601805460ff19166002179055517facf1a4a97394444387f3458d02bd2e5c6e9486d300f4f7c14ac402e2a116c0839061165d908390879087908790612b6d565b60405180910390a150505050565b600081815260016020526040902060060154156116b25760405162461bcd60e51b815260206004820152600560248201526420a218981960d91b6044820152606401610867565b6116db816040518060200160405280600081525060405180602001604052806000815250611d5d565b50565b60008060009054906101000a90046001600160a01b03166001600160a01b0316638da5cb5b6040518163ffffffff1660e01b815260040160206040518083038186803b158015610f5f57600080fd5b80821061177c5760405162461bcd60e51b815260206004820152600560248201527f41443130310000000000000000000000000000000000000000000000000000006044820152606401610867565b6117c86040518060e001604052806000815260200160006001600160a01b0316815260200160608152602001600060ff1681526020016000815260200160008152602001600081525090565b600780549060006117d883612c46565b90915550815233602080830182905260408084018790526080840186905260a0840185905260009283526006909152908190209051611818908690612924565b9081526040519081900360200190205460ff166118a3573360009081526006602052604090819020905160019190611851908790612924565b9081526040805160209281900383019020805460ff1916931515939093179092553360009081526005825291822080546001810182559083529181902086516118a1939190910191870190612510565b505b3360009081526005602090815260408083205460ff166060850152835183526001808352928190208451815584830151938101805473ffffffffffffffffffffffffffffffffffffffff19166001600160a01b0390951694909417909355830151805184939261191a926002850192910190612510565b50606082015160038201805460ff191660ff9092169190911790556080820151600482015560a0820151600582015560c09091015160069091015561195d6124fc565b81516040517fd3fc98640000000000000000000000000000000000000000000000000000000081526001600160a01b03929092169163d3fc9864916119a9913391908990600401612940565b600060405180830381600087803b1580156119c357600080fd5b505af11580156119d7573d6000803e3d6000fd5b505050507fc98049608c45ad7f176282c68bffce5456433c3107d732377291e6758e79dec6816000015182602001518360400151846060015185608001518660a0015160405161165d969594939291906129c8565b600080546040517f446973747269627574696f6e526967687400000000000000000000000000000060208201526001600160a01b0390911690638eaa6ac090603101610f13565b6060825b82811015611bc357600081815260016020819052604090912001546001600160a01b038781169116148015611ac2575060008181526001602052604090206003015460ff8681169116145b8015611ade575060008181526001602052604090206004015442115b8015611afa575060008181526001602052604090206005015442105b15611bb1576000818152600160209081526040808320600601548352600491829052909120018054611b2b90612c0b565b80601f0160208091040260200160405190810160405280929190818152602001828054611b5790612c0b565b8015611ba45780601f10611b7957610100808354040283529160200191611ba4565b820191906000526020600020905b815481529060010190602001808311611b8757829003601f168201915b5050505050915050611c0c565b80611bbb81612c46565b915050611a77565b5060405162461bcd60e51b815260206004820152600260248201527f41440000000000000000000000000000000000000000000000000000000000006044820152606401610867565b949350505050565b600080546040517f4164506f6f6c000000000000000000000000000000000000000000000000000060208201526001600160a01b0390911690638eaa6ac090602601610f13565b60008381526001602052604090206006015415611ca25760405162461bcd60e51b815260206004820152600560248201526420a218981960d91b6044820152606401610867565b611cad838383611d5d565b505050565b60026020528160005260406000208181548110611cce57600080fd5b90600052602060002001600091509150505481565b600081815260026020908152604091829020805483518184028101840190945280845260609392830182828015611d3957602002820191906000526020600020905b815481526020019060010190808311611d25575b50505050509050919050565b6060611d5683836000600754611a73565b9392505050565b611d65612594565b60088054906000611d7583612c46565b90915550808252602080830186815233604080860191825234606087019081526080870189815260a08801899052600060c089018190529687526004808752929096208751815593516001850155915160028401805473ffffffffffffffffffffffffffffffffffffffff19166001600160a01b03909216919091179055905160038301559251805185949293611e10938501920190612510565b5060a08201518051611e2c916005840191602090910190612510565b5060c082015160068201805460ff19166001836005811115611e5057611e50612c77565b02179055505050600084815260026020908152604080832084518154600181018355918552938390200192909255825190830151838301516060850151608086015160a087015195517f3e7f9a65d541ccee63177d29635cbb0ffec0bf032e171ee86ab9037c7e5c2d049661165d969594939291612aa1565b6060611edb8260016000600754611a73565b92915050565b600082815260016020819052604090912001546001600160a01b03163314611f335760405162461bcd60e51b8152602060048201526005602482015264414431303560d81b6044820152606401610867565b6000828152600360208181526040808420548085526004808452828620835160e0810185528154815260018201549581019590955260028101546001600160a01b0316938501939093529382015460608401529281018054939493608084019190611f9d90612c0b565b80601f0160208091040260200160405190810160405280929190818152602001828054611fc990612c0b565b80156120165780601f10611feb57610100808354040283529160200191612016565b820191906000526020600020905b815481529060010190602001808311611ff957829003601f168201915b5050505050815260200160058201805461202f90612c0b565b80601f016020809104026020016040519081016040528092919081815260200182805461205b90612c0b565b80156120a85780601f1061207d576101008083540402835291602001916120a8565b820191906000526020600020905b81548152906001019060200180831161208b57829003601f168201915b5050509183525050600682015460209091019060ff1660058111156120cf576120cf612c77565b60058111156120e0576120e0612c77565b9052506000848152600460208181526040808420815160e0810183528154815260018201549381019390935260028101546001600160a01b03169183019190915260038101546060830152918201805494955092939092608084019161214590612c0b565b80601f016020809104026020016040519081016040528092919081815260200182805461217190612c0b565b80156121be5780601f10612193576101008083540402835291602001916121be565b820191906000526020600020905b8154815290600101906020018083116121a157829003601f168201915b505050505081526020016005820180546121d790612c0b565b80601f016020809104026020016040519081016040528092919081815260200182805461220390612c0b565b80156122505780601f1061222557610100808354040283529160200191612250565b820191906000526020600020905b81548152906001019060200180831161223357829003601f168201915b5050509183525050600682015460209091019060ff16600581111561227757612277612c77565b600581111561228857612288612c77565b81525050905080606001518260600151106122e55760405162461bcd60e51b815260206004820152600560248201527f41443130370000000000000000000000000000000000000000000000000000006044820152606401610867565b60018260c0015160058111156122fd576122fd612c77565b1461234a5760405162461bcd60e51b815260206004820152600560248201527f41443130380000000000000000000000000000000000000000000000000000006044820152606401610867565b600083815260046020908152604080832060069081018054600360ff19918216811790925589865283862090920180549092166001179091558884529091529020849055612396612506565b6040808401516060850151915163aa90b35f60e01b81526001600160a01b0391821660048201526024810192909252919091169063aa90b35f90604401600060405180830381600087803b1580156123ed57600080fd5b505af1158015612401573d6000803e3d6000fd5b5050505061240d611c14565b6001600160a01b03166108fc60648360600151606361242c9190612bc0565b6124369190612b9e565b6040518115909202916000818181858888f1935050505015801561245e573d6000803e3d6000fd5b5081604001516001600160a01b03166108fc606484606001516124819190612b9e565b6040518115909202916000818181858888f193505050501580156124a9573d6000803e3d6000fd5b5060408051868152602081018590529081018590527f8fd474607adac0322dd5e58b957d3cc516ea6a80026937e3fadea6e31aed7dda9060600160405180910390a15050505050565b6000610f97611336565b6000610f97611a2c565b6000610f97611c14565b82805461251c90612c0b565b90600052602060002090601f01602090048101928261253e5760008555612584565b82601f1061255757805160ff1916838001178555612584565b82800160010185558215612584579182015b82811115612584578251825591602001919060010190612569565b506125909291506125ea565b5090565b6040518060e00160405280600081526020016000815260200160006001600160a01b03168152602001600081526020016060815260200160608152602001600060058111156125e5576125e5612c77565b905290565b5b8082111561259057600081556001016125eb565b600082601f83011261261057600080fd5b813567ffffffffffffffff8082111561262b5761262b612c8d565b604051601f8301601f19908116603f0116810190828211818310171561265357612653612c8d565b8160405283815286602085880101111561266c57600080fd5b836020870160208301376000602085830101528094505050505092915050565b803560ff8116811461269d57600080fd5b919050565b6000602082840312156126b457600080fd5b8135611d5681612ca3565b6000602082840312156126d157600080fd5b8151611d5681612ca3565b600080604083850312156126ef57600080fd5b82356126fa81612ca3565b9150602083013567ffffffffffffffff81111561271657600080fd5b612722858286016125ff565b9150509250929050565b6000806040838503121561273f57600080fd5b823561274a81612ca3565b946020939093013593505050565b6000806040838503121561276b57600080fd5b823561277681612ca3565b91506127846020840161268c565b90509250929050565b600080600080608085870312156127a357600080fd5b84356127ae81612ca3565b93506127bc6020860161268c565b93969395505050506040820135916060013590565b6000806000606084860312156127e657600080fd5b833567ffffffffffffffff8111156127fd57600080fd5b612809868287016125ff565b9660208601359650604090950135949350505050565b60006020828403121561283157600080fd5b5035919050565b6000806040838503121561284b57600080fd5b82359150602083013567ffffffffffffffff81111561271657600080fd5b60008060006060848603121561287e57600080fd5b83359250602084013567ffffffffffffffff8082111561289d57600080fd5b6128a9878388016125ff565b935060408601359150808211156128bf57600080fd5b506128cc868287016125ff565b9150509250925092565b600080604083850312156128e957600080fd5b50508035926020909101359150565b60008151808452612910816020860160208601612bdf565b601f01601f19169290920160200192915050565b60008251612936818460208701612bdf565b9190910192915050565b6001600160a01b038416815282602082015260606040820152600061296860608301846128f8565b95945050505050565b6020808252825182820181905260009190848201906040850190845b818110156129a95783518352928401929184019160010161298d565b50909695505050505050565b602081526000611d5660208301846128f8565b8681526001600160a01b038616602082015260c0604082015260006129f060c08301876128f8565b60ff95909516606083015250608081019290925260a0909101529392505050565b8781526001600160a01b038716602082015260e060408201526000612a3960e08301886128f8565b905060ff861660608301528460808301528360a08301528260c083015298975050505050505050565b8581528460208201526001600160a01b038416604082015282606082015260a060808201526000612a9660a08301846128f8565b979650505050505050565b8681528560208201526001600160a01b038516604082015283606082015260c060808201526000612ad560c08301856128f8565b82810360a0840152612ae781856128f8565b9998505050505050505050565b8781528660208201526001600160a01b038616604082015284606082015260e060808201526000612b2860e08301866128f8565b82810360a0840152612b3a81866128f8565b91505060068310612b5b57634e487b7160e01b600052602160045260246000fd5b8260c083015298975050505050505050565b848152836020820152608060408201526000612b8c60808301856128f8565b8281036060840152612a9681856128f8565b600082612bbb57634e487b7160e01b600052601260045260246000fd5b500490565b6000816000190483118215151615612bda57612bda612c61565b500290565b60005b83811015612bfa578181015183820152602001612be2565b838111156113af5750506000910152565b600181811c90821680612c1f57607f821691505b60208210811415612c4057634e487b7160e01b600052602260045260246000fd5b50919050565b6000600019821415612c5a57612c5a612c61565b5060010190565b634e487b7160e01b600052601160045260246000fd5b634e487b7160e01b600052602160045260246000fd5b634e487b7160e01b600052604160045260246000fd5b6001600160a01b03811681146116db57600080fdfea2646970667358221220c5aaa5b06247515e0042831f90762745d896a2ddcdc8f51623f760cdb6d78ecc64736f6c63430008060033",
  "devdoc": {
    "author": "Shumpei Koike - <shumpei.koike@bridges.inc>",
    "kind": "dev",
    "methods": {
      "adPoolAddress()": {
        "details": "Gets the address of AdPool."
      },
      "bid(uint256,string,string)": {
        "details": "Bids to the post, sharing what kind of Ads would be public. The owner of the Ad space can select the one according to not only the price but also the preference inside the metadata.",
        "params": {
          "metadata": "string of the hashed path to the storage",
          "postId": "uint256 of the post ID"
        }
      },
      "close(uint256)": {
        "details": "Closes the offering and mints the NFT to the successful bidder. The amount would be paid to the post owner.",
        "params": {
          "bidId": "uint256 of the bid ID"
        }
      },
      "distributionRightAddress()": {
        "details": "Gets the address of DistributionRight."
      },
      "nameRegistryAddress()": {
        "details": "Gets the address of NameRegistry"
      },
      "newPost(string,uint256,uint256)": {
        "details": "Creates a new post where the owner who has the advertising area can public the space. The basic infomation of the area is described on the storage, which is accessed by the metadata hash.",
        "params": {
          "fromTimestamp": "uint256 of the timestamp to display the ad",
          "metadata": "string of the hashed path to the storage",
          "toTimestamp": "uint256 of the timestamp to display the ad"
        }
      },
      "owner()": {
        "details": "Gets the owner address."
      },
      "refund(uint256)": {
        "details": "Can refund the amount if you want to cancel or the other is determinted as the successful bidder.",
        "params": {
          "bidId": "uint256 of the bid ID"
        }
      },
      "reservedRightAddress()": {
        "details": "Gets the address of ReservedRight."
      },
      "vaultAddress()": {
        "details": "Gets the address of Vault."
      }
    },
    "title": "AdManager - allows anyone to create a post and bit to the post.",
    "version": 1
  },
  "userdoc": {
    "kind": "user",
    "methods": {},
    "version": 1
  },
  "storageLayout": {
    "storage": [
      {
        "astId": 526,
        "contract": "contracts/base/AdManager.sol:AdManager",
        "label": "_nameRegistry",
        "offset": 0,
        "slot": "0",
        "type": "t_contract(NameRegistry)725"
      },
      {
        "astId": 885,
        "contract": "contracts/base/AdManager.sol:AdManager",
        "label": "allPosts",
        "offset": 0,
        "slot": "1",
        "type": "t_mapping(t_uint256,t_struct(PostContent)864_storage)"
      },
      {
        "astId": 890,
        "contract": "contracts/base/AdManager.sol:AdManager",
        "label": "bidders",
        "offset": 0,
        "slot": "2",
        "type": "t_mapping(t_uint256,t_array(t_uint256)dyn_storage)"
      },
      {
        "astId": 894,
        "contract": "contracts/base/AdManager.sol:AdManager",
        "label": "reservedBidIds",
        "offset": 0,
        "slot": "3",
        "type": "t_mapping(t_uint256,t_uint256)"
      },
      {
        "astId": 899,
        "contract": "contracts/base/AdManager.sol:AdManager",
        "label": "bidderInfo",
        "offset": 0,
        "slot": "4",
        "type": "t_mapping(t_uint256,t_struct(Bidder)880_storage)"
      },
      {
        "astId": 904,
        "contract": "contracts/base/AdManager.sol:AdManager",
        "label": "mediaMetadata",
        "offset": 0,
        "slot": "5",
        "type": "t_mapping(t_address,t_array(t_string_storage)dyn_storage)"
      },
      {
        "astId": 910,
        "contract": "contracts/base/AdManager.sol:AdManager",
        "label": "registered",
        "offset": 0,
        "slot": "6",
        "type": "t_mapping(t_address,t_mapping(t_string_memory_ptr,t_bool))"
      },
      {
        "astId": 913,
        "contract": "contracts/base/AdManager.sol:AdManager",
        "label": "nextPostId",
        "offset": 0,
        "slot": "7",
        "type": "t_uint256"
      },
      {
        "astId": 916,
        "contract": "contracts/base/AdManager.sol:AdManager",
        "label": "nextBidId",
        "offset": 0,
        "slot": "8",
        "type": "t_uint256"
      },
      {
        "astId": 919,
        "contract": "contracts/base/AdManager.sol:AdManager",
        "label": "_baseURI",
        "offset": 0,
        "slot": "9",
        "type": "t_string_storage"
      }
    ],
    "types": {
      "t_address": {
        "encoding": "inplace",
        "label": "address",
        "numberOfBytes": "20"
      },
      "t_array(t_string_storage)dyn_storage": {
        "base": "t_string_storage",
        "encoding": "dynamic_array",
        "label": "string[]",
        "numberOfBytes": "32"
      },
      "t_array(t_uint256)dyn_storage": {
        "base": "t_uint256",
        "encoding": "dynamic_array",
        "label": "uint256[]",
        "numberOfBytes": "32"
      },
      "t_bool": {
        "encoding": "inplace",
        "label": "bool",
        "numberOfBytes": "1"
      },
      "t_contract(NameRegistry)725": {
        "encoding": "inplace",
        "label": "contract NameRegistry",
        "numberOfBytes": "20"
      },
      "t_enum(DraftStatus)849": {
        "encoding": "inplace",
        "label": "enum AdManager.DraftStatus",
        "numberOfBytes": "1"
      },
      "t_mapping(t_address,t_array(t_string_storage)dyn_storage)": {
        "encoding": "mapping",
        "key": "t_address",
        "label": "mapping(address => string[])",
        "numberOfBytes": "32",
        "value": "t_array(t_string_storage)dyn_storage"
      },
      "t_mapping(t_address,t_mapping(t_string_memory_ptr,t_bool))": {
        "encoding": "mapping",
        "key": "t_address",
        "label": "mapping(address => mapping(string => bool))",
        "numberOfBytes": "32",
        "value": "t_mapping(t_string_memory_ptr,t_bool)"
      },
      "t_mapping(t_string_memory_ptr,t_bool)": {
        "encoding": "mapping",
        "key": "t_string_memory_ptr",
        "label": "mapping(string => bool)",
        "numberOfBytes": "32",
        "value": "t_bool"
      },
      "t_mapping(t_uint256,t_array(t_uint256)dyn_storage)": {
        "encoding": "mapping",
        "key": "t_uint256",
        "label": "mapping(uint256 => uint256[])",
        "numberOfBytes": "32",
        "value": "t_array(t_uint256)dyn_storage"
      },
      "t_mapping(t_uint256,t_struct(Bidder)880_storage)": {
        "encoding": "mapping",
        "key": "t_uint256",
        "label": "mapping(uint256 => struct AdManager.Bidder)",
        "numberOfBytes": "32",
        "value": "t_struct(Bidder)880_storage"
      },
      "t_mapping(t_uint256,t_struct(PostContent)864_storage)": {
        "encoding": "mapping",
        "key": "t_uint256",
        "label": "mapping(uint256 => struct AdManager.PostContent)",
        "numberOfBytes": "32",
        "value": "t_struct(PostContent)864_storage"
      },
      "t_mapping(t_uint256,t_uint256)": {
        "encoding": "mapping",
        "key": "t_uint256",
        "label": "mapping(uint256 => uint256)",
        "numberOfBytes": "32",
        "value": "t_uint256"
      },
      "t_string_memory_ptr": {
        "encoding": "bytes",
        "label": "string",
        "numberOfBytes": "32"
      },
      "t_string_storage": {
        "encoding": "bytes",
        "label": "string",
        "numberOfBytes": "32"
      },
      "t_struct(Bidder)880_storage": {
        "encoding": "inplace",
        "label": "struct AdManager.Bidder",
        "members": [
          {
            "astId": 866,
            "contract": "contracts/base/AdManager.sol:AdManager",
            "label": "bidId",
            "offset": 0,
            "slot": "0",
            "type": "t_uint256"
          },
          {
            "astId": 868,
            "contract": "contracts/base/AdManager.sol:AdManager",
            "label": "postId",
            "offset": 0,
            "slot": "1",
            "type": "t_uint256"
          },
          {
            "astId": 870,
            "contract": "contracts/base/AdManager.sol:AdManager",
            "label": "sender",
            "offset": 0,
            "slot": "2",
            "type": "t_address"
          },
          {
            "astId": 872,
            "contract": "contracts/base/AdManager.sol:AdManager",
            "label": "price",
            "offset": 0,
            "slot": "3",
            "type": "t_uint256"
          },
          {
            "astId": 874,
            "contract": "contracts/base/AdManager.sol:AdManager",
            "label": "metadata",
            "offset": 0,
            "slot": "4",
            "type": "t_string_storage"
          },
          {
            "astId": 876,
            "contract": "contracts/base/AdManager.sol:AdManager",
            "label": "originalLink",
            "offset": 0,
            "slot": "5",
            "type": "t_string_storage"
          },
          {
            "astId": 879,
            "contract": "contracts/base/AdManager.sol:AdManager",
            "label": "status",
            "offset": 0,
            "slot": "6",
            "type": "t_enum(DraftStatus)849"
          }
        ],
        "numberOfBytes": "224"
      },
      "t_struct(PostContent)864_storage": {
        "encoding": "inplace",
        "label": "struct AdManager.PostContent",
        "members": [
          {
            "astId": 851,
            "contract": "contracts/base/AdManager.sol:AdManager",
            "label": "postId",
            "offset": 0,
            "slot": "0",
            "type": "t_uint256"
          },
          {
            "astId": 853,
            "contract": "contracts/base/AdManager.sol:AdManager",
            "label": "owner",
            "offset": 0,
            "slot": "1",
            "type": "t_address"
          },
          {
            "astId": 855,
            "contract": "contracts/base/AdManager.sol:AdManager",
            "label": "metadata",
            "offset": 0,
            "slot": "2",
            "type": "t_string_storage"
          },
          {
            "astId": 857,
            "contract": "contracts/base/AdManager.sol:AdManager",
            "label": "metadataIndex",
            "offset": 0,
            "slot": "3",
            "type": "t_uint8"
          },
          {
            "astId": 859,
            "contract": "contracts/base/AdManager.sol:AdManager",
            "label": "fromTimestamp",
            "offset": 0,
            "slot": "4",
            "type": "t_uint256"
          },
          {
            "astId": 861,
            "contract": "contracts/base/AdManager.sol:AdManager",
            "label": "toTimestamp",
            "offset": 0,
            "slot": "5",
            "type": "t_uint256"
          },
          {
            "astId": 863,
            "contract": "contracts/base/AdManager.sol:AdManager",
            "label": "successfulBidId",
            "offset": 0,
            "slot": "6",
            "type": "t_uint256"
          }
        ],
        "numberOfBytes": "224"
      },
      "t_uint256": {
        "encoding": "inplace",
        "label": "uint256",
        "numberOfBytes": "32"
      },
      "t_uint8": {
        "encoding": "inplace",
        "label": "uint8",
        "numberOfBytes": "1"
      }
    }
  }
}