{
  "address": "0xdeF91C8d4e1Ca519F09B23691D9e5A92c54bb6DE",
  "abi": [
    {
      "inputs": [
        {
          "internalType": "address",
          "name": "nameRegistry",
          "type": "address"
        }
      ],
      "stateMutability": "nonpayable",
      "type": "constructor"
    },
    {
      "anonymous": false,
      "inputs": [
        {
          "indexed": false,
          "internalType": "uint256",
          "name": "postId",
          "type": "uint256"
        },
        {
          "indexed": false,
          "internalType": "uint256",
          "name": "bidId",
          "type": "uint256"
        }
      ],
      "name": "Accept",
      "type": "event"
    },
    {
      "anonymous": false,
      "inputs": [
        {
          "indexed": false,
          "internalType": "uint256",
          "name": "bidId",
          "type": "uint256"
        },
        {
          "indexed": false,
          "internalType": "uint256",
          "name": "postId",
          "type": "uint256"
        },
        {
          "indexed": false,
          "internalType": "address",
          "name": "sender",
          "type": "address"
        },
        {
          "indexed": false,
          "internalType": "uint256",
          "name": "price",
          "type": "uint256"
        },
        {
          "indexed": false,
          "internalType": "string",
          "name": "metadata",
          "type": "string"
        }
      ],
      "name": "Bid",
      "type": "event"
    },
    {
      "anonymous": false,
      "inputs": [
        {
          "indexed": false,
          "internalType": "uint256",
          "name": "bidId",
          "type": "uint256"
        },
        {
          "indexed": false,
          "internalType": "uint256",
          "name": "postId",
          "type": "uint256"
        },
        {
          "indexed": false,
          "internalType": "address",
          "name": "sender",
          "type": "address"
        },
        {
          "indexed": false,
          "internalType": "uint256",
          "name": "price",
          "type": "uint256"
        }
      ],
      "name": "Book",
      "type": "event"
    },
    {
      "anonymous": false,
      "inputs": [
        {
          "indexed": false,
          "internalType": "uint256",
          "name": "bidId",
          "type": "uint256"
        },
        {
          "indexed": false,
          "internalType": "uint256",
          "name": "postId",
          "type": "uint256"
        },
        {
          "indexed": false,
          "internalType": "address",
          "name": "sender",
          "type": "address"
        },
        {
          "indexed": false,
          "internalType": "uint256",
          "name": "price",
          "type": "uint256"
        }
      ],
      "name": "Call",
      "type": "event"
    },
    {
      "anonymous": false,
      "inputs": [
        {
          "indexed": false,
          "internalType": "uint256",
          "name": "bitId",
          "type": "uint256"
        },
        {
          "indexed": false,
          "internalType": "uint256",
          "name": "postId",
          "type": "uint256"
        },
        {
          "indexed": false,
          "internalType": "address",
          "name": "successfulBidder",
          "type": "address"
        },
        {
          "indexed": false,
          "internalType": "uint256",
          "name": "price",
          "type": "uint256"
        },
        {
          "indexed": false,
          "internalType": "string",
          "name": "metadata",
          "type": "string"
        }
      ],
      "name": "Close",
      "type": "event"
    },
    {
      "anonymous": false,
      "inputs": [
        {
          "indexed": false,
          "internalType": "uint256",
          "name": "bidId",
          "type": "uint256"
        },
        {
          "indexed": false,
          "internalType": "uint256",
          "name": "postId",
          "type": "uint256"
        }
      ],
      "name": "Deny",
      "type": "event"
    },
    {
      "anonymous": false,
      "inputs": [
        {
          "indexed": false,
          "internalType": "uint256",
          "name": "postId",
          "type": "uint256"
        },
        {
          "indexed": false,
          "internalType": "address",
          "name": "owner",
          "type": "address"
        },
        {
          "indexed": false,
          "internalType": "string",
          "name": "metadata",
          "type": "string"
        },
        {
          "indexed": false,
          "internalType": "uint8",
          "name": "metadataIndex",
          "type": "uint8"
        },
        {
          "indexed": false,
          "internalType": "uint256",
          "name": "fromTimestamp",
          "type": "uint256"
        },
        {
          "indexed": false,
          "internalType": "uint256",
          "name": "toTimestamp",
          "type": "uint256"
        }
      ],
      "name": "NewPost",
      "type": "event"
    },
    {
      "anonymous": false,
      "inputs": [
        {
          "indexed": false,
          "internalType": "uint256",
          "name": "bidId",
          "type": "uint256"
        },
        {
          "indexed": false,
          "internalType": "uint256",
          "name": "postId",
          "type": "uint256"
        },
        {
          "indexed": false,
          "internalType": "string",
          "name": "metadata",
          "type": "string"
        }
      ],
      "name": "Propose",
      "type": "event"
    },
    {
      "anonymous": false,
      "inputs": [
        {
          "indexed": false,
          "internalType": "uint256",
          "name": "bitId",
          "type": "uint256"
        },
        {
          "indexed": false,
          "internalType": "uint256",
          "name": "postId",
          "type": "uint256"
        },
        {
          "indexed": false,
          "internalType": "address",
          "name": "sender",
          "type": "address"
        },
        {
          "indexed": false,
          "internalType": "uint256",
          "name": "price",
          "type": "uint256"
        }
      ],
      "name": "Refund",
      "type": "event"
    },
    {
      "inputs": [
        {
          "internalType": "uint256",
          "name": "postId",
          "type": "uint256"
        }
      ],
      "name": "accept",
      "outputs": [],
      "stateMutability": "nonpayable",
      "type": "function"
    },
    {
      "inputs": [],
      "name": "adPoolAddress",
      "outputs": [
        {
          "internalType": "address",
          "name": "",
          "type": "address"
        }
      ],
      "stateMutability": "view",
      "type": "function"
    },
    {
      "inputs": [
        {
          "internalType": "uint256",
          "name": "",
          "type": "uint256"
        }
      ],
      "name": "allPosts",
      "outputs": [
        {
          "internalType": "uint256",
          "name": "postId",
          "type": "uint256"
        },
        {
          "internalType": "address",
          "name": "owner",
          "type": "address"
        },
        {
          "internalType": "string",
          "name": "metadata",
          "type": "string"
        },
        {
          "internalType": "uint8",
          "name": "metadataIndex",
          "type": "uint8"
        },
        {
          "internalType": "uint256",
          "name": "fromTimestamp",
          "type": "uint256"
        },
        {
          "internalType": "uint256",
          "name": "toTimestamp",
          "type": "uint256"
        },
        {
          "internalType": "uint256",
          "name": "successfulBidId",
          "type": "uint256"
        }
      ],
      "stateMutability": "view",
      "type": "function"
    },
    {
      "inputs": [
        {
          "internalType": "uint256",
          "name": "postId",
          "type": "uint256"
        },
        {
          "internalType": "string",
          "name": "metadata",
          "type": "string"
        }
      ],
      "name": "bid",
      "outputs": [],
      "stateMutability": "payable",
      "type": "function"
    },
    {
      "inputs": [
        {
          "internalType": "uint256",
          "name": "",
          "type": "uint256"
        }
      ],
      "name": "bidderInfo",
      "outputs": [
        {
          "internalType": "uint256",
          "name": "bidId",
          "type": "uint256"
        },
        {
          "internalType": "uint256",
          "name": "postId",
          "type": "uint256"
        },
        {
          "internalType": "address",
          "name": "sender",
          "type": "address"
        },
        {
          "internalType": "uint256",
          "name": "price",
          "type": "uint256"
        },
        {
          "internalType": "string",
          "name": "metadata",
          "type": "string"
        },
        {
          "internalType": "enum AdManager.DraftStatus",
          "name": "status",
          "type": "uint8"
        }
      ],
      "stateMutability": "view",
      "type": "function"
    },
    {
      "inputs": [
        {
          "internalType": "uint256",
          "name": "postId",
          "type": "uint256"
        }
      ],
      "name": "bidderList",
      "outputs": [
        {
          "internalType": "uint256[]",
          "name": "",
          "type": "uint256[]"
        }
      ],
      "stateMutability": "view",
      "type": "function"
    },
    {
      "inputs": [
        {
          "internalType": "uint256",
          "name": "",
          "type": "uint256"
        },
        {
          "internalType": "uint256",
          "name": "",
          "type": "uint256"
        }
      ],
      "name": "bidders",
      "outputs": [
        {
          "internalType": "uint256",
          "name": "",
          "type": "uint256"
        }
      ],
      "stateMutability": "view",
      "type": "function"
    },
    {
      "inputs": [
        {
          "internalType": "uint256",
          "name": "postId",
          "type": "uint256"
        }
      ],
      "name": "book",
      "outputs": [],
      "stateMutability": "payable",
      "type": "function"
    },
    {
      "inputs": [
        {
          "internalType": "uint256",
          "name": "",
          "type": "uint256"
        }
      ],
      "name": "bookedBidIds",
      "outputs": [
        {
          "internalType": "uint256",
          "name": "",
          "type": "uint256"
        }
      ],
      "stateMutability": "view",
      "type": "function"
    },
    {
      "inputs": [
        {
          "internalType": "uint256",
          "name": "bidId",
          "type": "uint256"
        }
      ],
      "name": "call",
      "outputs": [],
      "stateMutability": "nonpayable",
      "type": "function"
    },
    {
      "inputs": [
        {
          "internalType": "uint256",
          "name": "bidId",
          "type": "uint256"
        }
      ],
      "name": "close",
      "outputs": [],
      "stateMutability": "nonpayable",
      "type": "function"
    },
    {
      "inputs": [
        {
          "internalType": "uint256",
          "name": "postId",
          "type": "uint256"
        }
      ],
      "name": "deny",
      "outputs": [],
      "stateMutability": "nonpayable",
      "type": "function"
    },
    {
      "inputs": [
        {
          "internalType": "address",
          "name": "account",
          "type": "address"
        }
      ],
      "name": "display",
      "outputs": [
        {
          "internalType": "string",
          "name": "",
          "type": "string"
        }
      ],
      "stateMutability": "view",
      "type": "function"
    },
    {
      "inputs": [
        {
          "internalType": "address",
          "name": "account",
          "type": "address"
        },
        {
          "internalType": "uint8",
          "name": "metadataIndex",
          "type": "uint8"
        },
        {
          "internalType": "uint256",
          "name": "fromPostIdIndex",
          "type": "uint256"
        },
        {
          "internalType": "uint256",
          "name": "toPostIdIndex",
          "type": "uint256"
        }
      ],
      "name": "displayBetween",
      "outputs": [
        {
          "internalType": "string",
          "name": "",
          "type": "string"
        }
      ],
      "stateMutability": "view",
      "type": "function"
    },
    {
      "inputs": [
        {
          "internalType": "address",
          "name": "account",
          "type": "address"
        },
        {
          "internalType": "uint8",
          "name": "metadataIndex",
          "type": "uint8"
        }
      ],
      "name": "displayByIndex",
      "outputs": [
        {
          "internalType": "string",
          "name": "",
          "type": "string"
        }
      ],
      "stateMutability": "view",
      "type": "function"
    },
    {
      "inputs": [],
      "name": "distributionRightAddress",
      "outputs": [
        {
          "internalType": "address",
          "name": "",
          "type": "address"
        }
      ],
      "stateMutability": "view",
      "type": "function"
    },
    {
      "inputs": [
        {
          "internalType": "address",
          "name": "",
          "type": "address"
        },
        {
          "internalType": "uint256",
          "name": "",
          "type": "uint256"
        }
      ],
      "name": "mediaMetadata",
      "outputs": [
        {
          "internalType": "string",
          "name": "",
          "type": "string"
        }
      ],
      "stateMutability": "view",
      "type": "function"
    },
    {
      "inputs": [],
      "name": "nameRegistryAddress",
      "outputs": [
        {
          "internalType": "address",
          "name": "",
          "type": "address"
        }
      ],
      "stateMutability": "view",
      "type": "function"
    },
    {
      "inputs": [
        {
          "internalType": "string",
          "name": "metadata",
          "type": "string"
        },
        {
          "internalType": "uint256",
          "name": "fromTimestamp",
          "type": "uint256"
        },
        {
          "internalType": "uint256",
          "name": "toTimestamp",
          "type": "uint256"
        }
      ],
      "name": "newPost",
      "outputs": [],
      "stateMutability": "nonpayable",
      "type": "function"
    },
    {
      "inputs": [],
      "name": "nextBidId",
      "outputs": [
        {
          "internalType": "uint256",
          "name": "",
          "type": "uint256"
        }
      ],
      "stateMutability": "view",
      "type": "function"
    },
    {
      "inputs": [],
      "name": "nextPostId",
      "outputs": [
        {
          "internalType": "uint256",
          "name": "",
          "type": "uint256"
        }
      ],
      "stateMutability": "view",
      "type": "function"
    },
    {
      "inputs": [],
      "name": "owner",
      "outputs": [
        {
          "internalType": "address",
          "name": "",
          "type": "address"
        }
      ],
      "stateMutability": "view",
      "type": "function"
    },
    {
      "inputs": [
        {
          "internalType": "uint256",
          "name": "postId",
          "type": "uint256"
        },
        {
          "internalType": "string",
          "name": "metadata",
          "type": "string"
        }
      ],
      "name": "propose",
      "outputs": [],
      "stateMutability": "nonpayable",
      "type": "function"
    },
    {
      "inputs": [
        {
          "internalType": "uint256",
          "name": "bidId",
          "type": "uint256"
        }
      ],
      "name": "refund",
      "outputs": [],
      "stateMutability": "nonpayable",
      "type": "function"
    },
    {
      "inputs": [
        {
          "internalType": "address",
          "name": "",
          "type": "address"
        },
        {
          "internalType": "string",
          "name": "",
          "type": "string"
        }
      ],
      "name": "registered",
      "outputs": [
        {
          "internalType": "bool",
          "name": "",
          "type": "bool"
        }
      ],
      "stateMutability": "view",
      "type": "function"
    },
    {
      "inputs": [],
      "name": "reservedRightAddress",
      "outputs": [
        {
          "internalType": "address",
          "name": "",
          "type": "address"
        }
      ],
      "stateMutability": "view",
      "type": "function"
    },
    {
      "inputs": [],
      "name": "vaultAddress",
      "outputs": [
        {
          "internalType": "address",
          "name": "",
          "type": "address"
        }
      ],
      "stateMutability": "view",
      "type": "function"
    }
  ],
  "transactionHash": "0xc23923c9b2e9621b040e6a128b033d763998fc1e49cedf05ae230c468859bf1b",
  "args": [
    "0x5EBA2dD6C26Dae8e733D55e4DC6D5B6EEBFa8F20"
  ],
  "solcInputHash": "85477bfad39898bdc777d7da89c14e98",
  "bytecode": "0x6001600781905560085560c0604052601360808190527f68747470733a2f2f6b616c6569646f2e696f2f0000000000000000000000000060a09081526200004a9160099190620000a1565b503480156200005857600080fd5b50604051620023df380380620023df8339810160408190526200007b9162000147565b600080546001600160a01b0319166001600160a01b0392909216919091179055620001b6565b828054620000af9062000179565b90600052602060002090601f016020900481019282620000d357600085556200011e565b82601f10620000ee57805160ff19168380011785556200011e565b828001600101855582156200011e579182015b828111156200011e57825182559160200191906001019062000101565b506200012c92915062000130565b5090565b5b808211156200012c576000815560010162000131565b6000602082840312156200015a57600080fd5b81516001600160a01b03811681146200017257600080fd5b9392505050565b600181811c908216806200018e57607f821691505b60208210811415620001b057634e487b7160e01b600052602260045260246000fd5b50919050565b61221980620001c66000396000f3fe6080604052600436106101ac5760003560e01c80635c09bd98116100ec578063c9cd71b51161008a578063d4f6b5ec11610064578063d4f6b5ec146104e9578063d70fa5e414610509578063dc26904914610529578063eb39113f1461053f57600080fd5b8063c9cd71b514610487578063d1c112051461049c578063d3584e84146104bc57600080fd5b80638da5cb5b116100c65780638da5cb5b1461041d5780638f50b14314610432578063ac6919a514610452578063c79e9cbb1461046757600080fd5b80635c09bd9814610378578063718ce2bc1461038e5780637aec57f3146103c157600080fd5b806319b05f491161015957806329a594b51161013357806329a594b51461030e5780632b09692614610323578063430bf08a1461034357806356f662821461035857600080fd5b806319b05f491461029c578063278ecde1146102bc57806327b7a2f5146102dc57600080fd5b80630e376fda1161018a5780630e376fda1461023b5780630fc55fd1146102765780631116fd041461028957600080fd5b806304caebc0146101b15780630aebeb4e146101e75780630d5daf3b14610209575b600080fd5b3480156101bd57600080fd5b506101d16101cc366004611ca0565b61055f565b6040516101de9190611f4c565b60405180910390f35b3480156101f357600080fd5b50610207610202366004611d93565b610618565b005b34801561021557600080fd5b50610229610224366004611d93565b6108dd565b6040516101de96959493929190612038565b34801561024757600080fd5b50610268610256366004611d93565b60036020526000908152604090205481565b6040519081526020016101de565b610207610284366004611dac565b6109a9565b610207610297366004611d93565b6109fe565b3480156102a857600080fd5b506102076102b7366004611d93565b610a51565b3480156102c857600080fd5b506102076102d7366004611d93565b610b13565b3480156102e857600080fd5b506000546001600160a01b03165b6040516001600160a01b0390911681526020016101de565b34801561031a57600080fd5b506102f6610c2c565b34801561032f57600080fd5b5061020761033e366004611d93565b610cf8565b34801561034f57600080fd5b506102f6610fe5565b34801561036457600080fd5b50610207610373366004611d93565b61102c565b34801561038457600080fd5b5061026860075481565b34801561039a57600080fd5b506103ae6103a9366004611d93565b611102565b6040516101de9796959493929190611fa8565b3480156103cd57600080fd5b5061040d6103dc366004611c50565b6006602090815260009283526040909220815180830184018051928152908401929093019190912091525460ff1681565b60405190151581526020016101de565b34801561042957600080fd5b506102f66111d5565b34801561043e57600080fd5b5061020761044d366004611d45565b611224565b34801561045e57600080fd5b506102f66114b3565b34801561047357600080fd5b506101d1610482366004611d01565b6114fa565b34801561049357600080fd5b506102f661169b565b3480156104a857600080fd5b506102686104b7366004611ddd565b6116e2565b3480156104c857600080fd5b506104dc6104d7366004611d93565b611713565b6040516101de9190611f08565b3480156104f557600080fd5b50610207610504366004611dac565b611775565b34801561051557600080fd5b506101d1610524366004611ccc565b611858565b34801561053557600080fd5b5061026860085481565b34801561054b57600080fd5b506101d161055a366004611c16565b611870565b6005602052816000526040600020818154811061057b57600080fd5b9060005260206000200160009150915050805461059790612136565b80601f01602080910402602001604051908101604052809291908181526020018280546105c390612136565b80156106105780601f106105e557610100808354040283529160200191610610565b820191906000526020600020905b8154815290600101906020018083116105f357829003601f168201915b505050505081565b6000818152600460208181526040808420815160c0810183528154815260018201549381019390935260028101546001600160a01b03169183019190915260038101546060830152918201805491929160808401919061067790612136565b80601f01602080910402602001604051908101604052809291908181526020018280546106a390612136565b80156106f05780601f106106c5576101008083540402835291602001916106f0565b820191906000526020600020905b8154815290600101906020018083116106d357829003601f168201915b5050509183525050600582015460209091019060ff166006811115610717576107176121a2565b6006811115610728576107286121a2565b90525080519091506107695760405162461bcd60e51b8152602060048201526005602482015264414431303360d81b60448201526064015b60405180910390fd5b60208082015160009081526001918290526040902001546001600160a01b031633146107bf5760405162461bcd60e51b815260206004820152600560248201526420a218981960d91b6044820152606401610760565b6020818101516000908152600190915260409020600601829055600560a0820152606081015133906108fc90600a906107f99060096120e7565b61080391906120c5565b6040518115909202916000818181858888f1935050505015801561082b573d6000803e3d6000fd5b50610834611888565b6001600160a01b03166108fc600a8360600151600161085391906120e7565b61085d91906120c5565b6040518115909202916000818181858888f19350505050158015610885573d6000803e3d6000fd5b507ff763d6ab2a4f1accf9c4fca103d30b90f90db83afeaad6b67481601184b1690d816000015182602001518360400151846060015185608001516040516108d1959493929190611ff9565b60405180910390a15050565b600460208190526000918252604090912080546001820154600283015460038401549484018054939592946001600160a01b039092169361091d90612136565b80601f016020809104026020016040519081016040528092919081815260200182805461094990612136565b80156109965780601f1061096b57610100808354040283529160200191610996565b820191906000526020600020905b81548152906001019060200180831161097957829003601f168201915b5050506005909301549192505060ff1686565b600082815260016020526040902060060154156109f05760405162461bcd60e51b815260206004820152600560248201526420a218981960d91b6044820152606401610760565b6109fa8282611892565b5050565b60008181526001602052604090206006015415610a455760405162461bcd60e51b815260206004820152600560248201526420a218981960d91b6044820152606401610760565b610a4e816118ed565b50565b600081815260016020819052604090912001546001600160a01b03163314610aa35760405162461bcd60e51b8152602060048201526005602482015264414431303560d81b6044820152606401610760565b600081815260036020908152604080832054808452600483528184206005908101805460ff19169091179055848452600183529281902060060183905580518481529182018390527f66b40296db692bd2f393bda18cf3f9d917966186767279128a62afeb90e43b3991016108d1565b6000818152600460205260409020600201546001600160a01b03163314610b7c5760405162461bcd60e51b815260206004820152600560248201527f41443130340000000000000000000000000000000000000000000000000000006044820152606401610760565b600081815260046020526040808220600301549051339282156108fc02929190818181858888f19350505050158015610bb9573d6000803e3d6000fd5b5060008181526004602090815260409182902060058101805460ff1916600617905560018101546003909101548351858152928301919091523382840152606082015290517f303a7a5ed564cf1b7e8ec302e0d290e0c69d9785d1e5d43db651d7995f0bc019916080908290030190a150565b600080546040517f526573657276656452696768740000000000000000000000000000000000000060208201526001600160a01b0390911690638eaa6ac090602d015b604051602081830303815290604052805190602001206040518263ffffffff1660e01b8152600401610ca391815260200190565b60206040518083038186803b158015610cbb57600080fd5b505afa158015610ccf573d6000803e3d6000fd5b505050506040513d601f19601f82011682018060405250810190610cf39190611c33565b905090565b6000818152600460208181526040808420815160c0810183528154815260018201549381019390935260028101546001600160a01b031691830191909152600381015460608301529182018054919291608084019190610d5790612136565b80601f0160208091040260200160405190810160405280929190818152602001828054610d8390612136565b8015610dd05780601f10610da557610100808354040283529160200191610dd0565b820191906000526020600020905b815481529060010190602001808311610db357829003601f168201915b5050509183525050600582015460209091019060ff166006811115610df757610df76121a2565b6006811115610e0857610e086121a2565b9052508051909150610e445760405162461bcd60e51b8152602060048201526005602482015264414431303360d81b6044820152606401610760565b60208082015160009081526001918290526040902001546001600160a01b03163314610e9a5760405162461bcd60e51b815260206004820152600560248201526420a218981960d91b6044820152606401610760565b602081810180516000908152600383526040808220869055600260a08601529151815260019092528082206006018490556060830151905133926108fc831502929190818181858888f19350505050158015610efa573d6000803e3d6000fd5b50610f03611966565b6001600160a01b031663d3fc98648260400151836020015160016000866020015181526020019081526020016000206002016040518463ffffffff1660e01b8152600401610f5393929190611e47565b600060405180830381600087803b158015610f6d57600080fd5b505af1158015610f81573d6000803e3d6000fd5b505050507f70c21df4a109699ac5cbee04e25054d865a14a532529a731a11afcd25ed1914a828260200151836040015184606001516040516108d1949392919093845260208401929092526001600160a01b03166040830152606082015260800190565b600080546040517f5661756c7400000000000000000000000000000000000000000000000000000060208201526001600160a01b0390911690638eaa6ac090602501610c6f565b60008181526003602081815260408084205480855260049092529092206005015460ff166006811115611061576110616121a2565b146110ae5760405162461bcd60e51b815260206004820152600560248201527f41443130360000000000000000000000000000000000000000000000000000006044820152606401610760565b600081815260046020818152604092839020600501805460ff191690921790915581518381529081018490527fb4f2cd71a07f3c432393e99783b21b73c1ccf8f528fd95885166c9f8a83669d691016108d1565b60016020819052600091825260409091208054918101546002820180546001600160a01b03909216929161113590612136565b80601f016020809104026020016040519081016040528092919081815260200182805461116190612136565b80156111ae5780601f10611183576101008083540402835291602001916111ae565b820191906000526020600020905b81548152906001019060200180831161119157829003601f168201915b50505050600383015460048401546005850154600690950154939460ff9092169390925087565b60008060009054906101000a90046001600160a01b03166001600160a01b0316638da5cb5b6040518163ffffffff1660e01b815260040160206040518083038186803b158015610cbb57600080fd5b8082106112735760405162461bcd60e51b815260206004820152600560248201527f41443130310000000000000000000000000000000000000000000000000000006044820152606401610760565b6112bf6040518060e001604052806000815260200160006001600160a01b0316815260200160608152602001600060ff1681526020016000815260200160008152602001600081525090565b600780549060006112cf83612171565b90915550815233602080830182905260408084018790526080840186905260a084018590526000928352600690915290819020905161130f908690611e2b565b9081526040519081900360200190205460ff1661139a573360009081526006602052604090819020905160019190611348908790611e2b565b9081526040805160209281900383019020805460ff191693151593909317909255336000908152600582529182208054600181018255908352918190208651611398939190910191870190611a8b565b505b3360009081526005602090815260408083205460ff166060850152835183526001808352928190208451815584830151938101805473ffffffffffffffffffffffffffffffffffffffff19166001600160a01b03909516949094179093558301518051849392611411926002850192910190611a8b565b5060608201518160030160006101000a81548160ff021916908360ff1602179055506080820151816004015560a0820151816005015560c082015181600601559050507fc98049608c45ad7f176282c68bffce5456433c3107d732377291e6758e79dec6816000015182602001518360400151846060015185608001518660a001516040516114a596959493929190611f5f565b60405180910390a150505050565b600080546040517f446973747269627574696f6e526967687400000000000000000000000000000060208201526001600160a01b0390911690638eaa6ac090603101610c6f565b6060825b8281101561164a57600081815260016020819052604090912001546001600160a01b038781169116148015611549575060008181526001602052604090206003015460ff8681169116145b8015611565575060008181526001602052604090206004015442115b8015611581575060008181526001602052604090206005015442105b156116385760008181526001602090815260408083206006015483526004918290529091200180546115b290612136565b80601f01602080910402602001604051908101604052809291908181526020018280546115de90612136565b801561162b5780601f106116005761010080835404028352916020019161162b565b820191906000526020600020905b81548152906001019060200180831161160e57829003601f168201915b5050505050915050611693565b8061164281612171565b9150506114fe565b5060405162461bcd60e51b815260206004820152600260248201527f41440000000000000000000000000000000000000000000000000000000000006044820152606401610760565b949350505050565b600080546040517f4164506f6f6c000000000000000000000000000000000000000000000000000060208201526001600160a01b0390911690638eaa6ac090602601610c6f565b600260205281600052604060002081815481106116fe57600080fd5b90600052602060002001600091509150505481565b60008181526002602090815260409182902080548351818402810184019094528084526060939283018282801561176957602002820191906000526020600020905b815481526020019060010190808311611755575b50505050509050919050565b6000828152600360209081526040808320548084526004909252909120600201546001600160a01b031633146117d55760405162461bcd60e51b8152602060048201526005602482015264414431303560d81b6044820152606401610760565b600081815260046020818152604090922084516117fa93919092019190850190611a8b565b5060008181526004602052604090819020600501805460ff19166003179055517f3210cee2deb4838dde3ae606fd6b2e36543e05f2629f4d6fe336fc572c06a3359061184b9083908690869061209d565b60405180910390a1505050565b6060611869838360006007546114fa565b9392505050565b606061188282600160006007546114fa565b92915050565b6000610cf3610fe5565b60088054600091826118a383612171565b9190505590506118b68382846001611970565b7f01662ff7392d9961759cf40cab7a64e5ad660ba64a9df944343ce23b2b94c447818433348660405161184b959493929190611ff9565b60088054600091826118fe83612171565b9190505590506119208282604051806020016040528060008152506000611970565b604080518281526020810184905233918101919091523460608201527fa9dfceace4f13fa67be6499ce107d4e132c418d2cdeb93219a08c7f9c7fa634a906080016108d1565b6000610cf36114b3565b611978611b0f565b838152602081018590523360408201523460608201526080810183905260a081018260068111156119ab576119ab6121a2565b908160068111156119be576119be6121a2565b9052508051600090815260046020818152604092839020845181558185015160018201559284015160028401805473ffffffffffffffffffffffffffffffffffffffff19166001600160a01b039092169190911790556060840151600384015560808401518051859493611a3793908501920190611a8b565b5060a082015160058201805460ff19166001836006811115611a5b57611a5b6121a2565b02179055505050600094855260026020908152604086209151825460018101845592875295200193909355505050565b828054611a9790612136565b90600052602060002090601f016020900481019282611ab95760008555611aff565b82601f10611ad257805160ff1916838001178555611aff565b82800160010185558215611aff579182015b82811115611aff578251825591602001919060010190611ae4565b50611b0b929150611b5e565b5090565b6040518060c00160405280600081526020016000815260200160006001600160a01b03168152602001600081526020016060815260200160006006811115611b5957611b596121a2565b905290565b5b80821115611b0b5760008155600101611b5f565b600082601f830112611b8457600080fd5b813567ffffffffffffffff80821115611b9f57611b9f6121b8565b604051601f8301601f19908116603f01168101908282118183101715611bc757611bc76121b8565b81604052838152866020858801011115611be057600080fd5b836020870160208301376000602085830101528094505050505092915050565b803560ff81168114611c1157600080fd5b919050565b600060208284031215611c2857600080fd5b8135611869816121ce565b600060208284031215611c4557600080fd5b8151611869816121ce565b60008060408385031215611c6357600080fd5b8235611c6e816121ce565b9150602083013567ffffffffffffffff811115611c8a57600080fd5b611c9685828601611b73565b9150509250929050565b60008060408385031215611cb357600080fd5b8235611cbe816121ce565b946020939093013593505050565b60008060408385031215611cdf57600080fd5b8235611cea816121ce565b9150611cf860208401611c00565b90509250929050565b60008060008060808587031215611d1757600080fd5b8435611d22816121ce565b9350611d3060208601611c00565b93969395505050506040820135916060013590565b600080600060608486031215611d5a57600080fd5b833567ffffffffffffffff811115611d7157600080fd5b611d7d86828701611b73565b9660208601359650604090950135949350505050565b600060208284031215611da557600080fd5b5035919050565b60008060408385031215611dbf57600080fd5b82359150602083013567ffffffffffffffff811115611c8a57600080fd5b60008060408385031215611df057600080fd5b50508035926020909101359150565b60008151808452611e17816020860160208601612106565b601f01601f19169290920160200192915050565b60008251611e3d818460208701612106565b9190910192915050565b6001600160a01b0384168152600060208481840152606060408401526000845481600182811c915080831680611e7e57607f831692505b858310811415611e9c57634e487b7160e01b85526022600452602485fd5b6060880183905260808801818015611ebb5760018114611ecc57611ef7565b60ff19861682528782019650611ef7565b60008b81526020902060005b86811015611ef157815484820152908501908901611ed8565b83019750505b50949b9a5050505050505050505050565b6020808252825182820181905260009190848201906040850190845b81811015611f4057835183529284019291840191600101611f24565b50909695505050505050565b6020815260006118696020830184611dff565b8681526001600160a01b038616602082015260c060408201526000611f8760c0830187611dff565b60ff95909516606083015250608081019290925260a0909101529392505050565b8781526001600160a01b038716602082015260e060408201526000611fd060e0830188611dff565b905060ff861660608301528460808301528360a08301528260c083015298975050505050505050565b8581528460208201526001600160a01b038416604082015282606082015260a06080820152600061202d60a0830184611dff565b979650505050505050565b8681528560208201526001600160a01b038516604082015283606082015260c06080820152600061206c60c0830185611dff565b90506007831061208c57634e487b7160e01b600052602160045260246000fd5b8260a0830152979650505050505050565b8381528260208201526060604082015260006120bc6060830184611dff565b95945050505050565b6000826120e257634e487b7160e01b600052601260045260246000fd5b500490565b60008160001904831182151516156121015761210161218c565b500290565b60005b83811015612121578181015183820152602001612109565b83811115612130576000848401525b50505050565b600181811c9082168061214a57607f821691505b6020821081141561216b57634e487b7160e01b600052602260045260246000fd5b50919050565b60006000198214156121855761218561218c565b5060010190565b634e487b7160e01b600052601160045260246000fd5b634e487b7160e01b600052602160045260246000fd5b634e487b7160e01b600052604160045260246000fd5b6001600160a01b0381168114610a4e57600080fdfea2646970667358221220ccc855d49cb6dd57a340b57ed48be3e4999eef04324e82b628fbf5f563f521f464736f6c63430008060033",
  "devdoc": {
    "author": "Shumpei Koike - <shumpei.koike@bridges.inc>",
    "kind": "dev",
    "methods": {
      "accept(uint256)": {
        "details": "Accepts the proposal if you like the content.",
        "params": {
          "postId": "uint256 of the post ID"
        }
      },
      "adPoolAddress()": {
        "details": "Gets the address of AdPool."
      },
      "bid(uint256,string)": {
        "details": "Bids to the post, sharing what kind of Ads would be public. The owner of the Ad space can select the one according to not only the price but also the preference inside the metadata.",
        "params": {
          "metadata": "string of the hashed path to the storage",
          "postId": "uint256 of the post ID"
        }
      },
      "book(uint256)": {
        "details": "Books to the post without any specific metadata.",
        "params": {
          "postId": "uint256 of the post ID"
        }
      },
      "call(uint256)": {
        "details": "Calls the book related with the bidId. The NFT representing a right to propose is sent to the bidder in this function.",
        "params": {
          "bidId": "uint256 of the bid ID"
        }
      },
      "close(uint256)": {
        "details": "Closes the offering and mints the NFT to the successful bidder. The amount would be paid to the post owner.",
        "params": {
          "bidId": "uint256 of the bid ID"
        }
      },
      "deny(uint256)": {
        "details": "Denies the proposal if you dislike the content.",
        "params": {
          "postId": "uint256 of the post ID"
        }
      },
      "display(address)": {
        "details": "Returns metadata hash that the account is supposed to deliver. If the account has several posts, the index 1 would be applied.",
        "params": {
          "account": "address of the post owner"
        }
      },
      "displayByIndex(address,uint8)": {
        "details": "Returns metadata hash that the account is supposed to deliver. You can designate the index number.",
        "params": {
          "account": "address of the post owner",
          "metadataIndex": "uint8 of the metadata index"
        }
      },
      "distributionRightAddress()": {
        "details": "Gets the address of DistributionRight."
      },
      "nameRegistryAddress()": {
        "details": "Gets the address of NameRegistry"
      },
      "newPost(string,uint256,uint256)": {
        "details": "Creates a new post where the owner who has the advertising area can public the space. The basic infomation of the area is described on the storage, which is accessed by the metadata hash.",
        "params": {
          "fromTimestamp": "uint256 of the timestamp to display the ad",
          "metadata": "string of the hashed path to the storage",
          "toTimestamp": "uint256 of the timestamp to display the ad"
        }
      },
      "owner()": {
        "details": "Gets the owner address."
      },
      "propose(uint256,string)": {
        "details": "Proposes metadata to the book.",
        "params": {
          "metadata": "string of the hashed path to the storage",
          "postId": "uint256 of the post ID"
        }
      },
      "refund(uint256)": {
        "details": "Can refund the amount if you want to cancel or the other is determinted as the successful bidder.",
        "params": {
          "bidId": "uint256 of the bid ID"
        }
      },
      "reservedRightAddress()": {
        "details": "Gets the address of ReservedRight."
      },
      "vaultAddress()": {
        "details": "Gets the address of Vault."
      }
    },
    "title": "AdManager - allows anyone to create a post and bit to the post.",
    "version": 1
  },
  "userdoc": {
    "kind": "user",
    "methods": {},
    "version": 1
  },
  "storageLayout": {
    "storage": [
      {
        "astId": 1429,
        "contract": "contracts/AdManager.sol:AdManager",
        "label": "_nameRegistry",
        "offset": 0,
        "slot": "0",
        "type": "t_contract(NameRegistry)1628"
      },
      {
        "astId": 573,
        "contract": "contracts/AdManager.sol:AdManager",
        "label": "allPosts",
        "offset": 0,
        "slot": "1",
        "type": "t_mapping(t_uint256,t_struct(PostContent)554_storage)"
      },
      {
        "astId": 578,
        "contract": "contracts/AdManager.sol:AdManager",
        "label": "bidders",
        "offset": 0,
        "slot": "2",
        "type": "t_mapping(t_uint256,t_array(t_uint256)dyn_storage)"
      },
      {
        "astId": 582,
        "contract": "contracts/AdManager.sol:AdManager",
        "label": "bookedBidIds",
        "offset": 0,
        "slot": "3",
        "type": "t_mapping(t_uint256,t_uint256)"
      },
      {
        "astId": 587,
        "contract": "contracts/AdManager.sol:AdManager",
        "label": "bidderInfo",
        "offset": 0,
        "slot": "4",
        "type": "t_mapping(t_uint256,t_struct(Bidder)568_storage)"
      },
      {
        "astId": 592,
        "contract": "contracts/AdManager.sol:AdManager",
        "label": "mediaMetadata",
        "offset": 0,
        "slot": "5",
        "type": "t_mapping(t_address,t_array(t_string_storage)dyn_storage)"
      },
      {
        "astId": 598,
        "contract": "contracts/AdManager.sol:AdManager",
        "label": "registered",
        "offset": 0,
        "slot": "6",
        "type": "t_mapping(t_address,t_mapping(t_string_memory_ptr,t_bool))"
      },
      {
        "astId": 601,
        "contract": "contracts/AdManager.sol:AdManager",
        "label": "nextPostId",
        "offset": 0,
        "slot": "7",
        "type": "t_uint256"
      },
      {
        "astId": 604,
        "contract": "contracts/AdManager.sol:AdManager",
        "label": "nextBidId",
        "offset": 0,
        "slot": "8",
        "type": "t_uint256"
      },
      {
        "astId": 607,
        "contract": "contracts/AdManager.sol:AdManager",
        "label": "_baseURI",
        "offset": 0,
        "slot": "9",
        "type": "t_string_storage"
      }
    ],
    "types": {
      "t_address": {
        "encoding": "inplace",
        "label": "address",
        "numberOfBytes": "20"
      },
      "t_array(t_string_storage)dyn_storage": {
        "base": "t_string_storage",
        "encoding": "dynamic_array",
        "label": "string[]",
        "numberOfBytes": "32"
      },
      "t_array(t_uint256)dyn_storage": {
        "base": "t_uint256",
        "encoding": "dynamic_array",
        "label": "uint256[]",
        "numberOfBytes": "32"
      },
      "t_bool": {
        "encoding": "inplace",
        "label": "bool",
        "numberOfBytes": "1"
      },
      "t_contract(NameRegistry)1628": {
        "encoding": "inplace",
        "label": "contract NameRegistry",
        "numberOfBytes": "20"
      },
      "t_enum(DraftStatus)539": {
        "encoding": "inplace",
        "label": "enum AdManager.DraftStatus",
        "numberOfBytes": "1"
      },
      "t_mapping(t_address,t_array(t_string_storage)dyn_storage)": {
        "encoding": "mapping",
        "key": "t_address",
        "label": "mapping(address => string[])",
        "numberOfBytes": "32",
        "value": "t_array(t_string_storage)dyn_storage"
      },
      "t_mapping(t_address,t_mapping(t_string_memory_ptr,t_bool))": {
        "encoding": "mapping",
        "key": "t_address",
        "label": "mapping(address => mapping(string => bool))",
        "numberOfBytes": "32",
        "value": "t_mapping(t_string_memory_ptr,t_bool)"
      },
      "t_mapping(t_string_memory_ptr,t_bool)": {
        "encoding": "mapping",
        "key": "t_string_memory_ptr",
        "label": "mapping(string => bool)",
        "numberOfBytes": "32",
        "value": "t_bool"
      },
      "t_mapping(t_uint256,t_array(t_uint256)dyn_storage)": {
        "encoding": "mapping",
        "key": "t_uint256",
        "label": "mapping(uint256 => uint256[])",
        "numberOfBytes": "32",
        "value": "t_array(t_uint256)dyn_storage"
      },
      "t_mapping(t_uint256,t_struct(Bidder)568_storage)": {
        "encoding": "mapping",
        "key": "t_uint256",
        "label": "mapping(uint256 => struct AdManager.Bidder)",
        "numberOfBytes": "32",
        "value": "t_struct(Bidder)568_storage"
      },
      "t_mapping(t_uint256,t_struct(PostContent)554_storage)": {
        "encoding": "mapping",
        "key": "t_uint256",
        "label": "mapping(uint256 => struct AdManager.PostContent)",
        "numberOfBytes": "32",
        "value": "t_struct(PostContent)554_storage"
      },
      "t_mapping(t_uint256,t_uint256)": {
        "encoding": "mapping",
        "key": "t_uint256",
        "label": "mapping(uint256 => uint256)",
        "numberOfBytes": "32",
        "value": "t_uint256"
      },
      "t_string_memory_ptr": {
        "encoding": "bytes",
        "label": "string",
        "numberOfBytes": "32"
      },
      "t_string_storage": {
        "encoding": "bytes",
        "label": "string",
        "numberOfBytes": "32"
      },
      "t_struct(Bidder)568_storage": {
        "encoding": "inplace",
        "label": "struct AdManager.Bidder",
        "members": [
          {
            "astId": 556,
            "contract": "contracts/AdManager.sol:AdManager",
            "label": "bidId",
            "offset": 0,
            "slot": "0",
            "type": "t_uint256"
          },
          {
            "astId": 558,
            "contract": "contracts/AdManager.sol:AdManager",
            "label": "postId",
            "offset": 0,
            "slot": "1",
            "type": "t_uint256"
          },
          {
            "astId": 560,
            "contract": "contracts/AdManager.sol:AdManager",
            "label": "sender",
            "offset": 0,
            "slot": "2",
            "type": "t_address"
          },
          {
            "astId": 562,
            "contract": "contracts/AdManager.sol:AdManager",
            "label": "price",
            "offset": 0,
            "slot": "3",
            "type": "t_uint256"
          },
          {
            "astId": 564,
            "contract": "contracts/AdManager.sol:AdManager",
            "label": "metadata",
            "offset": 0,
            "slot": "4",
            "type": "t_string_storage"
          },
          {
            "astId": 567,
            "contract": "contracts/AdManager.sol:AdManager",
            "label": "status",
            "offset": 0,
            "slot": "5",
            "type": "t_enum(DraftStatus)539"
          }
        ],
        "numberOfBytes": "192"
      },
      "t_struct(PostContent)554_storage": {
        "encoding": "inplace",
        "label": "struct AdManager.PostContent",
        "members": [
          {
            "astId": 541,
            "contract": "contracts/AdManager.sol:AdManager",
            "label": "postId",
            "offset": 0,
            "slot": "0",
            "type": "t_uint256"
          },
          {
            "astId": 543,
            "contract": "contracts/AdManager.sol:AdManager",
            "label": "owner",
            "offset": 0,
            "slot": "1",
            "type": "t_address"
          },
          {
            "astId": 545,
            "contract": "contracts/AdManager.sol:AdManager",
            "label": "metadata",
            "offset": 0,
            "slot": "2",
            "type": "t_string_storage"
          },
          {
            "astId": 547,
            "contract": "contracts/AdManager.sol:AdManager",
            "label": "metadataIndex",
            "offset": 0,
            "slot": "3",
            "type": "t_uint8"
          },
          {
            "astId": 549,
            "contract": "contracts/AdManager.sol:AdManager",
            "label": "fromTimestamp",
            "offset": 0,
            "slot": "4",
            "type": "t_uint256"
          },
          {
            "astId": 551,
            "contract": "contracts/AdManager.sol:AdManager",
            "label": "toTimestamp",
            "offset": 0,
            "slot": "5",
            "type": "t_uint256"
          },
          {
            "astId": 553,
            "contract": "contracts/AdManager.sol:AdManager",
            "label": "successfulBidId",
            "offset": 0,
            "slot": "6",
            "type": "t_uint256"
          }
        ],
        "numberOfBytes": "224"
      },
      "t_uint256": {
        "encoding": "inplace",
        "label": "uint256",
        "numberOfBytes": "32"
      },
      "t_uint8": {
        "encoding": "inplace",
        "label": "uint8",
        "numberOfBytes": "1"
      }
    }
  }
}