{
  "address": "0x1124f3cD4226cE0e026cAf5256980569158C93CF",
  "abi": [
    {
      "inputs": [
        {
          "internalType": "address",
          "name": "nameRegistry",
          "type": "address"
        }
      ],
      "stateMutability": "nonpayable",
      "type": "constructor"
    },
    {
      "anonymous": false,
      "inputs": [
        {
          "indexed": false,
          "internalType": "uint256",
          "name": "bidId",
          "type": "uint256"
        },
        {
          "indexed": false,
          "internalType": "uint256",
          "name": "postId",
          "type": "uint256"
        },
        {
          "indexed": false,
          "internalType": "address",
          "name": "sender",
          "type": "address"
        },
        {
          "indexed": false,
          "internalType": "uint256",
          "name": "price",
          "type": "uint256"
        },
        {
          "indexed": false,
          "internalType": "string",
          "name": "metadata",
          "type": "string"
        }
      ],
      "name": "Bid",
      "type": "event"
    },
    {
      "anonymous": false,
      "inputs": [
        {
          "indexed": false,
          "internalType": "uint256",
          "name": "bitId",
          "type": "uint256"
        },
        {
          "indexed": false,
          "internalType": "uint256",
          "name": "postId",
          "type": "uint256"
        },
        {
          "indexed": false,
          "internalType": "address",
          "name": "successfulBidder",
          "type": "address"
        },
        {
          "indexed": false,
          "internalType": "uint256",
          "name": "price",
          "type": "uint256"
        },
        {
          "indexed": false,
          "internalType": "string",
          "name": "metadata",
          "type": "string"
        }
      ],
      "name": "Close",
      "type": "event"
    },
    {
      "anonymous": false,
      "inputs": [
        {
          "indexed": false,
          "internalType": "uint256",
          "name": "postId",
          "type": "uint256"
        },
        {
          "indexed": false,
          "internalType": "address",
          "name": "owner",
          "type": "address"
        },
        {
          "indexed": false,
          "internalType": "string",
          "name": "metadata",
          "type": "string"
        },
        {
          "indexed": false,
          "internalType": "uint256",
          "name": "currentPrice",
          "type": "uint256"
        },
        {
          "indexed": false,
          "internalType": "uint256",
          "name": "periodHours",
          "type": "uint256"
        },
        {
          "indexed": false,
          "internalType": "uint256",
          "name": "startTime",
          "type": "uint256"
        },
        {
          "indexed": false,
          "internalType": "uint256",
          "name": "endTime",
          "type": "uint256"
        }
      ],
      "name": "NewPost",
      "type": "event"
    },
    {
      "anonymous": false,
      "inputs": [
        {
          "indexed": false,
          "internalType": "uint256",
          "name": "bitId",
          "type": "uint256"
        },
        {
          "indexed": false,
          "internalType": "uint256",
          "name": "postId",
          "type": "uint256"
        },
        {
          "indexed": false,
          "internalType": "address",
          "name": "sender",
          "type": "address"
        },
        {
          "indexed": false,
          "internalType": "uint256",
          "name": "price",
          "type": "uint256"
        }
      ],
      "name": "Refund",
      "type": "event"
    },
    {
      "inputs": [
        {
          "internalType": "uint256",
          "name": "",
          "type": "uint256"
        }
      ],
      "name": "allPosts",
      "outputs": [
        {
          "internalType": "uint256",
          "name": "postId",
          "type": "uint256"
        },
        {
          "internalType": "address",
          "name": "owner",
          "type": "address"
        },
        {
          "internalType": "string",
          "name": "metadata",
          "type": "string"
        },
        {
          "internalType": "uint256",
          "name": "currentPrice",
          "type": "uint256"
        },
        {
          "internalType": "uint256",
          "name": "periodHours",
          "type": "uint256"
        },
        {
          "internalType": "uint256",
          "name": "startTime",
          "type": "uint256"
        },
        {
          "internalType": "uint256",
          "name": "endTime",
          "type": "uint256"
        },
        {
          "internalType": "address",
          "name": "successfulBidder",
          "type": "address"
        }
      ],
      "stateMutability": "view",
      "type": "function"
    },
    {
      "inputs": [
        {
          "internalType": "uint256",
          "name": "postId",
          "type": "uint256"
        },
        {
          "internalType": "string",
          "name": "metadata",
          "type": "string"
        }
      ],
      "name": "bid",
      "outputs": [],
      "stateMutability": "payable",
      "type": "function"
    },
    {
      "inputs": [
        {
          "internalType": "uint256",
          "name": "",
          "type": "uint256"
        }
      ],
      "name": "bidderInfo",
      "outputs": [
        {
          "internalType": "uint256",
          "name": "bidId",
          "type": "uint256"
        },
        {
          "internalType": "uint256",
          "name": "postId",
          "type": "uint256"
        },
        {
          "internalType": "address",
          "name": "sender",
          "type": "address"
        },
        {
          "internalType": "uint256",
          "name": "price",
          "type": "uint256"
        },
        {
          "internalType": "string",
          "name": "metadata",
          "type": "string"
        }
      ],
      "stateMutability": "view",
      "type": "function"
    },
    {
      "inputs": [
        {
          "internalType": "uint256",
          "name": "postId",
          "type": "uint256"
        }
      ],
      "name": "bidderList",
      "outputs": [
        {
          "internalType": "uint256[]",
          "name": "",
          "type": "uint256[]"
        }
      ],
      "stateMutability": "view",
      "type": "function"
    },
    {
      "inputs": [
        {
          "internalType": "uint256",
          "name": "",
          "type": "uint256"
        },
        {
          "internalType": "uint256",
          "name": "",
          "type": "uint256"
        }
      ],
      "name": "bidders",
      "outputs": [
        {
          "internalType": "uint256",
          "name": "",
          "type": "uint256"
        }
      ],
      "stateMutability": "view",
      "type": "function"
    },
    {
      "inputs": [
        {
          "internalType": "uint256",
          "name": "bidId",
          "type": "uint256"
        }
      ],
      "name": "close",
      "outputs": [],
      "stateMutability": "nonpayable",
      "type": "function"
    },
    {
      "inputs": [
        {
          "internalType": "uint256",
          "name": "postId",
          "type": "uint256"
        },
        {
          "internalType": "string",
          "name": "metadata",
          "type": "string"
        }
      ],
      "name": "computeBidId",
      "outputs": [
        {
          "internalType": "uint256",
          "name": "",
          "type": "uint256"
        }
      ],
      "stateMutability": "pure",
      "type": "function"
    },
    {
      "inputs": [
        {
          "internalType": "string",
          "name": "metadata",
          "type": "string"
        },
        {
          "internalType": "uint256",
          "name": "blockNumber",
          "type": "uint256"
        }
      ],
      "name": "computePostId",
      "outputs": [
        {
          "internalType": "uint256",
          "name": "",
          "type": "uint256"
        }
      ],
      "stateMutability": "pure",
      "type": "function"
    },
    {
      "inputs": [],
      "name": "distributionRightAddress",
      "outputs": [
        {
          "internalType": "address",
          "name": "",
          "type": "address"
        }
      ],
      "stateMutability": "view",
      "type": "function"
    },
    {
      "inputs": [],
      "name": "nameRegistryAddress",
      "outputs": [
        {
          "internalType": "address",
          "name": "",
          "type": "address"
        }
      ],
      "stateMutability": "view",
      "type": "function"
    },
    {
      "inputs": [
        {
          "internalType": "string",
          "name": "metadata",
          "type": "string"
        },
        {
          "internalType": "uint256",
          "name": "initialPrice",
          "type": "uint256"
        },
        {
          "internalType": "uint256",
          "name": "periodHours",
          "type": "uint256"
        }
      ],
      "name": "newPost",
      "outputs": [],
      "stateMutability": "nonpayable",
      "type": "function"
    },
    {
      "inputs": [],
      "name": "owner",
      "outputs": [
        {
          "internalType": "address",
          "name": "",
          "type": "address"
        }
      ],
      "stateMutability": "view",
      "type": "function"
    },
    {
      "inputs": [
        {
          "internalType": "uint256",
          "name": "bidId",
          "type": "uint256"
        }
      ],
      "name": "refund",
      "outputs": [],
      "stateMutability": "nonpayable",
      "type": "function"
    },
    {
      "inputs": [],
      "name": "vaultAddress",
      "outputs": [
        {
          "internalType": "address",
          "name": "",
          "type": "address"
        }
      ],
      "stateMutability": "view",
      "type": "function"
    }
  ],
  "transactionHash": "0x423c26cbce2862df36656ad2ebc71d4d949cc437337de4b0784f773cec7f0296",
  "args": [
    "0x83b8cD9BC87a5f910fc73646c0Fa623D4d3d7f3D"
  ],
  "solcInputHash": "59f6627ae8a4c493d626f4956d650c6f",
  "bytecode": "0x608060405234801561001057600080fd5b506040516115f13803806115f183398101604081905261002f91610054565b600080546001600160a01b0319166001600160a01b0392909216919091179055610084565b60006020828403121561006657600080fd5b81516001600160a01b038116811461007d57600080fd5b9392505050565b61155e806100936000396000f3fe6080604052600436106100dd5760003560e01c8063718ce2bc1161007f578063ac6919a511610059578063ac6919a51461024f578063d1c1120514610264578063d2db17f914610284578063d3584e84146102a457600080fd5b8063718ce2bc146101e65780638da5cb5b1461021a5780638f50b1431461022f57600080fd5b8063278ecde1116100bb578063278ecde11461015157806327b7a2f5146101715780632ef883d5146101a3578063430bf08a146101d157600080fd5b80630aebeb4e146100e25780630d5daf3b146101045780630fc55fd11461013e575b600080fd5b3480156100ee57600080fd5b506101026100fd366004611211565b6102d1565b005b34801561011057600080fd5b5061012461011f366004611211565b610640565b604051610135959493929190611429565b60405180910390f35b61010261014c366004611243565b610706565b34801561015d57600080fd5b5061010261016c366004611211565b610930565b34801561017d57600080fd5b506000546001600160a01b03165b6040516001600160a01b039091168152602001610135565b3480156101af57600080fd5b506101c36101be36600461117e565b610a3c565b604051908152602001610135565b3480156101dd57600080fd5b5061018b610acf565b3480156101f257600080fd5b50610206610201366004611211565b610b9b565b6040516101359897969594939291906113ad565b34801561022657600080fd5b5061018b610c79565b34801561023b57600080fd5b5061010261024a3660046111c3565b610cc8565b34801561025b57600080fd5b5061018b610f05565b34801561027057600080fd5b506101c361027f36600461128a565b610f4c565b34801561029057600080fd5b506101c361029f366004611243565b610f7d565b3480156102b057600080fd5b506102c46102bf366004611211565b610fb9565b60405161013591906112f9565b6000818152600360208181526040808420815160a0810183528154815260018201549381019390935260028101546001600160a01b031691830191909152918201546060820152600482018054919291608084019190610330906114c1565b80601f016020809104026020016040519081016040528092919081815260200182805461035c906114c1565b80156103a95780601f1061037e576101008083540402835291602001916103a9565b820191906000526020600020905b81548152906001019060200180831161038c57829003601f168201915b5050509190925250508151919250506104095760405162461bcd60e51b815260206004820152600560248201527f414431303300000000000000000000000000000000000000000000000000000060448201526064015b60405180910390fd5b60208082015160009081526001918290526040902001546001600160a01b031633146104775760405162461bcd60e51b815260206004820152600560248201527f41443130320000000000000000000000000000000000000000000000000000006044820152606401610400565b6040818101516020808401516000908152600190915291909120600701805473ffffffffffffffffffffffffffffffffffffffff19166001600160a01b03909216919091179055606081015133906108fc90600a906104d79060096114a2565b6104e19190611480565b6040518115909202916000818181858888f19350505050158015610509573d6000803e3d6000fd5b5061051261101b565b6001600160a01b03166108fc600a8360600151600161053191906114a2565b61053b9190611480565b6040518115909202916000818181858888f19350505050158015610563573d6000803e3d6000fd5b5061056c611025565b60408083015190517f40c10f190000000000000000000000000000000000000000000000000000000081526001600160a01b039182166004820152602481018590529116906340c10f1990604401600060405180830381600087803b1580156105d457600080fd5b505af11580156105e8573d6000803e3d6000fd5b5050825160208401516040808601516060870151608088015192517ff763d6ab2a4f1accf9c4fca103d30b90f90db83afeaad6b67481601184b1690d9750610634965091929091611429565b60405180910390a15050565b600360208190526000918252604090912080546001820154600283015493830154600484018054939592946001600160a01b0390931693919291610683906114c1565b80601f01602080910402602001604051908101604052809291908181526020018280546106af906114c1565b80156106fc5780601f106106d1576101008083540402835291602001916106fc565b820191906000526020600020905b8154815290600101906020018083116106df57829003601f168201915b5050505050905085565b60008281526001602052604090206006015442106107665760405162461bcd60e51b815260206004820152600560248201527f41443130310000000000000000000000000000000000000000000000000000006044820152606401610400565b6107a16040518060a00160405280600081526020016000815260200160006001600160a01b0316815260200160008152602001606081525090565b60405163d2db17f960e01b8152737d29f2254aef4646Fc8c2C17644cC35aE09877F59063d2db17f9906107da9086908690600401611408565b60206040518083038186803b1580156107f257600080fd5b505af4158015610806573d6000803e3d6000fd5b505050506040513d601f19601f8201168201806040525081019061082a919061122a565b808252602080830185815233604080860191825234606087019081526080870188815260009687526003808752929096208751815593516001850155915160028401805473ffffffffffffffffffffffffffffffffffffffff19166001600160a01b03909216919091179055905190820155915180518493926108b492600485019291019061102f565b505050600083815260026020908152604080832084518154600181018355918552938390200192909255825190830151838301516060850151608086015194517f01662ff7392d9961759cf40cab7a64e5ad660ba64a9df944343ce23b2b94c447956109239594939291611429565b60405180910390a1505050565b6000818152600360205260409020600201546001600160a01b031633146109995760405162461bcd60e51b815260206004820152600560248201527f41443130340000000000000000000000000000000000000000000000000000006044820152606401610400565b6000818152600360208190526040808320909101549051339282156108fc02929190818181858888f193505050501580156109d8573d6000803e3d6000fd5b506000818152600360208181526040928390206001810154920154835185815291820192909252339281019290925260608201527f303a7a5ed564cf1b7e8ec302e0d290e0c69d9785d1e5d43db651d7995f0bc0199060800160405180910390a150565b604051632ef883d560e01b8152600090737d29f2254aef4646Fc8c2C17644cC35aE09877F590632ef883d590610a78908690869060040161133d565b60206040518083038186803b158015610a9057600080fd5b505af4158015610aa4573d6000803e3d6000fd5b505050506040513d601f19601f82011682018060405250810190610ac8919061122a565b9392505050565b600080546040517f5661756c7400000000000000000000000000000000000000000000000000000060208201526001600160a01b0390911690638eaa6ac0906025015b604051602081830303815290604052805190602001206040518263ffffffff1660e01b8152600401610b4691815260200190565b60206040518083038186803b158015610b5e57600080fd5b505afa158015610b72573d6000803e3d6000fd5b505050506040513d601f19601f82011682018060405250810190610b969190611155565b905090565b60016020819052600091825260409091208054918101546002820180546001600160a01b039092169291610bce906114c1565b80601f0160208091040260200160405190810160405280929190818152602001828054610bfa906114c1565b8015610c475780601f10610c1c57610100808354040283529160200191610c47565b820191906000526020600020905b815481529060010190602001808311610c2a57829003601f168201915b50505060038401546004850154600586015460068701546007909701549596929591945092506001600160a01b031688565b60008060009054906101000a90046001600160a01b03166001600160a01b0316638da5cb5b6040518163ffffffff1660e01b815260040160206040518083038186803b158015610b5e57600080fd5b610d226040518061010001604052806000815260200160006001600160a01b03168152602001606081526020016000815260200160008152602001600081526020016000815260200160006001600160a01b031681525090565b604051632ef883d560e01b8152737d29f2254aef4646Fc8c2C17644cC35aE09877F590632ef883d590610d5b908790439060040161133d565b60206040518083038186803b158015610d7357600080fd5b505af4158015610d87573d6000803e3d6000fd5b505050506040513d601f19601f82011682018060405250810190610dab919061122a565b81523360208201526040810184905260608101839052608081018290524260a08201819052610ddb908390611468565b60c082015280516000908152600160208181526040928390208451815581850151928101805473ffffffffffffffffffffffffffffffffffffffff19166001600160a01b03909416939093179092559183015180518493610e4392600285019291019061102f565b50606082015181600301556080820151816004015560a0820151816005015560c0820151816006015560e08201518160070160006101000a8154816001600160a01b0302191690836001600160a01b031602179055509050507fc5b1508e582b10d2db0917542b3881b71cc569a7e1ad667ccbe4c5de45d8daa981600001518260200151836040015184606001518686608001818152508660a001518760c00151604051610ef7979695949392919061135f565b60405180910390a150505050565b600080546040517f446973747269627574696f6e526967687400000000000000000000000000000060208201526001600160a01b0390911690638eaa6ac090603101610b12565b60026020528160005260406000208181548110610f6857600080fd5b90600052602060002001600091509150505481565b60405163d2db17f960e01b8152600090737d29f2254aef4646Fc8c2C17644cC35aE09877F59063d2db17f990610a789086908690600401611408565b60008181526002602090815260409182902080548351818402810184019094528084526060939283018282801561100f57602002820191906000526020600020905b815481526020019060010190808311610ffb575b50505050509050919050565b6000610b96610acf565b6000610b96610f05565b82805461103b906114c1565b90600052602060002090601f01602090048101928261105d57600085556110a3565b82601f1061107657805160ff19168380011785556110a3565b828001600101855582156110a3579182015b828111156110a3578251825591602001919060010190611088565b506110af9291506110b3565b5090565b5b808211156110af57600081556001016110b4565b600082601f8301126110d957600080fd5b813567ffffffffffffffff808211156110f4576110f4611512565b604051601f8301601f19908116603f0116810190828211818310171561111c5761111c611512565b8160405283815286602085880101111561113557600080fd5b836020870160208301376000602085830101528094505050505092915050565b60006020828403121561116757600080fd5b81516001600160a01b0381168114610ac857600080fd5b6000806040838503121561119157600080fd5b823567ffffffffffffffff8111156111a857600080fd5b6111b4858286016110c8565b95602094909401359450505050565b6000806000606084860312156111d857600080fd5b833567ffffffffffffffff8111156111ef57600080fd5b6111fb868287016110c8565b9660208601359650604090950135949350505050565b60006020828403121561122357600080fd5b5035919050565b60006020828403121561123c57600080fd5b5051919050565b6000806040838503121561125657600080fd5b82359150602083013567ffffffffffffffff81111561127457600080fd5b611280858286016110c8565b9150509250929050565b6000806040838503121561129d57600080fd5b50508035926020909101359150565b6000815180845260005b818110156112d2576020818501810151868301820152016112b6565b818111156112e4576000602083870101525b50601f01601f19169290920160200192915050565b6020808252825182820181905260009190848201906040850190845b8181101561133157835183529284019291840191600101611315565b50909695505050505050565b60408152600061135060408301856112ac565b90508260208301529392505050565b8781526001600160a01b038716602082015260e06040820152600061138760e08301886112ac565b90508560608301528460808301528360a08301528260c083015298975050505050505050565b60006101008a83526001600160a01b03808b1660208501528160408501526113d78285018b6112ac565b92508860608501528760808501528660a08501528560c085015280851660e085015250509998505050505050505050565b82815260406020820152600061142160408301846112ac565b949350505050565b8581528460208201526001600160a01b038416604082015282606082015260a06080820152600061145d60a08301846112ac565b979650505050505050565b6000821982111561147b5761147b6114fc565b500190565b60008261149d57634e487b7160e01b600052601260045260246000fd5b500490565b60008160001904831182151516156114bc576114bc6114fc565b500290565b600181811c908216806114d557607f821691505b602082108114156114f657634e487b7160e01b600052602260045260246000fd5b50919050565b634e487b7160e01b600052601160045260246000fd5b634e487b7160e01b600052604160045260246000fdfea2646970667358221220d95ed45262654da3fd9a6d79ec1dfad016a6371d5b1df4e187840997926dd23964736f6c63430008060033",
  "deployedBytecode": "0x6080604052600436106100dd5760003560e01c8063718ce2bc1161007f578063ac6919a511610059578063ac6919a51461024f578063d1c1120514610264578063d2db17f914610284578063d3584e84146102a457600080fd5b8063718ce2bc146101e65780638da5cb5b1461021a5780638f50b1431461022f57600080fd5b8063278ecde1116100bb578063278ecde11461015157806327b7a2f5146101715780632ef883d5146101a3578063430bf08a146101d157600080fd5b80630aebeb4e146100e25780630d5daf3b146101045780630fc55fd11461013e575b600080fd5b3480156100ee57600080fd5b506101026100fd366004611211565b6102d1565b005b34801561011057600080fd5b5061012461011f366004611211565b610640565b604051610135959493929190611429565b60405180910390f35b61010261014c366004611243565b610706565b34801561015d57600080fd5b5061010261016c366004611211565b610930565b34801561017d57600080fd5b506000546001600160a01b03165b6040516001600160a01b039091168152602001610135565b3480156101af57600080fd5b506101c36101be36600461117e565b610a3c565b604051908152602001610135565b3480156101dd57600080fd5b5061018b610acf565b3480156101f257600080fd5b50610206610201366004611211565b610b9b565b6040516101359897969594939291906113ad565b34801561022657600080fd5b5061018b610c79565b34801561023b57600080fd5b5061010261024a3660046111c3565b610cc8565b34801561025b57600080fd5b5061018b610f05565b34801561027057600080fd5b506101c361027f36600461128a565b610f4c565b34801561029057600080fd5b506101c361029f366004611243565b610f7d565b3480156102b057600080fd5b506102c46102bf366004611211565b610fb9565b60405161013591906112f9565b6000818152600360208181526040808420815160a0810183528154815260018201549381019390935260028101546001600160a01b031691830191909152918201546060820152600482018054919291608084019190610330906114c1565b80601f016020809104026020016040519081016040528092919081815260200182805461035c906114c1565b80156103a95780601f1061037e576101008083540402835291602001916103a9565b820191906000526020600020905b81548152906001019060200180831161038c57829003601f168201915b5050509190925250508151919250506104095760405162461bcd60e51b815260206004820152600560248201527f414431303300000000000000000000000000000000000000000000000000000060448201526064015b60405180910390fd5b60208082015160009081526001918290526040902001546001600160a01b031633146104775760405162461bcd60e51b815260206004820152600560248201527f41443130320000000000000000000000000000000000000000000000000000006044820152606401610400565b6040818101516020808401516000908152600190915291909120600701805473ffffffffffffffffffffffffffffffffffffffff19166001600160a01b03909216919091179055606081015133906108fc90600a906104d79060096114a2565b6104e19190611480565b6040518115909202916000818181858888f19350505050158015610509573d6000803e3d6000fd5b5061051261101b565b6001600160a01b03166108fc600a8360600151600161053191906114a2565b61053b9190611480565b6040518115909202916000818181858888f19350505050158015610563573d6000803e3d6000fd5b5061056c611025565b60408083015190517f40c10f190000000000000000000000000000000000000000000000000000000081526001600160a01b039182166004820152602481018590529116906340c10f1990604401600060405180830381600087803b1580156105d457600080fd5b505af11580156105e8573d6000803e3d6000fd5b5050825160208401516040808601516060870151608088015192517ff763d6ab2a4f1accf9c4fca103d30b90f90db83afeaad6b67481601184b1690d9750610634965091929091611429565b60405180910390a15050565b600360208190526000918252604090912080546001820154600283015493830154600484018054939592946001600160a01b0390931693919291610683906114c1565b80601f01602080910402602001604051908101604052809291908181526020018280546106af906114c1565b80156106fc5780601f106106d1576101008083540402835291602001916106fc565b820191906000526020600020905b8154815290600101906020018083116106df57829003601f168201915b5050505050905085565b60008281526001602052604090206006015442106107665760405162461bcd60e51b815260206004820152600560248201527f41443130310000000000000000000000000000000000000000000000000000006044820152606401610400565b6107a16040518060a00160405280600081526020016000815260200160006001600160a01b0316815260200160008152602001606081525090565b60405163d2db17f960e01b815273__$f662caf489fd8d22a3db0ce873690c8b4a$__9063d2db17f9906107da9086908690600401611408565b60206040518083038186803b1580156107f257600080fd5b505af4158015610806573d6000803e3d6000fd5b505050506040513d601f19601f8201168201806040525081019061082a919061122a565b808252602080830185815233604080860191825234606087019081526080870188815260009687526003808752929096208751815593516001850155915160028401805473ffffffffffffffffffffffffffffffffffffffff19166001600160a01b03909216919091179055905190820155915180518493926108b492600485019291019061102f565b505050600083815260026020908152604080832084518154600181018355918552938390200192909255825190830151838301516060850151608086015194517f01662ff7392d9961759cf40cab7a64e5ad660ba64a9df944343ce23b2b94c447956109239594939291611429565b60405180910390a1505050565b6000818152600360205260409020600201546001600160a01b031633146109995760405162461bcd60e51b815260206004820152600560248201527f41443130340000000000000000000000000000000000000000000000000000006044820152606401610400565b6000818152600360208190526040808320909101549051339282156108fc02929190818181858888f193505050501580156109d8573d6000803e3d6000fd5b506000818152600360208181526040928390206001810154920154835185815291820192909252339281019290925260608201527f303a7a5ed564cf1b7e8ec302e0d290e0c69d9785d1e5d43db651d7995f0bc0199060800160405180910390a150565b604051632ef883d560e01b815260009073__$f662caf489fd8d22a3db0ce873690c8b4a$__90632ef883d590610a78908690869060040161133d565b60206040518083038186803b158015610a9057600080fd5b505af4158015610aa4573d6000803e3d6000fd5b505050506040513d601f19601f82011682018060405250810190610ac8919061122a565b9392505050565b600080546040517f5661756c7400000000000000000000000000000000000000000000000000000060208201526001600160a01b0390911690638eaa6ac0906025015b604051602081830303815290604052805190602001206040518263ffffffff1660e01b8152600401610b4691815260200190565b60206040518083038186803b158015610b5e57600080fd5b505afa158015610b72573d6000803e3d6000fd5b505050506040513d601f19601f82011682018060405250810190610b969190611155565b905090565b60016020819052600091825260409091208054918101546002820180546001600160a01b039092169291610bce906114c1565b80601f0160208091040260200160405190810160405280929190818152602001828054610bfa906114c1565b8015610c475780601f10610c1c57610100808354040283529160200191610c47565b820191906000526020600020905b815481529060010190602001808311610c2a57829003601f168201915b50505060038401546004850154600586015460068701546007909701549596929591945092506001600160a01b031688565b60008060009054906101000a90046001600160a01b03166001600160a01b0316638da5cb5b6040518163ffffffff1660e01b815260040160206040518083038186803b158015610b5e57600080fd5b610d226040518061010001604052806000815260200160006001600160a01b03168152602001606081526020016000815260200160008152602001600081526020016000815260200160006001600160a01b031681525090565b604051632ef883d560e01b815273__$f662caf489fd8d22a3db0ce873690c8b4a$__90632ef883d590610d5b908790439060040161133d565b60206040518083038186803b158015610d7357600080fd5b505af4158015610d87573d6000803e3d6000fd5b505050506040513d601f19601f82011682018060405250810190610dab919061122a565b81523360208201526040810184905260608101839052608081018290524260a08201819052610ddb908390611468565b60c082015280516000908152600160208181526040928390208451815581850151928101805473ffffffffffffffffffffffffffffffffffffffff19166001600160a01b03909416939093179092559183015180518493610e4392600285019291019061102f565b50606082015181600301556080820151816004015560a0820151816005015560c0820151816006015560e08201518160070160006101000a8154816001600160a01b0302191690836001600160a01b031602179055509050507fc5b1508e582b10d2db0917542b3881b71cc569a7e1ad667ccbe4c5de45d8daa981600001518260200151836040015184606001518686608001818152508660a001518760c00151604051610ef7979695949392919061135f565b60405180910390a150505050565b600080546040517f446973747269627574696f6e526967687400000000000000000000000000000060208201526001600160a01b0390911690638eaa6ac090603101610b12565b60026020528160005260406000208181548110610f6857600080fd5b90600052602060002001600091509150505481565b60405163d2db17f960e01b815260009073__$f662caf489fd8d22a3db0ce873690c8b4a$__9063d2db17f990610a789086908690600401611408565b60008181526002602090815260409182902080548351818402810184019094528084526060939283018282801561100f57602002820191906000526020600020905b815481526020019060010190808311610ffb575b50505050509050919050565b6000610b96610acf565b6000610b96610f05565b82805461103b906114c1565b90600052602060002090601f01602090048101928261105d57600085556110a3565b82601f1061107657805160ff19168380011785556110a3565b828001600101855582156110a3579182015b828111156110a3578251825591602001919060010190611088565b506110af9291506110b3565b5090565b5b808211156110af57600081556001016110b4565b600082601f8301126110d957600080fd5b813567ffffffffffffffff808211156110f4576110f4611512565b604051601f8301601f19908116603f0116810190828211818310171561111c5761111c611512565b8160405283815286602085880101111561113557600080fd5b836020870160208301376000602085830101528094505050505092915050565b60006020828403121561116757600080fd5b81516001600160a01b0381168114610ac857600080fd5b6000806040838503121561119157600080fd5b823567ffffffffffffffff8111156111a857600080fd5b6111b4858286016110c8565b95602094909401359450505050565b6000806000606084860312156111d857600080fd5b833567ffffffffffffffff8111156111ef57600080fd5b6111fb868287016110c8565b9660208601359650604090950135949350505050565b60006020828403121561122357600080fd5b5035919050565b60006020828403121561123c57600080fd5b5051919050565b6000806040838503121561125657600080fd5b82359150602083013567ffffffffffffffff81111561127457600080fd5b611280858286016110c8565b9150509250929050565b6000806040838503121561129d57600080fd5b50508035926020909101359150565b6000815180845260005b818110156112d2576020818501810151868301820152016112b6565b818111156112e4576000602083870101525b50601f01601f19169290920160200192915050565b6020808252825182820181905260009190848201906040850190845b8181101561133157835183529284019291840191600101611315565b50909695505050505050565b60408152600061135060408301856112ac565b90508260208301529392505050565b8781526001600160a01b038716602082015260e06040820152600061138760e08301886112ac565b90508560608301528460808301528360a08301528260c083015298975050505050505050565b60006101008a83526001600160a01b03808b1660208501528160408501526113d78285018b6112ac565b92508860608501528760808501528660a08501528560c085015280851660e085015250509998505050505050505050565b82815260406020820152600061142160408301846112ac565b949350505050565b8581528460208201526001600160a01b038416604082015282606082015260a06080820152600061145d60a08301846112ac565b979650505050505050565b6000821982111561147b5761147b6114fc565b500190565b60008261149d57634e487b7160e01b600052601260045260246000fd5b500490565b60008160001904831182151516156114bc576114bc6114fc565b500290565b600181811c908216806114d557607f821691505b602082108114156114f657634e487b7160e01b600052602260045260246000fd5b50919050565b634e487b7160e01b600052601160045260246000fd5b634e487b7160e01b600052604160045260246000fdfea2646970667358221220d95ed45262654da3fd9a6d79ec1dfad016a6371d5b1df4e187840997926dd23964736f6c63430008060033",
  "libraries": {
    "IDGenerator": "0x7d29f2254aef4646Fc8c2C17644cC35aE09877F5"
  },
  "devdoc": {
    "author": "Shumpei Koike - <shumpei.koike@bridges.inc>",
    "kind": "dev",
    "methods": {
      "bid(uint256,string)": {
        "details": "Bids to the post, sharing what kind of Ads would be public.      The owner of the Ad space can select the one according to not only      the price but also the preference inside the metadata.",
        "params": {
          "metadata": "string of the hashed path to the storage",
          "postId": "uint256 of the post ID"
        }
      },
      "close(uint256)": {
        "details": "Closes the offering and mints the NFT to the successful bidder.      The amount would be paid to the post owner.",
        "params": {
          "bidId": "uint256 of the bid ID"
        }
      },
      "distributionRightAddress()": {
        "details": "Gets the address of DistributionRight."
      },
      "nameRegistryAddress()": {
        "details": "Gets the address of NameRegistry"
      },
      "newPost(string,uint256,uint256)": {
        "details": "Creates a new post where the owner who has the advertising area      can public the space. The basic infomation of the area is described      on the storage, which is accessed by the metadata hash.",
        "params": {
          "initialPrice": "uint256 of the initial price",
          "metadata": "string of the hashed path to the storage",
          "periodHours": "uint256 of the period (hours)"
        }
      },
      "owner()": {
        "details": "Gets the owner address."
      },
      "refund(uint256)": {
        "details": "Can refund the amount if you want to cancel or      the other is determinted as the successful bidder.",
        "params": {
          "bidId": "uint256 of the bid ID"
        }
      },
      "vaultAddress()": {
        "details": "Gets the address of Vault."
      }
    },
    "title": "AdManager - allows anyone to create a post and bit to the post.",
    "version": 1
  },
  "userdoc": {
    "kind": "user",
    "methods": {},
    "version": 1
  },
  "storageLayout": {
    "storage": [
      {
        "astId": 526,
        "contract": "contracts/base/AdManager.sol:AdManager",
        "label": "_nameRegistry",
        "offset": 0,
        "slot": "0",
        "type": "t_contract(NameRegistry)691"
      },
      {
        "astId": 841,
        "contract": "contracts/base/AdManager.sol:AdManager",
        "label": "allPosts",
        "offset": 0,
        "slot": "1",
        "type": "t_mapping(t_uint256,t_struct(PostContent)825_storage)"
      },
      {
        "astId": 846,
        "contract": "contracts/base/AdManager.sol:AdManager",
        "label": "bidders",
        "offset": 0,
        "slot": "2",
        "type": "t_mapping(t_uint256,t_array(t_uint256)dyn_storage)"
      },
      {
        "astId": 851,
        "contract": "contracts/base/AdManager.sol:AdManager",
        "label": "bidderInfo",
        "offset": 0,
        "slot": "3",
        "type": "t_mapping(t_uint256,t_struct(Bidder)836_storage)"
      }
    ],
    "types": {
      "t_address": {
        "encoding": "inplace",
        "label": "address",
        "numberOfBytes": "20"
      },
      "t_array(t_uint256)dyn_storage": {
        "base": "t_uint256",
        "encoding": "dynamic_array",
        "label": "uint256[]",
        "numberOfBytes": "32"
      },
      "t_contract(NameRegistry)691": {
        "encoding": "inplace",
        "label": "contract NameRegistry",
        "numberOfBytes": "20"
      },
      "t_mapping(t_uint256,t_array(t_uint256)dyn_storage)": {
        "encoding": "mapping",
        "key": "t_uint256",
        "label": "mapping(uint256 => uint256[])",
        "numberOfBytes": "32",
        "value": "t_array(t_uint256)dyn_storage"
      },
      "t_mapping(t_uint256,t_struct(Bidder)836_storage)": {
        "encoding": "mapping",
        "key": "t_uint256",
        "label": "mapping(uint256 => struct AdManager.Bidder)",
        "numberOfBytes": "32",
        "value": "t_struct(Bidder)836_storage"
      },
      "t_mapping(t_uint256,t_struct(PostContent)825_storage)": {
        "encoding": "mapping",
        "key": "t_uint256",
        "label": "mapping(uint256 => struct AdManager.PostContent)",
        "numberOfBytes": "32",
        "value": "t_struct(PostContent)825_storage"
      },
      "t_string_storage": {
        "encoding": "bytes",
        "label": "string",
        "numberOfBytes": "32"
      },
      "t_struct(Bidder)836_storage": {
        "encoding": "inplace",
        "label": "struct AdManager.Bidder",
        "members": [
          {
            "astId": 827,
            "contract": "contracts/base/AdManager.sol:AdManager",
            "label": "bidId",
            "offset": 0,
            "slot": "0",
            "type": "t_uint256"
          },
          {
            "astId": 829,
            "contract": "contracts/base/AdManager.sol:AdManager",
            "label": "postId",
            "offset": 0,
            "slot": "1",
            "type": "t_uint256"
          },
          {
            "astId": 831,
            "contract": "contracts/base/AdManager.sol:AdManager",
            "label": "sender",
            "offset": 0,
            "slot": "2",
            "type": "t_address"
          },
          {
            "astId": 833,
            "contract": "contracts/base/AdManager.sol:AdManager",
            "label": "price",
            "offset": 0,
            "slot": "3",
            "type": "t_uint256"
          },
          {
            "astId": 835,
            "contract": "contracts/base/AdManager.sol:AdManager",
            "label": "metadata",
            "offset": 0,
            "slot": "4",
            "type": "t_string_storage"
          }
        ],
        "numberOfBytes": "160"
      },
      "t_struct(PostContent)825_storage": {
        "encoding": "inplace",
        "label": "struct AdManager.PostContent",
        "members": [
          {
            "astId": 810,
            "contract": "contracts/base/AdManager.sol:AdManager",
            "label": "postId",
            "offset": 0,
            "slot": "0",
            "type": "t_uint256"
          },
          {
            "astId": 812,
            "contract": "contracts/base/AdManager.sol:AdManager",
            "label": "owner",
            "offset": 0,
            "slot": "1",
            "type": "t_address"
          },
          {
            "astId": 814,
            "contract": "contracts/base/AdManager.sol:AdManager",
            "label": "metadata",
            "offset": 0,
            "slot": "2",
            "type": "t_string_storage"
          },
          {
            "astId": 816,
            "contract": "contracts/base/AdManager.sol:AdManager",
            "label": "currentPrice",
            "offset": 0,
            "slot": "3",
            "type": "t_uint256"
          },
          {
            "astId": 818,
            "contract": "contracts/base/AdManager.sol:AdManager",
            "label": "periodHours",
            "offset": 0,
            "slot": "4",
            "type": "t_uint256"
          },
          {
            "astId": 820,
            "contract": "contracts/base/AdManager.sol:AdManager",
            "label": "startTime",
            "offset": 0,
            "slot": "5",
            "type": "t_uint256"
          },
          {
            "astId": 822,
            "contract": "contracts/base/AdManager.sol:AdManager",
            "label": "endTime",
            "offset": 0,
            "slot": "6",
            "type": "t_uint256"
          },
          {
            "astId": 824,
            "contract": "contracts/base/AdManager.sol:AdManager",
            "label": "successfulBidder",
            "offset": 0,
            "slot": "7",
            "type": "t_address"
          }
        ],
        "numberOfBytes": "256"
      },
      "t_uint256": {
        "encoding": "inplace",
        "label": "uint256",
        "numberOfBytes": "32"
      }
    }
  }
}