{
  "address": "0x50DD570d96229B16aDedB7b1f2d3dED33d8c1098",
  "abi": [
    {
      "inputs": [
        {
          "internalType": "address",
          "name": "_nameRegistry",
          "type": "address"
        }
      ],
      "stateMutability": "nonpayable",
      "type": "constructor"
    },
    {
      "inputs": [],
      "name": "adPoolAddress",
      "outputs": [
        {
          "internalType": "address",
          "name": "",
          "type": "address"
        }
      ],
      "stateMutability": "view",
      "type": "function"
    },
    {
      "inputs": [
        {
          "internalType": "uint256",
          "name": "tokenId",
          "type": "uint256"
        },
        {
          "components": [
            {
              "internalType": "address",
              "name": "mediaProxy",
              "type": "address"
            },
            {
              "internalType": "string",
              "name": "spaceMetadata",
              "type": "string"
            },
            {
              "internalType": "string",
              "name": "tokenMetadata",
              "type": "string"
            },
            {
              "internalType": "uint256",
              "name": "saleStartTimestamp",
              "type": "uint256"
            },
            {
              "internalType": "uint256",
              "name": "saleEndTimestamp",
              "type": "uint256"
            },
            {
              "internalType": "uint256",
              "name": "displayStartTimestamp",
              "type": "uint256"
            },
            {
              "internalType": "uint256",
              "name": "displayEndTimestamp",
              "type": "uint256"
            },
            {
              "internalType": "enum Ad.Pricing",
              "name": "pricing",
              "type": "uint8"
            },
            {
              "internalType": "uint256",
              "name": "minPrice",
              "type": "uint256"
            },
            {
              "internalType": "uint256",
              "name": "startPrice",
              "type": "uint256"
            },
            {
              "internalType": "bool",
              "name": "sold",
              "type": "bool"
            }
          ],
          "internalType": "struct Ad.Period",
          "name": "period",
          "type": "tuple"
        }
      ],
      "name": "addPeriod",
      "outputs": [],
      "stateMutability": "nonpayable",
      "type": "function"
    },
    {
      "inputs": [
        {
          "internalType": "string",
          "name": "spaceMetadata",
          "type": "string"
        }
      ],
      "name": "addSpace",
      "outputs": [],
      "stateMutability": "nonpayable",
      "type": "function"
    },
    {
      "inputs": [
        {
          "internalType": "uint256",
          "name": "",
          "type": "uint256"
        }
      ],
      "name": "allPeriods",
      "outputs": [
        {
          "internalType": "address",
          "name": "mediaProxy",
          "type": "address"
        },
        {
          "internalType": "string",
          "name": "spaceMetadata",
          "type": "string"
        },
        {
          "internalType": "string",
          "name": "tokenMetadata",
          "type": "string"
        },
        {
          "internalType": "uint256",
          "name": "saleStartTimestamp",
          "type": "uint256"
        },
        {
          "internalType": "uint256",
          "name": "saleEndTimestamp",
          "type": "uint256"
        },
        {
          "internalType": "uint256",
          "name": "displayStartTimestamp",
          "type": "uint256"
        },
        {
          "internalType": "uint256",
          "name": "displayEndTimestamp",
          "type": "uint256"
        },
        {
          "internalType": "enum Ad.Pricing",
          "name": "pricing",
          "type": "uint8"
        },
        {
          "internalType": "uint256",
          "name": "minPrice",
          "type": "uint256"
        },
        {
          "internalType": "uint256",
          "name": "startPrice",
          "type": "uint256"
        },
        {
          "internalType": "bool",
          "name": "sold",
          "type": "bool"
        }
      ],
      "stateMutability": "view",
      "type": "function"
    },
    {
      "inputs": [
        {
          "internalType": "uint256",
          "name": "tokenId",
          "type": "uint256"
        }
      ],
      "name": "deletePeriod",
      "outputs": [],
      "stateMutability": "nonpayable",
      "type": "function"
    },
    {
      "inputs": [],
      "name": "eventEmitterAddress",
      "outputs": [
        {
          "internalType": "address",
          "name": "",
          "type": "address"
        }
      ],
      "stateMutability": "view",
      "type": "function"
    },
    {
      "inputs": [],
      "name": "mediaFactoryAddress",
      "outputs": [
        {
          "internalType": "address",
          "name": "",
          "type": "address"
        }
      ],
      "stateMutability": "view",
      "type": "function"
    },
    {
      "inputs": [
        {
          "internalType": "uint256",
          "name": "tokenId",
          "type": "uint256"
        }
      ],
      "name": "mediaProxyOf",
      "outputs": [
        {
          "internalType": "address",
          "name": "",
          "type": "address"
        }
      ],
      "stateMutability": "view",
      "type": "function"
    },
    {
      "inputs": [],
      "name": "mediaRegistryAddress",
      "outputs": [
        {
          "internalType": "address",
          "name": "",
          "type": "address"
        }
      ],
      "stateMutability": "view",
      "type": "function"
    },
    {
      "inputs": [],
      "name": "nameRegistryAddress",
      "outputs": [
        {
          "internalType": "address",
          "name": "",
          "type": "address"
        }
      ],
      "stateMutability": "view",
      "type": "function"
    },
    {
      "inputs": [],
      "name": "owner",
      "outputs": [
        {
          "internalType": "address",
          "name": "",
          "type": "address"
        }
      ],
      "stateMutability": "view",
      "type": "function"
    },
    {
      "inputs": [
        {
          "internalType": "string",
          "name": "",
          "type": "string"
        }
      ],
      "name": "spaced",
      "outputs": [
        {
          "internalType": "bool",
          "name": "",
          "type": "bool"
        }
      ],
      "stateMutability": "view",
      "type": "function"
    },
    {
      "inputs": [],
      "name": "vaultAddress",
      "outputs": [
        {
          "internalType": "address",
          "name": "",
          "type": "address"
        }
      ],
      "stateMutability": "view",
      "type": "function"
    }
  ],
  "transactionHash": "0x44992795a0ccf5f5f868e5d5dc543d142355ad4e3bf8c4ae31920fd4ffeca17b",
  "args": [
    "0x409A944c3f7C8F83e333e714278509F5B02E1f2c"
  ],
  "solcInputHash": "6ca65f67efc8f2cae2a93f9d484f35a0",
  "bytecode": "0x608060405234801561001057600080fd5b50604051610eef380380610eef83398101604081905261002f91610050565b600080546001600160a01b0319166001600160a01b03831617905550610080565b60006020828403121561006257600080fd5b81516001600160a01b038116811461007957600080fd5b9392505050565b610e608061008f6000396000f3fe608060405234801561001057600080fd5b50600436106100cf5760003560e01c80638da5cb5b1161008c578063b3a0ebc911610066578063b3a0ebc9146101b1578063b8926f2c146101db578063c9cd71b5146101ee578063f0726291146101f657600080fd5b80638da5cb5b1461018e5780638f6059d614610196578063979c24911461019e57600080fd5b806310335241146100d457806327b7a2f51461011a578063430bf08a1461012b5780634b455a511461013357806365045a65146101485780636a58767e14610186575b600080fd5b6100fd6100e2366004610a21565b6000908152600160205260409020546001600160a01b031690565b6040516001600160a01b0390911681526020015b60405180910390f35b6000546001600160a01b03166100fd565b6100fd6101fe565b610146610141366004610a21565b6102b2565b005b610176610156366004610b07565b805160208183018101805160028252928201919093012091525460ff1681565b6040519015158152602001610111565b6100fd6103ff565b6100fd610436565b6100fd610485565b6101466101ac366004610b88565b6104bb565b6101c46101bf366004610a21565b61066c565b6040516101119b9a99989796959493929190610d0c565b6101466101e9366004610b07565b6107e4565b6100fd6108db565b6100fd61090b565b600080546040516415985d5b1d60da1b60208201526001600160a01b0390911690638eaa6ac0906025015b604051602081830303815290604052805190602001206040518263ffffffff1660e01b815260040161025d91815260200190565b60206040518083038186803b15801561027557600080fd5b505afa158015610289573d6000803e3d6000fd5b505050506040513d601f19601f820116820180604052508101906102ad9190610daf565b905090565b60006102bc610941565b604051630a57ebcf60e11b81523360048201526001600160a01b0391909116906314afd79e9060240160206040518083038186803b1580156102fd57600080fd5b505afa158015610311573d6000803e3d6000fd5b505050506040513d601f19601f820116820180604052508101906103359190610daf565b6001600160a01b031614156103795760405162461bcd60e51b81526020600482015260056024820152644b4430313160d81b60448201526064015b60405180910390fd5b6000818152600160208190526040822080546001600160a01b031916815591906103a59083018261094b565b6103b360028301600061094b565b5060006003820181905560048201819055600582018190556006820181905560078201805460ff19908116909155600883018290556009830191909155600a9091018054909116905550565b600080546040516c4d65646961526567697374727960981b60208201526001600160a01b0390911690638eaa6ac090602d01610229565b60008060009054906101000a90046001600160a01b03166001600160a01b0316638da5cb5b6040518163ffffffff1660e01b815260040160206040518083038186803b15801561027557600080fd5b600080546040516b4d65646961466163746f727960a01b60208201526001600160a01b0390911690638eaa6ac090602c01610229565b60006104c5610941565b604051630a57ebcf60e11b81523360048201526001600160a01b0391909116906314afd79e9060240160206040518083038186803b15801561050657600080fd5b505afa15801561051a573d6000803e3d6000fd5b505050506040513d601f19601f8201168201806040525081019061053e9190610daf565b6001600160a01b0316141561057d5760405162461bcd60e51b81526020600482015260056024820152644b4430313160d81b6044820152606401610370565b6000828152600160208181526040909220835181546001600160a01b0319166001600160a01b03909116178155838301518051859492936105c393908501920190610988565b50604082015180516105df916002840191602090910190610988565b50606082015181600301556080820151816004015560a0820151816005015560c0820151816006015560e08201518160070160006101000a81548160ff0219169083600381111561063257610632610cf6565b02179055506101008201516008820155610120820151600982015561014090910151600a909101805460ff19169115159190911790555050565b6001602081905260009182526040909120805491810180546001600160a01b039093169261069990610dd3565b80601f01602080910402602001604051908101604052809291908181526020018280546106c590610dd3565b80156107125780601f106106e757610100808354040283529160200191610712565b820191906000526020600020905b8154815290600101906020018083116106f557829003601f168201915b50505050509080600201805461072790610dd3565b80601f016020809104026020016040519081016040528092919081815260200182805461075390610dd3565b80156107a05780601f10610775576101008083540402835291602001916107a0565b820191906000526020600020905b81548152906001019060200180831161078357829003601f168201915b50505060038401546004850154600586015460068701546007880154600889015460098a0154600a909a015498999598949750929550909360ff918216939091168b565b60006107ee610941565b604051630a57ebcf60e11b81523360048201526001600160a01b0391909116906314afd79e9060240160206040518083038186803b15801561082f57600080fd5b505afa158015610843573d6000803e3d6000fd5b505050506040513d601f19601f820116820180604052508101906108679190610daf565b6001600160a01b031614156108a65760405162461bcd60e51b81526020600482015260056024820152644b4430313160d81b6044820152606401610370565b60016002826040516108b89190610e0e565b908152604051908190036020019020805491151560ff1990921691909117905550565b60008054604051651059141bdbdb60d21b60208201526001600160a01b0390911690638eaa6ac090602601610229565b600080546040516b22bb32b73a22b6b4ba3a32b960a11b60208201526001600160a01b0390911690638eaa6ac090602c01610229565b60006102ad6103ff565b50805461095790610dd3565b6000825580601f10610967575050565b601f0160209004906000526020600020908101906109859190610a0c565b50565b82805461099490610dd3565b90600052602060002090601f0160209004810192826109b657600085556109fc565b82601f106109cf57805160ff19168380011785556109fc565b828001600101855582156109fc579182015b828111156109fc5782518255916020019190600101906109e1565b50610a08929150610a0c565b5090565b5b80821115610a085760008155600101610a0d565b600060208284031215610a3357600080fd5b5035919050565b634e487b7160e01b600052604160045260246000fd5b604051610160810167ffffffffffffffff81118282101715610a7457610a74610a3a565b60405290565b600082601f830112610a8b57600080fd5b813567ffffffffffffffff80821115610aa657610aa6610a3a565b604051601f8301601f19908116603f01168101908282118183101715610ace57610ace610a3a565b81604052838152866020858801011115610ae757600080fd5b836020870160208301376000602085830101528094505050505092915050565b600060208284031215610b1957600080fd5b813567ffffffffffffffff811115610b3057600080fd5b610b3c84828501610a7a565b949350505050565b6001600160a01b038116811461098557600080fd5b8035610b6481610b44565b919050565b803560048110610b6457600080fd5b80358015158114610b6457600080fd5b60008060408385031215610b9b57600080fd5b82359150602083013567ffffffffffffffff80821115610bba57600080fd5b908401906101608287031215610bcf57600080fd5b610bd7610a50565b610be083610b59565b8152602083013582811115610bf457600080fd5b610c0088828601610a7a565b602083015250604083013582811115610c1857600080fd5b610c2488828601610a7a565b604083015250606083013560608201526080830135608082015260a083013560a082015260c083013560c0820152610c5e60e08401610b69565b60e0820152610100838101359082015261012080840135908201526101409150610c89828401610b78565b828201528093505050509250929050565b60005b83811015610cb5578181015183820152602001610c9d565b83811115610cc4576000848401525b50505050565b60008151808452610ce2816020860160208601610c9a565b601f01601f19169290920160200192915050565b634e487b7160e01b600052602160045260246000fd5b60006101606001600160a01b038e168352806020840152610d2f8184018e610cca565b90508281036040840152610d43818d610cca565b9150508960608301528860808301528760a08301528660c083015260048610610d7c57634e487b7160e01b600052602160045260246000fd5b8560e08301528461010083015283610120830152610d9f61014083018415159052565b9c9b505050505050505050505050565b600060208284031215610dc157600080fd5b8151610dcc81610b44565b9392505050565b600181811c90821680610de757607f821691505b60208210811415610e0857634e487b7160e01b600052602260045260246000fd5b50919050565b60008251610e20818460208701610c9a565b919091019291505056fea2646970667358221220c3830699d84dcbac49d9cbe2f3570c437ec1416047d83137dcf1ecfebaafcc5e64736f6c63430008090033",
  "devdoc": {
    "author": "Shumpei Koike - <shumpei.koike@bridges.inc>",
    "kind": "dev",
    "methods": {
      "adPoolAddress()": {
        "details": "Gets the address of AdPool."
      },
      "eventEmitterAddress()": {
        "details": "Gets the address of EventEmitter."
      },
      "mediaFactoryAddress()": {
        "details": "Gets the address of MediaFactory."
      },
      "mediaRegistryAddress()": {
        "details": "Gets the address of MediaRegistry."
      },
      "nameRegistryAddress()": {
        "details": "Gets the address of NameRegistry"
      },
      "owner()": {
        "details": "Gets the owner address."
      },
      "vaultAddress()": {
        "details": "Gets the address of Vault."
      }
    },
    "stateVariables": {
      "allPeriods": {
        "details": "tokenId <- metadata * displayStartTimestamp * displayEndTimestamp"
      },
      "spaced": {
        "details": "Returns spaceId that is tied with space metadata."
      }
    },
    "title": "AdPool - stores all ads accorss every space.",
    "version": 1
  },
  "userdoc": {
    "kind": "user",
    "methods": {},
    "version": 1
  },
  "storageLayout": {
    "storage": [
      {
        "astId": 1560,
        "contract": "contracts/peripheries/AdPool.sol:AdPool",
        "label": "_nameRegistry",
        "offset": 0,
        "slot": "0",
        "type": "t_contract(NameRegistry)1789"
      },
      {
        "astId": 4392,
        "contract": "contracts/peripheries/AdPool.sol:AdPool",
        "label": "allPeriods",
        "offset": 0,
        "slot": "1",
        "type": "t_mapping(t_uint256,t_struct(Period)4172_storage)"
      },
      {
        "astId": 4397,
        "contract": "contracts/peripheries/AdPool.sol:AdPool",
        "label": "spaced",
        "offset": 0,
        "slot": "2",
        "type": "t_mapping(t_string_memory_ptr,t_bool)"
      }
    ],
    "types": {
      "t_address": {
        "encoding": "inplace",
        "label": "address",
        "numberOfBytes": "20"
      },
      "t_bool": {
        "encoding": "inplace",
        "label": "bool",
        "numberOfBytes": "1"
      },
      "t_contract(NameRegistry)1789": {
        "encoding": "inplace",
        "label": "contract NameRegistry",
        "numberOfBytes": "20"
      },
      "t_enum(Pricing)4148": {
        "encoding": "inplace",
        "label": "enum Ad.Pricing",
        "numberOfBytes": "1"
      },
      "t_mapping(t_string_memory_ptr,t_bool)": {
        "encoding": "mapping",
        "key": "t_string_memory_ptr",
        "label": "mapping(string => bool)",
        "numberOfBytes": "32",
        "value": "t_bool"
      },
      "t_mapping(t_uint256,t_struct(Period)4172_storage)": {
        "encoding": "mapping",
        "key": "t_uint256",
        "label": "mapping(uint256 => struct Ad.Period)",
        "numberOfBytes": "32",
        "value": "t_struct(Period)4172_storage"
      },
      "t_string_memory_ptr": {
        "encoding": "bytes",
        "label": "string",
        "numberOfBytes": "32"
      },
      "t_string_storage": {
        "encoding": "bytes",
        "label": "string",
        "numberOfBytes": "32"
      },
      "t_struct(Period)4172_storage": {
        "encoding": "inplace",
        "label": "struct Ad.Period",
        "members": [
          {
            "astId": 4150,
            "contract": "contracts/peripheries/AdPool.sol:AdPool",
            "label": "mediaProxy",
            "offset": 0,
            "slot": "0",
            "type": "t_address"
          },
          {
            "astId": 4152,
            "contract": "contracts/peripheries/AdPool.sol:AdPool",
            "label": "spaceMetadata",
            "offset": 0,
            "slot": "1",
            "type": "t_string_storage"
          },
          {
            "astId": 4154,
            "contract": "contracts/peripheries/AdPool.sol:AdPool",
            "label": "tokenMetadata",
            "offset": 0,
            "slot": "2",
            "type": "t_string_storage"
          },
          {
            "astId": 4156,
            "contract": "contracts/peripheries/AdPool.sol:AdPool",
            "label": "saleStartTimestamp",
            "offset": 0,
            "slot": "3",
            "type": "t_uint256"
          },
          {
            "astId": 4158,
            "contract": "contracts/peripheries/AdPool.sol:AdPool",
            "label": "saleEndTimestamp",
            "offset": 0,
            "slot": "4",
            "type": "t_uint256"
          },
          {
            "astId": 4160,
            "contract": "contracts/peripheries/AdPool.sol:AdPool",
            "label": "displayStartTimestamp",
            "offset": 0,
            "slot": "5",
            "type": "t_uint256"
          },
          {
            "astId": 4162,
            "contract": "contracts/peripheries/AdPool.sol:AdPool",
            "label": "displayEndTimestamp",
            "offset": 0,
            "slot": "6",
            "type": "t_uint256"
          },
          {
            "astId": 4165,
            "contract": "contracts/peripheries/AdPool.sol:AdPool",
            "label": "pricing",
            "offset": 0,
            "slot": "7",
            "type": "t_enum(Pricing)4148"
          },
          {
            "astId": 4167,
            "contract": "contracts/peripheries/AdPool.sol:AdPool",
            "label": "minPrice",
            "offset": 0,
            "slot": "8",
            "type": "t_uint256"
          },
          {
            "astId": 4169,
            "contract": "contracts/peripheries/AdPool.sol:AdPool",
            "label": "startPrice",
            "offset": 0,
            "slot": "9",
            "type": "t_uint256"
          },
          {
            "astId": 4171,
            "contract": "contracts/peripheries/AdPool.sol:AdPool",
            "label": "sold",
            "offset": 0,
            "slot": "10",
            "type": "t_bool"
          }
        ],
        "numberOfBytes": "352"
      },
      "t_uint256": {
        "encoding": "inplace",
        "label": "uint256",
        "numberOfBytes": "32"
      }
    }
  }
}