{
  "address": "0x66cd1C3a8577EB2e978698fe561b36ff151506F0",
  "abi": [
    {
      "inputs": [
        {
          "internalType": "address",
          "name": "_nameRegistry",
          "type": "address"
        }
      ],
      "stateMutability": "nonpayable",
      "type": "constructor"
    },
    {
      "inputs": [
        {
          "internalType": "uint256",
          "name": "tokenId",
          "type": "uint256"
        },
        {
          "internalType": "string",
          "name": "tokenMetadata",
          "type": "string"
        },
        {
          "components": [
            {
              "internalType": "string",
              "name": "spaceMetadata",
              "type": "string"
            },
            {
              "internalType": "uint256",
              "name": "displayStartTimestamp",
              "type": "uint256"
            },
            {
              "internalType": "uint256",
              "name": "displayEndTimestamp",
              "type": "uint256"
            },
            {
              "internalType": "address",
              "name": "sender",
              "type": "address"
            },
            {
              "internalType": "uint256",
              "name": "price",
              "type": "uint256"
            }
          ],
          "internalType": "struct Sale.Offer",
          "name": "offer",
          "type": "tuple"
        }
      ],
      "name": "acceptOffer",
      "outputs": [],
      "stateMutability": "nonpayable",
      "type": "function"
    },
    {
      "inputs": [],
      "name": "adPoolAddress",
      "outputs": [
        {
          "internalType": "address",
          "name": "",
          "type": "address"
        }
      ],
      "stateMutability": "view",
      "type": "function"
    },
    {
      "inputs": [
        {
          "internalType": "address",
          "name": "proxy",
          "type": "address"
        },
        {
          "internalType": "string",
          "name": "spaceMetadata",
          "type": "string"
        },
        {
          "internalType": "string",
          "name": "tokenMetadata",
          "type": "string"
        },
        {
          "internalType": "uint256",
          "name": "saleEndTimestamp",
          "type": "uint256"
        },
        {
          "internalType": "uint256",
          "name": "displayStartTimestamp",
          "type": "uint256"
        },
        {
          "internalType": "uint256",
          "name": "displayEndTimestamp",
          "type": "uint256"
        },
        {
          "internalType": "enum Ad.Pricing",
          "name": "pricing",
          "type": "uint8"
        },
        {
          "internalType": "uint256",
          "name": "minPrice",
          "type": "uint256"
        }
      ],
      "name": "addPeriod",
      "outputs": [
        {
          "internalType": "uint256",
          "name": "tokenId",
          "type": "uint256"
        }
      ],
      "stateMutability": "nonpayable",
      "type": "function"
    },
    {
      "inputs": [
        {
          "internalType": "string",
          "name": "metadata",
          "type": "string"
        }
      ],
      "name": "addSpace",
      "outputs": [],
      "stateMutability": "nonpayable",
      "type": "function"
    },
    {
      "inputs": [
        {
          "internalType": "uint256",
          "name": "tokenId",
          "type": "uint256"
        }
      ],
      "name": "allPeriods",
      "outputs": [
        {
          "components": [
            {
              "internalType": "address",
              "name": "mediaProxy",
              "type": "address"
            },
            {
              "internalType": "string",
              "name": "spaceMetadata",
              "type": "string"
            },
            {
              "internalType": "string",
              "name": "tokenMetadata",
              "type": "string"
            },
            {
              "internalType": "uint256",
              "name": "saleStartTimestamp",
              "type": "uint256"
            },
            {
              "internalType": "uint256",
              "name": "saleEndTimestamp",
              "type": "uint256"
            },
            {
              "internalType": "uint256",
              "name": "displayStartTimestamp",
              "type": "uint256"
            },
            {
              "internalType": "uint256",
              "name": "displayEndTimestamp",
              "type": "uint256"
            },
            {
              "internalType": "enum Ad.Pricing",
              "name": "pricing",
              "type": "uint8"
            },
            {
              "internalType": "uint256",
              "name": "minPrice",
              "type": "uint256"
            },
            {
              "internalType": "uint256",
              "name": "startPrice",
              "type": "uint256"
            },
            {
              "internalType": "bool",
              "name": "sold",
              "type": "bool"
            }
          ],
          "internalType": "struct Ad.Period",
          "name": "",
          "type": "tuple"
        }
      ],
      "stateMutability": "view",
      "type": "function"
    },
    {
      "inputs": [
        {
          "internalType": "uint256",
          "name": "tokenId",
          "type": "uint256"
        }
      ],
      "name": "deletePeriod",
      "outputs": [],
      "stateMutability": "nonpayable",
      "type": "function"
    },
    {
      "inputs": [
        {
          "internalType": "uint256",
          "name": "tokenId",
          "type": "uint256"
        }
      ],
      "name": "displayEnd",
      "outputs": [
        {
          "internalType": "uint256",
          "name": "",
          "type": "uint256"
        }
      ],
      "stateMutability": "view",
      "type": "function"
    },
    {
      "inputs": [
        {
          "internalType": "uint256",
          "name": "tokenId",
          "type": "uint256"
        }
      ],
      "name": "displayStart",
      "outputs": [
        {
          "internalType": "uint256",
          "name": "",
          "type": "uint256"
        }
      ],
      "stateMutability": "view",
      "type": "function"
    },
    {
      "inputs": [],
      "name": "englishAuctionAddress",
      "outputs": [
        {
          "internalType": "address",
          "name": "",
          "type": "address"
        }
      ],
      "stateMutability": "view",
      "type": "function"
    },
    {
      "inputs": [],
      "name": "eventEmitterAddress",
      "outputs": [
        {
          "internalType": "address",
          "name": "",
          "type": "address"
        }
      ],
      "stateMutability": "view",
      "type": "function"
    },
    {
      "inputs": [],
      "name": "mediaFactoryAddress",
      "outputs": [
        {
          "internalType": "address",
          "name": "",
          "type": "address"
        }
      ],
      "stateMutability": "view",
      "type": "function"
    },
    {
      "inputs": [
        {
          "internalType": "uint256",
          "name": "tokenId",
          "type": "uint256"
        }
      ],
      "name": "mediaProxyOf",
      "outputs": [
        {
          "internalType": "address",
          "name": "",
          "type": "address"
        }
      ],
      "stateMutability": "view",
      "type": "function"
    },
    {
      "inputs": [],
      "name": "mediaRegistryAddress",
      "outputs": [
        {
          "internalType": "address",
          "name": "",
          "type": "address"
        }
      ],
      "stateMutability": "view",
      "type": "function"
    },
    {
      "inputs": [],
      "name": "nameRegistryAddress",
      "outputs": [
        {
          "internalType": "address",
          "name": "",
          "type": "address"
        }
      ],
      "stateMutability": "view",
      "type": "function"
    },
    {
      "inputs": [],
      "name": "offerBidAddress",
      "outputs": [
        {
          "internalType": "address",
          "name": "",
          "type": "address"
        }
      ],
      "stateMutability": "view",
      "type": "function"
    },
    {
      "inputs": [],
      "name": "openBidAddress",
      "outputs": [
        {
          "internalType": "address",
          "name": "",
          "type": "address"
        }
      ],
      "stateMutability": "view",
      "type": "function"
    },
    {
      "inputs": [],
      "name": "owner",
      "outputs": [
        {
          "internalType": "address",
          "name": "",
          "type": "address"
        }
      ],
      "stateMutability": "view",
      "type": "function"
    },
    {
      "inputs": [
        {
          "internalType": "uint256",
          "name": "",
          "type": "uint256"
        }
      ],
      "name": "periods",
      "outputs": [
        {
          "internalType": "address",
          "name": "mediaProxy",
          "type": "address"
        },
        {
          "internalType": "string",
          "name": "spaceMetadata",
          "type": "string"
        },
        {
          "internalType": "string",
          "name": "tokenMetadata",
          "type": "string"
        },
        {
          "internalType": "uint256",
          "name": "saleStartTimestamp",
          "type": "uint256"
        },
        {
          "internalType": "uint256",
          "name": "saleEndTimestamp",
          "type": "uint256"
        },
        {
          "internalType": "uint256",
          "name": "displayStartTimestamp",
          "type": "uint256"
        },
        {
          "internalType": "uint256",
          "name": "displayEndTimestamp",
          "type": "uint256"
        },
        {
          "internalType": "enum Ad.Pricing",
          "name": "pricing",
          "type": "uint8"
        },
        {
          "internalType": "uint256",
          "name": "minPrice",
          "type": "uint256"
        },
        {
          "internalType": "uint256",
          "name": "startPrice",
          "type": "uint256"
        },
        {
          "internalType": "bool",
          "name": "sold",
          "type": "bool"
        }
      ],
      "stateMutability": "view",
      "type": "function"
    },
    {
      "inputs": [],
      "name": "proposalReviewAddress",
      "outputs": [
        {
          "internalType": "address",
          "name": "",
          "type": "address"
        }
      ],
      "stateMutability": "view",
      "type": "function"
    },
    {
      "inputs": [
        {
          "internalType": "uint256",
          "name": "tokenId",
          "type": "uint256"
        }
      ],
      "name": "sold",
      "outputs": [],
      "stateMutability": "nonpayable",
      "type": "function"
    },
    {
      "inputs": [
        {
          "internalType": "string",
          "name": "",
          "type": "string"
        }
      ],
      "name": "spaced",
      "outputs": [
        {
          "internalType": "bool",
          "name": "",
          "type": "bool"
        }
      ],
      "stateMutability": "view",
      "type": "function"
    },
    {
      "inputs": [
        {
          "internalType": "string",
          "name": "spaceMetadata",
          "type": "string"
        }
      ],
      "name": "tokenIdsOf",
      "outputs": [
        {
          "internalType": "uint256[]",
          "name": "",
          "type": "uint256[]"
        }
      ],
      "stateMutability": "view",
      "type": "function"
    },
    {
      "inputs": [],
      "name": "vaultAddress",
      "outputs": [
        {
          "internalType": "address",
          "name": "",
          "type": "address"
        }
      ],
      "stateMutability": "view",
      "type": "function"
    }
  ],
  "transactionHash": "0xf0a943d303c5cd321acde9133cee8430f9b62f54e8f1a12b56f9641d1637d415",
  "args": [
    "0x173E3862BaE7bD155a7a371Ee3b855de01aa63dd"
  ],
  "solcInputHash": "289fa2710193a113c0b3ec7823c19cab",
  "bytecode": "0x608060405234801561001057600080fd5b50604051620021fa380380620021fa83398101604081905261003191610052565b600080546001600160a01b0319166001600160a01b03831617905550610082565b60006020828403121561006457600080fd5b81516001600160a01b038116811461007b57600080fd5b9392505050565b61216880620000926000396000f3fe608060405234801561001057600080fd5b506004361061011d5760003560e01c80630106d8eb1461012257806310335241146101405780632231c1eb1461016957806327b7a2f5146101715780632874d8f314610182578063430bf08a146101a35780634b455a51146101ab57806365045a65146101c05780636a58767e146101fe5780637cf175fb146102065780638da5cb5b1461020e5780638f6059d6146102165780639c03facb1461021e578063a9ad60f314610231578063b3a0ebc914610244578063b8926f2c14610264578063c9cd71b514610277578063d028bd661461027f578063d3c1277e1461029f578063e2f5fc78146102b2578063e6851b98146102ba578063ea4a1104146102cd578063f0726291146102f7575b600080fd5b61012a6102ff565b6040516101379190611a11565b60405180910390f35b61012a61014e366004611a25565b6000908152600160205260409020546001600160a01b031690565b61012a6103bc565b6000546001600160a01b031661012a565b610195610190366004611a25565b6103ed565b604051908152602001610137565b61012a610402565b6101be6101b9366004611a25565b610431565b005b6101ee6101ce366004611b08565b805160208183018101805160028252928201919093012091525460ff1681565b6040519015158152602001610137565b61012a610796565b61012a6107cd565b61012a6107ff565b61012a61084e565b6101be61022c366004611a25565b610884565b6101be61023f366004611b59565b610951565b610257610252366004611a25565b610c30565b6040516101379190611cb9565b6101be610272366004611b08565b610e0b565b61012a610fa9565b61029261028d366004611b08565b610fd9565b6040516101379190611d79565b6101956102ad366004611a25565b611049565b61012a61105e565b6101956102c8366004611dbd565b611096565b6102e06102db366004611a25565b61152b565b6040516101379b9a99989796959493929190611e72565b61012a6116a3565b600080546040516d22b733b634b9b420bab1ba34b7b760911b60208201526001600160a01b0390911690638eaa6ac090602e015b604051602081830303815290604052805190602001206040518263ffffffff1660e01b815260040161036791815260200190565b60206040518083038186803b15801561037f57600080fd5b505afa158015610393573d6000803e3d6000fd5b505050506040513d601f19601f820116820180604052508101906103b79190611efa565b905090565b600080546040516613dc195b909a5960ca1b60208201526001600160a01b0390911690638eaa6ac090602701610333565b60009081526001602052604090206006015490565b600080546040516415985d5b1d60da1b60208201526001600160a01b0390911690638eaa6ac090602501610333565b600061043b6116d9565b6001600160a01b03166314afd79e336040518263ffffffff1660e01b81526004016104669190611a11565b60206040518083038186803b15801561047e57600080fd5b505afa158015610492573d6000803e3d6000fd5b505050506040513d601f19601f820116820180604052508101906104b69190611efa565b6001600160a01b031614156104e65760405162461bcd60e51b81526004016104dd90611f1e565b60405180910390fd5b6000818152600160208190526040822001805461050290611f3d565b80601f016020809104026020016040519081016040528092919081815260200182805461052e90611f3d565b801561057b5780601f106105505761010080835404028352916020019161057b565b820191906000526020600020905b81548152906001019060200180831161055e57829003601f168201915b50505050509050600080600190505b60038360405161059a9190611f78565b908152604051908190036020019020546105b5906001611faa565b81101561061e57836003846040516105cd9190611f78565b9081526040519081900360200190206105e7600184611fc2565b815481106105f7576105f7611fd9565b9060005260206000200154141561060c578091505b8061061681611fef565b91505061058a565b50806106605760405162461bcd60e51b81526020600482015260116024820152704e6f2064656c657461626c65206b65797360781b60448201526064016104dd565b6003826040516106709190611f78565b90815260405190819003602001902061068a600183611fc2565b8154811061069a5761069a611fd9565b600091825260208083209091018290558482526001908190526040822080546001600160a01b031916815591906106d3908301826118c8565b6106e16002830160006118c8565b5060006003820181905560048201819055600582018190556006820181905560078201805460ff19908116909155600883018290556009830191909155600a909101805490911690556107326116e3565b6001600160a01b031663ccb55a98846040518263ffffffff1660e01b815260040161075f91815260200190565b600060405180830381600087803b15801561077957600080fd5b505af115801561078d573d6000803e3d6000fd5b50505050505050565b600080546040516c4d65646961526567697374727960981b60208201526001600160a01b0390911690638eaa6ac090602d01610333565b600080546040516713d999995c909a5960c21b60208201526001600160a01b0390911690638eaa6ac090602801610333565b60008060009054906101000a90046001600160a01b03166001600160a01b031663d5f394886040518163ffffffff1660e01b815260040160206040518083038186803b15801561037f57600080fd5b600080546040516b4d65646961466163746f727960a01b60208201526001600160a01b0390911690638eaa6ac090602c01610333565b600061088e6116d9565b6001600160a01b03166314afd79e336040518263ffffffff1660e01b81526004016108b99190611a11565b60206040518083038186803b1580156108d157600080fd5b505afa1580156108e5573d6000803e3d6000fd5b505050506040513d601f19601f820116820180604052508101906109099190611efa565b6001600160a01b031614156109305760405162461bcd60e51b81526004016104dd90611f1e565b6000908152600160208190526040909120600a01805460ff19169091179055565b600061095b6116d9565b6001600160a01b03166314afd79e336040518263ffffffff1660e01b81526004016109869190611a11565b60206040518083038186803b15801561099e57600080fd5b505afa1580156109b2573d6000803e3d6000fd5b505050506040513d601f19601f820116820180604052508101906109d69190611efa565b6001600160a01b031614156109fd5760405162461bcd60e51b81526004016104dd90611f1e565b610a148160000151826020015183604001516116ed565b600060405180610160016040528083606001516001600160a01b0316815260200183600001518152602001848152602001610a4c4290565b815260200142815260208481015181830152604080860151818401526003606084015260808087018051918501919091525160a0840152600160c0909301839052600088815283835220835181546001600160a01b039091166001600160a01b031990911617815583820151805194955085949193610ad19390850192910190611902565b5060408201518051610aed916002840191602090910190611902565b50606082015181600301556080820151816004015560a0820151816005015560c0820151816006015560e08201518160070160006101000a81548160ff02191690836004811115610b4057610b40611c81565b02179055506101008201516008820155610120820151600982015561014090910151600a909101805460ff19169115159190911790558151604051600391610b8791611f78565b908152604051602091819003820190208054600181018255600091825291902001849055610bb36116e3565b6001600160a01b0316630ca82afb858460000151868660200151876040015188608001516040518763ffffffff1660e01b8152600401610bf89695949392919061200a565b600060405180830381600087803b158015610c1257600080fd5b505af1158015610c26573d6000803e3d6000fd5b5050505050505050565b610c38611986565b6000828152600160208181526040928390208351610160810190945280546001600160a01b03168452918201805491840191610c7390611f3d565b80601f0160208091040260200160405190810160405280929190818152602001828054610c9f90611f3d565b8015610cec5780601f10610cc157610100808354040283529160200191610cec565b820191906000526020600020905b815481529060010190602001808311610ccf57829003601f168201915b50505050508152602001600282018054610d0590611f3d565b80601f0160208091040260200160405190810160405280929190818152602001828054610d3190611f3d565b8015610d7e5780601f10610d5357610100808354040283529160200191610d7e565b820191906000526020600020905b815481529060010190602001808311610d6157829003601f168201915b50505091835250506003820154602082015260048083015460408301526005830154606083015260068301546080830152600783015460a09092019160ff1690811115610dcd57610dcd611c81565b6004811115610dde57610dde611c81565b81526008820154602082015260098201546040820152600a9091015460ff16151560609091015292915050565b6000610e156116d9565b6001600160a01b03166314afd79e336040518263ffffffff1660e01b8152600401610e409190611a11565b60206040518083038186803b158015610e5857600080fd5b505afa158015610e6c573d6000803e3d6000fd5b505050506040513d601f19601f82011682018060405250810190610e909190611efa565b6001600160a01b03161415610eb75760405162461bcd60e51b81526004016104dd90611f1e565b600281604051610ec79190611f78565b9081526040519081900360200190205460ff1615610f0f5760405162461bcd60e51b815260206004820152600560248201526404b443130360dc1b60448201526064016104dd565b6001600282604051610f219190611f78565b908152604051908190036020019020805491151560ff19909216919091179055610f496116e3565b6001600160a01b03166378689c64826040518263ffffffff1660e01b8152600401610f749190612054565b600060405180830381600087803b158015610f8e57600080fd5b505af1158015610fa2573d6000803e3d6000fd5b5050505050565b60008054604051651059141bdbdb60d21b60208201526001600160a01b0390911690638eaa6ac090602601610333565b6060600382604051610feb9190611f78565b908152604080519182900360209081018320805480830285018301909352828452919083018282801561103d57602002820191906000526020600020905b815481526020019060010190808311611029575b50505050509050919050565b60009081526001602052604090206005015490565b600080546040516d50726f706f73616c52657669657760901b60208201526001600160a01b0390911690638eaa6ac090602e01610333565b6000806110a16116d9565b6001600160a01b03166314afd79e336040518263ffffffff1660e01b81526004016110cc9190611a11565b60206040518083038186803b1580156110e457600080fd5b505afa1580156110f8573d6000803e3d6000fd5b505050506040513d601f19601f8201168201806040525081019061111c9190611efa565b6001600160a01b031614156111435760405162461bcd60e51b81526004016104dd90611f1e565b42861161117a5760405162461bcd60e51b81526020600482015260056024820152644b4431313160d81b60448201526064016104dd565b8486106111b15760405162461bcd60e51b815260206004820152600560248201526425a218989960d91b60448201526064016104dd565b8385106111e85760405162461bcd60e51b81526020600482015260056024820152644b4431313360d81b60448201526064016104dd565b6111f18861188c565b6111fc8886866116ed565b6040516303fb4aab60e41b8152739F397D94EC32D43EeC60dCF9A38a44322D54d42A90633fb4aab090611237908b9089908990600401612067565b60206040518083038186803b15801561124f57600080fd5b505af4158015611263573d6000803e3d6000fd5b505050506040513d601f19601f82011682018060405250810190611287919061208c565b905060006040518061016001604052808b6001600160a01b031681526020018a81526020018981526020016112b94290565b81526020018881526020018781526020018681526020018560048111156112e2576112e2611c81565b8152602081018590526000604080830182905260609092015251634a8f3f1960e01b815290915073Aa613b8D5DCb0071C52C336adb9F99154421039a90634a8f3f1990611333908490600401611cb9565b60206040518083038186803b15801561134b57600080fd5b505af415801561135f573d6000803e3d6000fd5b505050506040513d601f19601f82011682018060405250810190611383919061208c565b6101208201526000828152600160208181526040909220835181546001600160a01b0319166001600160a01b03909116178155828401518051859492936113cf93908501920190611902565b50604082015180516113eb916002840191602090910190611902565b50606082015181600301556080820151816004015560a0820151816005015560c0820151816006015560e08201518160070160006101000a81548160ff0219169083600481111561143e5761143e611c81565b02179055506101008201516008820155610120820151600982015561014090910151600a909101805460ff1916911515919091179055604051600390611485908b90611f78565b9081526040516020918190038201902080546001810182556000918252919020018290556114b16116e3565b6001600160a01b0316637bab635a838b8b428c8c8c8c8c6040518a63ffffffff1660e01b81526004016114ec999897969594939291906120a5565b600060405180830381600087803b15801561150657600080fd5b505af115801561151a573d6000803e3d6000fd5b505050505098975050505050505050565b6001602081905260009182526040909120805491810180546001600160a01b039093169261155890611f3d565b80601f016020809104026020016040519081016040528092919081815260200182805461158490611f3d565b80156115d15780601f106115a6576101008083540402835291602001916115d1565b820191906000526020600020905b8154815290600101906020018083116115b457829003601f168201915b5050505050908060020180546115e690611f3d565b80601f016020809104026020016040519081016040528092919081815260200182805461161290611f3d565b801561165f5780601f106116345761010080835404028352916020019161165f565b820191906000526020600020905b81548152906001019060200180831161164257829003601f168201915b50505060038401546004850154600586015460068701546007880154600889015460098a0154600a909a015498999598949750929550909360ff918216939091168b565b600080546040516b22bb32b73a22b6b4ba3a32b960a11b60208201526001600160a01b0390911690638eaa6ac090602c01610333565b60006103b7610796565b60006103b76116a3565b60005b6003846040516117009190611f78565b9081526040519081900360200190205481101561188657600061175b60038660405161172c9190611f78565b9081526020016040518091039020838154811061174b5761174b611fd9565b9060005260206000200154611049565b905060006117a16003876040516117729190611f78565b9081526020016040518091039020848154811061179157611791611fd9565b90600052602060002001546103ed565b60405163465a269f60e11b81526004810187905260248101869052604481018490526064810182905290915073582aB363e3E34d563B537CD247E48e772EE6bb8290638cb44d3e9060840160206040518083038186803b15801561180457600080fd5b505af4158015611818573d6000803e3d6000fd5b505050506040513d601f19601f8201168201806040525081019061183c9190612110565b156118715760405162461bcd60e51b815260206004820152600560248201526404b443131360dc1b60448201526064016104dd565b5050808061187e90611fef565b9150506116f0565b50505050565b60028160405161189c9190611f78565b9081526040519081900360200190205460ff166118c5576001600282604051610f219190611f78565b50565b5080546118d490611f3d565b6000825580601f106118e4575050565b601f0160209004906000526020600020908101906118c591906119fc565b82805461190e90611f3d565b90600052602060002090601f0160209004810192826119305760008555611976565b82601f1061194957805160ff1916838001178555611976565b82800160010185558215611976579182015b8281111561197657825182559160200191906001019061195b565b506119829291506119fc565b5090565b60405180610160016040528060006001600160a01b03168152602001606081526020016060815260200160008152602001600081526020016000815260200160008152602001600060048111156119df576119df611c81565b815260200160008152602001600081526020016000151581525090565b5b8082111561198257600081556001016119fd565b6001600160a01b0391909116815260200190565b600060208284031215611a3757600080fd5b5035919050565b634e487b7160e01b600052604160045260246000fd5b60405160a081016001600160401b0381118282101715611a7657611a76611a3e565b60405290565b600082601f830112611a8d57600080fd5b81356001600160401b0380821115611aa757611aa7611a3e565b604051601f8301601f19908116603f01168101908282118183101715611acf57611acf611a3e565b81604052838152866020858801011115611ae857600080fd5b836020870160208301376000602085830101528094505050505092915050565b600060208284031215611b1a57600080fd5b81356001600160401b03811115611b3057600080fd5b611b3c84828501611a7c565b949350505050565b6001600160a01b03811681146118c557600080fd5b600080600060608486031215611b6e57600080fd5b8335925060208401356001600160401b0380821115611b8c57600080fd5b611b9887838801611a7c565b93506040860135915080821115611bae57600080fd5b9085019060a08288031215611bc257600080fd5b611bca611a54565b823582811115611bd957600080fd5b611be589828601611a7c565b825250602083013560208201526040830135604082015260608301359150611c0c82611b44565b816060820152608083013560808201528093505050509250925092565b60005b83811015611c44578181015183820152602001611c2c565b838111156118865750506000910152565b60008151808452611c6d816020860160208601611c29565b601f01601f19169290920160200192915050565b634e487b7160e01b600052602160045260246000fd5b60058110611cb557634e487b7160e01b600052602160045260246000fd5b9052565b60208152611cd36020820183516001600160a01b03169052565b60006020830151610160806040850152611cf1610180850183611c55565b91506040850151601f19858403016060860152611d0e8382611c55565b92505060608501516080850152608085015160a085015260a085015160c085015260c085015160e085015260e0850151610100611d4d81870183611c97565b860151610120868101919091528601516101408087019190915290950151151593019290925250919050565b6020808252825182820181905260009190848201906040850190845b81811015611db157835183529284019291840191600101611d95565b50909695505050505050565b600080600080600080600080610100898b031215611dda57600080fd5b8835611de581611b44565b975060208901356001600160401b0380821115611e0157600080fd5b611e0d8c838d01611a7c565b985060408b0135915080821115611e2357600080fd5b50611e308b828c01611a7c565b965050606089013594506080890135935060a0890135925060c089013560058110611e5a57600080fd5b8092505060e089013590509295985092959890939650565b6001600160a01b038c16815261016060208201819052600090611e978382018e611c55565b90508281036040840152611eab818d611c55565b9150508960608301528860808301528760a08301528660c0830152611ed360e0830187611c97565b84610100830152836101208301528215156101408301529c9b505050505050505050505050565b600060208284031215611f0c57600080fd5b8151611f1781611b44565b9392505050565b6020808252600590820152644b4430313160d81b604082015260600190565b600181811c90821680611f5157607f821691505b60208210811415611f7257634e487b7160e01b600052602260045260246000fd5b50919050565b60008251611f8a818460208701611c29565b9190910192915050565b634e487b7160e01b600052601160045260246000fd5b60008219821115611fbd57611fbd611f94565b500190565b600082821015611fd457611fd4611f94565b500390565b634e487b7160e01b600052603260045260246000fd5b600060001982141561200357612003611f94565b5060010190565b86815260c06020820152600061202360c0830188611c55565b82810360408401526120358188611c55565b60608401969096525050608081019290925260a0909101529392505050565b602081526000611f176020830184611c55565b60608152600061207a6060830186611c55565b60208301949094525060400152919050565b60006020828403121561209e57600080fd5b5051919050565b60006101208b83528060208401526120bf8184018c611c55565b905082810360408401526120d3818b611c55565b9150508760608301528660808301528560a08301528460c08301526120fb60e0830185611c97565b826101008301529a9950505050505050505050565b60006020828403121561212257600080fd5b81518015158114611f1757600080fdfea2646970667358221220f8683f97de06356b58508a7c7a66bb95eba4960f414dc5cbed8d0a56b08c6bd964736f6c63430008090033",
  "deployedBytecode": "0x608060405234801561001057600080fd5b506004361061011d5760003560e01c80630106d8eb1461012257806310335241146101405780632231c1eb1461016957806327b7a2f5146101715780632874d8f314610182578063430bf08a146101a35780634b455a51146101ab57806365045a65146101c05780636a58767e146101fe5780637cf175fb146102065780638da5cb5b1461020e5780638f6059d6146102165780639c03facb1461021e578063a9ad60f314610231578063b3a0ebc914610244578063b8926f2c14610264578063c9cd71b514610277578063d028bd661461027f578063d3c1277e1461029f578063e2f5fc78146102b2578063e6851b98146102ba578063ea4a1104146102cd578063f0726291146102f7575b600080fd5b61012a6102ff565b6040516101379190611a11565b60405180910390f35b61012a61014e366004611a25565b6000908152600160205260409020546001600160a01b031690565b61012a6103bc565b6000546001600160a01b031661012a565b610195610190366004611a25565b6103ed565b604051908152602001610137565b61012a610402565b6101be6101b9366004611a25565b610431565b005b6101ee6101ce366004611b08565b805160208183018101805160028252928201919093012091525460ff1681565b6040519015158152602001610137565b61012a610796565b61012a6107cd565b61012a6107ff565b61012a61084e565b6101be61022c366004611a25565b610884565b6101be61023f366004611b59565b610951565b610257610252366004611a25565b610c30565b6040516101379190611cb9565b6101be610272366004611b08565b610e0b565b61012a610fa9565b61029261028d366004611b08565b610fd9565b6040516101379190611d79565b6101956102ad366004611a25565b611049565b61012a61105e565b6101956102c8366004611dbd565b611096565b6102e06102db366004611a25565b61152b565b6040516101379b9a99989796959493929190611e72565b61012a6116a3565b600080546040516d22b733b634b9b420bab1ba34b7b760911b60208201526001600160a01b0390911690638eaa6ac090602e015b604051602081830303815290604052805190602001206040518263ffffffff1660e01b815260040161036791815260200190565b60206040518083038186803b15801561037f57600080fd5b505afa158015610393573d6000803e3d6000fd5b505050506040513d601f19601f820116820180604052508101906103b79190611efa565b905090565b600080546040516613dc195b909a5960ca1b60208201526001600160a01b0390911690638eaa6ac090602701610333565b60009081526001602052604090206006015490565b600080546040516415985d5b1d60da1b60208201526001600160a01b0390911690638eaa6ac090602501610333565b600061043b6116d9565b6001600160a01b03166314afd79e336040518263ffffffff1660e01b81526004016104669190611a11565b60206040518083038186803b15801561047e57600080fd5b505afa158015610492573d6000803e3d6000fd5b505050506040513d601f19601f820116820180604052508101906104b69190611efa565b6001600160a01b031614156104e65760405162461bcd60e51b81526004016104dd90611f1e565b60405180910390fd5b6000818152600160208190526040822001805461050290611f3d565b80601f016020809104026020016040519081016040528092919081815260200182805461052e90611f3d565b801561057b5780601f106105505761010080835404028352916020019161057b565b820191906000526020600020905b81548152906001019060200180831161055e57829003601f168201915b50505050509050600080600190505b60038360405161059a9190611f78565b908152604051908190036020019020546105b5906001611faa565b81101561061e57836003846040516105cd9190611f78565b9081526040519081900360200190206105e7600184611fc2565b815481106105f7576105f7611fd9565b9060005260206000200154141561060c578091505b8061061681611fef565b91505061058a565b50806106605760405162461bcd60e51b81526020600482015260116024820152704e6f2064656c657461626c65206b65797360781b60448201526064016104dd565b6003826040516106709190611f78565b90815260405190819003602001902061068a600183611fc2565b8154811061069a5761069a611fd9565b600091825260208083209091018290558482526001908190526040822080546001600160a01b031916815591906106d3908301826118c8565b6106e16002830160006118c8565b5060006003820181905560048201819055600582018190556006820181905560078201805460ff19908116909155600883018290556009830191909155600a909101805490911690556107326116e3565b6001600160a01b031663ccb55a98846040518263ffffffff1660e01b815260040161075f91815260200190565b600060405180830381600087803b15801561077957600080fd5b505af115801561078d573d6000803e3d6000fd5b50505050505050565b600080546040516c4d65646961526567697374727960981b60208201526001600160a01b0390911690638eaa6ac090602d01610333565b600080546040516713d999995c909a5960c21b60208201526001600160a01b0390911690638eaa6ac090602801610333565b60008060009054906101000a90046001600160a01b03166001600160a01b031663d5f394886040518163ffffffff1660e01b815260040160206040518083038186803b15801561037f57600080fd5b600080546040516b4d65646961466163746f727960a01b60208201526001600160a01b0390911690638eaa6ac090602c01610333565b600061088e6116d9565b6001600160a01b03166314afd79e336040518263ffffffff1660e01b81526004016108b99190611a11565b60206040518083038186803b1580156108d157600080fd5b505afa1580156108e5573d6000803e3d6000fd5b505050506040513d601f19601f820116820180604052508101906109099190611efa565b6001600160a01b031614156109305760405162461bcd60e51b81526004016104dd90611f1e565b6000908152600160208190526040909120600a01805460ff19169091179055565b600061095b6116d9565b6001600160a01b03166314afd79e336040518263ffffffff1660e01b81526004016109869190611a11565b60206040518083038186803b15801561099e57600080fd5b505afa1580156109b2573d6000803e3d6000fd5b505050506040513d601f19601f820116820180604052508101906109d69190611efa565b6001600160a01b031614156109fd5760405162461bcd60e51b81526004016104dd90611f1e565b610a148160000151826020015183604001516116ed565b600060405180610160016040528083606001516001600160a01b0316815260200183600001518152602001848152602001610a4c4290565b815260200142815260208481015181830152604080860151818401526003606084015260808087018051918501919091525160a0840152600160c0909301839052600088815283835220835181546001600160a01b039091166001600160a01b031990911617815583820151805194955085949193610ad19390850192910190611902565b5060408201518051610aed916002840191602090910190611902565b50606082015181600301556080820151816004015560a0820151816005015560c0820151816006015560e08201518160070160006101000a81548160ff02191690836004811115610b4057610b40611c81565b02179055506101008201516008820155610120820151600982015561014090910151600a909101805460ff19169115159190911790558151604051600391610b8791611f78565b908152604051602091819003820190208054600181018255600091825291902001849055610bb36116e3565b6001600160a01b0316630ca82afb858460000151868660200151876040015188608001516040518763ffffffff1660e01b8152600401610bf89695949392919061200a565b600060405180830381600087803b158015610c1257600080fd5b505af1158015610c26573d6000803e3d6000fd5b5050505050505050565b610c38611986565b6000828152600160208181526040928390208351610160810190945280546001600160a01b03168452918201805491840191610c7390611f3d565b80601f0160208091040260200160405190810160405280929190818152602001828054610c9f90611f3d565b8015610cec5780601f10610cc157610100808354040283529160200191610cec565b820191906000526020600020905b815481529060010190602001808311610ccf57829003601f168201915b50505050508152602001600282018054610d0590611f3d565b80601f0160208091040260200160405190810160405280929190818152602001828054610d3190611f3d565b8015610d7e5780601f10610d5357610100808354040283529160200191610d7e565b820191906000526020600020905b815481529060010190602001808311610d6157829003601f168201915b50505091835250506003820154602082015260048083015460408301526005830154606083015260068301546080830152600783015460a09092019160ff1690811115610dcd57610dcd611c81565b6004811115610dde57610dde611c81565b81526008820154602082015260098201546040820152600a9091015460ff16151560609091015292915050565b6000610e156116d9565b6001600160a01b03166314afd79e336040518263ffffffff1660e01b8152600401610e409190611a11565b60206040518083038186803b158015610e5857600080fd5b505afa158015610e6c573d6000803e3d6000fd5b505050506040513d601f19601f82011682018060405250810190610e909190611efa565b6001600160a01b03161415610eb75760405162461bcd60e51b81526004016104dd90611f1e565b600281604051610ec79190611f78565b9081526040519081900360200190205460ff1615610f0f5760405162461bcd60e51b815260206004820152600560248201526404b443130360dc1b60448201526064016104dd565b6001600282604051610f219190611f78565b908152604051908190036020019020805491151560ff19909216919091179055610f496116e3565b6001600160a01b03166378689c64826040518263ffffffff1660e01b8152600401610f749190612054565b600060405180830381600087803b158015610f8e57600080fd5b505af1158015610fa2573d6000803e3d6000fd5b5050505050565b60008054604051651059141bdbdb60d21b60208201526001600160a01b0390911690638eaa6ac090602601610333565b6060600382604051610feb9190611f78565b908152604080519182900360209081018320805480830285018301909352828452919083018282801561103d57602002820191906000526020600020905b815481526020019060010190808311611029575b50505050509050919050565b60009081526001602052604090206005015490565b600080546040516d50726f706f73616c52657669657760901b60208201526001600160a01b0390911690638eaa6ac090602e01610333565b6000806110a16116d9565b6001600160a01b03166314afd79e336040518263ffffffff1660e01b81526004016110cc9190611a11565b60206040518083038186803b1580156110e457600080fd5b505afa1580156110f8573d6000803e3d6000fd5b505050506040513d601f19601f8201168201806040525081019061111c9190611efa565b6001600160a01b031614156111435760405162461bcd60e51b81526004016104dd90611f1e565b42861161117a5760405162461bcd60e51b81526020600482015260056024820152644b4431313160d81b60448201526064016104dd565b8486106111b15760405162461bcd60e51b815260206004820152600560248201526425a218989960d91b60448201526064016104dd565b8385106111e85760405162461bcd60e51b81526020600482015260056024820152644b4431313360d81b60448201526064016104dd565b6111f18861188c565b6111fc8886866116ed565b6040516303fb4aab60e41b815273__$a79fa16630ef50be54c6520a39abca49df$__90633fb4aab090611237908b9089908990600401612067565b60206040518083038186803b15801561124f57600080fd5b505af4158015611263573d6000803e3d6000fd5b505050506040513d601f19601f82011682018060405250810190611287919061208c565b905060006040518061016001604052808b6001600160a01b031681526020018a81526020018981526020016112b94290565b81526020018881526020018781526020018681526020018560048111156112e2576112e2611c81565b8152602081018590526000604080830182905260609092015251634a8f3f1960e01b815290915073__$388ad09e564d78c8f313b1396af8a4a6a6$__90634a8f3f1990611333908490600401611cb9565b60206040518083038186803b15801561134b57600080fd5b505af415801561135f573d6000803e3d6000fd5b505050506040513d601f19601f82011682018060405250810190611383919061208c565b6101208201526000828152600160208181526040909220835181546001600160a01b0319166001600160a01b03909116178155828401518051859492936113cf93908501920190611902565b50604082015180516113eb916002840191602090910190611902565b50606082015181600301556080820151816004015560a0820151816005015560c0820151816006015560e08201518160070160006101000a81548160ff0219169083600481111561143e5761143e611c81565b02179055506101008201516008820155610120820151600982015561014090910151600a909101805460ff1916911515919091179055604051600390611485908b90611f78565b9081526040516020918190038201902080546001810182556000918252919020018290556114b16116e3565b6001600160a01b0316637bab635a838b8b428c8c8c8c8c6040518a63ffffffff1660e01b81526004016114ec999897969594939291906120a5565b600060405180830381600087803b15801561150657600080fd5b505af115801561151a573d6000803e3d6000fd5b505050505098975050505050505050565b6001602081905260009182526040909120805491810180546001600160a01b039093169261155890611f3d565b80601f016020809104026020016040519081016040528092919081815260200182805461158490611f3d565b80156115d15780601f106115a6576101008083540402835291602001916115d1565b820191906000526020600020905b8154815290600101906020018083116115b457829003601f168201915b5050505050908060020180546115e690611f3d565b80601f016020809104026020016040519081016040528092919081815260200182805461161290611f3d565b801561165f5780601f106116345761010080835404028352916020019161165f565b820191906000526020600020905b81548152906001019060200180831161164257829003601f168201915b50505060038401546004850154600586015460068701546007880154600889015460098a0154600a909a015498999598949750929550909360ff918216939091168b565b600080546040516b22bb32b73a22b6b4ba3a32b960a11b60208201526001600160a01b0390911690638eaa6ac090602c01610333565b60006103b7610796565b60006103b76116a3565b60005b6003846040516117009190611f78565b9081526040519081900360200190205481101561188657600061175b60038660405161172c9190611f78565b9081526020016040518091039020838154811061174b5761174b611fd9565b9060005260206000200154611049565b905060006117a16003876040516117729190611f78565b9081526020016040518091039020848154811061179157611791611fd9565b90600052602060002001546103ed565b60405163465a269f60e11b81526004810187905260248101869052604481018490526064810182905290915073__$07208da1966d569b755f74076ac36b126b$__90638cb44d3e9060840160206040518083038186803b15801561180457600080fd5b505af4158015611818573d6000803e3d6000fd5b505050506040513d601f19601f8201168201806040525081019061183c9190612110565b156118715760405162461bcd60e51b815260206004820152600560248201526404b443131360dc1b60448201526064016104dd565b5050808061187e90611fef565b9150506116f0565b50505050565b60028160405161189c9190611f78565b9081526040519081900360200190205460ff166118c5576001600282604051610f219190611f78565b50565b5080546118d490611f3d565b6000825580601f106118e4575050565b601f0160209004906000526020600020908101906118c591906119fc565b82805461190e90611f3d565b90600052602060002090601f0160209004810192826119305760008555611976565b82601f1061194957805160ff1916838001178555611976565b82800160010185558215611976579182015b8281111561197657825182559160200191906001019061195b565b506119829291506119fc565b5090565b60405180610160016040528060006001600160a01b03168152602001606081526020016060815260200160008152602001600081526020016000815260200160008152602001600060048111156119df576119df611c81565b815260200160008152602001600081526020016000151581525090565b5b8082111561198257600081556001016119fd565b6001600160a01b0391909116815260200190565b600060208284031215611a3757600080fd5b5035919050565b634e487b7160e01b600052604160045260246000fd5b60405160a081016001600160401b0381118282101715611a7657611a76611a3e565b60405290565b600082601f830112611a8d57600080fd5b81356001600160401b0380821115611aa757611aa7611a3e565b604051601f8301601f19908116603f01168101908282118183101715611acf57611acf611a3e565b81604052838152866020858801011115611ae857600080fd5b836020870160208301376000602085830101528094505050505092915050565b600060208284031215611b1a57600080fd5b81356001600160401b03811115611b3057600080fd5b611b3c84828501611a7c565b949350505050565b6001600160a01b03811681146118c557600080fd5b600080600060608486031215611b6e57600080fd5b8335925060208401356001600160401b0380821115611b8c57600080fd5b611b9887838801611a7c565b93506040860135915080821115611bae57600080fd5b9085019060a08288031215611bc257600080fd5b611bca611a54565b823582811115611bd957600080fd5b611be589828601611a7c565b825250602083013560208201526040830135604082015260608301359150611c0c82611b44565b816060820152608083013560808201528093505050509250925092565b60005b83811015611c44578181015183820152602001611c2c565b838111156118865750506000910152565b60008151808452611c6d816020860160208601611c29565b601f01601f19169290920160200192915050565b634e487b7160e01b600052602160045260246000fd5b60058110611cb557634e487b7160e01b600052602160045260246000fd5b9052565b60208152611cd36020820183516001600160a01b03169052565b60006020830151610160806040850152611cf1610180850183611c55565b91506040850151601f19858403016060860152611d0e8382611c55565b92505060608501516080850152608085015160a085015260a085015160c085015260c085015160e085015260e0850151610100611d4d81870183611c97565b860151610120868101919091528601516101408087019190915290950151151593019290925250919050565b6020808252825182820181905260009190848201906040850190845b81811015611db157835183529284019291840191600101611d95565b50909695505050505050565b600080600080600080600080610100898b031215611dda57600080fd5b8835611de581611b44565b975060208901356001600160401b0380821115611e0157600080fd5b611e0d8c838d01611a7c565b985060408b0135915080821115611e2357600080fd5b50611e308b828c01611a7c565b965050606089013594506080890135935060a0890135925060c089013560058110611e5a57600080fd5b8092505060e089013590509295985092959890939650565b6001600160a01b038c16815261016060208201819052600090611e978382018e611c55565b90508281036040840152611eab818d611c55565b9150508960608301528860808301528760a08301528660c0830152611ed360e0830187611c97565b84610100830152836101208301528215156101408301529c9b505050505050505050505050565b600060208284031215611f0c57600080fd5b8151611f1781611b44565b9392505050565b6020808252600590820152644b4430313160d81b604082015260600190565b600181811c90821680611f5157607f821691505b60208210811415611f7257634e487b7160e01b600052602260045260246000fd5b50919050565b60008251611f8a818460208701611c29565b9190910192915050565b634e487b7160e01b600052601160045260246000fd5b60008219821115611fbd57611fbd611f94565b500190565b600082821015611fd457611fd4611f94565b500390565b634e487b7160e01b600052603260045260246000fd5b600060001982141561200357612003611f94565b5060010190565b86815260c06020820152600061202360c0830188611c55565b82810360408401526120358188611c55565b60608401969096525050608081019290925260a0909101529392505050565b602081526000611f176020830184611c55565b60608152600061207a6060830186611c55565b60208301949094525060400152919050565b60006020828403121561209e57600080fd5b5051919050565b60006101208b83528060208401526120bf8184018c611c55565b905082810360408401526120d3818b611c55565b9150508760608301528660808301528560a08301528460c08301526120fb60e0830185611c97565b826101008301529a9950505050505050505050565b60006020828403121561212257600080fd5b81518015158114611f1757600080fdfea2646970667358221220f8683f97de06356b58508a7c7a66bb95eba4960f414dc5cbed8d0a56b08c6bd964736f6c63430008090033",
  "libraries": {
    "Ad": "0x9F397D94EC32D43EeC60dCF9A38a44322D54d42A",
    "Schedule": "0x582aB363e3E34d563B537CD247E48e772EE6bb82",
    "Sale": "0xAa613b8D5DCb0071C52C336adb9F99154421039a"
  },
  "devdoc": {
    "author": "Shumpei Koike - <shumpei.koike@bridges.inc>",
    "kind": "dev",
    "methods": {
      "adPoolAddress()": {
        "details": "Gets the address of AdPool."
      },
      "englishAuctionAddress()": {
        "details": "Gets the address of EnglishAuction."
      },
      "eventEmitterAddress()": {
        "details": "Gets the address of EventEmitter."
      },
      "mediaFactoryAddress()": {
        "details": "Gets the address of MediaFactory."
      },
      "mediaRegistryAddress()": {
        "details": "Gets the address of MediaRegistry."
      },
      "nameRegistryAddress()": {
        "details": "Gets the address of NameRegistry"
      },
      "offerBidAddress()": {
        "details": "Gets the address of OfferBid."
      },
      "openBidAddress()": {
        "details": "Gets the address of OpenBid."
      },
      "owner()": {
        "details": "Gets the owner address."
      },
      "proposalReviewAddress()": {
        "details": "Gets the address of ProposalReview."
      },
      "tokenIdsOf(string)": {
        "details": "Returns tokenIds tied with the space metadata",
        "params": {
          "spaceMetadata": "string of the space metadata"
        }
      },
      "vaultAddress()": {
        "details": "Gets the address of Vault."
      }
    },
    "stateVariables": {
      "_periodKeys": {
        "details": "Maps the space metadata with tokenIds of ad periods."
      },
      "periods": {
        "details": "tokenId <- metadata * displayStartTimestamp * displayEndTimestamp"
      },
      "spaced": {
        "details": "Returns spaceId that is tied with space metadata."
      }
    },
    "title": "AdPool - stores all ads accorss every space.",
    "version": 1
  },
  "userdoc": {
    "kind": "user",
    "methods": {},
    "version": 1
  },
  "storageLayout": {
    "storage": [
      {
        "astId": 2345,
        "contract": "contracts/peripheries/AdPool.sol:AdPool",
        "label": "_nameRegistry",
        "offset": 0,
        "slot": "0",
        "type": "t_contract(INameRegistry)4466"
      },
      {
        "astId": 5189,
        "contract": "contracts/peripheries/AdPool.sol:AdPool",
        "label": "periods",
        "offset": 0,
        "slot": "1",
        "type": "t_mapping(t_uint256,t_struct(Period)4646_storage)"
      },
      {
        "astId": 5194,
        "contract": "contracts/peripheries/AdPool.sol:AdPool",
        "label": "spaced",
        "offset": 0,
        "slot": "2",
        "type": "t_mapping(t_string_memory_ptr,t_bool)"
      },
      {
        "astId": 5200,
        "contract": "contracts/peripheries/AdPool.sol:AdPool",
        "label": "_periodKeys",
        "offset": 0,
        "slot": "3",
        "type": "t_mapping(t_string_memory_ptr,t_array(t_uint256)dyn_storage)"
      }
    ],
    "types": {
      "t_address": {
        "encoding": "inplace",
        "label": "address",
        "numberOfBytes": "20"
      },
      "t_array(t_uint256)dyn_storage": {
        "base": "t_uint256",
        "encoding": "dynamic_array",
        "label": "uint256[]",
        "numberOfBytes": "32"
      },
      "t_bool": {
        "encoding": "inplace",
        "label": "bool",
        "numberOfBytes": "1"
      },
      "t_contract(INameRegistry)4466": {
        "encoding": "inplace",
        "label": "contract INameRegistry",
        "numberOfBytes": "20"
      },
      "t_enum(Pricing)4622": {
        "encoding": "inplace",
        "label": "enum Ad.Pricing",
        "numberOfBytes": "1"
      },
      "t_mapping(t_string_memory_ptr,t_array(t_uint256)dyn_storage)": {
        "encoding": "mapping",
        "key": "t_string_memory_ptr",
        "label": "mapping(string => uint256[])",
        "numberOfBytes": "32",
        "value": "t_array(t_uint256)dyn_storage"
      },
      "t_mapping(t_string_memory_ptr,t_bool)": {
        "encoding": "mapping",
        "key": "t_string_memory_ptr",
        "label": "mapping(string => bool)",
        "numberOfBytes": "32",
        "value": "t_bool"
      },
      "t_mapping(t_uint256,t_struct(Period)4646_storage)": {
        "encoding": "mapping",
        "key": "t_uint256",
        "label": "mapping(uint256 => struct Ad.Period)",
        "numberOfBytes": "32",
        "value": "t_struct(Period)4646_storage"
      },
      "t_string_memory_ptr": {
        "encoding": "bytes",
        "label": "string",
        "numberOfBytes": "32"
      },
      "t_string_storage": {
        "encoding": "bytes",
        "label": "string",
        "numberOfBytes": "32"
      },
      "t_struct(Period)4646_storage": {
        "encoding": "inplace",
        "label": "struct Ad.Period",
        "members": [
          {
            "astId": 4624,
            "contract": "contracts/peripheries/AdPool.sol:AdPool",
            "label": "mediaProxy",
            "offset": 0,
            "slot": "0",
            "type": "t_address"
          },
          {
            "astId": 4626,
            "contract": "contracts/peripheries/AdPool.sol:AdPool",
            "label": "spaceMetadata",
            "offset": 0,
            "slot": "1",
            "type": "t_string_storage"
          },
          {
            "astId": 4628,
            "contract": "contracts/peripheries/AdPool.sol:AdPool",
            "label": "tokenMetadata",
            "offset": 0,
            "slot": "2",
            "type": "t_string_storage"
          },
          {
            "astId": 4630,
            "contract": "contracts/peripheries/AdPool.sol:AdPool",
            "label": "saleStartTimestamp",
            "offset": 0,
            "slot": "3",
            "type": "t_uint256"
          },
          {
            "astId": 4632,
            "contract": "contracts/peripheries/AdPool.sol:AdPool",
            "label": "saleEndTimestamp",
            "offset": 0,
            "slot": "4",
            "type": "t_uint256"
          },
          {
            "astId": 4634,
            "contract": "contracts/peripheries/AdPool.sol:AdPool",
            "label": "displayStartTimestamp",
            "offset": 0,
            "slot": "5",
            "type": "t_uint256"
          },
          {
            "astId": 4636,
            "contract": "contracts/peripheries/AdPool.sol:AdPool",
            "label": "displayEndTimestamp",
            "offset": 0,
            "slot": "6",
            "type": "t_uint256"
          },
          {
            "astId": 4639,
            "contract": "contracts/peripheries/AdPool.sol:AdPool",
            "label": "pricing",
            "offset": 0,
            "slot": "7",
            "type": "t_enum(Pricing)4622"
          },
          {
            "astId": 4641,
            "contract": "contracts/peripheries/AdPool.sol:AdPool",
            "label": "minPrice",
            "offset": 0,
            "slot": "8",
            "type": "t_uint256"
          },
          {
            "astId": 4643,
            "contract": "contracts/peripheries/AdPool.sol:AdPool",
            "label": "startPrice",
            "offset": 0,
            "slot": "9",
            "type": "t_uint256"
          },
          {
            "astId": 4645,
            "contract": "contracts/peripheries/AdPool.sol:AdPool",
            "label": "sold",
            "offset": 0,
            "slot": "10",
            "type": "t_bool"
          }
        ],
        "numberOfBytes": "352"
      },
      "t_uint256": {
        "encoding": "inplace",
        "label": "uint256",
        "numberOfBytes": "32"
      }
    }
  }
}