{
  "address": "0x41da9C7dF05c7E89463510f59F4B30348f7021D5",
  "abi": [
    {
      "inputs": [
        {
          "internalType": "address",
          "name": "nameRegistry",
          "type": "address"
        }
      ],
      "stateMutability": "nonpayable",
      "type": "constructor"
    },
    {
      "anonymous": false,
      "inputs": [
        {
          "indexed": false,
          "internalType": "address",
          "name": "",
          "type": "address"
        },
        {
          "indexed": false,
          "internalType": "uint256",
          "name": "",
          "type": "uint256"
        }
      ],
      "name": "Received",
      "type": "event"
    },
    {
      "inputs": [],
      "name": "adPoolAddress",
      "outputs": [
        {
          "internalType": "address",
          "name": "",
          "type": "address"
        }
      ],
      "stateMutability": "view",
      "type": "function"
    },
    {
      "inputs": [],
      "name": "distributionRightAddress",
      "outputs": [
        {
          "internalType": "address",
          "name": "",
          "type": "address"
        }
      ],
      "stateMutability": "view",
      "type": "function"
    },
    {
      "inputs": [],
      "name": "nameRegistryAddress",
      "outputs": [
        {
          "internalType": "address",
          "name": "",
          "type": "address"
        }
      ],
      "stateMutability": "view",
      "type": "function"
    },
    {
      "inputs": [],
      "name": "owner",
      "outputs": [
        {
          "internalType": "address",
          "name": "",
          "type": "address"
        }
      ],
      "stateMutability": "view",
      "type": "function"
    },
    {
      "inputs": [],
      "name": "postOwnerPoolAddress",
      "outputs": [
        {
          "internalType": "address",
          "name": "",
          "type": "address"
        }
      ],
      "stateMutability": "view",
      "type": "function"
    },
    {
      "inputs": [
        {
          "internalType": "address",
          "name": "sender",
          "type": "address"
        },
        {
          "internalType": "uint256",
          "name": "amount",
          "type": "uint256"
        }
      ],
      "name": "receivePooledAmount",
      "outputs": [],
      "stateMutability": "nonpayable",
      "type": "function"
    },
    {
      "inputs": [],
      "name": "reservedRightAddress",
      "outputs": [
        {
          "internalType": "address",
          "name": "",
          "type": "address"
        }
      ],
      "stateMutability": "view",
      "type": "function"
    },
    {
      "inputs": [],
      "name": "vaultAddress",
      "outputs": [
        {
          "internalType": "address",
          "name": "",
          "type": "address"
        }
      ],
      "stateMutability": "view",
      "type": "function"
    },
    {
      "stateMutability": "payable",
      "type": "receive"
    }
  ],
  "transactionHash": "0x33be1d0b5fade19a233e2e1a99c163a23ac8f80417b39d5c02b7c5b64e37bf24",
  "args": [
    "0x5EBA2dD6C26Dae8e733D55e4DC6D5B6EEBFa8F20"
  ],
  "solcInputHash": "19216fe1aa042e94a1a5c454afe04ebc",
  "bytecode": "0x608060405234801561001057600080fd5b5060405161065c38038061065c83398101604081905261002f91610054565b600080546001600160a01b0319166001600160a01b0392909216919091179055610084565b60006020828403121561006657600080fd5b81516001600160a01b038116811461007d57600080fd5b9392505050565b6105c9806100936000396000f3fe60806040526004361061007f5760003560e01c8063aa90b35f1161004e578063aa90b35f14610138578063ac6919a51461015a578063c9cd71b51461016f578063ef95e90f1461018457600080fd5b806327b7a2f5146100c357806329a594b5146100f9578063430bf08a1461010e5780638da5cb5b1461012357600080fd5b366100be57604080513381523460208201527f88a5966d370b9919b20f3e2c13ff65706f196a4e32cc2c12bf57088f88525874910160405180910390a1005b600080fd5b3480156100cf57600080fd5b506000546001600160a01b03165b6040516001600160a01b03909116815260200160405180910390f35b34801561010557600080fd5b506100dd610199565b34801561011a57600080fd5b506100dd610265565b34801561012f57600080fd5b506100dd6102ac565b34801561014457600080fd5b5061015861015336600461052d565b6102fb565b005b34801561016657600080fd5b506100dd610434565b34801561017b57600080fd5b506100dd61047b565b34801561019057600080fd5b506100dd6104c2565b600080546040517f526573657276656452696768740000000000000000000000000000000000000060208201526001600160a01b0390911690638eaa6ac090602d015b604051602081830303815290604052805190602001206040518263ffffffff1660e01b815260040161021091815260200190565b60206040518083038186803b15801561022857600080fd5b505afa15801561023c573d6000803e3d6000fd5b505050506040513d601f19601f820116820180604052508101906102609190610509565b905090565b600080546040517f5661756c7400000000000000000000000000000000000000000000000000000060208201526001600160a01b0390911690638eaa6ac0906025016101dc565b60008060009054906101000a90046001600160a01b03166001600160a01b0316638da5cb5b6040518163ffffffff1660e01b815260040160206040518083038186803b15801561022857600080fd5b6000546040517f51e0e26b0000000000000000000000000000000000000000000000000000000081523360048201526001600160a01b03909116906351e0e26b9060240160206040518083038186803b15801561035757600080fd5b505afa15801561036b573d6000803e3d6000fd5b505050506040513d601f19601f8201168201806040525081019061038f9190610559565b6103f9576040517f08c379a000000000000000000000000000000000000000000000000000000000815260206004820152600560248201527f4152323031000000000000000000000000000000000000000000000000000000604482015260640160405180910390fd5b6040516001600160a01b0383169082156108fc029083906000818181858888f1935050505015801561042f573d6000803e3d6000fd5b505050565b600080546040517f446973747269627574696f6e526967687400000000000000000000000000000060208201526001600160a01b0390911690638eaa6ac0906031016101dc565b600080546040517f4164506f6f6c000000000000000000000000000000000000000000000000000060208201526001600160a01b0390911690638eaa6ac0906026016101dc565b600080546040517f506f73744f776e6572506f6f6c0000000000000000000000000000000000000060208201526001600160a01b0390911690638eaa6ac090602d016101dc565b60006020828403121561051b57600080fd5b81516105268161057b565b9392505050565b6000806040838503121561054057600080fd5b823561054b8161057b565b946020939093013593505050565b60006020828403121561056b57600080fd5b8151801515811461052657600080fd5b6001600160a01b038116811461059057600080fd5b5056fea264697066735822122046e2d8c0662aa9952fd3d048abed56058119a1bec16868d64d74a4e64435779164736f6c63430008060033",
  "devdoc": {
    "author": "Shumpei Koike - <shumpei.koike@bridges.inc>",
    "kind": "dev",
    "methods": {
      "adPoolAddress()": {
        "details": "Gets the address of AdPool."
      },
      "distributionRightAddress()": {
        "details": "Gets the address of DistributionRight."
      },
      "nameRegistryAddress()": {
        "details": "Gets the address of NameRegistry"
      },
      "owner()": {
        "details": "Gets the owner address."
      },
      "reservedRightAddress()": {
        "details": "Gets the address of ReservedRight."
      },
      "vaultAddress()": {
        "details": "Gets the address of Vault."
      }
    },
    "title": "AdPool - pools the assets before distribution.",
    "version": 1
  },
  "userdoc": {
    "kind": "user",
    "methods": {},
    "version": 1
  },
  "storageLayout": {
    "storage": [
      {
        "astId": 1643,
        "contract": "contracts/base/AdPool.sol:AdPool",
        "label": "_nameRegistry",
        "offset": 0,
        "slot": "0",
        "type": "t_contract(NameRegistry)1858"
      }
    ],
    "types": {
      "t_contract(NameRegistry)1858": {
        "encoding": "inplace",
        "label": "contract NameRegistry",
        "numberOfBytes": "20"
      }
    }
  }
}