{
  "address": "0xb735558FbcC39d63027Fd39E87CB8818661FA2F1",
  "abi": [
    {
      "inputs": [
        {
          "internalType": "address",
          "name": "_nameRegistry",
          "type": "address"
        }
      ],
      "stateMutability": "nonpayable",
      "type": "constructor"
    },
    {
      "anonymous": false,
      "inputs": [
        {
          "indexed": true,
          "internalType": "address",
          "name": "owner",
          "type": "address"
        },
        {
          "indexed": true,
          "internalType": "address",
          "name": "approved",
          "type": "address"
        },
        {
          "indexed": true,
          "internalType": "uint256",
          "name": "tokenId",
          "type": "uint256"
        }
      ],
      "name": "Approval",
      "type": "event"
    },
    {
      "anonymous": false,
      "inputs": [
        {
          "indexed": true,
          "internalType": "address",
          "name": "owner",
          "type": "address"
        },
        {
          "indexed": true,
          "internalType": "address",
          "name": "operator",
          "type": "address"
        },
        {
          "indexed": false,
          "internalType": "bool",
          "name": "approved",
          "type": "bool"
        }
      ],
      "name": "ApprovalForAll",
      "type": "event"
    },
    {
      "anonymous": false,
      "inputs": [
        {
          "indexed": false,
          "internalType": "uint256",
          "name": "bundleId",
          "type": "uint256"
        },
        {
          "indexed": false,
          "internalType": "string",
          "name": "concatenated",
          "type": "string"
        },
        {
          "indexed": false,
          "internalType": "string",
          "name": "metadata",
          "type": "string"
        }
      ],
      "name": "BundleTokens",
      "type": "event"
    },
    {
      "anonymous": false,
      "inputs": [
        {
          "indexed": true,
          "internalType": "address",
          "name": "from",
          "type": "address"
        },
        {
          "indexed": true,
          "internalType": "address",
          "name": "to",
          "type": "address"
        },
        {
          "indexed": true,
          "internalType": "uint256",
          "name": "tokenId",
          "type": "uint256"
        }
      ],
      "name": "Transfer",
      "type": "event"
    },
    {
      "inputs": [],
      "name": "adPoolAddress",
      "outputs": [
        {
          "internalType": "address",
          "name": "",
          "type": "address"
        }
      ],
      "stateMutability": "view",
      "type": "function"
    },
    {
      "inputs": [
        {
          "internalType": "address",
          "name": "to",
          "type": "address"
        },
        {
          "internalType": "uint256",
          "name": "tokenId",
          "type": "uint256"
        }
      ],
      "name": "approve",
      "outputs": [],
      "stateMutability": "nonpayable",
      "type": "function"
    },
    {
      "inputs": [
        {
          "internalType": "address",
          "name": "owner",
          "type": "address"
        }
      ],
      "name": "balanceOf",
      "outputs": [
        {
          "internalType": "uint256",
          "name": "",
          "type": "uint256"
        }
      ],
      "stateMutability": "view",
      "type": "function"
    },
    {
      "inputs": [
        {
          "internalType": "string",
          "name": "concatenated",
          "type": "string"
        },
        {
          "internalType": "string",
          "name": "metadata",
          "type": "string"
        }
      ],
      "name": "bundleTokens",
      "outputs": [],
      "stateMutability": "nonpayable",
      "type": "function"
    },
    {
      "inputs": [],
      "name": "eventEmitterAddress",
      "outputs": [
        {
          "internalType": "address",
          "name": "",
          "type": "address"
        }
      ],
      "stateMutability": "view",
      "type": "function"
    },
    {
      "inputs": [
        {
          "internalType": "uint256",
          "name": "tokenId",
          "type": "uint256"
        }
      ],
      "name": "getApproved",
      "outputs": [
        {
          "internalType": "address",
          "name": "",
          "type": "address"
        }
      ],
      "stateMutability": "view",
      "type": "function"
    },
    {
      "inputs": [
        {
          "internalType": "address",
          "name": "owner",
          "type": "address"
        },
        {
          "internalType": "address",
          "name": "operator",
          "type": "address"
        }
      ],
      "name": "isApprovedForAll",
      "outputs": [
        {
          "internalType": "bool",
          "name": "",
          "type": "bool"
        }
      ],
      "stateMutability": "view",
      "type": "function"
    },
    {
      "inputs": [],
      "name": "mediaFactoryAddress",
      "outputs": [
        {
          "internalType": "address",
          "name": "",
          "type": "address"
        }
      ],
      "stateMutability": "view",
      "type": "function"
    },
    {
      "inputs": [],
      "name": "mediaRegistryAddress",
      "outputs": [
        {
          "internalType": "address",
          "name": "",
          "type": "address"
        }
      ],
      "stateMutability": "view",
      "type": "function"
    },
    {
      "inputs": [],
      "name": "name",
      "outputs": [
        {
          "internalType": "string",
          "name": "",
          "type": "string"
        }
      ],
      "stateMutability": "view",
      "type": "function"
    },
    {
      "inputs": [],
      "name": "nameRegistryAddress",
      "outputs": [
        {
          "internalType": "address",
          "name": "",
          "type": "address"
        }
      ],
      "stateMutability": "view",
      "type": "function"
    },
    {
      "inputs": [],
      "name": "nextBundleId",
      "outputs": [
        {
          "internalType": "uint256",
          "name": "",
          "type": "uint256"
        }
      ],
      "stateMutability": "view",
      "type": "function"
    },
    {
      "inputs": [],
      "name": "owner",
      "outputs": [
        {
          "internalType": "address",
          "name": "",
          "type": "address"
        }
      ],
      "stateMutability": "view",
      "type": "function"
    },
    {
      "inputs": [
        {
          "internalType": "uint256",
          "name": "tokenId",
          "type": "uint256"
        }
      ],
      "name": "ownerOf",
      "outputs": [
        {
          "internalType": "address",
          "name": "",
          "type": "address"
        }
      ],
      "stateMutability": "view",
      "type": "function"
    },
    {
      "inputs": [
        {
          "internalType": "address",
          "name": "from",
          "type": "address"
        },
        {
          "internalType": "address",
          "name": "to",
          "type": "address"
        },
        {
          "internalType": "uint256",
          "name": "tokenId",
          "type": "uint256"
        }
      ],
      "name": "safeTransferFrom",
      "outputs": [],
      "stateMutability": "nonpayable",
      "type": "function"
    },
    {
      "inputs": [
        {
          "internalType": "address",
          "name": "from",
          "type": "address"
        },
        {
          "internalType": "address",
          "name": "to",
          "type": "address"
        },
        {
          "internalType": "uint256",
          "name": "tokenId",
          "type": "uint256"
        },
        {
          "internalType": "bytes",
          "name": "_data",
          "type": "bytes"
        }
      ],
      "name": "safeTransferFrom",
      "outputs": [],
      "stateMutability": "nonpayable",
      "type": "function"
    },
    {
      "inputs": [
        {
          "internalType": "address",
          "name": "operator",
          "type": "address"
        },
        {
          "internalType": "bool",
          "name": "approved",
          "type": "bool"
        }
      ],
      "name": "setApprovalForAll",
      "outputs": [],
      "stateMutability": "nonpayable",
      "type": "function"
    },
    {
      "inputs": [
        {
          "internalType": "bytes4",
          "name": "interfaceId",
          "type": "bytes4"
        }
      ],
      "name": "supportsInterface",
      "outputs": [
        {
          "internalType": "bool",
          "name": "",
          "type": "bool"
        }
      ],
      "stateMutability": "pure",
      "type": "function"
    },
    {
      "inputs": [],
      "name": "symbol",
      "outputs": [
        {
          "internalType": "string",
          "name": "",
          "type": "string"
        }
      ],
      "stateMutability": "view",
      "type": "function"
    },
    {
      "inputs": [
        {
          "internalType": "uint256",
          "name": "index",
          "type": "uint256"
        }
      ],
      "name": "tokenByIndex",
      "outputs": [
        {
          "internalType": "uint256",
          "name": "",
          "type": "uint256"
        }
      ],
      "stateMutability": "view",
      "type": "function"
    },
    {
      "inputs": [
        {
          "internalType": "address",
          "name": "owner",
          "type": "address"
        },
        {
          "internalType": "uint256",
          "name": "index",
          "type": "uint256"
        }
      ],
      "name": "tokenOfOwnerByIndex",
      "outputs": [
        {
          "internalType": "uint256",
          "name": "",
          "type": "uint256"
        }
      ],
      "stateMutability": "view",
      "type": "function"
    },
    {
      "inputs": [
        {
          "internalType": "uint256",
          "name": "tokenId",
          "type": "uint256"
        }
      ],
      "name": "tokenURI",
      "outputs": [
        {
          "internalType": "string",
          "name": "",
          "type": "string"
        }
      ],
      "stateMutability": "view",
      "type": "function"
    },
    {
      "inputs": [],
      "name": "totalSupply",
      "outputs": [
        {
          "internalType": "uint256",
          "name": "",
          "type": "uint256"
        }
      ],
      "stateMutability": "view",
      "type": "function"
    },
    {
      "inputs": [
        {
          "internalType": "address",
          "name": "from",
          "type": "address"
        },
        {
          "internalType": "address",
          "name": "to",
          "type": "address"
        },
        {
          "internalType": "uint256",
          "name": "tokenId",
          "type": "uint256"
        }
      ],
      "name": "transferFrom",
      "outputs": [],
      "stateMutability": "nonpayable",
      "type": "function"
    },
    {
      "inputs": [],
      "name": "vaultAddress",
      "outputs": [
        {
          "internalType": "address",
          "name": "",
          "type": "address"
        }
      ],
      "stateMutability": "view",
      "type": "function"
    }
  ],
  "transactionHash": "0x5cfadc4999d02c9a0d45617ee66176138b91cd94eb75d40d26e74b06fd5c2794",
  "args": [
    "0x1dB85165B1C8D506Fbae2B161312960c8d9Ccc76"
  ],
  "solcInputHash": "cac608707b7c127d61fb97ba4566a6cd",
  "bytecode": "0x608060405234801561001057600080fd5b506040516200247d3803806200247d83398101604081905261003191610059565b600d80546001600160a01b0319166001600160a01b0383161790555062989681600e55610089565b60006020828403121561006b57600080fd5b81516001600160a01b038116811461008257600080fd5b9392505050565b6123e480620000996000396000f3fe608060405234801561001057600080fd5b50600436106101a35760003560e01c80636a58767e116100ee578063a22cb46511610097578063c9cd71b511610071578063c9cd71b51461032e578063d9c9e6fa14610336578063e985e9c51461033f578063f07262911461037b57600080fd5b8063a22cb465146102f5578063b88d4fde14610308578063c87b56dd1461031b57600080fd5b80638da5cb5b116100c85780638da5cb5b146102dd5780638f6059d6146102e557806395d89b41146102ed57600080fd5b80636a58767e146102af57806370a08231146102b7578063870fbf7c146102ca57600080fd5b806327b7a2f511610150578063430bf08a1161012a578063430bf08a146102815780634f6ccce7146102895780636352211e1461029c57600080fd5b806327b7a2f51461024a5780632f745c591461025b57806342842e0e1461026e57600080fd5b8063095ea7b311610181578063095ea7b31461021057806318160ddd1461022557806323b872dd1461023757600080fd5b806301ffc9a7146101a857806306fdde03146101d0578063081812fc146101e5575b600080fd5b6101bb6101b6366004611d21565b610383565b60405190151581526020015b60405180910390f35b6101d86103ec565b6040516101c79190611d9d565b6101f86101f3366004611db0565b61047e565b6040516001600160a01b0390911681526020016101c7565b61022361021e366004611dde565b610518565b005b600b545b6040519081526020016101c7565b610223610245366004611e0a565b61064a565b600d546001600160a01b03166101f8565b610229610269366004611dde565b6106d1565b61022361027c366004611e0a565b610779565b6101f8610794565b610229610297366004611db0565b610860565b6101f86102aa366004611db0565b610904565b6101f8610969565b6102296102c5366004611e4b565b6109b0565b6102236102d8366004611f35565b610a4a565b6101f8610d37565b6101f8610d95565b6101d8610ddc565b610223610303366004611f99565b610deb565b610223610316366004611fd7565b610eb0565b6101d8610329366004611db0565b610f3e565b6101f86110b8565b610229600e5481565b6101bb61034d366004612057565b6001600160a01b03918216600090815260086020908152604080832093909416825291909152205460ff1690565b6101f86110ff565b60006001600160e01b031982167f80ac58cd0000000000000000000000000000000000000000000000000000000014806103e657506001600160e01b031982167f5b5e139f00000000000000000000000000000000000000000000000000000000145b92915050565b6060600180546103fb90612085565b80601f016020809104026020016040519081016040528092919081815260200182805461042790612085565b80156104745780601f1061044957610100808354040283529160200191610474565b820191906000526020600020905b81548152906001019060200180831161045757829003601f168201915b5050505050905090565b6000818152600560205260408120546001600160a01b03166104fc5760405162461bcd60e51b815260206004820152602c60248201527f4552433732313a20617070726f76656420717565727920666f72206e6f6e657860448201526b34b9ba32b73a103a37b5b2b760a11b60648201526084015b60405180910390fd5b506000908152600760205260409020546001600160a01b031690565b600061052382610904565b9050806001600160a01b0316836001600160a01b031614156105ad5760405162461bcd60e51b815260206004820152602160248201527f4552433732313a20617070726f76616c20746f2063757272656e74206f776e6560448201527f720000000000000000000000000000000000000000000000000000000000000060648201526084016104f3565b336001600160a01b03821614806105c957506105c9813361034d565b61063b5760405162461bcd60e51b815260206004820152603860248201527f4552433732313a20617070726f76652063616c6c6572206973206e6f74206f7760448201527f6e6572206e6f7220617070726f76656420666f7220616c6c000000000000000060648201526084016104f3565b6106458383611146565b505050565b61065433826111c1565b6106c65760405162461bcd60e51b815260206004820152603160248201527f4552433732313a207472616e736665722063616c6c6572206973206e6f74206f60448201527f776e6572206e6f7220617070726f76656400000000000000000000000000000060648201526084016104f3565b6106458383836112b8565b60006106dc836109b0565b82106107505760405162461bcd60e51b815260206004820152602b60248201527f455243373231456e756d657261626c653a206f776e657220696e646578206f7560448201527f74206f6620626f756e647300000000000000000000000000000000000000000060648201526084016104f3565b506001600160a01b03919091166000908152600960209081526040808320938352929052205490565b61064583838360405180602001604052806000815250610eb0565b600d546040517f5661756c7400000000000000000000000000000000000000000000000000000060208201526000916001600160a01b031690638eaa6ac0906025015b604051602081830303815290604052805190602001206040518263ffffffff1660e01b815260040161080b91815260200190565b60206040518083038186803b15801561082357600080fd5b505afa158015610837573d6000803e3d6000fd5b505050506040513d601f19601f8201168201806040525081019061085b91906120c0565b905090565b600061086b600b5490565b82106108df5760405162461bcd60e51b815260206004820152602c60248201527f455243373231456e756d657261626c653a20676c6f62616c20696e646578206f60448201527f7574206f6620626f756e6473000000000000000000000000000000000000000060648201526084016104f3565b600b82815481106108f2576108f26120dd565b90600052602060002001549050919050565b6000818152600560205260408120546001600160a01b0316806103e65760405162461bcd60e51b815260206004820152600560248201527f4b4431313400000000000000000000000000000000000000000000000000000060448201526064016104f3565b600d546040517f4d6564696152656769737472790000000000000000000000000000000000000060208201526000916001600160a01b031690638eaa6ac090602d016107d7565b60006001600160a01b038216610a2e5760405162461bcd60e51b815260206004820152602a60248201527f4552433732313a2062616c616e636520717565727920666f7220746865207a6560448201527f726f20616464726573730000000000000000000000000000000000000000000060648201526084016104f3565b506001600160a01b031660009081526006602052604090205490565b60208251610a589190612109565b15610aa55760405162461bcd60e51b815260206004820152601460248201527f496e617070726f707269617465206c656e67746800000000000000000000000060448201526064016104f3565b610aae8261149d565b60005b60208351610abf9190612133565b811015610c8e57600073F7E2EA814b98a030c6fe6848806c27568777dd706315ad73a5856020610aef8682612147565b6040518463ffffffff1660e01b8152600401610b0d93929190612166565b60006040518083038186803b158015610b2557600080fd5b505af4158015610b39573d6000803e3d6000fd5b505050506040513d6000823e601f3d908101601f19168201604052610b61919081019061218b565b90506000736033bF5D1a9faD549EF4B4D6abb5613A0Ac760d76342346c5e836040518263ffffffff1660e01b8152600401610b9c9190611d9d565b60206040518083038186803b158015610bb457600080fd5b505af4158015610bc8573d6000803e3d6000fd5b505050506040513d601f19601f82011682018060405250810190610bec9190612202565b90506000610bf86116d6565b6001600160a01b03166310335241836040518263ffffffff1660e01b8152600401610c2591815260200190565b60206040518083038186803b158015610c3d57600080fd5b505afa158015610c51573d6000803e3d6000fd5b505050506040513d601f19601f82011682018060405250810190610c7591906120c0565b50839250610c86915082905061221b565b915050610ab1565b50600e546000908152600f602090815260409091208351610cb192850190611c6f565b50610cbe30600e546116e0565b600e5460009081526004602090815260409091208251610ce092840190611c6f565b507f56fd20d33e19705f59cf452965c92aa38bfc11cc05d9b0e6ddd9b4e6047e3b72600e548383604051610d1693929190612236565b60405180910390a1600e8054906000610d2e8361221b565b91905055505050565b600d54604080517f8da5cb5b00000000000000000000000000000000000000000000000000000000815290516000926001600160a01b031691638da5cb5b916004808301926020929190829003018186803b15801561082357600080fd5b600d546040517f4d65646961466163746f7279000000000000000000000000000000000000000060208201526000916001600160a01b031690638eaa6ac090602c016107d7565b6060600280546103fb90612085565b6001600160a01b038216331415610e445760405162461bcd60e51b815260206004820152601960248201527f4552433732313a20617070726f766520746f2063616c6c65720000000000000060448201526064016104f3565b3360008181526008602090815260408083206001600160a01b03871680855290835292819020805460ff191686151590811790915590519081529192917f17307eab39ab6107e8899845ad3d59bd9653f200f220920489ca2b5937696c31910160405180910390a35050565b610eba33836111c1565b610f2c5760405162461bcd60e51b815260206004820152603160248201527f4552433732313a207472616e736665722063616c6c6572206973206e6f74206f60448201527f776e6572206e6f7220617070726f76656400000000000000000000000000000060648201526084016104f3565b610f388484848461183b565b50505050565b6000818152600560205260409020546060906001600160a01b0316610fcb5760405162461bcd60e51b815260206004820152602f60248201527f4552433732314d657461646174613a2055524920717565727920666f72206e6f60448201527f6e6578697374656e7420746f6b656e000000000000000000000000000000000060648201526084016104f3565b600060038054610fda90612085565b90501161107d5760008281526004602052604090208054610ffa90612085565b80601f016020809104026020016040519081016040528092919081815260200182805461102690612085565b80156110735780601f1061104857610100808354040283529160200191611073565b820191906000526020600020905b81548152906001019060200180831161105657829003601f168201915b50505050506103e6565b6003600460008481526020019081526020016000206040516020016110a3929190612305565b60405160208183030381529060405292915050565b600d546040517f4164506f6f6c000000000000000000000000000000000000000000000000000060208201526000916001600160a01b031690638eaa6ac0906026016107d7565b600d546040517f4576656e74456d6974746572000000000000000000000000000000000000000060208201526000916001600160a01b031690638eaa6ac090602c016107d7565b6000818152600760205260409020805473ffffffffffffffffffffffffffffffffffffffff19166001600160a01b038416908117909155819061118882610904565b6001600160a01b03167f8c5be1e5ebec7d5bd14f71427d1e84f3dd0314c0f7b2291e5b200ac8c7c3b92560405160405180910390a45050565b6000818152600560205260408120546001600160a01b031661123a5760405162461bcd60e51b815260206004820152602c60248201527f4552433732313a206f70657261746f7220717565727920666f72206e6f6e657860448201526b34b9ba32b73a103a37b5b2b760a11b60648201526084016104f3565b600061124583610904565b9050806001600160a01b0316846001600160a01b031614806112805750836001600160a01b03166112758461047e565b6001600160a01b0316145b806112b057506001600160a01b0380821660009081526008602090815260408083209388168352929052205460ff165b949350505050565b826001600160a01b03166112cb82610904565b6001600160a01b0316146113475760405162461bcd60e51b815260206004820152602960248201527f4552433732313a207472616e73666572206f6620746f6b656e2074686174206960448201527f73206e6f74206f776e000000000000000000000000000000000000000000000060648201526084016104f3565b6001600160a01b0382166113c25760405162461bcd60e51b8152602060048201526024808201527f4552433732313a207472616e7366657220746f20746865207a65726f2061646460448201527f726573730000000000000000000000000000000000000000000000000000000060648201526084016104f3565b6113cd8383836118c4565b6113d8600082611146565b6001600160a01b038316600090815260066020526040812080546001929061140190849061231a565b90915550506001600160a01b038216600090815260066020526040812080546001929061142f908490612331565b9091555050600081815260056020526040808220805473ffffffffffffffffffffffffffffffffffffffff19166001600160a01b0386811691821790925591518493918716917fddf252ad1be2c89b69c2b068fc378daa952ba7f163c4a11628f55a4df523b3ef91a4505050565b60005b602082516114ae9190612133565b8110156116d257600073F7E2EA814b98a030c6fe6848806c27568777dd706315ad73a58460206114de8682612147565b6040518463ffffffff1660e01b81526004016114fc93929190612166565b60006040518083038186803b15801561151457600080fd5b505af4158015611528573d6000803e3d6000fd5b505050506040513d6000823e601f3d908101601f19168201604052611550919081019061218b565b90506000736033bF5D1a9faD549EF4B4D6abb5613A0Ac760d76342346c5e836040518263ffffffff1660e01b815260040161158b9190611d9d565b60206040518083038186803b1580156115a357600080fd5b505af41580156115b7573d6000803e3d6000fd5b505050506040513d601f19601f820116820180604052508101906115db9190612202565b905060006115e76116d6565b6001600160a01b03166310335241836040518263ffffffff1660e01b815260040161161491815260200190565b60206040518083038186803b15801561162c57600080fd5b505afa158015611640573d6000803e3d6000fd5b505050506040513d601f19601f8201168201806040525081019061166491906120c0565b90506001600160a01b0381166116bc5760405162461bcd60e51b815260206004820152600960248201527f6e6f74206578697374000000000000000000000000000000000000000000000060448201526064016104f3565b50505080806116ca9061221b565b9150506114a0565b5050565b600061085b6110b8565b6001600160a01b0382166117365760405162461bcd60e51b815260206004820181905260248201527f4552433732313a206d696e7420746f20746865207a65726f206164647265737360448201526064016104f3565b6000818152600560205260409020546001600160a01b03161561179b5760405162461bcd60e51b815260206004820152601c60248201527f4552433732313a20746f6b656e20616c7265616479206d696e7465640000000060448201526064016104f3565b6117a7600083836118c4565b6001600160a01b03821660009081526006602052604081208054600192906117d0908490612331565b9091555050600081815260056020526040808220805473ffffffffffffffffffffffffffffffffffffffff19166001600160a01b03861690811790915590518392907fddf252ad1be2c89b69c2b068fc378daa952ba7f163c4a11628f55a4df523b3ef908290a45050565b6118468484846112b8565b6118528484848461197c565b610f385760405162461bcd60e51b815260206004820152603260248201527f4552433732313a207472616e7366657220746f206e6f6e20455243373231526560448201527f63656976657220696d706c656d656e746572000000000000000000000000000060648201526084016104f3565b6001600160a01b03831661191f5761191a81600b80546000838152600c60205260408120829055600182018355919091527f0175b7a638427703f0dbe7bb9bbf987a2551717b34e79f33b5b1008d1fa01db90155565b611942565b816001600160a01b0316836001600160a01b031614611942576119428382611adf565b6001600160a01b0382166119595761064581611b7c565b826001600160a01b0316826001600160a01b031614610645576106458282611c2b565b60006001600160a01b0384163b15611ad457604051630a85bd0160e11b81526001600160a01b0385169063150b7a02906119c0903390899088908890600401612349565b602060405180830381600087803b1580156119da57600080fd5b505af1925050508015611a0a575060408051601f3d908101601f19168201909252611a079181019061237b565b60015b611aba573d808015611a38576040519150601f19603f3d011682016040523d82523d6000602084013e611a3d565b606091505b508051611ab25760405162461bcd60e51b815260206004820152603260248201527f4552433732313a207472616e7366657220746f206e6f6e20455243373231526560448201527f63656976657220696d706c656d656e746572000000000000000000000000000060648201526084016104f3565b805181602001fd5b6001600160e01b031916630a85bd0160e11b1490506112b0565b506001949350505050565b60006001611aec846109b0565b611af6919061231a565b6000838152600a6020526040902054909150808214611b49576001600160a01b03841660009081526009602090815260408083208584528252808320548484528184208190558352600a90915290208190555b506000918252600a602090815260408084208490556001600160a01b039094168352600981528383209183525290812055565b600b54600090611b8e9060019061231a565b6000838152600c6020526040812054600b8054939450909284908110611bb657611bb66120dd565b9060005260206000200154905080600b8381548110611bd757611bd76120dd565b6000918252602080832090910192909255828152600c9091526040808220849055858252812055600b805480611c0f57611c0f612398565b6001900381819060005260206000200160009055905550505050565b6000611c36836109b0565b6001600160a01b0390931660009081526009602090815260408083208684528252808320859055938252600a9052919091209190915550565b828054611c7b90612085565b90600052602060002090601f016020900481019282611c9d5760008555611ce3565b82601f10611cb657805160ff1916838001178555611ce3565b82800160010185558215611ce3579182015b82811115611ce3578251825591602001919060010190611cc8565b50611cef929150611cf3565b5090565b5b80821115611cef5760008155600101611cf4565b6001600160e01b031981168114611d1e57600080fd5b50565b600060208284031215611d3357600080fd5b8135611d3e81611d08565b9392505050565b60005b83811015611d60578181015183820152602001611d48565b83811115610f385750506000910152565b60008151808452611d89816020860160208601611d45565b601f01601f19169290920160200192915050565b602081526000611d3e6020830184611d71565b600060208284031215611dc257600080fd5b5035919050565b6001600160a01b0381168114611d1e57600080fd5b60008060408385031215611df157600080fd5b8235611dfc81611dc9565b946020939093013593505050565b600080600060608486031215611e1f57600080fd5b8335611e2a81611dc9565b92506020840135611e3a81611dc9565b929592945050506040919091013590565b600060208284031215611e5d57600080fd5b8135611d3e81611dc9565b634e487b7160e01b600052604160045260246000fd5b604051601f8201601f1916810167ffffffffffffffff81118282101715611ea757611ea7611e68565b604052919050565b600067ffffffffffffffff821115611ec957611ec9611e68565b50601f01601f191660200190565b6000611eea611ee584611eaf565b611e7e565b9050828152838383011115611efe57600080fd5b828260208301376000602084830101529392505050565b600082601f830112611f2657600080fd5b611d3e83833560208501611ed7565b60008060408385031215611f4857600080fd5b823567ffffffffffffffff80821115611f6057600080fd5b611f6c86838701611f15565b93506020850135915080821115611f8257600080fd5b50611f8f85828601611f15565b9150509250929050565b60008060408385031215611fac57600080fd5b8235611fb781611dc9565b915060208301358015158114611fcc57600080fd5b809150509250929050565b60008060008060808587031215611fed57600080fd5b8435611ff881611dc9565b9350602085013561200881611dc9565b925060408501359150606085013567ffffffffffffffff81111561202b57600080fd5b8501601f8101871361203c57600080fd5b61204b87823560208401611ed7565b91505092959194509250565b6000806040838503121561206a57600080fd5b823561207581611dc9565b91506020830135611fcc81611dc9565b600181811c9082168061209957607f821691505b602082108114156120ba57634e487b7160e01b600052602260045260246000fd5b50919050565b6000602082840312156120d257600080fd5b8151611d3e81611dc9565b634e487b7160e01b600052603260045260246000fd5b634e487b7160e01b600052601260045260246000fd5b600082612118576121186120f3565b500690565b634e487b7160e01b600052601160045260246000fd5b600082612142576121426120f3565b500490565b60008160001904831182151516156121615761216161211d565b500290565b6060815260006121796060830186611d71565b60208301949094525060400152919050565b60006020828403121561219d57600080fd5b815167ffffffffffffffff8111156121b457600080fd5b8201601f810184136121c557600080fd5b80516121d3611ee582611eaf565b8181528560208385010111156121e857600080fd5b6121f9826020830160208601611d45565b95945050505050565b60006020828403121561221457600080fd5b5051919050565b600060001982141561222f5761222f61211d565b5060010190565b83815260606020820152600061224f6060830185611d71565b82810360408401526122618185611d71565b9695505050505050565b8054600090600181811c908083168061228557607f831692505b60208084108214156122a757634e487b7160e01b600052602260045260246000fd5b8180156122bb57600181146122cc576122f9565b60ff198616895284890196506122f9565b60008881526020902060005b868110156122f15781548b8201529085019083016122d8565b505084890196505b50505050505092915050565b60006112b0612314838661226b565b8461226b565b60008282101561232c5761232c61211d565b500390565b600082198211156123445761234461211d565b500190565b60006001600160a01b038087168352808616602084015250836040830152608060608301526122616080830184611d71565b60006020828403121561238d57600080fd5b8151611d3e81611d08565b634e487b7160e01b600052603160045260246000fdfea2646970667358221220d594d654ad0ad6f04832e12972e5f32b78b2f270d57ff96c7ca3ed9ac3375e4864736f6c63430008090033",
  "deployedBytecode": "0x608060405234801561001057600080fd5b50600436106101a35760003560e01c80636a58767e116100ee578063a22cb46511610097578063c9cd71b511610071578063c9cd71b51461032e578063d9c9e6fa14610336578063e985e9c51461033f578063f07262911461037b57600080fd5b8063a22cb465146102f5578063b88d4fde14610308578063c87b56dd1461031b57600080fd5b80638da5cb5b116100c85780638da5cb5b146102dd5780638f6059d6146102e557806395d89b41146102ed57600080fd5b80636a58767e146102af57806370a08231146102b7578063870fbf7c146102ca57600080fd5b806327b7a2f511610150578063430bf08a1161012a578063430bf08a146102815780634f6ccce7146102895780636352211e1461029c57600080fd5b806327b7a2f51461024a5780632f745c591461025b57806342842e0e1461026e57600080fd5b8063095ea7b311610181578063095ea7b31461021057806318160ddd1461022557806323b872dd1461023757600080fd5b806301ffc9a7146101a857806306fdde03146101d0578063081812fc146101e5575b600080fd5b6101bb6101b6366004611d21565b610383565b60405190151581526020015b60405180910390f35b6101d86103ec565b6040516101c79190611d9d565b6101f86101f3366004611db0565b61047e565b6040516001600160a01b0390911681526020016101c7565b61022361021e366004611dde565b610518565b005b600b545b6040519081526020016101c7565b610223610245366004611e0a565b61064a565b600d546001600160a01b03166101f8565b610229610269366004611dde565b6106d1565b61022361027c366004611e0a565b610779565b6101f8610794565b610229610297366004611db0565b610860565b6101f86102aa366004611db0565b610904565b6101f8610969565b6102296102c5366004611e4b565b6109b0565b6102236102d8366004611f35565b610a4a565b6101f8610d37565b6101f8610d95565b6101d8610ddc565b610223610303366004611f99565b610deb565b610223610316366004611fd7565b610eb0565b6101d8610329366004611db0565b610f3e565b6101f86110b8565b610229600e5481565b6101bb61034d366004612057565b6001600160a01b03918216600090815260086020908152604080832093909416825291909152205460ff1690565b6101f86110ff565b60006001600160e01b031982167f80ac58cd0000000000000000000000000000000000000000000000000000000014806103e657506001600160e01b031982167f5b5e139f00000000000000000000000000000000000000000000000000000000145b92915050565b6060600180546103fb90612085565b80601f016020809104026020016040519081016040528092919081815260200182805461042790612085565b80156104745780601f1061044957610100808354040283529160200191610474565b820191906000526020600020905b81548152906001019060200180831161045757829003601f168201915b5050505050905090565b6000818152600560205260408120546001600160a01b03166104fc5760405162461bcd60e51b815260206004820152602c60248201527f4552433732313a20617070726f76656420717565727920666f72206e6f6e657860448201526b34b9ba32b73a103a37b5b2b760a11b60648201526084015b60405180910390fd5b506000908152600760205260409020546001600160a01b031690565b600061052382610904565b9050806001600160a01b0316836001600160a01b031614156105ad5760405162461bcd60e51b815260206004820152602160248201527f4552433732313a20617070726f76616c20746f2063757272656e74206f776e6560448201527f720000000000000000000000000000000000000000000000000000000000000060648201526084016104f3565b336001600160a01b03821614806105c957506105c9813361034d565b61063b5760405162461bcd60e51b815260206004820152603860248201527f4552433732313a20617070726f76652063616c6c6572206973206e6f74206f7760448201527f6e6572206e6f7220617070726f76656420666f7220616c6c000000000000000060648201526084016104f3565b6106458383611146565b505050565b61065433826111c1565b6106c65760405162461bcd60e51b815260206004820152603160248201527f4552433732313a207472616e736665722063616c6c6572206973206e6f74206f60448201527f776e6572206e6f7220617070726f76656400000000000000000000000000000060648201526084016104f3565b6106458383836112b8565b60006106dc836109b0565b82106107505760405162461bcd60e51b815260206004820152602b60248201527f455243373231456e756d657261626c653a206f776e657220696e646578206f7560448201527f74206f6620626f756e647300000000000000000000000000000000000000000060648201526084016104f3565b506001600160a01b03919091166000908152600960209081526040808320938352929052205490565b61064583838360405180602001604052806000815250610eb0565b600d546040517f5661756c7400000000000000000000000000000000000000000000000000000060208201526000916001600160a01b031690638eaa6ac0906025015b604051602081830303815290604052805190602001206040518263ffffffff1660e01b815260040161080b91815260200190565b60206040518083038186803b15801561082357600080fd5b505afa158015610837573d6000803e3d6000fd5b505050506040513d601f19601f8201168201806040525081019061085b91906120c0565b905090565b600061086b600b5490565b82106108df5760405162461bcd60e51b815260206004820152602c60248201527f455243373231456e756d657261626c653a20676c6f62616c20696e646578206f60448201527f7574206f6620626f756e6473000000000000000000000000000000000000000060648201526084016104f3565b600b82815481106108f2576108f26120dd565b90600052602060002001549050919050565b6000818152600560205260408120546001600160a01b0316806103e65760405162461bcd60e51b815260206004820152600560248201527f4b4431313400000000000000000000000000000000000000000000000000000060448201526064016104f3565b600d546040517f4d6564696152656769737472790000000000000000000000000000000000000060208201526000916001600160a01b031690638eaa6ac090602d016107d7565b60006001600160a01b038216610a2e5760405162461bcd60e51b815260206004820152602a60248201527f4552433732313a2062616c616e636520717565727920666f7220746865207a6560448201527f726f20616464726573730000000000000000000000000000000000000000000060648201526084016104f3565b506001600160a01b031660009081526006602052604090205490565b60208251610a589190612109565b15610aa55760405162461bcd60e51b815260206004820152601460248201527f496e617070726f707269617465206c656e67746800000000000000000000000060448201526064016104f3565b610aae8261149d565b60005b60208351610abf9190612133565b811015610c8e57600073__$585a252f57e67ad9fd69a3cb7e41e9f5e6$__6315ad73a5856020610aef8682612147565b6040518463ffffffff1660e01b8152600401610b0d93929190612166565b60006040518083038186803b158015610b2557600080fd5b505af4158015610b39573d6000803e3d6000fd5b505050506040513d6000823e601f3d908101601f19168201604052610b61919081019061218b565b9050600073__$79ef3d05fb54127037f04122de9b449b2a$__6342346c5e836040518263ffffffff1660e01b8152600401610b9c9190611d9d565b60206040518083038186803b158015610bb457600080fd5b505af4158015610bc8573d6000803e3d6000fd5b505050506040513d601f19601f82011682018060405250810190610bec9190612202565b90506000610bf86116d6565b6001600160a01b03166310335241836040518263ffffffff1660e01b8152600401610c2591815260200190565b60206040518083038186803b158015610c3d57600080fd5b505afa158015610c51573d6000803e3d6000fd5b505050506040513d601f19601f82011682018060405250810190610c7591906120c0565b50839250610c86915082905061221b565b915050610ab1565b50600e546000908152600f602090815260409091208351610cb192850190611c6f565b50610cbe30600e546116e0565b600e5460009081526004602090815260409091208251610ce092840190611c6f565b507f56fd20d33e19705f59cf452965c92aa38bfc11cc05d9b0e6ddd9b4e6047e3b72600e548383604051610d1693929190612236565b60405180910390a1600e8054906000610d2e8361221b565b91905055505050565b600d54604080517f8da5cb5b00000000000000000000000000000000000000000000000000000000815290516000926001600160a01b031691638da5cb5b916004808301926020929190829003018186803b15801561082357600080fd5b600d546040517f4d65646961466163746f7279000000000000000000000000000000000000000060208201526000916001600160a01b031690638eaa6ac090602c016107d7565b6060600280546103fb90612085565b6001600160a01b038216331415610e445760405162461bcd60e51b815260206004820152601960248201527f4552433732313a20617070726f766520746f2063616c6c65720000000000000060448201526064016104f3565b3360008181526008602090815260408083206001600160a01b03871680855290835292819020805460ff191686151590811790915590519081529192917f17307eab39ab6107e8899845ad3d59bd9653f200f220920489ca2b5937696c31910160405180910390a35050565b610eba33836111c1565b610f2c5760405162461bcd60e51b815260206004820152603160248201527f4552433732313a207472616e736665722063616c6c6572206973206e6f74206f60448201527f776e6572206e6f7220617070726f76656400000000000000000000000000000060648201526084016104f3565b610f388484848461183b565b50505050565b6000818152600560205260409020546060906001600160a01b0316610fcb5760405162461bcd60e51b815260206004820152602f60248201527f4552433732314d657461646174613a2055524920717565727920666f72206e6f60448201527f6e6578697374656e7420746f6b656e000000000000000000000000000000000060648201526084016104f3565b600060038054610fda90612085565b90501161107d5760008281526004602052604090208054610ffa90612085565b80601f016020809104026020016040519081016040528092919081815260200182805461102690612085565b80156110735780601f1061104857610100808354040283529160200191611073565b820191906000526020600020905b81548152906001019060200180831161105657829003601f168201915b50505050506103e6565b6003600460008481526020019081526020016000206040516020016110a3929190612305565b60405160208183030381529060405292915050565b600d546040517f4164506f6f6c000000000000000000000000000000000000000000000000000060208201526000916001600160a01b031690638eaa6ac0906026016107d7565b600d546040517f4576656e74456d6974746572000000000000000000000000000000000000000060208201526000916001600160a01b031690638eaa6ac090602c016107d7565b6000818152600760205260409020805473ffffffffffffffffffffffffffffffffffffffff19166001600160a01b038416908117909155819061118882610904565b6001600160a01b03167f8c5be1e5ebec7d5bd14f71427d1e84f3dd0314c0f7b2291e5b200ac8c7c3b92560405160405180910390a45050565b6000818152600560205260408120546001600160a01b031661123a5760405162461bcd60e51b815260206004820152602c60248201527f4552433732313a206f70657261746f7220717565727920666f72206e6f6e657860448201526b34b9ba32b73a103a37b5b2b760a11b60648201526084016104f3565b600061124583610904565b9050806001600160a01b0316846001600160a01b031614806112805750836001600160a01b03166112758461047e565b6001600160a01b0316145b806112b057506001600160a01b0380821660009081526008602090815260408083209388168352929052205460ff165b949350505050565b826001600160a01b03166112cb82610904565b6001600160a01b0316146113475760405162461bcd60e51b815260206004820152602960248201527f4552433732313a207472616e73666572206f6620746f6b656e2074686174206960448201527f73206e6f74206f776e000000000000000000000000000000000000000000000060648201526084016104f3565b6001600160a01b0382166113c25760405162461bcd60e51b8152602060048201526024808201527f4552433732313a207472616e7366657220746f20746865207a65726f2061646460448201527f726573730000000000000000000000000000000000000000000000000000000060648201526084016104f3565b6113cd8383836118c4565b6113d8600082611146565b6001600160a01b038316600090815260066020526040812080546001929061140190849061231a565b90915550506001600160a01b038216600090815260066020526040812080546001929061142f908490612331565b9091555050600081815260056020526040808220805473ffffffffffffffffffffffffffffffffffffffff19166001600160a01b0386811691821790925591518493918716917fddf252ad1be2c89b69c2b068fc378daa952ba7f163c4a11628f55a4df523b3ef91a4505050565b60005b602082516114ae9190612133565b8110156116d257600073__$585a252f57e67ad9fd69a3cb7e41e9f5e6$__6315ad73a58460206114de8682612147565b6040518463ffffffff1660e01b81526004016114fc93929190612166565b60006040518083038186803b15801561151457600080fd5b505af4158015611528573d6000803e3d6000fd5b505050506040513d6000823e601f3d908101601f19168201604052611550919081019061218b565b9050600073__$79ef3d05fb54127037f04122de9b449b2a$__6342346c5e836040518263ffffffff1660e01b815260040161158b9190611d9d565b60206040518083038186803b1580156115a357600080fd5b505af41580156115b7573d6000803e3d6000fd5b505050506040513d601f19601f820116820180604052508101906115db9190612202565b905060006115e76116d6565b6001600160a01b03166310335241836040518263ffffffff1660e01b815260040161161491815260200190565b60206040518083038186803b15801561162c57600080fd5b505afa158015611640573d6000803e3d6000fd5b505050506040513d601f19601f8201168201806040525081019061166491906120c0565b90506001600160a01b0381166116bc5760405162461bcd60e51b815260206004820152600960248201527f6e6f74206578697374000000000000000000000000000000000000000000000060448201526064016104f3565b50505080806116ca9061221b565b9150506114a0565b5050565b600061085b6110b8565b6001600160a01b0382166117365760405162461bcd60e51b815260206004820181905260248201527f4552433732313a206d696e7420746f20746865207a65726f206164647265737360448201526064016104f3565b6000818152600560205260409020546001600160a01b03161561179b5760405162461bcd60e51b815260206004820152601c60248201527f4552433732313a20746f6b656e20616c7265616479206d696e7465640000000060448201526064016104f3565b6117a7600083836118c4565b6001600160a01b03821660009081526006602052604081208054600192906117d0908490612331565b9091555050600081815260056020526040808220805473ffffffffffffffffffffffffffffffffffffffff19166001600160a01b03861690811790915590518392907fddf252ad1be2c89b69c2b068fc378daa952ba7f163c4a11628f55a4df523b3ef908290a45050565b6118468484846112b8565b6118528484848461197c565b610f385760405162461bcd60e51b815260206004820152603260248201527f4552433732313a207472616e7366657220746f206e6f6e20455243373231526560448201527f63656976657220696d706c656d656e746572000000000000000000000000000060648201526084016104f3565b6001600160a01b03831661191f5761191a81600b80546000838152600c60205260408120829055600182018355919091527f0175b7a638427703f0dbe7bb9bbf987a2551717b34e79f33b5b1008d1fa01db90155565b611942565b816001600160a01b0316836001600160a01b031614611942576119428382611adf565b6001600160a01b0382166119595761064581611b7c565b826001600160a01b0316826001600160a01b031614610645576106458282611c2b565b60006001600160a01b0384163b15611ad457604051630a85bd0160e11b81526001600160a01b0385169063150b7a02906119c0903390899088908890600401612349565b602060405180830381600087803b1580156119da57600080fd5b505af1925050508015611a0a575060408051601f3d908101601f19168201909252611a079181019061237b565b60015b611aba573d808015611a38576040519150601f19603f3d011682016040523d82523d6000602084013e611a3d565b606091505b508051611ab25760405162461bcd60e51b815260206004820152603260248201527f4552433732313a207472616e7366657220746f206e6f6e20455243373231526560448201527f63656976657220696d706c656d656e746572000000000000000000000000000060648201526084016104f3565b805181602001fd5b6001600160e01b031916630a85bd0160e11b1490506112b0565b506001949350505050565b60006001611aec846109b0565b611af6919061231a565b6000838152600a6020526040902054909150808214611b49576001600160a01b03841660009081526009602090815260408083208584528252808320548484528184208190558352600a90915290208190555b506000918252600a602090815260408084208490556001600160a01b039094168352600981528383209183525290812055565b600b54600090611b8e9060019061231a565b6000838152600c6020526040812054600b8054939450909284908110611bb657611bb66120dd565b9060005260206000200154905080600b8381548110611bd757611bd76120dd565b6000918252602080832090910192909255828152600c9091526040808220849055858252812055600b805480611c0f57611c0f612398565b6001900381819060005260206000200160009055905550505050565b6000611c36836109b0565b6001600160a01b0390931660009081526009602090815260408083208684528252808320859055938252600a9052919091209190915550565b828054611c7b90612085565b90600052602060002090601f016020900481019282611c9d5760008555611ce3565b82601f10611cb657805160ff1916838001178555611ce3565b82800160010185558215611ce3579182015b82811115611ce3578251825591602001919060010190611cc8565b50611cef929150611cf3565b5090565b5b80821115611cef5760008155600101611cf4565b6001600160e01b031981168114611d1e57600080fd5b50565b600060208284031215611d3357600080fd5b8135611d3e81611d08565b9392505050565b60005b83811015611d60578181015183820152602001611d48565b83811115610f385750506000910152565b60008151808452611d89816020860160208601611d45565b601f01601f19169290920160200192915050565b602081526000611d3e6020830184611d71565b600060208284031215611dc257600080fd5b5035919050565b6001600160a01b0381168114611d1e57600080fd5b60008060408385031215611df157600080fd5b8235611dfc81611dc9565b946020939093013593505050565b600080600060608486031215611e1f57600080fd5b8335611e2a81611dc9565b92506020840135611e3a81611dc9565b929592945050506040919091013590565b600060208284031215611e5d57600080fd5b8135611d3e81611dc9565b634e487b7160e01b600052604160045260246000fd5b604051601f8201601f1916810167ffffffffffffffff81118282101715611ea757611ea7611e68565b604052919050565b600067ffffffffffffffff821115611ec957611ec9611e68565b50601f01601f191660200190565b6000611eea611ee584611eaf565b611e7e565b9050828152838383011115611efe57600080fd5b828260208301376000602084830101529392505050565b600082601f830112611f2657600080fd5b611d3e83833560208501611ed7565b60008060408385031215611f4857600080fd5b823567ffffffffffffffff80821115611f6057600080fd5b611f6c86838701611f15565b93506020850135915080821115611f8257600080fd5b50611f8f85828601611f15565b9150509250929050565b60008060408385031215611fac57600080fd5b8235611fb781611dc9565b915060208301358015158114611fcc57600080fd5b809150509250929050565b60008060008060808587031215611fed57600080fd5b8435611ff881611dc9565b9350602085013561200881611dc9565b925060408501359150606085013567ffffffffffffffff81111561202b57600080fd5b8501601f8101871361203c57600080fd5b61204b87823560208401611ed7565b91505092959194509250565b6000806040838503121561206a57600080fd5b823561207581611dc9565b91506020830135611fcc81611dc9565b600181811c9082168061209957607f821691505b602082108114156120ba57634e487b7160e01b600052602260045260246000fd5b50919050565b6000602082840312156120d257600080fd5b8151611d3e81611dc9565b634e487b7160e01b600052603260045260246000fd5b634e487b7160e01b600052601260045260246000fd5b600082612118576121186120f3565b500690565b634e487b7160e01b600052601160045260246000fd5b600082612142576121426120f3565b500490565b60008160001904831182151516156121615761216161211d565b500290565b6060815260006121796060830186611d71565b60208301949094525060400152919050565b60006020828403121561219d57600080fd5b815167ffffffffffffffff8111156121b457600080fd5b8201601f810184136121c557600080fd5b80516121d3611ee582611eaf565b8181528560208385010111156121e857600080fd5b6121f9826020830160208601611d45565b95945050505050565b60006020828403121561221457600080fd5b5051919050565b600060001982141561222f5761222f61211d565b5060010190565b83815260606020820152600061224f6060830185611d71565b82810360408401526122618185611d71565b9695505050505050565b8054600090600181811c908083168061228557607f831692505b60208084108214156122a757634e487b7160e01b600052602260045260246000fd5b8180156122bb57600181146122cc576122f9565b60ff198616895284890196506122f9565b60008881526020902060005b868110156122f15781548b8201529085019083016122d8565b505084890196505b50505050505092915050565b60006112b0612314838661226b565b8461226b565b60008282101561232c5761232c61211d565b500390565b600082198211156123445761234461211d565b500190565b60006001600160a01b038087168352808616602084015250836040830152608060608301526122616080830184611d71565b60006020828403121561238d57600080fd5b8151611d3e81611d08565b634e487b7160e01b600052603160045260246000fdfea2646970667358221220d594d654ad0ad6f04832e12972e5f32b78b2f270d57ff96c7ca3ed9ac3375e4864736f6c63430008090033",
  "libraries": {
    "Integers": "0x6033bF5D1a9faD549EF4B4D6abb5613A0Ac760d7",
    "Substrings": "0xF7E2EA814b98a030c6fe6848806c27568777dd70"
  },
  "devdoc": {
    "author": "Shumpei Koike - <shumpei.koike@bridges.inc>",
    "kind": "dev",
    "methods": {
      "adPoolAddress()": {
        "details": "Gets the address of AdPool."
      },
      "approve(address,uint256)": {
        "details": "See {IERC721-approve}."
      },
      "balanceOf(address)": {
        "details": "See {IERC721-balanceOf}."
      },
      "eventEmitterAddress()": {
        "details": "Gets the address of EventEmitter."
      },
      "getApproved(uint256)": {
        "details": "See {IERC721-getApproved}."
      },
      "isApprovedForAll(address,address)": {
        "details": "See {IERC721-isApprovedForAll}."
      },
      "mediaFactoryAddress()": {
        "details": "Gets the address of MediaFactory."
      },
      "mediaRegistryAddress()": {
        "details": "Gets the address of MediaRegistry."
      },
      "name()": {
        "details": "See {IERC721Metadata-name}."
      },
      "nameRegistryAddress()": {
        "details": "Gets the address of NameRegistry"
      },
      "owner()": {
        "details": "Gets the owner address."
      },
      "ownerOf(uint256)": {
        "details": "See {IERC721-ownerOf}."
      },
      "safeTransferFrom(address,address,uint256)": {
        "details": "See {IERC721-safeTransferFrom}."
      },
      "safeTransferFrom(address,address,uint256,bytes)": {
        "details": "See {IERC721-safeTransferFrom}."
      },
      "setApprovalForAll(address,bool)": {
        "details": "See {IERC721-setApprovalForAll}."
      },
      "supportsInterface(bytes4)": {
        "details": "See {IERC165-supportsInterface}."
      },
      "symbol()": {
        "details": "See {IERC721Metadata-symbol}."
      },
      "tokenByIndex(uint256)": {
        "details": "See {IERC721Enumerable-tokenByIndex}."
      },
      "tokenOfOwnerByIndex(address,uint256)": {
        "details": "See {IERC721Enumerable-tokenOfOwnerByIndex}."
      },
      "tokenURI(uint256)": {
        "details": "See {IERC721Metadata-tokenURI}."
      },
      "totalSupply()": {
        "details": "See {IERC721Enumerable-totalSupply}."
      },
      "transferFrom(address,address,uint256)": {
        "details": "See {IERC721-transferFrom}."
      },
      "vaultAddress()": {
        "details": "Gets the address of Vault."
      }
    },
    "title": "Bundler - makes some NFTs be one to easily .",
    "version": 1
  },
  "userdoc": {
    "kind": "user",
    "methods": {},
    "version": 1
  },
  "storageLayout": {
    "storage": [
      {
        "astId": 2165,
        "contract": "contracts/token/Bundler.sol:Bundler",
        "label": "dummy",
        "offset": 0,
        "slot": "0",
        "type": "t_string_storage"
      },
      {
        "astId": 2167,
        "contract": "contracts/token/Bundler.sol:Bundler",
        "label": "_name",
        "offset": 0,
        "slot": "1",
        "type": "t_string_storage"
      },
      {
        "astId": 2169,
        "contract": "contracts/token/Bundler.sol:Bundler",
        "label": "_symbol",
        "offset": 0,
        "slot": "2",
        "type": "t_string_storage"
      },
      {
        "astId": 2171,
        "contract": "contracts/token/Bundler.sol:Bundler",
        "label": "_baseURI",
        "offset": 0,
        "slot": "3",
        "type": "t_string_storage"
      },
      {
        "astId": 2175,
        "contract": "contracts/token/Bundler.sol:Bundler",
        "label": "_tokenURIs",
        "offset": 0,
        "slot": "4",
        "type": "t_mapping(t_uint256,t_string_storage)"
      },
      {
        "astId": 2179,
        "contract": "contracts/token/Bundler.sol:Bundler",
        "label": "_owners",
        "offset": 0,
        "slot": "5",
        "type": "t_mapping(t_uint256,t_address)"
      },
      {
        "astId": 2183,
        "contract": "contracts/token/Bundler.sol:Bundler",
        "label": "_balances",
        "offset": 0,
        "slot": "6",
        "type": "t_mapping(t_address,t_uint256)"
      },
      {
        "astId": 2187,
        "contract": "contracts/token/Bundler.sol:Bundler",
        "label": "_tokenApprovals",
        "offset": 0,
        "slot": "7",
        "type": "t_mapping(t_uint256,t_address)"
      },
      {
        "astId": 2193,
        "contract": "contracts/token/Bundler.sol:Bundler",
        "label": "_operatorApprovals",
        "offset": 0,
        "slot": "8",
        "type": "t_mapping(t_address,t_mapping(t_address,t_bool))"
      },
      {
        "astId": 2199,
        "contract": "contracts/token/Bundler.sol:Bundler",
        "label": "_ownedTokens",
        "offset": 0,
        "slot": "9",
        "type": "t_mapping(t_address,t_mapping(t_uint256,t_uint256))"
      },
      {
        "astId": 2203,
        "contract": "contracts/token/Bundler.sol:Bundler",
        "label": "_ownedTokensIndex",
        "offset": 0,
        "slot": "10",
        "type": "t_mapping(t_uint256,t_uint256)"
      },
      {
        "astId": 2206,
        "contract": "contracts/token/Bundler.sol:Bundler",
        "label": "_allTokens",
        "offset": 0,
        "slot": "11",
        "type": "t_array(t_uint256)dyn_storage"
      },
      {
        "astId": 2210,
        "contract": "contracts/token/Bundler.sol:Bundler",
        "label": "_allTokensIndex",
        "offset": 0,
        "slot": "12",
        "type": "t_mapping(t_uint256,t_uint256)"
      },
      {
        "astId": 1691,
        "contract": "contracts/token/Bundler.sol:Bundler",
        "label": "_nameRegistry",
        "offset": 0,
        "slot": "13",
        "type": "t_contract(NameRegistry)1920"
      },
      {
        "astId": 5437,
        "contract": "contracts/token/Bundler.sol:Bundler",
        "label": "nextBundleId",
        "offset": 0,
        "slot": "14",
        "type": "t_uint256"
      },
      {
        "astId": 5441,
        "contract": "contracts/token/Bundler.sol:Bundler",
        "label": "tokenIds",
        "offset": 0,
        "slot": "15",
        "type": "t_mapping(t_uint256,t_string_storage)"
      }
    ],
    "types": {
      "t_address": {
        "encoding": "inplace",
        "label": "address",
        "numberOfBytes": "20"
      },
      "t_array(t_uint256)dyn_storage": {
        "base": "t_uint256",
        "encoding": "dynamic_array",
        "label": "uint256[]",
        "numberOfBytes": "32"
      },
      "t_bool": {
        "encoding": "inplace",
        "label": "bool",
        "numberOfBytes": "1"
      },
      "t_contract(NameRegistry)1920": {
        "encoding": "inplace",
        "label": "contract NameRegistry",
        "numberOfBytes": "20"
      },
      "t_mapping(t_address,t_bool)": {
        "encoding": "mapping",
        "key": "t_address",
        "label": "mapping(address => bool)",
        "numberOfBytes": "32",
        "value": "t_bool"
      },
      "t_mapping(t_address,t_mapping(t_address,t_bool))": {
        "encoding": "mapping",
        "key": "t_address",
        "label": "mapping(address => mapping(address => bool))",
        "numberOfBytes": "32",
        "value": "t_mapping(t_address,t_bool)"
      },
      "t_mapping(t_address,t_mapping(t_uint256,t_uint256))": {
        "encoding": "mapping",
        "key": "t_address",
        "label": "mapping(address => mapping(uint256 => uint256))",
        "numberOfBytes": "32",
        "value": "t_mapping(t_uint256,t_uint256)"
      },
      "t_mapping(t_address,t_uint256)": {
        "encoding": "mapping",
        "key": "t_address",
        "label": "mapping(address => uint256)",
        "numberOfBytes": "32",
        "value": "t_uint256"
      },
      "t_mapping(t_uint256,t_address)": {
        "encoding": "mapping",
        "key": "t_uint256",
        "label": "mapping(uint256 => address)",
        "numberOfBytes": "32",
        "value": "t_address"
      },
      "t_mapping(t_uint256,t_string_storage)": {
        "encoding": "mapping",
        "key": "t_uint256",
        "label": "mapping(uint256 => string)",
        "numberOfBytes": "32",
        "value": "t_string_storage"
      },
      "t_mapping(t_uint256,t_uint256)": {
        "encoding": "mapping",
        "key": "t_uint256",
        "label": "mapping(uint256 => uint256)",
        "numberOfBytes": "32",
        "value": "t_uint256"
      },
      "t_string_storage": {
        "encoding": "bytes",
        "label": "string",
        "numberOfBytes": "32"
      },
      "t_uint256": {
        "encoding": "inplace",
        "label": "uint256",
        "numberOfBytes": "32"
      }
    }
  }
}