{
  "address": "0xF7E7fA5730F99aEF0C17c0690FD3FEEC3b107c0e",
  "abi": [
    {
      "inputs": [
        {
          "internalType": "string",
          "name": "name_",
          "type": "string"
        },
        {
          "internalType": "string",
          "name": "symbol_",
          "type": "string"
        },
        {
          "internalType": "string",
          "name": "baseURI_",
          "type": "string"
        },
        {
          "internalType": "address",
          "name": "nameRegistry",
          "type": "address"
        }
      ],
      "stateMutability": "nonpayable",
      "type": "constructor"
    },
    {
      "anonymous": false,
      "inputs": [
        {
          "indexed": true,
          "internalType": "address",
          "name": "owner",
          "type": "address"
        },
        {
          "indexed": true,
          "internalType": "address",
          "name": "approved",
          "type": "address"
        },
        {
          "indexed": true,
          "internalType": "uint256",
          "name": "tokenId",
          "type": "uint256"
        }
      ],
      "name": "Approval",
      "type": "event"
    },
    {
      "anonymous": false,
      "inputs": [
        {
          "indexed": true,
          "internalType": "address",
          "name": "owner",
          "type": "address"
        },
        {
          "indexed": true,
          "internalType": "address",
          "name": "operator",
          "type": "address"
        },
        {
          "indexed": false,
          "internalType": "bool",
          "name": "approved",
          "type": "bool"
        }
      ],
      "name": "ApprovalForAll",
      "type": "event"
    },
    {
      "anonymous": false,
      "inputs": [
        {
          "indexed": true,
          "internalType": "address",
          "name": "from",
          "type": "address"
        },
        {
          "indexed": true,
          "internalType": "address",
          "name": "to",
          "type": "address"
        },
        {
          "indexed": true,
          "internalType": "uint256",
          "name": "tokenId",
          "type": "uint256"
        }
      ],
      "name": "Transfer",
      "type": "event"
    },
    {
      "inputs": [
        {
          "internalType": "address",
          "name": "to",
          "type": "address"
        },
        {
          "internalType": "uint256",
          "name": "tokenId",
          "type": "uint256"
        }
      ],
      "name": "approve",
      "outputs": [],
      "stateMutability": "nonpayable",
      "type": "function"
    },
    {
      "inputs": [
        {
          "internalType": "address",
          "name": "owner",
          "type": "address"
        }
      ],
      "name": "balanceOf",
      "outputs": [
        {
          "internalType": "uint256",
          "name": "",
          "type": "uint256"
        }
      ],
      "stateMutability": "view",
      "type": "function"
    },
    {
      "inputs": [
        {
          "internalType": "uint256",
          "name": "tokenId",
          "type": "uint256"
        }
      ],
      "name": "burn",
      "outputs": [],
      "stateMutability": "nonpayable",
      "type": "function"
    },
    {
      "inputs": [],
      "name": "distributionRightAddress",
      "outputs": [
        {
          "internalType": "address",
          "name": "",
          "type": "address"
        }
      ],
      "stateMutability": "view",
      "type": "function"
    },
    {
      "inputs": [
        {
          "internalType": "uint256",
          "name": "tokenId",
          "type": "uint256"
        }
      ],
      "name": "getApproved",
      "outputs": [
        {
          "internalType": "address",
          "name": "",
          "type": "address"
        }
      ],
      "stateMutability": "view",
      "type": "function"
    },
    {
      "inputs": [
        {
          "internalType": "address",
          "name": "owner",
          "type": "address"
        },
        {
          "internalType": "address",
          "name": "operator",
          "type": "address"
        }
      ],
      "name": "isApprovedForAll",
      "outputs": [
        {
          "internalType": "bool",
          "name": "",
          "type": "bool"
        }
      ],
      "stateMutability": "view",
      "type": "function"
    },
    {
      "inputs": [
        {
          "internalType": "address",
          "name": "account",
          "type": "address"
        },
        {
          "internalType": "uint256",
          "name": "tokenId",
          "type": "uint256"
        }
      ],
      "name": "mint",
      "outputs": [],
      "stateMutability": "nonpayable",
      "type": "function"
    },
    {
      "inputs": [],
      "name": "name",
      "outputs": [
        {
          "internalType": "string",
          "name": "",
          "type": "string"
        }
      ],
      "stateMutability": "view",
      "type": "function"
    },
    {
      "inputs": [],
      "name": "nameRegistryAddress",
      "outputs": [
        {
          "internalType": "address",
          "name": "",
          "type": "address"
        }
      ],
      "stateMutability": "view",
      "type": "function"
    },
    {
      "inputs": [],
      "name": "owner",
      "outputs": [
        {
          "internalType": "address",
          "name": "",
          "type": "address"
        }
      ],
      "stateMutability": "view",
      "type": "function"
    },
    {
      "inputs": [
        {
          "internalType": "uint256",
          "name": "tokenId",
          "type": "uint256"
        }
      ],
      "name": "ownerOf",
      "outputs": [
        {
          "internalType": "address",
          "name": "",
          "type": "address"
        }
      ],
      "stateMutability": "view",
      "type": "function"
    },
    {
      "inputs": [
        {
          "internalType": "address",
          "name": "from",
          "type": "address"
        },
        {
          "internalType": "address",
          "name": "to",
          "type": "address"
        },
        {
          "internalType": "uint256",
          "name": "tokenId",
          "type": "uint256"
        }
      ],
      "name": "safeTransferFrom",
      "outputs": [],
      "stateMutability": "nonpayable",
      "type": "function"
    },
    {
      "inputs": [
        {
          "internalType": "address",
          "name": "from",
          "type": "address"
        },
        {
          "internalType": "address",
          "name": "to",
          "type": "address"
        },
        {
          "internalType": "uint256",
          "name": "tokenId",
          "type": "uint256"
        },
        {
          "internalType": "bytes",
          "name": "_data",
          "type": "bytes"
        }
      ],
      "name": "safeTransferFrom",
      "outputs": [],
      "stateMutability": "nonpayable",
      "type": "function"
    },
    {
      "inputs": [
        {
          "internalType": "address",
          "name": "operator",
          "type": "address"
        },
        {
          "internalType": "bool",
          "name": "approved",
          "type": "bool"
        }
      ],
      "name": "setApprovalForAll",
      "outputs": [],
      "stateMutability": "nonpayable",
      "type": "function"
    },
    {
      "inputs": [
        {
          "internalType": "bytes4",
          "name": "interfaceId",
          "type": "bytes4"
        }
      ],
      "name": "supportsInterface",
      "outputs": [
        {
          "internalType": "bool",
          "name": "",
          "type": "bool"
        }
      ],
      "stateMutability": "view",
      "type": "function"
    },
    {
      "inputs": [],
      "name": "symbol",
      "outputs": [
        {
          "internalType": "string",
          "name": "",
          "type": "string"
        }
      ],
      "stateMutability": "view",
      "type": "function"
    },
    {
      "inputs": [
        {
          "internalType": "uint256",
          "name": "tokenId",
          "type": "uint256"
        }
      ],
      "name": "tokenURI",
      "outputs": [
        {
          "internalType": "string",
          "name": "",
          "type": "string"
        }
      ],
      "stateMutability": "view",
      "type": "function"
    },
    {
      "inputs": [
        {
          "internalType": "address",
          "name": "from",
          "type": "address"
        },
        {
          "internalType": "address",
          "name": "to",
          "type": "address"
        },
        {
          "internalType": "uint256",
          "name": "tokenId",
          "type": "uint256"
        }
      ],
      "name": "transferFrom",
      "outputs": [],
      "stateMutability": "nonpayable",
      "type": "function"
    },
    {
      "inputs": [],
      "name": "vaultAddress",
      "outputs": [
        {
          "internalType": "address",
          "name": "",
          "type": "address"
        }
      ],
      "stateMutability": "view",
      "type": "function"
    }
  ],
  "transactionHash": "0x6f897459c60026bad1ac1f86d8671a834972965b6796b82105f64b5d88b8a9fa",
  "args": [
    "DistributionRight",
    "AD_RIGHT",
    "https://xxx/",
    "0x83b8cD9BC87a5f910fc73646c0Fa623D4d3d7f3D"
  ],
  "solcInputHash": "59f6627ae8a4c493d626f4956d650c6f",
  "bytecode": "0x60806040523480156200001157600080fd5b5060405162001db238038062001db2833981016040819052620000349162000209565b80848484826000908051906020019062000050929190620000ac565b50815162000066906001906020850190620000ac565b5080516200007c906002906020840190620000ac565b5050600780546001600160a01b0319166001600160a01b039490941693909317909255506200030f945050505050565b828054620000ba90620002bc565b90600052602060002090601f016020900481019282620000de576000855562000129565b82601f10620000f957805160ff191683800117855562000129565b8280016001018555821562000129579182015b82811115620001295782518255916020019190600101906200010c565b50620001379291506200013b565b5090565b5b808211156200013757600081556001016200013c565b600082601f8301126200016457600080fd5b81516001600160401b0380821115620001815762000181620002f9565b604051601f8301601f19908116603f01168101908282118183101715620001ac57620001ac620002f9565b81604052838152602092508683858801011115620001c957600080fd5b600091505b83821015620001ed5785820183015181830184015290820190620001ce565b83821115620001ff5760008385830101525b9695505050505050565b600080600080608085870312156200022057600080fd5b84516001600160401b03808211156200023857600080fd5b620002468883890162000152565b955060208701519150808211156200025d57600080fd5b6200026b8883890162000152565b945060408701519150808211156200028257600080fd5b50620002918782880162000152565b606087015190935090506001600160a01b0381168114620002b157600080fd5b939692955090935050565b600181811c90821680620002d157607f821691505b60208210811415620002f357634e487b7160e01b600052602260045260246000fd5b50919050565b634e487b7160e01b600052604160045260246000fd5b611a93806200031f6000396000f3fe608060405234801561001057600080fd5b50600436106101515760003560e01c8063430bf08a116100cd578063a22cb46511610081578063b88d4fde11610066578063b88d4fde14610297578063c87b56dd146102aa578063e985e9c5146102bd57600080fd5b8063a22cb4651461027c578063ac6919a51461028f57600080fd5b806370a08231116100b257806370a082311461024b5780638da5cb5b1461026c57806395d89b411461027457600080fd5b8063430bf08a146102305780636352211e1461023857600080fd5b806323b872dd1161012457806340c10f191161010957806340c10f19146101f757806342842e0e1461020a57806342966c681461021d57600080fd5b806323b872dd146101d357806327b7a2f5146101e657600080fd5b806301ffc9a71461015657806306fdde031461017e578063081812fc14610193578063095ea7b3146101be575b600080fd5b610169610164366004611762565b6102f9565b60405190151581526020015b60405180910390f35b610186610396565b60405161017591906118e0565b6101a66101a136600461179c565b610428565b6040516001600160a01b039091168152602001610175565b6101d16101cc366004611719565b6104c2565b005b6101d16101e13660046115ca565b6105f4565b6007546001600160a01b03166101a6565b6101d1610205366004611719565b61067b565b6101d16102183660046115ca565b610738565b6101d161022b36600461179c565b610753565b6101a661080e565b6101a661024636600461179c565b6108da565b61025e610259366004611550565b610965565b604051908152602001610175565b6101a66109ff565b610186610a5d565b6101d161028a3660046116eb565b610a6c565b6101a6610b31565b6101d16102a536600461160b565b610b78565b6101866102b836600461179c565b610c06565b6101696102cb366004611591565b6001600160a01b03918216600090815260066020908152604080832093909416825291909152205460ff1690565b60006001600160e01b031982167f80ac58cd00000000000000000000000000000000000000000000000000000000148061035c57506001600160e01b031982167f5b5e139f00000000000000000000000000000000000000000000000000000000145b8061039057507f01ffc9a7000000000000000000000000000000000000000000000000000000006001600160e01b03198316145b92915050565b6060600080546103a590611962565b80601f01602080910402602001604051908101604052809291908181526020018280546103d190611962565b801561041e5780601f106103f35761010080835404028352916020019161041e565b820191906000526020600020905b81548152906001019060200180831161040157829003601f168201915b5050505050905090565b6000818152600360205260408120546001600160a01b03166104a65760405162461bcd60e51b815260206004820152602c60248201527f4552433732313a20617070726f76656420717565727920666f72206e6f6e657860448201526b34b9ba32b73a103a37b5b2b760a11b60648201526084015b60405180910390fd5b506000908152600560205260409020546001600160a01b031690565b60006104cd826108da565b9050806001600160a01b0316836001600160a01b031614156105575760405162461bcd60e51b815260206004820152602160248201527f4552433732313a20617070726f76616c20746f2063757272656e74206f776e6560448201527f7200000000000000000000000000000000000000000000000000000000000000606482015260840161049d565b336001600160a01b0382161480610573575061057381336102cb565b6105e55760405162461bcd60e51b815260206004820152603860248201527f4552433732313a20617070726f76652063616c6c6572206973206e6f74206f7760448201527f6e6572206e6f7220617070726f76656420666f7220616c6c0000000000000000606482015260840161049d565b6105ef8383610cef565b505050565b6105fe3382610d6a565b6106705760405162461bcd60e51b815260206004820152603160248201527f4552433732313a207472616e736665722063616c6c6572206973206e6f74206f60448201527f776e6572206e6f7220617070726f766564000000000000000000000000000000606482015260840161049d565b6105ef838383610e61565b6007546040516351e0e26b60e01b81523360048201526001600160a01b03909116906351e0e26b9060240160206040518083038186803b1580156106be57600080fd5b505afa1580156106d2573d6000803e3d6000fd5b505050506040513d601f19601f820116820180604052508101906106f69190611745565b61072a5760405162461bcd60e51b8152602060048201526005602482015264415232303160d81b604482015260640161049d565b610734828261103b565b5050565b6105ef83838360405180602001604052806000815250610b78565b6007546040516351e0e26b60e01b81523360048201526001600160a01b03909116906351e0e26b9060240160206040518083038186803b15801561079657600080fd5b505afa1580156107aa573d6000803e3d6000fd5b505050506040513d601f19601f820116820180604052508101906107ce9190611745565b6108025760405162461bcd60e51b8152602060048201526005602482015264415232303160d81b604482015260640161049d565b61080b8161118a565b50565b6007546040517f5661756c7400000000000000000000000000000000000000000000000000000060208201526000916001600160a01b031690638eaa6ac0906025015b604051602081830303815290604052805190602001206040518263ffffffff1660e01b815260040161088591815260200190565b60206040518083038186803b15801561089d57600080fd5b505afa1580156108b1573d6000803e3d6000fd5b505050506040513d601f19601f820116820180604052508101906108d59190611574565b905090565b6000818152600360205260408120546001600160a01b0316806103905760405162461bcd60e51b815260206004820152602960248201527f4552433732313a206f776e657220717565727920666f72206e6f6e657869737460448201527f656e7420746f6b656e0000000000000000000000000000000000000000000000606482015260840161049d565b60006001600160a01b0382166109e35760405162461bcd60e51b815260206004820152602a60248201527f4552433732313a2062616c616e636520717565727920666f7220746865207a6560448201527f726f206164647265737300000000000000000000000000000000000000000000606482015260840161049d565b506001600160a01b031660009081526004602052604090205490565b600754604080517f8da5cb5b00000000000000000000000000000000000000000000000000000000815290516000926001600160a01b031691638da5cb5b916004808301926020929190829003018186803b15801561089d57600080fd5b6060600180546103a590611962565b6001600160a01b038216331415610ac55760405162461bcd60e51b815260206004820152601960248201527f4552433732313a20617070726f766520746f2063616c6c657200000000000000604482015260640161049d565b3360008181526006602090815260408083206001600160a01b03871680855290835292819020805460ff191686151590811790915590519081529192917f17307eab39ab6107e8899845ad3d59bd9653f200f220920489ca2b5937696c31910160405180910390a35050565b6007546040517f446973747269627574696f6e526967687400000000000000000000000000000060208201526000916001600160a01b031690638eaa6ac090603101610851565b610b823383610d6a565b610bf45760405162461bcd60e51b815260206004820152603160248201527f4552433732313a207472616e736665722063616c6c6572206973206e6f74206f60448201527f776e6572206e6f7220617070726f766564000000000000000000000000000000606482015260840161049d565b610c0084848484611232565b50505050565b6000818152600360205260409020546060906001600160a01b0316610c935760405162461bcd60e51b815260206004820152602f60248201527f4552433732314d657461646174613a2055524920717565727920666f72206e6f60448201527f6e6578697374656e7420746f6b656e0000000000000000000000000000000000606482015260840161049d565b600060028054610ca290611962565b905011610cbe5760405180602001604052806000815250610390565b6002610cc9836112bb565b604051602001610cda9291906117fd565b60405160208183030381529060405292915050565b6000818152600560205260409020805473ffffffffffffffffffffffffffffffffffffffff19166001600160a01b0384169081179091558190610d31826108da565b6001600160a01b03167f8c5be1e5ebec7d5bd14f71427d1e84f3dd0314c0f7b2291e5b200ac8c7c3b92560405160405180910390a45050565b6000818152600360205260408120546001600160a01b0316610de35760405162461bcd60e51b815260206004820152602c60248201527f4552433732313a206f70657261746f7220717565727920666f72206e6f6e657860448201526b34b9ba32b73a103a37b5b2b760a11b606482015260840161049d565b6000610dee836108da565b9050806001600160a01b0316846001600160a01b03161480610e295750836001600160a01b0316610e1e84610428565b6001600160a01b0316145b80610e5957506001600160a01b0380821660009081526006602090815260408083209388168352929052205460ff165b949350505050565b826001600160a01b0316610e74826108da565b6001600160a01b031614610ef05760405162461bcd60e51b815260206004820152602960248201527f4552433732313a207472616e73666572206f6620746f6b656e2074686174206960448201527f73206e6f74206f776e0000000000000000000000000000000000000000000000606482015260840161049d565b6001600160a01b038216610f6b5760405162461bcd60e51b8152602060048201526024808201527f4552433732313a207472616e7366657220746f20746865207a65726f2061646460448201527f7265737300000000000000000000000000000000000000000000000000000000606482015260840161049d565b610f76600082610cef565b6001600160a01b0383166000908152600460205260408120805460019290610f9f90849061191f565b90915550506001600160a01b0382166000908152600460205260408120805460019290610fcd9084906118f3565b9091555050600081815260036020526040808220805473ffffffffffffffffffffffffffffffffffffffff19166001600160a01b0386811691821790925591518493918716917fddf252ad1be2c89b69c2b068fc378daa952ba7f163c4a11628f55a4df523b3ef91a4505050565b6001600160a01b0382166110915760405162461bcd60e51b815260206004820181905260248201527f4552433732313a206d696e7420746f20746865207a65726f2061646472657373604482015260640161049d565b6000818152600360205260409020546001600160a01b0316156110f65760405162461bcd60e51b815260206004820152601c60248201527f4552433732313a20746f6b656e20616c7265616479206d696e74656400000000604482015260640161049d565b6001600160a01b038216600090815260046020526040812080546001929061111f9084906118f3565b9091555050600081815260036020526040808220805473ffffffffffffffffffffffffffffffffffffffff19166001600160a01b03861690811790915590518392907fddf252ad1be2c89b69c2b068fc378daa952ba7f163c4a11628f55a4df523b3ef908290a45050565b6000611195826108da565b90506111a2600083610cef565b6001600160a01b03811660009081526004602052604081208054600192906111cb90849061191f565b9091555050600082815260036020526040808220805473ffffffffffffffffffffffffffffffffffffffff19169055518391906001600160a01b038416907fddf252ad1be2c89b69c2b068fc378daa952ba7f163c4a11628f55a4df523b3ef908390a45050565b61123d848484610e61565b611249848484846113ed565b610c005760405162461bcd60e51b815260206004820152603260248201527f4552433732313a207472616e7366657220746f206e6f6e20455243373231526560448201527f63656976657220696d706c656d656e7465720000000000000000000000000000606482015260840161049d565b6060816112fb57505060408051808201909152600181527f3000000000000000000000000000000000000000000000000000000000000000602082015290565b8160005b8115611325578061130f8161199d565b915061131e9050600a8361190b565b91506112ff565b60008167ffffffffffffffff81111561134057611340611a0e565b6040519080825280601f01601f19166020018201604052801561136a576020820181803683370190505b5090505b8415610e595761137f60018361191f565b915061138c600a866119b8565b6113979060306118f3565b60f81b8183815181106113ac576113ac6119f8565b60200101907effffffffffffffffffffffffffffffffffffffffffffffffffffffffffffff1916908160001a9053506113e6600a8661190b565b945061136e565b60006001600160a01b0384163b1561154557604051630a85bd0160e11b81526001600160a01b0385169063150b7a02906114319033908990889088906004016118a4565b602060405180830381600087803b15801561144b57600080fd5b505af192505050801561147b575060408051601f3d908101601f191682019092526114789181019061177f565b60015b61152b573d8080156114a9576040519150601f19603f3d011682016040523d82523d6000602084013e6114ae565b606091505b5080516115235760405162461bcd60e51b815260206004820152603260248201527f4552433732313a207472616e7366657220746f206e6f6e20455243373231526560448201527f63656976657220696d706c656d656e7465720000000000000000000000000000606482015260840161049d565b805181602001fd5b6001600160e01b031916630a85bd0160e11b149050610e59565b506001949350505050565b60006020828403121561156257600080fd5b813561156d81611a24565b9392505050565b60006020828403121561158657600080fd5b815161156d81611a24565b600080604083850312156115a457600080fd5b82356115af81611a24565b915060208301356115bf81611a24565b809150509250929050565b6000806000606084860312156115df57600080fd5b83356115ea81611a24565b925060208401356115fa81611a24565b929592945050506040919091013590565b6000806000806080858703121561162157600080fd5b843561162c81611a24565b9350602085013561163c81611a24565b925060408501359150606085013567ffffffffffffffff8082111561166057600080fd5b818701915087601f83011261167457600080fd5b81358181111561168657611686611a0e565b604051601f8201601f19908116603f011681019083821181831017156116ae576116ae611a0e565b816040528281528a60208487010111156116c757600080fd5b82602086016020830137600060208483010152809550505050505092959194509250565b600080604083850312156116fe57600080fd5b823561170981611a24565b915060208301356115bf81611a39565b6000806040838503121561172c57600080fd5b823561173781611a24565b946020939093013593505050565b60006020828403121561175757600080fd5b815161156d81611a39565b60006020828403121561177457600080fd5b813561156d81611a47565b60006020828403121561179157600080fd5b815161156d81611a47565b6000602082840312156117ae57600080fd5b5035919050565b600081518084526117cd816020860160208601611936565b601f01601f19169290920160200192915050565b600081516117f3818560208601611936565b9290920192915050565b600080845481600182811c91508083168061181957607f831692505b602080841082141561183957634e487b7160e01b86526022600452602486fd5b81801561184d576001811461185e5761188b565b60ff1986168952848901965061188b565b60008b81526020902060005b868110156118835781548b82015290850190830161186a565b505084890196505b50505050505061189b81856117e1565b95945050505050565b60006001600160a01b038087168352808616602084015250836040830152608060608301526118d660808301846117b5565b9695505050505050565b60208152600061156d60208301846117b5565b60008219821115611906576119066119cc565b500190565b60008261191a5761191a6119e2565b500490565b600082821015611931576119316119cc565b500390565b60005b83811015611951578181015183820152602001611939565b83811115610c005750506000910152565b600181811c9082168061197657607f821691505b6020821081141561199757634e487b7160e01b600052602260045260246000fd5b50919050565b60006000198214156119b1576119b16119cc565b5060010190565b6000826119c7576119c76119e2565b500690565b634e487b7160e01b600052601160045260246000fd5b634e487b7160e01b600052601260045260246000fd5b634e487b7160e01b600052603260045260246000fd5b634e487b7160e01b600052604160045260246000fd5b6001600160a01b038116811461080b57600080fd5b801515811461080b57600080fd5b6001600160e01b03198116811461080b57600080fdfea26469706673582212208adc388fc655c89b54ae5f8e81547f9f14fa2f9ce711e99ada387a1aa5345b3f64736f6c63430008060033",
  "devdoc": {
    "author": "Shumpei Koike - <shumpei.koike@bridges.inc>",
    "kind": "dev",
    "methods": {
      "approve(address,uint256)": {
        "details": "See {IERC721-approve}."
      },
      "balanceOf(address)": {
        "details": "See {IERC721-balanceOf}."
      },
      "burn(uint256)": {
        "details": "Burns the NFT.",
        "params": {
          "tokenId": "uint256 of the token ID"
        }
      },
      "constructor": {
        "details": "Initializes NFT",
        "params": {
          "baseURI_": "string of the base URI",
          "nameRegistry": "address of NameRegistry",
          "name_": "string of the token name",
          "symbol_": "string of the token symbol"
        }
      },
      "distributionRightAddress()": {
        "details": "Gets the address of DistributionRight."
      },
      "getApproved(uint256)": {
        "details": "See {IERC721-getApproved}."
      },
      "isApprovedForAll(address,address)": {
        "details": "See {IERC721-isApprovedForAll}."
      },
      "mint(address,uint256)": {
        "details": "Mints a new NFT.",
        "params": {
          "account": "address of the token owner",
          "tokenId": "uint256 of the token ID"
        }
      },
      "name()": {
        "details": "See {IERC721Metadata-name}."
      },
      "nameRegistryAddress()": {
        "details": "Gets the address of NameRegistry"
      },
      "owner()": {
        "details": "Gets the owner address."
      },
      "ownerOf(uint256)": {
        "details": "See {IERC721-ownerOf}."
      },
      "safeTransferFrom(address,address,uint256)": {
        "details": "See {IERC721-safeTransferFrom}."
      },
      "safeTransferFrom(address,address,uint256,bytes)": {
        "details": "See {IERC721-safeTransferFrom}."
      },
      "setApprovalForAll(address,bool)": {
        "details": "See {IERC721-setApprovalForAll}."
      },
      "supportsInterface(bytes4)": {
        "details": "See {IERC165-supportsInterface}."
      },
      "symbol()": {
        "details": "See {IERC721Metadata-symbol}."
      },
      "tokenURI(uint256)": {
        "details": "See {IERC721Metadata-tokenURI}."
      },
      "transferFrom(address,address,uint256)": {
        "details": "See {IERC721-transferFrom}."
      },
      "vaultAddress()": {
        "details": "Gets the address of Vault."
      }
    },
    "title": "DistributionRight - represents advertising distribution rights.",
    "version": 1
  },
  "userdoc": {
    "kind": "user",
    "methods": {},
    "version": 1
  },
  "storageLayout": {
    "storage": [
      {
        "astId": 1735,
        "contract": "contracts/token/DistributionRight.sol:DistributionRight",
        "label": "_name",
        "offset": 0,
        "slot": "0",
        "type": "t_string_storage"
      },
      {
        "astId": 1737,
        "contract": "contracts/token/DistributionRight.sol:DistributionRight",
        "label": "_symbol",
        "offset": 0,
        "slot": "1",
        "type": "t_string_storage"
      },
      {
        "astId": 1739,
        "contract": "contracts/token/DistributionRight.sol:DistributionRight",
        "label": "_baseURI",
        "offset": 0,
        "slot": "2",
        "type": "t_string_storage"
      },
      {
        "astId": 1743,
        "contract": "contracts/token/DistributionRight.sol:DistributionRight",
        "label": "_owners",
        "offset": 0,
        "slot": "3",
        "type": "t_mapping(t_uint256,t_address)"
      },
      {
        "astId": 1747,
        "contract": "contracts/token/DistributionRight.sol:DistributionRight",
        "label": "_balances",
        "offset": 0,
        "slot": "4",
        "type": "t_mapping(t_address,t_uint256)"
      },
      {
        "astId": 1751,
        "contract": "contracts/token/DistributionRight.sol:DistributionRight",
        "label": "_tokenApprovals",
        "offset": 0,
        "slot": "5",
        "type": "t_mapping(t_uint256,t_address)"
      },
      {
        "astId": 1757,
        "contract": "contracts/token/DistributionRight.sol:DistributionRight",
        "label": "_operatorApprovals",
        "offset": 0,
        "slot": "6",
        "type": "t_mapping(t_address,t_mapping(t_address,t_bool))"
      },
      {
        "astId": 526,
        "contract": "contracts/token/DistributionRight.sol:DistributionRight",
        "label": "_nameRegistry",
        "offset": 0,
        "slot": "7",
        "type": "t_contract(NameRegistry)691"
      }
    ],
    "types": {
      "t_address": {
        "encoding": "inplace",
        "label": "address",
        "numberOfBytes": "20"
      },
      "t_bool": {
        "encoding": "inplace",
        "label": "bool",
        "numberOfBytes": "1"
      },
      "t_contract(NameRegistry)691": {
        "encoding": "inplace",
        "label": "contract NameRegistry",
        "numberOfBytes": "20"
      },
      "t_mapping(t_address,t_bool)": {
        "encoding": "mapping",
        "key": "t_address",
        "label": "mapping(address => bool)",
        "numberOfBytes": "32",
        "value": "t_bool"
      },
      "t_mapping(t_address,t_mapping(t_address,t_bool))": {
        "encoding": "mapping",
        "key": "t_address",
        "label": "mapping(address => mapping(address => bool))",
        "numberOfBytes": "32",
        "value": "t_mapping(t_address,t_bool)"
      },
      "t_mapping(t_address,t_uint256)": {
        "encoding": "mapping",
        "key": "t_address",
        "label": "mapping(address => uint256)",
        "numberOfBytes": "32",
        "value": "t_uint256"
      },
      "t_mapping(t_uint256,t_address)": {
        "encoding": "mapping",
        "key": "t_uint256",
        "label": "mapping(uint256 => address)",
        "numberOfBytes": "32",
        "value": "t_address"
      },
      "t_string_storage": {
        "encoding": "bytes",
        "label": "string",
        "numberOfBytes": "32"
      },
      "t_uint256": {
        "encoding": "inplace",
        "label": "uint256",
        "numberOfBytes": "32"
      }
    }
  }
}