{
  "address": "0xdfc94456D89d1BD2209fC73D5fc5a2F3d2eA6671",
  "abi": [
    {
      "inputs": [
        {
          "internalType": "string",
          "name": "name_",
          "type": "string"
        },
        {
          "internalType": "string",
          "name": "symbol_",
          "type": "string"
        },
        {
          "internalType": "string",
          "name": "baseURI_",
          "type": "string"
        },
        {
          "internalType": "address",
          "name": "nameRegistry",
          "type": "address"
        }
      ],
      "stateMutability": "nonpayable",
      "type": "constructor"
    },
    {
      "anonymous": false,
      "inputs": [
        {
          "indexed": true,
          "internalType": "address",
          "name": "owner",
          "type": "address"
        },
        {
          "indexed": true,
          "internalType": "address",
          "name": "approved",
          "type": "address"
        },
        {
          "indexed": true,
          "internalType": "uint256",
          "name": "tokenId",
          "type": "uint256"
        }
      ],
      "name": "Approval",
      "type": "event"
    },
    {
      "anonymous": false,
      "inputs": [
        {
          "indexed": true,
          "internalType": "address",
          "name": "owner",
          "type": "address"
        },
        {
          "indexed": true,
          "internalType": "address",
          "name": "operator",
          "type": "address"
        },
        {
          "indexed": false,
          "internalType": "bool",
          "name": "approved",
          "type": "bool"
        }
      ],
      "name": "ApprovalForAll",
      "type": "event"
    },
    {
      "anonymous": false,
      "inputs": [
        {
          "indexed": true,
          "internalType": "address",
          "name": "from",
          "type": "address"
        },
        {
          "indexed": true,
          "internalType": "address",
          "name": "to",
          "type": "address"
        },
        {
          "indexed": true,
          "internalType": "uint256",
          "name": "tokenId",
          "type": "uint256"
        }
      ],
      "name": "Transfer",
      "type": "event"
    },
    {
      "inputs": [],
      "name": "adPoolAddress",
      "outputs": [
        {
          "internalType": "address",
          "name": "",
          "type": "address"
        }
      ],
      "stateMutability": "view",
      "type": "function"
    },
    {
      "inputs": [
        {
          "internalType": "address",
          "name": "to",
          "type": "address"
        },
        {
          "internalType": "uint256",
          "name": "tokenId",
          "type": "uint256"
        }
      ],
      "name": "approve",
      "outputs": [],
      "stateMutability": "nonpayable",
      "type": "function"
    },
    {
      "inputs": [
        {
          "internalType": "address",
          "name": "owner",
          "type": "address"
        }
      ],
      "name": "balanceOf",
      "outputs": [
        {
          "internalType": "uint256",
          "name": "",
          "type": "uint256"
        }
      ],
      "stateMutability": "view",
      "type": "function"
    },
    {
      "inputs": [
        {
          "internalType": "uint256",
          "name": "tokenId",
          "type": "uint256"
        }
      ],
      "name": "burn",
      "outputs": [],
      "stateMutability": "nonpayable",
      "type": "function"
    },
    {
      "inputs": [],
      "name": "distributionRightAddress",
      "outputs": [
        {
          "internalType": "address",
          "name": "",
          "type": "address"
        }
      ],
      "stateMutability": "view",
      "type": "function"
    },
    {
      "inputs": [
        {
          "internalType": "uint256",
          "name": "tokenId",
          "type": "uint256"
        }
      ],
      "name": "getApproved",
      "outputs": [
        {
          "internalType": "address",
          "name": "",
          "type": "address"
        }
      ],
      "stateMutability": "view",
      "type": "function"
    },
    {
      "inputs": [
        {
          "internalType": "address",
          "name": "owner",
          "type": "address"
        },
        {
          "internalType": "address",
          "name": "operator",
          "type": "address"
        }
      ],
      "name": "isApprovedForAll",
      "outputs": [
        {
          "internalType": "bool",
          "name": "",
          "type": "bool"
        }
      ],
      "stateMutability": "view",
      "type": "function"
    },
    {
      "inputs": [
        {
          "internalType": "address",
          "name": "account",
          "type": "address"
        },
        {
          "internalType": "uint256",
          "name": "tokenId",
          "type": "uint256"
        },
        {
          "internalType": "string",
          "name": "metadata",
          "type": "string"
        }
      ],
      "name": "mint",
      "outputs": [],
      "stateMutability": "nonpayable",
      "type": "function"
    },
    {
      "inputs": [],
      "name": "name",
      "outputs": [
        {
          "internalType": "string",
          "name": "",
          "type": "string"
        }
      ],
      "stateMutability": "view",
      "type": "function"
    },
    {
      "inputs": [],
      "name": "nameRegistryAddress",
      "outputs": [
        {
          "internalType": "address",
          "name": "",
          "type": "address"
        }
      ],
      "stateMutability": "view",
      "type": "function"
    },
    {
      "inputs": [],
      "name": "owner",
      "outputs": [
        {
          "internalType": "address",
          "name": "",
          "type": "address"
        }
      ],
      "stateMutability": "view",
      "type": "function"
    },
    {
      "inputs": [
        {
          "internalType": "uint256",
          "name": "tokenId",
          "type": "uint256"
        }
      ],
      "name": "ownerOf",
      "outputs": [
        {
          "internalType": "address",
          "name": "",
          "type": "address"
        }
      ],
      "stateMutability": "view",
      "type": "function"
    },
    {
      "inputs": [],
      "name": "reservedRightAddress",
      "outputs": [
        {
          "internalType": "address",
          "name": "",
          "type": "address"
        }
      ],
      "stateMutability": "view",
      "type": "function"
    },
    {
      "inputs": [
        {
          "internalType": "address",
          "name": "from",
          "type": "address"
        },
        {
          "internalType": "address",
          "name": "to",
          "type": "address"
        },
        {
          "internalType": "uint256",
          "name": "tokenId",
          "type": "uint256"
        }
      ],
      "name": "safeTransferFrom",
      "outputs": [],
      "stateMutability": "nonpayable",
      "type": "function"
    },
    {
      "inputs": [
        {
          "internalType": "address",
          "name": "from",
          "type": "address"
        },
        {
          "internalType": "address",
          "name": "to",
          "type": "address"
        },
        {
          "internalType": "uint256",
          "name": "tokenId",
          "type": "uint256"
        },
        {
          "internalType": "bytes",
          "name": "_data",
          "type": "bytes"
        }
      ],
      "name": "safeTransferFrom",
      "outputs": [],
      "stateMutability": "nonpayable",
      "type": "function"
    },
    {
      "inputs": [
        {
          "internalType": "address",
          "name": "operator",
          "type": "address"
        },
        {
          "internalType": "bool",
          "name": "approved",
          "type": "bool"
        }
      ],
      "name": "setApprovalForAll",
      "outputs": [],
      "stateMutability": "nonpayable",
      "type": "function"
    },
    {
      "inputs": [
        {
          "internalType": "bytes4",
          "name": "interfaceId",
          "type": "bytes4"
        }
      ],
      "name": "supportsInterface",
      "outputs": [
        {
          "internalType": "bool",
          "name": "",
          "type": "bool"
        }
      ],
      "stateMutability": "view",
      "type": "function"
    },
    {
      "inputs": [],
      "name": "symbol",
      "outputs": [
        {
          "internalType": "string",
          "name": "",
          "type": "string"
        }
      ],
      "stateMutability": "view",
      "type": "function"
    },
    {
      "inputs": [
        {
          "internalType": "uint256",
          "name": "tokenId",
          "type": "uint256"
        }
      ],
      "name": "tokenURI",
      "outputs": [
        {
          "internalType": "string",
          "name": "",
          "type": "string"
        }
      ],
      "stateMutability": "view",
      "type": "function"
    },
    {
      "inputs": [
        {
          "internalType": "address",
          "name": "from",
          "type": "address"
        },
        {
          "internalType": "address",
          "name": "to",
          "type": "address"
        },
        {
          "internalType": "uint256",
          "name": "tokenId",
          "type": "uint256"
        }
      ],
      "name": "transferByAllowedContract",
      "outputs": [],
      "stateMutability": "nonpayable",
      "type": "function"
    },
    {
      "inputs": [
        {
          "internalType": "address",
          "name": "from",
          "type": "address"
        },
        {
          "internalType": "address",
          "name": "to",
          "type": "address"
        },
        {
          "internalType": "uint256",
          "name": "tokenId",
          "type": "uint256"
        }
      ],
      "name": "transferFrom",
      "outputs": [],
      "stateMutability": "nonpayable",
      "type": "function"
    },
    {
      "inputs": [],
      "name": "vaultAddress",
      "outputs": [
        {
          "internalType": "address",
          "name": "",
          "type": "address"
        }
      ],
      "stateMutability": "view",
      "type": "function"
    }
  ],
  "transactionHash": "0xf089911e527a9d43b9620ad51531a58becaade67a60c4660df54a1373b29277c",
  "args": [
    "DistributionRight",
    "AD_RIGHT",
    "ipfs://",
    "0x83b8cD9BC87a5f910fc73646c0Fa623D4d3d7f3D"
  ],
  "solcInputHash": "8212c2184ff8dd6d9991f02150a121e1",
  "bytecode": "0x60806040523480156200001157600080fd5b5060405162001f4b38038062001f4b833981016040819052620000349162000209565b80848484826000908051906020019062000050929190620000ac565b50815162000066906001906020850190620000ac565b5080516200007c906002906020840190620000ac565b5050600880546001600160a01b0319166001600160a01b039490941693909317909255506200030f945050505050565b828054620000ba90620002bc565b90600052602060002090601f016020900481019282620000de576000855562000129565b82601f10620000f957805160ff191683800117855562000129565b8280016001018555821562000129579182015b82811115620001295782518255916020019190600101906200010c565b50620001379291506200013b565b5090565b5b808211156200013757600081556001016200013c565b600082601f8301126200016457600080fd5b81516001600160401b0380821115620001815762000181620002f9565b604051601f8301601f19908116603f01168101908282118183101715620001ac57620001ac620002f9565b81604052838152602092508683858801011115620001c957600080fd5b600091505b83821015620001ed5785820183015181830184015290820190620001ce565b83821115620001ff5760008385830101525b9695505050505050565b600080600080608085870312156200022057600080fd5b84516001600160401b03808211156200023857600080fd5b620002468883890162000152565b955060208701519150808211156200025d57600080fd5b6200026b8883890162000152565b945060408701519150808211156200028257600080fd5b50620002918782880162000152565b606087015190935090506001600160a01b0381168114620002b157600080fd5b939692955090935050565b600181811c90821680620002d157607f821691505b60208210811415620002f357634e487b7160e01b600052602260045260246000fd5b50919050565b634e487b7160e01b600052604160045260246000fd5b611c2c806200031f6000396000f3fe608060405234801561001057600080fd5b50600436106101825760003560e01c806370a08231116100d8578063ac6919a51161008c578063c9cd71b511610066578063c9cd71b5146102f6578063d3fc9864146102fe578063e985e9c51461031157600080fd5b8063ac6919a5146102c8578063b88d4fde146102d0578063c87b56dd146102e357600080fd5b80638e9e614e116100bd5780638e9e614e1461029a57806395d89b41146102ad578063a22cb465146102b557600080fd5b806370a08231146102715780638da5cb5b1461029257600080fd5b806327b7a2f51161013a57806342966c681161011457806342966c6814610243578063430bf08a146102565780636352211e1461025e57600080fd5b806327b7a2f51461021757806329a594b51461022857806342842e0e1461023057600080fd5b8063081812fc1161016b578063081812fc146101c4578063095ea7b3146101ef57806323b872dd1461020457600080fd5b806301ffc9a71461018757806306fdde03146101af575b600080fd5b61019a610195366004611989565b61034d565b60405190151581526020015b60405180910390f35b6101b76103ea565b6040516101a69190611b14565b6101d76101d23660046119c3565b61047c565b6040516001600160a01b0390911681526020016101a6565b6102026101fd3660046118d3565b610516565b005b6102026102123660046117e4565b610648565b6008546001600160a01b03166101d7565b6101d76106cf565b61020261023e3660046117e4565b61079b565b6102026102513660046119c3565b6107b6565b6101d7610871565b6101d761026c3660046119c3565b6108b8565b61028461027f36600461176a565b610943565b6040519081526020016101a6565b6101d76109dd565b6102026102a83660046117e4565b610a3b565b6101b7610aea565b6102026102c33660046118a5565b610af9565b6101d7610bbe565b6102026102de366004611825565b610c05565b6101b76102f13660046119c3565b610c93565b6101d7610e0d565b61020261030c3660046118ff565b610e54565b61019a61031f3660046117ab565b6001600160a01b03918216600090815260076020908152604080832093909416825291909152205460ff1690565b60006001600160e01b031982167f80ac58cd0000000000000000000000000000000000000000000000000000000014806103b057506001600160e01b031982167f5b5e139f00000000000000000000000000000000000000000000000000000000145b806103e457507f01ffc9a7000000000000000000000000000000000000000000000000000000006001600160e01b03198316145b92915050565b6060600080546103f990611b56565b80601f016020809104026020016040519081016040528092919081815260200182805461042590611b56565b80156104725780601f1061044757610100808354040283529160200191610472565b820191906000526020600020905b81548152906001019060200180831161045557829003601f168201915b5050505050905090565b6000818152600460205260408120546001600160a01b03166104fa5760405162461bcd60e51b815260206004820152602c60248201527f4552433732313a20617070726f76656420717565727920666f72206e6f6e657860448201526b34b9ba32b73a103a37b5b2b760a11b60648201526084015b60405180910390fd5b506000908152600660205260409020546001600160a01b031690565b6000610521826108b8565b9050806001600160a01b0316836001600160a01b031614156105ab5760405162461bcd60e51b815260206004820152602160248201527f4552433732313a20617070726f76616c20746f2063757272656e74206f776e6560448201527f720000000000000000000000000000000000000000000000000000000000000060648201526084016104f1565b336001600160a01b03821614806105c757506105c7813361031f565b6106395760405162461bcd60e51b815260206004820152603860248201527f4552433732313a20617070726f76652063616c6c6572206973206e6f74206f7760448201527f6e6572206e6f7220617070726f76656420666f7220616c6c000000000000000060648201526084016104f1565b6106438383610f2c565b505050565b6106523382610fa7565b6106c45760405162461bcd60e51b815260206004820152603160248201527f4552433732313a207472616e736665722063616c6c6572206973206e6f74206f60448201527f776e6572206e6f7220617070726f76656400000000000000000000000000000060648201526084016104f1565b61064383838361109e565b6008546040517f526573657276656452696768740000000000000000000000000000000000000060208201526000916001600160a01b031690638eaa6ac090602d015b604051602081830303815290604052805190602001206040518263ffffffff1660e01b815260040161074691815260200190565b60206040518083038186803b15801561075e57600080fd5b505afa158015610772573d6000803e3d6000fd5b505050506040513d601f19601f82011682018060405250810190610796919061178e565b905090565b61064383838360405180602001604052806000815250610c05565b6008546040516351e0e26b60e01b81523360048201526001600160a01b03909116906351e0e26b9060240160206040518083038186803b1580156107f957600080fd5b505afa15801561080d573d6000803e3d6000fd5b505050506040513d601f19601f82011682018060405250810190610831919061196c565b6108655760405162461bcd60e51b8152602060048201526005602482015264415232303160d81b60448201526064016104f1565b61086e81611278565b50565b6008546040517f5661756c7400000000000000000000000000000000000000000000000000000060208201526000916001600160a01b031690638eaa6ac090602501610712565b6000818152600460205260408120546001600160a01b0316806103e45760405162461bcd60e51b815260206004820152602960248201527f4552433732313a206f776e657220717565727920666f72206e6f6e657869737460448201527f656e7420746f6b656e000000000000000000000000000000000000000000000060648201526084016104f1565b60006001600160a01b0382166109c15760405162461bcd60e51b815260206004820152602a60248201527f4552433732313a2062616c616e636520717565727920666f7220746865207a6560448201527f726f20616464726573730000000000000000000000000000000000000000000060648201526084016104f1565b506001600160a01b031660009081526005602052604090205490565b600854604080517f8da5cb5b00000000000000000000000000000000000000000000000000000000815290516000926001600160a01b031691638da5cb5b916004808301926020929190829003018186803b15801561075e57600080fd5b6008546040516351e0e26b60e01b81523360048201526001600160a01b03909116906351e0e26b9060240160206040518083038186803b158015610a7e57600080fd5b505afa158015610a92573d6000803e3d6000fd5b505050506040513d601f19601f82011682018060405250810190610ab6919061196c565b6106c45760405162461bcd60e51b8152602060048201526005602482015264415232303160d81b60448201526064016104f1565b6060600180546103f990611b56565b6001600160a01b038216331415610b525760405162461bcd60e51b815260206004820152601960248201527f4552433732313a20617070726f766520746f2063616c6c65720000000000000060448201526064016104f1565b3360008181526007602090815260408083206001600160a01b03871680855290835292819020805460ff191686151590811790915590519081529192917f17307eab39ab6107e8899845ad3d59bd9653f200f220920489ca2b5937696c31910160405180910390a35050565b6008546040517f446973747269627574696f6e526967687400000000000000000000000000000060208201526000916001600160a01b031690638eaa6ac090603101610712565b610c0f3383610fa7565b610c815760405162461bcd60e51b815260206004820152603160248201527f4552433732313a207472616e736665722063616c6c6572206973206e6f74206f60448201527f776e6572206e6f7220617070726f76656400000000000000000000000000000060648201526084016104f1565b610c8d84848484611320565b50505050565b6000818152600460205260409020546060906001600160a01b0316610d205760405162461bcd60e51b815260206004820152602f60248201527f4552433732314d657461646174613a2055524920717565727920666f72206e6f60448201527f6e6578697374656e7420746f6b656e000000000000000000000000000000000060648201526084016104f1565b600060028054610d2f90611b56565b905011610dd25760008281526003602052604090208054610d4f90611b56565b80601f0160208091040260200160405190810160405280929190818152602001828054610d7b90611b56565b8015610dc85780601f10610d9d57610100808354040283529160200191610dc8565b820191906000526020600020905b815481529060010190602001808311610dab57829003601f168201915b50505050506103e4565b600260036000848152602001908152602001600020604051602001610df8929190611ac3565b60405160208183030381529060405292915050565b6008546040517f4164506f6f6c000000000000000000000000000000000000000000000000000060208201526000916001600160a01b031690638eaa6ac090602601610712565b6008546040516351e0e26b60e01b81523360048201526001600160a01b03909116906351e0e26b9060240160206040518083038186803b158015610e9757600080fd5b505afa158015610eab573d6000803e3d6000fd5b505050506040513d601f19601f82011682018060405250810190610ecf919061196c565b610f035760405162461bcd60e51b8152602060048201526005602482015264415232303160d81b60448201526064016104f1565b610f0d83836113a9565b60008281526003602090815260409091208251610c8d9284019061165b565b6000818152600660205260409020805473ffffffffffffffffffffffffffffffffffffffff19166001600160a01b0384169081179091558190610f6e826108b8565b6001600160a01b03167f8c5be1e5ebec7d5bd14f71427d1e84f3dd0314c0f7b2291e5b200ac8c7c3b92560405160405180910390a45050565b6000818152600460205260408120546001600160a01b03166110205760405162461bcd60e51b815260206004820152602c60248201527f4552433732313a206f70657261746f7220717565727920666f72206e6f6e657860448201526b34b9ba32b73a103a37b5b2b760a11b60648201526084016104f1565b600061102b836108b8565b9050806001600160a01b0316846001600160a01b031614806110665750836001600160a01b031661105b8461047c565b6001600160a01b0316145b8061109657506001600160a01b0380821660009081526007602090815260408083209388168352929052205460ff165b949350505050565b826001600160a01b03166110b1826108b8565b6001600160a01b03161461112d5760405162461bcd60e51b815260206004820152602960248201527f4552433732313a207472616e73666572206f6620746f6b656e2074686174206960448201527f73206e6f74206f776e000000000000000000000000000000000000000000000060648201526084016104f1565b6001600160a01b0382166111a85760405162461bcd60e51b8152602060048201526024808201527f4552433732313a207472616e7366657220746f20746865207a65726f2061646460448201527f726573730000000000000000000000000000000000000000000000000000000060648201526084016104f1565b6111b3600082610f2c565b6001600160a01b03831660009081526005602052604081208054600192906111dc908490611b3f565b90915550506001600160a01b038216600090815260056020526040812080546001929061120a908490611b27565b9091555050600081815260046020526040808220805473ffffffffffffffffffffffffffffffffffffffff19166001600160a01b0386811691821790925591518493918716917fddf252ad1be2c89b69c2b068fc378daa952ba7f163c4a11628f55a4df523b3ef91a4505050565b6000611283826108b8565b9050611290600083610f2c565b6001600160a01b03811660009081526005602052604081208054600192906112b9908490611b3f565b9091555050600082815260046020526040808220805473ffffffffffffffffffffffffffffffffffffffff19169055518391906001600160a01b038416907fddf252ad1be2c89b69c2b068fc378daa952ba7f163c4a11628f55a4df523b3ef908390a45050565b61132b84848461109e565b611337848484846114f8565b610c8d5760405162461bcd60e51b815260206004820152603260248201527f4552433732313a207472616e7366657220746f206e6f6e20455243373231526560448201527f63656976657220696d706c656d656e746572000000000000000000000000000060648201526084016104f1565b6001600160a01b0382166113ff5760405162461bcd60e51b815260206004820181905260248201527f4552433732313a206d696e7420746f20746865207a65726f206164647265737360448201526064016104f1565b6000818152600460205260409020546001600160a01b0316156114645760405162461bcd60e51b815260206004820152601c60248201527f4552433732313a20746f6b656e20616c7265616479206d696e7465640000000060448201526064016104f1565b6001600160a01b038216600090815260056020526040812080546001929061148d908490611b27565b9091555050600081815260046020526040808220805473ffffffffffffffffffffffffffffffffffffffff19166001600160a01b03861690811790915590518392907fddf252ad1be2c89b69c2b068fc378daa952ba7f163c4a11628f55a4df523b3ef908290a45050565b60006001600160a01b0384163b1561165057604051630a85bd0160e11b81526001600160a01b0385169063150b7a029061153c903390899088908890600401611ad8565b602060405180830381600087803b15801561155657600080fd5b505af1925050508015611586575060408051601f3d908101601f19168201909252611583918101906119a6565b60015b611636573d8080156115b4576040519150601f19603f3d011682016040523d82523d6000602084013e6115b9565b606091505b50805161162e5760405162461bcd60e51b815260206004820152603260248201527f4552433732313a207472616e7366657220746f206e6f6e20455243373231526560448201527f63656976657220696d706c656d656e746572000000000000000000000000000060648201526084016104f1565b805181602001fd5b6001600160e01b031916630a85bd0160e11b149050611096565b506001949350505050565b82805461166790611b56565b90600052602060002090601f01602090048101928261168957600085556116cf565b82601f106116a257805160ff19168380011785556116cf565b828001600101855582156116cf579182015b828111156116cf5782518255916020019190600101906116b4565b506116db9291506116df565b5090565b5b808211156116db57600081556001016116e0565b600067ffffffffffffffff8084111561170f5761170f611ba7565b604051601f8501601f19908116603f0116810190828211818310171561173757611737611ba7565b8160405280935085815286868601111561175057600080fd5b858560208301376000602087830101525050509392505050565b60006020828403121561177c57600080fd5b813561178781611bbd565b9392505050565b6000602082840312156117a057600080fd5b815161178781611bbd565b600080604083850312156117be57600080fd5b82356117c981611bbd565b915060208301356117d981611bbd565b809150509250929050565b6000806000606084860312156117f957600080fd5b833561180481611bbd565b9250602084013561181481611bbd565b929592945050506040919091013590565b6000806000806080858703121561183b57600080fd5b843561184681611bbd565b9350602085013561185681611bbd565b925060408501359150606085013567ffffffffffffffff81111561187957600080fd5b8501601f8101871361188a57600080fd5b611899878235602084016116f4565b91505092959194509250565b600080604083850312156118b857600080fd5b82356118c381611bbd565b915060208301356117d981611bd2565b600080604083850312156118e657600080fd5b82356118f181611bbd565b946020939093013593505050565b60008060006060848603121561191457600080fd5b833561191f81611bbd565b925060208401359150604084013567ffffffffffffffff81111561194257600080fd5b8401601f8101861361195357600080fd5b611962868235602084016116f4565b9150509250925092565b60006020828403121561197e57600080fd5b815161178781611bd2565b60006020828403121561199b57600080fd5b813561178781611be0565b6000602082840312156119b857600080fd5b815161178781611be0565b6000602082840312156119d557600080fd5b5035919050565b6000815180845260005b81811015611a02576020818501810151868301820152016119e6565b81811115611a14576000602083870101525b50601f01601f19169290920160200192915050565b8054600090600181811c9080831680611a4357607f831692505b6020808410821415611a6557634e487b7160e01b600052602260045260246000fd5b818015611a795760018114611a8a57611ab7565b60ff19861689528489019650611ab7565b60008881526020902060005b86811015611aaf5781548b820152908501908301611a96565b505084890196505b50505050505092915050565b6000611096611ad28386611a29565b84611a29565b60006001600160a01b03808716835280861660208401525083604083015260806060830152611b0a60808301846119dc565b9695505050505050565b60208152600061178760208301846119dc565b60008219821115611b3a57611b3a611b91565b500190565b600082821015611b5157611b51611b91565b500390565b600181811c90821680611b6a57607f821691505b60208210811415611b8b57634e487b7160e01b600052602260045260246000fd5b50919050565b634e487b7160e01b600052601160045260246000fd5b634e487b7160e01b600052604160045260246000fd5b6001600160a01b038116811461086e57600080fd5b801515811461086e57600080fd5b6001600160e01b03198116811461086e57600080fdfea2646970667358221220aaaee3bcf922e7ad473e58fdce3cc2f65e4c3e1eae72895d799f87e7ecc246f064736f6c63430008060033",
  "devdoc": {
    "author": "Shumpei Koike - <shumpei.koike@bridges.inc>",
    "kind": "dev",
    "methods": {
      "adPoolAddress()": {
        "details": "Gets the address of AdPool."
      },
      "approve(address,uint256)": {
        "details": "See {IERC721-approve}."
      },
      "balanceOf(address)": {
        "details": "See {IERC721-balanceOf}."
      },
      "burn(uint256)": {
        "details": "Burns the NFT.",
        "params": {
          "tokenId": "uint256 of the token ID"
        }
      },
      "constructor": {
        "details": "Initializes NFT",
        "params": {
          "baseURI_": "string of the base URI",
          "nameRegistry": "address of NameRegistry",
          "name_": "string of the token name",
          "symbol_": "string of the token symbol"
        }
      },
      "distributionRightAddress()": {
        "details": "Gets the address of DistributionRight."
      },
      "getApproved(uint256)": {
        "details": "See {IERC721-getApproved}."
      },
      "isApprovedForAll(address,address)": {
        "details": "See {IERC721-isApprovedForAll}."
      },
      "mint(address,uint256,string)": {
        "details": "Mints a new NFT.",
        "params": {
          "account": "address of the token owner",
          "tokenId": "uint256 of the token ID"
        }
      },
      "name()": {
        "details": "See {IERC721Metadata-name}."
      },
      "nameRegistryAddress()": {
        "details": "Gets the address of NameRegistry"
      },
      "owner()": {
        "details": "Gets the owner address."
      },
      "ownerOf(uint256)": {
        "details": "See {IERC721-ownerOf}."
      },
      "reservedRightAddress()": {
        "details": "Gets the address of ReservedRight."
      },
      "safeTransferFrom(address,address,uint256)": {
        "details": "See {IERC721-safeTransferFrom}."
      },
      "safeTransferFrom(address,address,uint256,bytes)": {
        "details": "See {IERC721-safeTransferFrom}."
      },
      "setApprovalForAll(address,bool)": {
        "details": "See {IERC721-setApprovalForAll}."
      },
      "supportsInterface(bytes4)": {
        "details": "See {IERC165-supportsInterface}."
      },
      "symbol()": {
        "details": "See {IERC721Metadata-symbol}."
      },
      "tokenURI(uint256)": {
        "details": "See {IERC721Metadata-tokenURI}."
      },
      "transferByAllowedContract(address,address,uint256)": {
        "details": "Transfers the NFT.",
        "params": {
          "from": "address of the current owner",
          "to": "address of the next owner",
          "tokenId": "uint256 of the token ID"
        }
      },
      "transferFrom(address,address,uint256)": {
        "details": "See {IERC721-transferFrom}."
      },
      "vaultAddress()": {
        "details": "Gets the address of Vault."
      }
    },
    "title": "DistributionRight - represents advertising distribution rights.",
    "version": 1
  },
  "userdoc": {
    "kind": "user",
    "methods": {},
    "version": 1
  },
  "storageLayout": {
    "storage": [
      {
        "astId": 2111,
        "contract": "contracts/token/DistributionRight.sol:DistributionRight",
        "label": "_name",
        "offset": 0,
        "slot": "0",
        "type": "t_string_storage"
      },
      {
        "astId": 2113,
        "contract": "contracts/token/DistributionRight.sol:DistributionRight",
        "label": "_symbol",
        "offset": 0,
        "slot": "1",
        "type": "t_string_storage"
      },
      {
        "astId": 2115,
        "contract": "contracts/token/DistributionRight.sol:DistributionRight",
        "label": "_baseURI",
        "offset": 0,
        "slot": "2",
        "type": "t_string_storage"
      },
      {
        "astId": 2119,
        "contract": "contracts/token/DistributionRight.sol:DistributionRight",
        "label": "_tokenURIs",
        "offset": 0,
        "slot": "3",
        "type": "t_mapping(t_uint256,t_string_storage)"
      },
      {
        "astId": 2123,
        "contract": "contracts/token/DistributionRight.sol:DistributionRight",
        "label": "_owners",
        "offset": 0,
        "slot": "4",
        "type": "t_mapping(t_uint256,t_address)"
      },
      {
        "astId": 2127,
        "contract": "contracts/token/DistributionRight.sol:DistributionRight",
        "label": "_balances",
        "offset": 0,
        "slot": "5",
        "type": "t_mapping(t_address,t_uint256)"
      },
      {
        "astId": 2131,
        "contract": "contracts/token/DistributionRight.sol:DistributionRight",
        "label": "_tokenApprovals",
        "offset": 0,
        "slot": "6",
        "type": "t_mapping(t_uint256,t_address)"
      },
      {
        "astId": 2137,
        "contract": "contracts/token/DistributionRight.sol:DistributionRight",
        "label": "_operatorApprovals",
        "offset": 0,
        "slot": "7",
        "type": "t_mapping(t_address,t_mapping(t_address,t_bool))"
      },
      {
        "astId": 526,
        "contract": "contracts/token/DistributionRight.sol:DistributionRight",
        "label": "_nameRegistry",
        "offset": 0,
        "slot": "8",
        "type": "t_contract(NameRegistry)725"
      }
    ],
    "types": {
      "t_address": {
        "encoding": "inplace",
        "label": "address",
        "numberOfBytes": "20"
      },
      "t_bool": {
        "encoding": "inplace",
        "label": "bool",
        "numberOfBytes": "1"
      },
      "t_contract(NameRegistry)725": {
        "encoding": "inplace",
        "label": "contract NameRegistry",
        "numberOfBytes": "20"
      },
      "t_mapping(t_address,t_bool)": {
        "encoding": "mapping",
        "key": "t_address",
        "label": "mapping(address => bool)",
        "numberOfBytes": "32",
        "value": "t_bool"
      },
      "t_mapping(t_address,t_mapping(t_address,t_bool))": {
        "encoding": "mapping",
        "key": "t_address",
        "label": "mapping(address => mapping(address => bool))",
        "numberOfBytes": "32",
        "value": "t_mapping(t_address,t_bool)"
      },
      "t_mapping(t_address,t_uint256)": {
        "encoding": "mapping",
        "key": "t_address",
        "label": "mapping(address => uint256)",
        "numberOfBytes": "32",
        "value": "t_uint256"
      },
      "t_mapping(t_uint256,t_address)": {
        "encoding": "mapping",
        "key": "t_uint256",
        "label": "mapping(uint256 => address)",
        "numberOfBytes": "32",
        "value": "t_address"
      },
      "t_mapping(t_uint256,t_string_storage)": {
        "encoding": "mapping",
        "key": "t_uint256",
        "label": "mapping(uint256 => string)",
        "numberOfBytes": "32",
        "value": "t_string_storage"
      },
      "t_string_storage": {
        "encoding": "bytes",
        "label": "string",
        "numberOfBytes": "32"
      },
      "t_uint256": {
        "encoding": "inplace",
        "label": "uint256",
        "numberOfBytes": "32"
      }
    }
  }
}