{
  "address": "0xB41CDF943cDE395a73f2840bfe9f2d42119D33c2",
  "abi": [
    {
      "inputs": [
        {
          "internalType": "string",
          "name": "name_",
          "type": "string"
        },
        {
          "internalType": "string",
          "name": "symbol_",
          "type": "string"
        },
        {
          "internalType": "string",
          "name": "baseURI_",
          "type": "string"
        },
        {
          "internalType": "address",
          "name": "nameRegistry",
          "type": "address"
        }
      ],
      "stateMutability": "nonpayable",
      "type": "constructor"
    },
    {
      "anonymous": false,
      "inputs": [
        {
          "indexed": true,
          "internalType": "address",
          "name": "owner",
          "type": "address"
        },
        {
          "indexed": true,
          "internalType": "address",
          "name": "approved",
          "type": "address"
        },
        {
          "indexed": true,
          "internalType": "uint256",
          "name": "tokenId",
          "type": "uint256"
        }
      ],
      "name": "Approval",
      "type": "event"
    },
    {
      "anonymous": false,
      "inputs": [
        {
          "indexed": true,
          "internalType": "address",
          "name": "owner",
          "type": "address"
        },
        {
          "indexed": true,
          "internalType": "address",
          "name": "operator",
          "type": "address"
        },
        {
          "indexed": false,
          "internalType": "bool",
          "name": "approved",
          "type": "bool"
        }
      ],
      "name": "ApprovalForAll",
      "type": "event"
    },
    {
      "anonymous": false,
      "inputs": [
        {
          "indexed": true,
          "internalType": "address",
          "name": "from",
          "type": "address"
        },
        {
          "indexed": true,
          "internalType": "address",
          "name": "to",
          "type": "address"
        },
        {
          "indexed": true,
          "internalType": "uint256",
          "name": "tokenId",
          "type": "uint256"
        }
      ],
      "name": "Transfer",
      "type": "event"
    },
    {
      "inputs": [],
      "name": "adPoolAddress",
      "outputs": [
        {
          "internalType": "address",
          "name": "",
          "type": "address"
        }
      ],
      "stateMutability": "view",
      "type": "function"
    },
    {
      "inputs": [
        {
          "internalType": "address",
          "name": "to",
          "type": "address"
        },
        {
          "internalType": "uint256",
          "name": "tokenId",
          "type": "uint256"
        }
      ],
      "name": "approve",
      "outputs": [],
      "stateMutability": "nonpayable",
      "type": "function"
    },
    {
      "inputs": [
        {
          "internalType": "address",
          "name": "owner",
          "type": "address"
        }
      ],
      "name": "balanceOf",
      "outputs": [
        {
          "internalType": "uint256",
          "name": "",
          "type": "uint256"
        }
      ],
      "stateMutability": "view",
      "type": "function"
    },
    {
      "inputs": [
        {
          "internalType": "uint256",
          "name": "tokenId",
          "type": "uint256"
        }
      ],
      "name": "burn",
      "outputs": [],
      "stateMutability": "nonpayable",
      "type": "function"
    },
    {
      "inputs": [],
      "name": "distributionRightAddress",
      "outputs": [
        {
          "internalType": "address",
          "name": "",
          "type": "address"
        }
      ],
      "stateMutability": "view",
      "type": "function"
    },
    {
      "inputs": [
        {
          "internalType": "uint256",
          "name": "tokenId",
          "type": "uint256"
        }
      ],
      "name": "getApproved",
      "outputs": [
        {
          "internalType": "address",
          "name": "",
          "type": "address"
        }
      ],
      "stateMutability": "view",
      "type": "function"
    },
    {
      "inputs": [
        {
          "internalType": "address",
          "name": "owner",
          "type": "address"
        },
        {
          "internalType": "address",
          "name": "operator",
          "type": "address"
        }
      ],
      "name": "isApprovedForAll",
      "outputs": [
        {
          "internalType": "bool",
          "name": "",
          "type": "bool"
        }
      ],
      "stateMutability": "view",
      "type": "function"
    },
    {
      "inputs": [
        {
          "internalType": "address",
          "name": "account",
          "type": "address"
        },
        {
          "internalType": "uint256",
          "name": "tokenId",
          "type": "uint256"
        },
        {
          "internalType": "string",
          "name": "metadata",
          "type": "string"
        }
      ],
      "name": "mint",
      "outputs": [],
      "stateMutability": "nonpayable",
      "type": "function"
    },
    {
      "inputs": [],
      "name": "name",
      "outputs": [
        {
          "internalType": "string",
          "name": "",
          "type": "string"
        }
      ],
      "stateMutability": "view",
      "type": "function"
    },
    {
      "inputs": [],
      "name": "nameRegistryAddress",
      "outputs": [
        {
          "internalType": "address",
          "name": "",
          "type": "address"
        }
      ],
      "stateMutability": "view",
      "type": "function"
    },
    {
      "inputs": [],
      "name": "owner",
      "outputs": [
        {
          "internalType": "address",
          "name": "",
          "type": "address"
        }
      ],
      "stateMutability": "view",
      "type": "function"
    },
    {
      "inputs": [
        {
          "internalType": "uint256",
          "name": "tokenId",
          "type": "uint256"
        }
      ],
      "name": "ownerOf",
      "outputs": [
        {
          "internalType": "address",
          "name": "",
          "type": "address"
        }
      ],
      "stateMutability": "view",
      "type": "function"
    },
    {
      "inputs": [],
      "name": "postOwnerPoolAddress",
      "outputs": [
        {
          "internalType": "address",
          "name": "",
          "type": "address"
        }
      ],
      "stateMutability": "view",
      "type": "function"
    },
    {
      "inputs": [],
      "name": "reservedRightAddress",
      "outputs": [
        {
          "internalType": "address",
          "name": "",
          "type": "address"
        }
      ],
      "stateMutability": "view",
      "type": "function"
    },
    {
      "inputs": [
        {
          "internalType": "address",
          "name": "from",
          "type": "address"
        },
        {
          "internalType": "address",
          "name": "to",
          "type": "address"
        },
        {
          "internalType": "uint256",
          "name": "tokenId",
          "type": "uint256"
        }
      ],
      "name": "safeTransferFrom",
      "outputs": [],
      "stateMutability": "nonpayable",
      "type": "function"
    },
    {
      "inputs": [
        {
          "internalType": "address",
          "name": "from",
          "type": "address"
        },
        {
          "internalType": "address",
          "name": "to",
          "type": "address"
        },
        {
          "internalType": "uint256",
          "name": "tokenId",
          "type": "uint256"
        },
        {
          "internalType": "bytes",
          "name": "_data",
          "type": "bytes"
        }
      ],
      "name": "safeTransferFrom",
      "outputs": [],
      "stateMutability": "nonpayable",
      "type": "function"
    },
    {
      "inputs": [
        {
          "internalType": "address",
          "name": "operator",
          "type": "address"
        },
        {
          "internalType": "bool",
          "name": "approved",
          "type": "bool"
        }
      ],
      "name": "setApprovalForAll",
      "outputs": [],
      "stateMutability": "nonpayable",
      "type": "function"
    },
    {
      "inputs": [
        {
          "internalType": "bytes4",
          "name": "interfaceId",
          "type": "bytes4"
        }
      ],
      "name": "supportsInterface",
      "outputs": [
        {
          "internalType": "bool",
          "name": "",
          "type": "bool"
        }
      ],
      "stateMutability": "view",
      "type": "function"
    },
    {
      "inputs": [],
      "name": "symbol",
      "outputs": [
        {
          "internalType": "string",
          "name": "",
          "type": "string"
        }
      ],
      "stateMutability": "view",
      "type": "function"
    },
    {
      "inputs": [
        {
          "internalType": "uint256",
          "name": "index",
          "type": "uint256"
        }
      ],
      "name": "tokenByIndex",
      "outputs": [
        {
          "internalType": "uint256",
          "name": "",
          "type": "uint256"
        }
      ],
      "stateMutability": "view",
      "type": "function"
    },
    {
      "inputs": [
        {
          "internalType": "address",
          "name": "owner",
          "type": "address"
        },
        {
          "internalType": "uint256",
          "name": "index",
          "type": "uint256"
        }
      ],
      "name": "tokenOfOwnerByIndex",
      "outputs": [
        {
          "internalType": "uint256",
          "name": "",
          "type": "uint256"
        }
      ],
      "stateMutability": "view",
      "type": "function"
    },
    {
      "inputs": [
        {
          "internalType": "uint256",
          "name": "tokenId",
          "type": "uint256"
        }
      ],
      "name": "tokenURI",
      "outputs": [
        {
          "internalType": "string",
          "name": "",
          "type": "string"
        }
      ],
      "stateMutability": "view",
      "type": "function"
    },
    {
      "inputs": [],
      "name": "totalSupply",
      "outputs": [
        {
          "internalType": "uint256",
          "name": "",
          "type": "uint256"
        }
      ],
      "stateMutability": "view",
      "type": "function"
    },
    {
      "inputs": [
        {
          "internalType": "address",
          "name": "from",
          "type": "address"
        },
        {
          "internalType": "address",
          "name": "to",
          "type": "address"
        },
        {
          "internalType": "uint256",
          "name": "tokenId",
          "type": "uint256"
        }
      ],
      "name": "transferByAllowedContract",
      "outputs": [],
      "stateMutability": "nonpayable",
      "type": "function"
    },
    {
      "inputs": [
        {
          "internalType": "address",
          "name": "from",
          "type": "address"
        },
        {
          "internalType": "address",
          "name": "to",
          "type": "address"
        },
        {
          "internalType": "uint256",
          "name": "tokenId",
          "type": "uint256"
        }
      ],
      "name": "transferFrom",
      "outputs": [],
      "stateMutability": "payable",
      "type": "function"
    },
    {
      "inputs": [],
      "name": "vaultAddress",
      "outputs": [
        {
          "internalType": "address",
          "name": "",
          "type": "address"
        }
      ],
      "stateMutability": "view",
      "type": "function"
    }
  ],
  "transactionHash": "0xf0468dbd6488a6cb426935a9ea24c89735f5833f03d41576a65cb731ca700f2c",
  "args": [
    "DistributionRight",
    "AD_RIGHT",
    "ipfs://",
    "0x5EBA2dD6C26Dae8e733D55e4DC6D5B6EEBFa8F20"
  ],
  "solcInputHash": "19216fe1aa042e94a1a5c454afe04ebc",
  "bytecode": "0x60806040523480156200001157600080fd5b50604051620026e4380380620026e4833981016040819052620000349162000209565b80848484826000908051906020019062000050929190620000ac565b50815162000066906001906020850190620000ac565b5080516200007c906002906020840190620000ac565b5050600c80546001600160a01b0319166001600160a01b039490941693909317909255506200030f945050505050565b828054620000ba90620002bc565b90600052602060002090601f016020900481019282620000de576000855562000129565b82601f10620000f957805160ff191683800117855562000129565b8280016001018555821562000129579182015b82811115620001295782518255916020019190600101906200010c565b50620001379291506200013b565b5090565b5b808211156200013757600081556001016200013c565b600082601f8301126200016457600080fd5b81516001600160401b0380821115620001815762000181620002f9565b604051601f8301601f19908116603f01168101908282118183101715620001ac57620001ac620002f9565b81604052838152602092508683858801011115620001c957600080fd5b600091505b83821015620001ed5785820183015181830184015290820190620001ce565b83821115620001ff5760008385830101525b9695505050505050565b600080600080608085870312156200022057600080fd5b84516001600160401b03808211156200023857600080fd5b620002468883890162000152565b955060208701519150808211156200025d57600080fd5b6200026b8883890162000152565b945060408701519150808211156200028257600080fd5b50620002918782880162000152565b606087015190935090506001600160a01b0381168114620002b157600080fd5b939692955090935050565b600181811c90821680620002d157607f821691505b60208210811415620002f357634e487b7160e01b600052602260045260246000fd5b50919050565b634e487b7160e01b600052604160045260246000fd5b6123c5806200031f6000396000f3fe6080604052600436106101a15760003560e01c80636352211e116100e1578063ac6919a51161008a578063c9cd71b511610064578063c9cd71b514610450578063d3fc986414610465578063e985e9c514610485578063ef95e90f146104ce57600080fd5b8063ac6919a5146103fb578063b88d4fde14610410578063c87b56dd1461043057600080fd5b80638e9e614e116100bb5780638e9e614e146103a657806395d89b41146103c6578063a22cb465146103db57600080fd5b80636352211e1461035157806370a08231146103715780638da5cb5b1461039157600080fd5b806327b7a2f51161014e57806342842e0e1161012857806342842e0e146102dc57806342966c68146102fc578063430bf08a1461031c5780634f6ccce71461033157600080fd5b806327b7a2f51461028957806329a594b5146102a75780632f745c59146102bc57600080fd5b8063095ea7b31161017f578063095ea7b31461023557806318160ddd1461025757806323b872dd1461027657600080fd5b806301ffc9a7146101a657806306fdde03146101db578063081812fc146101fd575b600080fd5b3480156101b257600080fd5b506101c66101c13660046120b5565b6104e3565b60405190151581526020015b60405180910390f35b3480156101e757600080fd5b506101f0610580565b6040516101d29190612240565b34801561020957600080fd5b5061021d6102183660046120ef565b610612565b6040516001600160a01b0390911681526020016101d2565b34801561024157600080fd5b50610255610250366004611fff565b6106ac565b005b34801561026357600080fd5b50600a545b6040519081526020016101d2565b610255610284366004611f10565b6107de565b34801561029557600080fd5b50600c546001600160a01b031661021d565b3480156102b357600080fd5b5061021d610962565b3480156102c857600080fd5b506102686102d7366004611fff565b610a2e565b3480156102e857600080fd5b506102556102f7366004611f10565b610ad6565b34801561030857600080fd5b506102556103173660046120ef565b610af1565b34801561032857600080fd5b5061021d610bac565b34801561033d57600080fd5b5061026861034c3660046120ef565b610bf3565b34801561035d57600080fd5b5061021d61036c3660046120ef565b610c97565b34801561037d57600080fd5b5061026861038c366004611e96565b610d22565b34801561039d57600080fd5b5061021d610dbc565b3480156103b257600080fd5b506102556103c1366004611f10565b610e1a565b3480156103d257600080fd5b506101f0610ed4565b3480156103e757600080fd5b506102556103f6366004611fd1565b610ee3565b34801561040757600080fd5b5061021d610fa8565b34801561041c57600080fd5b5061025561042b366004611f51565b610fef565b34801561043c57600080fd5b506101f061044b3660046120ef565b61107d565b34801561045c57600080fd5b5061021d6111f7565b34801561047157600080fd5b5061025561048036600461202b565b61123e565b34801561049157600080fd5b506101c66104a0366004611ed7565b6001600160a01b03918216600090815260076020908152604080832093909416825291909152205460ff1690565b3480156104da57600080fd5b5061021d611316565b60006001600160e01b031982167f80ac58cd00000000000000000000000000000000000000000000000000000000148061054657506001600160e01b031982167f5b5e139f00000000000000000000000000000000000000000000000000000000145b8061057a57507f01ffc9a7000000000000000000000000000000000000000000000000000000006001600160e01b03198316145b92915050565b60606000805461058f906122c3565b80601f01602080910402602001604051908101604052809291908181526020018280546105bb906122c3565b80156106085780601f106105dd57610100808354040283529160200191610608565b820191906000526020600020905b8154815290600101906020018083116105eb57829003601f168201915b5050505050905090565b6000818152600460205260408120546001600160a01b03166106905760405162461bcd60e51b815260206004820152602c60248201527f4552433732313a20617070726f76656420717565727920666f72206e6f6e657860448201526b34b9ba32b73a103a37b5b2b760a11b60648201526084015b60405180910390fd5b506000908152600660205260409020546001600160a01b031690565b60006106b782610c97565b9050806001600160a01b0316836001600160a01b031614156107415760405162461bcd60e51b815260206004820152602160248201527f4552433732313a20617070726f76616c20746f2063757272656e74206f776e6560448201527f72000000000000000000000000000000000000000000000000000000000000006064820152608401610687565b336001600160a01b038216148061075d575061075d81336104a0565b6107cf5760405162461bcd60e51b815260206004820152603860248201527f4552433732313a20617070726f76652063616c6c6572206973206e6f74206f7760448201527f6e6572206e6f7220617070726f76656420666f7220616c6c00000000000000006064820152608401610687565b6107d9838361135d565b505050565b3415610957576107ec6113d8565b6001600160a01b0316636352211e826040518263ffffffff1660e01b815260040161081991815260200190565b60206040518083038186803b15801561083157600080fd5b505afa158015610845573d6000803e3d6000fd5b505050506040513d601f19601f820116820180604052508101906108699190611eba565b6001600160a01b03166108fc606461088234600361228d565b61088c919061226b565b6040518115909202916000818181858888f193505050501580156108b4573d6000803e3d6000fd5b506108bd6113e2565b6001600160a01b03166108fc60646108d634600361228d565b6108e0919061226b565b6040518115909202916000818181858888f19350505050158015610908573d6000803e3d6000fd5b506001600160a01b0382166108fc606461092334605e61228d565b61092d919061226b565b6040518115909202916000818181858888f19350505050158015610955573d6000803e3d6000fd5b505b6107d98383836113ec565b600c546040517f526573657276656452696768740000000000000000000000000000000000000060208201526000916001600160a01b031690638eaa6ac090602d015b604051602081830303815290604052805190602001206040518263ffffffff1660e01b81526004016109d991815260200190565b60206040518083038186803b1580156109f157600080fd5b505afa158015610a05573d6000803e3d6000fd5b505050506040513d601f19601f82011682018060405250810190610a299190611eba565b905090565b6000610a3983610d22565b8210610aad5760405162461bcd60e51b815260206004820152602b60248201527f455243373231456e756d657261626c653a206f776e657220696e646578206f7560448201527f74206f6620626f756e64730000000000000000000000000000000000000000006064820152608401610687565b506001600160a01b03919091166000908152600860209081526040808320938352929052205490565b6107d983838360405180602001604052806000815250610fef565b600c546040516351e0e26b60e01b81523360048201526001600160a01b03909116906351e0e26b9060240160206040518083038186803b158015610b3457600080fd5b505afa158015610b48573d6000803e3d6000fd5b505050506040513d601f19601f82011682018060405250810190610b6c9190612098565b610ba05760405162461bcd60e51b8152602060048201526005602482015264415232303160d81b6044820152606401610687565b610ba981611468565b50565b600c546040517f5661756c7400000000000000000000000000000000000000000000000000000060208201526000916001600160a01b031690638eaa6ac0906025016109a5565b6000610bfe600a5490565b8210610c725760405162461bcd60e51b815260206004820152602c60248201527f455243373231456e756d657261626c653a20676c6f62616c20696e646578206f60448201527f7574206f6620626f756e647300000000000000000000000000000000000000006064820152608401610687565b600a8281548110610c8557610c8561232a565b90600052602060002001549050919050565b6000818152600460205260408120546001600160a01b03168061057a5760405162461bcd60e51b815260206004820152602960248201527f4552433732313a206f776e657220717565727920666f72206e6f6e657869737460448201527f656e7420746f6b656e00000000000000000000000000000000000000000000006064820152608401610687565b60006001600160a01b038216610da05760405162461bcd60e51b815260206004820152602a60248201527f4552433732313a2062616c616e636520717565727920666f7220746865207a6560448201527f726f2061646472657373000000000000000000000000000000000000000000006064820152608401610687565b506001600160a01b031660009081526005602052604090205490565b600c54604080517f8da5cb5b00000000000000000000000000000000000000000000000000000000815290516000926001600160a01b031691638da5cb5b916004808301926020929190829003018186803b1580156109f157600080fd5b600c546040516351e0e26b60e01b81523360048201526001600160a01b03909116906351e0e26b9060240160206040518083038186803b158015610e5d57600080fd5b505afa158015610e71573d6000803e3d6000fd5b505050506040513d601f19601f82011682018060405250810190610e959190612098565b610ec95760405162461bcd60e51b8152602060048201526005602482015264415232303160d81b6044820152606401610687565b6107d983838361151c565b60606001805461058f906122c3565b6001600160a01b038216331415610f3c5760405162461bcd60e51b815260206004820152601960248201527f4552433732313a20617070726f766520746f2063616c6c6572000000000000006044820152606401610687565b3360008181526007602090815260408083206001600160a01b03871680855290835292819020805460ff191686151590811790915590519081529192917f17307eab39ab6107e8899845ad3d59bd9653f200f220920489ca2b5937696c31910160405180910390a35050565b600c546040517f446973747269627574696f6e526967687400000000000000000000000000000060208201526000916001600160a01b031690638eaa6ac0906031016109a5565b610ff93383611701565b61106b5760405162461bcd60e51b815260206004820152603160248201527f4552433732313a207472616e736665722063616c6c6572206973206e6f74206f60448201527f776e6572206e6f7220617070726f7665640000000000000000000000000000006064820152608401610687565b611077848484846117f8565b50505050565b6000818152600460205260409020546060906001600160a01b031661110a5760405162461bcd60e51b815260206004820152602f60248201527f4552433732314d657461646174613a2055524920717565727920666f72206e6f60448201527f6e6578697374656e7420746f6b656e00000000000000000000000000000000006064820152608401610687565b600060028054611119906122c3565b9050116111bc5760008281526003602052604090208054611139906122c3565b80601f0160208091040260200160405190810160405280929190818152602001828054611165906122c3565b80156111b25780601f10611187576101008083540402835291602001916111b2565b820191906000526020600020905b81548152906001019060200180831161119557829003601f168201915b505050505061057a565b6002600360008481526020019081526020016000206040516020016111e29291906121ef565b60405160208183030381529060405292915050565b600c546040517f4164506f6f6c000000000000000000000000000000000000000000000000000060208201526000916001600160a01b031690638eaa6ac0906026016109a5565b600c546040516351e0e26b60e01b81523360048201526001600160a01b03909116906351e0e26b9060240160206040518083038186803b15801561128157600080fd5b505afa158015611295573d6000803e3d6000fd5b505050506040513d601f19601f820116820180604052508101906112b99190612098565b6112ed5760405162461bcd60e51b8152602060048201526005602482015264415232303160d81b6044820152606401610687565b6112f78383611881565b6000828152600360209081526040909120825161107792840190611d87565b600c546040517f506f73744f776e6572506f6f6c0000000000000000000000000000000000000060208201526000916001600160a01b031690638eaa6ac090602d016109a5565b6000818152600660205260409020805473ffffffffffffffffffffffffffffffffffffffff19166001600160a01b038416908117909155819061139f82610c97565b6001600160a01b03167f8c5be1e5ebec7d5bd14f71427d1e84f3dd0314c0f7b2291e5b200ac8c7c3b92560405160405180910390a45050565b6000610a29611316565b6000610a29610bac565b6113f63382611701565b610ec95760405162461bcd60e51b815260206004820152603160248201527f4552433732313a207472616e736665722063616c6c6572206973206e6f74206f60448201527f776e6572206e6f7220617070726f7665640000000000000000000000000000006064820152608401610687565b600061147382610c97565b9050611481816000846119dc565b61148c60008361135d565b6001600160a01b03811660009081526005602052604081208054600192906114b59084906122ac565b9091555050600082815260046020526040808220805473ffffffffffffffffffffffffffffffffffffffff19169055518391906001600160a01b038416907fddf252ad1be2c89b69c2b068fc378daa952ba7f163c4a11628f55a4df523b3ef908390a45050565b826001600160a01b031661152f82610c97565b6001600160a01b0316146115ab5760405162461bcd60e51b815260206004820152602960248201527f4552433732313a207472616e73666572206f6620746f6b656e2074686174206960448201527f73206e6f74206f776e00000000000000000000000000000000000000000000006064820152608401610687565b6001600160a01b0382166116265760405162461bcd60e51b8152602060048201526024808201527f4552433732313a207472616e7366657220746f20746865207a65726f2061646460448201527f72657373000000000000000000000000000000000000000000000000000000006064820152608401610687565b6116318383836119dc565b61163c60008261135d565b6001600160a01b03831660009081526005602052604081208054600192906116659084906122ac565b90915550506001600160a01b0382166000908152600560205260408120805460019290611693908490612253565b9091555050600081815260046020526040808220805473ffffffffffffffffffffffffffffffffffffffff19166001600160a01b0386811691821790925591518493918716917fddf252ad1be2c89b69c2b068fc378daa952ba7f163c4a11628f55a4df523b3ef91a4505050565b6000818152600460205260408120546001600160a01b031661177a5760405162461bcd60e51b815260206004820152602c60248201527f4552433732313a206f70657261746f7220717565727920666f72206e6f6e657860448201526b34b9ba32b73a103a37b5b2b760a11b6064820152608401610687565b600061178583610c97565b9050806001600160a01b0316846001600160a01b031614806117c05750836001600160a01b03166117b584610612565b6001600160a01b0316145b806117f057506001600160a01b0380821660009081526007602090815260408083209388168352929052205460ff165b949350505050565b61180384848461151c565b61180f84848484611a94565b6110775760405162461bcd60e51b815260206004820152603260248201527f4552433732313a207472616e7366657220746f206e6f6e20455243373231526560448201527f63656976657220696d706c656d656e74657200000000000000000000000000006064820152608401610687565b6001600160a01b0382166118d75760405162461bcd60e51b815260206004820181905260248201527f4552433732313a206d696e7420746f20746865207a65726f20616464726573736044820152606401610687565b6000818152600460205260409020546001600160a01b03161561193c5760405162461bcd60e51b815260206004820152601c60248201527f4552433732313a20746f6b656e20616c7265616479206d696e746564000000006044820152606401610687565b611948600083836119dc565b6001600160a01b0382166000908152600560205260408120805460019290611971908490612253565b9091555050600081815260046020526040808220805473ffffffffffffffffffffffffffffffffffffffff19166001600160a01b03861690811790915590518392907fddf252ad1be2c89b69c2b068fc378daa952ba7f163c4a11628f55a4df523b3ef908290a45050565b6001600160a01b038316611a3757611a3281600a80546000838152600b60205260408120829055600182018355919091527fc65a7bb8d6351c1cf70c95a316cc6a92839c986682d98bc35f958f4883f9d2a80155565b611a5a565b816001600160a01b0316836001600160a01b031614611a5a57611a5a8382611bf7565b6001600160a01b038216611a71576107d981611c94565b826001600160a01b0316826001600160a01b0316146107d9576107d98282611d43565b60006001600160a01b0384163b15611bec57604051630a85bd0160e11b81526001600160a01b0385169063150b7a0290611ad8903390899088908890600401612204565b602060405180830381600087803b158015611af257600080fd5b505af1925050508015611b22575060408051601f3d908101601f19168201909252611b1f918101906120d2565b60015b611bd2573d808015611b50576040519150601f19603f3d011682016040523d82523d6000602084013e611b55565b606091505b508051611bca5760405162461bcd60e51b815260206004820152603260248201527f4552433732313a207472616e7366657220746f206e6f6e20455243373231526560448201527f63656976657220696d706c656d656e74657200000000000000000000000000006064820152608401610687565b805181602001fd5b6001600160e01b031916630a85bd0160e11b1490506117f0565b506001949350505050565b60006001611c0484610d22565b611c0e91906122ac565b600083815260096020526040902054909150808214611c61576001600160a01b03841660009081526008602090815260408083208584528252808320548484528184208190558352600990915290208190555b5060009182526009602090815260408084208490556001600160a01b039094168352600881528383209183525290812055565b600a54600090611ca6906001906122ac565b6000838152600b6020526040812054600a8054939450909284908110611cce57611cce61232a565b9060005260206000200154905080600a8381548110611cef57611cef61232a565b6000918252602080832090910192909255828152600b9091526040808220849055858252812055600a805480611d2757611d27612314565b6001900381819060005260206000200160009055905550505050565b6000611d4e83610d22565b6001600160a01b039093166000908152600860209081526040808320868452825280832085905593825260099052919091209190915550565b828054611d93906122c3565b90600052602060002090601f016020900481019282611db55760008555611dfb565b82601f10611dce57805160ff1916838001178555611dfb565b82800160010185558215611dfb579182015b82811115611dfb578251825591602001919060010190611de0565b50611e07929150611e0b565b5090565b5b80821115611e075760008155600101611e0c565b600067ffffffffffffffff80841115611e3b57611e3b612340565b604051601f8501601f19908116603f01168101908282118183101715611e6357611e63612340565b81604052809350858152868686011115611e7c57600080fd5b858560208301376000602087830101525050509392505050565b600060208284031215611ea857600080fd5b8135611eb381612356565b9392505050565b600060208284031215611ecc57600080fd5b8151611eb381612356565b60008060408385031215611eea57600080fd5b8235611ef581612356565b91506020830135611f0581612356565b809150509250929050565b600080600060608486031215611f2557600080fd5b8335611f3081612356565b92506020840135611f4081612356565b929592945050506040919091013590565b60008060008060808587031215611f6757600080fd5b8435611f7281612356565b93506020850135611f8281612356565b925060408501359150606085013567ffffffffffffffff811115611fa557600080fd5b8501601f81018713611fb657600080fd5b611fc587823560208401611e20565b91505092959194509250565b60008060408385031215611fe457600080fd5b8235611fef81612356565b91506020830135611f058161236b565b6000806040838503121561201257600080fd5b823561201d81612356565b946020939093013593505050565b60008060006060848603121561204057600080fd5b833561204b81612356565b925060208401359150604084013567ffffffffffffffff81111561206e57600080fd5b8401601f8101861361207f57600080fd5b61208e86823560208401611e20565b9150509250925092565b6000602082840312156120aa57600080fd5b8151611eb38161236b565b6000602082840312156120c757600080fd5b8135611eb381612379565b6000602082840312156120e457600080fd5b8151611eb381612379565b60006020828403121561210157600080fd5b5035919050565b6000815180845260005b8181101561212e57602081850181015186830182015201612112565b81811115612140576000602083870101525b50601f01601f19169290920160200192915050565b8054600090600181811c908083168061216f57607f831692505b602080841082141561219157634e487b7160e01b600052602260045260246000fd5b8180156121a557600181146121b6576121e3565b60ff198616895284890196506121e3565b60008881526020902060005b868110156121db5781548b8201529085019083016121c2565b505084890196505b50505050505092915050565b60006117f06121fe8386612155565b84612155565b60006001600160a01b038087168352808616602084015250836040830152608060608301526122366080830184612108565b9695505050505050565b602081526000611eb36020830184612108565b60008219821115612266576122666122fe565b500190565b60008261228857634e487b7160e01b600052601260045260246000fd5b500490565b60008160001904831182151516156122a7576122a76122fe565b500290565b6000828210156122be576122be6122fe565b500390565b600181811c908216806122d757607f821691505b602082108114156122f857634e487b7160e01b600052602260045260246000fd5b50919050565b634e487b7160e01b600052601160045260246000fd5b634e487b7160e01b600052603160045260246000fd5b634e487b7160e01b600052603260045260246000fd5b634e487b7160e01b600052604160045260246000fd5b6001600160a01b0381168114610ba957600080fd5b8015158114610ba957600080fd5b6001600160e01b031981168114610ba957600080fdfea2646970667358221220d81871dd647c9d397fcc5e52759f2364950226bf6f85f531d165cf278d3d6f5c64736f6c63430008060033",
  "devdoc": {
    "author": "Shumpei Koike - <shumpei.koike@bridges.inc>",
    "kind": "dev",
    "methods": {
      "adPoolAddress()": {
        "details": "Gets the address of AdPool."
      },
      "approve(address,uint256)": {
        "details": "See {IERC721-approve}."
      },
      "balanceOf(address)": {
        "details": "See {IERC721-balanceOf}."
      },
      "burn(uint256)": {
        "details": "Burns the NFT.",
        "params": {
          "tokenId": "uint256 of the token ID"
        }
      },
      "constructor": {
        "details": "Initializes NFT",
        "params": {
          "baseURI_": "string of the base URI",
          "nameRegistry": "address of NameRegistry",
          "name_": "string of the token name",
          "symbol_": "string of the token symbol"
        }
      },
      "distributionRightAddress()": {
        "details": "Gets the address of DistributionRight."
      },
      "getApproved(uint256)": {
        "details": "See {IERC721-getApproved}."
      },
      "isApprovedForAll(address,address)": {
        "details": "See {IERC721-isApprovedForAll}."
      },
      "mint(address,uint256,string)": {
        "details": "Mints a new NFT.",
        "params": {
          "account": "address of the token owner",
          "tokenId": "uint256 of the token ID"
        }
      },
      "name()": {
        "details": "See {IERC721Metadata-name}."
      },
      "nameRegistryAddress()": {
        "details": "Gets the address of NameRegistry"
      },
      "owner()": {
        "details": "Gets the owner address."
      },
      "ownerOf(uint256)": {
        "details": "See {IERC721-ownerOf}."
      },
      "reservedRightAddress()": {
        "details": "Gets the address of ReservedRight."
      },
      "safeTransferFrom(address,address,uint256)": {
        "details": "See {IERC721-safeTransferFrom}."
      },
      "safeTransferFrom(address,address,uint256,bytes)": {
        "details": "See {IERC721-safeTransferFrom}."
      },
      "setApprovalForAll(address,bool)": {
        "details": "See {IERC721-setApprovalForAll}."
      },
      "supportsInterface(bytes4)": {
        "details": "See {IERC165-supportsInterface}."
      },
      "symbol()": {
        "details": "See {IERC721Metadata-symbol}."
      },
      "tokenByIndex(uint256)": {
        "details": "See {IERC721Enumerable-tokenByIndex}."
      },
      "tokenOfOwnerByIndex(address,uint256)": {
        "details": "See {IERC721Enumerable-tokenOfOwnerByIndex}."
      },
      "tokenURI(uint256)": {
        "details": "See {IERC721Metadata-tokenURI}."
      },
      "totalSupply()": {
        "details": "See {IERC721Enumerable-totalSupply}."
      },
      "transferByAllowedContract(address,address,uint256)": {
        "details": "Transfers the NFT.",
        "params": {
          "from": "address of the current owner",
          "to": "address of the next owner",
          "tokenId": "uint256 of the token ID"
        }
      },
      "transferFrom(address,address,uint256)": {
        "details": "See {IERC721-transferFrom}."
      },
      "vaultAddress()": {
        "details": "Gets the address of Vault."
      }
    },
    "title": "DistributionRight - represents advertising distribution rights.",
    "version": 1
  },
  "userdoc": {
    "kind": "user",
    "methods": {},
    "version": 1
  },
  "storageLayout": {
    "storage": [
      {
        "astId": 2720,
        "contract": "contracts/token/DistributionRight.sol:DistributionRight",
        "label": "_name",
        "offset": 0,
        "slot": "0",
        "type": "t_string_storage"
      },
      {
        "astId": 2722,
        "contract": "contracts/token/DistributionRight.sol:DistributionRight",
        "label": "_symbol",
        "offset": 0,
        "slot": "1",
        "type": "t_string_storage"
      },
      {
        "astId": 2724,
        "contract": "contracts/token/DistributionRight.sol:DistributionRight",
        "label": "_baseURI",
        "offset": 0,
        "slot": "2",
        "type": "t_string_storage"
      },
      {
        "astId": 2728,
        "contract": "contracts/token/DistributionRight.sol:DistributionRight",
        "label": "_tokenURIs",
        "offset": 0,
        "slot": "3",
        "type": "t_mapping(t_uint256,t_string_storage)"
      },
      {
        "astId": 2732,
        "contract": "contracts/token/DistributionRight.sol:DistributionRight",
        "label": "_owners",
        "offset": 0,
        "slot": "4",
        "type": "t_mapping(t_uint256,t_address)"
      },
      {
        "astId": 2736,
        "contract": "contracts/token/DistributionRight.sol:DistributionRight",
        "label": "_balances",
        "offset": 0,
        "slot": "5",
        "type": "t_mapping(t_address,t_uint256)"
      },
      {
        "astId": 2740,
        "contract": "contracts/token/DistributionRight.sol:DistributionRight",
        "label": "_tokenApprovals",
        "offset": 0,
        "slot": "6",
        "type": "t_mapping(t_uint256,t_address)"
      },
      {
        "astId": 2746,
        "contract": "contracts/token/DistributionRight.sol:DistributionRight",
        "label": "_operatorApprovals",
        "offset": 0,
        "slot": "7",
        "type": "t_mapping(t_address,t_mapping(t_address,t_bool))"
      },
      {
        "astId": 2752,
        "contract": "contracts/token/DistributionRight.sol:DistributionRight",
        "label": "_ownedTokens",
        "offset": 0,
        "slot": "8",
        "type": "t_mapping(t_address,t_mapping(t_uint256,t_uint256))"
      },
      {
        "astId": 2756,
        "contract": "contracts/token/DistributionRight.sol:DistributionRight",
        "label": "_ownedTokensIndex",
        "offset": 0,
        "slot": "9",
        "type": "t_mapping(t_uint256,t_uint256)"
      },
      {
        "astId": 2759,
        "contract": "contracts/token/DistributionRight.sol:DistributionRight",
        "label": "_allTokens",
        "offset": 0,
        "slot": "10",
        "type": "t_array(t_uint256)dyn_storage"
      },
      {
        "astId": 2763,
        "contract": "contracts/token/DistributionRight.sol:DistributionRight",
        "label": "_allTokensIndex",
        "offset": 0,
        "slot": "11",
        "type": "t_mapping(t_uint256,t_uint256)"
      },
      {
        "astId": 1643,
        "contract": "contracts/token/DistributionRight.sol:DistributionRight",
        "label": "_nameRegistry",
        "offset": 0,
        "slot": "12",
        "type": "t_contract(NameRegistry)1858"
      }
    ],
    "types": {
      "t_address": {
        "encoding": "inplace",
        "label": "address",
        "numberOfBytes": "20"
      },
      "t_array(t_uint256)dyn_storage": {
        "base": "t_uint256",
        "encoding": "dynamic_array",
        "label": "uint256[]",
        "numberOfBytes": "32"
      },
      "t_bool": {
        "encoding": "inplace",
        "label": "bool",
        "numberOfBytes": "1"
      },
      "t_contract(NameRegistry)1858": {
        "encoding": "inplace",
        "label": "contract NameRegistry",
        "numberOfBytes": "20"
      },
      "t_mapping(t_address,t_bool)": {
        "encoding": "mapping",
        "key": "t_address",
        "label": "mapping(address => bool)",
        "numberOfBytes": "32",
        "value": "t_bool"
      },
      "t_mapping(t_address,t_mapping(t_address,t_bool))": {
        "encoding": "mapping",
        "key": "t_address",
        "label": "mapping(address => mapping(address => bool))",
        "numberOfBytes": "32",
        "value": "t_mapping(t_address,t_bool)"
      },
      "t_mapping(t_address,t_mapping(t_uint256,t_uint256))": {
        "encoding": "mapping",
        "key": "t_address",
        "label": "mapping(address => mapping(uint256 => uint256))",
        "numberOfBytes": "32",
        "value": "t_mapping(t_uint256,t_uint256)"
      },
      "t_mapping(t_address,t_uint256)": {
        "encoding": "mapping",
        "key": "t_address",
        "label": "mapping(address => uint256)",
        "numberOfBytes": "32",
        "value": "t_uint256"
      },
      "t_mapping(t_uint256,t_address)": {
        "encoding": "mapping",
        "key": "t_uint256",
        "label": "mapping(uint256 => address)",
        "numberOfBytes": "32",
        "value": "t_address"
      },
      "t_mapping(t_uint256,t_string_storage)": {
        "encoding": "mapping",
        "key": "t_uint256",
        "label": "mapping(uint256 => string)",
        "numberOfBytes": "32",
        "value": "t_string_storage"
      },
      "t_mapping(t_uint256,t_uint256)": {
        "encoding": "mapping",
        "key": "t_uint256",
        "label": "mapping(uint256 => uint256)",
        "numberOfBytes": "32",
        "value": "t_uint256"
      },
      "t_string_storage": {
        "encoding": "bytes",
        "label": "string",
        "numberOfBytes": "32"
      },
      "t_uint256": {
        "encoding": "inplace",
        "label": "uint256",
        "numberOfBytes": "32"
      }
    }
  }
}