{
  "address": "0xE7FB000890c8c30B1E0ED1051C29AfE74EA970b2",
  "abi": [
    {
      "inputs": [
        {
          "internalType": "address",
          "name": "_nameRegistry",
          "type": "address"
        }
      ],
      "stateMutability": "nonpayable",
      "type": "constructor"
    },
    {
      "inputs": [],
      "name": "adPoolAddress",
      "outputs": [
        {
          "internalType": "address",
          "name": "",
          "type": "address"
        }
      ],
      "stateMutability": "view",
      "type": "function"
    },
    {
      "inputs": [
        {
          "internalType": "uint256",
          "name": "tokenId",
          "type": "uint256"
        },
        {
          "internalType": "address",
          "name": "sender",
          "type": "address"
        },
        {
          "internalType": "uint256",
          "name": "value",
          "type": "uint256"
        }
      ],
      "name": "bid",
      "outputs": [
        {
          "components": [
            {
              "internalType": "uint256",
              "name": "tokenId",
              "type": "uint256"
            },
            {
              "internalType": "address",
              "name": "bidder",
              "type": "address"
            },
            {
              "internalType": "uint256",
              "name": "price",
              "type": "uint256"
            }
          ],
          "internalType": "struct Sale.Bidding",
          "name": "prev",
          "type": "tuple"
        }
      ],
      "stateMutability": "nonpayable",
      "type": "function"
    },
    {
      "inputs": [
        {
          "internalType": "uint256",
          "name": "tokenId",
          "type": "uint256"
        }
      ],
      "name": "bidding",
      "outputs": [
        {
          "components": [
            {
              "internalType": "uint256",
              "name": "tokenId",
              "type": "uint256"
            },
            {
              "internalType": "address",
              "name": "bidder",
              "type": "address"
            },
            {
              "internalType": "uint256",
              "name": "price",
              "type": "uint256"
            }
          ],
          "internalType": "struct Sale.Bidding",
          "name": "",
          "type": "tuple"
        }
      ],
      "stateMutability": "view",
      "type": "function"
    },
    {
      "inputs": [
        {
          "internalType": "uint256",
          "name": "tokenId",
          "type": "uint256"
        }
      ],
      "name": "currentPrice",
      "outputs": [
        {
          "internalType": "uint256",
          "name": "",
          "type": "uint256"
        }
      ],
      "stateMutability": "view",
      "type": "function"
    },
    {
      "inputs": [],
      "name": "englishAuctionAddress",
      "outputs": [
        {
          "internalType": "address",
          "name": "",
          "type": "address"
        }
      ],
      "stateMutability": "view",
      "type": "function"
    },
    {
      "inputs": [],
      "name": "eventEmitterAddress",
      "outputs": [
        {
          "internalType": "address",
          "name": "",
          "type": "address"
        }
      ],
      "stateMutability": "view",
      "type": "function"
    },
    {
      "inputs": [],
      "name": "mediaFactoryAddress",
      "outputs": [
        {
          "internalType": "address",
          "name": "",
          "type": "address"
        }
      ],
      "stateMutability": "view",
      "type": "function"
    },
    {
      "inputs": [],
      "name": "mediaRegistryAddress",
      "outputs": [
        {
          "internalType": "address",
          "name": "",
          "type": "address"
        }
      ],
      "stateMutability": "view",
      "type": "function"
    },
    {
      "inputs": [],
      "name": "nameRegistryAddress",
      "outputs": [
        {
          "internalType": "address",
          "name": "",
          "type": "address"
        }
      ],
      "stateMutability": "view",
      "type": "function"
    },
    {
      "inputs": [],
      "name": "offerBidAddress",
      "outputs": [
        {
          "internalType": "address",
          "name": "",
          "type": "address"
        }
      ],
      "stateMutability": "view",
      "type": "function"
    },
    {
      "inputs": [],
      "name": "openBidAddress",
      "outputs": [
        {
          "internalType": "address",
          "name": "",
          "type": "address"
        }
      ],
      "stateMutability": "view",
      "type": "function"
    },
    {
      "inputs": [],
      "name": "owner",
      "outputs": [
        {
          "internalType": "address",
          "name": "",
          "type": "address"
        }
      ],
      "stateMutability": "view",
      "type": "function"
    },
    {
      "inputs": [],
      "name": "proposalReviewAddress",
      "outputs": [
        {
          "internalType": "address",
          "name": "",
          "type": "address"
        }
      ],
      "stateMutability": "view",
      "type": "function"
    },
    {
      "inputs": [
        {
          "internalType": "uint256",
          "name": "tokenId",
          "type": "uint256"
        }
      ],
      "name": "receiveToken",
      "outputs": [
        {
          "internalType": "address",
          "name": "bidder",
          "type": "address"
        },
        {
          "internalType": "uint256",
          "name": "price",
          "type": "uint256"
        }
      ],
      "stateMutability": "nonpayable",
      "type": "function"
    },
    {
      "inputs": [],
      "name": "vaultAddress",
      "outputs": [
        {
          "internalType": "address",
          "name": "",
          "type": "address"
        }
      ],
      "stateMutability": "view",
      "type": "function"
    }
  ],
  "transactionHash": "0x6c480ea066dbda9eda566aaec97513a88e6d6452eb7d33ea3a5cb480a8fb4f0e",
  "args": [
    "0xe31F45e53E31076406560E1A4f168cFd08114736"
  ],
  "solcInputHash": "5a69c2e6422d35e6b64c3dfdb0689225",
  "bytecode": "0x608060405234801561001057600080fd5b50604051610ce6380380610ce683398101604081905261002f91610050565b600080546001600160a01b0319166001600160a01b03831617905550610080565b60006020828403121561006257600080fd5b81516001600160a01b038116811461007957600080fd5b9392505050565b610c578061008f6000396000f3fe608060405234801561001057600080fd5b50600436106100c55760003560e01c80630106d8eb146100ca5780632231c1eb146100ef57806327b7a2f5146100f757806337df00c914610108578063430bf08a1461013a5780636a58767e146101425780637a3c4c171461014a5780637cf175fb1461017b5780638da5cb5b146101835780638f6059d61461018b578063c0f4ed3114610193578063c9cd71b5146101d1578063cc889b0b146101d9578063e2f5fc78146101ec578063f0726291146101f4575b600080fd5b6100d26101fc565b6040516001600160a01b0390911681526020015b60405180910390f35b6100d26102aa565b6000546001600160a01b03166100d2565b61011b610116366004610910565b6102db565b604080516001600160a01b0390931683526020830191909152016100e6565b6100d26103d7565b6100d2610406565b61016d610158366004610910565b60009081526001602052604090206002015490565b6040519081526020016100e6565b6100d261043d565b6100d261046f565b6100d26104c3565b6101a66101a1366004610941565b6104f9565b60408051825181526020808401516001600160a01b03169082015291810151908201526060016100e6565b6100d2610629565b6101a66101e7366004610910565b610659565b6100d26106a2565b6100d26106da565b600080546040516d22b733b634b9b420bab1ba34b7b760911b60208201526001600160a01b0390911690638eaa6ac090602e015b604051602081830303815290604052805190602001206040518263ffffffff1660e01b815260040161026491815260200190565b602060405180830381865afa158015610281573d6000803e3d6000fd5b505050506040513d601f19601f820116820180604052508101906102a59190610984565b905090565b600080546040516613dc195b909a5960ca1b60208201526001600160a01b0390911690638eaa6ac090602701610230565b6000806102e6610629565b6001600160a01b0316336001600160a01b03161461031f5760405162461bcd60e51b8152600401610316906109a8565b60405180910390fd5b61032883610710565b505050600081815260016020819052604082209081018054600283018054938590556001600160a01b031982169092559290556001600160a01b039091169061036f61085c565b6001600160a01b031663b287b60f848385426040518563ffffffff1660e01b81526004016103a094939291906109c7565b600060405180830381600087803b1580156103ba57600080fd5b505af11580156103ce573d6000803e3d6000fd5b50505050915091565b600080546040516415985d5b1d60da1b60208201526001600160a01b0390911690638eaa6ac090602501610230565b600080546040516c4d65646961526567697374727960981b60208201526001600160a01b0390911690638eaa6ac090602d01610230565b600080546040516713d999995c909a5960c21b60208201526001600160a01b0390911690638eaa6ac090602801610230565b60008060009054906101000a90046001600160a01b03166001600160a01b031663d5f394886040518163ffffffff1660e01b8152600401602060405180830381865afa158015610281573d6000803e3d6000fd5b600080546040516b4d65646961466163746f727960a01b60208201526001600160a01b0390911690638eaa6ac090602c01610230565b610501610870565b610509610629565b6001600160a01b0316336001600160a01b0316146105395760405162461bcd60e51b8152600401610316906109a8565b5060008381526001602081815260408084208151606080820184528254825282860180546001600160a01b038082168589015260028601805486890152875194850188528d85528c8216858a019081529785018c81529a8e905298909752915190935592519093166001600160a01b0319909216919091179055915190556105bf61085c565b6001600160a01b0316635b50ca69858486426040518563ffffffff1660e01b81526004016105f094939291906109c7565b600060405180830381600087803b15801561060a57600080fd5b505af115801561061e573d6000803e3d6000fd5b505050509392505050565b60008054604051651059141bdbdb60d21b60208201526001600160a01b0390911690638eaa6ac090602601610230565b610661610870565b50600090815260016020818152604092839020835160608101855281548152928101546001600160a01b031691830191909152600201549181019190915290565b600080546040516d50726f706f73616c52657669657760901b60208201526001600160a01b0390911690638eaa6ac090602e01610230565b600080546040516b22bb32b73a22b6b4ba3a32b960a11b60208201526001600160a01b0390911690638eaa6ac090602c01610230565b61071861089a565b610720610866565b6001600160a01b031663b3a0ebc9836040518263ffffffff1660e01b815260040161074d91815260200190565b600060405180830381865afa15801561076a573d6000803e3d6000fd5b505050506040513d6000823e601f3d908101601f191682016040526107929190810190610b04565b905060028160e0015160048111156107ac576107ac610c0b565b146107e15760405162461bcd60e51b815260206004820152600560248201526412d10c4c8d60da1b6044820152606401610316565b8061014001511561081c5760405162461bcd60e51b81526020600482015260056024820152644b4431323160d81b6044820152606401610316565b428160800151106108575760405162461bcd60e51b81526020600482015260056024820152644b4431323560d81b6044820152606401610316565b919050565b60006102a56106da565b60006102a5610629565b60405180606001604052806000815260200160006001600160a01b03168152602001600081525090565b60405180610160016040528060006001600160a01b03168152602001606081526020016060815260200160008152602001600081526020016000815260200160008152602001600060048111156108f3576108f3610c0b565b815260200160008152602001600081526020016000151581525090565b60006020828403121561092257600080fd5b5035919050565b6001600160a01b038116811461093e57600080fd5b50565b60008060006060848603121561095657600080fd5b83359250602084013561096881610929565b929592945050506040919091013590565b805161085781610929565b60006020828403121561099657600080fd5b81516109a181610929565b9392505050565b6020808252600590820152644b4430313160d81b604082015260600190565b93845260208401929092526001600160a01b03166040830152606082015260800190565b634e487b7160e01b600052604160045260246000fd5b60405161016081016001600160401b0381118282101715610a2457610a246109eb565b60405290565b604051601f8201601f191681016001600160401b0381118282101715610a5257610a526109eb565b604052919050565b600082601f830112610a6b57600080fd5b81516001600160401b03811115610a8457610a846109eb565b6020610a98601f8301601f19168201610a2a565b8281528582848701011115610aac57600080fd5b60005b83811015610aca578581018301518282018401528201610aaf565b83811115610adb5760008385840101525b5095945050505050565b80516005811061085757600080fd5b8051801515811461085757600080fd5b600060208284031215610b1657600080fd5b81516001600160401b0380821115610b2d57600080fd5b908301906101608286031215610b4257600080fd5b610b4a610a01565b610b5383610979565b8152602083015182811115610b6757600080fd5b610b7387828601610a5a565b602083015250604083015182811115610b8b57600080fd5b610b9787828601610a5a565b604083015250606083015160608201526080830151608082015260a083015160a082015260c083015160c0820152610bd160e08401610ae5565b60e0820152610100838101519082015261012080840151908201526101409150610bfc828401610af4565b91810191909152949350505050565b634e487b7160e01b600052602160045260246000fdfea2646970667358221220ea1fc09d3025c8520de809f904c131a8cce278883c03878997a87142cb91bd5164736f6c634300080a0033",
  "devdoc": {
    "kind": "dev",
    "methods": {
      "adPoolAddress()": {
        "details": "Gets the address of AdPool."
      },
      "bid(uint256,address,uint256)": {
        "details": "Bids to participate in an auction.      It is defined as an English Auction.",
        "params": {
          "amount": "uint256 of the msg.value",
          "sender": "address of the msg.sender",
          "tokenId": "uint256 of the token ID"
        }
      },
      "currentPrice(uint256)": {
        "details": "Returns the current price.",
        "params": {
          "tokenId": "uint256 of the token ID"
        }
      },
      "englishAuctionAddress()": {
        "details": "Gets the address of EnglishAuction."
      },
      "eventEmitterAddress()": {
        "details": "Gets the address of EventEmitter."
      },
      "mediaFactoryAddress()": {
        "details": "Gets the address of MediaFactory."
      },
      "mediaRegistryAddress()": {
        "details": "Gets the address of MediaRegistry."
      },
      "nameRegistryAddress()": {
        "details": "Gets the address of NameRegistry"
      },
      "offerBidAddress()": {
        "details": "Gets the address of OfferBid."
      },
      "openBidAddress()": {
        "details": "Gets the address of OpenBid."
      },
      "owner()": {
        "details": "Gets the owner address."
      },
      "proposalReviewAddress()": {
        "details": "Gets the address of ProposalReview."
      },
      "receiveToken(uint256)": {
        "details": "Receives the token you bidded if you are the successful bidder.",
        "params": {
          "tokenId": "uint256 of the token ID"
        }
      },
      "vaultAddress()": {
        "details": "Gets the address of Vault."
      }
    },
    "stateVariables": {
      "_bidding": {
        "details": "Maps a tokenId with bidding info"
      }
    },
    "version": 1
  },
  "userdoc": {
    "kind": "user",
    "methods": {},
    "version": 1
  },
  "storageLayout": {
    "storage": [
      {
        "astId": 1889,
        "contract": "contracts/peripheries/EnglishAuction.sol:EnglishAuction",
        "label": "_nameRegistry",
        "offset": 0,
        "slot": "0",
        "type": "t_contract(INameRegistry)3999"
      },
      {
        "astId": 5558,
        "contract": "contracts/peripheries/EnglishAuction.sol:EnglishAuction",
        "label": "_bidding",
        "offset": 0,
        "slot": "1",
        "type": "t_mapping(t_uint256,t_struct(Bidding)4409_storage)"
      }
    ],
    "types": {
      "t_address": {
        "encoding": "inplace",
        "label": "address",
        "numberOfBytes": "20"
      },
      "t_contract(INameRegistry)3999": {
        "encoding": "inplace",
        "label": "contract INameRegistry",
        "numberOfBytes": "20"
      },
      "t_mapping(t_uint256,t_struct(Bidding)4409_storage)": {
        "encoding": "mapping",
        "key": "t_uint256",
        "label": "mapping(uint256 => struct Sale.Bidding)",
        "numberOfBytes": "32",
        "value": "t_struct(Bidding)4409_storage"
      },
      "t_struct(Bidding)4409_storage": {
        "encoding": "inplace",
        "label": "struct Sale.Bidding",
        "members": [
          {
            "astId": 4404,
            "contract": "contracts/peripheries/EnglishAuction.sol:EnglishAuction",
            "label": "tokenId",
            "offset": 0,
            "slot": "0",
            "type": "t_uint256"
          },
          {
            "astId": 4406,
            "contract": "contracts/peripheries/EnglishAuction.sol:EnglishAuction",
            "label": "bidder",
            "offset": 0,
            "slot": "1",
            "type": "t_address"
          },
          {
            "astId": 4408,
            "contract": "contracts/peripheries/EnglishAuction.sol:EnglishAuction",
            "label": "price",
            "offset": 0,
            "slot": "2",
            "type": "t_uint256"
          }
        ],
        "numberOfBytes": "96"
      },
      "t_uint256": {
        "encoding": "inplace",
        "label": "uint256",
        "numberOfBytes": "32"
      }
    }
  }
}