{
  "address": "0xC799E5b9B17DBf4CFa0696484787C58522c582E5",
  "abi": [
    {
      "inputs": [
        {
          "internalType": "address",
          "name": "_nameRegistry",
          "type": "address"
        }
      ],
      "stateMutability": "nonpayable",
      "type": "constructor"
    },
    {
      "inputs": [],
      "name": "adPoolAddress",
      "outputs": [
        {
          "internalType": "address",
          "name": "",
          "type": "address"
        }
      ],
      "stateMutability": "view",
      "type": "function"
    },
    {
      "inputs": [
        {
          "internalType": "uint256",
          "name": "tokenId",
          "type": "uint256"
        },
        {
          "internalType": "address",
          "name": "sender",
          "type": "address"
        },
        {
          "internalType": "uint256",
          "name": "value",
          "type": "uint256"
        }
      ],
      "name": "bid",
      "outputs": [],
      "stateMutability": "nonpayable",
      "type": "function"
    },
    {
      "inputs": [
        {
          "internalType": "uint256",
          "name": "tokenId",
          "type": "uint256"
        }
      ],
      "name": "bidding",
      "outputs": [
        {
          "components": [
            {
              "internalType": "uint256",
              "name": "tokenId",
              "type": "uint256"
            },
            {
              "internalType": "address",
              "name": "bidder",
              "type": "address"
            },
            {
              "internalType": "uint256",
              "name": "price",
              "type": "uint256"
            }
          ],
          "internalType": "struct Sale.Bidding",
          "name": "",
          "type": "tuple"
        }
      ],
      "stateMutability": "view",
      "type": "function"
    },
    {
      "inputs": [
        {
          "internalType": "uint256",
          "name": "tokenId",
          "type": "uint256"
        }
      ],
      "name": "currentPrice",
      "outputs": [
        {
          "internalType": "uint256",
          "name": "",
          "type": "uint256"
        }
      ],
      "stateMutability": "view",
      "type": "function"
    },
    {
      "inputs": [],
      "name": "englishAuctionAddress",
      "outputs": [
        {
          "internalType": "address",
          "name": "",
          "type": "address"
        }
      ],
      "stateMutability": "view",
      "type": "function"
    },
    {
      "inputs": [],
      "name": "eventEmitterAddress",
      "outputs": [
        {
          "internalType": "address",
          "name": "",
          "type": "address"
        }
      ],
      "stateMutability": "view",
      "type": "function"
    },
    {
      "inputs": [],
      "name": "mediaFactoryAddress",
      "outputs": [
        {
          "internalType": "address",
          "name": "",
          "type": "address"
        }
      ],
      "stateMutability": "view",
      "type": "function"
    },
    {
      "inputs": [],
      "name": "mediaRegistryAddress",
      "outputs": [
        {
          "internalType": "address",
          "name": "",
          "type": "address"
        }
      ],
      "stateMutability": "view",
      "type": "function"
    },
    {
      "inputs": [],
      "name": "nameRegistryAddress",
      "outputs": [
        {
          "internalType": "address",
          "name": "",
          "type": "address"
        }
      ],
      "stateMutability": "view",
      "type": "function"
    },
    {
      "inputs": [],
      "name": "offerBidAddress",
      "outputs": [
        {
          "internalType": "address",
          "name": "",
          "type": "address"
        }
      ],
      "stateMutability": "view",
      "type": "function"
    },
    {
      "inputs": [],
      "name": "openBidAddress",
      "outputs": [
        {
          "internalType": "address",
          "name": "",
          "type": "address"
        }
      ],
      "stateMutability": "view",
      "type": "function"
    },
    {
      "inputs": [],
      "name": "owner",
      "outputs": [
        {
          "internalType": "address",
          "name": "",
          "type": "address"
        }
      ],
      "stateMutability": "view",
      "type": "function"
    },
    {
      "inputs": [
        {
          "internalType": "uint256",
          "name": "tokenId",
          "type": "uint256"
        }
      ],
      "name": "receiveToken",
      "outputs": [
        {
          "internalType": "address",
          "name": "bidder",
          "type": "address"
        },
        {
          "internalType": "uint256",
          "name": "price",
          "type": "uint256"
        }
      ],
      "stateMutability": "nonpayable",
      "type": "function"
    },
    {
      "inputs": [],
      "name": "vaultAddress",
      "outputs": [
        {
          "internalType": "address",
          "name": "",
          "type": "address"
        }
      ],
      "stateMutability": "view",
      "type": "function"
    }
  ],
  "transactionHash": "0x33a94b2a0277cc60a6f79532787e536a784b027c03fd13afa08d1586ad545624",
  "args": [
    "0x8EBFCC98169423F9a7AA017094292A691e31BfD6"
  ],
  "solcInputHash": "c223bd9c030b84fabf96ddb6a85aba33",
  "bytecode": "0x608060405234801561001057600080fd5b50604051610bef380380610bef83398101604081905261002f91610050565b600080546001600160a01b0319166001600160a01b03831617905550610080565b60006020828403121561006257600080fd5b81516001600160a01b038116811461007957600080fd5b9392505050565b610b608061008f6000396000f3fe608060405234801561001057600080fd5b50600436106100ba5760003560e01c80630106d8eb146100bf5780632231c1eb146100e457806327b7a2f5146100ec57806337df00c9146100fd578063430bf08a1461012f5780636a58767e146101375780637a3c4c171461013f5780637cf175fb146101705780638da5cb5b146101785780638f6059d614610180578063c0f4ed3114610188578063c9cd71b51461019d578063cc889b0b146101a5578063f0726291146101e3575b600080fd5b6100c76101eb565b6040516001600160a01b0390911681526020015b60405180910390f35b6100c76102a8565b6000546001600160a01b03166100c7565b61011061010b366004610838565b6102d9565b604080516001600160a01b0390931683526020830191909152016100db565b6100c7610394565b6100c76103c3565b61016261014d366004610838565b60009081526001602052604090206002015490565b6040519081526020016100db565b6100c76103fa565b6100c761042c565b6100c761047b565b61019b610196366004610869565b6104b1565b005b6100c761057a565b6101b86101b3366004610838565b6105aa565b60408051825181526020808401516001600160a01b03169082015291810151908201526060016100db565b6100c7610618565b600080546040516d22b733b634b9b420bab1ba34b7b760911b60208201526001600160a01b0390911690638eaa6ac090602e015b604051602081830303815290604052805190602001206040518263ffffffff1660e01b815260040161025391815260200190565b60206040518083038186803b15801561026b57600080fd5b505afa15801561027f573d6000803e3d6000fd5b505050506040513d601f19601f820116820180604052508101906102a391906108ac565b905090565b600080546040516613dc195b909a5960ca1b60208201526001600160a01b0390911690638eaa6ac09060270161021f565b6000806102e58361064e565b505050600081815260016020819052604082209081018054600283018054938590556001600160a01b031982169092559290556001600160a01b039091169061032c6107ae565b6001600160a01b031663b287b60f848385426040518563ffffffff1660e01b815260040161035d94939291906108d0565b600060405180830381600087803b15801561037757600080fd5b505af115801561038b573d6000803e3d6000fd5b50505050915091565b600080546040516415985d5b1d60da1b60208201526001600160a01b0390911690638eaa6ac09060250161021f565b600080546040516c4d65646961526567697374727960981b60208201526001600160a01b0390911690638eaa6ac090602d0161021f565b600080546040516713d999995c909a5960c21b60208201526001600160a01b0390911690638eaa6ac09060280161021f565b60008060009054906101000a90046001600160a01b03166001600160a01b031663d5f394886040518163ffffffff1660e01b815260040160206040518083038186803b15801561026b57600080fd5b600080546040516b4d65646961466163746f727960a01b60208201526001600160a01b0390911690638eaa6ac090602c0161021f565b604080516060810182528481526001600160a01b03848116602080840191825283850186815260008981526001928390529590952093518455905190830180546001600160a01b0319169190921617905590516002909101556105126107ae565b6001600160a01b0316635b50ca69848385426040518563ffffffff1660e01b815260040161054394939291906108d0565b600060405180830381600087803b15801561055d57600080fd5b505af1158015610571573d6000803e3d6000fd5b50505050505050565b60008054604051651059141bdbdb60d21b60208201526001600160a01b0390911690638eaa6ac09060260161021f565b6105d760405180606001604052806000815260200160006001600160a01b03168152602001600081525090565b50600090815260016020818152604092839020835160608101855281548152928101546001600160a01b031691830191909152600201549181019190915290565b600080546040516b22bb32b73a22b6b4ba3a32b960a11b60208201526001600160a01b0390911690638eaa6ac090602c0161021f565b6106566107c2565b61065e6107b8565b6001600160a01b031663b3a0ebc9836040518263ffffffff1660e01b815260040161068b91815260200190565b60006040518083038186803b1580156106a357600080fd5b505afa1580156106b7573d6000803e3d6000fd5b505050506040513d6000823e601f3d908101601f191682016040526106df9190810190610a0d565b905060028160e0015160048111156106f9576106f9610b14565b146107335760405162461bcd60e51b815260206004820152600560248201526412d10c4c8d60da1b60448201526064015b60405180910390fd5b8061014001511561076e5760405162461bcd60e51b81526020600482015260056024820152644b4431323160d81b604482015260640161072a565b428160800151106107a95760405162461bcd60e51b81526020600482015260056024820152644b4431323560d81b604482015260640161072a565b919050565b60006102a3610618565b60006102a361057a565b60405180610160016040528060006001600160a01b031681526020016060815260200160608152602001600081526020016000815260200160008152602001600081526020016000600481111561081b5761081b610b14565b815260200160008152602001600081526020016000151581525090565b60006020828403121561084a57600080fd5b5035919050565b6001600160a01b038116811461086657600080fd5b50565b60008060006060848603121561087e57600080fd5b83359250602084013561089081610851565b929592945050506040919091013590565b80516107a981610851565b6000602082840312156108be57600080fd5b81516108c981610851565b9392505050565b93845260208401929092526001600160a01b03166040830152606082015260800190565b634e487b7160e01b600052604160045260246000fd5b60405161016081016001600160401b038111828210171561092d5761092d6108f4565b60405290565b604051601f8201601f191681016001600160401b038111828210171561095b5761095b6108f4565b604052919050565b600082601f83011261097457600080fd5b81516001600160401b0381111561098d5761098d6108f4565b60206109a1601f8301601f19168201610933565b82815285828487010111156109b557600080fd5b60005b838110156109d35785810183015182820184015282016109b8565b838111156109e45760008385840101525b5095945050505050565b8051600581106107a957600080fd5b805180151581146107a957600080fd5b600060208284031215610a1f57600080fd5b81516001600160401b0380821115610a3657600080fd5b908301906101608286031215610a4b57600080fd5b610a5361090a565b610a5c836108a1565b8152602083015182811115610a7057600080fd5b610a7c87828601610963565b602083015250604083015182811115610a9457600080fd5b610aa087828601610963565b604083015250606083015160608201526080830151608082015260a083015160a082015260c083015160c0820152610ada60e084016109ee565b60e0820152610100838101519082015261012080840151908201526101409150610b058284016109fd565b91810191909152949350505050565b634e487b7160e01b600052602160045260246000fdfea264697066735822122005512fcd829670eaaf6d44e40262096f07914435a7b0a1807388dcf74da1d18a64736f6c63430008090033",
  "devdoc": {
    "kind": "dev",
    "methods": {
      "adPoolAddress()": {
        "details": "Gets the address of AdPool."
      },
      "englishAuctionAddress()": {
        "details": "Gets the address of EnglishAuction."
      },
      "eventEmitterAddress()": {
        "details": "Gets the address of EventEmitter."
      },
      "mediaFactoryAddress()": {
        "details": "Gets the address of MediaFactory."
      },
      "mediaRegistryAddress()": {
        "details": "Gets the address of MediaRegistry."
      },
      "nameRegistryAddress()": {
        "details": "Gets the address of NameRegistry"
      },
      "offerBidAddress()": {
        "details": "Gets the address of OfferBid."
      },
      "openBidAddress()": {
        "details": "Gets the address of OpenBid."
      },
      "owner()": {
        "details": "Gets the owner address."
      },
      "vaultAddress()": {
        "details": "Gets the address of Vault."
      }
    },
    "stateVariables": {
      "_bidding": {
        "details": "Maps a tokenId with bidding info"
      }
    },
    "version": 1
  },
  "userdoc": {
    "kind": "user",
    "methods": {},
    "version": 1
  },
  "storageLayout": {
    "storage": [
      {
        "astId": 2131,
        "contract": "contracts/peripheries/EnglishAuction.sol:EnglishAuction",
        "label": "_nameRegistry",
        "offset": 0,
        "slot": "0",
        "type": "t_contract(INameRegistry)4553"
      },
      {
        "astId": 6032,
        "contract": "contracts/peripheries/EnglishAuction.sol:EnglishAuction",
        "label": "_bidding",
        "offset": 0,
        "slot": "1",
        "type": "t_mapping(t_uint256,t_struct(Bidding)4961_storage)"
      }
    ],
    "types": {
      "t_address": {
        "encoding": "inplace",
        "label": "address",
        "numberOfBytes": "20"
      },
      "t_contract(INameRegistry)4553": {
        "encoding": "inplace",
        "label": "contract INameRegistry",
        "numberOfBytes": "20"
      },
      "t_mapping(t_uint256,t_struct(Bidding)4961_storage)": {
        "encoding": "mapping",
        "key": "t_uint256",
        "label": "mapping(uint256 => struct Sale.Bidding)",
        "numberOfBytes": "32",
        "value": "t_struct(Bidding)4961_storage"
      },
      "t_struct(Bidding)4961_storage": {
        "encoding": "inplace",
        "label": "struct Sale.Bidding",
        "members": [
          {
            "astId": 4956,
            "contract": "contracts/peripheries/EnglishAuction.sol:EnglishAuction",
            "label": "tokenId",
            "offset": 0,
            "slot": "0",
            "type": "t_uint256"
          },
          {
            "astId": 4958,
            "contract": "contracts/peripheries/EnglishAuction.sol:EnglishAuction",
            "label": "bidder",
            "offset": 0,
            "slot": "1",
            "type": "t_address"
          },
          {
            "astId": 4960,
            "contract": "contracts/peripheries/EnglishAuction.sol:EnglishAuction",
            "label": "price",
            "offset": 0,
            "slot": "2",
            "type": "t_uint256"
          }
        ],
        "numberOfBytes": "96"
      },
      "t_uint256": {
        "encoding": "inplace",
        "label": "uint256",
        "numberOfBytes": "32"
      }
    }
  }
}