{
  "address": "0xb30f2e5A1aD14cDfC9C295ba3414f0ebB29Cae31",
  "abi": [
    {
      "inputs": [
        {
          "internalType": "address",
          "name": "_nameRegistry",
          "type": "address"
        }
      ],
      "stateMutability": "nonpayable",
      "type": "constructor"
    },
    {
      "anonymous": false,
      "inputs": [
        {
          "indexed": false,
          "internalType": "uint256",
          "name": "tokenId",
          "type": "uint256"
        },
        {
          "indexed": false,
          "internalType": "string",
          "name": "spaceMetadata",
          "type": "string"
        },
        {
          "indexed": false,
          "internalType": "string",
          "name": "tokenMetadata",
          "type": "string"
        },
        {
          "indexed": false,
          "internalType": "uint256",
          "name": "displayStartTimestamp",
          "type": "uint256"
        },
        {
          "indexed": false,
          "internalType": "uint256",
          "name": "displayEndTimestamp",
          "type": "uint256"
        },
        {
          "indexed": false,
          "internalType": "uint256",
          "name": "price",
          "type": "uint256"
        }
      ],
      "name": "AcceptOffer",
      "type": "event"
    },
    {
      "anonymous": false,
      "inputs": [
        {
          "indexed": false,
          "internalType": "uint256",
          "name": "tokenId",
          "type": "uint256"
        },
        {
          "indexed": false,
          "internalType": "string",
          "name": "metadata",
          "type": "string"
        }
      ],
      "name": "AcceptProposal",
      "type": "event"
    },
    {
      "anonymous": false,
      "inputs": [
        {
          "indexed": false,
          "internalType": "uint256",
          "name": "tokenId",
          "type": "uint256"
        },
        {
          "indexed": false,
          "internalType": "uint256",
          "name": "price",
          "type": "uint256"
        },
        {
          "indexed": false,
          "internalType": "address",
          "name": "buyer",
          "type": "address"
        },
        {
          "indexed": false,
          "internalType": "uint256",
          "name": "timestamp",
          "type": "uint256"
        }
      ],
      "name": "Bid",
      "type": "event"
    },
    {
      "anonymous": false,
      "inputs": [
        {
          "indexed": false,
          "internalType": "uint256",
          "name": "tokenId",
          "type": "uint256"
        },
        {
          "indexed": false,
          "internalType": "uint256",
          "name": "price",
          "type": "uint256"
        },
        {
          "indexed": false,
          "internalType": "address",
          "name": "buyer",
          "type": "address"
        },
        {
          "indexed": false,
          "internalType": "uint256",
          "name": "timestamp",
          "type": "uint256"
        }
      ],
      "name": "Buy",
      "type": "event"
    },
    {
      "anonymous": false,
      "inputs": [
        {
          "indexed": false,
          "internalType": "uint256",
          "name": "tokenId",
          "type": "uint256"
        }
      ],
      "name": "CancelOffer",
      "type": "event"
    },
    {
      "anonymous": false,
      "inputs": [
        {
          "indexed": false,
          "internalType": "uint256",
          "name": "tokenId",
          "type": "uint256"
        }
      ],
      "name": "DeletePeriod",
      "type": "event"
    },
    {
      "anonymous": false,
      "inputs": [
        {
          "indexed": false,
          "internalType": "string",
          "name": "metadata",
          "type": "string"
        }
      ],
      "name": "DeleteSpace",
      "type": "event"
    },
    {
      "anonymous": false,
      "inputs": [
        {
          "indexed": false,
          "internalType": "uint256",
          "name": "tokenId",
          "type": "uint256"
        },
        {
          "indexed": false,
          "internalType": "string",
          "name": "metadata",
          "type": "string"
        },
        {
          "indexed": false,
          "internalType": "string",
          "name": "reason",
          "type": "string"
        },
        {
          "indexed": false,
          "internalType": "bool",
          "name": "offensive",
          "type": "bool"
        }
      ],
      "name": "DenyProposal",
      "type": "event"
    },
    {
      "anonymous": false,
      "inputs": [
        {
          "indexed": false,
          "internalType": "address",
          "name": "proxy",
          "type": "address"
        },
        {
          "indexed": false,
          "internalType": "address",
          "name": "mediaEOA",
          "type": "address"
        },
        {
          "indexed": false,
          "internalType": "string",
          "name": "constantMetadata",
          "type": "string"
        },
        {
          "indexed": false,
          "internalType": "string",
          "name": "updatableMetadata",
          "type": "string"
        },
        {
          "indexed": false,
          "internalType": "uint256",
          "name": "saltNonce",
          "type": "uint256"
        }
      ],
      "name": "NewMedia",
      "type": "event"
    },
    {
      "anonymous": false,
      "inputs": [
        {
          "indexed": false,
          "internalType": "uint256",
          "name": "tokenId",
          "type": "uint256"
        },
        {
          "indexed": false,
          "internalType": "string",
          "name": "spaceMetadata",
          "type": "string"
        },
        {
          "indexed": false,
          "internalType": "string",
          "name": "tokenMetadata",
          "type": "string"
        },
        {
          "indexed": false,
          "internalType": "uint256",
          "name": "saleStartTimestamp",
          "type": "uint256"
        },
        {
          "indexed": false,
          "internalType": "uint256",
          "name": "saleEndTimestamp",
          "type": "uint256"
        },
        {
          "indexed": false,
          "internalType": "uint256",
          "name": "displayStartTimestamp",
          "type": "uint256"
        },
        {
          "indexed": false,
          "internalType": "uint256",
          "name": "displayEndTimestamp",
          "type": "uint256"
        },
        {
          "indexed": false,
          "internalType": "enum Ad.Pricing",
          "name": "pricing",
          "type": "uint8"
        },
        {
          "indexed": false,
          "internalType": "uint256",
          "name": "minPrice",
          "type": "uint256"
        }
      ],
      "name": "NewPeriod",
      "type": "event"
    },
    {
      "anonymous": false,
      "inputs": [
        {
          "indexed": false,
          "internalType": "string",
          "name": "metadata",
          "type": "string"
        }
      ],
      "name": "NewSpace",
      "type": "event"
    },
    {
      "anonymous": false,
      "inputs": [
        {
          "indexed": false,
          "internalType": "uint256",
          "name": "tokenId",
          "type": "uint256"
        },
        {
          "indexed": false,
          "internalType": "string",
          "name": "spaceMetadata",
          "type": "string"
        },
        {
          "indexed": false,
          "internalType": "uint256",
          "name": "displayStartTimestamp",
          "type": "uint256"
        },
        {
          "indexed": false,
          "internalType": "uint256",
          "name": "displayEndTimestamp",
          "type": "uint256"
        },
        {
          "indexed": false,
          "internalType": "address",
          "name": "sender",
          "type": "address"
        },
        {
          "indexed": false,
          "internalType": "uint256",
          "name": "price",
          "type": "uint256"
        }
      ],
      "name": "OfferPeriod",
      "type": "event"
    },
    {
      "anonymous": false,
      "inputs": [
        {
          "indexed": false,
          "internalType": "uint256",
          "name": "tokenId",
          "type": "uint256"
        },
        {
          "indexed": false,
          "internalType": "string",
          "name": "metadata",
          "type": "string"
        }
      ],
      "name": "Propose",
      "type": "event"
    },
    {
      "anonymous": false,
      "inputs": [
        {
          "indexed": false,
          "internalType": "uint256",
          "name": "tokenId",
          "type": "uint256"
        },
        {
          "indexed": false,
          "internalType": "uint256",
          "name": "price",
          "type": "uint256"
        },
        {
          "indexed": false,
          "internalType": "address",
          "name": "buyer",
          "type": "address"
        },
        {
          "indexed": false,
          "internalType": "uint256",
          "name": "timestamp",
          "type": "uint256"
        }
      ],
      "name": "ReceiveToken",
      "type": "event"
    },
    {
      "anonymous": false,
      "inputs": [
        {
          "indexed": true,
          "internalType": "address",
          "name": "from",
          "type": "address"
        },
        {
          "indexed": true,
          "internalType": "address",
          "name": "to",
          "type": "address"
        },
        {
          "indexed": true,
          "internalType": "uint256",
          "name": "tokenId",
          "type": "uint256"
        }
      ],
      "name": "TransferCustom",
      "type": "event"
    },
    {
      "anonymous": false,
      "inputs": [
        {
          "indexed": false,
          "internalType": "address",
          "name": "proxy",
          "type": "address"
        },
        {
          "indexed": false,
          "internalType": "address",
          "name": "mediaEOA",
          "type": "address"
        },
        {
          "indexed": false,
          "internalType": "string",
          "name": "accountMetadata",
          "type": "string"
        }
      ],
      "name": "UpdateMedia",
      "type": "event"
    },
    {
      "anonymous": false,
      "inputs": [
        {
          "indexed": false,
          "internalType": "uint256",
          "name": "amount",
          "type": "uint256"
        }
      ],
      "name": "Withdraw",
      "type": "event"
    },
    {
      "inputs": [],
      "name": "adPoolAddress",
      "outputs": [
        {
          "internalType": "address",
          "name": "",
          "type": "address"
        }
      ],
      "stateMutability": "view",
      "type": "function"
    },
    {
      "inputs": [
        {
          "internalType": "uint256",
          "name": "tokenId",
          "type": "uint256"
        },
        {
          "internalType": "string",
          "name": "spaceMetadata",
          "type": "string"
        },
        {
          "internalType": "string",
          "name": "tokenMetadata",
          "type": "string"
        },
        {
          "internalType": "uint256",
          "name": "displayStartTimestamp",
          "type": "uint256"
        },
        {
          "internalType": "uint256",
          "name": "displayEndTimestamp",
          "type": "uint256"
        },
        {
          "internalType": "uint256",
          "name": "price",
          "type": "uint256"
        }
      ],
      "name": "emitAcceptOffer",
      "outputs": [],
      "stateMutability": "nonpayable",
      "type": "function"
    },
    {
      "inputs": [
        {
          "internalType": "uint256",
          "name": "tokenId",
          "type": "uint256"
        },
        {
          "internalType": "string",
          "name": "metadata",
          "type": "string"
        }
      ],
      "name": "emitAcceptProposal",
      "outputs": [],
      "stateMutability": "nonpayable",
      "type": "function"
    },
    {
      "inputs": [
        {
          "internalType": "uint256",
          "name": "tokenId",
          "type": "uint256"
        },
        {
          "internalType": "uint256",
          "name": "msgValue",
          "type": "uint256"
        },
        {
          "internalType": "address",
          "name": "msgSender",
          "type": "address"
        }
      ],
      "name": "emitBid",
      "outputs": [],
      "stateMutability": "nonpayable",
      "type": "function"
    },
    {
      "inputs": [
        {
          "internalType": "uint256",
          "name": "tokenId",
          "type": "uint256"
        },
        {
          "internalType": "uint256",
          "name": "msgValue",
          "type": "uint256"
        },
        {
          "internalType": "address",
          "name": "msgSender",
          "type": "address"
        }
      ],
      "name": "emitBuy",
      "outputs": [],
      "stateMutability": "nonpayable",
      "type": "function"
    },
    {
      "inputs": [
        {
          "internalType": "uint256",
          "name": "tokenId",
          "type": "uint256"
        }
      ],
      "name": "emitCancelOffer",
      "outputs": [],
      "stateMutability": "nonpayable",
      "type": "function"
    },
    {
      "inputs": [
        {
          "internalType": "uint256",
          "name": "tokenId",
          "type": "uint256"
        }
      ],
      "name": "emitDeletePeriod",
      "outputs": [],
      "stateMutability": "nonpayable",
      "type": "function"
    },
    {
      "inputs": [
        {
          "internalType": "string",
          "name": "metadata",
          "type": "string"
        }
      ],
      "name": "emitDeleteSpace",
      "outputs": [],
      "stateMutability": "nonpayable",
      "type": "function"
    },
    {
      "inputs": [
        {
          "internalType": "uint256",
          "name": "tokenId",
          "type": "uint256"
        },
        {
          "internalType": "string",
          "name": "metadata",
          "type": "string"
        },
        {
          "internalType": "string",
          "name": "reason",
          "type": "string"
        },
        {
          "internalType": "bool",
          "name": "offensive",
          "type": "bool"
        }
      ],
      "name": "emitDenyProposal",
      "outputs": [],
      "stateMutability": "nonpayable",
      "type": "function"
    },
    {
      "inputs": [
        {
          "internalType": "address",
          "name": "proxy",
          "type": "address"
        },
        {
          "internalType": "address",
          "name": "mediaEOA",
          "type": "address"
        },
        {
          "internalType": "string",
          "name": "constantMetadata",
          "type": "string"
        },
        {
          "internalType": "string",
          "name": "updatableMetadata",
          "type": "string"
        },
        {
          "internalType": "uint256",
          "name": "saltNonce",
          "type": "uint256"
        }
      ],
      "name": "emitNewMedia",
      "outputs": [],
      "stateMutability": "nonpayable",
      "type": "function"
    },
    {
      "inputs": [
        {
          "internalType": "uint256",
          "name": "tokenId",
          "type": "uint256"
        },
        {
          "internalType": "string",
          "name": "spaceMetadata",
          "type": "string"
        },
        {
          "internalType": "string",
          "name": "tokenMetadata",
          "type": "string"
        },
        {
          "internalType": "uint256",
          "name": "saleStartTimestamp",
          "type": "uint256"
        },
        {
          "internalType": "uint256",
          "name": "saleEndTimestamp",
          "type": "uint256"
        },
        {
          "internalType": "uint256",
          "name": "displayStartTimestamp",
          "type": "uint256"
        },
        {
          "internalType": "uint256",
          "name": "displayEndTimestamp",
          "type": "uint256"
        },
        {
          "internalType": "enum Ad.Pricing",
          "name": "pricing",
          "type": "uint8"
        },
        {
          "internalType": "uint256",
          "name": "minPrice",
          "type": "uint256"
        }
      ],
      "name": "emitNewPeriod",
      "outputs": [],
      "stateMutability": "nonpayable",
      "type": "function"
    },
    {
      "inputs": [
        {
          "internalType": "string",
          "name": "metadata",
          "type": "string"
        }
      ],
      "name": "emitNewSpace",
      "outputs": [],
      "stateMutability": "nonpayable",
      "type": "function"
    },
    {
      "inputs": [
        {
          "internalType": "uint256",
          "name": "tokenId",
          "type": "uint256"
        },
        {
          "internalType": "string",
          "name": "spaceMetadata",
          "type": "string"
        },
        {
          "internalType": "uint256",
          "name": "displayStartTimestamp",
          "type": "uint256"
        },
        {
          "internalType": "uint256",
          "name": "displayEndTimestamp",
          "type": "uint256"
        },
        {
          "internalType": "address",
          "name": "sender",
          "type": "address"
        },
        {
          "internalType": "uint256",
          "name": "price",
          "type": "uint256"
        }
      ],
      "name": "emitOfferPeriod",
      "outputs": [],
      "stateMutability": "nonpayable",
      "type": "function"
    },
    {
      "inputs": [
        {
          "internalType": "uint256",
          "name": "tokenId",
          "type": "uint256"
        },
        {
          "internalType": "string",
          "name": "metadata",
          "type": "string"
        }
      ],
      "name": "emitPropose",
      "outputs": [],
      "stateMutability": "nonpayable",
      "type": "function"
    },
    {
      "inputs": [
        {
          "internalType": "uint256",
          "name": "tokenId",
          "type": "uint256"
        },
        {
          "internalType": "uint256",
          "name": "price",
          "type": "uint256"
        },
        {
          "internalType": "address",
          "name": "buyer",
          "type": "address"
        }
      ],
      "name": "emitReceiveToken",
      "outputs": [],
      "stateMutability": "nonpayable",
      "type": "function"
    },
    {
      "inputs": [
        {
          "internalType": "address",
          "name": "from",
          "type": "address"
        },
        {
          "internalType": "address",
          "name": "to",
          "type": "address"
        },
        {
          "internalType": "uint256",
          "name": "tokenId",
          "type": "uint256"
        }
      ],
      "name": "emitTransferCustom",
      "outputs": [],
      "stateMutability": "nonpayable",
      "type": "function"
    },
    {
      "inputs": [
        {
          "internalType": "address",
          "name": "proxy",
          "type": "address"
        },
        {
          "internalType": "address",
          "name": "mediaEOA",
          "type": "address"
        },
        {
          "internalType": "string",
          "name": "accountMetadata",
          "type": "string"
        }
      ],
      "name": "emitUpdateMedia",
      "outputs": [],
      "stateMutability": "nonpayable",
      "type": "function"
    },
    {
      "inputs": [
        {
          "internalType": "uint256",
          "name": "amount",
          "type": "uint256"
        }
      ],
      "name": "emitWithdraw",
      "outputs": [],
      "stateMutability": "nonpayable",
      "type": "function"
    },
    {
      "inputs": [],
      "name": "eventEmitterAddress",
      "outputs": [
        {
          "internalType": "address",
          "name": "",
          "type": "address"
        }
      ],
      "stateMutability": "view",
      "type": "function"
    },
    {
      "inputs": [],
      "name": "mediaFactoryAddress",
      "outputs": [
        {
          "internalType": "address",
          "name": "",
          "type": "address"
        }
      ],
      "stateMutability": "view",
      "type": "function"
    },
    {
      "inputs": [],
      "name": "mediaRegistryAddress",
      "outputs": [
        {
          "internalType": "address",
          "name": "",
          "type": "address"
        }
      ],
      "stateMutability": "view",
      "type": "function"
    },
    {
      "inputs": [],
      "name": "nameRegistryAddress",
      "outputs": [
        {
          "internalType": "address",
          "name": "",
          "type": "address"
        }
      ],
      "stateMutability": "view",
      "type": "function"
    },
    {
      "inputs": [],
      "name": "owner",
      "outputs": [
        {
          "internalType": "address",
          "name": "",
          "type": "address"
        }
      ],
      "stateMutability": "view",
      "type": "function"
    },
    {
      "inputs": [],
      "name": "vaultAddress",
      "outputs": [
        {
          "internalType": "address",
          "name": "",
          "type": "address"
        }
      ],
      "stateMutability": "view",
      "type": "function"
    }
  ],
  "transactionHash": "0x2794ae2c58ae046f3832712b8d56359c18f96df7da04d6282a76e55e3c865bef",
  "args": [
    "0x409A944c3f7C8F83e333e714278509F5B02E1f2c"
  ],
  "solcInputHash": "6ca65f67efc8f2cae2a93f9d484f35a0",
  "bytecode": "0x608060405234801561001057600080fd5b50604051611c16380380611c1683398101604081905261002f91610050565b600080546001600160a01b0319166001600160a01b03831617905550610080565b60006020828403121561006257600080fd5b81516001600160a01b038116811461007957600080fd5b9392505050565b611b878061008f6000396000f3fe608060405234801561001057600080fd5b50600436106101585760003560e01c806378689c64116100c3578063c9cd71b51161007c578063c9cd71b51461029f578063ccb55a98146102a7578063d2e16360146102ba578063f0726291146102cd578063f4cb45e5146102d5578063f65f14ac146102e857600080fd5b806378689c64146102435780637bab635a146102565780638da5cb5b146102695780638f6059d6146102715780639e7e11d714610279578063b495ffac1461028c57600080fd5b80633ebf7371116101155780633ebf7371146101e7578063430bf08a146101fa578063465bcf05146102025780635bcefb53146102155780636a58767e14610228578063746f1b201461023057600080fd5b80630797ec081461015d5780630ca82afb146101725780632623601314610185578063279862cb1461019857806327b7a2f5146101ab578063385c5521146101d4575b600080fd5b61017061016b36600461147a565b6102fb565b005b61017061018036600461150b565b610396565b610170610193366004611594565b610489565b6101706101a63660046115f6565b610573565b6000546001600160a01b03165b6040516001600160a01b03909116815260200160405180910390f35b6101706101e236600461160f565b610654565b6101706101f5366004611648565b610753565b6101b8610840565b6101706102103660046116cd565b6108f4565b61017061022336600461170e565b6109e4565b6101b8610acb565b61017061023e36600461170e565b610b02565b610170610251366004611755565b610bdd565b610170610264366004611792565b610cb6565b6101b8610db2565b6101b8610e01565b61017061028736600461160f565b610e37565b61017061029a366004611755565b610f0b565b6101b8610fe4565b6101706102b53660046115f6565b611014565b6101706102c836600461160f565b6110ee565b6101b86111c2565b6101706102e3366004611849565b6111f8565b6101706102f63660046115f6565b6112db565b610303610e01565b6001600160a01b0316336001600160a01b0316146103505760405162461bcd60e51b815260206004820152600560248201526404b443031360dc1b60448201526064015b60405180910390fd5b7f1dc472d582044e22bd24b2685973e92f3fb3f7174252f4bde8ad142ea1e78ec3858585858560405161038795949392919061190d565b60405180910390a15050505050565b60006103a06113b5565b604051630a57ebcf60e11b81523360048201526001600160a01b0391909116906314afd79e9060240160206040518083038186803b1580156103e157600080fd5b505afa1580156103f5573d6000803e3d6000fd5b505050506040513d601f19601f82011682018060405250810190610419919061195e565b6001600160a01b031614156104405760405162461bcd60e51b815260040161034790611982565b7f0bb287542408ded65f2846322c12ffb5e9228e18dc22074445d5e06f4698aeaa868686868686604051610479969594939291906119a1565b60405180910390a1505050505050565b60006104936113b5565b604051630a57ebcf60e11b81523360048201526001600160a01b0391909116906314afd79e9060240160206040518083038186803b1580156104d457600080fd5b505afa1580156104e8573d6000803e3d6000fd5b505050506040513d601f19601f8201168201806040525081019061050c919061195e565b6001600160a01b031614156105335760405162461bcd60e51b815260040161034790611982565b7f20879156e5855128644cb33ccda296b37af9727d80c8cf0e986362b2c01df9e0838383604051610566939291906119eb565b60405180910390a1505050565b600061057d6113b5565b604051630a57ebcf60e11b81523360048201526001600160a01b0391909116906314afd79e9060240160206040518083038186803b1580156105be57600080fd5b505afa1580156105d2573d6000803e3d6000fd5b505050506040513d601f19601f820116820180604052508101906105f6919061195e565b6001600160a01b0316141561061d5760405162461bcd60e51b815260040161034790611982565b6040518181527f5b6b431d4476a211bb7d41c20d1aab9ae2321deee0d20be3d9fc9b1093fa6e3d906020015b60405180910390a150565b600061065e6113b5565b604051630a57ebcf60e11b81523360048201526001600160a01b0391909116906314afd79e9060240160206040518083038186803b15801561069f57600080fd5b505afa1580156106b3573d6000803e3d6000fd5b505050506040513d601f19601f820116820180604052508101906106d7919061195e565b6001600160a01b031614156106fe5760405162461bcd60e51b815260040161034790611982565b7f27f0e57684cd818b3b06246bbc63cf3366959e8e4dcdbd46aa5b2778f25e73b0838383425b604051610566949392919093845260208401929092526001600160a01b03166040830152606082015260800190565b600061075d6113b5565b604051630a57ebcf60e11b81523360048201526001600160a01b0391909116906314afd79e9060240160206040518083038186803b15801561079e57600080fd5b505afa1580156107b2573d6000803e3d6000fd5b505050506040513d601f19601f820116820180604052508101906107d6919061195e565b6001600160a01b031614156107fd5760405162461bcd60e51b815260040161034790611982565b7f917b5da24a273be7df06d4141eb55d5d9cf1a2dae32878cf5693cefbd885a018848484846040516108329493929190611a20565b60405180910390a150505050565b600080546040516415985d5b1d60da1b60208201526001600160a01b0390911690638eaa6ac0906025015b604051602081830303815290604052805190602001206040518263ffffffff1660e01b815260040161089f91815260200190565b60206040518083038186803b1580156108b757600080fd5b505afa1580156108cb573d6000803e3d6000fd5b505050506040513d601f19601f820116820180604052508101906108ef919061195e565b905090565b60006108fe6113b5565b604051630a57ebcf60e11b81523360048201526001600160a01b0391909116906314afd79e9060240160206040518083038186803b15801561093f57600080fd5b505afa158015610953573d6000803e3d6000fd5b505050506040513d601f19601f82011682018060405250810190610977919061195e565b6001600160a01b0316141561099e5760405162461bcd60e51b815260040161034790611982565b80826001600160a01b0316846001600160a01b03167f4f21c37c3184c9b0bbc63a812b0a1a148f15f1bd6db127e7e562d9b04368032560405160405180910390a4505050565b60006109ee6113b5565b604051630a57ebcf60e11b81523360048201526001600160a01b0391909116906314afd79e9060240160206040518083038186803b158015610a2f57600080fd5b505afa158015610a43573d6000803e3d6000fd5b505050506040513d601f19601f82011682018060405250810190610a67919061195e565b6001600160a01b03161415610a8e5760405162461bcd60e51b815260040161034790611982565b7ffbcaf6dcca8992dde10374342f4a59e51717c327e0a8fcf5b460894126c4ac118282604051610abf929190611a5f565b60405180910390a15050565b600080546040516c4d65646961526567697374727960981b60208201526001600160a01b0390911690638eaa6ac090602d0161086b565b6000610b0c6113b5565b604051630a57ebcf60e11b81523360048201526001600160a01b0391909116906314afd79e9060240160206040518083038186803b158015610b4d57600080fd5b505afa158015610b61573d6000803e3d6000fd5b505050506040513d601f19601f82011682018060405250810190610b85919061195e565b6001600160a01b03161415610bac5760405162461bcd60e51b815260040161034790611982565b7fdd75cdb279dca6fe92df3801d51ed09ad93a4653400c85ead720719cb3b97e648282604051610abf929190611a5f565b6000610be76113b5565b604051630a57ebcf60e11b81523360048201526001600160a01b0391909116906314afd79e9060240160206040518083038186803b158015610c2857600080fd5b505afa158015610c3c573d6000803e3d6000fd5b505050506040513d601f19601f82011682018060405250810190610c60919061195e565b6001600160a01b03161415610c875760405162461bcd60e51b815260040161034790611982565b7f8f59e770815c7e70fd6a66c717f1f6c6b2a938c9de6fd82d2c8ac79463771089816040516106499190611a78565b6000610cc06113b5565b604051630a57ebcf60e11b81523360048201526001600160a01b0391909116906314afd79e9060240160206040518083038186803b158015610d0157600080fd5b505afa158015610d15573d6000803e3d6000fd5b505050506040513d601f19601f82011682018060405250810190610d39919061195e565b6001600160a01b03161415610d605760405162461bcd60e51b815260040161034790611982565b7f113d332939326968b86df824553c250f41867c6f2dd89e7d55a9a76ba5c60ba1898989898989898989604051610d9f99989796959493929190611a8b565b60405180910390a1505050505050505050565b60008060009054906101000a90046001600160a01b03166001600160a01b0316638da5cb5b6040518163ffffffff1660e01b815260040160206040518083038186803b1580156108b757600080fd5b600080546040516b4d65646961466163746f727960a01b60208201526001600160a01b0390911690638eaa6ac090602c0161086b565b6000610e416113b5565b604051630a57ebcf60e11b81523360048201526001600160a01b0391909116906314afd79e9060240160206040518083038186803b158015610e8257600080fd5b505afa158015610e96573d6000803e3d6000fd5b505050506040513d601f19601f82011682018060405250810190610eba919061195e565b6001600160a01b03161415610ee15760405162461bcd60e51b815260040161034790611982565b7ff657a33a260f0292d243ac4d7832a2af14d735a16351622191c6cf01af297c4e83838342610724565b6000610f156113b5565b604051630a57ebcf60e11b81523360048201526001600160a01b0391909116906314afd79e9060240160206040518083038186803b158015610f5657600080fd5b505afa158015610f6a573d6000803e3d6000fd5b505050506040513d601f19601f82011682018060405250810190610f8e919061195e565b6001600160a01b03161415610fb55760405162461bcd60e51b815260040161034790611982565b7f40f718b98ec12ea69664c7770914d2b2054ffbc7f15e051d2a0f9e68d4cf6085816040516106499190611a78565b60008054604051651059141bdbdb60d21b60208201526001600160a01b0390911690638eaa6ac09060260161086b565b600061101e6113b5565b604051630a57ebcf60e11b81523360048201526001600160a01b0391909116906314afd79e9060240160206040518083038186803b15801561105f57600080fd5b505afa158015611073573d6000803e3d6000fd5b505050506040513d601f19601f82011682018060405250810190611097919061195e565b6001600160a01b031614156110be5760405162461bcd60e51b815260040161034790611982565b6040518181527f029e7b2c30a4e7bfc3c0a3bd13106f4137e14326e456603b835cacdda53bca6890602001610649565b60006110f86113b5565b604051630a57ebcf60e11b81523360048201526001600160a01b0391909116906314afd79e9060240160206040518083038186803b15801561113957600080fd5b505afa15801561114d573d6000803e3d6000fd5b505050506040513d601f19601f82011682018060405250810190611171919061195e565b6001600160a01b031614156111985760405162461bcd60e51b815260040161034790611982565b7f312ad1b914a22d11c4cd9fcb4b3d71f98c69f212d74dd14ca390862014a5137c83838342610724565b600080546040516b22bb32b73a22b6b4ba3a32b960a11b60208201526001600160a01b0390911690638eaa6ac090602c0161086b565b60006112026113b5565b604051630a57ebcf60e11b81523360048201526001600160a01b0391909116906314afd79e9060240160206040518083038186803b15801561124357600080fd5b505afa158015611257573d6000803e3d6000fd5b505050506040513d601f19601f8201168201806040525081019061127b919061195e565b6001600160a01b031614156112a25760405162461bcd60e51b815260040161034790611982565b7f43b6900a4c2a714e2ba0ef717f474065755f74786ea410c0db6d1cebb33fda4186868686868660405161047996959493929190611b0a565b60006112e56113b5565b604051630a57ebcf60e11b81523360048201526001600160a01b0391909116906314afd79e9060240160206040518083038186803b15801561132657600080fd5b505afa15801561133a573d6000803e3d6000fd5b505050506040513d601f19601f8201168201806040525081019061135e919061195e565b6001600160a01b031614156113855760405162461bcd60e51b815260040161034790611982565b6040518181527f4e455dbee07370885b62f673891219a5fee0380b3da49d8bcae6297dc345cde090602001610649565b60006108ef610acb565b6001600160a01b03811681146113d457600080fd5b50565b634e487b7160e01b600052604160045260246000fd5b600082601f8301126113fe57600080fd5b813567ffffffffffffffff80821115611419576114196113d7565b604051601f8301601f19908116603f01168101908282118183101715611441576114416113d7565b8160405283815286602085880101111561145a57600080fd5b836020870160208301376000602085830101528094505050505092915050565b600080600080600060a0868803121561149257600080fd5b853561149d816113bf565b945060208601356114ad816113bf565b9350604086013567ffffffffffffffff808211156114ca57600080fd5b6114d689838a016113ed565b945060608801359150808211156114ec57600080fd5b506114f9888289016113ed565b95989497509295608001359392505050565b60008060008060008060c0878903121561152457600080fd5b86359550602087013567ffffffffffffffff8082111561154357600080fd5b61154f8a838b016113ed565b9650604089013591508082111561156557600080fd5b5061157289828a016113ed565b945050606087013592506080870135915060a087013590509295509295509295565b6000806000606084860312156115a957600080fd5b83356115b4816113bf565b925060208401356115c4816113bf565b9150604084013567ffffffffffffffff8111156115e057600080fd5b6115ec868287016113ed565b9150509250925092565b60006020828403121561160857600080fd5b5035919050565b60008060006060848603121561162457600080fd5b8335925060208401359150604084013561163d816113bf565b809150509250925092565b6000806000806080858703121561165e57600080fd5b84359350602085013567ffffffffffffffff8082111561167d57600080fd5b611689888389016113ed565b9450604087013591508082111561169f57600080fd5b506116ac878288016113ed565b925050606085013580151581146116c257600080fd5b939692955090935050565b6000806000606084860312156116e257600080fd5b83356116ed816113bf565b925060208401356116fd816113bf565b929592945050506040919091013590565b6000806040838503121561172157600080fd5b82359150602083013567ffffffffffffffff81111561173f57600080fd5b61174b858286016113ed565b9150509250929050565b60006020828403121561176757600080fd5b813567ffffffffffffffff81111561177e57600080fd5b61178a848285016113ed565b949350505050565b60008060008060008060008060006101208a8c0312156117b157600080fd5b8935985060208a013567ffffffffffffffff808211156117d057600080fd5b6117dc8d838e016113ed565b995060408c01359150808211156117f257600080fd5b506117ff8c828d016113ed565b97505060608a0135955060808a0135945060a08a0135935060c08a0135925060e08a01356004811061183057600080fd5b809250506101008a013590509295985092959850929598565b60008060008060008060c0878903121561186257600080fd5b86359550602087013567ffffffffffffffff81111561188057600080fd5b61188c89828a016113ed565b955050604087013593506060870135925060808701356118ab816113bf565b8092505060a087013590509295509295509295565b6000815180845260005b818110156118e6576020818501810151868301820152016118ca565b818111156118f8576000602083870101525b50601f01601f19169290920160200192915050565b60006001600160a01b03808816835280871660208401525060a0604083015261193960a08301866118c0565b828103606084015261194b81866118c0565b9150508260808301529695505050505050565b60006020828403121561197057600080fd5b815161197b816113bf565b9392505050565b6020808252600590820152644b4430313160d81b604082015260600190565b86815260c0602082015260006119ba60c08301886118c0565b82810360408401526119cc81886118c0565b60608401969096525050608081019290925260a0909101529392505050565b60006001600160a01b03808616835280851660208401525060606040830152611a1760608301846118c0565b95945050505050565b848152608060208201526000611a3960808301866118c0565b8281036040840152611a4b81866118c0565b915050821515606083015295945050505050565b82815260406020820152600061178a60408301846118c0565b60208152600061197b60208301846118c0565b60006101208b8352806020840152611aa58184018c6118c0565b90508281036040840152611ab9818b6118c0565b9150508760608301528660808301528560a08301528460c083015260048410611af257634e487b7160e01b600052602160045260246000fd5b60e08201939093526101000152979650505050505050565b86815260c060208201526000611b2360c08301886118c0565b90508560408301528460608301526001600160a01b03841660808301528260a083015297965050505050505056fea26469706673582212209977de95c13d53cfb05fa4a041f5704ed41726b266bfe70d3d35c315931e047964736f6c63430008090033",
  "libraries": {
    "Ad": "0x82afac187DD0D7C0940614FE8CD7B9DeA79e1740"
  },
  "devdoc": {
    "author": "Shumpei Koike - <shumpei.koike@bridges.inc>",
    "events": {
      "NewMedia(address,address,string,string,uint256)": {
        "details": "Emitted when a new media is created."
      }
    },
    "kind": "dev",
    "methods": {
      "adPoolAddress()": {
        "details": "Gets the address of AdPool."
      },
      "eventEmitterAddress()": {
        "details": "Gets the address of EventEmitter."
      },
      "mediaFactoryAddress()": {
        "details": "Gets the address of MediaFactory."
      },
      "mediaRegistryAddress()": {
        "details": "Gets the address of MediaRegistry."
      },
      "nameRegistryAddress()": {
        "details": "Gets the address of NameRegistry"
      },
      "owner()": {
        "details": "Gets the owner address."
      },
      "vaultAddress()": {
        "details": "Gets the address of Vault."
      }
    },
    "title": "EventEmitter - emits events on behalf of each proxy.",
    "version": 1
  },
  "userdoc": {
    "kind": "user",
    "methods": {},
    "version": 1
  },
  "storageLayout": {
    "storage": [
      {
        "astId": 1560,
        "contract": "contracts/peripheries/EventEmitter.sol:EventEmitter",
        "label": "_nameRegistry",
        "offset": 0,
        "slot": "0",
        "type": "t_contract(NameRegistry)1789"
      }
    ],
    "types": {
      "t_contract(NameRegistry)1789": {
        "encoding": "inplace",
        "label": "contract NameRegistry",
        "numberOfBytes": "20"
      }
    }
  }
}