{
  "address": "0x806573918804e9faD768367dc49ec94dfD1c4e30",
  "abi": [
    {
      "inputs": [
        {
          "internalType": "address",
          "name": "_nameRegistry",
          "type": "address"
        }
      ],
      "stateMutability": "nonpayable",
      "type": "constructor"
    },
    {
      "anonymous": false,
      "inputs": [
        {
          "indexed": false,
          "internalType": "uint256",
          "name": "tokenId",
          "type": "uint256"
        },
        {
          "indexed": false,
          "internalType": "string",
          "name": "spaceMetadata",
          "type": "string"
        },
        {
          "indexed": false,
          "internalType": "string",
          "name": "tokenMetadata",
          "type": "string"
        },
        {
          "indexed": false,
          "internalType": "uint256",
          "name": "displayStartTimestamp",
          "type": "uint256"
        },
        {
          "indexed": false,
          "internalType": "uint256",
          "name": "displayEndTimestamp",
          "type": "uint256"
        },
        {
          "indexed": false,
          "internalType": "uint256",
          "name": "price",
          "type": "uint256"
        }
      ],
      "name": "AcceptOffer",
      "type": "event"
    },
    {
      "anonymous": false,
      "inputs": [
        {
          "indexed": false,
          "internalType": "uint256",
          "name": "tokenId",
          "type": "uint256"
        },
        {
          "indexed": false,
          "internalType": "string",
          "name": "metadata",
          "type": "string"
        }
      ],
      "name": "AcceptProposal",
      "type": "event"
    },
    {
      "anonymous": false,
      "inputs": [
        {
          "indexed": false,
          "internalType": "uint256",
          "name": "tokenId",
          "type": "uint256"
        },
        {
          "indexed": false,
          "internalType": "uint256",
          "name": "price",
          "type": "uint256"
        },
        {
          "indexed": false,
          "internalType": "address",
          "name": "buyer",
          "type": "address"
        },
        {
          "indexed": false,
          "internalType": "uint256",
          "name": "timestamp",
          "type": "uint256"
        }
      ],
      "name": "Bid",
      "type": "event"
    },
    {
      "anonymous": false,
      "inputs": [
        {
          "indexed": false,
          "internalType": "uint256",
          "name": "tokenId",
          "type": "uint256"
        },
        {
          "indexed": false,
          "internalType": "uint256",
          "name": "price",
          "type": "uint256"
        },
        {
          "indexed": false,
          "internalType": "address",
          "name": "sender",
          "type": "address"
        },
        {
          "indexed": false,
          "internalType": "string",
          "name": "metadata",
          "type": "string"
        },
        {
          "indexed": false,
          "internalType": "uint256",
          "name": "timestamp",
          "type": "uint256"
        }
      ],
      "name": "BidWithProposal",
      "type": "event"
    },
    {
      "anonymous": false,
      "inputs": [
        {
          "indexed": false,
          "internalType": "uint256",
          "name": "tokenId",
          "type": "uint256"
        },
        {
          "indexed": false,
          "internalType": "uint256",
          "name": "price",
          "type": "uint256"
        },
        {
          "indexed": false,
          "internalType": "address",
          "name": "buyer",
          "type": "address"
        },
        {
          "indexed": false,
          "internalType": "uint256",
          "name": "timestamp",
          "type": "uint256"
        }
      ],
      "name": "Buy",
      "type": "event"
    },
    {
      "anonymous": false,
      "inputs": [
        {
          "indexed": false,
          "internalType": "uint256",
          "name": "tokenId",
          "type": "uint256"
        }
      ],
      "name": "CancelOffer",
      "type": "event"
    },
    {
      "anonymous": false,
      "inputs": [
        {
          "indexed": false,
          "internalType": "uint256",
          "name": "tokenId",
          "type": "uint256"
        }
      ],
      "name": "DeletePeriod",
      "type": "event"
    },
    {
      "anonymous": false,
      "inputs": [
        {
          "indexed": false,
          "internalType": "uint256",
          "name": "tokenId",
          "type": "uint256"
        },
        {
          "indexed": false,
          "internalType": "string",
          "name": "metadata",
          "type": "string"
        },
        {
          "indexed": false,
          "internalType": "string",
          "name": "reason",
          "type": "string"
        },
        {
          "indexed": false,
          "internalType": "bool",
          "name": "offensive",
          "type": "bool"
        }
      ],
      "name": "DenyProposal",
      "type": "event"
    },
    {
      "anonymous": false,
      "inputs": [
        {
          "indexed": false,
          "internalType": "address",
          "name": "proxy",
          "type": "address"
        },
        {
          "indexed": false,
          "internalType": "address",
          "name": "mediaEOA",
          "type": "address"
        },
        {
          "indexed": false,
          "internalType": "string",
          "name": "applicationMetadata",
          "type": "string"
        },
        {
          "indexed": false,
          "internalType": "string",
          "name": "updatableMetadata",
          "type": "string"
        },
        {
          "indexed": false,
          "internalType": "uint256",
          "name": "saltNonce",
          "type": "uint256"
        }
      ],
      "name": "NewMedia",
      "type": "event"
    },
    {
      "anonymous": false,
      "inputs": [
        {
          "indexed": false,
          "internalType": "uint256",
          "name": "tokenId",
          "type": "uint256"
        },
        {
          "indexed": false,
          "internalType": "string",
          "name": "spaceMetadata",
          "type": "string"
        },
        {
          "indexed": false,
          "internalType": "string",
          "name": "tokenMetadata",
          "type": "string"
        },
        {
          "indexed": false,
          "internalType": "uint256",
          "name": "saleStartTimestamp",
          "type": "uint256"
        },
        {
          "indexed": false,
          "internalType": "uint256",
          "name": "saleEndTimestamp",
          "type": "uint256"
        },
        {
          "indexed": false,
          "internalType": "uint256",
          "name": "displayStartTimestamp",
          "type": "uint256"
        },
        {
          "indexed": false,
          "internalType": "uint256",
          "name": "displayEndTimestamp",
          "type": "uint256"
        },
        {
          "indexed": false,
          "internalType": "enum Ad.Pricing",
          "name": "pricing",
          "type": "uint8"
        },
        {
          "indexed": false,
          "internalType": "uint256",
          "name": "minPrice",
          "type": "uint256"
        }
      ],
      "name": "NewPeriod",
      "type": "event"
    },
    {
      "anonymous": false,
      "inputs": [
        {
          "indexed": false,
          "internalType": "string",
          "name": "metadata",
          "type": "string"
        }
      ],
      "name": "NewSpace",
      "type": "event"
    },
    {
      "anonymous": false,
      "inputs": [
        {
          "indexed": false,
          "internalType": "uint256",
          "name": "tokenId",
          "type": "uint256"
        },
        {
          "indexed": false,
          "internalType": "string",
          "name": "spaceMetadata",
          "type": "string"
        },
        {
          "indexed": false,
          "internalType": "uint256",
          "name": "displayStartTimestamp",
          "type": "uint256"
        },
        {
          "indexed": false,
          "internalType": "uint256",
          "name": "displayEndTimestamp",
          "type": "uint256"
        },
        {
          "indexed": false,
          "internalType": "address",
          "name": "sender",
          "type": "address"
        },
        {
          "indexed": false,
          "internalType": "uint256",
          "name": "price",
          "type": "uint256"
        }
      ],
      "name": "OfferPeriod",
      "type": "event"
    },
    {
      "anonymous": false,
      "inputs": [
        {
          "indexed": false,
          "internalType": "address",
          "name": "receiver",
          "type": "address"
        },
        {
          "indexed": false,
          "internalType": "uint256",
          "name": "price",
          "type": "uint256"
        }
      ],
      "name": "PaymentFailure",
      "type": "event"
    },
    {
      "anonymous": false,
      "inputs": [
        {
          "indexed": false,
          "internalType": "uint256",
          "name": "tokenId",
          "type": "uint256"
        },
        {
          "indexed": false,
          "internalType": "string",
          "name": "metadata",
          "type": "string"
        }
      ],
      "name": "Propose",
      "type": "event"
    },
    {
      "anonymous": false,
      "inputs": [
        {
          "indexed": false,
          "internalType": "uint256",
          "name": "tokenId",
          "type": "uint256"
        },
        {
          "indexed": false,
          "internalType": "uint256",
          "name": "price",
          "type": "uint256"
        },
        {
          "indexed": false,
          "internalType": "address",
          "name": "buyer",
          "type": "address"
        },
        {
          "indexed": false,
          "internalType": "uint256",
          "name": "timestamp",
          "type": "uint256"
        }
      ],
      "name": "ReceiveToken",
      "type": "event"
    },
    {
      "anonymous": false,
      "inputs": [
        {
          "indexed": false,
          "internalType": "address",
          "name": "",
          "type": "address"
        },
        {
          "indexed": false,
          "internalType": "uint256",
          "name": "",
          "type": "uint256"
        }
      ],
      "name": "Received",
      "type": "event"
    },
    {
      "anonymous": false,
      "inputs": [
        {
          "indexed": false,
          "internalType": "uint256",
          "name": "tokenId",
          "type": "uint256"
        },
        {
          "indexed": false,
          "internalType": "address",
          "name": "successfulBidder",
          "type": "address"
        }
      ],
      "name": "SelectProposal",
      "type": "event"
    },
    {
      "anonymous": false,
      "inputs": [
        {
          "indexed": true,
          "internalType": "address",
          "name": "from",
          "type": "address"
        },
        {
          "indexed": true,
          "internalType": "address",
          "name": "to",
          "type": "address"
        },
        {
          "indexed": true,
          "internalType": "uint256",
          "name": "tokenId",
          "type": "uint256"
        }
      ],
      "name": "TransferCustom",
      "type": "event"
    },
    {
      "anonymous": false,
      "inputs": [
        {
          "indexed": false,
          "internalType": "address",
          "name": "proxy",
          "type": "address"
        },
        {
          "indexed": false,
          "internalType": "address",
          "name": "mediaEOA",
          "type": "address"
        },
        {
          "indexed": false,
          "internalType": "string",
          "name": "accountMetadata",
          "type": "string"
        }
      ],
      "name": "UpdateMedia",
      "type": "event"
    },
    {
      "anonymous": false,
      "inputs": [
        {
          "indexed": false,
          "internalType": "uint256",
          "name": "amount",
          "type": "uint256"
        }
      ],
      "name": "Withdraw",
      "type": "event"
    },
    {
      "inputs": [],
      "name": "adPoolAddress",
      "outputs": [
        {
          "internalType": "address",
          "name": "",
          "type": "address"
        }
      ],
      "stateMutability": "view",
      "type": "function"
    },
    {
      "inputs": [
        {
          "internalType": "uint256",
          "name": "tokenId",
          "type": "uint256"
        },
        {
          "internalType": "string",
          "name": "spaceMetadata",
          "type": "string"
        },
        {
          "internalType": "string",
          "name": "tokenMetadata",
          "type": "string"
        },
        {
          "internalType": "uint256",
          "name": "displayStartTimestamp",
          "type": "uint256"
        },
        {
          "internalType": "uint256",
          "name": "displayEndTimestamp",
          "type": "uint256"
        },
        {
          "internalType": "uint256",
          "name": "price",
          "type": "uint256"
        }
      ],
      "name": "emitAcceptOffer",
      "outputs": [],
      "stateMutability": "nonpayable",
      "type": "function"
    },
    {
      "inputs": [
        {
          "internalType": "uint256",
          "name": "tokenId",
          "type": "uint256"
        },
        {
          "internalType": "string",
          "name": "metadata",
          "type": "string"
        }
      ],
      "name": "emitAcceptProposal",
      "outputs": [],
      "stateMutability": "nonpayable",
      "type": "function"
    },
    {
      "inputs": [
        {
          "internalType": "uint256",
          "name": "tokenId",
          "type": "uint256"
        },
        {
          "internalType": "uint256",
          "name": "msgValue",
          "type": "uint256"
        },
        {
          "internalType": "address",
          "name": "msgSender",
          "type": "address"
        },
        {
          "internalType": "uint256",
          "name": "blockTimestamp",
          "type": "uint256"
        }
      ],
      "name": "emitBid",
      "outputs": [],
      "stateMutability": "nonpayable",
      "type": "function"
    },
    {
      "inputs": [
        {
          "internalType": "uint256",
          "name": "tokenId",
          "type": "uint256"
        },
        {
          "internalType": "uint256",
          "name": "msgValue",
          "type": "uint256"
        },
        {
          "internalType": "address",
          "name": "msgSender",
          "type": "address"
        },
        {
          "internalType": "string",
          "name": "metadata",
          "type": "string"
        },
        {
          "internalType": "uint256",
          "name": "blockTimestamp",
          "type": "uint256"
        }
      ],
      "name": "emitBidWithProposal",
      "outputs": [],
      "stateMutability": "nonpayable",
      "type": "function"
    },
    {
      "inputs": [
        {
          "internalType": "uint256",
          "name": "tokenId",
          "type": "uint256"
        },
        {
          "internalType": "uint256",
          "name": "msgValue",
          "type": "uint256"
        },
        {
          "internalType": "address",
          "name": "msgSender",
          "type": "address"
        },
        {
          "internalType": "uint256",
          "name": "blockTimestamp",
          "type": "uint256"
        }
      ],
      "name": "emitBuy",
      "outputs": [],
      "stateMutability": "nonpayable",
      "type": "function"
    },
    {
      "inputs": [
        {
          "internalType": "uint256",
          "name": "tokenId",
          "type": "uint256"
        }
      ],
      "name": "emitCancelOffer",
      "outputs": [],
      "stateMutability": "nonpayable",
      "type": "function"
    },
    {
      "inputs": [
        {
          "internalType": "uint256",
          "name": "tokenId",
          "type": "uint256"
        }
      ],
      "name": "emitDeletePeriod",
      "outputs": [],
      "stateMutability": "nonpayable",
      "type": "function"
    },
    {
      "inputs": [
        {
          "internalType": "uint256",
          "name": "tokenId",
          "type": "uint256"
        },
        {
          "internalType": "string",
          "name": "metadata",
          "type": "string"
        },
        {
          "internalType": "string",
          "name": "reason",
          "type": "string"
        },
        {
          "internalType": "bool",
          "name": "offensive",
          "type": "bool"
        }
      ],
      "name": "emitDenyProposal",
      "outputs": [],
      "stateMutability": "nonpayable",
      "type": "function"
    },
    {
      "inputs": [
        {
          "internalType": "address",
          "name": "proxy",
          "type": "address"
        },
        {
          "internalType": "address",
          "name": "mediaEOA",
          "type": "address"
        },
        {
          "internalType": "string",
          "name": "applicationMetadata",
          "type": "string"
        },
        {
          "internalType": "string",
          "name": "updatableMetadata",
          "type": "string"
        },
        {
          "internalType": "uint256",
          "name": "saltNonce",
          "type": "uint256"
        }
      ],
      "name": "emitNewMedia",
      "outputs": [],
      "stateMutability": "nonpayable",
      "type": "function"
    },
    {
      "inputs": [
        {
          "internalType": "uint256",
          "name": "tokenId",
          "type": "uint256"
        },
        {
          "internalType": "string",
          "name": "spaceMetadata",
          "type": "string"
        },
        {
          "internalType": "string",
          "name": "tokenMetadata",
          "type": "string"
        },
        {
          "internalType": "uint256",
          "name": "saleStartTimestamp",
          "type": "uint256"
        },
        {
          "internalType": "uint256",
          "name": "saleEndTimestamp",
          "type": "uint256"
        },
        {
          "internalType": "uint256",
          "name": "displayStartTimestamp",
          "type": "uint256"
        },
        {
          "internalType": "uint256",
          "name": "displayEndTimestamp",
          "type": "uint256"
        },
        {
          "internalType": "enum Ad.Pricing",
          "name": "pricing",
          "type": "uint8"
        },
        {
          "internalType": "uint256",
          "name": "minPrice",
          "type": "uint256"
        }
      ],
      "name": "emitNewPeriod",
      "outputs": [],
      "stateMutability": "nonpayable",
      "type": "function"
    },
    {
      "inputs": [
        {
          "internalType": "string",
          "name": "metadata",
          "type": "string"
        }
      ],
      "name": "emitNewSpace",
      "outputs": [],
      "stateMutability": "nonpayable",
      "type": "function"
    },
    {
      "inputs": [
        {
          "internalType": "uint256",
          "name": "tokenId",
          "type": "uint256"
        },
        {
          "internalType": "string",
          "name": "spaceMetadata",
          "type": "string"
        },
        {
          "internalType": "uint256",
          "name": "displayStartTimestamp",
          "type": "uint256"
        },
        {
          "internalType": "uint256",
          "name": "displayEndTimestamp",
          "type": "uint256"
        },
        {
          "internalType": "address",
          "name": "sender",
          "type": "address"
        },
        {
          "internalType": "uint256",
          "name": "price",
          "type": "uint256"
        }
      ],
      "name": "emitOfferPeriod",
      "outputs": [],
      "stateMutability": "nonpayable",
      "type": "function"
    },
    {
      "inputs": [
        {
          "internalType": "address",
          "name": "receiver",
          "type": "address"
        },
        {
          "internalType": "uint256",
          "name": "price",
          "type": "uint256"
        }
      ],
      "name": "emitPaymentFailure",
      "outputs": [],
      "stateMutability": "nonpayable",
      "type": "function"
    },
    {
      "inputs": [
        {
          "internalType": "uint256",
          "name": "tokenId",
          "type": "uint256"
        },
        {
          "internalType": "string",
          "name": "metadata",
          "type": "string"
        }
      ],
      "name": "emitPropose",
      "outputs": [],
      "stateMutability": "nonpayable",
      "type": "function"
    },
    {
      "inputs": [
        {
          "internalType": "uint256",
          "name": "tokenId",
          "type": "uint256"
        },
        {
          "internalType": "uint256",
          "name": "price",
          "type": "uint256"
        },
        {
          "internalType": "address",
          "name": "buyer",
          "type": "address"
        },
        {
          "internalType": "uint256",
          "name": "blockTimestamp",
          "type": "uint256"
        }
      ],
      "name": "emitReceiveToken",
      "outputs": [],
      "stateMutability": "nonpayable",
      "type": "function"
    },
    {
      "inputs": [
        {
          "internalType": "address",
          "name": "receiver",
          "type": "address"
        },
        {
          "internalType": "uint256",
          "name": "price",
          "type": "uint256"
        }
      ],
      "name": "emitReceived",
      "outputs": [],
      "stateMutability": "nonpayable",
      "type": "function"
    },
    {
      "inputs": [
        {
          "internalType": "uint256",
          "name": "tokenId",
          "type": "uint256"
        },
        {
          "internalType": "address",
          "name": "successfulBidder",
          "type": "address"
        }
      ],
      "name": "emitSelectProposal",
      "outputs": [],
      "stateMutability": "nonpayable",
      "type": "function"
    },
    {
      "inputs": [
        {
          "internalType": "address",
          "name": "from",
          "type": "address"
        },
        {
          "internalType": "address",
          "name": "to",
          "type": "address"
        },
        {
          "internalType": "uint256",
          "name": "tokenId",
          "type": "uint256"
        }
      ],
      "name": "emitTransferCustom",
      "outputs": [],
      "stateMutability": "nonpayable",
      "type": "function"
    },
    {
      "inputs": [
        {
          "internalType": "address",
          "name": "proxy",
          "type": "address"
        },
        {
          "internalType": "address",
          "name": "mediaEOA",
          "type": "address"
        },
        {
          "internalType": "string",
          "name": "accountMetadata",
          "type": "string"
        }
      ],
      "name": "emitUpdateMedia",
      "outputs": [],
      "stateMutability": "nonpayable",
      "type": "function"
    },
    {
      "inputs": [
        {
          "internalType": "uint256",
          "name": "amount",
          "type": "uint256"
        }
      ],
      "name": "emitWithdraw",
      "outputs": [],
      "stateMutability": "nonpayable",
      "type": "function"
    },
    {
      "inputs": [],
      "name": "englishAuctionAddress",
      "outputs": [
        {
          "internalType": "address",
          "name": "",
          "type": "address"
        }
      ],
      "stateMutability": "view",
      "type": "function"
    },
    {
      "inputs": [],
      "name": "eventEmitterAddress",
      "outputs": [
        {
          "internalType": "address",
          "name": "",
          "type": "address"
        }
      ],
      "stateMutability": "view",
      "type": "function"
    },
    {
      "inputs": [],
      "name": "mediaFactoryAddress",
      "outputs": [
        {
          "internalType": "address",
          "name": "",
          "type": "address"
        }
      ],
      "stateMutability": "view",
      "type": "function"
    },
    {
      "inputs": [],
      "name": "mediaRegistryAddress",
      "outputs": [
        {
          "internalType": "address",
          "name": "",
          "type": "address"
        }
      ],
      "stateMutability": "view",
      "type": "function"
    },
    {
      "inputs": [],
      "name": "nameRegistryAddress",
      "outputs": [
        {
          "internalType": "address",
          "name": "",
          "type": "address"
        }
      ],
      "stateMutability": "view",
      "type": "function"
    },
    {
      "inputs": [],
      "name": "offerBidAddress",
      "outputs": [
        {
          "internalType": "address",
          "name": "",
          "type": "address"
        }
      ],
      "stateMutability": "view",
      "type": "function"
    },
    {
      "inputs": [],
      "name": "openBidAddress",
      "outputs": [
        {
          "internalType": "address",
          "name": "",
          "type": "address"
        }
      ],
      "stateMutability": "view",
      "type": "function"
    },
    {
      "inputs": [],
      "name": "owner",
      "outputs": [
        {
          "internalType": "address",
          "name": "",
          "type": "address"
        }
      ],
      "stateMutability": "view",
      "type": "function"
    },
    {
      "inputs": [],
      "name": "vaultAddress",
      "outputs": [
        {
          "internalType": "address",
          "name": "",
          "type": "address"
        }
      ],
      "stateMutability": "view",
      "type": "function"
    }
  ],
  "transactionHash": "0xc9e1c2b5a2415b20ce59ae2443f07dce83c02eb9ef905848efc3fe0500276906",
  "args": [
    "0x173E3862BaE7bD155a7a371Ee3b855de01aa63dd"
  ],
  "solcInputHash": "c223bd9c030b84fabf96ddb6a85aba33",
  "bytecode": "0x608060405234801561001057600080fd5b506040516120bc3803806120bc83398101604081905261002f91610050565b600080546001600160a01b0319166001600160a01b03831617905550610080565b60006020828403121561006257600080fd5b81516001600160a01b038116811461007957600080fd5b9392505050565b61202d8061008f6000396000f3fe608060405234801561001057600080fd5b506004361061016a5760003560e01c80630106d8eb1461016f5780630797ec081461018d5780630ca82afb146101a25780630d2657bf146101b55780632231c1eb146101c857806326236013146101d0578063279862cb146101e357806327b7a2f5146101f65780633ebf737114610207578063430bf08a1461021a578063465bcf0514610222578063493a6320146102355780635b50ca69146102485780635bcefb531461025b5780635dd995b51461026e5780636a58767e14610281578063746f1b201461028957806378689c641461029c5780637bab635a146102af5780637c302ae3146102c25780637cf175fb146102d55780638da5cb5b146102dd5780638f6059d6146102e5578063b287b60f146102ed578063c9cd71b514610300578063ccb55a9814610308578063ec720b9b1461031b578063f07262911461032e578063f4cb45e514610336578063f65f14ac14610349575b600080fd5b61017761035c565b60405161018491906116df565b60405180910390f35b6101a061019b3660046117ad565b610419565b005b6101a06101b036600461183d565b6104b4565b6101a06101c33660046118c5565b61059b565b610177610670565b6101a06101de36600461191d565b6106a1565b6101a06101f136600461197e565b61078d565b6000546001600160a01b0316610177565b6101a06102153660046119a5565b610870565b61017761095f565b6101a0610230366004611a24565b61098e565b6101a0610243366004611a65565b610a80565b6101a0610256366004611a95565b610b64565b6101a0610269366004611ad4565b610c37565b6101a061027c366004611a95565b610d14565b610177610df5565b6101a0610297366004611ad4565b610e2c565b6101a06102aa366004611b1a565b610f09565b6101a06102bd366004611b56565b610fd6565b6101a06102d0366004611c0c565b6110c6565b6101776111a3565b6101776111d5565b610177611224565b6101a06102fb366004611a95565b61125a565b61017761132d565b6101a061031636600461197e565b61135d565b6101a0610329366004611c0c565b61142b565b6101776114fa565b6101a0610344366004611c38565b611530565b6101a061035736600461197e565b611607565b600080546040516d22b733b634b9b420bab1ba34b7b760911b60208201526001600160a01b0390911690638eaa6ac090602e015b604051602081830303815290604052805190602001206040518263ffffffff1660e01b81526004016103c491815260200190565b60206040518083038186803b1580156103dc57600080fd5b505afa1580156103f0573d6000803e3d6000fd5b505050506040513d601f19601f820116820180604052508101906104149190611cae565b905090565b610421611224565b6001600160a01b0316336001600160a01b03161461046e5760405162461bcd60e51b815260206004820152600560248201526404b443031360dc1b60448201526064015b60405180910390fd5b7f1dc472d582044e22bd24b2685973e92f3fb3f7174252f4bde8ad142ea1e78ec385858585856040516104a5959493929190611d1f565b60405180910390a15050505050565b6000546040516351e0e26b60e01b81526001600160a01b03909116906351e0e26b906104e49033906004016116df565b602060405180830381600087803b1580156104fe57600080fd5b505af1158015610512573d6000803e3d6000fd5b505050506040513d601f19601f820116820180604052508101906105369190611d70565b6105525760405162461bcd60e51b815260040161046590611d8d565b7f0bb287542408ded65f2846322c12ffb5e9228e18dc22074445d5e06f4698aeaa86868686868660405161058b96959493929190611dac565b60405180910390a1505050505050565b6000546040516351e0e26b60e01b81526001600160a01b03909116906351e0e26b906105cb9033906004016116df565b602060405180830381600087803b1580156105e557600080fd5b505af11580156105f9573d6000803e3d6000fd5b505050506040513d601f19601f8201168201806040525081019061061d9190611d70565b6106395760405162461bcd60e51b815260040161046590611d8d565b7f64f7d04e523947d79f772988c75e01af9141f056747beb2bb66551a94e5f666a85858585856040516104a5959493929190611df6565b600080546040516613dc195b909a5960ca1b60208201526001600160a01b0390911690638eaa6ac090602701610390565b60006106ab6116d5565b6001600160a01b03166314afd79e336040518263ffffffff1660e01b81526004016106d691906116df565b60206040518083038186803b1580156106ee57600080fd5b505afa158015610702573d6000803e3d6000fd5b505050506040513d601f19601f820116820180604052508101906107269190611cae565b6001600160a01b0316141561074d5760405162461bcd60e51b815260040161046590611e35565b7f20879156e5855128644cb33ccda296b37af9727d80c8cf0e986362b2c01df9e083838360405161078093929190611e54565b60405180910390a1505050565b60006107976116d5565b6001600160a01b03166314afd79e336040518263ffffffff1660e01b81526004016107c291906116df565b60206040518083038186803b1580156107da57600080fd5b505afa1580156107ee573d6000803e3d6000fd5b505050506040513d601f19601f820116820180604052508101906108129190611cae565b6001600160a01b031614156108395760405162461bcd60e51b815260040161046590611e35565b6040518181527f5b6b431d4476a211bb7d41c20d1aab9ae2321deee0d20be3d9fc9b1093fa6e3d906020015b60405180910390a150565b600061087a6116d5565b6001600160a01b03166314afd79e336040518263ffffffff1660e01b81526004016108a591906116df565b60206040518083038186803b1580156108bd57600080fd5b505afa1580156108d1573d6000803e3d6000fd5b505050506040513d601f19601f820116820180604052508101906108f59190611cae565b6001600160a01b0316141561091c5760405162461bcd60e51b815260040161046590611e35565b7f917b5da24a273be7df06d4141eb55d5d9cf1a2dae32878cf5693cefbd885a018848484846040516109519493929190611e89565b60405180910390a150505050565b600080546040516415985d5b1d60da1b60208201526001600160a01b0390911690638eaa6ac090602501610390565b60006109986116d5565b6001600160a01b03166314afd79e336040518263ffffffff1660e01b81526004016109c391906116df565b60206040518083038186803b1580156109db57600080fd5b505afa1580156109ef573d6000803e3d6000fd5b505050506040513d601f19601f82011682018060405250810190610a139190611cae565b6001600160a01b03161415610a3a5760405162461bcd60e51b815260040161046590611e35565b80826001600160a01b0316846001600160a01b03167f4f21c37c3184c9b0bbc63a812b0a1a148f15f1bd6db127e7e562d9b04368032560405160405180910390a4505050565b6000546040516351e0e26b60e01b81526001600160a01b03909116906351e0e26b90610ab09033906004016116df565b602060405180830381600087803b158015610aca57600080fd5b505af1158015610ade573d6000803e3d6000fd5b505050506040513d601f19601f82011682018060405250810190610b029190611d70565b610b1e5760405162461bcd60e51b815260040161046590611d8d565b604080518381526001600160a01b03831660208201527f280e02e3ed1af740570b8d08ffed04a58fa870ace01401ffe1078a0351c5670e91015b60405180910390a15050565b6000546040516351e0e26b60e01b81526001600160a01b03909116906351e0e26b90610b949033906004016116df565b602060405180830381600087803b158015610bae57600080fd5b505af1158015610bc2573d6000803e3d6000fd5b505050506040513d601f19601f82011682018060405250810190610be69190611d70565b610c025760405162461bcd60e51b815260040161046590611d8d565b7ff657a33a260f0292d243ac4d7832a2af14d735a16351622191c6cf01af297c4e848484846040516109519493929190611ec8565b6000610c416116d5565b6001600160a01b03166314afd79e336040518263ffffffff1660e01b8152600401610c6c91906116df565b60206040518083038186803b158015610c8457600080fd5b505afa158015610c98573d6000803e3d6000fd5b505050506040513d601f19601f82011682018060405250810190610cbc9190611cae565b6001600160a01b03161415610ce35760405162461bcd60e51b815260040161046590611e35565b7ffbcaf6dcca8992dde10374342f4a59e51717c327e0a8fcf5b460894126c4ac118282604051610b58929190611eec565b6000610d1e6116d5565b6001600160a01b03166314afd79e336040518263ffffffff1660e01b8152600401610d4991906116df565b60206040518083038186803b158015610d6157600080fd5b505afa158015610d75573d6000803e3d6000fd5b505050506040513d601f19601f82011682018060405250810190610d999190611cae565b6001600160a01b03161415610dc05760405162461bcd60e51b815260040161046590611e35565b7f27f0e57684cd818b3b06246bbc63cf3366959e8e4dcdbd46aa5b2778f25e73b0848484846040516109519493929190611ec8565b600080546040516c4d65646961526567697374727960981b60208201526001600160a01b0390911690638eaa6ac090602d01610390565b6000610e366116d5565b6001600160a01b03166314afd79e336040518263ffffffff1660e01b8152600401610e6191906116df565b60206040518083038186803b158015610e7957600080fd5b505afa158015610e8d573d6000803e3d6000fd5b505050506040513d601f19601f82011682018060405250810190610eb19190611cae565b6001600160a01b03161415610ed85760405162461bcd60e51b815260040161046590611e35565b7fdd75cdb279dca6fe92df3801d51ed09ad93a4653400c85ead720719cb3b97e648282604051610b58929190611eec565b6000546040516351e0e26b60e01b81526001600160a01b03909116906351e0e26b90610f399033906004016116df565b602060405180830381600087803b158015610f5357600080fd5b505af1158015610f67573d6000803e3d6000fd5b505050506040513d601f19601f82011682018060405250810190610f8b9190611d70565b610fa75760405162461bcd60e51b815260040161046590611d8d565b7f8f59e770815c7e70fd6a66c717f1f6c6b2a938c9de6fd82d2c8ac79463771089816040516108659190611f05565b6000546040516351e0e26b60e01b81526001600160a01b03909116906351e0e26b906110069033906004016116df565b602060405180830381600087803b15801561102057600080fd5b505af1158015611034573d6000803e3d6000fd5b505050506040513d601f19601f820116820180604052508101906110589190611d70565b6110745760405162461bcd60e51b815260040161046590611d8d565b7f113d332939326968b86df824553c250f41867c6f2dd89e7d55a9a76ba5c60ba18989898989898989896040516110b399989796959493929190611f18565b60405180910390a1505050505050505050565b60006110d06116d5565b6001600160a01b03166314afd79e336040518263ffffffff1660e01b81526004016110fb91906116df565b60206040518083038186803b15801561111357600080fd5b505afa158015611127573d6000803e3d6000fd5b505050506040513d601f19601f8201168201806040525081019061114b9190611cae565b6001600160a01b031614156111725760405162461bcd60e51b815260040161046590611e35565b7f88a5966d370b9919b20f3e2c13ff65706f196a4e32cc2c12bf57088f885258748282604051610b58929190611f97565b600080546040516713d999995c909a5960c21b60208201526001600160a01b0390911690638eaa6ac090602801610390565b60008060009054906101000a90046001600160a01b03166001600160a01b031663d5f394886040518163ffffffff1660e01b815260040160206040518083038186803b1580156103dc57600080fd5b600080546040516b4d65646961466163746f727960a01b60208201526001600160a01b0390911690638eaa6ac090602c01610390565b6000546040516351e0e26b60e01b81526001600160a01b03909116906351e0e26b9061128a9033906004016116df565b602060405180830381600087803b1580156112a457600080fd5b505af11580156112b8573d6000803e3d6000fd5b505050506040513d601f19601f820116820180604052508101906112dc9190611d70565b6112f85760405162461bcd60e51b815260040161046590611d8d565b7f312ad1b914a22d11c4cd9fcb4b3d71f98c69f212d74dd14ca390862014a5137c848484846040516109519493929190611ec8565b60008054604051651059141bdbdb60d21b60208201526001600160a01b0390911690638eaa6ac090602601610390565b6000546040516351e0e26b60e01b81526001600160a01b03909116906351e0e26b9061138d9033906004016116df565b602060405180830381600087803b1580156113a757600080fd5b505af11580156113bb573d6000803e3d6000fd5b505050506040513d601f19601f820116820180604052508101906113df9190611d70565b6113fb5760405162461bcd60e51b815260040161046590611d8d565b6040518181527f029e7b2c30a4e7bfc3c0a3bd13106f4137e14326e456603b835cacdda53bca6890602001610865565b6000546040516351e0e26b60e01b81526001600160a01b03909116906351e0e26b9061145b9033906004016116df565b602060405180830381600087803b15801561147557600080fd5b505af1158015611489573d6000803e3d6000fd5b505050506040513d601f19601f820116820180604052508101906114ad9190611d70565b6114c95760405162461bcd60e51b815260040161046590611d8d565b7fade428889ac75005bd70004e1b1e262be6bf4f97bad5827315a7d58261a6dac78282604051610b58929190611f97565b600080546040516b22bb32b73a22b6b4ba3a32b960a11b60208201526001600160a01b0390911690638eaa6ac090602c01610390565b6000546040516351e0e26b60e01b81526001600160a01b03909116906351e0e26b906115609033906004016116df565b602060405180830381600087803b15801561157a57600080fd5b505af115801561158e573d6000803e3d6000fd5b505050506040513d601f19601f820116820180604052508101906115b29190611d70565b6115ce5760405162461bcd60e51b815260040161046590611d8d565b7f43b6900a4c2a714e2ba0ef717f474065755f74786ea410c0db6d1cebb33fda4186868686868660405161058b96959493929190611fb0565b6000546040516351e0e26b60e01b81526001600160a01b03909116906351e0e26b906116379033906004016116df565b602060405180830381600087803b15801561165157600080fd5b505af1158015611665573d6000803e3d6000fd5b505050506040513d601f19601f820116820180604052508101906116899190611d70565b6116a55760405162461bcd60e51b815260040161046590611d8d565b6040518181527f4e455dbee07370885b62f673891219a5fee0380b3da49d8bcae6297dc345cde090602001610865565b6000610414610df5565b6001600160a01b0391909116815260200190565b6001600160a01b038116811461170857600080fd5b50565b634e487b7160e01b600052604160045260246000fd5b600082601f83011261173257600080fd5b81356001600160401b038082111561174c5761174c61170b565b604051601f8301601f19908116603f011681019082821181831017156117745761177461170b565b8160405283815286602085880101111561178d57600080fd5b836020870160208301376000602085830101528094505050505092915050565b600080600080600060a086880312156117c557600080fd5b85356117d0816116f3565b945060208601356117e0816116f3565b935060408601356001600160401b03808211156117fc57600080fd5b61180889838a01611721565b9450606088013591508082111561181e57600080fd5b5061182b88828901611721565b95989497509295608001359392505050565b60008060008060008060c0878903121561185657600080fd5b8635955060208701356001600160401b038082111561187457600080fd5b6118808a838b01611721565b9650604089013591508082111561189657600080fd5b506118a389828a01611721565b945050606087013592506080870135915060a087013590509295509295509295565b600080600080600060a086880312156118dd57600080fd5b853594506020860135935060408601356118f6816116f3565b925060608601356001600160401b0381111561191157600080fd5b61182b88828901611721565b60008060006060848603121561193257600080fd5b833561193d816116f3565b9250602084013561194d816116f3565b915060408401356001600160401b0381111561196857600080fd5b61197486828701611721565b9150509250925092565b60006020828403121561199057600080fd5b5035919050565b801515811461170857600080fd5b600080600080608085870312156119bb57600080fd5b8435935060208501356001600160401b03808211156119d957600080fd5b6119e588838901611721565b945060408701359150808211156119fb57600080fd5b50611a0887828801611721565b9250506060850135611a1981611997565b939692955090935050565b600080600060608486031215611a3957600080fd5b8335611a44816116f3565b92506020840135611a54816116f3565b929592945050506040919091013590565b60008060408385031215611a7857600080fd5b823591506020830135611a8a816116f3565b809150509250929050565b60008060008060808587031215611aab57600080fd5b84359350602085013592506040850135611ac4816116f3565b9396929550929360600135925050565b60008060408385031215611ae757600080fd5b8235915060208301356001600160401b03811115611b0457600080fd5b611b1085828601611721565b9150509250929050565b600060208284031215611b2c57600080fd5b81356001600160401b03811115611b4257600080fd5b611b4e84828501611721565b949350505050565b60008060008060008060008060006101208a8c031215611b7557600080fd5b8935985060208a01356001600160401b0380821115611b9357600080fd5b611b9f8d838e01611721565b995060408c0135915080821115611bb557600080fd5b50611bc28c828d01611721565b97505060608a0135955060808a0135945060a08a0135935060c08a0135925060e08a013560058110611bf357600080fd5b809250506101008a013590509295985092959850929598565b60008060408385031215611c1f57600080fd5b8235611c2a816116f3565b946020939093013593505050565b60008060008060008060c08789031215611c5157600080fd5b8635955060208701356001600160401b03811115611c6e57600080fd5b611c7a89828a01611721565b95505060408701359350606087013592506080870135611c99816116f3565b8092505060a087013590509295509295509295565b600060208284031215611cc057600080fd5b8151611ccb816116f3565b9392505050565b6000815180845260005b81811015611cf857602081850181015186830182015201611cdc565b81811115611d0a576000602083870101525b50601f01601f19169290920160200192915050565b6001600160a01b0386811682528516602082015260a060408201819052600090611d4b90830186611cd2565b8281036060840152611d5d8186611cd2565b9150508260808301529695505050505050565b600060208284031215611d8257600080fd5b8151611ccb81611997565b6020808252600590820152644b4430313360d81b604082015260600190565b86815260c060208201526000611dc560c0830188611cd2565b8281036040840152611dd78188611cd2565b60608401969096525050608081019290925260a0909101529392505050565b85815284602082015260018060a01b038416604082015260a060608201526000611e2360a0830185611cd2565b90508260808301529695505050505050565b6020808252600590820152644b4430313160d81b604082015260600190565b6001600160a01b03848116825283166020820152606060408201819052600090611e8090830184611cd2565b95945050505050565b848152608060208201526000611ea26080830186611cd2565b8281036040840152611eb48186611cd2565b915050821515606083015295945050505050565b93845260208401929092526001600160a01b03166040830152606082015260800190565b828152604060208201526000611b4e6040830184611cd2565b602081526000611ccb6020830184611cd2565b60006101208b8352806020840152611f328184018c611cd2565b90508281036040840152611f46818b611cd2565b9150508760608301528660808301528560a08301528460c083015260058410611f7f57634e487b7160e01b600052602160045260246000fd5b60e08201939093526101000152979650505050505050565b6001600160a01b03929092168252602082015260400190565b86815260c060208201526000611fc960c0830188611cd2565b60408301969096525060608101939093526001600160a01b0391909116608083015260a0909101529291505056fea2646970667358221220ff10dcb44f4d994738ddbfa10e6216a5a8e008e5a670529e2ec774f5e756df1e64736f6c63430008090033",
  "libraries": {
    "Ad": "0x9F397D94EC32D43EeC60dCF9A38a44322D54d42A"
  },
  "devdoc": {
    "author": "Shumpei Koike - <shumpei.koike@bridges.inc>",
    "events": {
      "NewMedia(address,address,string,string,uint256)": {
        "details": "Emitted when a new media is created."
      }
    },
    "kind": "dev",
    "methods": {
      "adPoolAddress()": {
        "details": "Gets the address of AdPool."
      },
      "englishAuctionAddress()": {
        "details": "Gets the address of EnglishAuction."
      },
      "eventEmitterAddress()": {
        "details": "Gets the address of EventEmitter."
      },
      "mediaFactoryAddress()": {
        "details": "Gets the address of MediaFactory."
      },
      "mediaRegistryAddress()": {
        "details": "Gets the address of MediaRegistry."
      },
      "nameRegistryAddress()": {
        "details": "Gets the address of NameRegistry"
      },
      "offerBidAddress()": {
        "details": "Gets the address of OfferBid."
      },
      "openBidAddress()": {
        "details": "Gets the address of OpenBid."
      },
      "owner()": {
        "details": "Gets the owner address."
      },
      "vaultAddress()": {
        "details": "Gets the address of Vault."
      }
    },
    "title": "EventEmitter - emits events on behalf of each proxy.",
    "version": 1
  },
  "userdoc": {
    "kind": "user",
    "methods": {},
    "version": 1
  },
  "storageLayout": {
    "storage": [
      {
        "astId": 2131,
        "contract": "contracts/peripheries/EventEmitter.sol:EventEmitter",
        "label": "_nameRegistry",
        "offset": 0,
        "slot": "0",
        "type": "t_contract(INameRegistry)4553"
      }
    ],
    "types": {
      "t_contract(INameRegistry)4553": {
        "encoding": "inplace",
        "label": "contract INameRegistry",
        "numberOfBytes": "20"
      }
    }
  }
}