{
  "address": "0x91079c6D2ED9Ad86E1143df865b7FE4afd6aCdCd",
  "abi": [
    {
      "inputs": [
        {
          "internalType": "address",
          "name": "_nameRegistry",
          "type": "address"
        }
      ],
      "stateMutability": "nonpayable",
      "type": "constructor"
    },
    {
      "anonymous": false,
      "inputs": [
        {
          "indexed": false,
          "internalType": "uint256",
          "name": "tokenId",
          "type": "uint256"
        },
        {
          "indexed": false,
          "internalType": "string",
          "name": "spaceMetadata",
          "type": "string"
        },
        {
          "indexed": false,
          "internalType": "string",
          "name": "tokenMetadata",
          "type": "string"
        },
        {
          "indexed": false,
          "internalType": "uint256",
          "name": "displayStartTimestamp",
          "type": "uint256"
        },
        {
          "indexed": false,
          "internalType": "uint256",
          "name": "displayEndTimestamp",
          "type": "uint256"
        },
        {
          "indexed": false,
          "internalType": "uint256",
          "name": "price",
          "type": "uint256"
        }
      ],
      "name": "AcceptOffer",
      "type": "event"
    },
    {
      "anonymous": false,
      "inputs": [
        {
          "indexed": false,
          "internalType": "uint256",
          "name": "tokenId",
          "type": "uint256"
        },
        {
          "indexed": false,
          "internalType": "string",
          "name": "metadata",
          "type": "string"
        }
      ],
      "name": "AcceptProposal",
      "type": "event"
    },
    {
      "anonymous": false,
      "inputs": [
        {
          "indexed": false,
          "internalType": "uint256",
          "name": "tokenId",
          "type": "uint256"
        },
        {
          "indexed": false,
          "internalType": "uint256",
          "name": "price",
          "type": "uint256"
        },
        {
          "indexed": false,
          "internalType": "address",
          "name": "buyer",
          "type": "address"
        },
        {
          "indexed": false,
          "internalType": "uint256",
          "name": "timestamp",
          "type": "uint256"
        }
      ],
      "name": "Bid",
      "type": "event"
    },
    {
      "anonymous": false,
      "inputs": [
        {
          "indexed": false,
          "internalType": "uint256",
          "name": "tokenId",
          "type": "uint256"
        },
        {
          "indexed": false,
          "internalType": "uint256",
          "name": "price",
          "type": "uint256"
        },
        {
          "indexed": false,
          "internalType": "address",
          "name": "sender",
          "type": "address"
        },
        {
          "indexed": false,
          "internalType": "string",
          "name": "metadata",
          "type": "string"
        },
        {
          "indexed": false,
          "internalType": "uint256",
          "name": "timestamp",
          "type": "uint256"
        }
      ],
      "name": "BidWithProposal",
      "type": "event"
    },
    {
      "anonymous": false,
      "inputs": [
        {
          "indexed": false,
          "internalType": "uint256",
          "name": "tokenId",
          "type": "uint256"
        },
        {
          "indexed": false,
          "internalType": "uint256",
          "name": "price",
          "type": "uint256"
        },
        {
          "indexed": false,
          "internalType": "address",
          "name": "buyer",
          "type": "address"
        },
        {
          "indexed": false,
          "internalType": "uint256",
          "name": "timestamp",
          "type": "uint256"
        }
      ],
      "name": "Buy",
      "type": "event"
    },
    {
      "anonymous": false,
      "inputs": [
        {
          "indexed": false,
          "internalType": "uint256",
          "name": "tokenId",
          "type": "uint256"
        }
      ],
      "name": "CancelOffer",
      "type": "event"
    },
    {
      "anonymous": false,
      "inputs": [
        {
          "indexed": false,
          "internalType": "uint256",
          "name": "tokenId",
          "type": "uint256"
        }
      ],
      "name": "DeletePeriod",
      "type": "event"
    },
    {
      "anonymous": false,
      "inputs": [
        {
          "indexed": false,
          "internalType": "uint256",
          "name": "tokenId",
          "type": "uint256"
        },
        {
          "indexed": false,
          "internalType": "string",
          "name": "metadata",
          "type": "string"
        },
        {
          "indexed": false,
          "internalType": "string",
          "name": "reason",
          "type": "string"
        },
        {
          "indexed": false,
          "internalType": "bool",
          "name": "offensive",
          "type": "bool"
        }
      ],
      "name": "DenyProposal",
      "type": "event"
    },
    {
      "anonymous": false,
      "inputs": [
        {
          "indexed": false,
          "internalType": "address",
          "name": "proxy",
          "type": "address"
        },
        {
          "indexed": false,
          "internalType": "address",
          "name": "mediaEOA",
          "type": "address"
        },
        {
          "indexed": false,
          "internalType": "string",
          "name": "applicationMetadata",
          "type": "string"
        },
        {
          "indexed": false,
          "internalType": "string",
          "name": "updatableMetadata",
          "type": "string"
        },
        {
          "indexed": false,
          "internalType": "uint256",
          "name": "saltNonce",
          "type": "uint256"
        }
      ],
      "name": "NewMedia",
      "type": "event"
    },
    {
      "anonymous": false,
      "inputs": [
        {
          "indexed": false,
          "internalType": "uint256",
          "name": "tokenId",
          "type": "uint256"
        },
        {
          "indexed": false,
          "internalType": "string",
          "name": "spaceMetadata",
          "type": "string"
        },
        {
          "indexed": false,
          "internalType": "string",
          "name": "tokenMetadata",
          "type": "string"
        },
        {
          "indexed": false,
          "internalType": "uint256",
          "name": "saleStartTimestamp",
          "type": "uint256"
        },
        {
          "indexed": false,
          "internalType": "uint256",
          "name": "saleEndTimestamp",
          "type": "uint256"
        },
        {
          "indexed": false,
          "internalType": "uint256",
          "name": "displayStartTimestamp",
          "type": "uint256"
        },
        {
          "indexed": false,
          "internalType": "uint256",
          "name": "displayEndTimestamp",
          "type": "uint256"
        },
        {
          "indexed": false,
          "internalType": "enum Ad.Pricing",
          "name": "pricing",
          "type": "uint8"
        },
        {
          "indexed": false,
          "internalType": "uint256",
          "name": "minPrice",
          "type": "uint256"
        }
      ],
      "name": "NewPeriod",
      "type": "event"
    },
    {
      "anonymous": false,
      "inputs": [
        {
          "indexed": false,
          "internalType": "string",
          "name": "metadata",
          "type": "string"
        }
      ],
      "name": "NewSpace",
      "type": "event"
    },
    {
      "anonymous": false,
      "inputs": [
        {
          "indexed": false,
          "internalType": "uint256",
          "name": "tokenId",
          "type": "uint256"
        },
        {
          "indexed": false,
          "internalType": "string",
          "name": "spaceMetadata",
          "type": "string"
        },
        {
          "indexed": false,
          "internalType": "uint256",
          "name": "displayStartTimestamp",
          "type": "uint256"
        },
        {
          "indexed": false,
          "internalType": "uint256",
          "name": "displayEndTimestamp",
          "type": "uint256"
        },
        {
          "indexed": false,
          "internalType": "address",
          "name": "sender",
          "type": "address"
        },
        {
          "indexed": false,
          "internalType": "uint256",
          "name": "price",
          "type": "uint256"
        }
      ],
      "name": "OfferPeriod",
      "type": "event"
    },
    {
      "anonymous": false,
      "inputs": [
        {
          "indexed": false,
          "internalType": "address",
          "name": "receiver",
          "type": "address"
        },
        {
          "indexed": false,
          "internalType": "uint256",
          "name": "price",
          "type": "uint256"
        }
      ],
      "name": "PaymentFailure",
      "type": "event"
    },
    {
      "anonymous": false,
      "inputs": [
        {
          "indexed": false,
          "internalType": "uint256",
          "name": "tokenId",
          "type": "uint256"
        },
        {
          "indexed": false,
          "internalType": "string",
          "name": "metadata",
          "type": "string"
        }
      ],
      "name": "Propose",
      "type": "event"
    },
    {
      "anonymous": false,
      "inputs": [
        {
          "indexed": false,
          "internalType": "uint256",
          "name": "tokenId",
          "type": "uint256"
        },
        {
          "indexed": false,
          "internalType": "uint256",
          "name": "price",
          "type": "uint256"
        },
        {
          "indexed": false,
          "internalType": "address",
          "name": "buyer",
          "type": "address"
        },
        {
          "indexed": false,
          "internalType": "uint256",
          "name": "timestamp",
          "type": "uint256"
        }
      ],
      "name": "ReceiveToken",
      "type": "event"
    },
    {
      "anonymous": false,
      "inputs": [
        {
          "indexed": false,
          "internalType": "address",
          "name": "",
          "type": "address"
        },
        {
          "indexed": false,
          "internalType": "uint256",
          "name": "",
          "type": "uint256"
        }
      ],
      "name": "Received",
      "type": "event"
    },
    {
      "anonymous": false,
      "inputs": [
        {
          "indexed": false,
          "internalType": "uint256",
          "name": "tokenId",
          "type": "uint256"
        },
        {
          "indexed": false,
          "internalType": "address",
          "name": "successfulBidder",
          "type": "address"
        },
        {
          "indexed": false,
          "internalType": "string",
          "name": "reason",
          "type": "string"
        }
      ],
      "name": "SelectProposal",
      "type": "event"
    },
    {
      "anonymous": false,
      "inputs": [
        {
          "indexed": true,
          "internalType": "address",
          "name": "from",
          "type": "address"
        },
        {
          "indexed": true,
          "internalType": "address",
          "name": "to",
          "type": "address"
        },
        {
          "indexed": true,
          "internalType": "uint256",
          "name": "tokenId",
          "type": "uint256"
        }
      ],
      "name": "TransferCustom",
      "type": "event"
    },
    {
      "anonymous": false,
      "inputs": [
        {
          "indexed": false,
          "internalType": "address",
          "name": "proxy",
          "type": "address"
        },
        {
          "indexed": false,
          "internalType": "address",
          "name": "mediaEOA",
          "type": "address"
        },
        {
          "indexed": false,
          "internalType": "string",
          "name": "accountMetadata",
          "type": "string"
        }
      ],
      "name": "UpdateMedia",
      "type": "event"
    },
    {
      "anonymous": false,
      "inputs": [
        {
          "indexed": false,
          "internalType": "uint256",
          "name": "amount",
          "type": "uint256"
        }
      ],
      "name": "Withdraw",
      "type": "event"
    },
    {
      "inputs": [],
      "name": "adPoolAddress",
      "outputs": [
        {
          "internalType": "address",
          "name": "",
          "type": "address"
        }
      ],
      "stateMutability": "view",
      "type": "function"
    },
    {
      "inputs": [
        {
          "internalType": "uint256",
          "name": "tokenId",
          "type": "uint256"
        },
        {
          "internalType": "string",
          "name": "spaceMetadata",
          "type": "string"
        },
        {
          "internalType": "string",
          "name": "tokenMetadata",
          "type": "string"
        },
        {
          "internalType": "uint256",
          "name": "displayStartTimestamp",
          "type": "uint256"
        },
        {
          "internalType": "uint256",
          "name": "displayEndTimestamp",
          "type": "uint256"
        },
        {
          "internalType": "uint256",
          "name": "price",
          "type": "uint256"
        }
      ],
      "name": "emitAcceptOffer",
      "outputs": [],
      "stateMutability": "nonpayable",
      "type": "function"
    },
    {
      "inputs": [
        {
          "internalType": "uint256",
          "name": "tokenId",
          "type": "uint256"
        },
        {
          "internalType": "string",
          "name": "metadata",
          "type": "string"
        }
      ],
      "name": "emitAcceptProposal",
      "outputs": [],
      "stateMutability": "nonpayable",
      "type": "function"
    },
    {
      "inputs": [
        {
          "internalType": "uint256",
          "name": "tokenId",
          "type": "uint256"
        },
        {
          "internalType": "uint256",
          "name": "msgValue",
          "type": "uint256"
        },
        {
          "internalType": "address",
          "name": "msgSender",
          "type": "address"
        },
        {
          "internalType": "uint256",
          "name": "blockTimestamp",
          "type": "uint256"
        }
      ],
      "name": "emitBid",
      "outputs": [],
      "stateMutability": "nonpayable",
      "type": "function"
    },
    {
      "inputs": [
        {
          "internalType": "uint256",
          "name": "tokenId",
          "type": "uint256"
        },
        {
          "internalType": "uint256",
          "name": "msgValue",
          "type": "uint256"
        },
        {
          "internalType": "address",
          "name": "msgSender",
          "type": "address"
        },
        {
          "internalType": "string",
          "name": "metadata",
          "type": "string"
        },
        {
          "internalType": "uint256",
          "name": "blockTimestamp",
          "type": "uint256"
        }
      ],
      "name": "emitBidWithProposal",
      "outputs": [],
      "stateMutability": "nonpayable",
      "type": "function"
    },
    {
      "inputs": [
        {
          "internalType": "uint256",
          "name": "tokenId",
          "type": "uint256"
        },
        {
          "internalType": "uint256",
          "name": "msgValue",
          "type": "uint256"
        },
        {
          "internalType": "address",
          "name": "msgSender",
          "type": "address"
        },
        {
          "internalType": "uint256",
          "name": "blockTimestamp",
          "type": "uint256"
        }
      ],
      "name": "emitBuy",
      "outputs": [],
      "stateMutability": "nonpayable",
      "type": "function"
    },
    {
      "inputs": [
        {
          "internalType": "uint256",
          "name": "tokenId",
          "type": "uint256"
        }
      ],
      "name": "emitCancelOffer",
      "outputs": [],
      "stateMutability": "nonpayable",
      "type": "function"
    },
    {
      "inputs": [
        {
          "internalType": "uint256",
          "name": "tokenId",
          "type": "uint256"
        }
      ],
      "name": "emitDeletePeriod",
      "outputs": [],
      "stateMutability": "nonpayable",
      "type": "function"
    },
    {
      "inputs": [
        {
          "internalType": "uint256",
          "name": "tokenId",
          "type": "uint256"
        },
        {
          "internalType": "string",
          "name": "metadata",
          "type": "string"
        },
        {
          "internalType": "string",
          "name": "reason",
          "type": "string"
        },
        {
          "internalType": "bool",
          "name": "offensive",
          "type": "bool"
        }
      ],
      "name": "emitDenyProposal",
      "outputs": [],
      "stateMutability": "nonpayable",
      "type": "function"
    },
    {
      "inputs": [
        {
          "internalType": "address",
          "name": "proxy",
          "type": "address"
        },
        {
          "internalType": "address",
          "name": "mediaEOA",
          "type": "address"
        },
        {
          "internalType": "string",
          "name": "applicationMetadata",
          "type": "string"
        },
        {
          "internalType": "string",
          "name": "updatableMetadata",
          "type": "string"
        },
        {
          "internalType": "uint256",
          "name": "saltNonce",
          "type": "uint256"
        }
      ],
      "name": "emitNewMedia",
      "outputs": [],
      "stateMutability": "nonpayable",
      "type": "function"
    },
    {
      "inputs": [
        {
          "internalType": "uint256",
          "name": "tokenId",
          "type": "uint256"
        },
        {
          "internalType": "string",
          "name": "spaceMetadata",
          "type": "string"
        },
        {
          "internalType": "string",
          "name": "tokenMetadata",
          "type": "string"
        },
        {
          "internalType": "uint256",
          "name": "saleStartTimestamp",
          "type": "uint256"
        },
        {
          "internalType": "uint256",
          "name": "saleEndTimestamp",
          "type": "uint256"
        },
        {
          "internalType": "uint256",
          "name": "displayStartTimestamp",
          "type": "uint256"
        },
        {
          "internalType": "uint256",
          "name": "displayEndTimestamp",
          "type": "uint256"
        },
        {
          "internalType": "enum Ad.Pricing",
          "name": "pricing",
          "type": "uint8"
        },
        {
          "internalType": "uint256",
          "name": "minPrice",
          "type": "uint256"
        }
      ],
      "name": "emitNewPeriod",
      "outputs": [],
      "stateMutability": "nonpayable",
      "type": "function"
    },
    {
      "inputs": [
        {
          "internalType": "string",
          "name": "metadata",
          "type": "string"
        }
      ],
      "name": "emitNewSpace",
      "outputs": [],
      "stateMutability": "nonpayable",
      "type": "function"
    },
    {
      "inputs": [
        {
          "internalType": "uint256",
          "name": "tokenId",
          "type": "uint256"
        },
        {
          "internalType": "string",
          "name": "spaceMetadata",
          "type": "string"
        },
        {
          "internalType": "uint256",
          "name": "displayStartTimestamp",
          "type": "uint256"
        },
        {
          "internalType": "uint256",
          "name": "displayEndTimestamp",
          "type": "uint256"
        },
        {
          "internalType": "address",
          "name": "sender",
          "type": "address"
        },
        {
          "internalType": "uint256",
          "name": "price",
          "type": "uint256"
        }
      ],
      "name": "emitOfferPeriod",
      "outputs": [],
      "stateMutability": "nonpayable",
      "type": "function"
    },
    {
      "inputs": [
        {
          "internalType": "address",
          "name": "receiver",
          "type": "address"
        },
        {
          "internalType": "uint256",
          "name": "price",
          "type": "uint256"
        }
      ],
      "name": "emitPaymentFailure",
      "outputs": [],
      "stateMutability": "nonpayable",
      "type": "function"
    },
    {
      "inputs": [
        {
          "internalType": "uint256",
          "name": "tokenId",
          "type": "uint256"
        },
        {
          "internalType": "string",
          "name": "metadata",
          "type": "string"
        }
      ],
      "name": "emitPropose",
      "outputs": [],
      "stateMutability": "nonpayable",
      "type": "function"
    },
    {
      "inputs": [
        {
          "internalType": "uint256",
          "name": "tokenId",
          "type": "uint256"
        },
        {
          "internalType": "uint256",
          "name": "price",
          "type": "uint256"
        },
        {
          "internalType": "address",
          "name": "buyer",
          "type": "address"
        },
        {
          "internalType": "uint256",
          "name": "blockTimestamp",
          "type": "uint256"
        }
      ],
      "name": "emitReceiveToken",
      "outputs": [],
      "stateMutability": "nonpayable",
      "type": "function"
    },
    {
      "inputs": [
        {
          "internalType": "address",
          "name": "receiver",
          "type": "address"
        },
        {
          "internalType": "uint256",
          "name": "price",
          "type": "uint256"
        }
      ],
      "name": "emitReceived",
      "outputs": [],
      "stateMutability": "nonpayable",
      "type": "function"
    },
    {
      "inputs": [
        {
          "internalType": "uint256",
          "name": "tokenId",
          "type": "uint256"
        },
        {
          "internalType": "address",
          "name": "successfulBidder",
          "type": "address"
        },
        {
          "internalType": "string",
          "name": "reason",
          "type": "string"
        }
      ],
      "name": "emitSelectProposal",
      "outputs": [],
      "stateMutability": "nonpayable",
      "type": "function"
    },
    {
      "inputs": [
        {
          "internalType": "address",
          "name": "from",
          "type": "address"
        },
        {
          "internalType": "address",
          "name": "to",
          "type": "address"
        },
        {
          "internalType": "uint256",
          "name": "tokenId",
          "type": "uint256"
        }
      ],
      "name": "emitTransferCustom",
      "outputs": [],
      "stateMutability": "nonpayable",
      "type": "function"
    },
    {
      "inputs": [
        {
          "internalType": "address",
          "name": "proxy",
          "type": "address"
        },
        {
          "internalType": "address",
          "name": "mediaEOA",
          "type": "address"
        },
        {
          "internalType": "string",
          "name": "accountMetadata",
          "type": "string"
        }
      ],
      "name": "emitUpdateMedia",
      "outputs": [],
      "stateMutability": "nonpayable",
      "type": "function"
    },
    {
      "inputs": [
        {
          "internalType": "uint256",
          "name": "amount",
          "type": "uint256"
        }
      ],
      "name": "emitWithdraw",
      "outputs": [],
      "stateMutability": "nonpayable",
      "type": "function"
    },
    {
      "inputs": [],
      "name": "englishAuctionAddress",
      "outputs": [
        {
          "internalType": "address",
          "name": "",
          "type": "address"
        }
      ],
      "stateMutability": "view",
      "type": "function"
    },
    {
      "inputs": [],
      "name": "eventEmitterAddress",
      "outputs": [
        {
          "internalType": "address",
          "name": "",
          "type": "address"
        }
      ],
      "stateMutability": "view",
      "type": "function"
    },
    {
      "inputs": [],
      "name": "mediaFactoryAddress",
      "outputs": [
        {
          "internalType": "address",
          "name": "",
          "type": "address"
        }
      ],
      "stateMutability": "view",
      "type": "function"
    },
    {
      "inputs": [],
      "name": "mediaRegistryAddress",
      "outputs": [
        {
          "internalType": "address",
          "name": "",
          "type": "address"
        }
      ],
      "stateMutability": "view",
      "type": "function"
    },
    {
      "inputs": [],
      "name": "nameRegistryAddress",
      "outputs": [
        {
          "internalType": "address",
          "name": "",
          "type": "address"
        }
      ],
      "stateMutability": "view",
      "type": "function"
    },
    {
      "inputs": [],
      "name": "offerBidAddress",
      "outputs": [
        {
          "internalType": "address",
          "name": "",
          "type": "address"
        }
      ],
      "stateMutability": "view",
      "type": "function"
    },
    {
      "inputs": [],
      "name": "openBidAddress",
      "outputs": [
        {
          "internalType": "address",
          "name": "",
          "type": "address"
        }
      ],
      "stateMutability": "view",
      "type": "function"
    },
    {
      "inputs": [],
      "name": "owner",
      "outputs": [
        {
          "internalType": "address",
          "name": "",
          "type": "address"
        }
      ],
      "stateMutability": "view",
      "type": "function"
    },
    {
      "inputs": [],
      "name": "proposalReviewAddress",
      "outputs": [
        {
          "internalType": "address",
          "name": "",
          "type": "address"
        }
      ],
      "stateMutability": "view",
      "type": "function"
    },
    {
      "inputs": [],
      "name": "vaultAddress",
      "outputs": [
        {
          "internalType": "address",
          "name": "",
          "type": "address"
        }
      ],
      "stateMutability": "view",
      "type": "function"
    }
  ],
  "transactionHash": "0x9a21c2852461e29aee8d46d7033c6423bc534e60526cf7364a0f667e20aa8f82",
  "args": [
    "0xe31F45e53E31076406560E1A4f168cFd08114736"
  ],
  "solcInputHash": "721cdf496d7ca36edf26d6cc58f3de49",
  "bytecode": "0x608060405234801561001057600080fd5b50604051611f6b380380611f6b83398101604081905261002f91610050565b600080546001600160a01b0319166001600160a01b03831617905550610080565b60006020828403121561006257600080fd5b81516001600160a01b038116811461007957600080fd5b9392505050565b611edc8061008f6000396000f3fe608060405234801561001057600080fd5b50600436106101755760003560e01c80630106d8eb1461017a5780630797ec08146101985780630ca82afb146101ad5780630d2657bf146101c05780632231c1eb146101d357806326236013146101db578063279862cb146101ee57806327b7a2f5146102015780633ebf737114610212578063430bf08a14610225578063465bcf051461022d5780635b50ca69146102405780635bcefb53146102535780635dd995b5146102665780636a58767e14610279578063746f1b201461028157806378689c64146102945780637bab635a146102a75780637c302ae3146102ba5780637cf175fb146102cd5780638da5cb5b146102d55780638f6059d6146102dd578063b287b60f146102e5578063c9cd71b5146102f8578063ccb55a9814610300578063e2f5fc7814610313578063ec720b9b1461031b578063f07262911461032e578063f49d1bc214610336578063f4cb45e514610349578063f65f14ac1461035c575b600080fd5b61018261036f565b60405161018f919061156d565b60405180910390f35b6101ab6101a636600461163b565b61041d565b005b6101ab6101bb3660046116cb565b6104b8565b6101ab6101ce366004611753565b610590565b610182610656565b6101ab6101e93660046117ab565b610687565b6101ab6101fc36600461180c565b6106ff565b6000546001600160a01b0316610182565b6101ab610220366004611833565b6107d3565b6101826108a5565b6101ab61023b3660046118b2565b6108d4565b6101ab61024e3660046118f3565b6109b7565b6101ab610261366004611932565b610a7b565b6101ab6102743660046118f3565b610b47565b610182610c19565b6101ab61028f366004611932565b610c50565b6101ab6102a2366004611978565b610d10565b6101ab6102b53660046119b4565b610dce565b6101ab6102c8366004611a6a565b610eaf565b610182610f7d565b610182610faf565b610182611003565b6101ab6102f33660046118f3565b611039565b6101826110fd565b6101ab61030e36600461180c565b61112d565b6101826111ec565b6101ab610329366004611a6a565b611224565b6101826112e4565b6101ab610344366004611a96565b61131a565b6101ab610357366004611abd565b6113dc565b6101ab61036a36600461180c565b6114a4565b600080546040516d22b733b634b9b420bab1ba34b7b760911b60208201526001600160a01b0390911690638eaa6ac090602e015b604051602081830303815290604052805190602001206040518263ffffffff1660e01b81526004016103d791815260200190565b602060405180830381865afa1580156103f4573d6000803e3d6000fd5b505050506040513d601f19601f820116820180604052508101906104189190611b33565b905090565b610425611003565b6001600160a01b0316336001600160a01b0316146104725760405162461bcd60e51b815260206004820152600560248201526404b443031360dc1b60448201526064015b60405180910390fd5b7f1dc472d582044e22bd24b2685973e92f3fb3f7174252f4bde8ad142ea1e78ec385858585856040516104a9959493929190611ba4565b60405180910390a15050505050565b6000546040516351e0e26b60e01b81526001600160a01b03909116906351e0e26b906104e890339060040161156d565b6020604051808303816000875af1158015610507573d6000803e3d6000fd5b505050506040513d601f19601f8201168201806040525081019061052b9190611bf5565b6105475760405162461bcd60e51b815260040161046990611c12565b7f0bb287542408ded65f2846322c12ffb5e9228e18dc22074445d5e06f4698aeaa86868686868660405161058096959493929190611c31565b60405180910390a1505050505050565b6000546040516351e0e26b60e01b81526001600160a01b03909116906351e0e26b906105c090339060040161156d565b6020604051808303816000875af11580156105df573d6000803e3d6000fd5b505050506040513d601f19601f820116820180604052508101906106039190611bf5565b61061f5760405162461bcd60e51b815260040161046990611c12565b7f64f7d04e523947d79f772988c75e01af9141f056747beb2bb66551a94e5f666a85858585856040516104a9959493929190611c7b565b600080546040516613dc195b909a5960ca1b60208201526001600160a01b0390911690638eaa6ac0906027016103a3565b61068f610c19565b6001600160a01b0316336001600160a01b0316146106bf5760405162461bcd60e51b815260040161046990611cba565b7f20879156e5855128644cb33ccda296b37af9727d80c8cf0e986362b2c01df9e08383836040516106f293929190611cd9565b60405180910390a1505050565b6000610709611563565b6001600160a01b03166314afd79e336040518263ffffffff1660e01b8152600401610734919061156d565b602060405180830381865afa158015610751573d6000803e3d6000fd5b505050506040513d601f19601f820116820180604052508101906107759190611b33565b6001600160a01b0316141561079c5760405162461bcd60e51b815260040161046990611cba565b6040518181527f5b6b431d4476a211bb7d41c20d1aab9ae2321deee0d20be3d9fc9b1093fa6e3d906020015b60405180910390a150565b6000546040516351e0e26b60e01b81526001600160a01b03909116906351e0e26b9061080390339060040161156d565b6020604051808303816000875af1158015610822573d6000803e3d6000fd5b505050506040513d601f19601f820116820180604052508101906108469190611bf5565b6108625760405162461bcd60e51b815260040161046990611c12565b7f917b5da24a273be7df06d4141eb55d5d9cf1a2dae32878cf5693cefbd885a018848484846040516108979493929190611d0e565b60405180910390a150505050565b600080546040516415985d5b1d60da1b60208201526001600160a01b0390911690638eaa6ac0906025016103a3565b60006108de611563565b6001600160a01b03166314afd79e336040518263ffffffff1660e01b8152600401610909919061156d565b602060405180830381865afa158015610926573d6000803e3d6000fd5b505050506040513d601f19601f8201168201806040525081019061094a9190611b33565b6001600160a01b031614156109715760405162461bcd60e51b815260040161046990611cba565b80826001600160a01b0316846001600160a01b03167f4f21c37c3184c9b0bbc63a812b0a1a148f15f1bd6db127e7e562d9b04368032560405160405180910390a4505050565b6000546040516351e0e26b60e01b81526001600160a01b03909116906351e0e26b906109e790339060040161156d565b6020604051808303816000875af1158015610a06573d6000803e3d6000fd5b505050506040513d601f19601f82011682018060405250810190610a2a9190611bf5565b610a465760405162461bcd60e51b815260040161046990611c12565b7ff657a33a260f0292d243ac4d7832a2af14d735a16351622191c6cf01af297c4e848484846040516108979493929190611d4d565b6000546040516351e0e26b60e01b81526001600160a01b03909116906351e0e26b90610aab90339060040161156d565b6020604051808303816000875af1158015610aca573d6000803e3d6000fd5b505050506040513d601f19601f82011682018060405250810190610aee9190611bf5565b610b0a5760405162461bcd60e51b815260040161046990611c12565b7ffbcaf6dcca8992dde10374342f4a59e51717c327e0a8fcf5b460894126c4ac118282604051610b3b929190611d71565b60405180910390a15050565b6000610b51611563565b6001600160a01b03166314afd79e336040518263ffffffff1660e01b8152600401610b7c919061156d565b602060405180830381865afa158015610b99573d6000803e3d6000fd5b505050506040513d601f19601f82011682018060405250810190610bbd9190611b33565b6001600160a01b03161415610be45760405162461bcd60e51b815260040161046990611cba565b7f27f0e57684cd818b3b06246bbc63cf3366959e8e4dcdbd46aa5b2778f25e73b0848484846040516108979493929190611d4d565b600080546040516c4d65646961526567697374727960981b60208201526001600160a01b0390911690638eaa6ac090602d016103a3565b6000546040516351e0e26b60e01b81526001600160a01b03909116906351e0e26b90610c8090339060040161156d565b6020604051808303816000875af1158015610c9f573d6000803e3d6000fd5b505050506040513d601f19601f82011682018060405250810190610cc39190611bf5565b610cdf5760405162461bcd60e51b815260040161046990611c12565b7fdd75cdb279dca6fe92df3801d51ed09ad93a4653400c85ead720719cb3b97e648282604051610b3b929190611d71565b6000546040516351e0e26b60e01b81526001600160a01b03909116906351e0e26b90610d4090339060040161156d565b6020604051808303816000875af1158015610d5f573d6000803e3d6000fd5b505050506040513d601f19601f82011682018060405250810190610d839190611bf5565b610d9f5760405162461bcd60e51b815260040161046990611c12565b7f8f59e770815c7e70fd6a66c717f1f6c6b2a938c9de6fd82d2c8ac79463771089816040516107c89190611d8a565b6000546040516351e0e26b60e01b81526001600160a01b03909116906351e0e26b90610dfe90339060040161156d565b6020604051808303816000875af1158015610e1d573d6000803e3d6000fd5b505050506040513d601f19601f82011682018060405250810190610e419190611bf5565b610e5d5760405162461bcd60e51b815260040161046990611c12565b7f113d332939326968b86df824553c250f41867c6f2dd89e7d55a9a76ba5c60ba1898989898989898989604051610e9c99989796959493929190611d9d565b60405180910390a1505050505050505050565b6000610eb9611563565b6001600160a01b03166314afd79e336040518263ffffffff1660e01b8152600401610ee4919061156d565b602060405180830381865afa158015610f01573d6000803e3d6000fd5b505050506040513d601f19601f82011682018060405250810190610f259190611b33565b6001600160a01b03161415610f4c5760405162461bcd60e51b815260040161046990611cba565b7f88a5966d370b9919b20f3e2c13ff65706f196a4e32cc2c12bf57088f885258748282604051610b3b929190611e1c565b600080546040516713d999995c909a5960c21b60208201526001600160a01b0390911690638eaa6ac0906028016103a3565b60008060009054906101000a90046001600160a01b03166001600160a01b031663d5f394886040518163ffffffff1660e01b8152600401602060405180830381865afa1580156103f4573d6000803e3d6000fd5b600080546040516b4d65646961466163746f727960a01b60208201526001600160a01b0390911690638eaa6ac090602c016103a3565b6000546040516351e0e26b60e01b81526001600160a01b03909116906351e0e26b9061106990339060040161156d565b6020604051808303816000875af1158015611088573d6000803e3d6000fd5b505050506040513d601f19601f820116820180604052508101906110ac9190611bf5565b6110c85760405162461bcd60e51b815260040161046990611c12565b7f312ad1b914a22d11c4cd9fcb4b3d71f98c69f212d74dd14ca390862014a5137c848484846040516108979493929190611d4d565b60008054604051651059141bdbdb60d21b60208201526001600160a01b0390911690638eaa6ac0906026016103a3565b6000546040516351e0e26b60e01b81526001600160a01b03909116906351e0e26b9061115d90339060040161156d565b6020604051808303816000875af115801561117c573d6000803e3d6000fd5b505050506040513d601f19601f820116820180604052508101906111a09190611bf5565b6111bc5760405162461bcd60e51b815260040161046990611c12565b6040518181527f029e7b2c30a4e7bfc3c0a3bd13106f4137e14326e456603b835cacdda53bca68906020016107c8565b600080546040516d50726f706f73616c52657669657760901b60208201526001600160a01b0390911690638eaa6ac090602e016103a3565b6000546040516351e0e26b60e01b81526001600160a01b03909116906351e0e26b9061125490339060040161156d565b6020604051808303816000875af1158015611273573d6000803e3d6000fd5b505050506040513d601f19601f820116820180604052508101906112979190611bf5565b6112b35760405162461bcd60e51b815260040161046990611c12565b7fade428889ac75005bd70004e1b1e262be6bf4f97bad5827315a7d58261a6dac78282604051610b3b929190611e1c565b600080546040516b22bb32b73a22b6b4ba3a32b960a11b60208201526001600160a01b0390911690638eaa6ac090602c016103a3565b6000546040516351e0e26b60e01b81526001600160a01b03909116906351e0e26b9061134a90339060040161156d565b6020604051808303816000875af1158015611369573d6000803e3d6000fd5b505050506040513d601f19601f8201168201806040525081019061138d9190611bf5565b6113a95760405162461bcd60e51b815260040161046990611c12565b7fd29c55448f815f68b1542ec125164cd2568ab8eb0a682b83776185f47ead92488383836040516106f293929190611e35565b6000546040516351e0e26b60e01b81526001600160a01b03909116906351e0e26b9061140c90339060040161156d565b6020604051808303816000875af115801561142b573d6000803e3d6000fd5b505050506040513d601f19601f8201168201806040525081019061144f9190611bf5565b61146b5760405162461bcd60e51b815260040161046990611c12565b7f43b6900a4c2a714e2ba0ef717f474065755f74786ea410c0db6d1cebb33fda4186868686868660405161058096959493929190611e5f565b6000546040516351e0e26b60e01b81526001600160a01b03909116906351e0e26b906114d490339060040161156d565b6020604051808303816000875af11580156114f3573d6000803e3d6000fd5b505050506040513d601f19601f820116820180604052508101906115179190611bf5565b6115335760405162461bcd60e51b815260040161046990611c12565b6040518181527f4e455dbee07370885b62f673891219a5fee0380b3da49d8bcae6297dc345cde0906020016107c8565b6000610418610c19565b6001600160a01b0391909116815260200190565b6001600160a01b038116811461159657600080fd5b50565b634e487b7160e01b600052604160045260246000fd5b600082601f8301126115c057600080fd5b81356001600160401b03808211156115da576115da611599565b604051601f8301601f19908116603f0116810190828211818310171561160257611602611599565b8160405283815286602085880101111561161b57600080fd5b836020870160208301376000602085830101528094505050505092915050565b600080600080600060a0868803121561165357600080fd5b853561165e81611581565b9450602086013561166e81611581565b935060408601356001600160401b038082111561168a57600080fd5b61169689838a016115af565b945060608801359150808211156116ac57600080fd5b506116b9888289016115af565b95989497509295608001359392505050565b60008060008060008060c087890312156116e457600080fd5b8635955060208701356001600160401b038082111561170257600080fd5b61170e8a838b016115af565b9650604089013591508082111561172457600080fd5b5061173189828a016115af565b945050606087013592506080870135915060a087013590509295509295509295565b600080600080600060a0868803121561176b57600080fd5b8535945060208601359350604086013561178481611581565b925060608601356001600160401b0381111561179f57600080fd5b6116b9888289016115af565b6000806000606084860312156117c057600080fd5b83356117cb81611581565b925060208401356117db81611581565b915060408401356001600160401b038111156117f657600080fd5b611802868287016115af565b9150509250925092565b60006020828403121561181e57600080fd5b5035919050565b801515811461159657600080fd5b6000806000806080858703121561184957600080fd5b8435935060208501356001600160401b038082111561186757600080fd5b611873888389016115af565b9450604087013591508082111561188957600080fd5b50611896878288016115af565b92505060608501356118a781611825565b939692955090935050565b6000806000606084860312156118c757600080fd5b83356118d281611581565b925060208401356118e281611581565b929592945050506040919091013590565b6000806000806080858703121561190957600080fd5b8435935060208501359250604085013561192281611581565b9396929550929360600135925050565b6000806040838503121561194557600080fd5b8235915060208301356001600160401b0381111561196257600080fd5b61196e858286016115af565b9150509250929050565b60006020828403121561198a57600080fd5b81356001600160401b038111156119a057600080fd5b6119ac848285016115af565b949350505050565b60008060008060008060008060006101208a8c0312156119d357600080fd5b8935985060208a01356001600160401b03808211156119f157600080fd5b6119fd8d838e016115af565b995060408c0135915080821115611a1357600080fd5b50611a208c828d016115af565b97505060608a0135955060808a0135945060a08a0135935060c08a0135925060e08a013560058110611a5157600080fd5b809250506101008a013590509295985092959850929598565b60008060408385031215611a7d57600080fd5b8235611a8881611581565b946020939093013593505050565b600080600060608486031215611aab57600080fd5b8335925060208401356117db81611581565b60008060008060008060c08789031215611ad657600080fd5b8635955060208701356001600160401b03811115611af357600080fd5b611aff89828a016115af565b95505060408701359350606087013592506080870135611b1e81611581565b8092505060a087013590509295509295509295565b600060208284031215611b4557600080fd5b8151611b5081611581565b9392505050565b6000815180845260005b81811015611b7d57602081850181015186830182015201611b61565b81811115611b8f576000602083870101525b50601f01601f19169290920160200192915050565b6001600160a01b0386811682528516602082015260a060408201819052600090611bd090830186611b57565b8281036060840152611be28186611b57565b9150508260808301529695505050505050565b600060208284031215611c0757600080fd5b8151611b5081611825565b6020808252600590820152644b4430313360d81b604082015260600190565b86815260c060208201526000611c4a60c0830188611b57565b8281036040840152611c5c8188611b57565b60608401969096525050608081019290925260a0909101529392505050565b85815284602082015260018060a01b038416604082015260a060608201526000611ca860a0830185611b57565b90508260808301529695505050505050565b6020808252600590820152644b4430313160d81b604082015260600190565b6001600160a01b03848116825283166020820152606060408201819052600090611d0590830184611b57565b95945050505050565b848152608060208201526000611d276080830186611b57565b8281036040840152611d398186611b57565b915050821515606083015295945050505050565b93845260208401929092526001600160a01b03166040830152606082015260800190565b8281526040602082015260006119ac6040830184611b57565b602081526000611b506020830184611b57565b60006101208b8352806020840152611db78184018c611b57565b90508281036040840152611dcb818b611b57565b9150508760608301528660808301528560a08301528460c083015260058410611e0457634e487b7160e01b600052602160045260246000fd5b60e08201939093526101000152979650505050505050565b6001600160a01b03929092168252602082015260400190565b8381526001600160a01b0383166020820152606060408201819052600090611d0590830184611b57565b86815260c060208201526000611e7860c0830188611b57565b60408301969096525060608101939093526001600160a01b0391909116608083015260a0909101529291505056fea26469706673582212203656fe77763fefb841d9537c2c89dffe445858bfa21142b26a9b844b8568d6c364736f6c634300080a0033",
  "libraries": {
    "Ad": "0x4a4274681C57B4eBc4B9AebEf1C292c650956E8F"
  },
  "devdoc": {
    "author": "Shumpei Koike - <shumpei.koike@bridges.inc>",
    "events": {
      "NewMedia(address,address,string,string,uint256)": {
        "details": "Emitted when a new media is created."
      }
    },
    "kind": "dev",
    "methods": {
      "adPoolAddress()": {
        "details": "Gets the address of AdPool."
      },
      "englishAuctionAddress()": {
        "details": "Gets the address of EnglishAuction."
      },
      "eventEmitterAddress()": {
        "details": "Gets the address of EventEmitter."
      },
      "mediaFactoryAddress()": {
        "details": "Gets the address of MediaFactory."
      },
      "mediaRegistryAddress()": {
        "details": "Gets the address of MediaRegistry."
      },
      "nameRegistryAddress()": {
        "details": "Gets the address of NameRegistry"
      },
      "offerBidAddress()": {
        "details": "Gets the address of OfferBid."
      },
      "openBidAddress()": {
        "details": "Gets the address of OpenBid."
      },
      "owner()": {
        "details": "Gets the owner address."
      },
      "proposalReviewAddress()": {
        "details": "Gets the address of ProposalReview."
      },
      "vaultAddress()": {
        "details": "Gets the address of Vault."
      }
    },
    "title": "EventEmitter - emits events on behalf of each proxy.",
    "version": 1
  },
  "userdoc": {
    "kind": "user",
    "methods": {},
    "version": 1
  },
  "storageLayout": {
    "storage": [
      {
        "astId": 1889,
        "contract": "contracts/peripheries/EventEmitter.sol:EventEmitter",
        "label": "_nameRegistry",
        "offset": 0,
        "slot": "0",
        "type": "t_contract(INameRegistry)3997"
      }
    ],
    "types": {
      "t_contract(INameRegistry)3997": {
        "encoding": "inplace",
        "label": "contract INameRegistry",
        "numberOfBytes": "20"
      }
    }
  }
}