{
  "address": "0xBB8Dc8e6F67f362B842a79EF08E1196Df9e9a634",
  "abi": [
    {
      "inputs": [
        {
          "internalType": "address",
          "name": "_nameRegistry",
          "type": "address"
        }
      ],
      "stateMutability": "nonpayable",
      "type": "constructor"
    },
    {
      "anonymous": false,
      "inputs": [
        {
          "indexed": false,
          "internalType": "uint256",
          "name": "tokenId",
          "type": "uint256"
        },
        {
          "indexed": false,
          "internalType": "string",
          "name": "spaceMetadata",
          "type": "string"
        },
        {
          "indexed": false,
          "internalType": "string",
          "name": "tokenMetadata",
          "type": "string"
        },
        {
          "indexed": false,
          "internalType": "uint256",
          "name": "displayStartTimestamp",
          "type": "uint256"
        },
        {
          "indexed": false,
          "internalType": "uint256",
          "name": "displayEndTimestamp",
          "type": "uint256"
        },
        {
          "indexed": false,
          "internalType": "uint256",
          "name": "price",
          "type": "uint256"
        }
      ],
      "name": "AcceptOffer",
      "type": "event"
    },
    {
      "anonymous": false,
      "inputs": [
        {
          "indexed": false,
          "internalType": "uint256",
          "name": "tokenId",
          "type": "uint256"
        },
        {
          "indexed": false,
          "internalType": "string",
          "name": "metadata",
          "type": "string"
        }
      ],
      "name": "AcceptProposal",
      "type": "event"
    },
    {
      "anonymous": false,
      "inputs": [
        {
          "indexed": false,
          "internalType": "uint256",
          "name": "tokenId",
          "type": "uint256"
        },
        {
          "indexed": false,
          "internalType": "uint256",
          "name": "price",
          "type": "uint256"
        },
        {
          "indexed": false,
          "internalType": "address",
          "name": "buyer",
          "type": "address"
        },
        {
          "indexed": false,
          "internalType": "uint256",
          "name": "timestamp",
          "type": "uint256"
        }
      ],
      "name": "Bid",
      "type": "event"
    },
    {
      "anonymous": false,
      "inputs": [
        {
          "indexed": false,
          "internalType": "uint256",
          "name": "tokenId",
          "type": "uint256"
        },
        {
          "indexed": false,
          "internalType": "uint256",
          "name": "price",
          "type": "uint256"
        },
        {
          "indexed": false,
          "internalType": "address",
          "name": "buyer",
          "type": "address"
        },
        {
          "indexed": false,
          "internalType": "uint256",
          "name": "timestamp",
          "type": "uint256"
        }
      ],
      "name": "Buy",
      "type": "event"
    },
    {
      "anonymous": false,
      "inputs": [
        {
          "indexed": false,
          "internalType": "uint256",
          "name": "tokenId",
          "type": "uint256"
        }
      ],
      "name": "DeletePeriod",
      "type": "event"
    },
    {
      "anonymous": false,
      "inputs": [
        {
          "indexed": false,
          "internalType": "string",
          "name": "metadata",
          "type": "string"
        }
      ],
      "name": "DeleteSpace",
      "type": "event"
    },
    {
      "anonymous": false,
      "inputs": [
        {
          "indexed": false,
          "internalType": "uint256",
          "name": "tokenId",
          "type": "uint256"
        },
        {
          "indexed": false,
          "internalType": "string",
          "name": "metadata",
          "type": "string"
        },
        {
          "indexed": false,
          "internalType": "string",
          "name": "reason",
          "type": "string"
        }
      ],
      "name": "DenyProposal",
      "type": "event"
    },
    {
      "anonymous": false,
      "inputs": [
        {
          "indexed": false,
          "internalType": "address",
          "name": "proxy",
          "type": "address"
        },
        {
          "indexed": false,
          "internalType": "address",
          "name": "mediaEOA",
          "type": "address"
        },
        {
          "indexed": false,
          "internalType": "string",
          "name": "accountMetadata",
          "type": "string"
        },
        {
          "indexed": false,
          "internalType": "uint256",
          "name": "saltNonce",
          "type": "uint256"
        }
      ],
      "name": "NewMedia",
      "type": "event"
    },
    {
      "anonymous": false,
      "inputs": [
        {
          "indexed": false,
          "internalType": "uint256",
          "name": "tokenId",
          "type": "uint256"
        },
        {
          "indexed": false,
          "internalType": "string",
          "name": "spaceMetadata",
          "type": "string"
        },
        {
          "indexed": false,
          "internalType": "string",
          "name": "tokenMetadata",
          "type": "string"
        },
        {
          "indexed": false,
          "internalType": "uint256",
          "name": "saleStartTimestamp",
          "type": "uint256"
        },
        {
          "indexed": false,
          "internalType": "uint256",
          "name": "saleEndTimestamp",
          "type": "uint256"
        },
        {
          "indexed": false,
          "internalType": "uint256",
          "name": "displayStartTimestamp",
          "type": "uint256"
        },
        {
          "indexed": false,
          "internalType": "uint256",
          "name": "displayEndTimestamp",
          "type": "uint256"
        },
        {
          "indexed": false,
          "internalType": "enum Ad.Pricing",
          "name": "pricing",
          "type": "uint8"
        },
        {
          "indexed": false,
          "internalType": "uint256",
          "name": "minPrice",
          "type": "uint256"
        }
      ],
      "name": "NewPeriod",
      "type": "event"
    },
    {
      "anonymous": false,
      "inputs": [
        {
          "indexed": false,
          "internalType": "string",
          "name": "metadata",
          "type": "string"
        }
      ],
      "name": "NewSpace",
      "type": "event"
    },
    {
      "anonymous": false,
      "inputs": [
        {
          "indexed": false,
          "internalType": "uint256",
          "name": "tokenId",
          "type": "uint256"
        },
        {
          "indexed": false,
          "internalType": "string",
          "name": "spaceMetadata",
          "type": "string"
        },
        {
          "indexed": false,
          "internalType": "uint256",
          "name": "displayStartTimestamp",
          "type": "uint256"
        },
        {
          "indexed": false,
          "internalType": "uint256",
          "name": "displayEndTimestamp",
          "type": "uint256"
        },
        {
          "indexed": false,
          "internalType": "address",
          "name": "sender",
          "type": "address"
        },
        {
          "indexed": false,
          "internalType": "uint256",
          "name": "price",
          "type": "uint256"
        }
      ],
      "name": "OfferPeriod",
      "type": "event"
    },
    {
      "anonymous": false,
      "inputs": [
        {
          "indexed": false,
          "internalType": "uint256",
          "name": "tokenId",
          "type": "uint256"
        },
        {
          "indexed": false,
          "internalType": "string",
          "name": "metadata",
          "type": "string"
        }
      ],
      "name": "Propose",
      "type": "event"
    },
    {
      "anonymous": false,
      "inputs": [
        {
          "indexed": false,
          "internalType": "uint256",
          "name": "tokenId",
          "type": "uint256"
        },
        {
          "indexed": false,
          "internalType": "uint256",
          "name": "price",
          "type": "uint256"
        },
        {
          "indexed": false,
          "internalType": "address",
          "name": "buyer",
          "type": "address"
        },
        {
          "indexed": false,
          "internalType": "uint256",
          "name": "timestamp",
          "type": "uint256"
        }
      ],
      "name": "ReceiveToken",
      "type": "event"
    },
    {
      "anonymous": false,
      "inputs": [
        {
          "indexed": true,
          "internalType": "address",
          "name": "from",
          "type": "address"
        },
        {
          "indexed": true,
          "internalType": "address",
          "name": "to",
          "type": "address"
        },
        {
          "indexed": true,
          "internalType": "uint256",
          "name": "tokenId",
          "type": "uint256"
        }
      ],
      "name": "TransferCustom",
      "type": "event"
    },
    {
      "anonymous": false,
      "inputs": [
        {
          "indexed": false,
          "internalType": "address",
          "name": "proxy",
          "type": "address"
        },
        {
          "indexed": false,
          "internalType": "address",
          "name": "mediaEOA",
          "type": "address"
        },
        {
          "indexed": false,
          "internalType": "string",
          "name": "accountMetadata",
          "type": "string"
        }
      ],
      "name": "UpdateMedia",
      "type": "event"
    },
    {
      "anonymous": false,
      "inputs": [
        {
          "indexed": false,
          "internalType": "uint256",
          "name": "amount",
          "type": "uint256"
        }
      ],
      "name": "Withdraw",
      "type": "event"
    },
    {
      "inputs": [],
      "name": "adPoolAddress",
      "outputs": [
        {
          "internalType": "address",
          "name": "",
          "type": "address"
        }
      ],
      "stateMutability": "view",
      "type": "function"
    },
    {
      "inputs": [
        {
          "internalType": "uint256",
          "name": "tokenId",
          "type": "uint256"
        },
        {
          "internalType": "string",
          "name": "spaceMetadata",
          "type": "string"
        },
        {
          "internalType": "string",
          "name": "tokenMetadata",
          "type": "string"
        },
        {
          "internalType": "uint256",
          "name": "displayStartTimestamp",
          "type": "uint256"
        },
        {
          "internalType": "uint256",
          "name": "displayEndTimestamp",
          "type": "uint256"
        },
        {
          "internalType": "uint256",
          "name": "price",
          "type": "uint256"
        }
      ],
      "name": "emitAcceptOffer",
      "outputs": [],
      "stateMutability": "nonpayable",
      "type": "function"
    },
    {
      "inputs": [
        {
          "internalType": "uint256",
          "name": "tokenId",
          "type": "uint256"
        },
        {
          "internalType": "string",
          "name": "metadata",
          "type": "string"
        }
      ],
      "name": "emitAcceptProposal",
      "outputs": [],
      "stateMutability": "nonpayable",
      "type": "function"
    },
    {
      "inputs": [
        {
          "internalType": "uint256",
          "name": "tokenId",
          "type": "uint256"
        },
        {
          "internalType": "uint256",
          "name": "msgValue",
          "type": "uint256"
        },
        {
          "internalType": "address",
          "name": "msgSender",
          "type": "address"
        }
      ],
      "name": "emitBid",
      "outputs": [],
      "stateMutability": "nonpayable",
      "type": "function"
    },
    {
      "inputs": [
        {
          "internalType": "uint256",
          "name": "tokenId",
          "type": "uint256"
        },
        {
          "internalType": "uint256",
          "name": "msgValue",
          "type": "uint256"
        },
        {
          "internalType": "address",
          "name": "msgSender",
          "type": "address"
        }
      ],
      "name": "emitBuy",
      "outputs": [],
      "stateMutability": "nonpayable",
      "type": "function"
    },
    {
      "inputs": [
        {
          "internalType": "uint256",
          "name": "tokenId",
          "type": "uint256"
        }
      ],
      "name": "emitDeletePeriod",
      "outputs": [],
      "stateMutability": "nonpayable",
      "type": "function"
    },
    {
      "inputs": [
        {
          "internalType": "string",
          "name": "metadata",
          "type": "string"
        }
      ],
      "name": "emitDeleteSpace",
      "outputs": [],
      "stateMutability": "nonpayable",
      "type": "function"
    },
    {
      "inputs": [
        {
          "internalType": "uint256",
          "name": "tokenId",
          "type": "uint256"
        },
        {
          "internalType": "string",
          "name": "metadata",
          "type": "string"
        },
        {
          "internalType": "string",
          "name": "reason",
          "type": "string"
        }
      ],
      "name": "emitDenyProposal",
      "outputs": [],
      "stateMutability": "nonpayable",
      "type": "function"
    },
    {
      "inputs": [
        {
          "internalType": "address",
          "name": "proxy",
          "type": "address"
        },
        {
          "internalType": "address",
          "name": "mediaEOA",
          "type": "address"
        },
        {
          "internalType": "string",
          "name": "accountMetadata",
          "type": "string"
        },
        {
          "internalType": "uint256",
          "name": "saltNonce",
          "type": "uint256"
        }
      ],
      "name": "emitNewMedia",
      "outputs": [],
      "stateMutability": "nonpayable",
      "type": "function"
    },
    {
      "inputs": [
        {
          "internalType": "uint256",
          "name": "tokenId",
          "type": "uint256"
        },
        {
          "internalType": "string",
          "name": "spaceMetadata",
          "type": "string"
        },
        {
          "internalType": "string",
          "name": "tokenMetadata",
          "type": "string"
        },
        {
          "internalType": "uint256",
          "name": "saleStartTimestamp",
          "type": "uint256"
        },
        {
          "internalType": "uint256",
          "name": "saleEndTimestamp",
          "type": "uint256"
        },
        {
          "internalType": "uint256",
          "name": "displayStartTimestamp",
          "type": "uint256"
        },
        {
          "internalType": "uint256",
          "name": "displayEndTimestamp",
          "type": "uint256"
        },
        {
          "internalType": "enum Ad.Pricing",
          "name": "pricing",
          "type": "uint8"
        },
        {
          "internalType": "uint256",
          "name": "minPrice",
          "type": "uint256"
        }
      ],
      "name": "emitNewPeriod",
      "outputs": [],
      "stateMutability": "nonpayable",
      "type": "function"
    },
    {
      "inputs": [
        {
          "internalType": "string",
          "name": "metadata",
          "type": "string"
        }
      ],
      "name": "emitNewSpace",
      "outputs": [],
      "stateMutability": "nonpayable",
      "type": "function"
    },
    {
      "inputs": [
        {
          "internalType": "uint256",
          "name": "tokenId",
          "type": "uint256"
        },
        {
          "internalType": "string",
          "name": "spaceMetadata",
          "type": "string"
        },
        {
          "internalType": "uint256",
          "name": "displayStartTimestamp",
          "type": "uint256"
        },
        {
          "internalType": "uint256",
          "name": "displayEndTimestamp",
          "type": "uint256"
        },
        {
          "internalType": "address",
          "name": "sender",
          "type": "address"
        },
        {
          "internalType": "uint256",
          "name": "price",
          "type": "uint256"
        }
      ],
      "name": "emitOfferPeriod",
      "outputs": [],
      "stateMutability": "nonpayable",
      "type": "function"
    },
    {
      "inputs": [
        {
          "internalType": "uint256",
          "name": "tokenId",
          "type": "uint256"
        },
        {
          "internalType": "string",
          "name": "metadata",
          "type": "string"
        }
      ],
      "name": "emitPropose",
      "outputs": [],
      "stateMutability": "nonpayable",
      "type": "function"
    },
    {
      "inputs": [
        {
          "internalType": "uint256",
          "name": "tokenId",
          "type": "uint256"
        },
        {
          "internalType": "uint256",
          "name": "price",
          "type": "uint256"
        },
        {
          "internalType": "address",
          "name": "buyer",
          "type": "address"
        }
      ],
      "name": "emitReceiveToken",
      "outputs": [],
      "stateMutability": "nonpayable",
      "type": "function"
    },
    {
      "inputs": [
        {
          "internalType": "address",
          "name": "from",
          "type": "address"
        },
        {
          "internalType": "address",
          "name": "to",
          "type": "address"
        },
        {
          "internalType": "uint256",
          "name": "tokenId",
          "type": "uint256"
        }
      ],
      "name": "emitTransferCustom",
      "outputs": [],
      "stateMutability": "nonpayable",
      "type": "function"
    },
    {
      "inputs": [
        {
          "internalType": "address",
          "name": "proxy",
          "type": "address"
        },
        {
          "internalType": "address",
          "name": "mediaEOA",
          "type": "address"
        },
        {
          "internalType": "string",
          "name": "accountMetadata",
          "type": "string"
        }
      ],
      "name": "emitUpdateMedia",
      "outputs": [],
      "stateMutability": "nonpayable",
      "type": "function"
    },
    {
      "inputs": [
        {
          "internalType": "uint256",
          "name": "amount",
          "type": "uint256"
        }
      ],
      "name": "emitWithdraw",
      "outputs": [],
      "stateMutability": "nonpayable",
      "type": "function"
    },
    {
      "inputs": [],
      "name": "eventEmitterAddress",
      "outputs": [
        {
          "internalType": "address",
          "name": "",
          "type": "address"
        }
      ],
      "stateMutability": "view",
      "type": "function"
    },
    {
      "inputs": [],
      "name": "mediaFactoryAddress",
      "outputs": [
        {
          "internalType": "address",
          "name": "",
          "type": "address"
        }
      ],
      "stateMutability": "view",
      "type": "function"
    },
    {
      "inputs": [],
      "name": "mediaRegistryAddress",
      "outputs": [
        {
          "internalType": "address",
          "name": "",
          "type": "address"
        }
      ],
      "stateMutability": "view",
      "type": "function"
    },
    {
      "inputs": [],
      "name": "nameRegistryAddress",
      "outputs": [
        {
          "internalType": "address",
          "name": "",
          "type": "address"
        }
      ],
      "stateMutability": "view",
      "type": "function"
    },
    {
      "inputs": [],
      "name": "owner",
      "outputs": [
        {
          "internalType": "address",
          "name": "",
          "type": "address"
        }
      ],
      "stateMutability": "view",
      "type": "function"
    },
    {
      "inputs": [],
      "name": "vaultAddress",
      "outputs": [
        {
          "internalType": "address",
          "name": "",
          "type": "address"
        }
      ],
      "stateMutability": "view",
      "type": "function"
    }
  ],
  "transactionHash": "0x36844260f730ad3e23abd586808360f0f02517b055476c54a9c4cb1f54463006",
  "args": [
    "0xA2bC8Cc2e6B149c9411fC4e70d47824F5b1B6559"
  ],
  "solcInputHash": "e8d9bb358a5713c49109d8869137d9b3",
  "bytecode": "0x608060405234801561001057600080fd5b50604051611ca6380380611ca683398101604081905261002f91610050565b600080546001600160a01b0319166001600160a01b03831617905550610080565b60006020828403121561006257600080fd5b81516001600160a01b038116811461007957600080fd5b9392505050565b611c178061008f6000396000f3fe608060405234801561001057600080fd5b506004361061018d5760003560e01c8063746f1b20116100e3578063b495ffac1161008c578063d2e1636011610066578063d2e16360146102ef578063f072629114610302578063f4cb45e51461030a57600080fd5b8063b495ffac146102c1578063c9cd71b5146102d4578063ccb55a98146102dc57600080fd5b80638da5cb5b116100bd5780638da5cb5b1461029e5780638f6059d6146102a65780639e7e11d7146102ae57600080fd5b8063746f1b201461026557806378689c64146102785780637bab635a1461028b57600080fd5b8063385c5521116101455780635bcefb531161011f5780635bcefb53146102375780636422b7aa1461024a5780636a58767e1461025d57600080fd5b8063385c552114610209578063430bf08a1461021c578063465bcf051461022457600080fd5b8063279862cb11610176578063279862cb146101ba57806327b7a2f5146101cd5780633591af7e146101f657600080fd5b80630ca82afb1461019257806326236013146101a7575b600080fd5b6101a56101a0366004611578565b61031d565b005b6101a56101b5366004611619565b61042d565b6101a56101c836600461167b565b61052f565b6000546001600160a01b03165b6040516001600160a01b03909116815260200160405180910390f35b6101a5610204366004611694565b610628565b6101a56102173660046116fe565b6106d3565b6101da6107ea565b6101a5610232366004611737565b6108b6565b6101a5610245366004611778565b6109be565b6101a56102583660046117bf565b610abd565b6101da610bb2565b6101a5610273366004611778565b610bf9565b6101a5610286366004611822565b610cec565b6101a561029936600461185f565b610ddd565b6101da610ef1565b6101da610f40565b6101a56102bc3660046116fe565b610f87565b6101a56102cf366004611822565b611073565b6101da611164565b6101a56102ea36600461167b565b6111ab565b6101a56102fd3660046116fe565b61129d565b6101da611389565b6101a5610318366004611916565b6113d0565b60006103276114cb565b604051630a57ebcf60e11b81523360048201526001600160a01b0391909116906314afd79e9060240160206040518083038186803b15801561036857600080fd5b505afa15801561037c573d6000803e3d6000fd5b505050506040513d601f19601f820116820180604052508101906103a0919061198d565b6001600160a01b031614156103e45760405162461bcd60e51b81526020600482015260056024820152644b4430313160d81b60448201526064015b60405180910390fd5b7f0bb287542408ded65f2846322c12ffb5e9228e18dc22074445d5e06f4698aeaa86868686868660405161041d969594939291906119fe565b60405180910390a1505050505050565b60006104376114cb565b604051630a57ebcf60e11b81523360048201526001600160a01b0391909116906314afd79e9060240160206040518083038186803b15801561047857600080fd5b505afa15801561048c573d6000803e3d6000fd5b505050506040513d601f19601f820116820180604052508101906104b0919061198d565b6001600160a01b031614156104ef5760405162461bcd60e51b81526020600482015260056024820152644b4430313160d81b60448201526064016103db565b7f20879156e5855128644cb33ccda296b37af9727d80c8cf0e986362b2c01df9e083838360405161052293929190611a48565b60405180910390a1505050565b60006105396114cb565b604051630a57ebcf60e11b81523360048201526001600160a01b0391909116906314afd79e9060240160206040518083038186803b15801561057a57600080fd5b505afa15801561058e573d6000803e3d6000fd5b505050506040513d601f19601f820116820180604052508101906105b2919061198d565b6001600160a01b031614156105f15760405162461bcd60e51b81526020600482015260056024820152644b4430313160d81b60448201526064016103db565b6040518181527f5b6b431d4476a211bb7d41c20d1aab9ae2321deee0d20be3d9fc9b1093fa6e3d906020015b60405180910390a150565b610630610f40565b6001600160a01b0316336001600160a01b0316146106905760405162461bcd60e51b815260206004820152600560248201527f4b4430313000000000000000000000000000000000000000000000000000000060448201526064016103db565b7f85f7d3a8382e33fa386e179305f69c52de91ec850889bb0603d6bfc5cd9ddad6848484846040516106c59493929190611a7d565b60405180910390a150505050565b60006106dd6114cb565b604051630a57ebcf60e11b81523360048201526001600160a01b0391909116906314afd79e9060240160206040518083038186803b15801561071e57600080fd5b505afa158015610732573d6000803e3d6000fd5b505050506040513d601f19601f82011682018060405250810190610756919061198d565b6001600160a01b031614156107955760405162461bcd60e51b81526020600482015260056024820152644b4430313160d81b60448201526064016103db565b7f27f0e57684cd818b3b06246bbc63cf3366959e8e4dcdbd46aa5b2778f25e73b0838383425b604051610522949392919093845260208401929092526001600160a01b03166040830152606082015260800190565b600080546040517f5661756c7400000000000000000000000000000000000000000000000000000060208201526001600160a01b0390911690638eaa6ac0906025015b604051602081830303815290604052805190602001206040518263ffffffff1660e01b815260040161086191815260200190565b60206040518083038186803b15801561087957600080fd5b505afa15801561088d573d6000803e3d6000fd5b505050506040513d601f19601f820116820180604052508101906108b1919061198d565b905090565b60006108c06114cb565b604051630a57ebcf60e11b81523360048201526001600160a01b0391909116906314afd79e9060240160206040518083038186803b15801561090157600080fd5b505afa158015610915573d6000803e3d6000fd5b505050506040513d601f19601f82011682018060405250810190610939919061198d565b6001600160a01b031614156109785760405162461bcd60e51b81526020600482015260056024820152644b4430313160d81b60448201526064016103db565b80826001600160a01b0316846001600160a01b03167f4f21c37c3184c9b0bbc63a812b0a1a148f15f1bd6db127e7e562d9b04368032560405160405180910390a4505050565b60006109c86114cb565b604051630a57ebcf60e11b81523360048201526001600160a01b0391909116906314afd79e9060240160206040518083038186803b158015610a0957600080fd5b505afa158015610a1d573d6000803e3d6000fd5b505050506040513d601f19601f82011682018060405250810190610a41919061198d565b6001600160a01b03161415610a805760405162461bcd60e51b81526020600482015260056024820152644b4430313160d81b60448201526064016103db565b7ffbcaf6dcca8992dde10374342f4a59e51717c327e0a8fcf5b460894126c4ac118282604051610ab1929190611aba565b60405180910390a15050565b6000610ac76114cb565b604051630a57ebcf60e11b81523360048201526001600160a01b0391909116906314afd79e9060240160206040518083038186803b158015610b0857600080fd5b505afa158015610b1c573d6000803e3d6000fd5b505050506040513d601f19601f82011682018060405250810190610b40919061198d565b6001600160a01b03161415610b7f5760405162461bcd60e51b81526020600482015260056024820152644b4430313160d81b60448201526064016103db565b7ffd5270fa39b92c8214bacc8ee95cc75508c512cf5c92e38496e09cbf9eeb516383838360405161052293929190611ad3565b600080546040517f4d6564696152656769737472790000000000000000000000000000000000000060208201526001600160a01b0390911690638eaa6ac090602d0161082d565b6000610c036114cb565b604051630a57ebcf60e11b81523360048201526001600160a01b0391909116906314afd79e9060240160206040518083038186803b158015610c4457600080fd5b505afa158015610c58573d6000803e3d6000fd5b505050506040513d601f19601f82011682018060405250810190610c7c919061198d565b6001600160a01b03161415610cbb5760405162461bcd60e51b81526020600482015260056024820152644b4430313160d81b60448201526064016103db565b7fdd75cdb279dca6fe92df3801d51ed09ad93a4653400c85ead720719cb3b97e648282604051610ab1929190611aba565b6000610cf66114cb565b604051630a57ebcf60e11b81523360048201526001600160a01b0391909116906314afd79e9060240160206040518083038186803b158015610d3757600080fd5b505afa158015610d4b573d6000803e3d6000fd5b505050506040513d601f19601f82011682018060405250810190610d6f919061198d565b6001600160a01b03161415610dae5760405162461bcd60e51b81526020600482015260056024820152644b4430313160d81b60448201526064016103db565b7f8f59e770815c7e70fd6a66c717f1f6c6b2a938c9de6fd82d2c8ac794637710898160405161061d9190611b08565b6000610de76114cb565b604051630a57ebcf60e11b81523360048201526001600160a01b0391909116906314afd79e9060240160206040518083038186803b158015610e2857600080fd5b505afa158015610e3c573d6000803e3d6000fd5b505050506040513d601f19601f82011682018060405250810190610e60919061198d565b6001600160a01b03161415610e9f5760405162461bcd60e51b81526020600482015260056024820152644b4430313160d81b60448201526064016103db565b7f113d332939326968b86df824553c250f41867c6f2dd89e7d55a9a76ba5c60ba1898989898989898989604051610ede99989796959493929190611b1b565b60405180910390a1505050505050505050565b60008060009054906101000a90046001600160a01b03166001600160a01b0316638da5cb5b6040518163ffffffff1660e01b815260040160206040518083038186803b15801561087957600080fd5b600080546040517f4d65646961466163746f7279000000000000000000000000000000000000000060208201526001600160a01b0390911690638eaa6ac090602c0161082d565b6000610f916114cb565b604051630a57ebcf60e11b81523360048201526001600160a01b0391909116906314afd79e9060240160206040518083038186803b158015610fd257600080fd5b505afa158015610fe6573d6000803e3d6000fd5b505050506040513d601f19601f8201168201806040525081019061100a919061198d565b6001600160a01b031614156110495760405162461bcd60e51b81526020600482015260056024820152644b4430313160d81b60448201526064016103db565b7ff657a33a260f0292d243ac4d7832a2af14d735a16351622191c6cf01af297c4e838383426107bb565b600061107d6114cb565b604051630a57ebcf60e11b81523360048201526001600160a01b0391909116906314afd79e9060240160206040518083038186803b1580156110be57600080fd5b505afa1580156110d2573d6000803e3d6000fd5b505050506040513d601f19601f820116820180604052508101906110f6919061198d565b6001600160a01b031614156111355760405162461bcd60e51b81526020600482015260056024820152644b4430313160d81b60448201526064016103db565b7f40f718b98ec12ea69664c7770914d2b2054ffbc7f15e051d2a0f9e68d4cf60858160405161061d9190611b08565b600080546040517f4164506f6f6c000000000000000000000000000000000000000000000000000060208201526001600160a01b0390911690638eaa6ac09060260161082d565b60006111b56114cb565b604051630a57ebcf60e11b81523360048201526001600160a01b0391909116906314afd79e9060240160206040518083038186803b1580156111f657600080fd5b505afa15801561120a573d6000803e3d6000fd5b505050506040513d601f19601f8201168201806040525081019061122e919061198d565b6001600160a01b0316141561126d5760405162461bcd60e51b81526020600482015260056024820152644b4430313160d81b60448201526064016103db565b6040518181527f029e7b2c30a4e7bfc3c0a3bd13106f4137e14326e456603b835cacdda53bca689060200161061d565b60006112a76114cb565b604051630a57ebcf60e11b81523360048201526001600160a01b0391909116906314afd79e9060240160206040518083038186803b1580156112e857600080fd5b505afa1580156112fc573d6000803e3d6000fd5b505050506040513d601f19601f82011682018060405250810190611320919061198d565b6001600160a01b0316141561135f5760405162461bcd60e51b81526020600482015260056024820152644b4430313160d81b60448201526064016103db565b7f312ad1b914a22d11c4cd9fcb4b3d71f98c69f212d74dd14ca390862014a5137c838383426107bb565b600080546040517f4576656e74456d6974746572000000000000000000000000000000000000000060208201526001600160a01b0390911690638eaa6ac090602c0161082d565b60006113da6114cb565b604051630a57ebcf60e11b81523360048201526001600160a01b0391909116906314afd79e9060240160206040518083038186803b15801561141b57600080fd5b505afa15801561142f573d6000803e3d6000fd5b505050506040513d601f19601f82011682018060405250810190611453919061198d565b6001600160a01b031614156114925760405162461bcd60e51b81526020600482015260056024820152644b4430313160d81b60448201526064016103db565b7f43b6900a4c2a714e2ba0ef717f474065755f74786ea410c0db6d1cebb33fda4186868686868660405161041d96959493929190611b9a565b60006108b1610bb2565b634e487b7160e01b600052604160045260246000fd5b600082601f8301126114fc57600080fd5b813567ffffffffffffffff80821115611517576115176114d5565b604051601f8301601f19908116603f0116810190828211818310171561153f5761153f6114d5565b8160405283815286602085880101111561155857600080fd5b836020870160208301376000602085830101528094505050505092915050565b60008060008060008060c0878903121561159157600080fd5b86359550602087013567ffffffffffffffff808211156115b057600080fd5b6115bc8a838b016114eb565b965060408901359150808211156115d257600080fd5b506115df89828a016114eb565b945050606087013592506080870135915060a087013590509295509295509295565b6001600160a01b038116811461161657600080fd5b50565b60008060006060848603121561162e57600080fd5b833561163981611601565b9250602084013561164981611601565b9150604084013567ffffffffffffffff81111561166557600080fd5b611671868287016114eb565b9150509250925092565b60006020828403121561168d57600080fd5b5035919050565b600080600080608085870312156116aa57600080fd5b84356116b581611601565b935060208501356116c581611601565b9250604085013567ffffffffffffffff8111156116e157600080fd5b6116ed878288016114eb565b949793965093946060013593505050565b60008060006060848603121561171357600080fd5b8335925060208401359150604084013561172c81611601565b809150509250925092565b60008060006060848603121561174c57600080fd5b833561175781611601565b9250602084013561176781611601565b929592945050506040919091013590565b6000806040838503121561178b57600080fd5b82359150602083013567ffffffffffffffff8111156117a957600080fd5b6117b5858286016114eb565b9150509250929050565b6000806000606084860312156117d457600080fd5b83359250602084013567ffffffffffffffff808211156117f357600080fd5b6117ff878388016114eb565b9350604086013591508082111561181557600080fd5b50611671868287016114eb565b60006020828403121561183457600080fd5b813567ffffffffffffffff81111561184b57600080fd5b611857848285016114eb565b949350505050565b60008060008060008060008060006101208a8c03121561187e57600080fd5b8935985060208a013567ffffffffffffffff8082111561189d57600080fd5b6118a98d838e016114eb565b995060408c01359150808211156118bf57600080fd5b506118cc8c828d016114eb565b97505060608a0135955060808a0135945060a08a0135935060c08a0135925060e08a0135600481106118fd57600080fd5b809250506101008a013590509295985092959850929598565b60008060008060008060c0878903121561192f57600080fd5b86359550602087013567ffffffffffffffff81111561194d57600080fd5b61195989828a016114eb565b9550506040870135935060608701359250608087013561197881611601565b8092505060a087013590509295509295509295565b60006020828403121561199f57600080fd5b81516119aa81611601565b9392505050565b6000815180845260005b818110156119d7576020818501810151868301820152016119bb565b818111156119e9576000602083870101525b50601f01601f19169290920160200192915050565b86815260c060208201526000611a1760c08301886119b1565b8281036040840152611a2981886119b1565b60608401969096525050608081019290925260a0909101529392505050565b60006001600160a01b03808616835280851660208401525060606040830152611a7460608301846119b1565b95945050505050565b60006001600160a01b03808716835280861660208401525060806040830152611aa960808301856119b1565b905082606083015295945050505050565b82815260406020820152600061185760408301846119b1565b838152606060208201526000611aec60608301856119b1565b8281036040840152611afe81856119b1565b9695505050505050565b6020815260006119aa60208301846119b1565b60006101208b8352806020840152611b358184018c6119b1565b90508281036040840152611b49818b6119b1565b9150508760608301528660808301528560a08301528460c083015260048410611b8257634e487b7160e01b600052602160045260246000fd5b60e08201939093526101000152979650505050505050565b86815260c060208201526000611bb360c08301886119b1565b90508560408301528460608301526001600160a01b03841660808301528260a083015297965050505050505056fea2646970667358221220211c989e247e807f121d1a4681f70b84623e1dd67fb58e88cb0a0d64037fe4a064736f6c63430008090033",
  "libraries": {
    "Ad": "0x9e721A9d5Cb236aB13276814e5bC75c6EB88f9CF"
  },
  "devdoc": {
    "author": "Shumpei Koike - <shumpei.koike@bridges.inc>",
    "events": {
      "NewMedia(address,address,string,uint256)": {
        "details": "Emitted when a new media is created."
      }
    },
    "kind": "dev",
    "methods": {
      "adPoolAddress()": {
        "details": "Gets the address of AdPool."
      },
      "eventEmitterAddress()": {
        "details": "Gets the address of EventEmitter."
      },
      "mediaFactoryAddress()": {
        "details": "Gets the address of MediaFactory."
      },
      "mediaRegistryAddress()": {
        "details": "Gets the address of MediaRegistry."
      },
      "nameRegistryAddress()": {
        "details": "Gets the address of NameRegistry"
      },
      "owner()": {
        "details": "Gets the owner address."
      },
      "vaultAddress()": {
        "details": "Gets the address of Vault."
      }
    },
    "title": "EventEmitter - emits events on behalf of each proxy.",
    "version": 1
  },
  "userdoc": {
    "kind": "user",
    "methods": {},
    "version": 1
  },
  "storageLayout": {
    "storage": [
      {
        "astId": 1639,
        "contract": "contracts/peripheries/EventEmitter.sol:EventEmitter",
        "label": "_nameRegistry",
        "offset": 0,
        "slot": "0",
        "type": "t_contract(NameRegistry)1868"
      }
    ],
    "types": {
      "t_contract(NameRegistry)1868": {
        "encoding": "inplace",
        "label": "contract NameRegistry",
        "numberOfBytes": "20"
      }
    }
  }
}