{
  "address": "0xd167338523B84A7D3ae4b5A6420c96D5010DBA58",
  "abi": [
    {
      "inputs": [
        {
          "internalType": "address",
          "name": "_nameRegistry",
          "type": "address"
        }
      ],
      "stateMutability": "nonpayable",
      "type": "constructor"
    },
    {
      "anonymous": false,
      "inputs": [
        {
          "indexed": false,
          "internalType": "uint256",
          "name": "tokenId",
          "type": "uint256"
        },
        {
          "indexed": false,
          "internalType": "string",
          "name": "spaceMetadata",
          "type": "string"
        },
        {
          "indexed": false,
          "internalType": "string",
          "name": "tokenMetadata",
          "type": "string"
        },
        {
          "indexed": false,
          "internalType": "uint256",
          "name": "displayStartTimestamp",
          "type": "uint256"
        },
        {
          "indexed": false,
          "internalType": "uint256",
          "name": "displayEndTimestamp",
          "type": "uint256"
        },
        {
          "indexed": false,
          "internalType": "uint256",
          "name": "price",
          "type": "uint256"
        }
      ],
      "name": "AcceptOffer",
      "type": "event"
    },
    {
      "anonymous": false,
      "inputs": [
        {
          "indexed": false,
          "internalType": "uint256",
          "name": "tokenId",
          "type": "uint256"
        },
        {
          "indexed": false,
          "internalType": "string",
          "name": "metadata",
          "type": "string"
        }
      ],
      "name": "AcceptProposal",
      "type": "event"
    },
    {
      "anonymous": false,
      "inputs": [
        {
          "indexed": false,
          "internalType": "uint256",
          "name": "tokenId",
          "type": "uint256"
        },
        {
          "indexed": false,
          "internalType": "uint256",
          "name": "price",
          "type": "uint256"
        },
        {
          "indexed": false,
          "internalType": "address",
          "name": "buyer",
          "type": "address"
        },
        {
          "indexed": false,
          "internalType": "uint256",
          "name": "timestamp",
          "type": "uint256"
        }
      ],
      "name": "Bid",
      "type": "event"
    },
    {
      "anonymous": false,
      "inputs": [
        {
          "indexed": false,
          "internalType": "uint256",
          "name": "tokenId",
          "type": "uint256"
        },
        {
          "indexed": false,
          "internalType": "uint256",
          "name": "price",
          "type": "uint256"
        },
        {
          "indexed": false,
          "internalType": "address",
          "name": "sender",
          "type": "address"
        },
        {
          "indexed": false,
          "internalType": "string",
          "name": "metadata",
          "type": "string"
        },
        {
          "indexed": false,
          "internalType": "uint256",
          "name": "timestamp",
          "type": "uint256"
        }
      ],
      "name": "BidWithProposal",
      "type": "event"
    },
    {
      "anonymous": false,
      "inputs": [
        {
          "indexed": false,
          "internalType": "uint256",
          "name": "tokenId",
          "type": "uint256"
        },
        {
          "indexed": false,
          "internalType": "uint256",
          "name": "price",
          "type": "uint256"
        },
        {
          "indexed": false,
          "internalType": "address",
          "name": "buyer",
          "type": "address"
        },
        {
          "indexed": false,
          "internalType": "uint256",
          "name": "timestamp",
          "type": "uint256"
        }
      ],
      "name": "Buy",
      "type": "event"
    },
    {
      "anonymous": false,
      "inputs": [
        {
          "indexed": false,
          "internalType": "uint256",
          "name": "tokenId",
          "type": "uint256"
        }
      ],
      "name": "CancelOffer",
      "type": "event"
    },
    {
      "anonymous": false,
      "inputs": [
        {
          "indexed": false,
          "internalType": "uint256",
          "name": "tokenId",
          "type": "uint256"
        }
      ],
      "name": "DeletePeriod",
      "type": "event"
    },
    {
      "anonymous": false,
      "inputs": [
        {
          "indexed": false,
          "internalType": "string",
          "name": "metadata",
          "type": "string"
        }
      ],
      "name": "DeleteSpace",
      "type": "event"
    },
    {
      "anonymous": false,
      "inputs": [
        {
          "indexed": false,
          "internalType": "uint256",
          "name": "tokenId",
          "type": "uint256"
        },
        {
          "indexed": false,
          "internalType": "string",
          "name": "metadata",
          "type": "string"
        },
        {
          "indexed": false,
          "internalType": "string",
          "name": "reason",
          "type": "string"
        },
        {
          "indexed": false,
          "internalType": "bool",
          "name": "offensive",
          "type": "bool"
        }
      ],
      "name": "DenyProposal",
      "type": "event"
    },
    {
      "anonymous": false,
      "inputs": [
        {
          "indexed": false,
          "internalType": "address",
          "name": "proxy",
          "type": "address"
        },
        {
          "indexed": false,
          "internalType": "address",
          "name": "mediaEOA",
          "type": "address"
        },
        {
          "indexed": false,
          "internalType": "string",
          "name": "applicationMetadata",
          "type": "string"
        },
        {
          "indexed": false,
          "internalType": "string",
          "name": "updatableMetadata",
          "type": "string"
        },
        {
          "indexed": false,
          "internalType": "uint256",
          "name": "saltNonce",
          "type": "uint256"
        }
      ],
      "name": "NewMedia",
      "type": "event"
    },
    {
      "anonymous": false,
      "inputs": [
        {
          "indexed": false,
          "internalType": "uint256",
          "name": "tokenId",
          "type": "uint256"
        },
        {
          "indexed": false,
          "internalType": "string",
          "name": "spaceMetadata",
          "type": "string"
        },
        {
          "indexed": false,
          "internalType": "string",
          "name": "tokenMetadata",
          "type": "string"
        },
        {
          "indexed": false,
          "internalType": "uint256",
          "name": "saleStartTimestamp",
          "type": "uint256"
        },
        {
          "indexed": false,
          "internalType": "uint256",
          "name": "saleEndTimestamp",
          "type": "uint256"
        },
        {
          "indexed": false,
          "internalType": "uint256",
          "name": "displayStartTimestamp",
          "type": "uint256"
        },
        {
          "indexed": false,
          "internalType": "uint256",
          "name": "displayEndTimestamp",
          "type": "uint256"
        },
        {
          "indexed": false,
          "internalType": "enum Ad.Pricing",
          "name": "pricing",
          "type": "uint8"
        },
        {
          "indexed": false,
          "internalType": "uint256",
          "name": "minPrice",
          "type": "uint256"
        }
      ],
      "name": "NewPeriod",
      "type": "event"
    },
    {
      "anonymous": false,
      "inputs": [
        {
          "indexed": false,
          "internalType": "string",
          "name": "metadata",
          "type": "string"
        }
      ],
      "name": "NewSpace",
      "type": "event"
    },
    {
      "anonymous": false,
      "inputs": [
        {
          "indexed": false,
          "internalType": "uint256",
          "name": "tokenId",
          "type": "uint256"
        },
        {
          "indexed": false,
          "internalType": "string",
          "name": "spaceMetadata",
          "type": "string"
        },
        {
          "indexed": false,
          "internalType": "uint256",
          "name": "displayStartTimestamp",
          "type": "uint256"
        },
        {
          "indexed": false,
          "internalType": "uint256",
          "name": "displayEndTimestamp",
          "type": "uint256"
        },
        {
          "indexed": false,
          "internalType": "address",
          "name": "sender",
          "type": "address"
        },
        {
          "indexed": false,
          "internalType": "uint256",
          "name": "price",
          "type": "uint256"
        }
      ],
      "name": "OfferPeriod",
      "type": "event"
    },
    {
      "anonymous": false,
      "inputs": [
        {
          "indexed": false,
          "internalType": "address",
          "name": "receiver",
          "type": "address"
        },
        {
          "indexed": false,
          "internalType": "uint256",
          "name": "price",
          "type": "uint256"
        }
      ],
      "name": "PaymentFailure",
      "type": "event"
    },
    {
      "anonymous": false,
      "inputs": [
        {
          "indexed": false,
          "internalType": "uint256",
          "name": "tokenId",
          "type": "uint256"
        },
        {
          "indexed": false,
          "internalType": "string",
          "name": "metadata",
          "type": "string"
        }
      ],
      "name": "Propose",
      "type": "event"
    },
    {
      "anonymous": false,
      "inputs": [
        {
          "indexed": false,
          "internalType": "uint256",
          "name": "tokenId",
          "type": "uint256"
        },
        {
          "indexed": false,
          "internalType": "uint256",
          "name": "price",
          "type": "uint256"
        },
        {
          "indexed": false,
          "internalType": "address",
          "name": "buyer",
          "type": "address"
        },
        {
          "indexed": false,
          "internalType": "uint256",
          "name": "timestamp",
          "type": "uint256"
        }
      ],
      "name": "ReceiveToken",
      "type": "event"
    },
    {
      "anonymous": false,
      "inputs": [
        {
          "indexed": false,
          "internalType": "uint256",
          "name": "tokenId",
          "type": "uint256"
        },
        {
          "indexed": false,
          "internalType": "address",
          "name": "successfulBidder",
          "type": "address"
        }
      ],
      "name": "SelectProposal",
      "type": "event"
    },
    {
      "anonymous": false,
      "inputs": [
        {
          "indexed": true,
          "internalType": "address",
          "name": "from",
          "type": "address"
        },
        {
          "indexed": true,
          "internalType": "address",
          "name": "to",
          "type": "address"
        },
        {
          "indexed": true,
          "internalType": "uint256",
          "name": "tokenId",
          "type": "uint256"
        }
      ],
      "name": "TransferCustom",
      "type": "event"
    },
    {
      "anonymous": false,
      "inputs": [
        {
          "indexed": false,
          "internalType": "address",
          "name": "proxy",
          "type": "address"
        },
        {
          "indexed": false,
          "internalType": "address",
          "name": "mediaEOA",
          "type": "address"
        },
        {
          "indexed": false,
          "internalType": "string",
          "name": "accountMetadata",
          "type": "string"
        }
      ],
      "name": "UpdateMedia",
      "type": "event"
    },
    {
      "anonymous": false,
      "inputs": [
        {
          "indexed": false,
          "internalType": "uint256",
          "name": "amount",
          "type": "uint256"
        }
      ],
      "name": "Withdraw",
      "type": "event"
    },
    {
      "inputs": [],
      "name": "adPoolAddress",
      "outputs": [
        {
          "internalType": "address",
          "name": "",
          "type": "address"
        }
      ],
      "stateMutability": "view",
      "type": "function"
    },
    {
      "inputs": [
        {
          "internalType": "uint256",
          "name": "tokenId",
          "type": "uint256"
        },
        {
          "internalType": "string",
          "name": "spaceMetadata",
          "type": "string"
        },
        {
          "internalType": "string",
          "name": "tokenMetadata",
          "type": "string"
        },
        {
          "internalType": "uint256",
          "name": "displayStartTimestamp",
          "type": "uint256"
        },
        {
          "internalType": "uint256",
          "name": "displayEndTimestamp",
          "type": "uint256"
        },
        {
          "internalType": "uint256",
          "name": "price",
          "type": "uint256"
        }
      ],
      "name": "emitAcceptOffer",
      "outputs": [],
      "stateMutability": "nonpayable",
      "type": "function"
    },
    {
      "inputs": [
        {
          "internalType": "uint256",
          "name": "tokenId",
          "type": "uint256"
        },
        {
          "internalType": "string",
          "name": "metadata",
          "type": "string"
        }
      ],
      "name": "emitAcceptProposal",
      "outputs": [],
      "stateMutability": "nonpayable",
      "type": "function"
    },
    {
      "inputs": [
        {
          "internalType": "uint256",
          "name": "tokenId",
          "type": "uint256"
        },
        {
          "internalType": "uint256",
          "name": "msgValue",
          "type": "uint256"
        },
        {
          "internalType": "address",
          "name": "msgSender",
          "type": "address"
        },
        {
          "internalType": "uint256",
          "name": "blockTimestamp",
          "type": "uint256"
        }
      ],
      "name": "emitBid",
      "outputs": [],
      "stateMutability": "nonpayable",
      "type": "function"
    },
    {
      "inputs": [
        {
          "internalType": "uint256",
          "name": "tokenId",
          "type": "uint256"
        },
        {
          "internalType": "uint256",
          "name": "msgValue",
          "type": "uint256"
        },
        {
          "internalType": "address",
          "name": "msgSender",
          "type": "address"
        },
        {
          "internalType": "string",
          "name": "metadata",
          "type": "string"
        },
        {
          "internalType": "uint256",
          "name": "blockTimestamp",
          "type": "uint256"
        }
      ],
      "name": "emitBidWithProposal",
      "outputs": [],
      "stateMutability": "nonpayable",
      "type": "function"
    },
    {
      "inputs": [
        {
          "internalType": "uint256",
          "name": "tokenId",
          "type": "uint256"
        },
        {
          "internalType": "uint256",
          "name": "msgValue",
          "type": "uint256"
        },
        {
          "internalType": "address",
          "name": "msgSender",
          "type": "address"
        },
        {
          "internalType": "uint256",
          "name": "blockTimestamp",
          "type": "uint256"
        }
      ],
      "name": "emitBuy",
      "outputs": [],
      "stateMutability": "nonpayable",
      "type": "function"
    },
    {
      "inputs": [
        {
          "internalType": "uint256",
          "name": "tokenId",
          "type": "uint256"
        }
      ],
      "name": "emitCancelOffer",
      "outputs": [],
      "stateMutability": "nonpayable",
      "type": "function"
    },
    {
      "inputs": [
        {
          "internalType": "uint256",
          "name": "tokenId",
          "type": "uint256"
        }
      ],
      "name": "emitDeletePeriod",
      "outputs": [],
      "stateMutability": "nonpayable",
      "type": "function"
    },
    {
      "inputs": [
        {
          "internalType": "string",
          "name": "metadata",
          "type": "string"
        }
      ],
      "name": "emitDeleteSpace",
      "outputs": [],
      "stateMutability": "nonpayable",
      "type": "function"
    },
    {
      "inputs": [
        {
          "internalType": "uint256",
          "name": "tokenId",
          "type": "uint256"
        },
        {
          "internalType": "string",
          "name": "metadata",
          "type": "string"
        },
        {
          "internalType": "string",
          "name": "reason",
          "type": "string"
        },
        {
          "internalType": "bool",
          "name": "offensive",
          "type": "bool"
        }
      ],
      "name": "emitDenyProposal",
      "outputs": [],
      "stateMutability": "nonpayable",
      "type": "function"
    },
    {
      "inputs": [
        {
          "internalType": "address",
          "name": "proxy",
          "type": "address"
        },
        {
          "internalType": "address",
          "name": "mediaEOA",
          "type": "address"
        },
        {
          "internalType": "string",
          "name": "applicationMetadata",
          "type": "string"
        },
        {
          "internalType": "string",
          "name": "updatableMetadata",
          "type": "string"
        },
        {
          "internalType": "uint256",
          "name": "saltNonce",
          "type": "uint256"
        }
      ],
      "name": "emitNewMedia",
      "outputs": [],
      "stateMutability": "nonpayable",
      "type": "function"
    },
    {
      "inputs": [
        {
          "internalType": "uint256",
          "name": "tokenId",
          "type": "uint256"
        },
        {
          "internalType": "string",
          "name": "spaceMetadata",
          "type": "string"
        },
        {
          "internalType": "string",
          "name": "tokenMetadata",
          "type": "string"
        },
        {
          "internalType": "uint256",
          "name": "saleStartTimestamp",
          "type": "uint256"
        },
        {
          "internalType": "uint256",
          "name": "saleEndTimestamp",
          "type": "uint256"
        },
        {
          "internalType": "uint256",
          "name": "displayStartTimestamp",
          "type": "uint256"
        },
        {
          "internalType": "uint256",
          "name": "displayEndTimestamp",
          "type": "uint256"
        },
        {
          "internalType": "enum Ad.Pricing",
          "name": "pricing",
          "type": "uint8"
        },
        {
          "internalType": "uint256",
          "name": "minPrice",
          "type": "uint256"
        }
      ],
      "name": "emitNewPeriod",
      "outputs": [],
      "stateMutability": "nonpayable",
      "type": "function"
    },
    {
      "inputs": [
        {
          "internalType": "string",
          "name": "metadata",
          "type": "string"
        }
      ],
      "name": "emitNewSpace",
      "outputs": [],
      "stateMutability": "nonpayable",
      "type": "function"
    },
    {
      "inputs": [
        {
          "internalType": "uint256",
          "name": "tokenId",
          "type": "uint256"
        },
        {
          "internalType": "string",
          "name": "spaceMetadata",
          "type": "string"
        },
        {
          "internalType": "uint256",
          "name": "displayStartTimestamp",
          "type": "uint256"
        },
        {
          "internalType": "uint256",
          "name": "displayEndTimestamp",
          "type": "uint256"
        },
        {
          "internalType": "address",
          "name": "sender",
          "type": "address"
        },
        {
          "internalType": "uint256",
          "name": "price",
          "type": "uint256"
        }
      ],
      "name": "emitOfferPeriod",
      "outputs": [],
      "stateMutability": "nonpayable",
      "type": "function"
    },
    {
      "inputs": [
        {
          "internalType": "address",
          "name": "receiver",
          "type": "address"
        },
        {
          "internalType": "uint256",
          "name": "price",
          "type": "uint256"
        }
      ],
      "name": "emitPaymentFailure",
      "outputs": [],
      "stateMutability": "nonpayable",
      "type": "function"
    },
    {
      "inputs": [
        {
          "internalType": "uint256",
          "name": "tokenId",
          "type": "uint256"
        },
        {
          "internalType": "string",
          "name": "metadata",
          "type": "string"
        }
      ],
      "name": "emitPropose",
      "outputs": [],
      "stateMutability": "nonpayable",
      "type": "function"
    },
    {
      "inputs": [
        {
          "internalType": "uint256",
          "name": "tokenId",
          "type": "uint256"
        },
        {
          "internalType": "uint256",
          "name": "price",
          "type": "uint256"
        },
        {
          "internalType": "address",
          "name": "buyer",
          "type": "address"
        },
        {
          "internalType": "uint256",
          "name": "blockTimestamp",
          "type": "uint256"
        }
      ],
      "name": "emitReceiveToken",
      "outputs": [],
      "stateMutability": "nonpayable",
      "type": "function"
    },
    {
      "inputs": [
        {
          "internalType": "uint256",
          "name": "tokenId",
          "type": "uint256"
        },
        {
          "internalType": "address",
          "name": "successfulBidder",
          "type": "address"
        }
      ],
      "name": "emitSelectProposal",
      "outputs": [],
      "stateMutability": "nonpayable",
      "type": "function"
    },
    {
      "inputs": [
        {
          "internalType": "address",
          "name": "from",
          "type": "address"
        },
        {
          "internalType": "address",
          "name": "to",
          "type": "address"
        },
        {
          "internalType": "uint256",
          "name": "tokenId",
          "type": "uint256"
        }
      ],
      "name": "emitTransferCustom",
      "outputs": [],
      "stateMutability": "nonpayable",
      "type": "function"
    },
    {
      "inputs": [
        {
          "internalType": "address",
          "name": "proxy",
          "type": "address"
        },
        {
          "internalType": "address",
          "name": "mediaEOA",
          "type": "address"
        },
        {
          "internalType": "string",
          "name": "accountMetadata",
          "type": "string"
        }
      ],
      "name": "emitUpdateMedia",
      "outputs": [],
      "stateMutability": "nonpayable",
      "type": "function"
    },
    {
      "inputs": [
        {
          "internalType": "uint256",
          "name": "amount",
          "type": "uint256"
        }
      ],
      "name": "emitWithdraw",
      "outputs": [],
      "stateMutability": "nonpayable",
      "type": "function"
    },
    {
      "inputs": [],
      "name": "eventEmitterAddress",
      "outputs": [
        {
          "internalType": "address",
          "name": "",
          "type": "address"
        }
      ],
      "stateMutability": "view",
      "type": "function"
    },
    {
      "inputs": [],
      "name": "mediaFactoryAddress",
      "outputs": [
        {
          "internalType": "address",
          "name": "",
          "type": "address"
        }
      ],
      "stateMutability": "view",
      "type": "function"
    },
    {
      "inputs": [],
      "name": "mediaRegistryAddress",
      "outputs": [
        {
          "internalType": "address",
          "name": "",
          "type": "address"
        }
      ],
      "stateMutability": "view",
      "type": "function"
    },
    {
      "inputs": [],
      "name": "nameRegistryAddress",
      "outputs": [
        {
          "internalType": "address",
          "name": "",
          "type": "address"
        }
      ],
      "stateMutability": "view",
      "type": "function"
    },
    {
      "inputs": [],
      "name": "owner",
      "outputs": [
        {
          "internalType": "address",
          "name": "",
          "type": "address"
        }
      ],
      "stateMutability": "view",
      "type": "function"
    },
    {
      "inputs": [],
      "name": "vaultAddress",
      "outputs": [
        {
          "internalType": "address",
          "name": "",
          "type": "address"
        }
      ],
      "stateMutability": "view",
      "type": "function"
    }
  ],
  "transactionHash": "0xe6055390dfd1654217400bdb7634379293ab0bc34f1d6171b2230dff38950a52",
  "args": [
    "0x173E3862BaE7bD155a7a371Ee3b855de01aa63dd"
  ],
  "solcInputHash": "d3d38aa74a09225e7603340a0e8b265f",
  "bytecode": "0x608060405234801561001057600080fd5b5060405161202c38038061202c83398101604081905261002f91610050565b600080546001600160a01b0319166001600160a01b03831617905550610080565b60006020828403121561006257600080fd5b81516001600160a01b038116811461007957600080fd5b9392505050565b611f9d8061008f6000396000f3fe608060405234801561001057600080fd5b50600436106101495760003560e01c80630797ec081461014e5780630ca82afb146101635780630d2657bf146101765780632623601314610189578063279862cb1461019c57806327b7a2f5146101af5780633ebf7371146101d2578063430bf08a146101e5578063465bcf05146101ed578063493a6320146102005780635b50ca69146102135780635bcefb53146102265780635dd995b5146102395780636a58767e1461024c578063746f1b201461025457806378689c64146102675780637bab635a1461027a5780638da5cb5b1461028d5780638f6059d614610295578063b287b60f1461029d578063b495ffac146102b0578063c9cd71b5146102c3578063ccb55a98146102cb578063ec720b9b146102de578063f0726291146102f1578063f4cb45e5146102f9578063f65f14ac1461030c575b600080fd5b61016161015c366004611767565b61031f565b005b6101616101713660046117f7565b6103ba565b61016161018436600461187f565b6104af565b6101616101973660046118d7565b610592565b6101616101aa366004611938565b61067e565b6000546001600160a01b03165b6040516101c99190611951565b60405180910390f35b6101616101e0366004611965565b610761565b6101bc610850565b6101616101fb3660046119e9565b610904565b61016161020e366004611a2a565b6109f6565b610161610221366004611a5a565b610ae8565b610161610234366004611a99565b610bc9565b610161610247366004611a5a565b610ca6565b6101bc610d87565b610161610262366004611a99565b610dbe565b610161610275366004611adf565b610e9b565b610161610288366004611b1b565b610f76565b6101bc611074565b6101bc6110c3565b6101616102ab366004611a5a565b6110f9565b6101616102be366004611adf565b6111da565b6101bc6112b5565b6101616102d9366004611938565b6112e5565b6101616102ec366004611bd1565b6113c1565b6101bc6114ac565b610161610307366004611bfd565b6114e2565b61016161031a366004611938565b6115c7565b6103276110c3565b6001600160a01b0316336001600160a01b0316146103745760405162461bcd60e51b815260206004820152600560248201526404b443031360dc1b60448201526064015b60405180910390fd5b7f1dc472d582044e22bd24b2685973e92f3fb3f7174252f4bde8ad142ea1e78ec385858585856040516103ab959493929190611cc0565b60405180910390a15050505050565b60006103c46116a3565b6001600160a01b03166314afd79e336040518263ffffffff1660e01b81526004016103ef9190611951565b60206040518083038186803b15801561040757600080fd5b505afa15801561041b573d6000803e3d6000fd5b505050506040513d601f19601f8201168201806040525081019061043f9190611d11565b6001600160a01b031614156104665760405162461bcd60e51b815260040161036b90611d35565b7f0bb287542408ded65f2846322c12ffb5e9228e18dc22074445d5e06f4698aeaa86868686868660405161049f96959493929190611d54565b60405180910390a1505050505050565b60006104b96116a3565b6001600160a01b03166314afd79e336040518263ffffffff1660e01b81526004016104e49190611951565b60206040518083038186803b1580156104fc57600080fd5b505afa158015610510573d6000803e3d6000fd5b505050506040513d601f19601f820116820180604052508101906105349190611d11565b6001600160a01b0316141561055b5760405162461bcd60e51b815260040161036b90611d35565b7f64f7d04e523947d79f772988c75e01af9141f056747beb2bb66551a94e5f666a85858585856040516103ab959493929190611d9e565b600061059c6116a3565b6001600160a01b03166314afd79e336040518263ffffffff1660e01b81526004016105c79190611951565b60206040518083038186803b1580156105df57600080fd5b505afa1580156105f3573d6000803e3d6000fd5b505050506040513d601f19601f820116820180604052508101906106179190611d11565b6001600160a01b0316141561063e5760405162461bcd60e51b815260040161036b90611d35565b7f20879156e5855128644cb33ccda296b37af9727d80c8cf0e986362b2c01df9e083838360405161067193929190611ddd565b60405180910390a1505050565b60006106886116a3565b6001600160a01b03166314afd79e336040518263ffffffff1660e01b81526004016106b39190611951565b60206040518083038186803b1580156106cb57600080fd5b505afa1580156106df573d6000803e3d6000fd5b505050506040513d601f19601f820116820180604052508101906107039190611d11565b6001600160a01b0316141561072a5760405162461bcd60e51b815260040161036b90611d35565b6040518181527f5b6b431d4476a211bb7d41c20d1aab9ae2321deee0d20be3d9fc9b1093fa6e3d906020015b60405180910390a150565b600061076b6116a3565b6001600160a01b03166314afd79e336040518263ffffffff1660e01b81526004016107969190611951565b60206040518083038186803b1580156107ae57600080fd5b505afa1580156107c2573d6000803e3d6000fd5b505050506040513d601f19601f820116820180604052508101906107e69190611d11565b6001600160a01b0316141561080d5760405162461bcd60e51b815260040161036b90611d35565b7f917b5da24a273be7df06d4141eb55d5d9cf1a2dae32878cf5693cefbd885a018848484846040516108429493929190611e12565b60405180910390a150505050565b600080546040516415985d5b1d60da1b60208201526001600160a01b0390911690638eaa6ac0906025015b604051602081830303815290604052805190602001206040518263ffffffff1660e01b81526004016108af91815260200190565b60206040518083038186803b1580156108c757600080fd5b505afa1580156108db573d6000803e3d6000fd5b505050506040513d601f19601f820116820180604052508101906108ff9190611d11565b905090565b600061090e6116a3565b6001600160a01b03166314afd79e336040518263ffffffff1660e01b81526004016109399190611951565b60206040518083038186803b15801561095157600080fd5b505afa158015610965573d6000803e3d6000fd5b505050506040513d601f19601f820116820180604052508101906109899190611d11565b6001600160a01b031614156109b05760405162461bcd60e51b815260040161036b90611d35565b80826001600160a01b0316846001600160a01b03167f4f21c37c3184c9b0bbc63a812b0a1a148f15f1bd6db127e7e562d9b04368032560405160405180910390a4505050565b6000610a006116a3565b6001600160a01b03166314afd79e336040518263ffffffff1660e01b8152600401610a2b9190611951565b60206040518083038186803b158015610a4357600080fd5b505afa158015610a57573d6000803e3d6000fd5b505050506040513d601f19601f82011682018060405250810190610a7b9190611d11565b6001600160a01b03161415610aa25760405162461bcd60e51b815260040161036b90611d35565b604080518381526001600160a01b03831660208201527f280e02e3ed1af740570b8d08ffed04a58fa870ace01401ffe1078a0351c5670e91015b60405180910390a15050565b6000610af26116a3565b6001600160a01b03166314afd79e336040518263ffffffff1660e01b8152600401610b1d9190611951565b60206040518083038186803b158015610b3557600080fd5b505afa158015610b49573d6000803e3d6000fd5b505050506040513d601f19601f82011682018060405250810190610b6d9190611d11565b6001600160a01b03161415610b945760405162461bcd60e51b815260040161036b90611d35565b7ff657a33a260f0292d243ac4d7832a2af14d735a16351622191c6cf01af297c4e848484846040516108429493929190611e51565b6000610bd36116a3565b6001600160a01b03166314afd79e336040518263ffffffff1660e01b8152600401610bfe9190611951565b60206040518083038186803b158015610c1657600080fd5b505afa158015610c2a573d6000803e3d6000fd5b505050506040513d601f19601f82011682018060405250810190610c4e9190611d11565b6001600160a01b03161415610c755760405162461bcd60e51b815260040161036b90611d35565b7ffbcaf6dcca8992dde10374342f4a59e51717c327e0a8fcf5b460894126c4ac118282604051610adc929190611e75565b6000610cb06116a3565b6001600160a01b03166314afd79e336040518263ffffffff1660e01b8152600401610cdb9190611951565b60206040518083038186803b158015610cf357600080fd5b505afa158015610d07573d6000803e3d6000fd5b505050506040513d601f19601f82011682018060405250810190610d2b9190611d11565b6001600160a01b03161415610d525760405162461bcd60e51b815260040161036b90611d35565b7f27f0e57684cd818b3b06246bbc63cf3366959e8e4dcdbd46aa5b2778f25e73b0848484846040516108429493929190611e51565b600080546040516c4d65646961526567697374727960981b60208201526001600160a01b0390911690638eaa6ac090602d0161087b565b6000610dc86116a3565b6001600160a01b03166314afd79e336040518263ffffffff1660e01b8152600401610df39190611951565b60206040518083038186803b158015610e0b57600080fd5b505afa158015610e1f573d6000803e3d6000fd5b505050506040513d601f19601f82011682018060405250810190610e439190611d11565b6001600160a01b03161415610e6a5760405162461bcd60e51b815260040161036b90611d35565b7fdd75cdb279dca6fe92df3801d51ed09ad93a4653400c85ead720719cb3b97e648282604051610adc929190611e75565b6000610ea56116a3565b6001600160a01b03166314afd79e336040518263ffffffff1660e01b8152600401610ed09190611951565b60206040518083038186803b158015610ee857600080fd5b505afa158015610efc573d6000803e3d6000fd5b505050506040513d601f19601f82011682018060405250810190610f209190611d11565b6001600160a01b03161415610f475760405162461bcd60e51b815260040161036b90611d35565b7f8f59e770815c7e70fd6a66c717f1f6c6b2a938c9de6fd82d2c8ac79463771089816040516107569190611e8e565b6000610f806116a3565b6001600160a01b03166314afd79e336040518263ffffffff1660e01b8152600401610fab9190611951565b60206040518083038186803b158015610fc357600080fd5b505afa158015610fd7573d6000803e3d6000fd5b505050506040513d601f19601f82011682018060405250810190610ffb9190611d11565b6001600160a01b031614156110225760405162461bcd60e51b815260040161036b90611d35565b7f113d332939326968b86df824553c250f41867c6f2dd89e7d55a9a76ba5c60ba189898989898989898960405161106199989796959493929190611ea1565b60405180910390a1505050505050505050565b60008060009054906101000a90046001600160a01b03166001600160a01b031663d5f394886040518163ffffffff1660e01b815260040160206040518083038186803b1580156108c757600080fd5b600080546040516b4d65646961466163746f727960a01b60208201526001600160a01b0390911690638eaa6ac090602c0161087b565b60006111036116a3565b6001600160a01b03166314afd79e336040518263ffffffff1660e01b815260040161112e9190611951565b60206040518083038186803b15801561114657600080fd5b505afa15801561115a573d6000803e3d6000fd5b505050506040513d601f19601f8201168201806040525081019061117e9190611d11565b6001600160a01b031614156111a55760405162461bcd60e51b815260040161036b90611d35565b7f312ad1b914a22d11c4cd9fcb4b3d71f98c69f212d74dd14ca390862014a5137c848484846040516108429493929190611e51565b60006111e46116a3565b6001600160a01b03166314afd79e336040518263ffffffff1660e01b815260040161120f9190611951565b60206040518083038186803b15801561122757600080fd5b505afa15801561123b573d6000803e3d6000fd5b505050506040513d601f19601f8201168201806040525081019061125f9190611d11565b6001600160a01b031614156112865760405162461bcd60e51b815260040161036b90611d35565b7f40f718b98ec12ea69664c7770914d2b2054ffbc7f15e051d2a0f9e68d4cf6085816040516107569190611e8e565b60008054604051651059141bdbdb60d21b60208201526001600160a01b0390911690638eaa6ac09060260161087b565b60006112ef6116a3565b6001600160a01b03166314afd79e336040518263ffffffff1660e01b815260040161131a9190611951565b60206040518083038186803b15801561133257600080fd5b505afa158015611346573d6000803e3d6000fd5b505050506040513d601f19601f8201168201806040525081019061136a9190611d11565b6001600160a01b031614156113915760405162461bcd60e51b815260040161036b90611d35565b6040518181527f029e7b2c30a4e7bfc3c0a3bd13106f4137e14326e456603b835cacdda53bca6890602001610756565b60006113cb6116a3565b6001600160a01b03166314afd79e336040518263ffffffff1660e01b81526004016113f69190611951565b60206040518083038186803b15801561140e57600080fd5b505afa158015611422573d6000803e3d6000fd5b505050506040513d601f19601f820116820180604052508101906114469190611d11565b6001600160a01b0316141561146d5760405162461bcd60e51b815260040161036b90611d35565b604080516001600160a01b0384168152602081018390527fade428889ac75005bd70004e1b1e262be6bf4f97bad5827315a7d58261a6dac79101610adc565b600080546040516b22bb32b73a22b6b4ba3a32b960a11b60208201526001600160a01b0390911690638eaa6ac090602c0161087b565b60006114ec6116a3565b6001600160a01b03166314afd79e336040518263ffffffff1660e01b81526004016115179190611951565b60206040518083038186803b15801561152f57600080fd5b505afa158015611543573d6000803e3d6000fd5b505050506040513d601f19601f820116820180604052508101906115679190611d11565b6001600160a01b0316141561158e5760405162461bcd60e51b815260040161036b90611d35565b7f43b6900a4c2a714e2ba0ef717f474065755f74786ea410c0db6d1cebb33fda4186868686868660405161049f96959493929190611f20565b60006115d16116a3565b6001600160a01b03166314afd79e336040518263ffffffff1660e01b81526004016115fc9190611951565b60206040518083038186803b15801561161457600080fd5b505afa158015611628573d6000803e3d6000fd5b505050506040513d601f19601f8201168201806040525081019061164c9190611d11565b6001600160a01b031614156116735760405162461bcd60e51b815260040161036b90611d35565b6040518181527f4e455dbee07370885b62f673891219a5fee0380b3da49d8bcae6297dc345cde090602001610756565b60006108ff610d87565b6001600160a01b03811681146116c257600080fd5b50565b634e487b7160e01b600052604160045260246000fd5b600082601f8301126116ec57600080fd5b81356001600160401b0380821115611706576117066116c5565b604051601f8301601f19908116603f0116810190828211818310171561172e5761172e6116c5565b8160405283815286602085880101111561174757600080fd5b836020870160208301376000602085830101528094505050505092915050565b600080600080600060a0868803121561177f57600080fd5b853561178a816116ad565b9450602086013561179a816116ad565b935060408601356001600160401b03808211156117b657600080fd5b6117c289838a016116db565b945060608801359150808211156117d857600080fd5b506117e5888289016116db565b95989497509295608001359392505050565b60008060008060008060c0878903121561181057600080fd5b8635955060208701356001600160401b038082111561182e57600080fd5b61183a8a838b016116db565b9650604089013591508082111561185057600080fd5b5061185d89828a016116db565b945050606087013592506080870135915060a087013590509295509295509295565b600080600080600060a0868803121561189757600080fd5b853594506020860135935060408601356118b0816116ad565b925060608601356001600160401b038111156118cb57600080fd5b6117e5888289016116db565b6000806000606084860312156118ec57600080fd5b83356118f7816116ad565b92506020840135611907816116ad565b915060408401356001600160401b0381111561192257600080fd5b61192e868287016116db565b9150509250925092565b60006020828403121561194a57600080fd5b5035919050565b6001600160a01b0391909116815260200190565b6000806000806080858703121561197b57600080fd5b8435935060208501356001600160401b038082111561199957600080fd5b6119a5888389016116db565b945060408701359150808211156119bb57600080fd5b506119c8878288016116db565b925050606085013580151581146119de57600080fd5b939692955090935050565b6000806000606084860312156119fe57600080fd5b8335611a09816116ad565b92506020840135611a19816116ad565b929592945050506040919091013590565b60008060408385031215611a3d57600080fd5b823591506020830135611a4f816116ad565b809150509250929050565b60008060008060808587031215611a7057600080fd5b84359350602085013592506040850135611a89816116ad565b9396929550929360600135925050565b60008060408385031215611aac57600080fd5b8235915060208301356001600160401b03811115611ac957600080fd5b611ad5858286016116db565b9150509250929050565b600060208284031215611af157600080fd5b81356001600160401b03811115611b0757600080fd5b611b13848285016116db565b949350505050565b60008060008060008060008060006101208a8c031215611b3a57600080fd5b8935985060208a01356001600160401b0380821115611b5857600080fd5b611b648d838e016116db565b995060408c0135915080821115611b7a57600080fd5b50611b878c828d016116db565b97505060608a0135955060808a0135945060a08a0135935060c08a0135925060e08a013560058110611bb857600080fd5b809250506101008a013590509295985092959850929598565b60008060408385031215611be457600080fd5b8235611bef816116ad565b946020939093013593505050565b60008060008060008060c08789031215611c1657600080fd5b8635955060208701356001600160401b03811115611c3357600080fd5b611c3f89828a016116db565b95505060408701359350606087013592506080870135611c5e816116ad565b8092505060a087013590509295509295509295565b6000815180845260005b81811015611c9957602081850181015186830182015201611c7d565b81811115611cab576000602083870101525b50601f01601f19169290920160200192915050565b6001600160a01b0386811682528516602082015260a060408201819052600090611cec90830186611c73565b8281036060840152611cfe8186611c73565b9150508260808301529695505050505050565b600060208284031215611d2357600080fd5b8151611d2e816116ad565b9392505050565b6020808252600590820152644b4430313160d81b604082015260600190565b86815260c060208201526000611d6d60c0830188611c73565b8281036040840152611d7f8188611c73565b60608401969096525050608081019290925260a0909101529392505050565b85815284602082015260018060a01b038416604082015260a060608201526000611dcb60a0830185611c73565b90508260808301529695505050505050565b6001600160a01b03848116825283166020820152606060408201819052600090611e0990830184611c73565b95945050505050565b848152608060208201526000611e2b6080830186611c73565b8281036040840152611e3d8186611c73565b915050821515606083015295945050505050565b93845260208401929092526001600160a01b03166040830152606082015260800190565b828152604060208201526000611b136040830184611c73565b602081526000611d2e6020830184611c73565b60006101208b8352806020840152611ebb8184018c611c73565b90508281036040840152611ecf818b611c73565b9150508760608301528660808301528560a08301528460c083015260058410611f0857634e487b7160e01b600052602160045260246000fd5b60e08201939093526101000152979650505050505050565b86815260c060208201526000611f3960c0830188611c73565b60408301969096525060608101939093526001600160a01b0391909116608083015260a0909101529291505056fea2646970667358221220c67214a37758238c2bcc38bc3d651e4b7ae4fb8b5b2adb57440ea5be7afc4a2e64736f6c63430008090033",
  "libraries": {
    "Ad": "0x9F397D94EC32D43EeC60dCF9A38a44322D54d42A"
  },
  "devdoc": {
    "author": "Shumpei Koike - <shumpei.koike@bridges.inc>",
    "events": {
      "NewMedia(address,address,string,string,uint256)": {
        "details": "Emitted when a new media is created."
      }
    },
    "kind": "dev",
    "methods": {
      "adPoolAddress()": {
        "details": "Gets the address of AdPool."
      },
      "eventEmitterAddress()": {
        "details": "Gets the address of EventEmitter."
      },
      "mediaFactoryAddress()": {
        "details": "Gets the address of MediaFactory."
      },
      "mediaRegistryAddress()": {
        "details": "Gets the address of MediaRegistry."
      },
      "nameRegistryAddress()": {
        "details": "Gets the address of NameRegistry"
      },
      "owner()": {
        "details": "Gets the owner address."
      },
      "vaultAddress()": {
        "details": "Gets the address of Vault."
      }
    },
    "title": "EventEmitter - emits events on behalf of each proxy.",
    "version": 1
  },
  "userdoc": {
    "kind": "user",
    "methods": {},
    "version": 1
  },
  "storageLayout": {
    "storage": [
      {
        "astId": 1762,
        "contract": "contracts/peripheries/EventEmitter.sol:EventEmitter",
        "label": "_nameRegistry",
        "offset": 0,
        "slot": "0",
        "type": "t_contract(INameRegistry)4285"
      }
    ],
    "types": {
      "t_contract(INameRegistry)4285": {
        "encoding": "inplace",
        "label": "contract INameRegistry",
        "numberOfBytes": "20"
      }
    }
  }
}