{
  "address": "0x53187752a76044C8392e7b546bbcaC9Da1c94A11",
  "abi": [
    {
      "inputs": [
        {
          "internalType": "address",
          "name": "_nameRegistry",
          "type": "address"
        }
      ],
      "stateMutability": "nonpayable",
      "type": "constructor"
    },
    {
      "anonymous": false,
      "inputs": [
        {
          "indexed": false,
          "internalType": "uint256",
          "name": "tokenId",
          "type": "uint256"
        },
        {
          "indexed": false,
          "internalType": "string",
          "name": "spaceMetadata",
          "type": "string"
        },
        {
          "indexed": false,
          "internalType": "string",
          "name": "tokenMetadata",
          "type": "string"
        },
        {
          "indexed": false,
          "internalType": "uint256",
          "name": "displayStartTimestamp",
          "type": "uint256"
        },
        {
          "indexed": false,
          "internalType": "uint256",
          "name": "displayEndTimestamp",
          "type": "uint256"
        },
        {
          "indexed": false,
          "internalType": "uint256",
          "name": "price",
          "type": "uint256"
        }
      ],
      "name": "AcceptOffer",
      "type": "event"
    },
    {
      "anonymous": false,
      "inputs": [
        {
          "indexed": false,
          "internalType": "uint256",
          "name": "tokenId",
          "type": "uint256"
        },
        {
          "indexed": false,
          "internalType": "string",
          "name": "metadata",
          "type": "string"
        }
      ],
      "name": "AcceptProposal",
      "type": "event"
    },
    {
      "anonymous": false,
      "inputs": [
        {
          "indexed": false,
          "internalType": "uint256",
          "name": "tokenId",
          "type": "uint256"
        },
        {
          "indexed": false,
          "internalType": "uint256",
          "name": "price",
          "type": "uint256"
        },
        {
          "indexed": false,
          "internalType": "address",
          "name": "buyer",
          "type": "address"
        },
        {
          "indexed": false,
          "internalType": "uint256",
          "name": "timestamp",
          "type": "uint256"
        }
      ],
      "name": "Bid",
      "type": "event"
    },
    {
      "anonymous": false,
      "inputs": [
        {
          "indexed": false,
          "internalType": "uint256",
          "name": "tokenId",
          "type": "uint256"
        },
        {
          "indexed": false,
          "internalType": "uint256",
          "name": "price",
          "type": "uint256"
        },
        {
          "indexed": false,
          "internalType": "address",
          "name": "sender",
          "type": "address"
        },
        {
          "indexed": false,
          "internalType": "string",
          "name": "metadata",
          "type": "string"
        },
        {
          "indexed": false,
          "internalType": "uint256",
          "name": "timestamp",
          "type": "uint256"
        }
      ],
      "name": "BidWithProposal",
      "type": "event"
    },
    {
      "anonymous": false,
      "inputs": [
        {
          "indexed": false,
          "internalType": "uint256",
          "name": "tokenId",
          "type": "uint256"
        },
        {
          "indexed": false,
          "internalType": "uint256",
          "name": "price",
          "type": "uint256"
        },
        {
          "indexed": false,
          "internalType": "address",
          "name": "buyer",
          "type": "address"
        },
        {
          "indexed": false,
          "internalType": "uint256",
          "name": "timestamp",
          "type": "uint256"
        }
      ],
      "name": "Buy",
      "type": "event"
    },
    {
      "anonymous": false,
      "inputs": [
        {
          "indexed": false,
          "internalType": "uint256",
          "name": "tokenId",
          "type": "uint256"
        }
      ],
      "name": "CancelOffer",
      "type": "event"
    },
    {
      "anonymous": false,
      "inputs": [
        {
          "indexed": false,
          "internalType": "uint256",
          "name": "tokenId",
          "type": "uint256"
        }
      ],
      "name": "DeletePeriod",
      "type": "event"
    },
    {
      "anonymous": false,
      "inputs": [
        {
          "indexed": false,
          "internalType": "uint256",
          "name": "tokenId",
          "type": "uint256"
        },
        {
          "indexed": false,
          "internalType": "string",
          "name": "metadata",
          "type": "string"
        },
        {
          "indexed": false,
          "internalType": "string",
          "name": "reason",
          "type": "string"
        },
        {
          "indexed": false,
          "internalType": "bool",
          "name": "offensive",
          "type": "bool"
        }
      ],
      "name": "DenyProposal",
      "type": "event"
    },
    {
      "anonymous": false,
      "inputs": [
        {
          "indexed": false,
          "internalType": "address",
          "name": "proxy",
          "type": "address"
        },
        {
          "indexed": false,
          "internalType": "address",
          "name": "mediaEOA",
          "type": "address"
        },
        {
          "indexed": false,
          "internalType": "string",
          "name": "applicationMetadata",
          "type": "string"
        },
        {
          "indexed": false,
          "internalType": "string",
          "name": "updatableMetadata",
          "type": "string"
        },
        {
          "indexed": false,
          "internalType": "uint256",
          "name": "saltNonce",
          "type": "uint256"
        }
      ],
      "name": "NewMedia",
      "type": "event"
    },
    {
      "anonymous": false,
      "inputs": [
        {
          "indexed": false,
          "internalType": "uint256",
          "name": "tokenId",
          "type": "uint256"
        },
        {
          "indexed": false,
          "internalType": "string",
          "name": "spaceMetadata",
          "type": "string"
        },
        {
          "indexed": false,
          "internalType": "string",
          "name": "tokenMetadata",
          "type": "string"
        },
        {
          "indexed": false,
          "internalType": "uint256",
          "name": "saleStartTimestamp",
          "type": "uint256"
        },
        {
          "indexed": false,
          "internalType": "uint256",
          "name": "saleEndTimestamp",
          "type": "uint256"
        },
        {
          "indexed": false,
          "internalType": "uint256",
          "name": "displayStartTimestamp",
          "type": "uint256"
        },
        {
          "indexed": false,
          "internalType": "uint256",
          "name": "displayEndTimestamp",
          "type": "uint256"
        },
        {
          "indexed": false,
          "internalType": "enum Ad.Pricing",
          "name": "pricing",
          "type": "uint8"
        },
        {
          "indexed": false,
          "internalType": "uint256",
          "name": "minPrice",
          "type": "uint256"
        }
      ],
      "name": "NewPeriod",
      "type": "event"
    },
    {
      "anonymous": false,
      "inputs": [
        {
          "indexed": false,
          "internalType": "string",
          "name": "metadata",
          "type": "string"
        }
      ],
      "name": "NewSpace",
      "type": "event"
    },
    {
      "anonymous": false,
      "inputs": [
        {
          "indexed": false,
          "internalType": "uint256",
          "name": "tokenId",
          "type": "uint256"
        },
        {
          "indexed": false,
          "internalType": "string",
          "name": "spaceMetadata",
          "type": "string"
        },
        {
          "indexed": false,
          "internalType": "uint256",
          "name": "displayStartTimestamp",
          "type": "uint256"
        },
        {
          "indexed": false,
          "internalType": "uint256",
          "name": "displayEndTimestamp",
          "type": "uint256"
        },
        {
          "indexed": false,
          "internalType": "address",
          "name": "sender",
          "type": "address"
        },
        {
          "indexed": false,
          "internalType": "uint256",
          "name": "price",
          "type": "uint256"
        }
      ],
      "name": "OfferPeriod",
      "type": "event"
    },
    {
      "anonymous": false,
      "inputs": [
        {
          "indexed": false,
          "internalType": "address",
          "name": "receiver",
          "type": "address"
        },
        {
          "indexed": false,
          "internalType": "uint256",
          "name": "price",
          "type": "uint256"
        }
      ],
      "name": "PaymentFailure",
      "type": "event"
    },
    {
      "anonymous": false,
      "inputs": [
        {
          "indexed": false,
          "internalType": "uint256",
          "name": "tokenId",
          "type": "uint256"
        },
        {
          "indexed": false,
          "internalType": "string",
          "name": "metadata",
          "type": "string"
        }
      ],
      "name": "Propose",
      "type": "event"
    },
    {
      "anonymous": false,
      "inputs": [
        {
          "indexed": false,
          "internalType": "uint256",
          "name": "tokenId",
          "type": "uint256"
        },
        {
          "indexed": false,
          "internalType": "uint256",
          "name": "price",
          "type": "uint256"
        },
        {
          "indexed": false,
          "internalType": "address",
          "name": "buyer",
          "type": "address"
        },
        {
          "indexed": false,
          "internalType": "uint256",
          "name": "timestamp",
          "type": "uint256"
        }
      ],
      "name": "ReceiveToken",
      "type": "event"
    },
    {
      "anonymous": false,
      "inputs": [
        {
          "indexed": false,
          "internalType": "address",
          "name": "",
          "type": "address"
        },
        {
          "indexed": false,
          "internalType": "uint256",
          "name": "",
          "type": "uint256"
        }
      ],
      "name": "Received",
      "type": "event"
    },
    {
      "anonymous": false,
      "inputs": [
        {
          "indexed": false,
          "internalType": "uint256",
          "name": "tokenId",
          "type": "uint256"
        },
        {
          "indexed": false,
          "internalType": "address",
          "name": "successfulBidder",
          "type": "address"
        }
      ],
      "name": "SelectProposal",
      "type": "event"
    },
    {
      "anonymous": false,
      "inputs": [
        {
          "indexed": true,
          "internalType": "address",
          "name": "from",
          "type": "address"
        },
        {
          "indexed": true,
          "internalType": "address",
          "name": "to",
          "type": "address"
        },
        {
          "indexed": true,
          "internalType": "uint256",
          "name": "tokenId",
          "type": "uint256"
        }
      ],
      "name": "TransferCustom",
      "type": "event"
    },
    {
      "anonymous": false,
      "inputs": [
        {
          "indexed": false,
          "internalType": "address",
          "name": "proxy",
          "type": "address"
        },
        {
          "indexed": false,
          "internalType": "address",
          "name": "mediaEOA",
          "type": "address"
        },
        {
          "indexed": false,
          "internalType": "string",
          "name": "accountMetadata",
          "type": "string"
        }
      ],
      "name": "UpdateMedia",
      "type": "event"
    },
    {
      "anonymous": false,
      "inputs": [
        {
          "indexed": false,
          "internalType": "uint256",
          "name": "amount",
          "type": "uint256"
        }
      ],
      "name": "Withdraw",
      "type": "event"
    },
    {
      "inputs": [],
      "name": "adPoolAddress",
      "outputs": [
        {
          "internalType": "address",
          "name": "",
          "type": "address"
        }
      ],
      "stateMutability": "view",
      "type": "function"
    },
    {
      "inputs": [
        {
          "internalType": "uint256",
          "name": "tokenId",
          "type": "uint256"
        },
        {
          "internalType": "string",
          "name": "spaceMetadata",
          "type": "string"
        },
        {
          "internalType": "string",
          "name": "tokenMetadata",
          "type": "string"
        },
        {
          "internalType": "uint256",
          "name": "displayStartTimestamp",
          "type": "uint256"
        },
        {
          "internalType": "uint256",
          "name": "displayEndTimestamp",
          "type": "uint256"
        },
        {
          "internalType": "uint256",
          "name": "price",
          "type": "uint256"
        }
      ],
      "name": "emitAcceptOffer",
      "outputs": [],
      "stateMutability": "nonpayable",
      "type": "function"
    },
    {
      "inputs": [
        {
          "internalType": "uint256",
          "name": "tokenId",
          "type": "uint256"
        },
        {
          "internalType": "string",
          "name": "metadata",
          "type": "string"
        }
      ],
      "name": "emitAcceptProposal",
      "outputs": [],
      "stateMutability": "nonpayable",
      "type": "function"
    },
    {
      "inputs": [
        {
          "internalType": "uint256",
          "name": "tokenId",
          "type": "uint256"
        },
        {
          "internalType": "uint256",
          "name": "msgValue",
          "type": "uint256"
        },
        {
          "internalType": "address",
          "name": "msgSender",
          "type": "address"
        },
        {
          "internalType": "uint256",
          "name": "blockTimestamp",
          "type": "uint256"
        }
      ],
      "name": "emitBid",
      "outputs": [],
      "stateMutability": "nonpayable",
      "type": "function"
    },
    {
      "inputs": [
        {
          "internalType": "uint256",
          "name": "tokenId",
          "type": "uint256"
        },
        {
          "internalType": "uint256",
          "name": "msgValue",
          "type": "uint256"
        },
        {
          "internalType": "address",
          "name": "msgSender",
          "type": "address"
        },
        {
          "internalType": "string",
          "name": "metadata",
          "type": "string"
        },
        {
          "internalType": "uint256",
          "name": "blockTimestamp",
          "type": "uint256"
        }
      ],
      "name": "emitBidWithProposal",
      "outputs": [],
      "stateMutability": "nonpayable",
      "type": "function"
    },
    {
      "inputs": [
        {
          "internalType": "uint256",
          "name": "tokenId",
          "type": "uint256"
        },
        {
          "internalType": "uint256",
          "name": "msgValue",
          "type": "uint256"
        },
        {
          "internalType": "address",
          "name": "msgSender",
          "type": "address"
        },
        {
          "internalType": "uint256",
          "name": "blockTimestamp",
          "type": "uint256"
        }
      ],
      "name": "emitBuy",
      "outputs": [],
      "stateMutability": "nonpayable",
      "type": "function"
    },
    {
      "inputs": [
        {
          "internalType": "uint256",
          "name": "tokenId",
          "type": "uint256"
        }
      ],
      "name": "emitCancelOffer",
      "outputs": [],
      "stateMutability": "nonpayable",
      "type": "function"
    },
    {
      "inputs": [
        {
          "internalType": "uint256",
          "name": "tokenId",
          "type": "uint256"
        }
      ],
      "name": "emitDeletePeriod",
      "outputs": [],
      "stateMutability": "nonpayable",
      "type": "function"
    },
    {
      "inputs": [
        {
          "internalType": "uint256",
          "name": "tokenId",
          "type": "uint256"
        },
        {
          "internalType": "string",
          "name": "metadata",
          "type": "string"
        },
        {
          "internalType": "string",
          "name": "reason",
          "type": "string"
        },
        {
          "internalType": "bool",
          "name": "offensive",
          "type": "bool"
        }
      ],
      "name": "emitDenyProposal",
      "outputs": [],
      "stateMutability": "nonpayable",
      "type": "function"
    },
    {
      "inputs": [
        {
          "internalType": "address",
          "name": "proxy",
          "type": "address"
        },
        {
          "internalType": "address",
          "name": "mediaEOA",
          "type": "address"
        },
        {
          "internalType": "string",
          "name": "applicationMetadata",
          "type": "string"
        },
        {
          "internalType": "string",
          "name": "updatableMetadata",
          "type": "string"
        },
        {
          "internalType": "uint256",
          "name": "saltNonce",
          "type": "uint256"
        }
      ],
      "name": "emitNewMedia",
      "outputs": [],
      "stateMutability": "nonpayable",
      "type": "function"
    },
    {
      "inputs": [
        {
          "internalType": "uint256",
          "name": "tokenId",
          "type": "uint256"
        },
        {
          "internalType": "string",
          "name": "spaceMetadata",
          "type": "string"
        },
        {
          "internalType": "string",
          "name": "tokenMetadata",
          "type": "string"
        },
        {
          "internalType": "uint256",
          "name": "saleStartTimestamp",
          "type": "uint256"
        },
        {
          "internalType": "uint256",
          "name": "saleEndTimestamp",
          "type": "uint256"
        },
        {
          "internalType": "uint256",
          "name": "displayStartTimestamp",
          "type": "uint256"
        },
        {
          "internalType": "uint256",
          "name": "displayEndTimestamp",
          "type": "uint256"
        },
        {
          "internalType": "enum Ad.Pricing",
          "name": "pricing",
          "type": "uint8"
        },
        {
          "internalType": "uint256",
          "name": "minPrice",
          "type": "uint256"
        }
      ],
      "name": "emitNewPeriod",
      "outputs": [],
      "stateMutability": "nonpayable",
      "type": "function"
    },
    {
      "inputs": [
        {
          "internalType": "string",
          "name": "metadata",
          "type": "string"
        }
      ],
      "name": "emitNewSpace",
      "outputs": [],
      "stateMutability": "nonpayable",
      "type": "function"
    },
    {
      "inputs": [
        {
          "internalType": "uint256",
          "name": "tokenId",
          "type": "uint256"
        },
        {
          "internalType": "string",
          "name": "spaceMetadata",
          "type": "string"
        },
        {
          "internalType": "uint256",
          "name": "displayStartTimestamp",
          "type": "uint256"
        },
        {
          "internalType": "uint256",
          "name": "displayEndTimestamp",
          "type": "uint256"
        },
        {
          "internalType": "address",
          "name": "sender",
          "type": "address"
        },
        {
          "internalType": "uint256",
          "name": "price",
          "type": "uint256"
        }
      ],
      "name": "emitOfferPeriod",
      "outputs": [],
      "stateMutability": "nonpayable",
      "type": "function"
    },
    {
      "inputs": [
        {
          "internalType": "address",
          "name": "receiver",
          "type": "address"
        },
        {
          "internalType": "uint256",
          "name": "price",
          "type": "uint256"
        }
      ],
      "name": "emitPaymentFailure",
      "outputs": [],
      "stateMutability": "nonpayable",
      "type": "function"
    },
    {
      "inputs": [
        {
          "internalType": "uint256",
          "name": "tokenId",
          "type": "uint256"
        },
        {
          "internalType": "string",
          "name": "metadata",
          "type": "string"
        }
      ],
      "name": "emitPropose",
      "outputs": [],
      "stateMutability": "nonpayable",
      "type": "function"
    },
    {
      "inputs": [
        {
          "internalType": "uint256",
          "name": "tokenId",
          "type": "uint256"
        },
        {
          "internalType": "uint256",
          "name": "price",
          "type": "uint256"
        },
        {
          "internalType": "address",
          "name": "buyer",
          "type": "address"
        },
        {
          "internalType": "uint256",
          "name": "blockTimestamp",
          "type": "uint256"
        }
      ],
      "name": "emitReceiveToken",
      "outputs": [],
      "stateMutability": "nonpayable",
      "type": "function"
    },
    {
      "inputs": [
        {
          "internalType": "address",
          "name": "receiver",
          "type": "address"
        },
        {
          "internalType": "uint256",
          "name": "price",
          "type": "uint256"
        }
      ],
      "name": "emitReceived",
      "outputs": [],
      "stateMutability": "nonpayable",
      "type": "function"
    },
    {
      "inputs": [
        {
          "internalType": "uint256",
          "name": "tokenId",
          "type": "uint256"
        },
        {
          "internalType": "address",
          "name": "successfulBidder",
          "type": "address"
        }
      ],
      "name": "emitSelectProposal",
      "outputs": [],
      "stateMutability": "nonpayable",
      "type": "function"
    },
    {
      "inputs": [
        {
          "internalType": "address",
          "name": "from",
          "type": "address"
        },
        {
          "internalType": "address",
          "name": "to",
          "type": "address"
        },
        {
          "internalType": "uint256",
          "name": "tokenId",
          "type": "uint256"
        }
      ],
      "name": "emitTransferCustom",
      "outputs": [],
      "stateMutability": "nonpayable",
      "type": "function"
    },
    {
      "inputs": [
        {
          "internalType": "address",
          "name": "proxy",
          "type": "address"
        },
        {
          "internalType": "address",
          "name": "mediaEOA",
          "type": "address"
        },
        {
          "internalType": "string",
          "name": "accountMetadata",
          "type": "string"
        }
      ],
      "name": "emitUpdateMedia",
      "outputs": [],
      "stateMutability": "nonpayable",
      "type": "function"
    },
    {
      "inputs": [
        {
          "internalType": "uint256",
          "name": "amount",
          "type": "uint256"
        }
      ],
      "name": "emitWithdraw",
      "outputs": [],
      "stateMutability": "nonpayable",
      "type": "function"
    },
    {
      "inputs": [],
      "name": "englishAuctionAddress",
      "outputs": [
        {
          "internalType": "address",
          "name": "",
          "type": "address"
        }
      ],
      "stateMutability": "view",
      "type": "function"
    },
    {
      "inputs": [],
      "name": "eventEmitterAddress",
      "outputs": [
        {
          "internalType": "address",
          "name": "",
          "type": "address"
        }
      ],
      "stateMutability": "view",
      "type": "function"
    },
    {
      "inputs": [],
      "name": "mediaFactoryAddress",
      "outputs": [
        {
          "internalType": "address",
          "name": "",
          "type": "address"
        }
      ],
      "stateMutability": "view",
      "type": "function"
    },
    {
      "inputs": [],
      "name": "mediaRegistryAddress",
      "outputs": [
        {
          "internalType": "address",
          "name": "",
          "type": "address"
        }
      ],
      "stateMutability": "view",
      "type": "function"
    },
    {
      "inputs": [],
      "name": "nameRegistryAddress",
      "outputs": [
        {
          "internalType": "address",
          "name": "",
          "type": "address"
        }
      ],
      "stateMutability": "view",
      "type": "function"
    },
    {
      "inputs": [],
      "name": "offerBidAddress",
      "outputs": [
        {
          "internalType": "address",
          "name": "",
          "type": "address"
        }
      ],
      "stateMutability": "view",
      "type": "function"
    },
    {
      "inputs": [],
      "name": "openBidAddress",
      "outputs": [
        {
          "internalType": "address",
          "name": "",
          "type": "address"
        }
      ],
      "stateMutability": "view",
      "type": "function"
    },
    {
      "inputs": [],
      "name": "owner",
      "outputs": [
        {
          "internalType": "address",
          "name": "",
          "type": "address"
        }
      ],
      "stateMutability": "view",
      "type": "function"
    },
    {
      "inputs": [],
      "name": "proposalReviewAddress",
      "outputs": [
        {
          "internalType": "address",
          "name": "",
          "type": "address"
        }
      ],
      "stateMutability": "view",
      "type": "function"
    },
    {
      "inputs": [],
      "name": "vaultAddress",
      "outputs": [
        {
          "internalType": "address",
          "name": "",
          "type": "address"
        }
      ],
      "stateMutability": "view",
      "type": "function"
    }
  ],
  "transactionHash": "0x8b74710d8f0c89faa737cc97925c14f9059c56461f1911ae077f9c38d3a51c4c",
  "args": [
    "0x173E3862BaE7bD155a7a371Ee3b855de01aa63dd"
  ],
  "solcInputHash": "289fa2710193a113c0b3ec7823c19cab",
  "bytecode": "0x608060405234801561001057600080fd5b50604051620020e0380380620020e083398101604081905261003191610052565b600080546001600160a01b0319166001600160a01b03831617905550610082565b60006020828403121561006457600080fd5b81516001600160a01b038116811461007b57600080fd5b9392505050565b61204e80620000926000396000f3fe608060405234801561001057600080fd5b50600436106101755760003560e01c80630106d8eb1461017a5780630797ec08146101985780630ca82afb146101ad5780630d2657bf146101c05780632231c1eb146101d357806326236013146101db578063279862cb146101ee57806327b7a2f5146102015780633ebf737114610212578063430bf08a14610225578063465bcf051461022d578063493a6320146102405780635b50ca69146102535780635bcefb53146102665780635dd995b5146102795780636a58767e1461028c578063746f1b201461029457806378689c64146102a75780637bab635a146102ba5780637c302ae3146102cd5780637cf175fb146102e05780638da5cb5b146102e85780638f6059d6146102f0578063b287b60f146102f8578063c9cd71b51461030b578063ccb55a9814610313578063e2f5fc7814610326578063ec720b9b1461032e578063f072629114610341578063f4cb45e514610349578063f65f14ac1461035c575b600080fd5b61018261036f565b60405161018f9190611700565b60405180910390f35b6101ab6101a63660046117ce565b61042c565b005b6101ab6101bb36600461185e565b6104c7565b6101ab6101ce3660046118e6565b6105ae565b610182610683565b6101ab6101e936600461193e565b6106b4565b6101ab6101fc36600461199f565b6107a0565b6000546001600160a01b0316610182565b6101ab6102203660046119c6565b610883565b610182610964565b6101ab61023b366004611a45565b610993565b6101ab61024e366004611a86565b610a85565b6101ab610261366004611ab6565b610b69565b6101ab610274366004611af5565b610c3c565b6101ab610287366004611ab6565b610d0b565b610182610dec565b6101ab6102a2366004611af5565b610e23565b6101ab6102b5366004611b3b565b610ef2565b6101ab6102c8366004611b77565b610fbf565b6101ab6102db366004611c2d565b6110af565b61018261118c565b6101826111be565b61018261120d565b6101ab610306366004611ab6565b611243565b610182611316565b6101ab61032136600461199f565b611346565b610182611414565b6101ab61033c366004611c2d565b61144c565b61018261151b565b6101ab610357366004611c59565b611551565b6101ab61036a36600461199f565b611628565b600080546040516d22b733b634b9b420bab1ba34b7b760911b60208201526001600160a01b0390911690638eaa6ac090602e015b604051602081830303815290604052805190602001206040518263ffffffff1660e01b81526004016103d791815260200190565b60206040518083038186803b1580156103ef57600080fd5b505afa158015610403573d6000803e3d6000fd5b505050506040513d601f19601f820116820180604052508101906104279190611ccf565b905090565b61043461120d565b6001600160a01b0316336001600160a01b0316146104815760405162461bcd60e51b815260206004820152600560248201526404b443031360dc1b60448201526064015b60405180910390fd5b7f1dc472d582044e22bd24b2685973e92f3fb3f7174252f4bde8ad142ea1e78ec385858585856040516104b8959493929190611d40565b60405180910390a15050505050565b6000546040516351e0e26b60e01b81526001600160a01b03909116906351e0e26b906104f7903390600401611700565b602060405180830381600087803b15801561051157600080fd5b505af1158015610525573d6000803e3d6000fd5b505050506040513d601f19601f820116820180604052508101906105499190611d91565b6105655760405162461bcd60e51b815260040161047890611dae565b7f0bb287542408ded65f2846322c12ffb5e9228e18dc22074445d5e06f4698aeaa86868686868660405161059e96959493929190611dcd565b60405180910390a1505050505050565b6000546040516351e0e26b60e01b81526001600160a01b03909116906351e0e26b906105de903390600401611700565b602060405180830381600087803b1580156105f857600080fd5b505af115801561060c573d6000803e3d6000fd5b505050506040513d601f19601f820116820180604052508101906106309190611d91565b61064c5760405162461bcd60e51b815260040161047890611dae565b7f64f7d04e523947d79f772988c75e01af9141f056747beb2bb66551a94e5f666a85858585856040516104b8959493929190611e17565b600080546040516613dc195b909a5960ca1b60208201526001600160a01b0390911690638eaa6ac0906027016103a3565b60006106be6116f6565b6001600160a01b03166314afd79e336040518263ffffffff1660e01b81526004016106e99190611700565b60206040518083038186803b15801561070157600080fd5b505afa158015610715573d6000803e3d6000fd5b505050506040513d601f19601f820116820180604052508101906107399190611ccf565b6001600160a01b031614156107605760405162461bcd60e51b815260040161047890611e56565b7f20879156e5855128644cb33ccda296b37af9727d80c8cf0e986362b2c01df9e083838360405161079393929190611e75565b60405180910390a1505050565b60006107aa6116f6565b6001600160a01b03166314afd79e336040518263ffffffff1660e01b81526004016107d59190611700565b60206040518083038186803b1580156107ed57600080fd5b505afa158015610801573d6000803e3d6000fd5b505050506040513d601f19601f820116820180604052508101906108259190611ccf565b6001600160a01b0316141561084c5760405162461bcd60e51b815260040161047890611e56565b6040518181527f5b6b431d4476a211bb7d41c20d1aab9ae2321deee0d20be3d9fc9b1093fa6e3d906020015b60405180910390a150565b6000546040516351e0e26b60e01b81526001600160a01b03909116906351e0e26b906108b3903390600401611700565b602060405180830381600087803b1580156108cd57600080fd5b505af11580156108e1573d6000803e3d6000fd5b505050506040513d601f19601f820116820180604052508101906109059190611d91565b6109215760405162461bcd60e51b815260040161047890611dae565b7f917b5da24a273be7df06d4141eb55d5d9cf1a2dae32878cf5693cefbd885a018848484846040516109569493929190611eaa565b60405180910390a150505050565b600080546040516415985d5b1d60da1b60208201526001600160a01b0390911690638eaa6ac0906025016103a3565b600061099d6116f6565b6001600160a01b03166314afd79e336040518263ffffffff1660e01b81526004016109c89190611700565b60206040518083038186803b1580156109e057600080fd5b505afa1580156109f4573d6000803e3d6000fd5b505050506040513d601f19601f82011682018060405250810190610a189190611ccf565b6001600160a01b03161415610a3f5760405162461bcd60e51b815260040161047890611e56565b80826001600160a01b0316846001600160a01b03167f4f21c37c3184c9b0bbc63a812b0a1a148f15f1bd6db127e7e562d9b04368032560405160405180910390a4505050565b6000546040516351e0e26b60e01b81526001600160a01b03909116906351e0e26b90610ab5903390600401611700565b602060405180830381600087803b158015610acf57600080fd5b505af1158015610ae3573d6000803e3d6000fd5b505050506040513d601f19601f82011682018060405250810190610b079190611d91565b610b235760405162461bcd60e51b815260040161047890611dae565b604080518381526001600160a01b03831660208201527f280e02e3ed1af740570b8d08ffed04a58fa870ace01401ffe1078a0351c5670e91015b60405180910390a15050565b6000546040516351e0e26b60e01b81526001600160a01b03909116906351e0e26b90610b99903390600401611700565b602060405180830381600087803b158015610bb357600080fd5b505af1158015610bc7573d6000803e3d6000fd5b505050506040513d601f19601f82011682018060405250810190610beb9190611d91565b610c075760405162461bcd60e51b815260040161047890611dae565b7ff657a33a260f0292d243ac4d7832a2af14d735a16351622191c6cf01af297c4e848484846040516109569493929190611ee9565b6000546040516351e0e26b60e01b81526001600160a01b03909116906351e0e26b90610c6c903390600401611700565b602060405180830381600087803b158015610c8657600080fd5b505af1158015610c9a573d6000803e3d6000fd5b505050506040513d601f19601f82011682018060405250810190610cbe9190611d91565b610cda5760405162461bcd60e51b815260040161047890611dae565b7ffbcaf6dcca8992dde10374342f4a59e51717c327e0a8fcf5b460894126c4ac118282604051610b5d929190611f0d565b6000610d156116f6565b6001600160a01b03166314afd79e336040518263ffffffff1660e01b8152600401610d409190611700565b60206040518083038186803b158015610d5857600080fd5b505afa158015610d6c573d6000803e3d6000fd5b505050506040513d601f19601f82011682018060405250810190610d909190611ccf565b6001600160a01b03161415610db75760405162461bcd60e51b815260040161047890611e56565b7f27f0e57684cd818b3b06246bbc63cf3366959e8e4dcdbd46aa5b2778f25e73b0848484846040516109569493929190611ee9565b600080546040516c4d65646961526567697374727960981b60208201526001600160a01b0390911690638eaa6ac090602d016103a3565b6000546040516351e0e26b60e01b81526001600160a01b03909116906351e0e26b90610e53903390600401611700565b602060405180830381600087803b158015610e6d57600080fd5b505af1158015610e81573d6000803e3d6000fd5b505050506040513d601f19601f82011682018060405250810190610ea59190611d91565b610ec15760405162461bcd60e51b815260040161047890611dae565b7fdd75cdb279dca6fe92df3801d51ed09ad93a4653400c85ead720719cb3b97e648282604051610b5d929190611f0d565b6000546040516351e0e26b60e01b81526001600160a01b03909116906351e0e26b90610f22903390600401611700565b602060405180830381600087803b158015610f3c57600080fd5b505af1158015610f50573d6000803e3d6000fd5b505050506040513d601f19601f82011682018060405250810190610f749190611d91565b610f905760405162461bcd60e51b815260040161047890611dae565b7f8f59e770815c7e70fd6a66c717f1f6c6b2a938c9de6fd82d2c8ac79463771089816040516108789190611f26565b6000546040516351e0e26b60e01b81526001600160a01b03909116906351e0e26b90610fef903390600401611700565b602060405180830381600087803b15801561100957600080fd5b505af115801561101d573d6000803e3d6000fd5b505050506040513d601f19601f820116820180604052508101906110419190611d91565b61105d5760405162461bcd60e51b815260040161047890611dae565b7f113d332939326968b86df824553c250f41867c6f2dd89e7d55a9a76ba5c60ba189898989898989898960405161109c99989796959493929190611f39565b60405180910390a1505050505050505050565b60006110b96116f6565b6001600160a01b03166314afd79e336040518263ffffffff1660e01b81526004016110e49190611700565b60206040518083038186803b1580156110fc57600080fd5b505afa158015611110573d6000803e3d6000fd5b505050506040513d601f19601f820116820180604052508101906111349190611ccf565b6001600160a01b0316141561115b5760405162461bcd60e51b815260040161047890611e56565b7f88a5966d370b9919b20f3e2c13ff65706f196a4e32cc2c12bf57088f885258748282604051610b5d929190611fb8565b600080546040516713d999995c909a5960c21b60208201526001600160a01b0390911690638eaa6ac0906028016103a3565b60008060009054906101000a90046001600160a01b03166001600160a01b031663d5f394886040518163ffffffff1660e01b815260040160206040518083038186803b1580156103ef57600080fd5b600080546040516b4d65646961466163746f727960a01b60208201526001600160a01b0390911690638eaa6ac090602c016103a3565b6000546040516351e0e26b60e01b81526001600160a01b03909116906351e0e26b90611273903390600401611700565b602060405180830381600087803b15801561128d57600080fd5b505af11580156112a1573d6000803e3d6000fd5b505050506040513d601f19601f820116820180604052508101906112c59190611d91565b6112e15760405162461bcd60e51b815260040161047890611dae565b7f312ad1b914a22d11c4cd9fcb4b3d71f98c69f212d74dd14ca390862014a5137c848484846040516109569493929190611ee9565b60008054604051651059141bdbdb60d21b60208201526001600160a01b0390911690638eaa6ac0906026016103a3565b6000546040516351e0e26b60e01b81526001600160a01b03909116906351e0e26b90611376903390600401611700565b602060405180830381600087803b15801561139057600080fd5b505af11580156113a4573d6000803e3d6000fd5b505050506040513d601f19601f820116820180604052508101906113c89190611d91565b6113e45760405162461bcd60e51b815260040161047890611dae565b6040518181527f029e7b2c30a4e7bfc3c0a3bd13106f4137e14326e456603b835cacdda53bca6890602001610878565b600080546040516d50726f706f73616c52657669657760901b60208201526001600160a01b0390911690638eaa6ac090602e016103a3565b6000546040516351e0e26b60e01b81526001600160a01b03909116906351e0e26b9061147c903390600401611700565b602060405180830381600087803b15801561149657600080fd5b505af11580156114aa573d6000803e3d6000fd5b505050506040513d601f19601f820116820180604052508101906114ce9190611d91565b6114ea5760405162461bcd60e51b815260040161047890611dae565b7fade428889ac75005bd70004e1b1e262be6bf4f97bad5827315a7d58261a6dac78282604051610b5d929190611fb8565b600080546040516b22bb32b73a22b6b4ba3a32b960a11b60208201526001600160a01b0390911690638eaa6ac090602c016103a3565b6000546040516351e0e26b60e01b81526001600160a01b03909116906351e0e26b90611581903390600401611700565b602060405180830381600087803b15801561159b57600080fd5b505af11580156115af573d6000803e3d6000fd5b505050506040513d601f19601f820116820180604052508101906115d39190611d91565b6115ef5760405162461bcd60e51b815260040161047890611dae565b7f43b6900a4c2a714e2ba0ef717f474065755f74786ea410c0db6d1cebb33fda4186868686868660405161059e96959493929190611fd1565b6000546040516351e0e26b60e01b81526001600160a01b03909116906351e0e26b90611658903390600401611700565b602060405180830381600087803b15801561167257600080fd5b505af1158015611686573d6000803e3d6000fd5b505050506040513d601f19601f820116820180604052508101906116aa9190611d91565b6116c65760405162461bcd60e51b815260040161047890611dae565b6040518181527f4e455dbee07370885b62f673891219a5fee0380b3da49d8bcae6297dc345cde090602001610878565b6000610427610dec565b6001600160a01b0391909116815260200190565b6001600160a01b038116811461172957600080fd5b50565b634e487b7160e01b600052604160045260246000fd5b600082601f83011261175357600080fd5b81356001600160401b038082111561176d5761176d61172c565b604051601f8301601f19908116603f011681019082821181831017156117955761179561172c565b816040528381528660208588010111156117ae57600080fd5b836020870160208301376000602085830101528094505050505092915050565b600080600080600060a086880312156117e657600080fd5b85356117f181611714565b9450602086013561180181611714565b935060408601356001600160401b038082111561181d57600080fd5b61182989838a01611742565b9450606088013591508082111561183f57600080fd5b5061184c88828901611742565b95989497509295608001359392505050565b60008060008060008060c0878903121561187757600080fd5b8635955060208701356001600160401b038082111561189557600080fd5b6118a18a838b01611742565b965060408901359150808211156118b757600080fd5b506118c489828a01611742565b945050606087013592506080870135915060a087013590509295509295509295565b600080600080600060a086880312156118fe57600080fd5b8535945060208601359350604086013561191781611714565b925060608601356001600160401b0381111561193257600080fd5b61184c88828901611742565b60008060006060848603121561195357600080fd5b833561195e81611714565b9250602084013561196e81611714565b915060408401356001600160401b0381111561198957600080fd5b61199586828701611742565b9150509250925092565b6000602082840312156119b157600080fd5b5035919050565b801515811461172957600080fd5b600080600080608085870312156119dc57600080fd5b8435935060208501356001600160401b03808211156119fa57600080fd5b611a0688838901611742565b94506040870135915080821115611a1c57600080fd5b50611a2987828801611742565b9250506060850135611a3a816119b8565b939692955090935050565b600080600060608486031215611a5a57600080fd5b8335611a6581611714565b92506020840135611a7581611714565b929592945050506040919091013590565b60008060408385031215611a9957600080fd5b823591506020830135611aab81611714565b809150509250929050565b60008060008060808587031215611acc57600080fd5b84359350602085013592506040850135611ae581611714565b9396929550929360600135925050565b60008060408385031215611b0857600080fd5b8235915060208301356001600160401b03811115611b2557600080fd5b611b3185828601611742565b9150509250929050565b600060208284031215611b4d57600080fd5b81356001600160401b03811115611b6357600080fd5b611b6f84828501611742565b949350505050565b60008060008060008060008060006101208a8c031215611b9657600080fd5b8935985060208a01356001600160401b0380821115611bb457600080fd5b611bc08d838e01611742565b995060408c0135915080821115611bd657600080fd5b50611be38c828d01611742565b97505060608a0135955060808a0135945060a08a0135935060c08a0135925060e08a013560058110611c1457600080fd5b809250506101008a013590509295985092959850929598565b60008060408385031215611c4057600080fd5b8235611c4b81611714565b946020939093013593505050565b60008060008060008060c08789031215611c7257600080fd5b8635955060208701356001600160401b03811115611c8f57600080fd5b611c9b89828a01611742565b95505060408701359350606087013592506080870135611cba81611714565b8092505060a087013590509295509295509295565b600060208284031215611ce157600080fd5b8151611cec81611714565b9392505050565b6000815180845260005b81811015611d1957602081850181015186830182015201611cfd565b81811115611d2b576000602083870101525b50601f01601f19169290920160200192915050565b6001600160a01b0386811682528516602082015260a060408201819052600090611d6c90830186611cf3565b8281036060840152611d7e8186611cf3565b9150508260808301529695505050505050565b600060208284031215611da357600080fd5b8151611cec816119b8565b6020808252600590820152644b4430313360d81b604082015260600190565b86815260c060208201526000611de660c0830188611cf3565b8281036040840152611df88188611cf3565b60608401969096525050608081019290925260a0909101529392505050565b85815284602082015260018060a01b038416604082015260a060608201526000611e4460a0830185611cf3565b90508260808301529695505050505050565b6020808252600590820152644b4430313160d81b604082015260600190565b6001600160a01b03848116825283166020820152606060408201819052600090611ea190830184611cf3565b95945050505050565b848152608060208201526000611ec36080830186611cf3565b8281036040840152611ed58186611cf3565b915050821515606083015295945050505050565b93845260208401929092526001600160a01b03166040830152606082015260800190565b828152604060208201526000611b6f6040830184611cf3565b602081526000611cec6020830184611cf3565b60006101208b8352806020840152611f538184018c611cf3565b90508281036040840152611f67818b611cf3565b9150508760608301528660808301528560a08301528460c083015260058410611fa057634e487b7160e01b600052602160045260246000fd5b60e08201939093526101000152979650505050505050565b6001600160a01b03929092168252602082015260400190565b86815260c060208201526000611fea60c0830188611cf3565b60408301969096525060608101939093526001600160a01b0391909116608083015260a0909101529291505056fea264697066735822122051bd14920be5dd2bfe2dc2c2f5455741f8f28111889ccbc1a5e4cee6a7a5d95064736f6c63430008090033",
  "libraries": {
    "Ad": "0x9F397D94EC32D43EeC60dCF9A38a44322D54d42A"
  },
  "devdoc": {
    "author": "Shumpei Koike - <shumpei.koike@bridges.inc>",
    "events": {
      "NewMedia(address,address,string,string,uint256)": {
        "details": "Emitted when a new media is created."
      }
    },
    "kind": "dev",
    "methods": {
      "adPoolAddress()": {
        "details": "Gets the address of AdPool."
      },
      "englishAuctionAddress()": {
        "details": "Gets the address of EnglishAuction."
      },
      "eventEmitterAddress()": {
        "details": "Gets the address of EventEmitter."
      },
      "mediaFactoryAddress()": {
        "details": "Gets the address of MediaFactory."
      },
      "mediaRegistryAddress()": {
        "details": "Gets the address of MediaRegistry."
      },
      "nameRegistryAddress()": {
        "details": "Gets the address of NameRegistry"
      },
      "offerBidAddress()": {
        "details": "Gets the address of OfferBid."
      },
      "openBidAddress()": {
        "details": "Gets the address of OpenBid."
      },
      "owner()": {
        "details": "Gets the owner address."
      },
      "proposalReviewAddress()": {
        "details": "Gets the address of ProposalReview."
      },
      "vaultAddress()": {
        "details": "Gets the address of Vault."
      }
    },
    "title": "EventEmitter - emits events on behalf of each proxy.",
    "version": 1
  },
  "userdoc": {
    "kind": "user",
    "methods": {},
    "version": 1
  },
  "storageLayout": {
    "storage": [
      {
        "astId": 2345,
        "contract": "contracts/peripheries/EventEmitter.sol:EventEmitter",
        "label": "_nameRegistry",
        "offset": 0,
        "slot": "0",
        "type": "t_contract(INameRegistry)4466"
      }
    ],
    "types": {
      "t_contract(INameRegistry)4466": {
        "encoding": "inplace",
        "label": "contract INameRegistry",
        "numberOfBytes": "20"
      }
    }
  }
}