{
  "address": "0x7d29f2254aef4646Fc8c2C17644cC35aE09877F5",
  "abi": [
    {
      "inputs": [
        {
          "internalType": "uint256",
          "name": "postId",
          "type": "uint256"
        },
        {
          "internalType": "string",
          "name": "metadata",
          "type": "string"
        }
      ],
      "name": "computeBidId",
      "outputs": [
        {
          "internalType": "uint256",
          "name": "",
          "type": "uint256"
        }
      ],
      "stateMutability": "pure",
      "type": "function"
    },
    {
      "inputs": [
        {
          "internalType": "string",
          "name": "metadata",
          "type": "string"
        },
        {
          "internalType": "uint256",
          "name": "blockNumber",
          "type": "uint256"
        }
      ],
      "name": "computePostId",
      "outputs": [
        {
          "internalType": "uint256",
          "name": "",
          "type": "uint256"
        }
      ],
      "stateMutability": "pure",
      "type": "function"
    }
  ],
  "transactionHash": "0x79e98eb3f702932aeed70873df62b003c8468fce718c8e5ac4db7d49e05386be",
  "args": [],
  "solcInputHash": "59f6627ae8a4c493d626f4956d650c6f",
  "bytecode": "0x6102af61003a600b82828239805160001a60731461002d57634e487b7160e01b600052600060045260246000fd5b30600052607381538281f3fe73000000000000000000000000000000000000000030146080604052600436106100405760003560e01c80632ef883d514610045578063d2db17f91461006a575b600080fd5b61005861005336600461016e565b61007d565b60405190815260200160405180910390f35b6100586100783660046101b3565b6100c4565b6000662386f26fc10000828460405160200161009a9291906101fa565b6040516020818303038152906040528051906020012060001c6100bd9190610241565b9392505050565b6000662386f26fc10000838360405160200161009a9291906101fa565b600082601f8301126100f257600080fd5b813567ffffffffffffffff8082111561010d5761010d610263565b604051601f8301601f19908116603f0116810190828211818310171561013557610135610263565b8160405283815286602085880101111561014e57600080fd5b836020870160208301376000602085830101528094505050505092915050565b6000806040838503121561018157600080fd5b823567ffffffffffffffff81111561019857600080fd5b6101a4858286016100e1565b95602094909401359450505050565b600080604083850312156101c657600080fd5b82359150602083013567ffffffffffffffff8111156101e457600080fd5b6101f0858286016100e1565b9150509250929050565b8281526000825160005b8181101561022057602081860181015185830182015201610204565b81811115610232576000602083860101525b50919091016020019392505050565b60008261025e57634e487b7160e01b600052601260045260246000fd5b500690565b634e487b7160e01b600052604160045260246000fdfea26469706673582212200958136d845693463ca5438aeb1e8e44d994daf6c5870d5971788cdac2660f9764736f6c63430008060033",
  "devdoc": {
    "kind": "dev",
    "methods": {},
    "version": 1
  },
  "userdoc": {
    "kind": "user",
    "methods": {},
    "version": 1
  },
  "storageLayout": {
    "storage": [],
    "types": null
  }
}