{
  "address": "0xa118E19Ee2673A8803EbBB7b9369dF8c4346ccd6",
  "abi": [
    {
      "inputs": [
        {
          "internalType": "string",
          "name": "metadata",
          "type": "string"
        },
        {
          "internalType": "uint256",
          "name": "fromTimestamp",
          "type": "uint256"
        },
        {
          "internalType": "uint256",
          "name": "toTimestamp",
          "type": "uint256"
        }
      ],
      "name": "computePostId",
      "outputs": [
        {
          "internalType": "uint256",
          "name": "",
          "type": "uint256"
        }
      ],
      "stateMutability": "pure",
      "type": "function"
    }
  ],
  "transactionHash": "0x09b6e096fd5f923b15f34b0b1afc56c1098a693199e943144fff87a8345f796b",
  "args": [],
  "solcInputHash": "8212c2184ff8dd6d9991f02150a121e1",
  "bytecode": "0x61022161003a600b82828239805160001a60731461002d57634e487b7160e01b600052600060045260246000fd5b30600052607381538281f3fe73000000000000000000000000000000000000000030146080604052600436106100355760003560e01c8063fef7c2231461003a575b600080fd5b61004d6100483660046100a9565b61005f565b60405190815260200160405180910390f35b6000662386f26fc1000084848460405160200161007e9392919061016d565b6040516020818303038152906040528051906020012060001c6100a191906101b3565b949350505050565b6000806000606084860312156100be57600080fd5b833567ffffffffffffffff808211156100d657600080fd5b818601915086601f8301126100ea57600080fd5b8135818111156100fc576100fc6101d5565b604051601f8201601f19908116603f01168101908382118183101715610124576101246101d5565b8160405282815289602084870101111561013d57600080fd5b82602086016020830137600060208483010152809750505050505060208401359150604084013590509250925092565b6000845160005b8181101561018e5760208188018101518583015201610174565b8181111561019d576000828501525b5091909101928352506020820152604001919050565b6000826101d057634e487b7160e01b600052601260045260246000fd5b500690565b634e487b7160e01b600052604160045260246000fdfea2646970667358221220ffdaad5b66722d51f0285d080c798f0a1331e0ed25acbcc8b189e6693a83bad864736f6c63430008060033",
  "devdoc": {
    "kind": "dev",
    "methods": {},
    "version": 1
  },
  "userdoc": {
    "kind": "user",
    "methods": {},
    "version": 1
  },
  "storageLayout": {
    "storage": [],
    "types": null
  }
}