{
  "address": "0x2f60B52Fb15F4E80C5872EE9BCDC9FaF96887A1F",
  "abi": [
    {
      "inputs": [
        {
          "internalType": "string",
          "name": "_value",
          "type": "string"
        }
      ],
      "name": "parseInt",
      "outputs": [
        {
          "internalType": "uint256",
          "name": "_ret",
          "type": "uint256"
        }
      ],
      "stateMutability": "pure",
      "type": "function"
    }
  ],
  "transactionHash": "0x85775c9ff6e665d40cfaf313823a80db44f0ddc9a6b12002362cc5c70f4a6a25",
  "args": [],
  "solcInputHash": "6ca65f67efc8f2cae2a93f9d484f35a0",
  "bytecode": "0x61027161003a600b82828239805160001a60731461002d57634e487b7160e01b600052600060045260246000fd5b30600052607381538281f3fe73000000000000000000000000000000000000000030146080604052600436106100355760003560e01c806342346c5e1461003a575b600080fd5b61004d6100483660046100f5565b61005f565b60405190815260200160405180910390f35b600081815b81518110156100d8576000828281518110610081576100816101a6565b016020015160f81c90506030811080159061009d575060398111155b156100c5576100ad6030826101d2565b6100b885600a6101e9565b6100c29190610208565b93505b50806100d081610220565b915050610064565b5050919050565b634e487b7160e01b600052604160045260246000fd5b60006020828403121561010757600080fd5b813567ffffffffffffffff8082111561011f57600080fd5b818401915084601f83011261013357600080fd5b813581811115610145576101456100df565b604051601f8201601f19908116603f0116810190838211818310171561016d5761016d6100df565b8160405282815287602084870101111561018657600080fd5b826020860160208301376000928101602001929092525095945050505050565b634e487b7160e01b600052603260045260246000fd5b634e487b7160e01b600052601160045260246000fd5b6000828210156101e4576101e46101bc565b500390565b6000816000190483118215151615610203576102036101bc565b500290565b6000821982111561021b5761021b6101bc565b500190565b6000600019821415610234576102346101bc565b506001019056fea26469706673582212204fbc345b485cb806b67eb17bc33b354dbbdab57f1cf2a6f79386927e6e809f2164736f6c63430008090033",
  "devdoc": {
    "author": "Shumpei Koike - <shumpei.koike@bridges.inc>",
    "kind": "dev",
    "methods": {},
    "title": "Integers - utilities for Integers.",
    "version": 1
  },
  "userdoc": {
    "kind": "user",
    "methods": {},
    "version": 1
  },
  "storageLayout": {
    "storage": [],
    "types": null
  }
}