{
  "address": "0xD9a7D57440C7A150d68e132D0E03A438D88CF05E",
  "abi": [
    {
      "inputs": [
        {
          "internalType": "address",
          "name": "_nameRegistry",
          "type": "address"
        }
      ],
      "stateMutability": "nonpayable",
      "type": "constructor"
    },
    {
      "inputs": [],
      "name": "adPoolAddress",
      "outputs": [
        {
          "internalType": "address",
          "name": "",
          "type": "address"
        }
      ],
      "stateMutability": "view",
      "type": "function"
    },
    {
      "inputs": [
        {
          "internalType": "address",
          "name": "proxy",
          "type": "address"
        },
        {
          "internalType": "string",
          "name": "metadata",
          "type": "string"
        },
        {
          "internalType": "address",
          "name": "mediaEOA",
          "type": "address"
        }
      ],
      "name": "addMedia",
      "outputs": [],
      "stateMutability": "nonpayable",
      "type": "function"
    },
    {
      "inputs": [
        {
          "internalType": "address",
          "name": "",
          "type": "address"
        }
      ],
      "name": "allAccounts",
      "outputs": [
        {
          "internalType": "address",
          "name": "proxy",
          "type": "address"
        },
        {
          "internalType": "address",
          "name": "mediaEOA",
          "type": "address"
        },
        {
          "internalType": "string",
          "name": "metadata",
          "type": "string"
        }
      ],
      "stateMutability": "view",
      "type": "function"
    },
    {
      "inputs": [
        {
          "internalType": "address",
          "name": "proxy",
          "type": "address"
        }
      ],
      "name": "created",
      "outputs": [
        {
          "internalType": "bool",
          "name": "",
          "type": "bool"
        }
      ],
      "stateMutability": "view",
      "type": "function"
    },
    {
      "inputs": [],
      "name": "eventEmitterAddress",
      "outputs": [
        {
          "internalType": "address",
          "name": "",
          "type": "address"
        }
      ],
      "stateMutability": "view",
      "type": "function"
    },
    {
      "inputs": [],
      "name": "mediaFactoryAddress",
      "outputs": [
        {
          "internalType": "address",
          "name": "",
          "type": "address"
        }
      ],
      "stateMutability": "view",
      "type": "function"
    },
    {
      "inputs": [],
      "name": "mediaRegistryAddress",
      "outputs": [
        {
          "internalType": "address",
          "name": "",
          "type": "address"
        }
      ],
      "stateMutability": "view",
      "type": "function"
    },
    {
      "inputs": [],
      "name": "nameRegistryAddress",
      "outputs": [
        {
          "internalType": "address",
          "name": "",
          "type": "address"
        }
      ],
      "stateMutability": "view",
      "type": "function"
    },
    {
      "inputs": [],
      "name": "owner",
      "outputs": [
        {
          "internalType": "address",
          "name": "",
          "type": "address"
        }
      ],
      "stateMutability": "view",
      "type": "function"
    },
    {
      "inputs": [
        {
          "internalType": "address",
          "name": "proxy",
          "type": "address"
        }
      ],
      "name": "ownerOf",
      "outputs": [
        {
          "internalType": "address",
          "name": "",
          "type": "address"
        }
      ],
      "stateMutability": "view",
      "type": "function"
    },
    {
      "inputs": [
        {
          "internalType": "address",
          "name": "mediaEOA",
          "type": "address"
        },
        {
          "internalType": "string",
          "name": "metadata",
          "type": "string"
        }
      ],
      "name": "updateMedia",
      "outputs": [],
      "stateMutability": "nonpayable",
      "type": "function"
    },
    {
      "inputs": [],
      "name": "vaultAddress",
      "outputs": [
        {
          "internalType": "address",
          "name": "",
          "type": "address"
        }
      ],
      "stateMutability": "view",
      "type": "function"
    }
  ],
  "transactionHash": "0x4951164508a4cf9b68698a9b7727227215d247c14388bb49d1e137e075599ab7",
  "args": [
    "0x33fcAc07a82E3D5297B799bB31110C8c4982860b"
  ],
  "solcInputHash": "d0e76e3fd00ba9904ab4c8e105cc42ab",
  "bytecode": "0x608060405234801561001057600080fd5b50604051610a91380380610a9183398101604081905261002f91610050565b600080546001600160a01b0319166001600160a01b03831617905550610080565b60006020828403121561006257600080fd5b81516001600160a01b038116811461007957600080fd5b9392505050565b610a028061008f6000396000f3fe608060405234801561001057600080fd5b50600436106100d45760003560e01c80638da5cb5b11610081578063c9cd71b51161005b578063c9cd71b5146101a5578063d42efd83146101ad578063f0726291146101eb57600080fd5b80638da5cb5b146101825780638f6059d61461018a578063c17567871461019257600080fd5b806327b7a2f5116100b257806327b7a2f514610161578063430bf08a146101725780636a58767e1461017a57600080fd5b80630df8e9fe146100d957806314afd79e14610104578063179bcff71461014c575b600080fd5b6100ec6100e7366004610787565b6101f3565b6040516100fb939291906107ab565b60405180910390f35b610134610112366004610787565b6001600160a01b03908116600090815260016020819052604090912001541690565b6040516001600160a01b0390911681526020016100fb565b61015f61015a3660046108c0565b6102ad565b005b6000546001600160a01b0316610134565b6101346103a8565b610134610474565b6101346104bb565b61013461050a565b61015f6101a0366004610910565b610551565b610134610648565b6101db6101bb366004610787565b6001600160a01b0390811660009081526001602052604090205416151590565b60405190151581526020016100fb565b61013461068f565b60016020819052600091825260409091208054918101546002820180546001600160a01b0394851694909216929161022a90610974565b80601f016020809104026020016040519081016040528092919081815260200182805461025690610974565b80156102a35780601f10610278576101008083540402835291602001916102a3565b820191906000526020600020905b81548152906001019060200180831161028657829003601f168201915b5050505050905083565b33600090815260016020819052604090912001546001600160a01b031661031b5760405162461bcd60e51b815260206004820152600560248201527f4b4430313100000000000000000000000000000000000000000000000000000060448201526064015b60405180910390fd5b60408051606081018252338082526001600160a01b03858116602080850191825284860187815260009485526001808352969094208551815490851673ffffffffffffffffffffffffffffffffffffffff199182161782559251968101805497909416969092169590951790915590518051929391926103a192600285019201906106d6565b5050505050565b600080546040517f5661756c7400000000000000000000000000000000000000000000000000000060208201526001600160a01b0390911690638eaa6ac0906025015b604051602081830303815290604052805190602001206040518263ffffffff1660e01b815260040161041f91815260200190565b60206040518083038186803b15801561043757600080fd5b505afa15801561044b573d6000803e3d6000fd5b505050506040513d601f19601f8201168201806040525081019061046f91906109af565b905090565b600080546040517f4d6564696152656769737472790000000000000000000000000000000000000060208201526001600160a01b0390911690638eaa6ac090602d016103eb565b60008060009054906101000a90046001600160a01b03166001600160a01b0316638da5cb5b6040518163ffffffff1660e01b815260040160206040518083038186803b15801561043757600080fd5b600080546040517f4d65646961466163746f7279000000000000000000000000000000000000000060208201526001600160a01b0390911690638eaa6ac090602c016103eb565b61055961050a565b6001600160a01b0316336001600160a01b0316146105b95760405162461bcd60e51b815260206004820152600560248201527f4b443031300000000000000000000000000000000000000000000000000000006044820152606401610312565b604080516060810182526001600160a01b03808616808352848216602080850191825284860188815260009384526001808352969093208551815490861673ffffffffffffffffffffffffffffffffffffffff19918216178255925196810180549790951696909216959095179092555180519293919261064092600285019201906106d6565b505050505050565b600080546040517f4164506f6f6c000000000000000000000000000000000000000000000000000060208201526001600160a01b0390911690638eaa6ac0906026016103eb565b600080546040517f4576656e74456d6974746572000000000000000000000000000000000000000060208201526001600160a01b0390911690638eaa6ac090602c016103eb565b8280546106e290610974565b90600052602060002090601f016020900481019282610704576000855561074a565b82601f1061071d57805160ff191683800117855561074a565b8280016001018555821561074a579182015b8281111561074a57825182559160200191906001019061072f565b5061075692915061075a565b5090565b5b80821115610756576000815560010161075b565b6001600160a01b038116811461078457600080fd5b50565b60006020828403121561079957600080fd5b81356107a48161076f565b9392505050565b60006001600160a01b038086168352602081861681850152606060408501528451915081606085015260005b828110156107f3578581018201518582016080015281016107d7565b82811115610805576000608084870101525b5050601f01601f191691909101608001949350505050565b634e487b7160e01b600052604160045260246000fd5b600082601f83011261084457600080fd5b813567ffffffffffffffff8082111561085f5761085f61081d565b604051601f8301601f19908116603f011681019082821181831017156108875761088761081d565b816040528381528660208588010111156108a057600080fd5b836020870160208301376000602085830101528094505050505092915050565b600080604083850312156108d357600080fd5b82356108de8161076f565b9150602083013567ffffffffffffffff8111156108fa57600080fd5b61090685828601610833565b9150509250929050565b60008060006060848603121561092557600080fd5b83356109308161076f565b9250602084013567ffffffffffffffff81111561094c57600080fd5b61095886828701610833565b92505060408401356109698161076f565b809150509250925092565b600181811c9082168061098857607f821691505b602082108114156109a957634e487b7160e01b600052602260045260246000fd5b50919050565b6000602082840312156109c157600080fd5b81516107a48161076f56fea2646970667358221220656faf153cbaedac773ed02a702388d8227fed1ce6f845dcd138d8f24bebbec464736f6c63430008090033",
  "devdoc": {
    "author": "Shumpei Koike - <shumpei.koike@bridges.inc>",
    "kind": "dev",
    "methods": {
      "adPoolAddress()": {
        "details": "Gets the address of AdPool."
      },
      "addMedia(address,string,address)": {
        "details": "Adds media account.",
        "params": {
          "mediaEOA": "address of the media account",
          "metadata": "string of the account metadata",
          "proxy": "address of the proxy contract"
        }
      },
      "constructor": {
        "details": "_nameRegistry address of the NameRegistry"
      },
      "created(address)": {
        "details": "Returns whether the account has created or not.",
        "params": {
          "proxy": "address of the proxy contract that represents an account."
        }
      },
      "eventEmitterAddress()": {
        "details": "Gets the address of EventEmitter."
      },
      "mediaFactoryAddress()": {
        "details": "Gets the address of MediaFactory."
      },
      "mediaRegistryAddress()": {
        "details": "Gets the address of MediaRegistry."
      },
      "nameRegistryAddress()": {
        "details": "Gets the address of NameRegistry"
      },
      "owner()": {
        "details": "Gets the owner address."
      },
      "ownerOf(address)": {
        "details": "Returns the owner of the account.",
        "params": {
          "proxy": "address of the proxy contract that represents an account."
        }
      },
      "updateMedia(address,string)": {
        "details": "Updates media account.",
        "params": {
          "mediaEOA": "address of the media account",
          "metadata": "string of the account metadata"
        }
      },
      "vaultAddress()": {
        "details": "Gets the address of Vault."
      }
    },
    "title": "MediaRegistry - registers a list of media accounts.",
    "version": 1
  },
  "userdoc": {
    "kind": "user",
    "methods": {
      "constructor": {
        "notice": "Constructor"
      }
    },
    "version": 1
  },
  "storageLayout": {
    "storage": [
      {
        "astId": 1638,
        "contract": "contracts/peripheries/MediaRegistry.sol:MediaRegistry",
        "label": "_nameRegistry",
        "offset": 0,
        "slot": "0",
        "type": "t_contract(NameRegistry)1867"
      },
      {
        "astId": 4892,
        "contract": "contracts/peripheries/MediaRegistry.sol:MediaRegistry",
        "label": "allAccounts",
        "offset": 0,
        "slot": "1",
        "type": "t_mapping(t_address,t_struct(Account)4887_storage)"
      }
    ],
    "types": {
      "t_address": {
        "encoding": "inplace",
        "label": "address",
        "numberOfBytes": "20"
      },
      "t_contract(NameRegistry)1867": {
        "encoding": "inplace",
        "label": "contract NameRegistry",
        "numberOfBytes": "20"
      },
      "t_mapping(t_address,t_struct(Account)4887_storage)": {
        "encoding": "mapping",
        "key": "t_address",
        "label": "mapping(address => struct MediaRegistry.Account)",
        "numberOfBytes": "32",
        "value": "t_struct(Account)4887_storage"
      },
      "t_string_storage": {
        "encoding": "bytes",
        "label": "string",
        "numberOfBytes": "32"
      },
      "t_struct(Account)4887_storage": {
        "encoding": "inplace",
        "label": "struct MediaRegistry.Account",
        "members": [
          {
            "astId": 4882,
            "contract": "contracts/peripheries/MediaRegistry.sol:MediaRegistry",
            "label": "proxy",
            "offset": 0,
            "slot": "0",
            "type": "t_address"
          },
          {
            "astId": 4884,
            "contract": "contracts/peripheries/MediaRegistry.sol:MediaRegistry",
            "label": "mediaEOA",
            "offset": 0,
            "slot": "1",
            "type": "t_address"
          },
          {
            "astId": 4886,
            "contract": "contracts/peripheries/MediaRegistry.sol:MediaRegistry",
            "label": "metadata",
            "offset": 0,
            "slot": "2",
            "type": "t_string_storage"
          }
        ],
        "numberOfBytes": "96"
      }
    }
  }
}