{
  "address": "0x3FD4773b60a4dff13ffadca8d01Ee37F1a00f3F9",
  "abi": [
    {
      "inputs": [
        {
          "internalType": "address",
          "name": "_nameRegistry",
          "type": "address"
        }
      ],
      "stateMutability": "nonpayable",
      "type": "constructor"
    },
    {
      "inputs": [],
      "name": "adPoolAddress",
      "outputs": [
        {
          "internalType": "address",
          "name": "",
          "type": "address"
        }
      ],
      "stateMutability": "view",
      "type": "function"
    },
    {
      "inputs": [
        {
          "internalType": "address",
          "name": "proxy",
          "type": "address"
        },
        {
          "internalType": "string",
          "name": "applicationMetadata",
          "type": "string"
        },
        {
          "internalType": "string",
          "name": "updatableMetadata",
          "type": "string"
        },
        {
          "internalType": "address",
          "name": "mediaEOA",
          "type": "address"
        }
      ],
      "name": "addMedia",
      "outputs": [],
      "stateMutability": "nonpayable",
      "type": "function"
    },
    {
      "inputs": [
        {
          "internalType": "address",
          "name": "",
          "type": "address"
        }
      ],
      "name": "allAccounts",
      "outputs": [
        {
          "internalType": "address",
          "name": "proxy",
          "type": "address"
        },
        {
          "internalType": "address",
          "name": "mediaEOA",
          "type": "address"
        },
        {
          "internalType": "string",
          "name": "applicationMetadata",
          "type": "string"
        },
        {
          "internalType": "string",
          "name": "updatableMetadata",
          "type": "string"
        }
      ],
      "stateMutability": "view",
      "type": "function"
    },
    {
      "inputs": [
        {
          "internalType": "address",
          "name": "proxy",
          "type": "address"
        }
      ],
      "name": "created",
      "outputs": [
        {
          "internalType": "bool",
          "name": "",
          "type": "bool"
        }
      ],
      "stateMutability": "view",
      "type": "function"
    },
    {
      "inputs": [],
      "name": "englishAuctionAddress",
      "outputs": [
        {
          "internalType": "address",
          "name": "",
          "type": "address"
        }
      ],
      "stateMutability": "view",
      "type": "function"
    },
    {
      "inputs": [],
      "name": "eventEmitterAddress",
      "outputs": [
        {
          "internalType": "address",
          "name": "",
          "type": "address"
        }
      ],
      "stateMutability": "view",
      "type": "function"
    },
    {
      "inputs": [],
      "name": "mediaFactoryAddress",
      "outputs": [
        {
          "internalType": "address",
          "name": "",
          "type": "address"
        }
      ],
      "stateMutability": "view",
      "type": "function"
    },
    {
      "inputs": [],
      "name": "mediaRegistryAddress",
      "outputs": [
        {
          "internalType": "address",
          "name": "",
          "type": "address"
        }
      ],
      "stateMutability": "view",
      "type": "function"
    },
    {
      "inputs": [],
      "name": "nameRegistryAddress",
      "outputs": [
        {
          "internalType": "address",
          "name": "",
          "type": "address"
        }
      ],
      "stateMutability": "view",
      "type": "function"
    },
    {
      "inputs": [],
      "name": "offerBidAddress",
      "outputs": [
        {
          "internalType": "address",
          "name": "",
          "type": "address"
        }
      ],
      "stateMutability": "view",
      "type": "function"
    },
    {
      "inputs": [],
      "name": "openBidAddress",
      "outputs": [
        {
          "internalType": "address",
          "name": "",
          "type": "address"
        }
      ],
      "stateMutability": "view",
      "type": "function"
    },
    {
      "inputs": [],
      "name": "owner",
      "outputs": [
        {
          "internalType": "address",
          "name": "",
          "type": "address"
        }
      ],
      "stateMutability": "view",
      "type": "function"
    },
    {
      "inputs": [
        {
          "internalType": "address",
          "name": "proxy",
          "type": "address"
        }
      ],
      "name": "ownerOf",
      "outputs": [
        {
          "internalType": "address",
          "name": "",
          "type": "address"
        }
      ],
      "stateMutability": "view",
      "type": "function"
    },
    {
      "inputs": [],
      "name": "proposalReviewAddress",
      "outputs": [
        {
          "internalType": "address",
          "name": "",
          "type": "address"
        }
      ],
      "stateMutability": "view",
      "type": "function"
    },
    {
      "inputs": [
        {
          "internalType": "address",
          "name": "proxy",
          "type": "address"
        },
        {
          "internalType": "string",
          "name": "metadata",
          "type": "string"
        }
      ],
      "name": "updateApplicationMetadata",
      "outputs": [],
      "stateMutability": "nonpayable",
      "type": "function"
    },
    {
      "inputs": [
        {
          "internalType": "address",
          "name": "mediaEOA",
          "type": "address"
        },
        {
          "internalType": "string",
          "name": "metadata",
          "type": "string"
        }
      ],
      "name": "updateMedia",
      "outputs": [],
      "stateMutability": "nonpayable",
      "type": "function"
    },
    {
      "inputs": [],
      "name": "vaultAddress",
      "outputs": [
        {
          "internalType": "address",
          "name": "",
          "type": "address"
        }
      ],
      "stateMutability": "view",
      "type": "function"
    }
  ],
  "transactionHash": "0x57da81233eb47b71698e5490e1906add3fbe17f1fd32df8bbde0757be3a53035",
  "args": [
    "0x173E3862BaE7bD155a7a371Ee3b855de01aa63dd"
  ],
  "solcInputHash": "289fa2710193a113c0b3ec7823c19cab",
  "bytecode": "0x608060405234801561001057600080fd5b50604051610c23380380610c2383398101604081905261002f91610050565b600080546001600160a01b0319166001600160a01b03831617905550610080565b60006020828403121561006257600080fd5b81516001600160a01b038116811461007957600080fd5b9392505050565b610b948061008f6000396000f3fe608060405234801561001057600080fd5b50600436106100db5760003560e01c80630106d8eb146100e05780630df8e9fe1461010557806314afd79e14610128578063179bcff71461013b5780632231c1eb1461015057806327b7a2f514610158578063430bf08a146101695780636a58767e146101715780637cf175fb146101795780638da5cb5b146101815780638f6059d614610189578063a029900814610191578063a8774e17146101a4578063c9cd71b5146101b7578063d42efd83146101bf578063e2f5fc78146101fd578063f072629114610205575b600080fd5b6100e861020d565b6040516001600160a01b0390911681526020015b60405180910390f35b6101186101133660046108d3565b6102ca565b6040516100fc9493929190610944565b6100e86101363660046108d3565b610412565b61014e610149366004610a2f565b610434565b005b6100e86104ca565b6000546001600160a01b03166100e8565b6100e86104fb565b6100e861052a565b6100e8610561565b6100e8610593565b6100e86105e2565b61014e61019f366004610a7e565b610618565b61014e6101b2366004610a2f565b61070e565b6100e8610784565b6101ed6101cd3660046108d3565b6001600160a01b0390811660009081526001602052604090205416151590565b60405190151581526020016100fc565b6100e86107b4565b6100e86107ec565b600080546040516d22b733b634b9b420bab1ba34b7b760911b60208201526001600160a01b0390911690638eaa6ac090602e015b604051602081830303815290604052805190602001206040518263ffffffff1660e01b815260040161027591815260200190565b60206040518083038186803b15801561028d57600080fd5b505afa1580156102a1573d6000803e3d6000fd5b505050506040513d601f19601f820116820180604052508101906102c59190610b06565b905090565b60016020819052600091825260409091208054918101546002820180546001600160a01b0394851694909216929161030190610b23565b80601f016020809104026020016040519081016040528092919081815260200182805461032d90610b23565b801561037a5780601f1061034f5761010080835404028352916020019161037a565b820191906000526020600020905b81548152906001019060200180831161035d57829003601f168201915b50505050509080600301805461038f90610b23565b80601f01602080910402602001604051908101604052809291908181526020018280546103bb90610b23565b80156104085780601f106103dd57610100808354040283529160200191610408565b820191906000526020600020905b8154815290600101906020018083116103eb57829003601f168201915b5050505050905084565b6001600160a01b03908116600090815260016020819052604090912001541690565b600061043f33610412565b6001600160a01b031614156104835760405162461bcd60e51b81526020600482015260056024820152644b4430313160d81b60448201526064015b60405180910390fd5b33600090815260016020818152604090922090810180546001600160a01b0319166001600160a01b03861617905582516104c592600390920191840190610822565b505050565b600080546040516613dc195b909a5960ca1b60208201526001600160a01b0390911690638eaa6ac090602701610241565b600080546040516415985d5b1d60da1b60208201526001600160a01b0390911690638eaa6ac090602501610241565b600080546040516c4d65646961526567697374727960981b60208201526001600160a01b0390911690638eaa6ac090602d01610241565b600080546040516713d999995c909a5960c21b60208201526001600160a01b0390911690638eaa6ac090602801610241565b60008060009054906101000a90046001600160a01b03166001600160a01b031663d5f394886040518163ffffffff1660e01b815260040160206040518083038186803b15801561028d57600080fd5b600080546040516b4d65646961466163746f727960a01b60208201526001600160a01b0390911690638eaa6ac090602c01610241565b6106206105e2565b6001600160a01b0316336001600160a01b0316146106685760405162461bcd60e51b815260206004820152600560248201526404b443031360dc1b604482015260640161047a565b604080516080810182526001600160a01b038087168083528482166020808501918252848601898152606086018990526000938452600180835296909320855181549086166001600160a01b031991821617825592519681018054979095169690921695909517909255518051929391926106e99260028501920190610822565b5060608201518051610705916003840191602090910190610822565b50505050505050565b33610717610593565b6001600160a01b0316146107555760405162461bcd60e51b815260206004820152600560248201526425a218189960d91b604482015260640161047a565b6001600160a01b038216600090815260016020908152604090912082516104c592600290920191840190610822565b60008054604051651059141bdbdb60d21b60208201526001600160a01b0390911690638eaa6ac090602601610241565b600080546040516d50726f706f73616c52657669657760901b60208201526001600160a01b0390911690638eaa6ac090602e01610241565b600080546040516b22bb32b73a22b6b4ba3a32b960a11b60208201526001600160a01b0390911690638eaa6ac090602c01610241565b82805461082e90610b23565b90600052602060002090601f0160209004810192826108505760008555610896565b82601f1061086957805160ff1916838001178555610896565b82800160010185558215610896579182015b8281111561089657825182559160200191906001019061087b565b506108a29291506108a6565b5090565b5b808211156108a257600081556001016108a7565b6001600160a01b03811681146108d057600080fd5b50565b6000602082840312156108e557600080fd5b81356108f0816108bb565b9392505050565b6000815180845260005b8181101561091d57602081850181015186830182015201610901565b8181111561092f576000602083870101525b50601f01601f19169290920160200192915050565b6001600160a01b03858116825284166020820152608060408201819052600090610970908301856108f7565b828103606084015261098281856108f7565b979650505050505050565b634e487b7160e01b600052604160045260246000fd5b600082601f8301126109b457600080fd5b81356001600160401b03808211156109ce576109ce61098d565b604051601f8301601f19908116603f011681019082821181831017156109f6576109f661098d565b81604052838152866020858801011115610a0f57600080fd5b836020870160208301376000602085830101528094505050505092915050565b60008060408385031215610a4257600080fd5b8235610a4d816108bb565b915060208301356001600160401b03811115610a6857600080fd5b610a74858286016109a3565b9150509250929050565b60008060008060808587031215610a9457600080fd5b8435610a9f816108bb565b935060208501356001600160401b0380821115610abb57600080fd5b610ac7888389016109a3565b94506040870135915080821115610add57600080fd5b50610aea878288016109a3565b9250506060850135610afb816108bb565b939692955090935050565b600060208284031215610b1857600080fd5b81516108f0816108bb565b600181811c90821680610b3757607f821691505b60208210811415610b5857634e487b7160e01b600052602260045260246000fd5b5091905056fea26469706673582212204d717bad445be61480728a1178f50c7d4ce0e45c80443d11ffce7644fc77e40264736f6c63430008090033",
  "devdoc": {
    "author": "Shumpei Koike - <shumpei.koike@bridges.inc>",
    "kind": "dev",
    "methods": {
      "adPoolAddress()": {
        "details": "Gets the address of AdPool."
      },
      "addMedia(address,string,string,address)": {
        "details": "Adds media account.",
        "params": {
          "applicationMetadata": "string of constant metadata for the defailts of the account",
          "mediaEOA": "address of the media account",
          "proxy": "address of the proxy contract",
          "updatableMetadata": "string of constant metadata for the defailts of the account"
        }
      },
      "constructor": {
        "details": "_nameRegistry address of the NameRegistry"
      },
      "created(address)": {
        "details": "Returns whether the account has created or not.",
        "params": {
          "proxy": "address of the proxy contract that represents an account."
        }
      },
      "englishAuctionAddress()": {
        "details": "Gets the address of EnglishAuction."
      },
      "eventEmitterAddress()": {
        "details": "Gets the address of EventEmitter."
      },
      "mediaFactoryAddress()": {
        "details": "Gets the address of MediaFactory."
      },
      "mediaRegistryAddress()": {
        "details": "Gets the address of MediaRegistry."
      },
      "nameRegistryAddress()": {
        "details": "Gets the address of NameRegistry"
      },
      "offerBidAddress()": {
        "details": "Gets the address of OfferBid."
      },
      "openBidAddress()": {
        "details": "Gets the address of OpenBid."
      },
      "owner()": {
        "details": "Gets the owner address."
      },
      "ownerOf(address)": {
        "details": "Returns the owner of the account.",
        "params": {
          "proxy": "address of the proxy contract that represents an account."
        }
      },
      "proposalReviewAddress()": {
        "details": "Gets the address of ProposalReview."
      },
      "updateMedia(address,string)": {
        "details": "Updates media account.",
        "params": {
          "mediaEOA": "address of the media account",
          "metadata": "string of the account metadata"
        }
      },
      "vaultAddress()": {
        "details": "Gets the address of Vault."
      }
    },
    "title": "MediaRegistry - registers a list of media accounts.",
    "version": 1
  },
  "userdoc": {
    "kind": "user",
    "methods": {
      "constructor": {
        "notice": "Constructor"
      }
    },
    "version": 1
  },
  "storageLayout": {
    "storage": [
      {
        "astId": 2345,
        "contract": "contracts/peripheries/MediaRegistry.sol:MediaRegistry",
        "label": "_nameRegistry",
        "offset": 0,
        "slot": "0",
        "type": "t_contract(INameRegistry)4466"
      },
      {
        "astId": 6837,
        "contract": "contracts/peripheries/MediaRegistry.sol:MediaRegistry",
        "label": "allAccounts",
        "offset": 0,
        "slot": "1",
        "type": "t_mapping(t_address,t_struct(Account)4375_storage)"
      }
    ],
    "types": {
      "t_address": {
        "encoding": "inplace",
        "label": "address",
        "numberOfBytes": "20"
      },
      "t_contract(INameRegistry)4466": {
        "encoding": "inplace",
        "label": "contract INameRegistry",
        "numberOfBytes": "20"
      },
      "t_mapping(t_address,t_struct(Account)4375_storage)": {
        "encoding": "mapping",
        "key": "t_address",
        "label": "mapping(address => struct IMediaRegistry.Account)",
        "numberOfBytes": "32",
        "value": "t_struct(Account)4375_storage"
      },
      "t_string_storage": {
        "encoding": "bytes",
        "label": "string",
        "numberOfBytes": "32"
      },
      "t_struct(Account)4375_storage": {
        "encoding": "inplace",
        "label": "struct IMediaRegistry.Account",
        "members": [
          {
            "astId": 4368,
            "contract": "contracts/peripheries/MediaRegistry.sol:MediaRegistry",
            "label": "proxy",
            "offset": 0,
            "slot": "0",
            "type": "t_address"
          },
          {
            "astId": 4370,
            "contract": "contracts/peripheries/MediaRegistry.sol:MediaRegistry",
            "label": "mediaEOA",
            "offset": 0,
            "slot": "1",
            "type": "t_address"
          },
          {
            "astId": 4372,
            "contract": "contracts/peripheries/MediaRegistry.sol:MediaRegistry",
            "label": "applicationMetadata",
            "offset": 0,
            "slot": "2",
            "type": "t_string_storage"
          },
          {
            "astId": 4374,
            "contract": "contracts/peripheries/MediaRegistry.sol:MediaRegistry",
            "label": "updatableMetadata",
            "offset": 0,
            "slot": "3",
            "type": "t_string_storage"
          }
        ],
        "numberOfBytes": "128"
      }
    }
  }
}