{
  "address": "0xB1bC72fa9C67683A6efa6b0E686a307AfDe95c6C",
  "abi": [
    {
      "inputs": [
        {
          "internalType": "address",
          "name": "_nameRegistry",
          "type": "address"
        }
      ],
      "stateMutability": "nonpayable",
      "type": "constructor"
    },
    {
      "inputs": [],
      "name": "adPoolAddress",
      "outputs": [
        {
          "internalType": "address",
          "name": "",
          "type": "address"
        }
      ],
      "stateMutability": "view",
      "type": "function"
    },
    {
      "inputs": [
        {
          "internalType": "address",
          "name": "proxy",
          "type": "address"
        },
        {
          "internalType": "string",
          "name": "constantMetadata",
          "type": "string"
        },
        {
          "internalType": "string",
          "name": "updatableMetadata",
          "type": "string"
        },
        {
          "internalType": "address",
          "name": "mediaEOA",
          "type": "address"
        }
      ],
      "name": "addMedia",
      "outputs": [],
      "stateMutability": "nonpayable",
      "type": "function"
    },
    {
      "inputs": [
        {
          "internalType": "address",
          "name": "",
          "type": "address"
        }
      ],
      "name": "allAccounts",
      "outputs": [
        {
          "internalType": "address",
          "name": "proxy",
          "type": "address"
        },
        {
          "internalType": "address",
          "name": "mediaEOA",
          "type": "address"
        },
        {
          "internalType": "string",
          "name": "constantMetadata",
          "type": "string"
        },
        {
          "internalType": "string",
          "name": "updatableMetadata",
          "type": "string"
        }
      ],
      "stateMutability": "view",
      "type": "function"
    },
    {
      "inputs": [
        {
          "internalType": "address",
          "name": "proxy",
          "type": "address"
        }
      ],
      "name": "created",
      "outputs": [
        {
          "internalType": "bool",
          "name": "",
          "type": "bool"
        }
      ],
      "stateMutability": "view",
      "type": "function"
    },
    {
      "inputs": [],
      "name": "eventEmitterAddress",
      "outputs": [
        {
          "internalType": "address",
          "name": "",
          "type": "address"
        }
      ],
      "stateMutability": "view",
      "type": "function"
    },
    {
      "inputs": [],
      "name": "mediaFactoryAddress",
      "outputs": [
        {
          "internalType": "address",
          "name": "",
          "type": "address"
        }
      ],
      "stateMutability": "view",
      "type": "function"
    },
    {
      "inputs": [],
      "name": "mediaRegistryAddress",
      "outputs": [
        {
          "internalType": "address",
          "name": "",
          "type": "address"
        }
      ],
      "stateMutability": "view",
      "type": "function"
    },
    {
      "inputs": [],
      "name": "nameRegistryAddress",
      "outputs": [
        {
          "internalType": "address",
          "name": "",
          "type": "address"
        }
      ],
      "stateMutability": "view",
      "type": "function"
    },
    {
      "inputs": [],
      "name": "owner",
      "outputs": [
        {
          "internalType": "address",
          "name": "",
          "type": "address"
        }
      ],
      "stateMutability": "view",
      "type": "function"
    },
    {
      "inputs": [
        {
          "internalType": "address",
          "name": "proxy",
          "type": "address"
        }
      ],
      "name": "ownerOf",
      "outputs": [
        {
          "internalType": "address",
          "name": "",
          "type": "address"
        }
      ],
      "stateMutability": "view",
      "type": "function"
    },
    {
      "inputs": [
        {
          "internalType": "address",
          "name": "mediaEOA",
          "type": "address"
        },
        {
          "internalType": "string",
          "name": "metadata",
          "type": "string"
        }
      ],
      "name": "updateMedia",
      "outputs": [],
      "stateMutability": "nonpayable",
      "type": "function"
    },
    {
      "inputs": [],
      "name": "vaultAddress",
      "outputs": [
        {
          "internalType": "address",
          "name": "",
          "type": "address"
        }
      ],
      "stateMutability": "view",
      "type": "function"
    }
  ],
  "transactionHash": "0x315536181ab49ff21f72b00d438cac2bc0eb960937985dc7d7b3a0c5bc843b84",
  "args": [
    "0x409A944c3f7C8F83e333e714278509F5B02E1f2c"
  ],
  "solcInputHash": "6ca65f67efc8f2cae2a93f9d484f35a0",
  "bytecode": "0x608060405234801561001057600080fd5b50604051610a89380380610a8983398101604081905261002f91610050565b600080546001600160a01b0319166001600160a01b03831617905550610080565b60006020828403121561006257600080fd5b81516001600160a01b038116811461007957600080fd5b9392505050565b6109fa8061008f6000396000f3fe608060405234801561001057600080fd5b50600436106100b45760003560e01c80638da5cb5b116100715780638da5cb5b146101635780638f6059d61461016b578063a029900814610173578063c9cd71b514610186578063d42efd831461018e578063f0726291146101cc57600080fd5b80630df8e9fe146100b957806314afd79e146100e5578063179bcff71461012d57806327b7a2f514610142578063430bf08a146101535780636a58767e1461015b575b600080fd5b6100cc6100c7366004610736565b6101d4565b6040516100dc94939291906107a7565b60405180910390f35b6101156100f3366004610736565b6001600160a01b03908116600090815260016020819052604090912001541690565b6040516001600160a01b0390911681526020016100dc565b61014061013b366004610893565b61031c565b005b6000546001600160a01b0316610115565b6101156103b9565b61011561046d565b6101156104a4565b6101156104f3565b6101406101813660046108e3565b610529565b61011561061f565b6101bc61019c366004610736565b6001600160a01b0390811660009081526001602052604090205416151590565b60405190151581526020016100dc565b61011561064f565b60016020819052600091825260409091208054918101546002820180546001600160a01b0394851694909216929161020b9061096c565b80601f01602080910402602001604051908101604052809291908181526020018280546102379061096c565b80156102845780601f1061025957610100808354040283529160200191610284565b820191906000526020600020905b81548152906001019060200180831161026757829003601f168201915b5050505050908060030180546102999061096c565b80601f01602080910402602001604051908101604052809291908181526020018280546102c59061096c565b80156103125780601f106102e757610100808354040283529160200191610312565b820191906000526020600020905b8154815290600101906020018083116102f557829003601f168201915b5050505050905084565b33600090815260016020819052604090912001546001600160a01b03166103725760405162461bcd60e51b81526020600482015260056024820152644b4430313160d81b60448201526064015b60405180910390fd5b33600090815260016020818152604090922090810180546001600160a01b0319166001600160a01b03861617905582516103b492600390920191840190610685565b505050565b600080546040516415985d5b1d60da1b60208201526001600160a01b0390911690638eaa6ac0906025015b604051602081830303815290604052805190602001206040518263ffffffff1660e01b815260040161041891815260200190565b60206040518083038186803b15801561043057600080fd5b505afa158015610444573d6000803e3d6000fd5b505050506040513d601f19601f8201168201806040525081019061046891906109a7565b905090565b600080546040516c4d65646961526567697374727960981b60208201526001600160a01b0390911690638eaa6ac090602d016103e4565b60008060009054906101000a90046001600160a01b03166001600160a01b0316638da5cb5b6040518163ffffffff1660e01b815260040160206040518083038186803b15801561043057600080fd5b600080546040516b4d65646961466163746f727960a01b60208201526001600160a01b0390911690638eaa6ac090602c016103e4565b6105316104f3565b6001600160a01b0316336001600160a01b0316146105795760405162461bcd60e51b815260206004820152600560248201526404b443031360dc1b6044820152606401610369565b604080516080810182526001600160a01b038087168083528482166020808501918252848601898152606086018990526000938452600180835296909320855181549086166001600160a01b031991821617825592519681018054979095169690921695909517909255518051929391926105fa9260028501920190610685565b5060608201518051610616916003840191602090910190610685565b50505050505050565b60008054604051651059141bdbdb60d21b60208201526001600160a01b0390911690638eaa6ac0906026016103e4565b600080546040516b22bb32b73a22b6b4ba3a32b960a11b60208201526001600160a01b0390911690638eaa6ac090602c016103e4565b8280546106919061096c565b90600052602060002090601f0160209004810192826106b357600085556106f9565b82601f106106cc57805160ff19168380011785556106f9565b828001600101855582156106f9579182015b828111156106f95782518255916020019190600101906106de565b50610705929150610709565b5090565b5b80821115610705576000815560010161070a565b6001600160a01b038116811461073357600080fd5b50565b60006020828403121561074857600080fd5b81356107538161071e565b9392505050565b6000815180845260005b8181101561078057602081850181015186830182015201610764565b81811115610792576000602083870101525b50601f01601f19169290920160200192915050565b60006001600160a01b038087168352808616602084015250608060408301526107d3608083018561075a565b82810360608401526107e5818561075a565b979650505050505050565b634e487b7160e01b600052604160045260246000fd5b600082601f83011261081757600080fd5b813567ffffffffffffffff80821115610832576108326107f0565b604051601f8301601f19908116603f0116810190828211818310171561085a5761085a6107f0565b8160405283815286602085880101111561087357600080fd5b836020870160208301376000602085830101528094505050505092915050565b600080604083850312156108a657600080fd5b82356108b18161071e565b9150602083013567ffffffffffffffff8111156108cd57600080fd5b6108d985828601610806565b9150509250929050565b600080600080608085870312156108f957600080fd5b84356109048161071e565b9350602085013567ffffffffffffffff8082111561092157600080fd5b61092d88838901610806565b9450604087013591508082111561094357600080fd5b5061095087828801610806565b92505060608501356109618161071e565b939692955090935050565b600181811c9082168061098057607f821691505b602082108114156109a157634e487b7160e01b600052602260045260246000fd5b50919050565b6000602082840312156109b957600080fd5b81516107538161071e56fea2646970667358221220d666c87dc82573a02d4adde342aceee9ef3edbc1e297a4ecb95b5403b287051164736f6c63430008090033",
  "devdoc": {
    "author": "Shumpei Koike - <shumpei.koike@bridges.inc>",
    "kind": "dev",
    "methods": {
      "adPoolAddress()": {
        "details": "Gets the address of AdPool."
      },
      "addMedia(address,string,string,address)": {
        "details": "Adds media account.",
        "params": {
          "constantMetadata": "string of constant metadata for the defailts of the account",
          "mediaEOA": "address of the media account",
          "proxy": "address of the proxy contract",
          "updatableMetadata": "string of constant metadata for the defailts of the account"
        }
      },
      "constructor": {
        "details": "_nameRegistry address of the NameRegistry"
      },
      "created(address)": {
        "details": "Returns whether the account has created or not.",
        "params": {
          "proxy": "address of the proxy contract that represents an account."
        }
      },
      "eventEmitterAddress()": {
        "details": "Gets the address of EventEmitter."
      },
      "mediaFactoryAddress()": {
        "details": "Gets the address of MediaFactory."
      },
      "mediaRegistryAddress()": {
        "details": "Gets the address of MediaRegistry."
      },
      "nameRegistryAddress()": {
        "details": "Gets the address of NameRegistry"
      },
      "owner()": {
        "details": "Gets the owner address."
      },
      "ownerOf(address)": {
        "details": "Returns the owner of the account.",
        "params": {
          "proxy": "address of the proxy contract that represents an account."
        }
      },
      "updateMedia(address,string)": {
        "details": "Updates media account.",
        "params": {
          "mediaEOA": "address of the media account",
          "metadata": "string of the account metadata"
        }
      },
      "vaultAddress()": {
        "details": "Gets the address of Vault."
      }
    },
    "title": "MediaRegistry - registers a list of media accounts.",
    "version": 1
  },
  "userdoc": {
    "kind": "user",
    "methods": {
      "constructor": {
        "notice": "Constructor"
      }
    },
    "version": 1
  },
  "storageLayout": {
    "storage": [
      {
        "astId": 1560,
        "contract": "contracts/peripheries/MediaRegistry.sol:MediaRegistry",
        "label": "_nameRegistry",
        "offset": 0,
        "slot": "0",
        "type": "t_contract(NameRegistry)1789"
      },
      {
        "astId": 5047,
        "contract": "contracts/peripheries/MediaRegistry.sol:MediaRegistry",
        "label": "allAccounts",
        "offset": 0,
        "slot": "1",
        "type": "t_mapping(t_address,t_struct(Account)5042_storage)"
      }
    ],
    "types": {
      "t_address": {
        "encoding": "inplace",
        "label": "address",
        "numberOfBytes": "20"
      },
      "t_contract(NameRegistry)1789": {
        "encoding": "inplace",
        "label": "contract NameRegistry",
        "numberOfBytes": "20"
      },
      "t_mapping(t_address,t_struct(Account)5042_storage)": {
        "encoding": "mapping",
        "key": "t_address",
        "label": "mapping(address => struct MediaRegistry.Account)",
        "numberOfBytes": "32",
        "value": "t_struct(Account)5042_storage"
      },
      "t_string_storage": {
        "encoding": "bytes",
        "label": "string",
        "numberOfBytes": "32"
      },
      "t_struct(Account)5042_storage": {
        "encoding": "inplace",
        "label": "struct MediaRegistry.Account",
        "members": [
          {
            "astId": 5035,
            "contract": "contracts/peripheries/MediaRegistry.sol:MediaRegistry",
            "label": "proxy",
            "offset": 0,
            "slot": "0",
            "type": "t_address"
          },
          {
            "astId": 5037,
            "contract": "contracts/peripheries/MediaRegistry.sol:MediaRegistry",
            "label": "mediaEOA",
            "offset": 0,
            "slot": "1",
            "type": "t_address"
          },
          {
            "astId": 5039,
            "contract": "contracts/peripheries/MediaRegistry.sol:MediaRegistry",
            "label": "constantMetadata",
            "offset": 0,
            "slot": "2",
            "type": "t_string_storage"
          },
          {
            "astId": 5041,
            "contract": "contracts/peripheries/MediaRegistry.sol:MediaRegistry",
            "label": "updatableMetadata",
            "offset": 0,
            "slot": "3",
            "type": "t_string_storage"
          }
        ],
        "numberOfBytes": "128"
      }
    }
  }
}