{
  "address": "0x8022E32437e788C6348592062D8Ff18F968179aA",
  "abi": [
    {
      "anonymous": false,
      "inputs": [
        {
          "indexed": true,
          "internalType": "address",
          "name": "owner",
          "type": "address"
        },
        {
          "indexed": true,
          "internalType": "address",
          "name": "approved",
          "type": "address"
        },
        {
          "indexed": true,
          "internalType": "uint256",
          "name": "tokenId",
          "type": "uint256"
        }
      ],
      "name": "Approval",
      "type": "event"
    },
    {
      "anonymous": false,
      "inputs": [
        {
          "indexed": true,
          "internalType": "address",
          "name": "owner",
          "type": "address"
        },
        {
          "indexed": true,
          "internalType": "address",
          "name": "operator",
          "type": "address"
        },
        {
          "indexed": false,
          "internalType": "bool",
          "name": "approved",
          "type": "bool"
        }
      ],
      "name": "ApprovalForAll",
      "type": "event"
    },
    {
      "anonymous": false,
      "inputs": [
        {
          "indexed": true,
          "internalType": "address",
          "name": "from",
          "type": "address"
        },
        {
          "indexed": true,
          "internalType": "address",
          "name": "to",
          "type": "address"
        },
        {
          "indexed": true,
          "internalType": "uint256",
          "name": "tokenId",
          "type": "uint256"
        }
      ],
      "name": "Transfer",
      "type": "event"
    },
    {
      "inputs": [
        {
          "internalType": "uint256",
          "name": "tokenId",
          "type": "uint256"
        },
        {
          "internalType": "string",
          "name": "tokenMetadata",
          "type": "string"
        }
      ],
      "name": "acceptOffer",
      "outputs": [],
      "stateMutability": "nonpayable",
      "type": "function"
    },
    {
      "inputs": [
        {
          "internalType": "uint256",
          "name": "tokenId",
          "type": "uint256"
        }
      ],
      "name": "acceptProposal",
      "outputs": [],
      "stateMutability": "nonpayable",
      "type": "function"
    },
    {
      "inputs": [
        {
          "internalType": "string",
          "name": "spaceMetadata",
          "type": "string"
        },
        {
          "internalType": "uint256",
          "name": "displayStartTimestamp",
          "type": "uint256"
        },
        {
          "internalType": "uint256",
          "name": "displayEndTimestamp",
          "type": "uint256"
        }
      ],
      "name": "adId",
      "outputs": [
        {
          "internalType": "uint256",
          "name": "",
          "type": "uint256"
        }
      ],
      "stateMutability": "pure",
      "type": "function"
    },
    {
      "inputs": [],
      "name": "adPoolAddress",
      "outputs": [
        {
          "internalType": "address",
          "name": "",
          "type": "address"
        }
      ],
      "stateMutability": "view",
      "type": "function"
    },
    {
      "inputs": [
        {
          "internalType": "address",
          "name": "to",
          "type": "address"
        },
        {
          "internalType": "uint256",
          "name": "tokenId",
          "type": "uint256"
        }
      ],
      "name": "approve",
      "outputs": [],
      "stateMutability": "nonpayable",
      "type": "function"
    },
    {
      "inputs": [],
      "name": "balance",
      "outputs": [
        {
          "internalType": "uint256",
          "name": "",
          "type": "uint256"
        }
      ],
      "stateMutability": "view",
      "type": "function"
    },
    {
      "inputs": [
        {
          "internalType": "address",
          "name": "owner",
          "type": "address"
        }
      ],
      "name": "balanceOf",
      "outputs": [
        {
          "internalType": "uint256",
          "name": "",
          "type": "uint256"
        }
      ],
      "stateMutability": "view",
      "type": "function"
    },
    {
      "inputs": [
        {
          "internalType": "uint256",
          "name": "tokenId",
          "type": "uint256"
        }
      ],
      "name": "bid",
      "outputs": [],
      "stateMutability": "payable",
      "type": "function"
    },
    {
      "inputs": [
        {
          "internalType": "uint256",
          "name": "tokenId",
          "type": "uint256"
        },
        {
          "internalType": "string",
          "name": "proposalMetadata",
          "type": "string"
        }
      ],
      "name": "bidWithProposal",
      "outputs": [],
      "stateMutability": "payable",
      "type": "function"
    },
    {
      "inputs": [
        {
          "internalType": "uint256",
          "name": "tokenId",
          "type": "uint256"
        }
      ],
      "name": "buy",
      "outputs": [],
      "stateMutability": "payable",
      "type": "function"
    },
    {
      "inputs": [
        {
          "internalType": "uint256",
          "name": "tokenId",
          "type": "uint256"
        }
      ],
      "name": "buyBasedOnTime",
      "outputs": [],
      "stateMutability": "payable",
      "type": "function"
    },
    {
      "inputs": [
        {
          "internalType": "uint256",
          "name": "tokenId",
          "type": "uint256"
        }
      ],
      "name": "cancelOffer",
      "outputs": [],
      "stateMutability": "nonpayable",
      "type": "function"
    },
    {
      "inputs": [
        {
          "internalType": "uint256",
          "name": "tokenId",
          "type": "uint256"
        }
      ],
      "name": "deletePeriod",
      "outputs": [],
      "stateMutability": "nonpayable",
      "type": "function"
    },
    {
      "inputs": [
        {
          "internalType": "uint256",
          "name": "tokenId",
          "type": "uint256"
        },
        {
          "internalType": "string",
          "name": "reason",
          "type": "string"
        },
        {
          "internalType": "bool",
          "name": "offensive",
          "type": "bool"
        }
      ],
      "name": "denyProposal",
      "outputs": [],
      "stateMutability": "nonpayable",
      "type": "function"
    },
    {
      "inputs": [],
      "name": "englishAuctionAddress",
      "outputs": [
        {
          "internalType": "address",
          "name": "",
          "type": "address"
        }
      ],
      "stateMutability": "view",
      "type": "function"
    },
    {
      "inputs": [],
      "name": "eventEmitterAddress",
      "outputs": [
        {
          "internalType": "address",
          "name": "",
          "type": "address"
        }
      ],
      "stateMutability": "view",
      "type": "function"
    },
    {
      "inputs": [
        {
          "internalType": "uint256",
          "name": "tokenId",
          "type": "uint256"
        }
      ],
      "name": "getApproved",
      "outputs": [
        {
          "internalType": "address",
          "name": "",
          "type": "address"
        }
      ],
      "stateMutability": "view",
      "type": "function"
    },
    {
      "inputs": [
        {
          "internalType": "string",
          "name": "title",
          "type": "string"
        },
        {
          "internalType": "string",
          "name": "baseURI",
          "type": "string"
        },
        {
          "internalType": "string",
          "name": "tokenMetadata",
          "type": "string"
        },
        {
          "internalType": "address",
          "name": "mediaEOA",
          "type": "address"
        },
        {
          "internalType": "address",
          "name": "nameRegistry",
          "type": "address"
        }
      ],
      "name": "initialize",
      "outputs": [],
      "stateMutability": "nonpayable",
      "type": "function"
    },
    {
      "inputs": [
        {
          "internalType": "address",
          "name": "owner",
          "type": "address"
        },
        {
          "internalType": "address",
          "name": "operator",
          "type": "address"
        }
      ],
      "name": "isApprovedForAll",
      "outputs": [
        {
          "internalType": "bool",
          "name": "",
          "type": "bool"
        }
      ],
      "stateMutability": "view",
      "type": "function"
    },
    {
      "inputs": [],
      "name": "mediaFactoryAddress",
      "outputs": [
        {
          "internalType": "address",
          "name": "",
          "type": "address"
        }
      ],
      "stateMutability": "view",
      "type": "function"
    },
    {
      "inputs": [],
      "name": "mediaRegistryAddress",
      "outputs": [
        {
          "internalType": "address",
          "name": "",
          "type": "address"
        }
      ],
      "stateMutability": "view",
      "type": "function"
    },
    {
      "inputs": [],
      "name": "name",
      "outputs": [
        {
          "internalType": "string",
          "name": "",
          "type": "string"
        }
      ],
      "stateMutability": "view",
      "type": "function"
    },
    {
      "inputs": [],
      "name": "nameRegistryAddress",
      "outputs": [
        {
          "internalType": "address",
          "name": "",
          "type": "address"
        }
      ],
      "stateMutability": "view",
      "type": "function"
    },
    {
      "inputs": [
        {
          "internalType": "string",
          "name": "spaceMetadata",
          "type": "string"
        },
        {
          "internalType": "string",
          "name": "tokenMetadata",
          "type": "string"
        },
        {
          "internalType": "uint256",
          "name": "saleEndTimestamp",
          "type": "uint256"
        },
        {
          "internalType": "uint256",
          "name": "displayStartTimestamp",
          "type": "uint256"
        },
        {
          "internalType": "uint256",
          "name": "displayEndTimestamp",
          "type": "uint256"
        },
        {
          "internalType": "enum Ad.Pricing",
          "name": "pricing",
          "type": "uint8"
        },
        {
          "internalType": "uint256",
          "name": "minPrice",
          "type": "uint256"
        }
      ],
      "name": "newPeriod",
      "outputs": [],
      "stateMutability": "nonpayable",
      "type": "function"
    },
    {
      "inputs": [
        {
          "internalType": "string",
          "name": "spaceMetadata",
          "type": "string"
        }
      ],
      "name": "newSpace",
      "outputs": [],
      "stateMutability": "nonpayable",
      "type": "function"
    },
    {
      "inputs": [],
      "name": "offerBidAddress",
      "outputs": [
        {
          "internalType": "address",
          "name": "",
          "type": "address"
        }
      ],
      "stateMutability": "view",
      "type": "function"
    },
    {
      "inputs": [
        {
          "internalType": "string",
          "name": "spaceMetadata",
          "type": "string"
        },
        {
          "internalType": "uint256",
          "name": "displayStartTimestamp",
          "type": "uint256"
        },
        {
          "internalType": "uint256",
          "name": "displayEndTimestamp",
          "type": "uint256"
        }
      ],
      "name": "offerPeriod",
      "outputs": [],
      "stateMutability": "payable",
      "type": "function"
    },
    {
      "inputs": [],
      "name": "openBidAddress",
      "outputs": [
        {
          "internalType": "address",
          "name": "",
          "type": "address"
        }
      ],
      "stateMutability": "view",
      "type": "function"
    },
    {
      "inputs": [],
      "name": "owner",
      "outputs": [
        {
          "internalType": "address",
          "name": "",
          "type": "address"
        }
      ],
      "stateMutability": "view",
      "type": "function"
    },
    {
      "inputs": [
        {
          "internalType": "uint256",
          "name": "tokenId",
          "type": "uint256"
        }
      ],
      "name": "ownerOf",
      "outputs": [
        {
          "internalType": "address",
          "name": "",
          "type": "address"
        }
      ],
      "stateMutability": "view",
      "type": "function"
    },
    {
      "inputs": [],
      "name": "proposalReviewAddress",
      "outputs": [
        {
          "internalType": "address",
          "name": "",
          "type": "address"
        }
      ],
      "stateMutability": "view",
      "type": "function"
    },
    {
      "inputs": [
        {
          "internalType": "uint256",
          "name": "tokenId",
          "type": "uint256"
        },
        {
          "internalType": "string",
          "name": "metadata",
          "type": "string"
        }
      ],
      "name": "propose",
      "outputs": [],
      "stateMutability": "nonpayable",
      "type": "function"
    },
    {
      "inputs": [
        {
          "internalType": "uint256",
          "name": "tokenId",
          "type": "uint256"
        }
      ],
      "name": "pushToSuccessfulBidder",
      "outputs": [],
      "stateMutability": "nonpayable",
      "type": "function"
    },
    {
      "inputs": [
        {
          "internalType": "uint256",
          "name": "tokenId",
          "type": "uint256"
        }
      ],
      "name": "receiveToken",
      "outputs": [],
      "stateMutability": "nonpayable",
      "type": "function"
    },
    {
      "inputs": [
        {
          "internalType": "address",
          "name": "from",
          "type": "address"
        },
        {
          "internalType": "address",
          "name": "to",
          "type": "address"
        },
        {
          "internalType": "uint256",
          "name": "tokenId",
          "type": "uint256"
        }
      ],
      "name": "safeTransferFrom",
      "outputs": [],
      "stateMutability": "nonpayable",
      "type": "function"
    },
    {
      "inputs": [
        {
          "internalType": "address",
          "name": "from",
          "type": "address"
        },
        {
          "internalType": "address",
          "name": "to",
          "type": "address"
        },
        {
          "internalType": "uint256",
          "name": "tokenId",
          "type": "uint256"
        },
        {
          "internalType": "bytes",
          "name": "_data",
          "type": "bytes"
        }
      ],
      "name": "safeTransferFrom",
      "outputs": [],
      "stateMutability": "nonpayable",
      "type": "function"
    },
    {
      "inputs": [
        {
          "internalType": "uint256",
          "name": "tokenId",
          "type": "uint256"
        },
        {
          "internalType": "uint256",
          "name": "index",
          "type": "uint256"
        }
      ],
      "name": "selectProposal",
      "outputs": [],
      "stateMutability": "nonpayable",
      "type": "function"
    },
    {
      "inputs": [
        {
          "internalType": "address",
          "name": "operator",
          "type": "address"
        },
        {
          "internalType": "bool",
          "name": "approved",
          "type": "bool"
        }
      ],
      "name": "setApprovalForAll",
      "outputs": [],
      "stateMutability": "nonpayable",
      "type": "function"
    },
    {
      "inputs": [
        {
          "internalType": "bytes4",
          "name": "interfaceId",
          "type": "bytes4"
        }
      ],
      "name": "supportsInterface",
      "outputs": [
        {
          "internalType": "bool",
          "name": "",
          "type": "bool"
        }
      ],
      "stateMutability": "pure",
      "type": "function"
    },
    {
      "inputs": [],
      "name": "symbol",
      "outputs": [
        {
          "internalType": "string",
          "name": "",
          "type": "string"
        }
      ],
      "stateMutability": "view",
      "type": "function"
    },
    {
      "inputs": [
        {
          "internalType": "uint256",
          "name": "index",
          "type": "uint256"
        }
      ],
      "name": "tokenByIndex",
      "outputs": [
        {
          "internalType": "uint256",
          "name": "",
          "type": "uint256"
        }
      ],
      "stateMutability": "view",
      "type": "function"
    },
    {
      "inputs": [
        {
          "internalType": "address",
          "name": "owner",
          "type": "address"
        },
        {
          "internalType": "uint256",
          "name": "index",
          "type": "uint256"
        }
      ],
      "name": "tokenOfOwnerByIndex",
      "outputs": [
        {
          "internalType": "uint256",
          "name": "",
          "type": "uint256"
        }
      ],
      "stateMutability": "view",
      "type": "function"
    },
    {
      "inputs": [
        {
          "internalType": "uint256",
          "name": "tokenId",
          "type": "uint256"
        }
      ],
      "name": "tokenURI",
      "outputs": [
        {
          "internalType": "string",
          "name": "",
          "type": "string"
        }
      ],
      "stateMutability": "view",
      "type": "function"
    },
    {
      "inputs": [],
      "name": "totalSupply",
      "outputs": [
        {
          "internalType": "uint256",
          "name": "",
          "type": "uint256"
        }
      ],
      "stateMutability": "view",
      "type": "function"
    },
    {
      "inputs": [
        {
          "internalType": "address",
          "name": "from",
          "type": "address"
        },
        {
          "internalType": "address",
          "name": "to",
          "type": "address"
        },
        {
          "internalType": "uint256",
          "name": "tokenId",
          "type": "uint256"
        }
      ],
      "name": "transferFrom",
      "outputs": [],
      "stateMutability": "nonpayable",
      "type": "function"
    },
    {
      "inputs": [
        {
          "internalType": "address",
          "name": "newMediaEOA",
          "type": "address"
        },
        {
          "internalType": "string",
          "name": "newMetadata",
          "type": "string"
        }
      ],
      "name": "updateMedia",
      "outputs": [],
      "stateMutability": "nonpayable",
      "type": "function"
    },
    {
      "inputs": [],
      "name": "vaultAddress",
      "outputs": [
        {
          "internalType": "address",
          "name": "",
          "type": "address"
        }
      ],
      "stateMutability": "view",
      "type": "function"
    },
    {
      "inputs": [],
      "name": "withdraw",
      "outputs": [],
      "stateMutability": "nonpayable",
      "type": "function"
    },
    {
      "inputs": [],
      "name": "withdrawalAmount",
      "outputs": [
        {
          "internalType": "uint256",
          "name": "",
          "type": "uint256"
        }
      ],
      "stateMutability": "view",
      "type": "function"
    }
  ],
  "transactionHash": "0x3182c6429fe5a41285bd347b16df196dc94d906e4babe7ff226a02c1a43a921d",
  "args": [],
  "solcInputHash": "3b843421c7cbc4186a9b782888b147b3",
  "bytecode": "0x608060405234801561001057600080fd5b506001600c556143c7806100256000396000f3fe60806040526004361061022e5760003560e01c80630106d8eb1461023357806301ffc9a71461025e57806306fdde031461028e578063081812fc146102b0578063095ea7b3146102d057806313c1f278146102f2578063179bcff71461031257806318160ddd146103325780631daf7ff9146103515780632231c1eb1461036457806323b872dd1461037957806327b7a2f5146103995780632bc4bc68146103b75780632f745c59146103d757806332b18f6d146103f757806337df00c9146104175780633ccfd60b1461043757806342842e0e1461044c578063430bf08a1461046c578063444115f614610481578063454a2ab3146104a15780634b455a51146104b45780634f6ccce7146104d457806360c5cc3a146104f45780636352211e146105145780636a58767e1461053457806370a08231146105495780637ccacd49146105695780637cf175fb1461057c578063899c9989146105915780638da5cb5b146105b15780638f6059d6146105c657806393525d39146105db57806395d89b41146105fb578063a22cb46514610610578063b69ef8a814610630578063b88d4fde14610643578063c531c23614610663578063c87b56dd14610683578063c9cd71b5146106a3578063d4f6b5ec146106b8578063d6d0faee146106d8578063d8680069146106f8578063d96a094a1461070b578063e2f5fc781461071e578063e6e268f414610733578063e985e9c514610748578063ef706adf14610768578063f072629114610788575b600080fd5b34801561023f57600080fd5b5061024861079d565b60405161025591906134b5565b60405180910390f35b34801561026a57600080fd5b5061027e6102793660046134df565b61084b565b6040519015158152602001610255565b34801561029a57600080fd5b506102a3610882565b604051610255919061355b565b3480156102bc57600080fd5b506102486102cb36600461356e565b610914565b3480156102dc57600080fd5b506102f06102eb36600461359c565b6109a1565b005b3480156102fe57600080fd5b506102f061030d3660046136d0565b610ab2565b34801561031e57600080fd5b506102f061032d366004613726565b610bbb565b34801561033e57600080fd5b50600a545b604051908152602001610255565b6102f061035f366004613775565b610cc1565b34801561037057600080fd5b50610248610df8565b34801561038557600080fd5b506102f06103943660046137c2565b610e29565b3480156103a557600080fd5b50600d546001600160a01b0316610248565b3480156103c357600080fd5b506102f06103d2366004613803565b610e6b565b3480156103e357600080fd5b506103436103f236600461359c565b610f6e565b34801561040357600080fd5b506102f0610412366004613837565b611004565b34801561042357600080fd5b506102f061043236600461356e565b6111a5565b34801561044357600080fd5b506102f061126d565b34801561045857600080fd5b506102f06104673660046137c2565b61135d565b34801561047857600080fd5b50610248611368565b34801561048d57600080fd5b506102f061049c366004613859565b611397565b6102f06104af36600461356e565b611554565b3480156104c057600080fd5b506102f06104cf36600461356e565b6116d4565b3480156104e057600080fd5b506103436104ef36600461356e565b61182a565b34801561050057600080fd5b506102f061050f36600461356e565b6118bd565b34801561052057600080fd5b5061024861052f36600461356e565b611a53565b34801561054057600080fd5b50610248611aa0565b34801561055557600080fd5b50610343610564366004613889565b611ad7565b6102f0610577366004613859565b611b5e565b34801561058857600080fd5b50610248611c80565b34801561059d57600080fd5b506102f06105ac3660046138a6565b611cb2565b3480156105bd57600080fd5b50610248611dea565b3480156105d257600080fd5b50610248611e34565b3480156105e757600080fd5b506102f06105f636600461356e565b611e6a565b34801561060757600080fd5b506102a3611f88565b34801561061c57600080fd5b506102f061062b366004613948565b611f97565b34801561063c57600080fd5b5047610343565b34801561064f57600080fd5b506102f061065e36600461397d565b612058565b34801561066f57600080fd5b5061034361067e366004613775565b612090565b34801561068f57600080fd5b506102a361069e36600461356e565b612117565b3480156106af57600080fd5b50610248612273565b3480156106c457600080fd5b506102f06106d3366004613859565b6122a3565b3480156106e457600080fd5b506102f06106f33660046139fc565b61230a565b6102f061070636600461356e565b6123d5565b6102f061071936600461356e565b61253c565b34801561072a57600080fd5b50610248612615565b34801561073f57600080fd5b5061034361264d565b34801561075457600080fd5b5061027e610763366004613aab565b61265d565b34801561077457600080fd5b506102f061078336600461356e565b61268b565b34801561079457600080fd5b506102486127f1565b600d546040516d22b733b634b9b420bab1ba34b7b760911b60208201526000916001600160a01b031690638eaa6ac090602e015b604051602081830303815290604052805190602001206040518263ffffffff1660e01b815260040161080591815260200190565b602060405180830381865afa158015610822573d6000803e3d6000fd5b505050506040513d601f19601f820116820180604052508101906108469190613ae4565b905090565b60006001600160e01b031982166380ac58cd60e01b148061087c57506001600160e01b03198216635b5e139f60e01b145b92915050565b60606000805461089190613b01565b80601f01602080910402602001604051908101604052809291908181526020018280546108bd90613b01565b801561090a5780601f106108df5761010080835404028352916020019161090a565b820191906000526020600020905b8154815290600101906020018083116108ed57829003601f168201915b5050505050905090565b600061091f82612827565b6109855760405162461bcd60e51b815260206004820152602c60248201527f4552433732313a20617070726f76656420717565727920666f72206e6f6e657860448201526b34b9ba32b73a103a37b5b2b760a11b60648201526084015b60405180910390fd5b506000908152600660205260409020546001600160a01b031690565b60006109ac82611a53565b9050806001600160a01b0316836001600160a01b03161415610a1a5760405162461bcd60e51b815260206004820152602160248201527f4552433732313a20617070726f76616c20746f2063757272656e74206f776e656044820152603960f91b606482015260840161097c565b336001600160a01b0382161480610a365750610a36813361265d565b610aa35760405162461bcd60e51b815260206004820152603860248201527f4552433732313a20617070726f76652063616c6c6572206973206e6f74206f776044820152771b995c881b9bdc88185c1c1c9bdd995908199bdc88185b1b60421b606482015260840161097c565b610aad8383612844565b505050565b33610abb6128b2565b6001600160a01b03166314afd79e306040518263ffffffff1660e01b8152600401610ae691906134b5565b602060405180830381865afa158015610b03573d6000803e3d6000fd5b505050506040513d601f19601f82011682018060405250810190610b279190613ae4565b6001600160a01b031614610b4d5760405162461bcd60e51b815260040161097c90613b3c565b610b556128bc565b6001600160a01b03166313c1f2788484846040518463ffffffff1660e01b8152600401610b8493929190613b5b565b600060405180830381600087803b158015610b9e57600080fd5b505af1158015610bb2573d6000803e3d6000fd5b50505050505050565b33610bc46128b2565b6001600160a01b03166314afd79e306040518263ffffffff1660e01b8152600401610bef91906134b5565b602060405180830381865afa158015610c0c573d6000803e3d6000fd5b505050506040513d601f19601f82011682018060405250810190610c309190613ae4565b6001600160a01b031614610c565760405162461bcd60e51b815260040161097c90613b3c565b610c5e6128b2565b6001600160a01b031663179bcff783836040518363ffffffff1660e01b8152600401610c8b929190613b86565b600060405180830381600087803b158015610ca557600080fd5b505af1158015610cb9573d6000803e3d6000fd5b505050505050565b33610cca6128b2565b6001600160a01b03166314afd79e306040518263ffffffff1660e01b8152600401610cf591906134b5565b602060405180830381865afa158015610d12573d6000803e3d6000fd5b505050506040513d601f19601f82011682018060405250810190610d369190613ae4565b6001600160a01b03161415610d5d5760405162461bcd60e51b815260040161097c90613baa565b610d656128c6565b6001600160a01b031663171a133d84848433346040518663ffffffff1660e01b8152600401610d98959493929190613bc9565b6020604051808303816000875af1158015610db7573d6000803e3d6000fd5b505050506040513d601f19601f82011682018060405250810190610ddb9190613c09565b5034600e6000828254610dee9190613c38565b9091555050505050565b600d546040516613dc195b909a5960ca1b60208201526000916001600160a01b031690638eaa6ac0906027016107d1565b610e348383836128d0565b610e3c612901565b6001600160a01b031663465bcf058484846040518463ffffffff1660e01b8152600401610b8493929190613c50565b33610e746128b2565b6001600160a01b03166314afd79e306040518263ffffffff1660e01b8152600401610e9f91906134b5565b602060405180830381865afa158015610ebc573d6000803e3d6000fd5b505050506040513d601f19601f82011682018060405250810190610ee09190613ae4565b6001600160a01b031614610f065760405162461bcd60e51b815260040161097c90613b3c565b610f0e61290b565b6001600160a01b031663b8926f2c826040518263ffffffff1660e01b8152600401610f39919061355b565b600060405180830381600087803b158015610f5357600080fd5b505af1158015610f67573d6000803e3d6000fd5b5050505050565b6000610f7983611ad7565b8210610fdb5760405162461bcd60e51b815260206004820152602b60248201527f455243373231456e756d657261626c653a206f776e657220696e646578206f7560448201526a74206f6620626f756e647360a81b606482015260840161097c565b506001600160a01b03919091166000908152600860209081526040808320938352929052205490565b3361100d6128b2565b6001600160a01b03166314afd79e306040518263ffffffff1660e01b815260040161103891906134b5565b602060405180830381865afa158015611055573d6000803e3d6000fd5b505050506040513d601f19601f820116820180604052508101906110799190613ae4565b6001600160a01b03161461109f5760405162461bcd60e51b815260040161097c90613b3c565b6002600c5414156110c25760405162461bcd60e51b815260040161097c90613c74565b6002600c556000806110d2612915565b6040516332b18f6d60e01b815260048101869052602481018590526001600160a01b0391909116906332b18f6d906044016000604051808303816000875af1158015611122573d6000803e3d6000fd5b505050506040513d6000823e601f3d908101601f1916820160405261114a9190810190613d7e565b9150915061115c82602001518561291f565b8160400151600e60008282546111729190613e64565b909155505060408201516111919061118c90600a90613e7b565b612961565b61119a81612972565b50506001600c555050565b80336111af6129ec565b6001600160a01b031663cc889b0b836040518263ffffffff1660e01b81526004016111dc91815260200190565b606060405180830381865afa1580156111f9573d6000803e3d6000fd5b505050506040513d601f19601f8201168201806040525081019061121d9190613e9d565b602001516001600160a01b03161461125f5760405162461bcd60e51b815260206004820152600560248201526425a218991b60d91b604482015260640161097c565b61126982336129f6565b5050565b336112766128b2565b6001600160a01b03166314afd79e306040518263ffffffff1660e01b81526004016112a191906134b5565b602060405180830381865afa1580156112be573d6000803e3d6000fd5b505050506040513d601f19601f820116820180604052508101906112e29190613ae4565b6001600160a01b0316146113085760405162461bcd60e51b815260040161097c90613b3c565b600061131261264d565b905060006113203383612aa2565b9050801561126957611330612901565b6001600160a01b031663279862cb836040518263ffffffff1660e01b8152600401610c8b91815260200190565b610e34838383612b76565b600d546040516415985d5b1d60da1b60208201526000916001600160a01b031690638eaa6ac0906025016107d1565b336113a06128b2565b6001600160a01b03166314afd79e306040518263ffffffff1660e01b81526004016113cb91906134b5565b602060405180830381865afa1580156113e8573d6000803e3d6000fd5b505050506040513d601f19601f8201168201806040525081019061140c9190613ae4565b6001600160a01b0316146114325760405162461bcd60e51b815260040161097c90613b3c565b600061143c6128c6565b6001600160a01b03166319b05f49846040518263ffffffff1660e01b815260040161146991815260200190565b6000604051808303816000875af1158015611488573d6000803e3d6000fd5b505050506040513d6000823e601f3d908101601f191682016040526114b09190810190613efe565b90506114ba61290b565b6001600160a01b031663a9ad60f38484846040518463ffffffff1660e01b81526004016114e993929190613fa1565b600060405180830381600087803b15801561150357600080fd5b505af1158015611517573d6000803e3d6000fd5b5050505061152a81606001518484612b91565b61153e600a826080015161118c9190613e7b565b8060800151600e6000828254610dee9190613e64565b3361155d6128b2565b6001600160a01b03166314afd79e306040518263ffffffff1660e01b815260040161158891906134b5565b602060405180830381865afa1580156115a5573d6000803e3d6000fd5b505050506040513d601f19601f820116820180604052508101906115c99190613ae4565b6001600160a01b031614156115f05760405162461bcd60e51b815260040161097c90613baa565b6002600c5414156116135760405162461bcd60e51b815260040161097c90613c74565b6002600c55600061162261290b565b604051637ee8065f60e01b8152600481018490523360248201523460448201526001600160a01b039190911690637ee8065f906064016060604051808303816000875af1158015611677573d6000803e3d6000fd5b505050506040513d601f19601f8201168201806040525081019061169b9190613e9d565b90506116a681612bf9565b60408101516116b59034613e64565b600e60008282546116c69190613c38565b90915550506001600c555050565b336116dd6128b2565b6001600160a01b03166314afd79e306040518263ffffffff1660e01b815260040161170891906134b5565b602060405180830381865afa158015611725573d6000803e3d6000fd5b505050506040513d601f19601f820116820180604052508101906117499190613ae4565b6001600160a01b03161461176f5760405162461bcd60e51b815260040161097c90613b3c565b3061177982611a53565b6001600160a01b0316146117b75760405162461bcd60e51b81526020600482015260056024820152644b4431323160d81b604482015260640161097c565b6117bf61290b565b6001600160a01b0316634b455a51826040518263ffffffff1660e01b81526004016117ec91815260200190565b600060405180830381600087803b15801561180657600080fd5b505af115801561181a573d6000803e3d6000fd5b5050505061182781612c0b565b50565b6000611835600a5490565b82106118985760405162461bcd60e51b815260206004820152602c60248201527f455243373231456e756d657261626c653a20676c6f62616c20696e646578206f60448201526b7574206f6620626f756e647360a01b606482015260840161097c565b600a82815481106118ab576118ab614013565b90600052602060002001549050919050565b336118c66128b2565b6001600160a01b03166314afd79e306040518263ffffffff1660e01b81526004016118f191906134b5565b602060405180830381865afa15801561190e573d6000803e3d6000fd5b505050506040513d601f19601f820116820180604052508101906119329190613ae4565b6001600160a01b0316146119585760405162461bcd60e51b815260040161097c90613b3c565b6119606128bc565b6001600160a01b031663897615e6826040518263ffffffff1660e01b815260040161198d91815260200190565b602060405180830381865afa1580156119aa573d6000803e3d6000fd5b505050506040513d601f19601f820116820180604052508101906119ce9190613ae4565b6001600160a01b03166119e082611a53565b6001600160a01b031614611a1e5760405162461bcd60e51b81526020600482015260056024820152644b4431333160d81b604482015260640161097c565b611a266128bc565b6001600160a01b03166319b05f49826040518263ffffffff1660e01b8152600401610f3991815260200190565b6000818152600460205260408120546001600160a01b03168061087c5760405162461bcd60e51b815260206004820152600560248201526412d10c4c4d60da1b604482015260640161097c565b600d546040516c4d65646961526567697374727960981b60208201526000916001600160a01b031690638eaa6ac090602d016107d1565b60006001600160a01b038216611b425760405162461bcd60e51b815260206004820152602a60248201527f4552433732313a2062616c616e636520717565727920666f7220746865207a65604482015269726f206164647265737360b01b606482015260840161097c565b506001600160a01b031660009081526005602052604090205490565b33611b676128b2565b6001600160a01b03166314afd79e306040518263ffffffff1660e01b8152600401611b9291906134b5565b602060405180830381865afa158015611baf573d6000803e3d6000fd5b505050506040513d601f19601f82011682018060405250810190611bd39190613ae4565b6001600160a01b03161415611bfa5760405162461bcd60e51b815260040161097c90613baa565b611c0261290b565b6001600160a01b0316636c15b2bf838333346040518563ffffffff1660e01b8152600401611c339493929190614029565b600060405180830381600087803b158015611c4d57600080fd5b505af1158015611c61573d6000803e3d6000fd5b5050505034600e6000828254611c779190613c38565b90915550505050565b600d546040516713d999995c909a5960c21b60208201526000916001600160a01b031690638eaa6ac0906028016107d1565b33611cbb6128b2565b6001600160a01b03166314afd79e306040518263ffffffff1660e01b8152600401611ce691906134b5565b602060405180830381865afa158015611d03573d6000803e3d6000fd5b505050506040513d601f19601f82011682018060405250810190611d279190613ae4565b6001600160a01b031614611d4d5760405162461bcd60e51b815260040161097c90613b3c565b6000611d5761290b565b6001600160a01b031663e6851b98308a8a8a8a8a8a8a6040518963ffffffff1660e01b8152600401611d9098979695949392919061405e565b6020604051808303816000875af1158015611daf573d6000803e3d6000fd5b505050506040513d601f19601f82011682018060405250810190611dd39190613c09565b9050611de0308289612b91565b5050505050505050565b600d5460408051631abe729160e31b815290516000926001600160a01b03169163d5f394889160048083019260209291908290030181865afa158015610822573d6000803e3d6000fd5b600d546040516b4d65646961466163746f727960a01b60208201526000916001600160a01b031690638eaa6ac090602c016107d1565b33611e736128b2565b6001600160a01b03166314afd79e306040518263ffffffff1660e01b8152600401611e9e91906134b5565b602060405180830381865afa158015611ebb573d6000803e3d6000fd5b505050506040513d601f19601f82011682018060405250810190611edf9190613ae4565b6001600160a01b031614611f055760405162461bcd60e51b815260040161097c90613b3c565b61182781611f116129ec565b6001600160a01b031663cc889b0b846040518263ffffffff1660e01b8152600401611f3e91815260200190565b606060405180830381865afa158015611f5b573d6000803e3d6000fd5b505050506040513d601f19601f82011682018060405250810190611f7f9190613e9d565b602001516129f6565b60606001805461089190613b01565b6001600160a01b038216331415611fec5760405162461bcd60e51b815260206004820152601960248201527822a9219b99189d1030b8383937bb32903a379031b0b63632b960391b604482015260640161097c565b3360008181526007602090815260408083206001600160a01b03871680855290835292819020805460ff191686151590811790915590519081529192917f17307eab39ab6107e8899845ad3d59bd9653f200f220920489ca2b5937696c31910160405180910390a35050565b6120623383612c75565b61207e5760405162461bcd60e51b815260040161097c906140e0565b61208a84848484612d37565b50505050565b6040516303fb4aab60e41b8152600090734a4274681C57B4eBc4B9AebEf1C292c650956E8F90633fb4aab0906120ce90879087908790600401614131565b602060405180830381865af41580156120eb573d6000803e3d6000fd5b505050506040513d601f19601f8201168201806040525081019061210f9190613c09565b949350505050565b606061212282612827565b6121865760405162461bcd60e51b815260206004820152602f60248201527f4552433732314d657461646174613a2055524920717565727920666f72206e6f60448201526e3732bc34b9ba32b73a103a37b5b2b760891b606482015260840161097c565b60006002805461219590613b01565b90501161223857600082815260036020526040902080546121b590613b01565b80601f01602080910402602001604051908101604052809291908181526020018280546121e190613b01565b801561222e5780601f106122035761010080835404028352916020019161222e565b820191906000526020600020905b81548152906001019060200180831161221157829003601f168201915b505050505061087c565b60026003600084815260200190815260200160002060405160200161225e9291906141f0565b60405160208183030381529060405292915050565b600d54604051651059141bdbdb60d21b60208201526000916001600160a01b031690638eaa6ac0906026016107d1565b336122ad83611a53565b6001600160a01b0316146122d35760405162461bcd60e51b815260040161097c90613b3c565b6122db6128bc565b6001600160a01b031663fb772f4b8383336040518463ffffffff1660e01b8152600401610c8b93929190614205565b600d546001600160a01b03161561234b5760405162461bcd60e51b8152602060048201526005602482015264041523030360dc1b604482015260640161097c565b845161235e90600090602088019061341c565b50846040516020016123709190614236565b6040516020818303038152906040526001908051906020019061239492919061341c565b5083516123a890600290602087019061341c565b506123b582600085612b91565b600d80546001600160a01b0319166001600160a01b038316179055610f67565b336123de6128b2565b6001600160a01b03166314afd79e306040518263ffffffff1660e01b815260040161240991906134b5565b602060405180830381865afa158015612426573d6000803e3d6000fd5b505050506040513d601f19601f8201168201806040525081019061244a9190613ae4565b6001600160a01b031614156124715760405162461bcd60e51b815260040161097c90613baa565b61247961290b565b6040516239a3eb60e31b8152600481018390523460248201526001600160a01b0391909116906301cd1f58906044015b600060405180830381600087803b1580156124c357600080fd5b505af11580156124d7573d6000803e3d6000fd5b505050506124e5338261291f565b6124f361118c600a34613e7b565b6124fb612901565b604051635dd995b560e01b8152600481018390523460248201523360448201524260648201526001600160a01b039190911690635dd995b590608401610f39565b336125456128b2565b6001600160a01b03166314afd79e306040518263ffffffff1660e01b815260040161257091906134b5565b602060405180830381865afa15801561258d573d6000803e3d6000fd5b505050506040513d601f19601f820116820180604052508101906125b19190613ae4565b6001600160a01b031614156125d85760405162461bcd60e51b815260040161097c90613baa565b6125e061290b565b604051639d23b6af60e01b8152600481018390523460248201526001600160a01b039190911690639d23b6af906044016124a9565b600d546040516d50726f706f73616c52657669657760901b60208201526000916001600160a01b031690638eaa6ac090602e016107d1565b6000600e54476108469190613e64565b6001600160a01b03918216600090815260076020908152604080832093909416825291909152205460ff1690565b336126946128b2565b6001600160a01b03166314afd79e306040518263ffffffff1660e01b81526004016126bf91906134b5565b602060405180830381865afa1580156126dc573d6000803e3d6000fd5b505050506040513d601f19601f820116820180604052508101906127009190613ae4565b6001600160a01b031614156127275760405162461bcd60e51b815260040161097c90613baa565b6002600c54141561274a5760405162461bcd60e51b815260040161097c90613c74565b6002600c5560006127596128c6565b6040516315f5a0b160e21b8152600481018490523360248201526001600160a01b0391909116906357d682c4906044016000604051808303816000875af11580156127a8573d6000803e3d6000fd5b505050506040513d6000823e601f3d908101601f191682016040526127d09190810190613efe565b90506127db81612d6a565b8060800151600e60008282546116c69190613e64565b600d546040516b22bb32b73a22b6b4ba3a32b960a11b60208201526000916001600160a01b031690638eaa6ac090602c016107d1565b6000908152600460205260409020546001600160a01b0316151590565b600081815260066020526040902080546001600160a01b0319166001600160a01b038416908117909155819061287982611a53565b6001600160a01b03167f8c5be1e5ebec7d5bd14f71427d1e84f3dd0314c0f7b2291e5b200ac8c7c3b92560405160405180910390a45050565b6000610846611aa0565b6000610846612615565b6000610846611c80565b6128da3382612c75565b6128f65760405162461bcd60e51b815260040161097c906140e0565b610aad838383612d7c565b60006108466127f1565b6000610846612273565b6000610846610df8565b61292a308383612d7c565b612932612901565b6001600160a01b031663465bcf053084846040518463ffffffff1660e01b8152600401610c8b93929190613c50565b61126961296c611368565b82612aa2565b60005b815181101561126957600082828151811061299257612992614013565b6020026020010151905080604001516000146129d9578060400151600e60008282546129be9190613e64565b925050819055506129d781602001518260400151612aa2565b505b50806129e481614266565b915050612975565b600061084661079d565b6000612a0061290b565b6001600160a01b031663f86fde57846040518263ffffffff1660e01b8152600401612a2d91815260200190565b60408051808303816000875af1158015612a4b573d6000803e3d6000fd5b505050506040513d601f19601f82011682018060405250810190612a6f9190614281565b91505080600e6000828254612a849190613e64565b90915550612a949050828461291f565b610aad61118c600a83613e7b565b6000826001600160a01b03168261271090604051600060405180830381858888f193505050503d8060008114612af4576040519150601f19603f3d011682016040523d82523d6000602084013e612af9565b606091505b5050809150508061087c57612b0c612901565b60405163ec720b9b60e01b81526001600160a01b03858116600483015260248201859052919091169063ec720b9b90604401600060405180830381600087803b158015612b5857600080fd5b505af1158015612b6c573d6000803e3d6000fd5b5050505092915050565b610aad83838360405180602001604052806000815250612058565b612b9b8383612f15565b60008281526003602090815260409091208251612bba9284019061341c565b508115610aad57612bc9612901565b6001600160a01b031663465bcf05600085856040518463ffffffff1660e01b8152600401610b8493929190613c50565b61126981602001518260400151612aa2565b612c1481613041565b604080516020808201808452600080845285815260039092529290209051612c3c929061341c565b50612c45612901565b6001600160a01b031663465bcf05306000846040518463ffffffff1660e01b8152600401610f3993929190613c50565b6000612c8082612827565b612ce15760405162461bcd60e51b815260206004820152602c60248201527f4552433732313a206f70657261746f7220717565727920666f72206e6f6e657860448201526b34b9ba32b73a103a37b5b2b760a11b606482015260840161097c565b6000612cec83611a53565b9050806001600160a01b0316846001600160a01b03161480612d275750836001600160a01b0316612d1c84610914565b6001600160a01b0316145b8061210f575061210f818561265d565b612d42848484612d7c565b612d4e848484846130d6565b61208a5760405162461bcd60e51b815260040161097c906142af565b61126981606001518260800151612aa2565b826001600160a01b0316612d8f82611a53565b6001600160a01b031614612df75760405162461bcd60e51b815260206004820152602960248201527f4552433732313a207472616e73666572206f6620746f6b656e2074686174206960448201526839903737ba1037bbb760b91b606482015260840161097c565b6001600160a01b038216612e595760405162461bcd60e51b8152602060048201526024808201527f4552433732313a207472616e7366657220746f20746865207a65726f206164646044820152637265737360e01b606482015260840161097c565b612e648383836131d4565b612e6f600082612844565b6001600160a01b0383166000908152600560205260408120805460019290612e98908490613e64565b90915550506001600160a01b0382166000908152600560205260408120805460019290612ec6908490613c38565b909155505060008181526004602052604080822080546001600160a01b0319166001600160a01b03868116918217909255915184939187169160008051602061437283398151915291a4505050565b6001600160a01b038216612f6b5760405162461bcd60e51b815260206004820181905260248201527f4552433732313a206d696e7420746f20746865207a65726f2061646472657373604482015260640161097c565b612f7481612827565b15612fc05760405162461bcd60e51b815260206004820152601c60248201527b115490cdcc8c4e881d1bdad95b88185b1c9958591e481b5a5b9d195960221b604482015260640161097c565b612fcc600083836131d4565b6001600160a01b0382166000908152600560205260408120805460019290612ff5908490613c38565b909155505060008181526004602052604080822080546001600160a01b0319166001600160a01b0386169081179091559051839290600080516020614372833981519152908290a45050565b600061304c82611a53565b905061305a816000846131d4565b613065600083612844565b6001600160a01b038116600090815260056020526040812080546001929061308e908490613e64565b909155505060008281526004602052604080822080546001600160a01b0319169055518391906001600160a01b03841690600080516020614372833981519152908390a45050565b60006001600160a01b0384163b156131c957604051630a85bd0160e11b81526001600160a01b0385169063150b7a029061311a903390899088908890600401614301565b6020604051808303816000875af1925050508015613155575060408051601f3d908101601f191682019092526131529181019061433e565b60015b6131af573d808015613183576040519150601f19603f3d011682016040523d82523d6000602084013e613188565b606091505b5080516131a75760405162461bcd60e51b815260040161097c906142af565b805181602001fd5b6001600160e01b031916630a85bd0160e11b14905061210f565b506001949350505050565b6001600160a01b03831661322f5761322a81600a80546000838152600b60205260408120829055600182018355919091527fc65a7bb8d6351c1cf70c95a316cc6a92839c986682d98bc35f958f4883f9d2a80155565b613252565b816001600160a01b0316836001600160a01b03161461325257613252838261328c565b6001600160a01b03821661326957610aad81613329565b826001600160a01b0316826001600160a01b031614610aad57610aad82826133d8565b6000600161329984611ad7565b6132a39190613e64565b6000838152600960205260409020549091508082146132f6576001600160a01b03841660009081526008602090815260408083208584528252808320548484528184208190558352600990915290208190555b5060009182526009602090815260408084208490556001600160a01b039094168352600881528383209183525290812055565b600a5460009061333b90600190613e64565b6000838152600b6020526040812054600a805493945090928490811061336357613363614013565b9060005260206000200154905080600a838154811061338457613384614013565b6000918252602080832090910192909255828152600b9091526040808220849055858252812055600a8054806133bc576133bc61435b565b6001900381819060005260206000200160009055905550505050565b60006133e383611ad7565b6001600160a01b039093166000908152600860209081526040808320868452825280832085905593825260099052919091209190915550565b82805461342890613b01565b90600052602060002090601f01602090048101928261344a5760008555613490565b82601f1061346357805160ff1916838001178555613490565b82800160010185558215613490579182015b82811115613490578251825591602001919060010190613475565b5061349c9291506134a0565b5090565b5b8082111561349c57600081556001016134a1565b6001600160a01b0391909116815260200190565b6001600160e01b03198116811461182757600080fd5b6000602082840312156134f157600080fd5b81356134fc816134c9565b9392505050565b60005b8381101561351e578181015183820152602001613506565b8381111561208a5750506000910152565b60008151808452613547816020860160208601613503565b601f01601f19169290920160200192915050565b6020815260006134fc602083018461352f565b60006020828403121561358057600080fd5b5035919050565b6001600160a01b038116811461182757600080fd5b600080604083850312156135af57600080fd5b82356135ba81613587565b946020939093013593505050565b634e487b7160e01b600052604160045260246000fd5b60405160a081016001600160401b0381118282101715613600576136006135c8565b60405290565b604051601f8201601f191681016001600160401b038111828210171561362e5761362e6135c8565b604052919050565b60006001600160401b0382111561364f5761364f6135c8565b50601f01601f191660200190565b600061367061366b84613636565b613606565b905082815283838301111561368457600080fd5b828260208301376000602084830101529392505050565b600082601f8301126136ac57600080fd5b6134fc8383356020850161365d565b803580151581146136cb57600080fd5b919050565b6000806000606084860312156136e557600080fd5b8335925060208401356001600160401b0381111561370257600080fd5b61370e8682870161369b565b92505061371d604085016136bb565b90509250925092565b6000806040838503121561373957600080fd5b823561374481613587565b915060208301356001600160401b0381111561375f57600080fd5b61376b8582860161369b565b9150509250929050565b60008060006060848603121561378a57600080fd5b83356001600160401b038111156137a057600080fd5b6137ac8682870161369b565b9660208601359650604090950135949350505050565b6000806000606084860312156137d757600080fd5b83356137e281613587565b925060208401356137f281613587565b929592945050506040919091013590565b60006020828403121561381557600080fd5b81356001600160401b0381111561382b57600080fd5b61210f8482850161369b565b6000806040838503121561384a57600080fd5b50508035926020909101359150565b6000806040838503121561386c57600080fd5b8235915060208301356001600160401b0381111561375f57600080fd5b60006020828403121561389b57600080fd5b81356134fc81613587565b600080600080600080600060e0888a0312156138c157600080fd5b87356001600160401b03808211156138d857600080fd5b6138e48b838c0161369b565b985060208a01359150808211156138fa57600080fd5b506139078a828b0161369b565b96505060408801359450606088013593506080880135925060a08801356005811061393157600080fd5b8092505060c0880135905092959891949750929550565b6000806040838503121561395b57600080fd5b823561396681613587565b9150613974602084016136bb565b90509250929050565b6000806000806080858703121561399357600080fd5b843561399e81613587565b935060208501356139ae81613587565b92506040850135915060608501356001600160401b038111156139d057600080fd5b8501601f810187136139e157600080fd5b6139f08782356020840161365d565b91505092959194509250565b600080600080600060a08688031215613a1457600080fd5b85356001600160401b0380821115613a2b57600080fd5b613a3789838a0161369b565b96506020880135915080821115613a4d57600080fd5b613a5989838a0161369b565b95506040880135915080821115613a6f57600080fd5b50613a7c8882890161369b565b9350506060860135613a8d81613587565b91506080860135613a9d81613587565b809150509295509295909350565b60008060408385031215613abe57600080fd5b8235613ac981613587565b91506020830135613ad981613587565b809150509250929050565b600060208284031215613af657600080fd5b81516134fc81613587565b600181811c90821680613b1557607f821691505b60208210811415613b3657634e487b7160e01b600052602260045260246000fd5b50919050565b60208082526005908201526425a218189960d91b604082015260600190565b838152606060208201526000613b74606083018561352f565b90508215156040830152949350505050565b6001600160a01b038316815260406020820181905260009061210f9083018461352f565b60208082526005908201526412d10c0c4d60da1b604082015260600190565b60a081526000613bdc60a083018861352f565b60208301969096525060408101939093526001600160a01b03919091166060830152608090910152919050565b600060208284031215613c1b57600080fd5b5051919050565b634e487b7160e01b600052601160045260246000fd5b60008219821115613c4b57613c4b613c22565b500190565b6001600160a01b039384168152919092166020820152604081019190915260600190565b6020808252601f908201527f5265656e7472616e637947756172643a207265656e7472616e742063616c6c00604082015260600190565b600082601f830112613cbc57600080fd5b8151613cca61366b82613636565b818152846020838601011115613cdf57600080fd5b61210f826020830160208701613503565b600060808284031215613d0257600080fd5b604051608081016001600160401b038082118383101715613d2557613d256135c8565b816040528293508451835260208501519150613d4082613587565b816020840152604085015160408401526060850151915080821115613d6457600080fd5b50613d7185828601613cab565b6060830152505092915050565b60008060408385031215613d9157600080fd5b82516001600160401b0380821115613da857600080fd5b613db486838701613cf0565b9350602091508185015181811115613dcb57600080fd5b8501601f81018713613ddc57600080fd5b805182811115613dee57613dee6135c8565b8060051b613dfd858201613606565b918252828101850191858101908a841115613e1757600080fd5b86850192505b83831015613e5357825186811115613e355760008081fd5b613e438c8983890101613cf0565b8352509186019190860190613e1d565b809750505050505050509250929050565b600082821015613e7657613e76613c22565b500390565b600082613e9857634e487b7160e01b600052601260045260246000fd5b500490565b600060608284031215613eaf57600080fd5b604051606081016001600160401b0381118282101715613ed157613ed16135c8565b604052825181526020830151613ee681613587565b60208201526040928301519281019290925250919050565b600060208284031215613f1057600080fd5b81516001600160401b0380821115613f2757600080fd5b9083019060a08286031215613f3b57600080fd5b613f436135de565b825182811115613f5257600080fd5b613f5e87828601613cab565b825250602083015160208201526040830151604082015260608301519150613f8582613587565b8160608201526080830151608082015280935050505092915050565b838152606060208201526000613fba606083018561352f565b8281036040840152835160a08252613fd560a083018261352f565b60208681015190840152604080870151908401526060808701516001600160a01b031690840152608095860151959092019490945295945050505050565b634e487b7160e01b600052603260045260246000fd5b848152608060208201526000614042608083018661352f565b6001600160a01b03949094166040830152506060015292915050565b6001600160a01b0389168152610100602082018190526000906140838382018b61352f565b90508281036040840152614097818a61352f565b9150508660608301528560808301528460a0830152600584106140ca57634e487b7160e01b600052602160045260246000fd5b60c082019390935260e001529695505050505050565b60208082526031908201527f4552433732313a207472616e736665722063616c6c6572206973206e6f74206f6040820152701ddb995c881b9bdc88185c1c1c9bdd9959607a1b606082015260800190565b606081526000614144606083018661352f565b60208301949094525060400152919050565b8054600090600181811c908083168061417057607f831692505b602080841082141561419257634e487b7160e01b600052602260045260246000fd5b8180156141a657600181146141b7576141e4565b60ff198616895284890196506141e4565b60008881526020902060005b868110156141dc5781548b8201529085019083016141c3565b505084890196505b50505050505092915050565b600061210f6141ff8386614156565b84614156565b83815260606020820152600061421e606083018561352f565b905060018060a01b0383166040830152949350505050565b674b616c6569646f5f60c01b815260008251614259816008850160208701613503565b9190910160080192915050565b600060001982141561427a5761427a613c22565b5060010190565b6000806040838503121561429457600080fd5b825161429f81613587565b6020939093015192949293505050565b60208082526032908201527f4552433732313a207472616e7366657220746f206e6f6e20455243373231526560408201527131b2b4bb32b91034b6b83632b6b2b73a32b960711b606082015260800190565b6001600160a01b03858116825284166020820152604081018390526080606082018190526000906143349083018461352f565b9695505050505050565b60006020828403121561435057600080fd5b81516134fc816134c9565b634e487b7160e01b600052603160045260246000fdfeddf252ad1be2c89b69c2b068fc378daa952ba7f163c4a11628f55a4df523b3efa26469706673582212207106d206c4e412918c2040cc9bc2a23f69b1f6009b8fbb7ef4ccf29d86e598c364736f6c634300080a0033",
  "deployedBytecode": "0x60806040526004361061022e5760003560e01c80630106d8eb1461023357806301ffc9a71461025e57806306fdde031461028e578063081812fc146102b0578063095ea7b3146102d057806313c1f278146102f2578063179bcff71461031257806318160ddd146103325780631daf7ff9146103515780632231c1eb1461036457806323b872dd1461037957806327b7a2f5146103995780632bc4bc68146103b75780632f745c59146103d757806332b18f6d146103f757806337df00c9146104175780633ccfd60b1461043757806342842e0e1461044c578063430bf08a1461046c578063444115f614610481578063454a2ab3146104a15780634b455a51146104b45780634f6ccce7146104d457806360c5cc3a146104f45780636352211e146105145780636a58767e1461053457806370a08231146105495780637ccacd49146105695780637cf175fb1461057c578063899c9989146105915780638da5cb5b146105b15780638f6059d6146105c657806393525d39146105db57806395d89b41146105fb578063a22cb46514610610578063b69ef8a814610630578063b88d4fde14610643578063c531c23614610663578063c87b56dd14610683578063c9cd71b5146106a3578063d4f6b5ec146106b8578063d6d0faee146106d8578063d8680069146106f8578063d96a094a1461070b578063e2f5fc781461071e578063e6e268f414610733578063e985e9c514610748578063ef706adf14610768578063f072629114610788575b600080fd5b34801561023f57600080fd5b5061024861079d565b60405161025591906134b5565b60405180910390f35b34801561026a57600080fd5b5061027e6102793660046134df565b61084b565b6040519015158152602001610255565b34801561029a57600080fd5b506102a3610882565b604051610255919061355b565b3480156102bc57600080fd5b506102486102cb36600461356e565b610914565b3480156102dc57600080fd5b506102f06102eb36600461359c565b6109a1565b005b3480156102fe57600080fd5b506102f061030d3660046136d0565b610ab2565b34801561031e57600080fd5b506102f061032d366004613726565b610bbb565b34801561033e57600080fd5b50600a545b604051908152602001610255565b6102f061035f366004613775565b610cc1565b34801561037057600080fd5b50610248610df8565b34801561038557600080fd5b506102f06103943660046137c2565b610e29565b3480156103a557600080fd5b50600d546001600160a01b0316610248565b3480156103c357600080fd5b506102f06103d2366004613803565b610e6b565b3480156103e357600080fd5b506103436103f236600461359c565b610f6e565b34801561040357600080fd5b506102f0610412366004613837565b611004565b34801561042357600080fd5b506102f061043236600461356e565b6111a5565b34801561044357600080fd5b506102f061126d565b34801561045857600080fd5b506102f06104673660046137c2565b61135d565b34801561047857600080fd5b50610248611368565b34801561048d57600080fd5b506102f061049c366004613859565b611397565b6102f06104af36600461356e565b611554565b3480156104c057600080fd5b506102f06104cf36600461356e565b6116d4565b3480156104e057600080fd5b506103436104ef36600461356e565b61182a565b34801561050057600080fd5b506102f061050f36600461356e565b6118bd565b34801561052057600080fd5b5061024861052f36600461356e565b611a53565b34801561054057600080fd5b50610248611aa0565b34801561055557600080fd5b50610343610564366004613889565b611ad7565b6102f0610577366004613859565b611b5e565b34801561058857600080fd5b50610248611c80565b34801561059d57600080fd5b506102f06105ac3660046138a6565b611cb2565b3480156105bd57600080fd5b50610248611dea565b3480156105d257600080fd5b50610248611e34565b3480156105e757600080fd5b506102f06105f636600461356e565b611e6a565b34801561060757600080fd5b506102a3611f88565b34801561061c57600080fd5b506102f061062b366004613948565b611f97565b34801561063c57600080fd5b5047610343565b34801561064f57600080fd5b506102f061065e36600461397d565b612058565b34801561066f57600080fd5b5061034361067e366004613775565b612090565b34801561068f57600080fd5b506102a361069e36600461356e565b612117565b3480156106af57600080fd5b50610248612273565b3480156106c457600080fd5b506102f06106d3366004613859565b6122a3565b3480156106e457600080fd5b506102f06106f33660046139fc565b61230a565b6102f061070636600461356e565b6123d5565b6102f061071936600461356e565b61253c565b34801561072a57600080fd5b50610248612615565b34801561073f57600080fd5b5061034361264d565b34801561075457600080fd5b5061027e610763366004613aab565b61265d565b34801561077457600080fd5b506102f061078336600461356e565b61268b565b34801561079457600080fd5b506102486127f1565b600d546040516d22b733b634b9b420bab1ba34b7b760911b60208201526000916001600160a01b031690638eaa6ac090602e015b604051602081830303815290604052805190602001206040518263ffffffff1660e01b815260040161080591815260200190565b602060405180830381865afa158015610822573d6000803e3d6000fd5b505050506040513d601f19601f820116820180604052508101906108469190613ae4565b905090565b60006001600160e01b031982166380ac58cd60e01b148061087c57506001600160e01b03198216635b5e139f60e01b145b92915050565b60606000805461089190613b01565b80601f01602080910402602001604051908101604052809291908181526020018280546108bd90613b01565b801561090a5780601f106108df5761010080835404028352916020019161090a565b820191906000526020600020905b8154815290600101906020018083116108ed57829003601f168201915b5050505050905090565b600061091f82612827565b6109855760405162461bcd60e51b815260206004820152602c60248201527f4552433732313a20617070726f76656420717565727920666f72206e6f6e657860448201526b34b9ba32b73a103a37b5b2b760a11b60648201526084015b60405180910390fd5b506000908152600660205260409020546001600160a01b031690565b60006109ac82611a53565b9050806001600160a01b0316836001600160a01b03161415610a1a5760405162461bcd60e51b815260206004820152602160248201527f4552433732313a20617070726f76616c20746f2063757272656e74206f776e656044820152603960f91b606482015260840161097c565b336001600160a01b0382161480610a365750610a36813361265d565b610aa35760405162461bcd60e51b815260206004820152603860248201527f4552433732313a20617070726f76652063616c6c6572206973206e6f74206f776044820152771b995c881b9bdc88185c1c1c9bdd995908199bdc88185b1b60421b606482015260840161097c565b610aad8383612844565b505050565b33610abb6128b2565b6001600160a01b03166314afd79e306040518263ffffffff1660e01b8152600401610ae691906134b5565b602060405180830381865afa158015610b03573d6000803e3d6000fd5b505050506040513d601f19601f82011682018060405250810190610b279190613ae4565b6001600160a01b031614610b4d5760405162461bcd60e51b815260040161097c90613b3c565b610b556128bc565b6001600160a01b03166313c1f2788484846040518463ffffffff1660e01b8152600401610b8493929190613b5b565b600060405180830381600087803b158015610b9e57600080fd5b505af1158015610bb2573d6000803e3d6000fd5b50505050505050565b33610bc46128b2565b6001600160a01b03166314afd79e306040518263ffffffff1660e01b8152600401610bef91906134b5565b602060405180830381865afa158015610c0c573d6000803e3d6000fd5b505050506040513d601f19601f82011682018060405250810190610c309190613ae4565b6001600160a01b031614610c565760405162461bcd60e51b815260040161097c90613b3c565b610c5e6128b2565b6001600160a01b031663179bcff783836040518363ffffffff1660e01b8152600401610c8b929190613b86565b600060405180830381600087803b158015610ca557600080fd5b505af1158015610cb9573d6000803e3d6000fd5b505050505050565b33610cca6128b2565b6001600160a01b03166314afd79e306040518263ffffffff1660e01b8152600401610cf591906134b5565b602060405180830381865afa158015610d12573d6000803e3d6000fd5b505050506040513d601f19601f82011682018060405250810190610d369190613ae4565b6001600160a01b03161415610d5d5760405162461bcd60e51b815260040161097c90613baa565b610d656128c6565b6001600160a01b031663171a133d84848433346040518663ffffffff1660e01b8152600401610d98959493929190613bc9565b6020604051808303816000875af1158015610db7573d6000803e3d6000fd5b505050506040513d601f19601f82011682018060405250810190610ddb9190613c09565b5034600e6000828254610dee9190613c38565b9091555050505050565b600d546040516613dc195b909a5960ca1b60208201526000916001600160a01b031690638eaa6ac0906027016107d1565b610e348383836128d0565b610e3c612901565b6001600160a01b031663465bcf058484846040518463ffffffff1660e01b8152600401610b8493929190613c50565b33610e746128b2565b6001600160a01b03166314afd79e306040518263ffffffff1660e01b8152600401610e9f91906134b5565b602060405180830381865afa158015610ebc573d6000803e3d6000fd5b505050506040513d601f19601f82011682018060405250810190610ee09190613ae4565b6001600160a01b031614610f065760405162461bcd60e51b815260040161097c90613b3c565b610f0e61290b565b6001600160a01b031663b8926f2c826040518263ffffffff1660e01b8152600401610f39919061355b565b600060405180830381600087803b158015610f5357600080fd5b505af1158015610f67573d6000803e3d6000fd5b5050505050565b6000610f7983611ad7565b8210610fdb5760405162461bcd60e51b815260206004820152602b60248201527f455243373231456e756d657261626c653a206f776e657220696e646578206f7560448201526a74206f6620626f756e647360a81b606482015260840161097c565b506001600160a01b03919091166000908152600860209081526040808320938352929052205490565b3361100d6128b2565b6001600160a01b03166314afd79e306040518263ffffffff1660e01b815260040161103891906134b5565b602060405180830381865afa158015611055573d6000803e3d6000fd5b505050506040513d601f19601f820116820180604052508101906110799190613ae4565b6001600160a01b03161461109f5760405162461bcd60e51b815260040161097c90613b3c565b6002600c5414156110c25760405162461bcd60e51b815260040161097c90613c74565b6002600c556000806110d2612915565b6040516332b18f6d60e01b815260048101869052602481018590526001600160a01b0391909116906332b18f6d906044016000604051808303816000875af1158015611122573d6000803e3d6000fd5b505050506040513d6000823e601f3d908101601f1916820160405261114a9190810190613d7e565b9150915061115c82602001518561291f565b8160400151600e60008282546111729190613e64565b909155505060408201516111919061118c90600a90613e7b565b612961565b61119a81612972565b50506001600c555050565b80336111af6129ec565b6001600160a01b031663cc889b0b836040518263ffffffff1660e01b81526004016111dc91815260200190565b606060405180830381865afa1580156111f9573d6000803e3d6000fd5b505050506040513d601f19601f8201168201806040525081019061121d9190613e9d565b602001516001600160a01b03161461125f5760405162461bcd60e51b815260206004820152600560248201526425a218991b60d91b604482015260640161097c565b61126982336129f6565b5050565b336112766128b2565b6001600160a01b03166314afd79e306040518263ffffffff1660e01b81526004016112a191906134b5565b602060405180830381865afa1580156112be573d6000803e3d6000fd5b505050506040513d601f19601f820116820180604052508101906112e29190613ae4565b6001600160a01b0316146113085760405162461bcd60e51b815260040161097c90613b3c565b600061131261264d565b905060006113203383612aa2565b9050801561126957611330612901565b6001600160a01b031663279862cb836040518263ffffffff1660e01b8152600401610c8b91815260200190565b610e34838383612b76565b600d546040516415985d5b1d60da1b60208201526000916001600160a01b031690638eaa6ac0906025016107d1565b336113a06128b2565b6001600160a01b03166314afd79e306040518263ffffffff1660e01b81526004016113cb91906134b5565b602060405180830381865afa1580156113e8573d6000803e3d6000fd5b505050506040513d601f19601f8201168201806040525081019061140c9190613ae4565b6001600160a01b0316146114325760405162461bcd60e51b815260040161097c90613b3c565b600061143c6128c6565b6001600160a01b03166319b05f49846040518263ffffffff1660e01b815260040161146991815260200190565b6000604051808303816000875af1158015611488573d6000803e3d6000fd5b505050506040513d6000823e601f3d908101601f191682016040526114b09190810190613efe565b90506114ba61290b565b6001600160a01b031663a9ad60f38484846040518463ffffffff1660e01b81526004016114e993929190613fa1565b600060405180830381600087803b15801561150357600080fd5b505af1158015611517573d6000803e3d6000fd5b5050505061152a81606001518484612b91565b61153e600a826080015161118c9190613e7b565b8060800151600e6000828254610dee9190613e64565b3361155d6128b2565b6001600160a01b03166314afd79e306040518263ffffffff1660e01b815260040161158891906134b5565b602060405180830381865afa1580156115a5573d6000803e3d6000fd5b505050506040513d601f19601f820116820180604052508101906115c99190613ae4565b6001600160a01b031614156115f05760405162461bcd60e51b815260040161097c90613baa565b6002600c5414156116135760405162461bcd60e51b815260040161097c90613c74565b6002600c55600061162261290b565b604051637ee8065f60e01b8152600481018490523360248201523460448201526001600160a01b039190911690637ee8065f906064016060604051808303816000875af1158015611677573d6000803e3d6000fd5b505050506040513d601f19601f8201168201806040525081019061169b9190613e9d565b90506116a681612bf9565b60408101516116b59034613e64565b600e60008282546116c69190613c38565b90915550506001600c555050565b336116dd6128b2565b6001600160a01b03166314afd79e306040518263ffffffff1660e01b815260040161170891906134b5565b602060405180830381865afa158015611725573d6000803e3d6000fd5b505050506040513d601f19601f820116820180604052508101906117499190613ae4565b6001600160a01b03161461176f5760405162461bcd60e51b815260040161097c90613b3c565b3061177982611a53565b6001600160a01b0316146117b75760405162461bcd60e51b81526020600482015260056024820152644b4431323160d81b604482015260640161097c565b6117bf61290b565b6001600160a01b0316634b455a51826040518263ffffffff1660e01b81526004016117ec91815260200190565b600060405180830381600087803b15801561180657600080fd5b505af115801561181a573d6000803e3d6000fd5b5050505061182781612c0b565b50565b6000611835600a5490565b82106118985760405162461bcd60e51b815260206004820152602c60248201527f455243373231456e756d657261626c653a20676c6f62616c20696e646578206f60448201526b7574206f6620626f756e647360a01b606482015260840161097c565b600a82815481106118ab576118ab614013565b90600052602060002001549050919050565b336118c66128b2565b6001600160a01b03166314afd79e306040518263ffffffff1660e01b81526004016118f191906134b5565b602060405180830381865afa15801561190e573d6000803e3d6000fd5b505050506040513d601f19601f820116820180604052508101906119329190613ae4565b6001600160a01b0316146119585760405162461bcd60e51b815260040161097c90613b3c565b6119606128bc565b6001600160a01b031663897615e6826040518263ffffffff1660e01b815260040161198d91815260200190565b602060405180830381865afa1580156119aa573d6000803e3d6000fd5b505050506040513d601f19601f820116820180604052508101906119ce9190613ae4565b6001600160a01b03166119e082611a53565b6001600160a01b031614611a1e5760405162461bcd60e51b81526020600482015260056024820152644b4431333160d81b604482015260640161097c565b611a266128bc565b6001600160a01b03166319b05f49826040518263ffffffff1660e01b8152600401610f3991815260200190565b6000818152600460205260408120546001600160a01b03168061087c5760405162461bcd60e51b815260206004820152600560248201526412d10c4c4d60da1b604482015260640161097c565b600d546040516c4d65646961526567697374727960981b60208201526000916001600160a01b031690638eaa6ac090602d016107d1565b60006001600160a01b038216611b425760405162461bcd60e51b815260206004820152602a60248201527f4552433732313a2062616c616e636520717565727920666f7220746865207a65604482015269726f206164647265737360b01b606482015260840161097c565b506001600160a01b031660009081526005602052604090205490565b33611b676128b2565b6001600160a01b03166314afd79e306040518263ffffffff1660e01b8152600401611b9291906134b5565b602060405180830381865afa158015611baf573d6000803e3d6000fd5b505050506040513d601f19601f82011682018060405250810190611bd39190613ae4565b6001600160a01b03161415611bfa5760405162461bcd60e51b815260040161097c90613baa565b611c0261290b565b6001600160a01b0316636c15b2bf838333346040518563ffffffff1660e01b8152600401611c339493929190614029565b600060405180830381600087803b158015611c4d57600080fd5b505af1158015611c61573d6000803e3d6000fd5b5050505034600e6000828254611c779190613c38565b90915550505050565b600d546040516713d999995c909a5960c21b60208201526000916001600160a01b031690638eaa6ac0906028016107d1565b33611cbb6128b2565b6001600160a01b03166314afd79e306040518263ffffffff1660e01b8152600401611ce691906134b5565b602060405180830381865afa158015611d03573d6000803e3d6000fd5b505050506040513d601f19601f82011682018060405250810190611d279190613ae4565b6001600160a01b031614611d4d5760405162461bcd60e51b815260040161097c90613b3c565b6000611d5761290b565b6001600160a01b031663e6851b98308a8a8a8a8a8a8a6040518963ffffffff1660e01b8152600401611d9098979695949392919061405e565b6020604051808303816000875af1158015611daf573d6000803e3d6000fd5b505050506040513d601f19601f82011682018060405250810190611dd39190613c09565b9050611de0308289612b91565b5050505050505050565b600d5460408051631abe729160e31b815290516000926001600160a01b03169163d5f394889160048083019260209291908290030181865afa158015610822573d6000803e3d6000fd5b600d546040516b4d65646961466163746f727960a01b60208201526000916001600160a01b031690638eaa6ac090602c016107d1565b33611e736128b2565b6001600160a01b03166314afd79e306040518263ffffffff1660e01b8152600401611e9e91906134b5565b602060405180830381865afa158015611ebb573d6000803e3d6000fd5b505050506040513d601f19601f82011682018060405250810190611edf9190613ae4565b6001600160a01b031614611f055760405162461bcd60e51b815260040161097c90613b3c565b61182781611f116129ec565b6001600160a01b031663cc889b0b846040518263ffffffff1660e01b8152600401611f3e91815260200190565b606060405180830381865afa158015611f5b573d6000803e3d6000fd5b505050506040513d601f19601f82011682018060405250810190611f7f9190613e9d565b602001516129f6565b60606001805461089190613b01565b6001600160a01b038216331415611fec5760405162461bcd60e51b815260206004820152601960248201527822a9219b99189d1030b8383937bb32903a379031b0b63632b960391b604482015260640161097c565b3360008181526007602090815260408083206001600160a01b03871680855290835292819020805460ff191686151590811790915590519081529192917f17307eab39ab6107e8899845ad3d59bd9653f200f220920489ca2b5937696c31910160405180910390a35050565b6120623383612c75565b61207e5760405162461bcd60e51b815260040161097c906140e0565b61208a84848484612d37565b50505050565b6040516303fb4aab60e41b815260009073__$a79fa16630ef50be54c6520a39abca49df$__90633fb4aab0906120ce90879087908790600401614131565b602060405180830381865af41580156120eb573d6000803e3d6000fd5b505050506040513d601f19601f8201168201806040525081019061210f9190613c09565b949350505050565b606061212282612827565b6121865760405162461bcd60e51b815260206004820152602f60248201527f4552433732314d657461646174613a2055524920717565727920666f72206e6f60448201526e3732bc34b9ba32b73a103a37b5b2b760891b606482015260840161097c565b60006002805461219590613b01565b90501161223857600082815260036020526040902080546121b590613b01565b80601f01602080910402602001604051908101604052809291908181526020018280546121e190613b01565b801561222e5780601f106122035761010080835404028352916020019161222e565b820191906000526020600020905b81548152906001019060200180831161221157829003601f168201915b505050505061087c565b60026003600084815260200190815260200160002060405160200161225e9291906141f0565b60405160208183030381529060405292915050565b600d54604051651059141bdbdb60d21b60208201526000916001600160a01b031690638eaa6ac0906026016107d1565b336122ad83611a53565b6001600160a01b0316146122d35760405162461bcd60e51b815260040161097c90613b3c565b6122db6128bc565b6001600160a01b031663fb772f4b8383336040518463ffffffff1660e01b8152600401610c8b93929190614205565b600d546001600160a01b03161561234b5760405162461bcd60e51b8152602060048201526005602482015264041523030360dc1b604482015260640161097c565b845161235e90600090602088019061341c565b50846040516020016123709190614236565b6040516020818303038152906040526001908051906020019061239492919061341c565b5083516123a890600290602087019061341c565b506123b582600085612b91565b600d80546001600160a01b0319166001600160a01b038316179055610f67565b336123de6128b2565b6001600160a01b03166314afd79e306040518263ffffffff1660e01b815260040161240991906134b5565b602060405180830381865afa158015612426573d6000803e3d6000fd5b505050506040513d601f19601f8201168201806040525081019061244a9190613ae4565b6001600160a01b031614156124715760405162461bcd60e51b815260040161097c90613baa565b61247961290b565b6040516239a3eb60e31b8152600481018390523460248201526001600160a01b0391909116906301cd1f58906044015b600060405180830381600087803b1580156124c357600080fd5b505af11580156124d7573d6000803e3d6000fd5b505050506124e5338261291f565b6124f361118c600a34613e7b565b6124fb612901565b604051635dd995b560e01b8152600481018390523460248201523360448201524260648201526001600160a01b039190911690635dd995b590608401610f39565b336125456128b2565b6001600160a01b03166314afd79e306040518263ffffffff1660e01b815260040161257091906134b5565b602060405180830381865afa15801561258d573d6000803e3d6000fd5b505050506040513d601f19601f820116820180604052508101906125b19190613ae4565b6001600160a01b031614156125d85760405162461bcd60e51b815260040161097c90613baa565b6125e061290b565b604051639d23b6af60e01b8152600481018390523460248201526001600160a01b039190911690639d23b6af906044016124a9565b600d546040516d50726f706f73616c52657669657760901b60208201526000916001600160a01b031690638eaa6ac090602e016107d1565b6000600e54476108469190613e64565b6001600160a01b03918216600090815260076020908152604080832093909416825291909152205460ff1690565b336126946128b2565b6001600160a01b03166314afd79e306040518263ffffffff1660e01b81526004016126bf91906134b5565b602060405180830381865afa1580156126dc573d6000803e3d6000fd5b505050506040513d601f19601f820116820180604052508101906127009190613ae4565b6001600160a01b031614156127275760405162461bcd60e51b815260040161097c90613baa565b6002600c54141561274a5760405162461bcd60e51b815260040161097c90613c74565b6002600c5560006127596128c6565b6040516315f5a0b160e21b8152600481018490523360248201526001600160a01b0391909116906357d682c4906044016000604051808303816000875af11580156127a8573d6000803e3d6000fd5b505050506040513d6000823e601f3d908101601f191682016040526127d09190810190613efe565b90506127db81612d6a565b8060800151600e60008282546116c69190613e64565b600d546040516b22bb32b73a22b6b4ba3a32b960a11b60208201526000916001600160a01b031690638eaa6ac090602c016107d1565b6000908152600460205260409020546001600160a01b0316151590565b600081815260066020526040902080546001600160a01b0319166001600160a01b038416908117909155819061287982611a53565b6001600160a01b03167f8c5be1e5ebec7d5bd14f71427d1e84f3dd0314c0f7b2291e5b200ac8c7c3b92560405160405180910390a45050565b6000610846611aa0565b6000610846612615565b6000610846611c80565b6128da3382612c75565b6128f65760405162461bcd60e51b815260040161097c906140e0565b610aad838383612d7c565b60006108466127f1565b6000610846612273565b6000610846610df8565b61292a308383612d7c565b612932612901565b6001600160a01b031663465bcf053084846040518463ffffffff1660e01b8152600401610c8b93929190613c50565b61126961296c611368565b82612aa2565b60005b815181101561126957600082828151811061299257612992614013565b6020026020010151905080604001516000146129d9578060400151600e60008282546129be9190613e64565b925050819055506129d781602001518260400151612aa2565b505b50806129e481614266565b915050612975565b600061084661079d565b6000612a0061290b565b6001600160a01b031663f86fde57846040518263ffffffff1660e01b8152600401612a2d91815260200190565b60408051808303816000875af1158015612a4b573d6000803e3d6000fd5b505050506040513d601f19601f82011682018060405250810190612a6f9190614281565b91505080600e6000828254612a849190613e64565b90915550612a949050828461291f565b610aad61118c600a83613e7b565b6000826001600160a01b03168261271090604051600060405180830381858888f193505050503d8060008114612af4576040519150601f19603f3d011682016040523d82523d6000602084013e612af9565b606091505b5050809150508061087c57612b0c612901565b60405163ec720b9b60e01b81526001600160a01b03858116600483015260248201859052919091169063ec720b9b90604401600060405180830381600087803b158015612b5857600080fd5b505af1158015612b6c573d6000803e3d6000fd5b5050505092915050565b610aad83838360405180602001604052806000815250612058565b612b9b8383612f15565b60008281526003602090815260409091208251612bba9284019061341c565b508115610aad57612bc9612901565b6001600160a01b031663465bcf05600085856040518463ffffffff1660e01b8152600401610b8493929190613c50565b61126981602001518260400151612aa2565b612c1481613041565b604080516020808201808452600080845285815260039092529290209051612c3c929061341c565b50612c45612901565b6001600160a01b031663465bcf05306000846040518463ffffffff1660e01b8152600401610f3993929190613c50565b6000612c8082612827565b612ce15760405162461bcd60e51b815260206004820152602c60248201527f4552433732313a206f70657261746f7220717565727920666f72206e6f6e657860448201526b34b9ba32b73a103a37b5b2b760a11b606482015260840161097c565b6000612cec83611a53565b9050806001600160a01b0316846001600160a01b03161480612d275750836001600160a01b0316612d1c84610914565b6001600160a01b0316145b8061210f575061210f818561265d565b612d42848484612d7c565b612d4e848484846130d6565b61208a5760405162461bcd60e51b815260040161097c906142af565b61126981606001518260800151612aa2565b826001600160a01b0316612d8f82611a53565b6001600160a01b031614612df75760405162461bcd60e51b815260206004820152602960248201527f4552433732313a207472616e73666572206f6620746f6b656e2074686174206960448201526839903737ba1037bbb760b91b606482015260840161097c565b6001600160a01b038216612e595760405162461bcd60e51b8152602060048201526024808201527f4552433732313a207472616e7366657220746f20746865207a65726f206164646044820152637265737360e01b606482015260840161097c565b612e648383836131d4565b612e6f600082612844565b6001600160a01b0383166000908152600560205260408120805460019290612e98908490613e64565b90915550506001600160a01b0382166000908152600560205260408120805460019290612ec6908490613c38565b909155505060008181526004602052604080822080546001600160a01b0319166001600160a01b03868116918217909255915184939187169160008051602061437283398151915291a4505050565b6001600160a01b038216612f6b5760405162461bcd60e51b815260206004820181905260248201527f4552433732313a206d696e7420746f20746865207a65726f2061646472657373604482015260640161097c565b612f7481612827565b15612fc05760405162461bcd60e51b815260206004820152601c60248201527b115490cdcc8c4e881d1bdad95b88185b1c9958591e481b5a5b9d195960221b604482015260640161097c565b612fcc600083836131d4565b6001600160a01b0382166000908152600560205260408120805460019290612ff5908490613c38565b909155505060008181526004602052604080822080546001600160a01b0319166001600160a01b0386169081179091559051839290600080516020614372833981519152908290a45050565b600061304c82611a53565b905061305a816000846131d4565b613065600083612844565b6001600160a01b038116600090815260056020526040812080546001929061308e908490613e64565b909155505060008281526004602052604080822080546001600160a01b0319169055518391906001600160a01b03841690600080516020614372833981519152908390a45050565b60006001600160a01b0384163b156131c957604051630a85bd0160e11b81526001600160a01b0385169063150b7a029061311a903390899088908890600401614301565b6020604051808303816000875af1925050508015613155575060408051601f3d908101601f191682019092526131529181019061433e565b60015b6131af573d808015613183576040519150601f19603f3d011682016040523d82523d6000602084013e613188565b606091505b5080516131a75760405162461bcd60e51b815260040161097c906142af565b805181602001fd5b6001600160e01b031916630a85bd0160e11b14905061210f565b506001949350505050565b6001600160a01b03831661322f5761322a81600a80546000838152600b60205260408120829055600182018355919091527fc65a7bb8d6351c1cf70c95a316cc6a92839c986682d98bc35f958f4883f9d2a80155565b613252565b816001600160a01b0316836001600160a01b03161461325257613252838261328c565b6001600160a01b03821661326957610aad81613329565b826001600160a01b0316826001600160a01b031614610aad57610aad82826133d8565b6000600161329984611ad7565b6132a39190613e64565b6000838152600960205260409020549091508082146132f6576001600160a01b03841660009081526008602090815260408083208584528252808320548484528184208190558352600990915290208190555b5060009182526009602090815260408084208490556001600160a01b039094168352600881528383209183525290812055565b600a5460009061333b90600190613e64565b6000838152600b6020526040812054600a805493945090928490811061336357613363614013565b9060005260206000200154905080600a838154811061338457613384614013565b6000918252602080832090910192909255828152600b9091526040808220849055858252812055600a8054806133bc576133bc61435b565b6001900381819060005260206000200160009055905550505050565b60006133e383611ad7565b6001600160a01b039093166000908152600860209081526040808320868452825280832085905593825260099052919091209190915550565b82805461342890613b01565b90600052602060002090601f01602090048101928261344a5760008555613490565b82601f1061346357805160ff1916838001178555613490565b82800160010185558215613490579182015b82811115613490578251825591602001919060010190613475565b5061349c9291506134a0565b5090565b5b8082111561349c57600081556001016134a1565b6001600160a01b0391909116815260200190565b6001600160e01b03198116811461182757600080fd5b6000602082840312156134f157600080fd5b81356134fc816134c9565b9392505050565b60005b8381101561351e578181015183820152602001613506565b8381111561208a5750506000910152565b60008151808452613547816020860160208601613503565b601f01601f19169290920160200192915050565b6020815260006134fc602083018461352f565b60006020828403121561358057600080fd5b5035919050565b6001600160a01b038116811461182757600080fd5b600080604083850312156135af57600080fd5b82356135ba81613587565b946020939093013593505050565b634e487b7160e01b600052604160045260246000fd5b60405160a081016001600160401b0381118282101715613600576136006135c8565b60405290565b604051601f8201601f191681016001600160401b038111828210171561362e5761362e6135c8565b604052919050565b60006001600160401b0382111561364f5761364f6135c8565b50601f01601f191660200190565b600061367061366b84613636565b613606565b905082815283838301111561368457600080fd5b828260208301376000602084830101529392505050565b600082601f8301126136ac57600080fd5b6134fc8383356020850161365d565b803580151581146136cb57600080fd5b919050565b6000806000606084860312156136e557600080fd5b8335925060208401356001600160401b0381111561370257600080fd5b61370e8682870161369b565b92505061371d604085016136bb565b90509250925092565b6000806040838503121561373957600080fd5b823561374481613587565b915060208301356001600160401b0381111561375f57600080fd5b61376b8582860161369b565b9150509250929050565b60008060006060848603121561378a57600080fd5b83356001600160401b038111156137a057600080fd5b6137ac8682870161369b565b9660208601359650604090950135949350505050565b6000806000606084860312156137d757600080fd5b83356137e281613587565b925060208401356137f281613587565b929592945050506040919091013590565b60006020828403121561381557600080fd5b81356001600160401b0381111561382b57600080fd5b61210f8482850161369b565b6000806040838503121561384a57600080fd5b50508035926020909101359150565b6000806040838503121561386c57600080fd5b8235915060208301356001600160401b0381111561375f57600080fd5b60006020828403121561389b57600080fd5b81356134fc81613587565b600080600080600080600060e0888a0312156138c157600080fd5b87356001600160401b03808211156138d857600080fd5b6138e48b838c0161369b565b985060208a01359150808211156138fa57600080fd5b506139078a828b0161369b565b96505060408801359450606088013593506080880135925060a08801356005811061393157600080fd5b8092505060c0880135905092959891949750929550565b6000806040838503121561395b57600080fd5b823561396681613587565b9150613974602084016136bb565b90509250929050565b6000806000806080858703121561399357600080fd5b843561399e81613587565b935060208501356139ae81613587565b92506040850135915060608501356001600160401b038111156139d057600080fd5b8501601f810187136139e157600080fd5b6139f08782356020840161365d565b91505092959194509250565b600080600080600060a08688031215613a1457600080fd5b85356001600160401b0380821115613a2b57600080fd5b613a3789838a0161369b565b96506020880135915080821115613a4d57600080fd5b613a5989838a0161369b565b95506040880135915080821115613a6f57600080fd5b50613a7c8882890161369b565b9350506060860135613a8d81613587565b91506080860135613a9d81613587565b809150509295509295909350565b60008060408385031215613abe57600080fd5b8235613ac981613587565b91506020830135613ad981613587565b809150509250929050565b600060208284031215613af657600080fd5b81516134fc81613587565b600181811c90821680613b1557607f821691505b60208210811415613b3657634e487b7160e01b600052602260045260246000fd5b50919050565b60208082526005908201526425a218189960d91b604082015260600190565b838152606060208201526000613b74606083018561352f565b90508215156040830152949350505050565b6001600160a01b038316815260406020820181905260009061210f9083018461352f565b60208082526005908201526412d10c0c4d60da1b604082015260600190565b60a081526000613bdc60a083018861352f565b60208301969096525060408101939093526001600160a01b03919091166060830152608090910152919050565b600060208284031215613c1b57600080fd5b5051919050565b634e487b7160e01b600052601160045260246000fd5b60008219821115613c4b57613c4b613c22565b500190565b6001600160a01b039384168152919092166020820152604081019190915260600190565b6020808252601f908201527f5265656e7472616e637947756172643a207265656e7472616e742063616c6c00604082015260600190565b600082601f830112613cbc57600080fd5b8151613cca61366b82613636565b818152846020838601011115613cdf57600080fd5b61210f826020830160208701613503565b600060808284031215613d0257600080fd5b604051608081016001600160401b038082118383101715613d2557613d256135c8565b816040528293508451835260208501519150613d4082613587565b816020840152604085015160408401526060850151915080821115613d6457600080fd5b50613d7185828601613cab565b6060830152505092915050565b60008060408385031215613d9157600080fd5b82516001600160401b0380821115613da857600080fd5b613db486838701613cf0565b9350602091508185015181811115613dcb57600080fd5b8501601f81018713613ddc57600080fd5b805182811115613dee57613dee6135c8565b8060051b613dfd858201613606565b918252828101850191858101908a841115613e1757600080fd5b86850192505b83831015613e5357825186811115613e355760008081fd5b613e438c8983890101613cf0565b8352509186019190860190613e1d565b809750505050505050509250929050565b600082821015613e7657613e76613c22565b500390565b600082613e9857634e487b7160e01b600052601260045260246000fd5b500490565b600060608284031215613eaf57600080fd5b604051606081016001600160401b0381118282101715613ed157613ed16135c8565b604052825181526020830151613ee681613587565b60208201526040928301519281019290925250919050565b600060208284031215613f1057600080fd5b81516001600160401b0380821115613f2757600080fd5b9083019060a08286031215613f3b57600080fd5b613f436135de565b825182811115613f5257600080fd5b613f5e87828601613cab565b825250602083015160208201526040830151604082015260608301519150613f8582613587565b8160608201526080830151608082015280935050505092915050565b838152606060208201526000613fba606083018561352f565b8281036040840152835160a08252613fd560a083018261352f565b60208681015190840152604080870151908401526060808701516001600160a01b031690840152608095860151959092019490945295945050505050565b634e487b7160e01b600052603260045260246000fd5b848152608060208201526000614042608083018661352f565b6001600160a01b03949094166040830152506060015292915050565b6001600160a01b0389168152610100602082018190526000906140838382018b61352f565b90508281036040840152614097818a61352f565b9150508660608301528560808301528460a0830152600584106140ca57634e487b7160e01b600052602160045260246000fd5b60c082019390935260e001529695505050505050565b60208082526031908201527f4552433732313a207472616e736665722063616c6c6572206973206e6f74206f6040820152701ddb995c881b9bdc88185c1c1c9bdd9959607a1b606082015260800190565b606081526000614144606083018661352f565b60208301949094525060400152919050565b8054600090600181811c908083168061417057607f831692505b602080841082141561419257634e487b7160e01b600052602260045260246000fd5b8180156141a657600181146141b7576141e4565b60ff198616895284890196506141e4565b60008881526020902060005b868110156141dc5781548b8201529085019083016141c3565b505084890196505b50505050505092915050565b600061210f6141ff8386614156565b84614156565b83815260606020820152600061421e606083018561352f565b905060018060a01b0383166040830152949350505050565b674b616c6569646f5f60c01b815260008251614259816008850160208701613503565b9190910160080192915050565b600060001982141561427a5761427a613c22565b5060010190565b6000806040838503121561429457600080fd5b825161429f81613587565b6020939093015192949293505050565b60208082526032908201527f4552433732313a207472616e7366657220746f206e6f6e20455243373231526560408201527131b2b4bb32b91034b6b83632b6b2b73a32b960711b606082015260800190565b6001600160a01b03858116825284166020820152604081018390526080606082018190526000906143349083018461352f565b9695505050505050565b60006020828403121561435057600080fd5b81516134fc816134c9565b634e487b7160e01b600052603160045260246000fdfeddf252ad1be2c89b69c2b068fc378daa952ba7f163c4a11628f55a4df523b3efa26469706673582212207106d206c4e412918c2040cc9bc2a23f69b1f6009b8fbb7ef4ccf29d86e598c364736f6c634300080a0033",
  "libraries": {
    "Ad": "0x4a4274681C57B4eBc4B9AebEf1C292c650956E8F"
  },
  "devdoc": {
    "author": "Shumpei Koike - <shumpei.koike@bridges.inc>",
    "kind": "dev",
    "methods": {
      "acceptOffer(uint256,string)": {
        "details": "Accepts an offer by the Media.",
        "params": {
          "tokenId": "uint256 of the token ID",
          "tokenMetadata": "string of the NFT token metadata"
        }
      },
      "acceptProposal(uint256)": {
        "details": "Accepts the proposal.",
        "params": {
          "tokenId": "uint256 of the token ID"
        }
      },
      "adId(string,uint256,uint256)": {
        "details": "Returns ID based on the space metadata, display start timestamp, and      display end timestamp. These three makes it the unique.",
        "params": {
          "displayEndTimestamp": "uint256 of the end timestamp for the display",
          "displayStartTimestamp": "uint256 of the start timestamp for the display",
          "spaceMetadata": "uint256 of the space metadata"
        }
      },
      "adPoolAddress()": {
        "details": "Gets the address of AdPool."
      },
      "approve(address,uint256)": {
        "details": "See {IERC721-approve}."
      },
      "balance()": {
        "details": "Returns the balacne deposited on the proxy contract."
      },
      "balanceOf(address)": {
        "details": "See {IERC721-balanceOf}."
      },
      "bid(uint256)": {
        "details": "Bids to participate in an auction.      It is defined as an English Auction.",
        "params": {
          "tokenId": "uint256 of the token ID"
        }
      },
      "bidWithProposal(uint256,string)": {
        "details": "Bids to participate in an auction.      It is defined as an Open Bid.",
        "params": {
          "proposalMetadata": "string of the metadata hash",
          "tokenId": "uint256 of the token ID"
        }
      },
      "buy(uint256)": {
        "details": "Buys the token that is defined as the specific period on an ad space.      The price of the token is fixed.",
        "params": {
          "tokenId": "uint256 of the token ID"
        }
      },
      "buyBasedOnTime(uint256)": {
        "details": "Buys the token that is defined as the specific period on an ad space.      The price is decreasing as time goes by, that is defined as an Dutch Auction.",
        "params": {
          "tokenId": "uint256 of the token ID"
        }
      },
      "cancelOffer(uint256)": {
        "details": "Cancels an offer.",
        "params": {
          "tokenId": "uint256 of the token ID"
        }
      },
      "deletePeriod(uint256)": {
        "details": "Deletes a period and its token.      If there is any users locking the fund for the sale, the amount would be transfered      to the user when deleting the period.",
        "params": {
          "tokenId": "uint256 of the token ID"
        }
      },
      "denyProposal(uint256,string,bool)": {
        "details": "Denies the submitted proposal, mentioning what is the problem.",
        "params": {
          "offensive": "bool if the content would offend somebody",
          "reason": "string of the reason why it is rejected",
          "tokenId": "uint256 of the token ID"
        }
      },
      "englishAuctionAddress()": {
        "details": "Gets the address of EnglishAuction."
      },
      "eventEmitterAddress()": {
        "details": "Gets the address of EventEmitter."
      },
      "getApproved(uint256)": {
        "details": "See {IERC721-getApproved}."
      },
      "initialize(string,string,string,address,address)": {
        "details": "Initialize the instance.",
        "params": {
          "baseURI": "string of the base URI",
          "mediaEOA": "address of the media owner",
          "nameRegistry": "address of NameRegistry",
          "title": "string of the title of the instance",
          "tokenMetadata": "string of the token metadata"
        }
      },
      "isApprovedForAll(address,address)": {
        "details": "See {IERC721-isApprovedForAll}."
      },
      "mediaFactoryAddress()": {
        "details": "Gets the address of MediaFactory."
      },
      "mediaRegistryAddress()": {
        "details": "Gets the address of MediaRegistry."
      },
      "name()": {
        "details": "See {IERC721Metadata-name}."
      },
      "nameRegistryAddress()": {
        "details": "Gets the address of NameRegistry"
      },
      "newPeriod(string,string,uint256,uint256,uint256,uint8,uint256)": {
        "details": "Create a new period for a space. This function requires some params      to decide which kinds of pricing way and how much price to get started.",
        "params": {
          "displayEndTimestamp": "uint256 of the end timestamp for the display",
          "displayStartTimestamp": "uint256 of the start timestamp for the display",
          "minPrice": "uint256 of the minimum price to sell it out",
          "pricing": "uint256 of the pricing way",
          "saleEndTimestamp": "uint256 of the end timestamp for the sale",
          "spaceMetadata": "string of the space metadata",
          "tokenMetadata": "string of the token metadata"
        }
      },
      "newSpace(string)": {
        "details": "Creates a new space for the media account.",
        "params": {
          "spaceMetadata": "string of the space metadata"
        }
      },
      "offerBidAddress()": {
        "details": "Gets the address of OfferBid."
      },
      "offerPeriod(string,uint256,uint256)": {
        "details": "Offers to buy a period that the sender requests.",
        "params": {
          "displayEndTimestamp": "uint256 of the end timestamp for the display",
          "displayStartTimestamp": "uint256 of the start timestamp for the display",
          "spaceMetadata": "string of the space metadata"
        }
      },
      "openBidAddress()": {
        "details": "Gets the address of OpenBid."
      },
      "owner()": {
        "details": "Gets the owner address."
      },
      "ownerOf(uint256)": {
        "details": "See {IERC721-ownerOf}."
      },
      "proposalReviewAddress()": {
        "details": "Gets the address of ProposalReview."
      },
      "propose(uint256,string)": {
        "details": "Proposes the metadata to the token you bought.      Users can propose many times as long as it is accepted.",
        "params": {
          "metadata": "string of the proposal metadata",
          "tokenId": "uint256 of the token ID"
        }
      },
      "pushToSuccessfulBidder(uint256)": {
        "details": "Receives the token you bidded if you are the successful bidder.",
        "params": {
          "tokenId": "uint256 of the token ID"
        }
      },
      "receiveToken(uint256)": {
        "details": "Receives the token you bidded if you are the successful bidder.",
        "params": {
          "tokenId": "uint256 of the token ID"
        }
      },
      "safeTransferFrom(address,address,uint256)": {
        "details": "Overrides transferFrom to emit an event from the common emitter."
      },
      "safeTransferFrom(address,address,uint256,bytes)": {
        "details": "See {IERC721-safeTransferFrom}."
      },
      "selectProposal(uint256,uint256)": {
        "details": "Selects the best proposal bidded with.",
        "params": {
          "index": "uint256 of the index number",
          "tokenId": "uint256 of the token ID"
        }
      },
      "setApprovalForAll(address,bool)": {
        "details": "See {IERC721-setApprovalForAll}."
      },
      "supportsInterface(bytes4)": {
        "details": "See {IERC165-supportsInterface}."
      },
      "symbol()": {
        "details": "See {IERC721Metadata-symbol}."
      },
      "tokenByIndex(uint256)": {
        "details": "See {IERC721Enumerable-tokenByIndex}."
      },
      "tokenOfOwnerByIndex(address,uint256)": {
        "details": "See {IERC721Enumerable-tokenOfOwnerByIndex}."
      },
      "tokenURI(uint256)": {
        "details": "See {IERC721Metadata-tokenURI}."
      },
      "totalSupply()": {
        "details": "See {IERC721Enumerable-totalSupply}."
      },
      "transferFrom(address,address,uint256)": {
        "details": "Overrides transferFrom to emit an event from the common emitter."
      },
      "updateMedia(address,string)": {
        "details": "Updates the media EOA and the metadata.",
        "params": {
          "newMediaEOA": "address of a new EOA",
          "newMetadata": "string of a new metadata"
        }
      },
      "vaultAddress()": {
        "details": "Gets the address of Vault."
      },
      "withdraw()": {
        "details": "Withdraws the fund deposited to the proxy contract."
      },
      "withdrawalAmount()": {
        "details": "Returns the withdrawal amount."
      }
    },
    "title": "MediaFacade - A root contract that calls the processes of each media.",
    "version": 1
  },
  "userdoc": {
    "kind": "user",
    "methods": {},
    "version": 1
  },
  "storageLayout": {
    "storage": [
      {
        "astId": 2206,
        "contract": "contracts/MediaFacade.sol:MediaFacade",
        "label": "_name",
        "offset": 0,
        "slot": "0",
        "type": "t_string_storage"
      },
      {
        "astId": 2208,
        "contract": "contracts/MediaFacade.sol:MediaFacade",
        "label": "_symbol",
        "offset": 0,
        "slot": "1",
        "type": "t_string_storage"
      },
      {
        "astId": 2210,
        "contract": "contracts/MediaFacade.sol:MediaFacade",
        "label": "_baseURI",
        "offset": 0,
        "slot": "2",
        "type": "t_string_storage"
      },
      {
        "astId": 2214,
        "contract": "contracts/MediaFacade.sol:MediaFacade",
        "label": "_tokenURIs",
        "offset": 0,
        "slot": "3",
        "type": "t_mapping(t_uint256,t_string_storage)"
      },
      {
        "astId": 2218,
        "contract": "contracts/MediaFacade.sol:MediaFacade",
        "label": "_owners",
        "offset": 0,
        "slot": "4",
        "type": "t_mapping(t_uint256,t_address)"
      },
      {
        "astId": 2222,
        "contract": "contracts/MediaFacade.sol:MediaFacade",
        "label": "_balances",
        "offset": 0,
        "slot": "5",
        "type": "t_mapping(t_address,t_uint256)"
      },
      {
        "astId": 2226,
        "contract": "contracts/MediaFacade.sol:MediaFacade",
        "label": "_tokenApprovals",
        "offset": 0,
        "slot": "6",
        "type": "t_mapping(t_uint256,t_address)"
      },
      {
        "astId": 2232,
        "contract": "contracts/MediaFacade.sol:MediaFacade",
        "label": "_operatorApprovals",
        "offset": 0,
        "slot": "7",
        "type": "t_mapping(t_address,t_mapping(t_address,t_bool))"
      },
      {
        "astId": 2238,
        "contract": "contracts/MediaFacade.sol:MediaFacade",
        "label": "_ownedTokens",
        "offset": 0,
        "slot": "8",
        "type": "t_mapping(t_address,t_mapping(t_uint256,t_uint256))"
      },
      {
        "astId": 2242,
        "contract": "contracts/MediaFacade.sol:MediaFacade",
        "label": "_ownedTokensIndex",
        "offset": 0,
        "slot": "9",
        "type": "t_mapping(t_uint256,t_uint256)"
      },
      {
        "astId": 2245,
        "contract": "contracts/MediaFacade.sol:MediaFacade",
        "label": "_allTokens",
        "offset": 0,
        "slot": "10",
        "type": "t_array(t_uint256)dyn_storage"
      },
      {
        "astId": 2249,
        "contract": "contracts/MediaFacade.sol:MediaFacade",
        "label": "_allTokensIndex",
        "offset": 0,
        "slot": "11",
        "type": "t_mapping(t_uint256,t_uint256)"
      },
      {
        "astId": 114,
        "contract": "contracts/MediaFacade.sol:MediaFacade",
        "label": "_status",
        "offset": 0,
        "slot": "12",
        "type": "t_uint256"
      },
      {
        "astId": 1886,
        "contract": "contracts/MediaFacade.sol:MediaFacade",
        "label": "_nameRegistry",
        "offset": 0,
        "slot": "13",
        "type": "t_contract(INameRegistry)3992"
      },
      {
        "astId": 3250,
        "contract": "contracts/MediaFacade.sol:MediaFacade",
        "label": "_processingTotal",
        "offset": 0,
        "slot": "14",
        "type": "t_uint256"
      }
    ],
    "types": {
      "t_address": {
        "encoding": "inplace",
        "label": "address",
        "numberOfBytes": "20"
      },
      "t_array(t_uint256)dyn_storage": {
        "base": "t_uint256",
        "encoding": "dynamic_array",
        "label": "uint256[]",
        "numberOfBytes": "32"
      },
      "t_bool": {
        "encoding": "inplace",
        "label": "bool",
        "numberOfBytes": "1"
      },
      "t_contract(INameRegistry)3992": {
        "encoding": "inplace",
        "label": "contract INameRegistry",
        "numberOfBytes": "20"
      },
      "t_mapping(t_address,t_bool)": {
        "encoding": "mapping",
        "key": "t_address",
        "label": "mapping(address => bool)",
        "numberOfBytes": "32",
        "value": "t_bool"
      },
      "t_mapping(t_address,t_mapping(t_address,t_bool))": {
        "encoding": "mapping",
        "key": "t_address",
        "label": "mapping(address => mapping(address => bool))",
        "numberOfBytes": "32",
        "value": "t_mapping(t_address,t_bool)"
      },
      "t_mapping(t_address,t_mapping(t_uint256,t_uint256))": {
        "encoding": "mapping",
        "key": "t_address",
        "label": "mapping(address => mapping(uint256 => uint256))",
        "numberOfBytes": "32",
        "value": "t_mapping(t_uint256,t_uint256)"
      },
      "t_mapping(t_address,t_uint256)": {
        "encoding": "mapping",
        "key": "t_address",
        "label": "mapping(address => uint256)",
        "numberOfBytes": "32",
        "value": "t_uint256"
      },
      "t_mapping(t_uint256,t_address)": {
        "encoding": "mapping",
        "key": "t_uint256",
        "label": "mapping(uint256 => address)",
        "numberOfBytes": "32",
        "value": "t_address"
      },
      "t_mapping(t_uint256,t_string_storage)": {
        "encoding": "mapping",
        "key": "t_uint256",
        "label": "mapping(uint256 => string)",
        "numberOfBytes": "32",
        "value": "t_string_storage"
      },
      "t_mapping(t_uint256,t_uint256)": {
        "encoding": "mapping",
        "key": "t_uint256",
        "label": "mapping(uint256 => uint256)",
        "numberOfBytes": "32",
        "value": "t_uint256"
      },
      "t_string_storage": {
        "encoding": "bytes",
        "label": "string",
        "numberOfBytes": "32"
      },
      "t_uint256": {
        "encoding": "inplace",
        "label": "uint256",
        "numberOfBytes": "32"
      }
    }
  }
}