{
  "address": "0xfb5BEF59A0f2f2228cC575Aa7bB7AE45D100634f",
  "abi": [
    {
      "inputs": [
        {
          "internalType": "address",
          "name": "_nameRegistry",
          "type": "address"
        }
      ],
      "stateMutability": "nonpayable",
      "type": "constructor"
    },
    {
      "inputs": [],
      "name": "adPoolAddress",
      "outputs": [
        {
          "internalType": "address",
          "name": "",
          "type": "address"
        }
      ],
      "stateMutability": "view",
      "type": "function"
    },
    {
      "inputs": [
        {
          "internalType": "address",
          "name": "proxy",
          "type": "address"
        },
        {
          "internalType": "string",
          "name": "applicationMetadata",
          "type": "string"
        },
        {
          "internalType": "string",
          "name": "updatableMetadata",
          "type": "string"
        },
        {
          "internalType": "address",
          "name": "mediaEOA",
          "type": "address"
        }
      ],
      "name": "addMedia",
      "outputs": [],
      "stateMutability": "nonpayable",
      "type": "function"
    },
    {
      "inputs": [
        {
          "internalType": "address",
          "name": "",
          "type": "address"
        }
      ],
      "name": "allAccounts",
      "outputs": [
        {
          "internalType": "address",
          "name": "proxy",
          "type": "address"
        },
        {
          "internalType": "address",
          "name": "mediaEOA",
          "type": "address"
        },
        {
          "internalType": "string",
          "name": "applicationMetadata",
          "type": "string"
        },
        {
          "internalType": "string",
          "name": "updatableMetadata",
          "type": "string"
        }
      ],
      "stateMutability": "view",
      "type": "function"
    },
    {
      "inputs": [
        {
          "internalType": "address",
          "name": "proxy",
          "type": "address"
        }
      ],
      "name": "created",
      "outputs": [
        {
          "internalType": "bool",
          "name": "",
          "type": "bool"
        }
      ],
      "stateMutability": "view",
      "type": "function"
    },
    {
      "inputs": [],
      "name": "eventEmitterAddress",
      "outputs": [
        {
          "internalType": "address",
          "name": "",
          "type": "address"
        }
      ],
      "stateMutability": "view",
      "type": "function"
    },
    {
      "inputs": [],
      "name": "mediaFactoryAddress",
      "outputs": [
        {
          "internalType": "address",
          "name": "",
          "type": "address"
        }
      ],
      "stateMutability": "view",
      "type": "function"
    },
    {
      "inputs": [],
      "name": "mediaRegistryAddress",
      "outputs": [
        {
          "internalType": "address",
          "name": "",
          "type": "address"
        }
      ],
      "stateMutability": "view",
      "type": "function"
    },
    {
      "inputs": [],
      "name": "nameRegistryAddress",
      "outputs": [
        {
          "internalType": "address",
          "name": "",
          "type": "address"
        }
      ],
      "stateMutability": "view",
      "type": "function"
    },
    {
      "inputs": [],
      "name": "owner",
      "outputs": [
        {
          "internalType": "address",
          "name": "",
          "type": "address"
        }
      ],
      "stateMutability": "view",
      "type": "function"
    },
    {
      "inputs": [
        {
          "internalType": "address",
          "name": "proxy",
          "type": "address"
        }
      ],
      "name": "ownerOf",
      "outputs": [
        {
          "internalType": "address",
          "name": "",
          "type": "address"
        }
      ],
      "stateMutability": "view",
      "type": "function"
    },
    {
      "inputs": [
        {
          "internalType": "address",
          "name": "proxy",
          "type": "address"
        },
        {
          "internalType": "string",
          "name": "metadata",
          "type": "string"
        }
      ],
      "name": "updateApplicationMetadata",
      "outputs": [],
      "stateMutability": "nonpayable",
      "type": "function"
    },
    {
      "inputs": [
        {
          "internalType": "address",
          "name": "mediaEOA",
          "type": "address"
        },
        {
          "internalType": "string",
          "name": "metadata",
          "type": "string"
        }
      ],
      "name": "updateMedia",
      "outputs": [],
      "stateMutability": "nonpayable",
      "type": "function"
    },
    {
      "inputs": [],
      "name": "vaultAddress",
      "outputs": [
        {
          "internalType": "address",
          "name": "",
          "type": "address"
        }
      ],
      "stateMutability": "view",
      "type": "function"
    }
  ],
  "transactionHash": "0xf424cee922eedafcdcbfb1b6b9d72aff5e6d2da8ad915e9be3ffcfe1927212a9",
  "args": [
    "0x173E3862BaE7bD155a7a371Ee3b855de01aa63dd"
  ],
  "solcInputHash": "d3d38aa74a09225e7603340a0e8b265f",
  "bytecode": "0x608060405234801561001057600080fd5b50604051610b08380380610b0883398101604081905261002f91610050565b600080546001600160a01b0319166001600160a01b03831617905550610080565b60006020828403121561006257600080fd5b81516001600160a01b038116811461007957600080fd5b9392505050565b610a798061008f6000396000f3fe608060405234801561001057600080fd5b50600436106100af5760003560e01c80630df8e9fe146100b457806314afd79e146100e0578063179bcff71461010b57806327b7a2f514610120578063430bf08a146101315780636a58767e146101395780638da5cb5b146101415780638f6059d614610149578063a029900814610151578063a8774e1714610164578063c9cd71b514610177578063d42efd831461017f578063f0726291146101bd575b600080fd5b6100c76100c23660046107b8565b6101c5565b6040516100d79493929190610829565b60405180910390f35b6100f36100ee3660046107b8565b61030d565b6040516001600160a01b0390911681526020016100d7565b61011e610119366004610914565b61032f565b005b6000546001600160a01b03166100f3565b6100f36103c5565b6100f3610479565b6100f36104b0565b6100f36104ff565b61011e61015f366004610963565b610535565b61011e610172366004610914565b61062b565b6100f36106a1565b6101ad61018d3660046107b8565b6001600160a01b0390811660009081526001602052604090205416151590565b60405190151581526020016100d7565b6100f36106d1565b60016020819052600091825260409091208054918101546002820180546001600160a01b039485169490921692916101fc906109eb565b80601f0160208091040260200160405190810160405280929190818152602001828054610228906109eb565b80156102755780601f1061024a57610100808354040283529160200191610275565b820191906000526020600020905b81548152906001019060200180831161025857829003601f168201915b50505050509080600301805461028a906109eb565b80601f01602080910402602001604051908101604052809291908181526020018280546102b6906109eb565b80156103035780601f106102d857610100808354040283529160200191610303565b820191906000526020600020905b8154815290600101906020018083116102e657829003601f168201915b5050505050905084565b6001600160a01b03908116600090815260016020819052604090912001541690565b600061033a3361030d565b6001600160a01b0316141561037e5760405162461bcd60e51b81526020600482015260056024820152644b4430313160d81b60448201526064015b60405180910390fd5b33600090815260016020818152604090922090810180546001600160a01b0319166001600160a01b03861617905582516103c092600390920191840190610707565b505050565b600080546040516415985d5b1d60da1b60208201526001600160a01b0390911690638eaa6ac0906025015b604051602081830303815290604052805190602001206040518263ffffffff1660e01b815260040161042491815260200190565b60206040518083038186803b15801561043c57600080fd5b505afa158015610450573d6000803e3d6000fd5b505050506040513d601f19601f820116820180604052508101906104749190610a26565b905090565b600080546040516c4d65646961526567697374727960981b60208201526001600160a01b0390911690638eaa6ac090602d016103f0565b60008060009054906101000a90046001600160a01b03166001600160a01b031663d5f394886040518163ffffffff1660e01b815260040160206040518083038186803b15801561043c57600080fd5b600080546040516b4d65646961466163746f727960a01b60208201526001600160a01b0390911690638eaa6ac090602c016103f0565b61053d6104ff565b6001600160a01b0316336001600160a01b0316146105855760405162461bcd60e51b815260206004820152600560248201526404b443031360dc1b6044820152606401610375565b604080516080810182526001600160a01b038087168083528482166020808501918252848601898152606086018990526000938452600180835296909320855181549086166001600160a01b031991821617825592519681018054979095169690921695909517909255518051929391926106069260028501920190610707565b5060608201518051610622916003840191602090910190610707565b50505050505050565b336106346104b0565b6001600160a01b0316146106725760405162461bcd60e51b815260206004820152600560248201526425a218189960d91b6044820152606401610375565b6001600160a01b038216600090815260016020908152604090912082516103c092600290920191840190610707565b60008054604051651059141bdbdb60d21b60208201526001600160a01b0390911690638eaa6ac0906026016103f0565b600080546040516b22bb32b73a22b6b4ba3a32b960a11b60208201526001600160a01b0390911690638eaa6ac090602c016103f0565b828054610713906109eb565b90600052602060002090601f016020900481019282610735576000855561077b565b82601f1061074e57805160ff191683800117855561077b565b8280016001018555821561077b579182015b8281111561077b578251825591602001919060010190610760565b5061078792915061078b565b5090565b5b80821115610787576000815560010161078c565b6001600160a01b03811681146107b557600080fd5b50565b6000602082840312156107ca57600080fd5b81356107d5816107a0565b9392505050565b6000815180845260005b81811015610802576020818501810151868301820152016107e6565b81811115610814576000602083870101525b50601f01601f19169290920160200192915050565b6001600160a01b03858116825284166020820152608060408201819052600090610855908301856107dc565b828103606084015261086781856107dc565b979650505050505050565b634e487b7160e01b600052604160045260246000fd5b600082601f83011261089957600080fd5b81356001600160401b03808211156108b3576108b3610872565b604051601f8301601f19908116603f011681019082821181831017156108db576108db610872565b816040528381528660208588010111156108f457600080fd5b836020870160208301376000602085830101528094505050505092915050565b6000806040838503121561092757600080fd5b8235610932816107a0565b915060208301356001600160401b0381111561094d57600080fd5b61095985828601610888565b9150509250929050565b6000806000806080858703121561097957600080fd5b8435610984816107a0565b935060208501356001600160401b03808211156109a057600080fd5b6109ac88838901610888565b945060408701359150808211156109c257600080fd5b506109cf87828801610888565b92505060608501356109e0816107a0565b939692955090935050565b600181811c908216806109ff57607f821691505b60208210811415610a2057634e487b7160e01b600052602260045260246000fd5b50919050565b600060208284031215610a3857600080fd5b81516107d5816107a056fea26469706673582212208f7a46a78ef27187c94d6d212e3845c5e5aa268bdeeaaf44423d866b64a77f2364736f6c63430008090033",
  "devdoc": {
    "author": "Shumpei Koike - <shumpei.koike@bridges.inc>",
    "kind": "dev",
    "methods": {
      "adPoolAddress()": {
        "details": "Gets the address of AdPool."
      },
      "addMedia(address,string,string,address)": {
        "details": "Adds media account.",
        "params": {
          "applicationMetadata": "string of constant metadata for the defailts of the account",
          "mediaEOA": "address of the media account",
          "proxy": "address of the proxy contract",
          "updatableMetadata": "string of constant metadata for the defailts of the account"
        }
      },
      "constructor": {
        "details": "_nameRegistry address of the NameRegistry"
      },
      "created(address)": {
        "details": "Returns whether the account has created or not.",
        "params": {
          "proxy": "address of the proxy contract that represents an account."
        }
      },
      "eventEmitterAddress()": {
        "details": "Gets the address of EventEmitter."
      },
      "mediaFactoryAddress()": {
        "details": "Gets the address of MediaFactory."
      },
      "mediaRegistryAddress()": {
        "details": "Gets the address of MediaRegistry."
      },
      "nameRegistryAddress()": {
        "details": "Gets the address of NameRegistry"
      },
      "owner()": {
        "details": "Gets the owner address."
      },
      "ownerOf(address)": {
        "details": "Returns the owner of the account.",
        "params": {
          "proxy": "address of the proxy contract that represents an account."
        }
      },
      "updateMedia(address,string)": {
        "details": "Updates media account.",
        "params": {
          "mediaEOA": "address of the media account",
          "metadata": "string of the account metadata"
        }
      },
      "vaultAddress()": {
        "details": "Gets the address of Vault."
      }
    },
    "title": "MediaRegistry - registers a list of media accounts.",
    "version": 1
  },
  "userdoc": {
    "kind": "user",
    "methods": {
      "constructor": {
        "notice": "Constructor"
      }
    },
    "version": 1
  },
  "storageLayout": {
    "storage": [
      {
        "astId": 1762,
        "contract": "contracts/peripheries/MediaRegistry.sol:MediaRegistry",
        "label": "_nameRegistry",
        "offset": 0,
        "slot": "0",
        "type": "t_contract(INameRegistry)4285"
      },
      {
        "astId": 5680,
        "contract": "contracts/peripheries/MediaRegistry.sol:MediaRegistry",
        "label": "allAccounts",
        "offset": 0,
        "slot": "1",
        "type": "t_mapping(t_address,t_struct(Account)4194_storage)"
      }
    ],
    "types": {
      "t_address": {
        "encoding": "inplace",
        "label": "address",
        "numberOfBytes": "20"
      },
      "t_contract(INameRegistry)4285": {
        "encoding": "inplace",
        "label": "contract INameRegistry",
        "numberOfBytes": "20"
      },
      "t_mapping(t_address,t_struct(Account)4194_storage)": {
        "encoding": "mapping",
        "key": "t_address",
        "label": "mapping(address => struct IMediaRegistry.Account)",
        "numberOfBytes": "32",
        "value": "t_struct(Account)4194_storage"
      },
      "t_string_storage": {
        "encoding": "bytes",
        "label": "string",
        "numberOfBytes": "32"
      },
      "t_struct(Account)4194_storage": {
        "encoding": "inplace",
        "label": "struct IMediaRegistry.Account",
        "members": [
          {
            "astId": 4187,
            "contract": "contracts/peripheries/MediaRegistry.sol:MediaRegistry",
            "label": "proxy",
            "offset": 0,
            "slot": "0",
            "type": "t_address"
          },
          {
            "astId": 4189,
            "contract": "contracts/peripheries/MediaRegistry.sol:MediaRegistry",
            "label": "mediaEOA",
            "offset": 0,
            "slot": "1",
            "type": "t_address"
          },
          {
            "astId": 4191,
            "contract": "contracts/peripheries/MediaRegistry.sol:MediaRegistry",
            "label": "applicationMetadata",
            "offset": 0,
            "slot": "2",
            "type": "t_string_storage"
          },
          {
            "astId": 4193,
            "contract": "contracts/peripheries/MediaRegistry.sol:MediaRegistry",
            "label": "updatableMetadata",
            "offset": 0,
            "slot": "3",
            "type": "t_string_storage"
          }
        ],
        "numberOfBytes": "128"
      }
    }
  }
}