{
  "address": "0xDF87735C024f1df1b38FB8A23a4BD012eA3B2ccD",
  "abi": [
    {
      "inputs": [
        {
          "internalType": "address",
          "name": "_nameRegistry",
          "type": "address"
        }
      ],
      "stateMutability": "nonpayable",
      "type": "constructor"
    },
    {
      "anonymous": false,
      "inputs": [
        {
          "indexed": false,
          "internalType": "contract MediaProxy",
          "name": "proxy",
          "type": "address"
        }
      ],
      "name": "CreateProxy",
      "type": "event"
    },
    {
      "inputs": [],
      "name": "adPoolAddress",
      "outputs": [
        {
          "internalType": "address",
          "name": "",
          "type": "address"
        }
      ],
      "stateMutability": "view",
      "type": "function"
    },
    {
      "inputs": [],
      "name": "eventEmitterAddress",
      "outputs": [
        {
          "internalType": "address",
          "name": "",
          "type": "address"
        }
      ],
      "stateMutability": "view",
      "type": "function"
    },
    {
      "inputs": [],
      "name": "mediaFactoryAddress",
      "outputs": [
        {
          "internalType": "address",
          "name": "",
          "type": "address"
        }
      ],
      "stateMutability": "view",
      "type": "function"
    },
    {
      "inputs": [],
      "name": "mediaRegistryAddress",
      "outputs": [
        {
          "internalType": "address",
          "name": "",
          "type": "address"
        }
      ],
      "stateMutability": "view",
      "type": "function"
    },
    {
      "inputs": [],
      "name": "nameRegistryAddress",
      "outputs": [
        {
          "internalType": "address",
          "name": "",
          "type": "address"
        }
      ],
      "stateMutability": "view",
      "type": "function"
    },
    {
      "inputs": [
        {
          "internalType": "address",
          "name": "mediaEOA",
          "type": "address"
        },
        {
          "internalType": "string",
          "name": "constantMetadata",
          "type": "string"
        },
        {
          "internalType": "string",
          "name": "updatableMetadata",
          "type": "string"
        },
        {
          "internalType": "bytes",
          "name": "initializer",
          "type": "bytes"
        },
        {
          "internalType": "uint256",
          "name": "saltNonce",
          "type": "uint256"
        }
      ],
      "name": "newMedia",
      "outputs": [
        {
          "internalType": "contract MediaProxy",
          "name": "proxy",
          "type": "address"
        }
      ],
      "stateMutability": "nonpayable",
      "type": "function"
    },
    {
      "inputs": [],
      "name": "owner",
      "outputs": [
        {
          "internalType": "address",
          "name": "",
          "type": "address"
        }
      ],
      "stateMutability": "view",
      "type": "function"
    },
    {
      "inputs": [],
      "name": "vaultAddress",
      "outputs": [
        {
          "internalType": "address",
          "name": "",
          "type": "address"
        }
      ],
      "stateMutability": "view",
      "type": "function"
    }
  ],
  "transactionHash": "0xce749e4642cd5da5bcafc4504d4041abff7ffa3c790bf116332d744710cd87b0",
  "args": [
    "0x409A944c3f7C8F83e333e714278509F5B02E1f2c"
  ],
  "solcInputHash": "6ca65f67efc8f2cae2a93f9d484f35a0",
  "bytecode": "0x608060405234801561001057600080fd5b50604051610d18380380610d1883398101604081905261002f91610050565b600080546001600160a01b0319166001600160a01b03831617905550610080565b60006020828403121561006257600080fd5b81516001600160a01b038116811461007957600080fd5b9392505050565b610c898061008f6000396000f3fe608060405234801561001057600080fd5b50600436106100885760003560e01c80638da5cb5b1161005b5780638da5cb5b146100d95780638f6059d6146100e1578063c9cd71b5146100e9578063f0726291146100f157600080fd5b806327b7a2f51461008d578063430bf08a146100b657806363cfbab1146100be5780636a58767e146100d1575b600080fd5b6000546001600160a01b03165b6040516001600160a01b03909116815260200160405180910390f35b61009a6100f9565b61009a6100cc36600461066c565b6101ad565b61009a6102fa565b61009a610331565b61009a610380565b61009a6103b6565b61009a6103e6565b600080546040516415985d5b1d60da1b60208201526001600160a01b0390911690638eaa6ac0906025015b604051602081830303815290604052805190602001206040518263ffffffff1660e01b815260040161015891815260200190565b60206040518083038186803b15801561017057600080fd5b505afa158015610184573d6000803e3d6000fd5b505050506040513d601f19601f820116820180604052508101906101a89190610723565b905090565b6000336101b8610331565b6001600160a01b0316146101fb5760405162461bcd60e51b815260206004820152600560248201526425a218189960d91b60448201526064015b60405180910390fd5b6102176102106000546001600160a01b031690565b848461041c565b9050610221610491565b6001600160a01b031663a02990088287878a6040518563ffffffff1660e01b8152600401610252949392919061079c565b600060405180830381600087803b15801561026c57600080fd5b505af1158015610280573d6000803e3d6000fd5b5050505061028c61049b565b6001600160a01b0316630797ec0882888888876040518663ffffffff1660e01b81526004016102bf9594939291906107e6565b600060405180830381600087803b1580156102d957600080fd5b505af11580156102ed573d6000803e3d6000fd5b5050505095945050505050565b600080546040516c4d65646961526567697374727960981b60208201526001600160a01b0390911690638eaa6ac090602d01610124565b60008060009054906101000a90046001600160a01b03166001600160a01b0316638da5cb5b6040518163ffffffff1660e01b815260040160206040518083038186803b15801561017057600080fd5b600080546040516b4d65646961466163746f727960a01b60208201526001600160a01b0390911690638eaa6ac090602c01610124565b60008054604051651059141bdbdb60d21b60208201526001600160a01b0390911690638eaa6ac090602601610124565b600080546040516b22bb32b73a22b6b4ba3a32b960a11b60208201526001600160a01b0390911690638eaa6ac090602c01610124565b60006104298484846104a5565b83519091501561044e5760008060008551602087016000865af1141561044e57600080fd5b6040516001600160a01b03821681527f32340bf052adf19b6294f5a724325e4cc444978d2cc5c7e2769a2df85db660989060200160405180910390a19392505050565b60006101a86102fa565b60006101a86103e6565b6000808380519060200120836040516020016104cb929190918252602082015260400190565b6040516020818303038152906040528051906020012090506000604051806020016104f590610594565b601f1982820381018352601f90910116604081905261052291906001600160a01b03891690602001610837565b6040516020818303038152906040529050818151826020016000f592506001600160a01b03831661058b5760405162461bcd60e51b815260206004820152601360248201527210dc99585d194c8818d85b1b0819985a5b1959606a1b60448201526064016101f2565b50509392505050565b6103fa8061085a83390190565b6001600160a01b03811681146105b657600080fd5b50565b634e487b7160e01b600052604160045260246000fd5b600067ffffffffffffffff808411156105ea576105ea6105b9565b604051601f8501601f19908116603f01168101908282118183101715610612576106126105b9565b8160405280935085815286868601111561062b57600080fd5b858560208301376000602087830101525050509392505050565b600082601f83011261065657600080fd5b610665838335602085016105cf565b9392505050565b600080600080600060a0868803121561068457600080fd5b853561068f816105a1565b9450602086013567ffffffffffffffff808211156106ac57600080fd5b6106b889838a01610645565b955060408801359150808211156106ce57600080fd5b6106da89838a01610645565b945060608801359150808211156106f057600080fd5b508601601f8101881361070257600080fd5b610711888235602084016105cf565b95989497509295608001359392505050565b60006020828403121561073557600080fd5b8151610665816105a1565b60005b8381101561075b578181015183820152602001610743565b8381111561076a576000848401525b50505050565b60008151808452610788816020860160208601610740565b601f01601f19169290920160200192915050565b60006001600160a01b038087168352608060208401526107bf6080840187610770565b83810360408501526107d18187610770565b92505080841660608401525095945050505050565b60006001600160a01b03808816835280871660208401525060a0604083015261081260a0830186610770565b82810360608401526108248186610770565b9150508260808301529695505050505050565b60008351610849818460208801610740565b919091019182525060200191905056fe608060405234801561001057600080fd5b506040516103fa3803806103fa83398101604081905261002f91610096565b6001600160a01b0381166100715760405162461bcd60e51b8152602060048201526005602482015264415230303160d81b604482015260640160405180910390fd5b600080546001600160a01b0319166001600160a01b03929092169190911790556100c6565b6000602082840312156100a857600080fd5b81516001600160a01b03811681146100bf57600080fd5b9392505050565b610325806100d56000396000f3fe6080604052600436106100225760003560e01c8063a619486e1461016a57610160565b36610160573461006c5760405162461bcd60e51b81526020600482015260116024820152706d73672e76616c7565206973207a65726f60781b604482015260640160405180910390fd5b600080546040516415985d5b1d60da1b60208201526001600160a01b0390911690638eaa6ac090602501604051602081830303815290604052805190602001206040518263ffffffff1660e01b81526004016100ca91815260200190565b60206040518083038186803b1580156100e257600080fd5b505afa1580156100f6573d6000803e3d6000fd5b505050506040513d601f19601f8201168201806040525081019061011a919061029d565b90506001600160a01b0381166108fc6101346002346102cd565b6040518115909202916000818181858888f1935050505015801561015c573d6000803e3d6000fd5b5050005b61016861019b565b005b34801561017657600080fd5b5061017f6101e6565b6040516001600160a01b03909116815260200160405180910390f35b60006101a56101e6565b905063530ca43760e11b60003514156101c2578060005260206000f35b3660008037600080366000845af43d6000803e8080156101e1573d6000f35b3d6000fd5b600080546040516820b226b0b730b3b2b960b91b60208201526001600160a01b0390911690638eaa6ac090602901604051602081830303815290604052805190602001206040518263ffffffff1660e01b815260040161024891815260200190565b60206040518083038186803b15801561026057600080fd5b505afa158015610274573d6000803e3d6000fd5b505050506040513d601f19601f82011682018060405250810190610298919061029d565b905090565b6000602082840312156102af57600080fd5b81516001600160a01b03811681146102c657600080fd5b9392505050565b6000826102ea57634e487b7160e01b600052601260045260246000fd5b50049056fea2646970667358221220881c64f25aa32b4e7cc694ee5eafbcfe274e19414d16b5ba00b801096376f1ae64736f6c63430008090033a264697066735822122075cf32bc7766761188edce8e155c1e4f50a270b4479ed475b9be64557691b3d564736f6c63430008090033",
  "devdoc": {
    "author": "Shumpei Koike - <shumpei.koike@bridges.inc>",
    "events": {
      "CreateProxy(address)": {
        "details": "Emitted when a new media is created."
      }
    },
    "kind": "dev",
    "methods": {
      "adPoolAddress()": {
        "details": "Gets the address of AdPool."
      },
      "constructor": {
        "details": "Initializer",
        "params": {
          "_nameRegistry": "address of NameRegistry"
        }
      },
      "eventEmitterAddress()": {
        "details": "Gets the address of EventEmitter."
      },
      "mediaFactoryAddress()": {
        "details": "Gets the address of MediaFactory."
      },
      "mediaRegistryAddress()": {
        "details": "Gets the address of MediaRegistry."
      },
      "nameRegistryAddress()": {
        "details": "Gets the address of NameRegistry"
      },
      "newMedia(address,string,string,bytes,uint256)": {
        "details": "Create a new account for media. Each proxy has its own storage and saves      data related to NFTs.",
        "params": {
          "constantMetadata": "string of constant metadata for the defailts of the account",
          "initializer": "bytes of the initalize calldata",
          "mediaEOA": "address of the media EOA",
          "saltNonce": "uint256 of the salt number to create a proxy address",
          "updatableMetadata": "string of constant metadata for the defailts of the account"
        }
      },
      "owner()": {
        "details": "Gets the owner address."
      },
      "vaultAddress()": {
        "details": "Gets the address of Vault."
      }
    },
    "title": "MediaFactory - creates proxy contracts for media accounts.",
    "version": 1
  },
  "userdoc": {
    "kind": "user",
    "methods": {},
    "version": 1
  },
  "storageLayout": {
    "storage": [
      {
        "astId": 1560,
        "contract": "contracts/proxies/MediaFactory.sol:MediaFactory",
        "label": "_nameRegistry",
        "offset": 0,
        "slot": "0",
        "type": "t_contract(NameRegistry)1789"
      }
    ],
    "types": {
      "t_contract(NameRegistry)1789": {
        "encoding": "inplace",
        "label": "contract NameRegistry",
        "numberOfBytes": "20"
      }
    }
  }
}