{
  "address": "0x3D42E55B6Aec65D68FDee9e3096f76B12889C18f",
  "abi": [
    {
      "inputs": [
        {
          "internalType": "address",
          "name": "_nameRegistry",
          "type": "address"
        }
      ],
      "stateMutability": "nonpayable",
      "type": "constructor"
    },
    {
      "anonymous": false,
      "inputs": [
        {
          "indexed": false,
          "internalType": "contract MediaProxy",
          "name": "proxy",
          "type": "address"
        },
        {
          "indexed": false,
          "internalType": "address",
          "name": "singleton",
          "type": "address"
        }
      ],
      "name": "CreateProxy",
      "type": "event"
    },
    {
      "inputs": [],
      "name": "distributionRightAddress",
      "outputs": [
        {
          "internalType": "address",
          "name": "",
          "type": "address"
        }
      ],
      "stateMutability": "view",
      "type": "function"
    },
    {
      "inputs": [],
      "name": "mediaRegistryAddress",
      "outputs": [
        {
          "internalType": "address",
          "name": "",
          "type": "address"
        }
      ],
      "stateMutability": "view",
      "type": "function"
    },
    {
      "inputs": [],
      "name": "nameRegistryAddress",
      "outputs": [
        {
          "internalType": "address",
          "name": "",
          "type": "address"
        }
      ],
      "stateMutability": "view",
      "type": "function"
    },
    {
      "inputs": [
        {
          "internalType": "string",
          "name": "metadata",
          "type": "string"
        },
        {
          "internalType": "bytes",
          "name": "initializer",
          "type": "bytes"
        },
        {
          "internalType": "uint256",
          "name": "saltNonce",
          "type": "uint256"
        }
      ],
      "name": "newMedia",
      "outputs": [
        {
          "internalType": "contract MediaProxy",
          "name": "proxy",
          "type": "address"
        }
      ],
      "stateMutability": "nonpayable",
      "type": "function"
    },
    {
      "inputs": [],
      "name": "owner",
      "outputs": [
        {
          "internalType": "address",
          "name": "",
          "type": "address"
        }
      ],
      "stateMutability": "view",
      "type": "function"
    },
    {
      "inputs": [],
      "name": "postOwnerPoolAddress",
      "outputs": [
        {
          "internalType": "address",
          "name": "",
          "type": "address"
        }
      ],
      "stateMutability": "view",
      "type": "function"
    },
    {
      "inputs": [],
      "name": "reservedRightAddress",
      "outputs": [
        {
          "internalType": "address",
          "name": "",
          "type": "address"
        }
      ],
      "stateMutability": "view",
      "type": "function"
    },
    {
      "inputs": [],
      "name": "vaultAddress",
      "outputs": [
        {
          "internalType": "address",
          "name": "",
          "type": "address"
        }
      ],
      "stateMutability": "view",
      "type": "function"
    }
  ],
  "transactionHash": "0xd00ef2e3a70e5da819b38b79050a6c75454f1aa95cb7245119b357ec67046ef1",
  "args": [
    "0xb8706Dc1D680ce1C060c264453695c681fb78e1E"
  ],
  "solcInputHash": "fc4da257fbaf063229ca670f252bfef7",
  "bytecode": "0x608060405234801561001057600080fd5b50604051610cb7380380610cb783398101604081905261002f91610050565b600080546001600160a01b0319166001600160a01b03831617905550610080565b60006020828403121561006257600080fd5b81516001600160a01b038116811461007957600080fd5b9392505050565b610c288061008f6000396000f3fe608060405234801561001057600080fd5b50600436106100885760003560e01c80636a58767e1161005b5780636a58767e146100d95780638da5cb5b146100e1578063ac6919a5146100e9578063ef95e90f146100f157600080fd5b806327b7a2f51461008d57806329a594b5146100b65780633998fee6146100be578063430bf08a146100d1575b600080fd5b6000546001600160a01b03165b6040516001600160a01b03909116815260200160405180910390f35b61009a6100f9565b61009a6100cc36600461060f565b6101c5565b61009a610255565b61009a61029c565b61009a6102e3565b61009a610332565b61009a610379565b600080546040517f526573657276656452696768740000000000000000000000000000000000000060208201526001600160a01b0390911690638eaa6ac090602d015b604051602081830303815290604052805190602001206040518263ffffffff1660e01b815260040161017091815260200190565b60206040518083038186803b15801561018857600080fd5b505afa15801561019c573d6000803e3d6000fd5b505050506040513d601f19601f820116820180604052508101906101c091906106a7565b905090565b60006101e36101dc6000546001600160a01b031690565b84846103c0565b90506101ed61043c565b6001600160a01b031663c17567878286336040518463ffffffff1660e01b815260040161021c93929190610707565b600060405180830381600087803b15801561023657600080fd5b505af115801561024a573d6000803e3d6000fd5b505050509392505050565b600080546040517f5661756c7400000000000000000000000000000000000000000000000000000060208201526001600160a01b0390911690638eaa6ac09060250161013c565b600080546040517f4d6564696152656769737472790000000000000000000000000000000000000060208201526001600160a01b0390911690638eaa6ac090602d0161013c565b60008060009054906101000a90046001600160a01b03166001600160a01b0316638da5cb5b6040518163ffffffff1660e01b815260040160206040518083038186803b15801561018857600080fd5b600080546040517f446973747269627574696f6e526967687400000000000000000000000000000060208201526001600160a01b0390911690638eaa6ac09060310161013c565b600080546040517f506f73744f776e6572506f6f6c0000000000000000000000000000000000000060208201526001600160a01b0390911690638eaa6ac090602d0161013c565b60006103cd848484610446565b8351909150156103f25760008060008551602087016000865af114156103f257600080fd5b604080516001600160a01b038084168252861660208201527f35a3d8029a6816bbc1a1c8a0f3a821ed0728b86f2d3bf5f5a9fd90fcf94ddb26910160405180910390a19392505050565b60006101c061029c565b60008083805190602001208360405160200161046c929190918252602082015260400190565b6040516020818303038152906040528051906020012090506000604051806020016104969061055d565b601f1982820381018352601f9091011660408190526104c391906001600160a01b03891690602001610752565b6040516020818303038152906040529050818151826020016000f592506001600160a01b038316610554576040517f08c379a000000000000000000000000000000000000000000000000000000000815260206004820152601360248201527f437265617465322063616c6c206661696c656400000000000000000000000000604482015260640160405180910390fd5b50509392505050565b61047e8061077583390190565b7f4e487b7100000000000000000000000000000000000000000000000000000000600052604160045260246000fd5b600067ffffffffffffffff808411156105b4576105b461056a565b604051601f8501601f19908116603f011681019082821181831017156105dc576105dc61056a565b816040528093508581528686860111156105f557600080fd5b858560208301376000602087830101525050509392505050565b60008060006060848603121561062457600080fd5b833567ffffffffffffffff8082111561063c57600080fd5b818601915086601f83011261065057600080fd5b61065f87833560208501610599565b9450602086013591508082111561067557600080fd5b508401601f8101861361068757600080fd5b61069686823560208401610599565b925050604084013590509250925092565b6000602082840312156106b957600080fd5b81516001600160a01b03811681146106d057600080fd5b9392505050565b60005b838110156106f25781810151838201526020016106da565b83811115610701576000848401525b50505050565b60006001600160a01b0380861683526060602084015284518060608501526107368160808601602089016106d7565b9316604083015250601f91909101601f19160160800192915050565b600083516107648184602088016106d7565b919091019182525060200191905056fe608060405234801561001057600080fd5b5060405161047e38038061047e83398101604081905261002f91610096565b6001600160a01b0381166100715760405162461bcd60e51b8152602060048201526005602482015264415230303160d81b604482015260640160405180910390fd5b600080546001600160a01b0319166001600160a01b03929092169190911790556100c6565b6000602082840312156100a857600080fd5b81516001600160a01b03811681146100bf57600080fd5b9392505050565b6103a9806100d56000396000f3fe6080604052600436106100225760003560e01c8063a619486e146101a85761019e565b3661019e5734610092576040517f08c379a000000000000000000000000000000000000000000000000000000000815260206004820152601160248201527f6d73672e76616c7565206973207a65726f000000000000000000000000000000604482015260640160405180910390fd5b600080546040517f5661756c7400000000000000000000000000000000000000000000000000000060208201526001600160a01b0390911690638eaa6ac090602501604051602081830303815290604052805190602001206040518263ffffffff1660e01b815260040161010891815260200190565b60206040518083038186803b15801561012057600080fd5b505afa158015610134573d6000803e3d6000fd5b505050506040513d601f19601f820116820180604052508101906101589190610308565b90506001600160a01b0381166108fc610172600234610338565b6040518115909202916000818181858888f1935050505015801561019a573d6000803e3d6000fd5b5050005b6101a66101d9565b005b3480156101b457600080fd5b506101bd61023d565b6040516001600160a01b03909116815260200160405180910390f35b60006101e361023d565b90507fa619486e000000000000000000000000000000000000000000000000000000006000351415610219578060005260206000f35b3660008037600080366000845af43d6000803e808015610238573d6000f35b3d6000fd5b600080546040517f41644d616e61676572000000000000000000000000000000000000000000000060208201526001600160a01b0390911690638eaa6ac090602901604051602081830303815290604052805190602001206040518263ffffffff1660e01b81526004016102b391815260200190565b60206040518083038186803b1580156102cb57600080fd5b505afa1580156102df573d6000803e3d6000fd5b505050506040513d601f19601f820116820180604052508101906103039190610308565b905090565b60006020828403121561031a57600080fd5b81516001600160a01b038116811461033157600080fd5b9392505050565b60008261036e577f4e487b7100000000000000000000000000000000000000000000000000000000600052601260045260246000fd5b50049056fea264697066735822122055a15b9bb4fd778dffa7410c1ecdf360688ecca58546a43fa042b5f3e450d16a64736f6c63430008090033a2646970667358221220b407dd0a4ad12e6494f6571d1489038deebd63311466691ea61b1a5e5926019364736f6c63430008090033",
  "devdoc": {
    "author": "Shumpei Koike - <shumpei.koike@bridges.inc>",
    "events": {
      "CreateProxy(address,address)": {
        "details": "Emitted when a new media is created."
      }
    },
    "kind": "dev",
    "methods": {
      "distributionRightAddress()": {
        "details": "Gets the address of DistributionRight."
      },
      "mediaRegistryAddress()": {
        "details": "Gets the address of MediaRegistry."
      },
      "nameRegistryAddress()": {
        "details": "Gets the address of NameRegistry"
      },
      "owner()": {
        "details": "Gets the owner address."
      },
      "reservedRightAddress()": {
        "details": "Gets the address of ReservedRight."
      },
      "vaultAddress()": {
        "details": "Gets the address of Vault."
      }
    },
    "title": "MediaFactory - create a proxy contract according to a donation media.",
    "version": 1
  },
  "userdoc": {
    "kind": "user",
    "methods": {},
    "version": 1
  },
  "storageLayout": {
    "storage": [
      {
        "astId": 1125,
        "contract": "contracts/proxies/MediaFactory.sol:MediaFactory",
        "label": "_nameRegistry",
        "offset": 0,
        "slot": "0",
        "type": "t_contract(NameRegistry)1340"
      }
    ],
    "types": {
      "t_contract(NameRegistry)1340": {
        "encoding": "inplace",
        "label": "contract NameRegistry",
        "numberOfBytes": "20"
      }
    }
  }
}