{
  "address": "0xD832dC6036934818c06F6CeF2220a28F9BcB650c",
  "abi": [
    {
      "inputs": [
        {
          "internalType": "address",
          "name": "_nameRegistry",
          "type": "address"
        }
      ],
      "stateMutability": "nonpayable",
      "type": "constructor"
    },
    {
      "inputs": [],
      "name": "adPoolAddress",
      "outputs": [
        {
          "internalType": "address",
          "name": "",
          "type": "address"
        }
      ],
      "stateMutability": "view",
      "type": "function"
    },
    {
      "inputs": [
        {
          "internalType": "address",
          "name": "proxy",
          "type": "address"
        },
        {
          "internalType": "string",
          "name": "applicationMetadata",
          "type": "string"
        },
        {
          "internalType": "string",
          "name": "updatableMetadata",
          "type": "string"
        },
        {
          "internalType": "address",
          "name": "mediaEOA",
          "type": "address"
        }
      ],
      "name": "addMedia",
      "outputs": [],
      "stateMutability": "nonpayable",
      "type": "function"
    },
    {
      "inputs": [
        {
          "internalType": "address",
          "name": "",
          "type": "address"
        }
      ],
      "name": "allAccounts",
      "outputs": [
        {
          "internalType": "address",
          "name": "proxy",
          "type": "address"
        },
        {
          "internalType": "address",
          "name": "mediaEOA",
          "type": "address"
        },
        {
          "internalType": "string",
          "name": "applicationMetadata",
          "type": "string"
        },
        {
          "internalType": "string",
          "name": "updatableMetadata",
          "type": "string"
        }
      ],
      "stateMutability": "view",
      "type": "function"
    },
    {
      "inputs": [
        {
          "internalType": "address",
          "name": "proxy",
          "type": "address"
        }
      ],
      "name": "created",
      "outputs": [
        {
          "internalType": "bool",
          "name": "",
          "type": "bool"
        }
      ],
      "stateMutability": "view",
      "type": "function"
    },
    {
      "inputs": [],
      "name": "englishAuctionAddress",
      "outputs": [
        {
          "internalType": "address",
          "name": "",
          "type": "address"
        }
      ],
      "stateMutability": "view",
      "type": "function"
    },
    {
      "inputs": [],
      "name": "eventEmitterAddress",
      "outputs": [
        {
          "internalType": "address",
          "name": "",
          "type": "address"
        }
      ],
      "stateMutability": "view",
      "type": "function"
    },
    {
      "inputs": [],
      "name": "mediaFactoryAddress",
      "outputs": [
        {
          "internalType": "address",
          "name": "",
          "type": "address"
        }
      ],
      "stateMutability": "view",
      "type": "function"
    },
    {
      "inputs": [],
      "name": "mediaRegistryAddress",
      "outputs": [
        {
          "internalType": "address",
          "name": "",
          "type": "address"
        }
      ],
      "stateMutability": "view",
      "type": "function"
    },
    {
      "inputs": [],
      "name": "nameRegistryAddress",
      "outputs": [
        {
          "internalType": "address",
          "name": "",
          "type": "address"
        }
      ],
      "stateMutability": "view",
      "type": "function"
    },
    {
      "inputs": [],
      "name": "offerBidAddress",
      "outputs": [
        {
          "internalType": "address",
          "name": "",
          "type": "address"
        }
      ],
      "stateMutability": "view",
      "type": "function"
    },
    {
      "inputs": [],
      "name": "openBidAddress",
      "outputs": [
        {
          "internalType": "address",
          "name": "",
          "type": "address"
        }
      ],
      "stateMutability": "view",
      "type": "function"
    },
    {
      "inputs": [],
      "name": "owner",
      "outputs": [
        {
          "internalType": "address",
          "name": "",
          "type": "address"
        }
      ],
      "stateMutability": "view",
      "type": "function"
    },
    {
      "inputs": [
        {
          "internalType": "address",
          "name": "proxy",
          "type": "address"
        }
      ],
      "name": "ownerOf",
      "outputs": [
        {
          "internalType": "address",
          "name": "",
          "type": "address"
        }
      ],
      "stateMutability": "view",
      "type": "function"
    },
    {
      "inputs": [
        {
          "internalType": "address",
          "name": "proxy",
          "type": "address"
        },
        {
          "internalType": "string",
          "name": "metadata",
          "type": "string"
        }
      ],
      "name": "updateApplicationMetadata",
      "outputs": [],
      "stateMutability": "nonpayable",
      "type": "function"
    },
    {
      "inputs": [
        {
          "internalType": "address",
          "name": "mediaEOA",
          "type": "address"
        },
        {
          "internalType": "string",
          "name": "metadata",
          "type": "string"
        }
      ],
      "name": "updateMedia",
      "outputs": [],
      "stateMutability": "nonpayable",
      "type": "function"
    },
    {
      "inputs": [],
      "name": "vaultAddress",
      "outputs": [
        {
          "internalType": "address",
          "name": "",
          "type": "address"
        }
      ],
      "stateMutability": "view",
      "type": "function"
    }
  ],
  "transactionHash": "0xafc059582c1b059b35d28b265d47bdc894907736298b4935bed0578a468d3086",
  "args": [
    "0x173E3862BaE7bD155a7a371Ee3b855de01aa63dd"
  ],
  "solcInputHash": "c223bd9c030b84fabf96ddb6a85aba33",
  "bytecode": "0x608060405234801561001057600080fd5b50604051610bd8380380610bd883398101604081905261002f91610050565b600080546001600160a01b0319166001600160a01b03831617905550610080565b60006020828403121561006257600080fd5b81516001600160a01b038116811461007957600080fd5b9392505050565b610b498061008f6000396000f3fe608060405234801561001057600080fd5b50600436106100d05760003560e01c80630106d8eb146100d55780630df8e9fe146100fa57806314afd79e1461011d578063179bcff7146101305780632231c1eb1461014557806327b7a2f51461014d578063430bf08a1461015e5780636a58767e146101665780637cf175fb1461016e5780638da5cb5b146101765780638f6059d61461017e578063a029900814610186578063a8774e1714610199578063c9cd71b5146101ac578063d42efd83146101b4578063f0726291146101f2575b600080fd5b6100dd6101fa565b6040516001600160a01b0390911681526020015b60405180910390f35b61010d610108366004610888565b6102b7565b6040516100f194939291906108f9565b6100dd61012b366004610888565b6103ff565b61014361013e3660046109e4565b610421565b005b6100dd6104b7565b6000546001600160a01b03166100dd565b6100dd6104e8565b6100dd610517565b6100dd61054e565b6100dd610580565b6100dd6105cf565b610143610194366004610a33565b610605565b6101436101a73660046109e4565b6106fb565b6100dd610771565b6101e26101c2366004610888565b6001600160a01b0390811660009081526001602052604090205416151590565b60405190151581526020016100f1565b6100dd6107a1565b600080546040516d22b733b634b9b420bab1ba34b7b760911b60208201526001600160a01b0390911690638eaa6ac090602e015b604051602081830303815290604052805190602001206040518263ffffffff1660e01b815260040161026291815260200190565b60206040518083038186803b15801561027a57600080fd5b505afa15801561028e573d6000803e3d6000fd5b505050506040513d601f19601f820116820180604052508101906102b29190610abb565b905090565b60016020819052600091825260409091208054918101546002820180546001600160a01b039485169490921692916102ee90610ad8565b80601f016020809104026020016040519081016040528092919081815260200182805461031a90610ad8565b80156103675780601f1061033c57610100808354040283529160200191610367565b820191906000526020600020905b81548152906001019060200180831161034a57829003601f168201915b50505050509080600301805461037c90610ad8565b80601f01602080910402602001604051908101604052809291908181526020018280546103a890610ad8565b80156103f55780601f106103ca576101008083540402835291602001916103f5565b820191906000526020600020905b8154815290600101906020018083116103d857829003601f168201915b5050505050905084565b6001600160a01b03908116600090815260016020819052604090912001541690565b600061042c336103ff565b6001600160a01b031614156104705760405162461bcd60e51b81526020600482015260056024820152644b4430313160d81b60448201526064015b60405180910390fd5b33600090815260016020818152604090922090810180546001600160a01b0319166001600160a01b03861617905582516104b2926003909201918401906107d7565b505050565b600080546040516613dc195b909a5960ca1b60208201526001600160a01b0390911690638eaa6ac09060270161022e565b600080546040516415985d5b1d60da1b60208201526001600160a01b0390911690638eaa6ac09060250161022e565b600080546040516c4d65646961526567697374727960981b60208201526001600160a01b0390911690638eaa6ac090602d0161022e565b600080546040516713d999995c909a5960c21b60208201526001600160a01b0390911690638eaa6ac09060280161022e565b60008060009054906101000a90046001600160a01b03166001600160a01b031663d5f394886040518163ffffffff1660e01b815260040160206040518083038186803b15801561027a57600080fd5b600080546040516b4d65646961466163746f727960a01b60208201526001600160a01b0390911690638eaa6ac090602c0161022e565b61060d6105cf565b6001600160a01b0316336001600160a01b0316146106555760405162461bcd60e51b815260206004820152600560248201526404b443031360dc1b6044820152606401610467565b604080516080810182526001600160a01b038087168083528482166020808501918252848601898152606086018990526000938452600180835296909320855181549086166001600160a01b031991821617825592519681018054979095169690921695909517909255518051929391926106d692600285019201906107d7565b50606082015180516106f29160038401916020909101906107d7565b50505050505050565b33610704610580565b6001600160a01b0316146107425760405162461bcd60e51b815260206004820152600560248201526425a218189960d91b6044820152606401610467565b6001600160a01b038216600090815260016020908152604090912082516104b2926002909201918401906107d7565b60008054604051651059141bdbdb60d21b60208201526001600160a01b0390911690638eaa6ac09060260161022e565b600080546040516b22bb32b73a22b6b4ba3a32b960a11b60208201526001600160a01b0390911690638eaa6ac090602c0161022e565b8280546107e390610ad8565b90600052602060002090601f016020900481019282610805576000855561084b565b82601f1061081e57805160ff191683800117855561084b565b8280016001018555821561084b579182015b8281111561084b578251825591602001919060010190610830565b5061085792915061085b565b5090565b5b80821115610857576000815560010161085c565b6001600160a01b038116811461088557600080fd5b50565b60006020828403121561089a57600080fd5b81356108a581610870565b9392505050565b6000815180845260005b818110156108d2576020818501810151868301820152016108b6565b818111156108e4576000602083870101525b50601f01601f19169290920160200192915050565b6001600160a01b03858116825284166020820152608060408201819052600090610925908301856108ac565b828103606084015261093781856108ac565b979650505050505050565b634e487b7160e01b600052604160045260246000fd5b600082601f83011261096957600080fd5b81356001600160401b038082111561098357610983610942565b604051601f8301601f19908116603f011681019082821181831017156109ab576109ab610942565b816040528381528660208588010111156109c457600080fd5b836020870160208301376000602085830101528094505050505092915050565b600080604083850312156109f757600080fd5b8235610a0281610870565b915060208301356001600160401b03811115610a1d57600080fd5b610a2985828601610958565b9150509250929050565b60008060008060808587031215610a4957600080fd5b8435610a5481610870565b935060208501356001600160401b0380821115610a7057600080fd5b610a7c88838901610958565b94506040870135915080821115610a9257600080fd5b50610a9f87828801610958565b9250506060850135610ab081610870565b939692955090935050565b600060208284031215610acd57600080fd5b81516108a581610870565b600181811c90821680610aec57607f821691505b60208210811415610b0d57634e487b7160e01b600052602260045260246000fd5b5091905056fea2646970667358221220390a318e6cde8cd11ac5114aad531538310a761fc55dfdc4b7a00557208a009a64736f6c63430008090033",
  "devdoc": {
    "author": "Shumpei Koike - <shumpei.koike@bridges.inc>",
    "kind": "dev",
    "methods": {
      "adPoolAddress()": {
        "details": "Gets the address of AdPool."
      },
      "addMedia(address,string,string,address)": {
        "details": "Adds media account.",
        "params": {
          "applicationMetadata": "string of constant metadata for the defailts of the account",
          "mediaEOA": "address of the media account",
          "proxy": "address of the proxy contract",
          "updatableMetadata": "string of constant metadata for the defailts of the account"
        }
      },
      "constructor": {
        "details": "_nameRegistry address of the NameRegistry"
      },
      "created(address)": {
        "details": "Returns whether the account has created or not.",
        "params": {
          "proxy": "address of the proxy contract that represents an account."
        }
      },
      "englishAuctionAddress()": {
        "details": "Gets the address of EnglishAuction."
      },
      "eventEmitterAddress()": {
        "details": "Gets the address of EventEmitter."
      },
      "mediaFactoryAddress()": {
        "details": "Gets the address of MediaFactory."
      },
      "mediaRegistryAddress()": {
        "details": "Gets the address of MediaRegistry."
      },
      "nameRegistryAddress()": {
        "details": "Gets the address of NameRegistry"
      },
      "offerBidAddress()": {
        "details": "Gets the address of OfferBid."
      },
      "openBidAddress()": {
        "details": "Gets the address of OpenBid."
      },
      "owner()": {
        "details": "Gets the owner address."
      },
      "ownerOf(address)": {
        "details": "Returns the owner of the account.",
        "params": {
          "proxy": "address of the proxy contract that represents an account."
        }
      },
      "updateMedia(address,string)": {
        "details": "Updates media account.",
        "params": {
          "mediaEOA": "address of the media account",
          "metadata": "string of the account metadata"
        }
      },
      "vaultAddress()": {
        "details": "Gets the address of Vault."
      }
    },
    "title": "MediaRegistry - registers a list of media accounts.",
    "version": 1
  },
  "userdoc": {
    "kind": "user",
    "methods": {
      "constructor": {
        "notice": "Constructor"
      }
    },
    "version": 1
  },
  "storageLayout": {
    "storage": [
      {
        "astId": 2131,
        "contract": "contracts/peripheries/MediaRegistry.sol:MediaRegistry",
        "label": "_nameRegistry",
        "offset": 0,
        "slot": "0",
        "type": "t_contract(INameRegistry)4553"
      },
      {
        "astId": 6847,
        "contract": "contracts/peripheries/MediaRegistry.sol:MediaRegistry",
        "label": "allAccounts",
        "offset": 0,
        "slot": "1",
        "type": "t_mapping(t_address,t_struct(Account)4462_storage)"
      }
    ],
    "types": {
      "t_address": {
        "encoding": "inplace",
        "label": "address",
        "numberOfBytes": "20"
      },
      "t_contract(INameRegistry)4553": {
        "encoding": "inplace",
        "label": "contract INameRegistry",
        "numberOfBytes": "20"
      },
      "t_mapping(t_address,t_struct(Account)4462_storage)": {
        "encoding": "mapping",
        "key": "t_address",
        "label": "mapping(address => struct IMediaRegistry.Account)",
        "numberOfBytes": "32",
        "value": "t_struct(Account)4462_storage"
      },
      "t_string_storage": {
        "encoding": "bytes",
        "label": "string",
        "numberOfBytes": "32"
      },
      "t_struct(Account)4462_storage": {
        "encoding": "inplace",
        "label": "struct IMediaRegistry.Account",
        "members": [
          {
            "astId": 4455,
            "contract": "contracts/peripheries/MediaRegistry.sol:MediaRegistry",
            "label": "proxy",
            "offset": 0,
            "slot": "0",
            "type": "t_address"
          },
          {
            "astId": 4457,
            "contract": "contracts/peripheries/MediaRegistry.sol:MediaRegistry",
            "label": "mediaEOA",
            "offset": 0,
            "slot": "1",
            "type": "t_address"
          },
          {
            "astId": 4459,
            "contract": "contracts/peripheries/MediaRegistry.sol:MediaRegistry",
            "label": "applicationMetadata",
            "offset": 0,
            "slot": "2",
            "type": "t_string_storage"
          },
          {
            "astId": 4461,
            "contract": "contracts/peripheries/MediaRegistry.sol:MediaRegistry",
            "label": "updatableMetadata",
            "offset": 0,
            "slot": "3",
            "type": "t_string_storage"
          }
        ],
        "numberOfBytes": "128"
      }
    }
  }
}