{
  "address": "0xCEdbC994A0e19B75740c1f298bf5251348F2100c",
  "abi": [
    {
      "inputs": [
        {
          "internalType": "address",
          "name": "_nameRegistry",
          "type": "address"
        }
      ],
      "stateMutability": "nonpayable",
      "type": "constructor"
    },
    {
      "anonymous": false,
      "inputs": [
        {
          "indexed": false,
          "internalType": "contract MediaProxy",
          "name": "proxy",
          "type": "address"
        }
      ],
      "name": "CreateProxy",
      "type": "event"
    },
    {
      "inputs": [],
      "name": "adPoolAddress",
      "outputs": [
        {
          "internalType": "address",
          "name": "",
          "type": "address"
        }
      ],
      "stateMutability": "view",
      "type": "function"
    },
    {
      "inputs": [],
      "name": "englishAuctionAddress",
      "outputs": [
        {
          "internalType": "address",
          "name": "",
          "type": "address"
        }
      ],
      "stateMutability": "view",
      "type": "function"
    },
    {
      "inputs": [],
      "name": "eventEmitterAddress",
      "outputs": [
        {
          "internalType": "address",
          "name": "",
          "type": "address"
        }
      ],
      "stateMutability": "view",
      "type": "function"
    },
    {
      "inputs": [],
      "name": "mediaFactoryAddress",
      "outputs": [
        {
          "internalType": "address",
          "name": "",
          "type": "address"
        }
      ],
      "stateMutability": "view",
      "type": "function"
    },
    {
      "inputs": [],
      "name": "mediaRegistryAddress",
      "outputs": [
        {
          "internalType": "address",
          "name": "",
          "type": "address"
        }
      ],
      "stateMutability": "view",
      "type": "function"
    },
    {
      "inputs": [],
      "name": "nameRegistryAddress",
      "outputs": [
        {
          "internalType": "address",
          "name": "",
          "type": "address"
        }
      ],
      "stateMutability": "view",
      "type": "function"
    },
    {
      "inputs": [
        {
          "internalType": "address",
          "name": "mediaEOA",
          "type": "address"
        },
        {
          "internalType": "string",
          "name": "applicationMetadata",
          "type": "string"
        },
        {
          "internalType": "string",
          "name": "updatableMetadata",
          "type": "string"
        },
        {
          "internalType": "bytes",
          "name": "initializer",
          "type": "bytes"
        },
        {
          "internalType": "uint256",
          "name": "saltNonce",
          "type": "uint256"
        }
      ],
      "name": "newMedia",
      "outputs": [
        {
          "internalType": "contract MediaProxy",
          "name": "proxy",
          "type": "address"
        }
      ],
      "stateMutability": "nonpayable",
      "type": "function"
    },
    {
      "inputs": [],
      "name": "offerBidAddress",
      "outputs": [
        {
          "internalType": "address",
          "name": "",
          "type": "address"
        }
      ],
      "stateMutability": "view",
      "type": "function"
    },
    {
      "inputs": [],
      "name": "openBidAddress",
      "outputs": [
        {
          "internalType": "address",
          "name": "",
          "type": "address"
        }
      ],
      "stateMutability": "view",
      "type": "function"
    },
    {
      "inputs": [],
      "name": "owner",
      "outputs": [
        {
          "internalType": "address",
          "name": "",
          "type": "address"
        }
      ],
      "stateMutability": "view",
      "type": "function"
    },
    {
      "inputs": [],
      "name": "proposalReviewAddress",
      "outputs": [
        {
          "internalType": "address",
          "name": "",
          "type": "address"
        }
      ],
      "stateMutability": "view",
      "type": "function"
    },
    {
      "inputs": [],
      "name": "vaultAddress",
      "outputs": [
        {
          "internalType": "address",
          "name": "",
          "type": "address"
        }
      ],
      "stateMutability": "view",
      "type": "function"
    }
  ],
  "transactionHash": "0x52899761a8804c9d84bd0d44e10dfd4fc729a6d476f440075d393d1973390139",
  "args": [
    "0x173E3862BaE7bD155a7a371Ee3b855de01aa63dd"
  ],
  "solcInputHash": "289fa2710193a113c0b3ec7823c19cab",
  "bytecode": "0x608060405234801561001057600080fd5b5060405161110138038061110183398101604081905261002f91610050565b600080546001600160a01b0319166001600160a01b03831617905550610080565b60006020828403121561006257600080fd5b81516001600160a01b038116811461007957600080fd5b9392505050565b6110728061008f6000396000f3fe608060405234801561001057600080fd5b50600436106100a45760003560e01c80630106d8eb146100a95780632231c1eb146100c757806327b7a2f5146100cf578063430bf08a146100d757806363cfbab1146100df5780636a58767e146100f25780637cf175fb146100fa5780638da5cb5b146101025780638f6059d61461010a578063c9cd71b514610112578063e2f5fc781461011a578063f072629114610122575b600080fd5b6100b161012a565b6040516100be91906106a5565b60405180910390f35b6100b16101e7565b6100b1610218565b6100b1610227565b6100b16100ed366004610783565b610256565b6100b1610399565b6100b16103d0565b6100b1610402565b6100b1610451565b6100b1610487565b6100b16104b7565b6100b16104ef565b600080546040516d22b733b634b9b420bab1ba34b7b760911b60208201526001600160a01b0390911690638eaa6ac090602e015b604051602081830303815290604052805190602001206040518263ffffffff1660e01b815260040161019291815260200190565b60206040518083038186803b1580156101aa57600080fd5b505afa1580156101be573d6000803e3d6000fd5b505050506040513d601f19601f820116820180604052508101906101e29190610839565b905090565b600080546040516613dc195b909a5960ca1b60208201526001600160a01b0390911690638eaa6ac09060270161015e565b6000546001600160a01b031690565b600080546040516415985d5b1d60da1b60208201526001600160a01b0390911690638eaa6ac09060250161015e565b600033610261610402565b6001600160a01b0316146102a45760405162461bcd60e51b815260206004820152600560248201526425a218189960d91b60448201526064015b60405180910390fd5b6102b66102af610218565b8484610525565b90506102c0610595565b6001600160a01b031663a02990088287878a6040518563ffffffff1660e01b81526004016102f194939291906108b2565b600060405180830381600087803b15801561030b57600080fd5b505af115801561031f573d6000803e3d6000fd5b5050505061032b61059f565b6001600160a01b0316630797ec0882888888876040518663ffffffff1660e01b815260040161035e9594939291906108fb565b600060405180830381600087803b15801561037857600080fd5b505af115801561038c573d6000803e3d6000fd5b5050505095945050505050565b600080546040516c4d65646961526567697374727960981b60208201526001600160a01b0390911690638eaa6ac090602d0161015e565b600080546040516713d999995c909a5960c21b60208201526001600160a01b0390911690638eaa6ac09060280161015e565b60008060009054906101000a90046001600160a01b03166001600160a01b031663d5f394886040518163ffffffff1660e01b815260040160206040518083038186803b1580156101aa57600080fd5b600080546040516b4d65646961466163746f727960a01b60208201526001600160a01b0390911690638eaa6ac090602c0161015e565b60008054604051651059141bdbdb60d21b60208201526001600160a01b0390911690638eaa6ac09060260161015e565b600080546040516d50726f706f73616c52657669657760901b60208201526001600160a01b0390911690638eaa6ac090602e0161015e565b600080546040516b22bb32b73a22b6b4ba3a32b960a11b60208201526001600160a01b0390911690638eaa6ac090602c0161015e565b60006105328484846105a9565b8351909150156105575760008060008551602087016000865af1141561055757600080fd5b7f32340bf052adf19b6294f5a724325e4cc444978d2cc5c7e2769a2df85db660988160405161058691906106a5565b60405180910390a19392505050565b60006101e2610399565b60006101e26104ef565b6000808380519060200120836040516020016105cf929190918252602082015260400190565b6040516020818303038152906040528051906020012090506000604051806020016105f990610698565b601f1982820381018352601f90910116604081905261062691906001600160a01b0389169060200161094c565b6040516020818303038152906040529050818151826020016000f592506001600160a01b03831661068f5760405162461bcd60e51b815260206004820152601360248201527210dc99585d194c8818d85b1b0819985a5b1959606a1b604482015260640161029b565b50509392505050565b6106ce8061096f83390190565b6001600160a01b0391909116815260200190565b6001600160a01b03811681146106ce57600080fd5b50565b634e487b7160e01b600052604160045260246000fd5b60006001600160401b0380841115610701576107016106d1565b604051601f8501601f19908116603f01168101908282118183101715610729576107296106d1565b8160405280935085815286868601111561074257600080fd5b858560208301376000602087830101525050509392505050565b600082601f83011261076d57600080fd5b61077c838335602085016106e7565b9392505050565b600080600080600060a0868803121561079b57600080fd5b85356107a6816106b9565b945060208601356001600160401b03808211156107c257600080fd5b6107ce89838a0161075c565b955060408801359150808211156107e457600080fd5b6107f089838a0161075c565b9450606088013591508082111561080657600080fd5b508601601f8101881361081857600080fd5b610827888235602084016106e7565b95989497509295608001359392505050565b60006020828403121561084b57600080fd5b815161077c816106b9565b60005b83811015610871578181015183820152602001610859565b83811115610880576000848401525b50505050565b6000815180845261089e816020860160208601610856565b601f01601f19169290920160200192915050565b600060018060a01b038087168352608060208401526108d46080840187610886565b83810360408501526108e68187610886565b92505080841660608401525095945050505050565b6001600160a01b0386811682528516602082015260a06040820181905260009061092790830186610886565b82810360608401526109398186610886565b9150508260808301529695505050505050565b6000835161095e818460208801610856565b919091019182525060200191905056fe608060405234801561001057600080fd5b506040516106ce3803806106ce83398101604081905261002f91610159565b806001600160a01b0381166100735760405162461bcd60e51b8152602060048201526005602482015264415230303160d81b60448201526064015b60405180910390fd5b61007c81610083565b5050610189565b6100968161015060201b61048c1760201c565b6100f85760405162461bcd60e51b815260206004820152602d60248201527f455243313936373a206e657720696d706c656d656e746174696f6e206973206e60448201526c1bdd08184818dbdb9d1c9858dd609a1b606482015260840161006a565b8061012f7f360894a13ba1a3210667c828492db98dca3e2076cc3735a920a3ca505d382bbc60001b61015660201b6104921760201c565b80546001600160a01b0319166001600160a01b039290921691909117905550565b3b151590565b90565b60006020828403121561016b57600080fd5b81516001600160a01b038116811461018257600080fd5b9392505050565b610536806101986000396000f3fe6080604052600436106100225760003560e01c8063a619486e146103275761031d565b3661031d573461006c5760405162461bcd60e51b81526020600482015260116024820152706d73672e76616c7565206973207a65726f60781b604482015260640160405180910390fd5b6000610076610358565b6001600160a01b0316638eaa6ac06040516020016100a6906b22bb32b73a22b6b4ba3a32b960a11b8152600c0190565b604051602081830303815290604052805190602001206040518263ffffffff1660e01b81526004016100da91815260200190565b60206040518083038186803b1580156100f257600080fd5b505afa158015610106573d6000803e3d6000fd5b505050506040513d601f19601f8201168201806040525081019061012a9190610495565b604051637c302ae360e01b81529091506001600160a01b03821690637c302ae39061015b90309034906004016104c5565b600060405180830381600087803b15801561017557600080fd5b505af1158015610189573d6000803e3d6000fd5b505050506000610197610358565b6001600160a01b0316638eaa6ac06040516020016101c0906415985d5b1d60da1b815260050190565b604051602081830303815290604052805190602001206040518263ffffffff1660e01b81526004016101f491815260200190565b60206040518083038186803b15801561020c57600080fd5b505afa158015610220573d6000803e3d6000fd5b505050506040513d601f19601f820116820180604052508101906102449190610495565b905060006001600160a01b03821661025d6002346104de565b60405161271091906000818181858888f193505050503d806000811461029f576040519150601f19603f3d011682016040523d82523d6000602084013e6102a4565b606091505b5050905080610318576001600160a01b03831663ec720b9b836102c86002346104de565b6040518363ffffffff1660e01b81526004016102e59291906104c5565b600060405180830381600087803b1580156102ff57600080fd5b505af1158015610313573d6000803e3d6000fd5b505050505b505050005b610325610390565b005b34801561033357600080fd5b5061033c610358565b6040516001600160a01b03909116815260200160405180910390f35b600061038b7f360894a13ba1a3210667c828492db98dca3e2076cc3735a920a3ca505d382bbc546001600160a01b031690565b905090565b600061039a610358565b6001600160a01b0316638eaa6ac06040516020016103c7906820b226b0b730b3b2b960b91b815260090190565b604051602081830303815290604052805190602001206040518263ffffffff1660e01b81526004016103fb91815260200190565b60206040518083038186803b15801561041357600080fd5b505afa158015610427573d6000803e3d6000fd5b505050506040513d601f19601f8201168201806040525081019061044b9190610495565b905063530ca43760e11b6000351415610468578060005260206000f35b3660008037600080366000845af43d6000803e808015610487573d6000f35b3d6000fd5b3b151590565b90565b6000602082840312156104a757600080fd5b81516001600160a01b03811681146104be57600080fd5b9392505050565b6001600160a01b03929092168252602082015260400190565b6000826104fb57634e487b7160e01b600052601260045260246000fd5b50049056fea26469706673582212203f11ca7ff2cc5aef88460da1951219c69e0ba8f688b97b5fe79f97cb7d58c88f64736f6c63430008090033a2646970667358221220be0ddc3642ed69de31b53d5234b07eb29f986455f3d91d143e0c6f49d35bd49d64736f6c63430008090033",
  "devdoc": {
    "author": "Shumpei Koike - <shumpei.koike@bridges.inc>",
    "events": {
      "CreateProxy(address)": {
        "details": "Emitted when a new media is created."
      }
    },
    "kind": "dev",
    "methods": {
      "adPoolAddress()": {
        "details": "Gets the address of AdPool."
      },
      "constructor": {
        "details": "Initializer",
        "params": {
          "_nameRegistry": "address of NameRegistry"
        }
      },
      "englishAuctionAddress()": {
        "details": "Gets the address of EnglishAuction."
      },
      "eventEmitterAddress()": {
        "details": "Gets the address of EventEmitter."
      },
      "mediaFactoryAddress()": {
        "details": "Gets the address of MediaFactory."
      },
      "mediaRegistryAddress()": {
        "details": "Gets the address of MediaRegistry."
      },
      "nameRegistryAddress()": {
        "details": "Gets the address of NameRegistry"
      },
      "newMedia(address,string,string,bytes,uint256)": {
        "details": "Create a new account for media. Each proxy has its own storage and saves      data related to NFTs.",
        "params": {
          "applicationMetadata": "string of constant metadata for the defailts of the account",
          "initializer": "bytes of the initalize calldata",
          "mediaEOA": "address of the media EOA",
          "saltNonce": "uint256 of the salt number to create a proxy address",
          "updatableMetadata": "string of constant metadata for the defailts of the account"
        }
      },
      "offerBidAddress()": {
        "details": "Gets the address of OfferBid."
      },
      "openBidAddress()": {
        "details": "Gets the address of OpenBid."
      },
      "owner()": {
        "details": "Gets the owner address."
      },
      "proposalReviewAddress()": {
        "details": "Gets the address of ProposalReview."
      },
      "vaultAddress()": {
        "details": "Gets the address of Vault."
      }
    },
    "title": "MediaFactory - creates proxy contracts for media accounts.",
    "version": 1
  },
  "userdoc": {
    "kind": "user",
    "methods": {},
    "version": 1
  },
  "storageLayout": {
    "storage": [
      {
        "astId": 2345,
        "contract": "contracts/proxies/MediaFactory.sol:MediaFactory",
        "label": "_nameRegistry",
        "offset": 0,
        "slot": "0",
        "type": "t_contract(INameRegistry)4466"
      }
    ],
    "types": {
      "t_contract(INameRegistry)4466": {
        "encoding": "inplace",
        "label": "contract INameRegistry",
        "numberOfBytes": "20"
      }
    }
  }
}