{
  "address": "0x409A944c3f7C8F83e333e714278509F5B02E1f2c",
  "abi": [
    {
      "inputs": [],
      "stateMutability": "nonpayable",
      "type": "constructor"
    },
    {
      "anonymous": false,
      "inputs": [
        {
          "indexed": true,
          "internalType": "address",
          "name": "previousOwner",
          "type": "address"
        },
        {
          "indexed": true,
          "internalType": "address",
          "name": "newOwner",
          "type": "address"
        }
      ],
      "name": "OwnershipTransferred",
      "type": "event"
    },
    {
      "inputs": [
        {
          "internalType": "address",
          "name": "",
          "type": "address"
        }
      ],
      "name": "allowedContracts",
      "outputs": [
        {
          "internalType": "bool",
          "name": "",
          "type": "bool"
        }
      ],
      "stateMutability": "view",
      "type": "function"
    },
    {
      "inputs": [
        {
          "internalType": "bytes32",
          "name": "key",
          "type": "bytes32"
        }
      ],
      "name": "get",
      "outputs": [
        {
          "internalType": "address",
          "name": "",
          "type": "address"
        }
      ],
      "stateMutability": "view",
      "type": "function"
    },
    {
      "inputs": [],
      "name": "owner",
      "outputs": [
        {
          "internalType": "address",
          "name": "",
          "type": "address"
        }
      ],
      "stateMutability": "view",
      "type": "function"
    },
    {
      "inputs": [],
      "name": "renounceOwnership",
      "outputs": [],
      "stateMutability": "nonpayable",
      "type": "function"
    },
    {
      "inputs": [
        {
          "internalType": "bytes32",
          "name": "key",
          "type": "bytes32"
        },
        {
          "internalType": "address",
          "name": "value",
          "type": "address"
        }
      ],
      "name": "set",
      "outputs": [],
      "stateMutability": "nonpayable",
      "type": "function"
    },
    {
      "inputs": [
        {
          "internalType": "address",
          "name": "newOwner",
          "type": "address"
        }
      ],
      "name": "transferOwnership",
      "outputs": [],
      "stateMutability": "nonpayable",
      "type": "function"
    }
  ],
  "transactionHash": "0xc50f49370f525ea5cc4e8620ac1a5fa84a4d866cce19b1a656007e8eed9693b1",
  "args": [],
  "solcInputHash": "d90c8c8a2ae734d9fb8877bfbf6187c6",
  "bytecode": "0x608060405234801561001057600080fd5b5061001a3361001f565b61006f565b600080546001600160a01b038381166001600160a01b0319831681178455604051919092169283917f8be0079c531659141344cd1fd0a4f28419497f9722a3daafe3b4186f6b6457e09190a35050565b6104118061007e6000396000f3fe608060405234801561001057600080fd5b50600436106100625760003560e01c806351e0e26b14610067578063715018a61461009f5780638da5cb5b146100a95780638eaa6ac0146100ce578063ba44593c146100f7578063f2fde38b1461010a575b600080fd5b61008a610075366004610374565b60016020526000908152604090205460ff1681565b60405190151581526020015b60405180910390f35b6100a761011d565b005b6000546001600160a01b03165b6040516001600160a01b039091168152602001610096565b6100b66100dc366004610396565b6000908152600260205260409020546001600160a01b031690565b6100a76101053660046103af565b610188565b6100a7610118366004610374565b61023d565b6000546001600160a01b0316331461017c5760405162461bcd60e51b815260206004820181905260248201527f4f776e61626c653a2063616c6c6572206973206e6f7420746865206f776e657260448201526064015b60405180910390fd5b6101866000610308565b565b6000546001600160a01b031633146101e25760405162461bcd60e51b815260206004820181905260248201527f4f776e61626c653a2063616c6c6572206973206e6f7420746865206f776e65726044820152606401610173565b600082815260026020526040902080546001600160a01b0319166001600160a01b0383169081179091553b15610239576001600160a01b0381166000908152600160208190526040909120805460ff191690911790555b5050565b6000546001600160a01b031633146102975760405162461bcd60e51b815260206004820181905260248201527f4f776e61626c653a2063616c6c6572206973206e6f7420746865206f776e65726044820152606401610173565b6001600160a01b0381166102fc5760405162461bcd60e51b815260206004820152602660248201527f4f776e61626c653a206e6577206f776e657220697320746865207a65726f206160448201526564647265737360d01b6064820152608401610173565b61030581610308565b50565b600080546001600160a01b038381166001600160a01b0319831681178455604051919092169283917f8be0079c531659141344cd1fd0a4f28419497f9722a3daafe3b4186f6b6457e09190a35050565b80356001600160a01b038116811461036f57600080fd5b919050565b60006020828403121561038657600080fd5b61038f82610358565b9392505050565b6000602082840312156103a857600080fd5b5035919050565b600080604083850312156103c257600080fd5b823591506103d260208401610358565b9050925092905056fea2646970667358221220f69ba527f0d9560e9fd4e1ebe8f20ba9a086d561242c26acb912669bf556c17964736f6c63430008090033",
  "devdoc": {
    "author": "Shumpei Koike - <shumpei.koike@bridges.inc>",
    "kind": "dev",
    "methods": {
      "get(bytes32)": {
        "details": "Gets the address associated with the key name.",
        "params": {
          "key": "bytes32 of the key"
        }
      },
      "owner()": {
        "details": "Returns the address of the current owner."
      },
      "renounceOwnership()": {
        "details": "Leaves the contract without owner. It will not be possible to call `onlyOwner` functions anymore. Can only be called by the current owner. NOTE: Renouncing ownership will leave the contract without an owner, thereby removing any functionality that is only available to the owner."
      },
      "set(bytes32,address)": {
        "details": "Sets the address associated with the key name.      If the address is the contract, not an EOA, it is      saved as the allowed contract list.",
        "params": {
          "key": "bytes32 of the key",
          "value": "address of the value"
        }
      },
      "transferOwnership(address)": {
        "details": "Transfers ownership of the contract to a new account (`newOwner`). Can only be called by the current owner."
      }
    },
    "title": "NameRegistry - saves a set of addresses.",
    "version": 1
  },
  "userdoc": {
    "kind": "user",
    "methods": {},
    "version": 1
  },
  "storageLayout": {
    "storage": [
      {
        "astId": 2035,
        "contract": "contracts/accessors/NameRegistry.sol:NameRegistry",
        "label": "_owner",
        "offset": 0,
        "slot": "0",
        "type": "t_address"
      },
      {
        "astId": 1975,
        "contract": "contracts/accessors/NameRegistry.sol:NameRegistry",
        "label": "allowedContracts",
        "offset": 0,
        "slot": "1",
        "type": "t_mapping(t_address,t_bool)"
      },
      {
        "astId": 1979,
        "contract": "contracts/accessors/NameRegistry.sol:NameRegistry",
        "label": "_addressStorage",
        "offset": 0,
        "slot": "2",
        "type": "t_mapping(t_bytes32,t_address)"
      }
    ],
    "types": {
      "t_address": {
        "encoding": "inplace",
        "label": "address",
        "numberOfBytes": "20"
      },
      "t_bool": {
        "encoding": "inplace",
        "label": "bool",
        "numberOfBytes": "1"
      },
      "t_bytes32": {
        "encoding": "inplace",
        "label": "bytes32",
        "numberOfBytes": "32"
      },
      "t_mapping(t_address,t_bool)": {
        "encoding": "mapping",
        "key": "t_address",
        "label": "mapping(address => bool)",
        "numberOfBytes": "32",
        "value": "t_bool"
      },
      "t_mapping(t_bytes32,t_address)": {
        "encoding": "mapping",
        "key": "t_bytes32",
        "label": "mapping(bytes32 => address)",
        "numberOfBytes": "32",
        "value": "t_address"
      }
    }
  }
}