{
  "address": "0x173E3862BaE7bD155a7a371Ee3b855de01aa63dd",
  "abi": [
    {
      "inputs": [],
      "stateMutability": "nonpayable",
      "type": "constructor"
    },
    {
      "anonymous": false,
      "inputs": [
        {
          "indexed": true,
          "internalType": "address",
          "name": "previousOwner",
          "type": "address"
        },
        {
          "indexed": true,
          "internalType": "address",
          "name": "newOwner",
          "type": "address"
        }
      ],
      "name": "OwnershipTransferred",
      "type": "event"
    },
    {
      "inputs": [
        {
          "internalType": "address",
          "name": "",
          "type": "address"
        }
      ],
      "name": "allowedContracts",
      "outputs": [
        {
          "internalType": "bool",
          "name": "",
          "type": "bool"
        }
      ],
      "stateMutability": "view",
      "type": "function"
    },
    {
      "inputs": [],
      "name": "deployer",
      "outputs": [
        {
          "internalType": "address",
          "name": "",
          "type": "address"
        }
      ],
      "stateMutability": "view",
      "type": "function"
    },
    {
      "inputs": [
        {
          "internalType": "bytes32",
          "name": "key",
          "type": "bytes32"
        }
      ],
      "name": "get",
      "outputs": [
        {
          "internalType": "address",
          "name": "",
          "type": "address"
        }
      ],
      "stateMutability": "view",
      "type": "function"
    },
    {
      "inputs": [],
      "name": "owner",
      "outputs": [
        {
          "internalType": "address",
          "name": "",
          "type": "address"
        }
      ],
      "stateMutability": "view",
      "type": "function"
    },
    {
      "inputs": [],
      "name": "renounceOwnership",
      "outputs": [],
      "stateMutability": "nonpayable",
      "type": "function"
    },
    {
      "inputs": [
        {
          "internalType": "bytes32",
          "name": "key",
          "type": "bytes32"
        },
        {
          "internalType": "address",
          "name": "value",
          "type": "address"
        }
      ],
      "name": "set",
      "outputs": [],
      "stateMutability": "nonpayable",
      "type": "function"
    },
    {
      "inputs": [
        {
          "internalType": "address",
          "name": "newOwner",
          "type": "address"
        }
      ],
      "name": "transferOwnership",
      "outputs": [],
      "stateMutability": "nonpayable",
      "type": "function"
    }
  ],
  "transactionHash": "0x1a87aa00f3235ff55bfc730c56092dffcb76e660fe9fa24797b4195d9c649be6",
  "args": [],
  "solcInputHash": "d3d38aa74a09225e7603340a0e8b265f",
  "bytecode": "0x608060405234801561001057600080fd5b5061001a3361001f565b61006f565b600080546001600160a01b038381166001600160a01b0319831681178455604051919092169283917f8be0079c531659141344cd1fd0a4f28419497f9722a3daafe3b4186f6b6457e09190a35050565b6103f58061007e6000396000f3fe608060405234801561001057600080fd5b506004361061006d5760003560e01c806351e0e26b14610072578063715018a6146100aa5780638da5cb5b146100b45780638eaa6ac0146100d4578063ba44593c146100fd578063d5f3948814610110578063f2fde38b14610118575b600080fd5b610095610080366004610323565b60016020526000908152604090205460ff1681565b60405190151581526020015b60405180910390f35b6100b261012b565b005b6100bc61016f565b6040516001600160a01b0390911681526020016100a1565b6100bc6100e2366004610345565b6000908152600260205260409020546001600160a01b031690565b6100b261010b36600461035e565b61017e565b6100bc610208565b6100b2610126366004610323565b610217565b3361013461016f565b6001600160a01b0316146101635760405162461bcd60e51b815260040161015a9061038a565b60405180910390fd5b61016d60006102b7565b565b6000546001600160a01b031690565b3361018761016f565b6001600160a01b0316146101ad5760405162461bcd60e51b815260040161015a9061038a565b600082815260026020526040902080546001600160a01b0319166001600160a01b0383169081179091553b15610204576001600160a01b0381166000908152600160208190526040909120805460ff191690911790555b5050565b600061021261016f565b905090565b3361022061016f565b6001600160a01b0316146102465760405162461bcd60e51b815260040161015a9061038a565b6001600160a01b0381166102ab5760405162461bcd60e51b815260206004820152602660248201527f4f776e61626c653a206e6577206f776e657220697320746865207a65726f206160448201526564647265737360d01b606482015260840161015a565b6102b4816102b7565b50565b600080546001600160a01b038381166001600160a01b0319831681178455604051919092169283917f8be0079c531659141344cd1fd0a4f28419497f9722a3daafe3b4186f6b6457e09190a35050565b80356001600160a01b038116811461031e57600080fd5b919050565b60006020828403121561033557600080fd5b61033e82610307565b9392505050565b60006020828403121561035757600080fd5b5035919050565b6000806040838503121561037157600080fd5b8235915061038160208401610307565b90509250929050565b6020808252818101527f4f776e61626c653a2063616c6c6572206973206e6f7420746865206f776e657260408201526060019056fea2646970667358221220e2878d44699a41e86d0662ccb0f7adc7c4d09b8be4ecaaf081a2929af7dcc6f464736f6c63430008090033",
  "devdoc": {
    "author": "Shumpei Koike - <shumpei.koike@bridges.inc>",
    "kind": "dev",
    "methods": {
      "deployer()": {
        "details": "Gets the deployer of NameRegistry."
      },
      "get(bytes32)": {
        "details": "Gets the address associated with the key name.",
        "params": {
          "key": "bytes32 of the key"
        }
      },
      "owner()": {
        "details": "Returns the address of the current owner."
      },
      "renounceOwnership()": {
        "details": "Leaves the contract without owner. It will not be possible to call `onlyOwner` functions anymore. Can only be called by the current owner. NOTE: Renouncing ownership will leave the contract without an owner, thereby removing any functionality that is only available to the owner."
      },
      "set(bytes32,address)": {
        "details": "Sets the address associated with the key name.      If the address is the contract, not an EOA, it is      saved as the allowed contract list.",
        "params": {
          "key": "bytes32 of the key",
          "value": "address of the value"
        }
      },
      "transferOwnership(address)": {
        "details": "Transfers ownership of the contract to a new account (`newOwner`). Can only be called by the current owner."
      }
    },
    "stateVariables": {
      "allowedContracts": {
        "details": "Returns whether or not the address is the one that we deployed.",
        "params": {
          "caller": "address of the msg.sender"
        }
      }
    },
    "title": "NameRegistry - saves a set of addresses.",
    "version": 1
  },
  "userdoc": {
    "kind": "user",
    "methods": {},
    "version": 1
  },
  "storageLayout": {
    "storage": [
      {
        "astId": 7,
        "contract": "contracts/accessors/NameRegistry.sol:NameRegistry",
        "label": "_owner",
        "offset": 0,
        "slot": "0",
        "type": "t_address"
      },
      {
        "astId": 1944,
        "contract": "contracts/accessors/NameRegistry.sol:NameRegistry",
        "label": "allowedContracts",
        "offset": 0,
        "slot": "1",
        "type": "t_mapping(t_address,t_bool)"
      },
      {
        "astId": 1948,
        "contract": "contracts/accessors/NameRegistry.sol:NameRegistry",
        "label": "_addressStorage",
        "offset": 0,
        "slot": "2",
        "type": "t_mapping(t_bytes32,t_address)"
      }
    ],
    "types": {
      "t_address": {
        "encoding": "inplace",
        "label": "address",
        "numberOfBytes": "20"
      },
      "t_bool": {
        "encoding": "inplace",
        "label": "bool",
        "numberOfBytes": "1"
      },
      "t_bytes32": {
        "encoding": "inplace",
        "label": "bytes32",
        "numberOfBytes": "32"
      },
      "t_mapping(t_address,t_bool)": {
        "encoding": "mapping",
        "key": "t_address",
        "label": "mapping(address => bool)",
        "numberOfBytes": "32",
        "value": "t_bool"
      },
      "t_mapping(t_bytes32,t_address)": {
        "encoding": "mapping",
        "key": "t_bytes32",
        "label": "mapping(bytes32 => address)",
        "numberOfBytes": "32",
        "value": "t_address"
      }
    }
  }
}