{
  "address": "0xc0C853536DA89F4F8cb13a868cF4132E6FFAaDC0",
  "abi": [
    {
      "inputs": [
        {
          "internalType": "address",
          "name": "_nameRegistry",
          "type": "address"
        }
      ],
      "stateMutability": "nonpayable",
      "type": "constructor"
    },
    {
      "inputs": [
        {
          "internalType": "uint256",
          "name": "tokenId",
          "type": "uint256"
        },
        {
          "internalType": "string",
          "name": "tokenMetadata",
          "type": "string"
        }
      ],
      "name": "accept",
      "outputs": [
        {
          "internalType": "address",
          "name": "",
          "type": "address"
        },
        {
          "internalType": "uint256",
          "name": "",
          "type": "uint256"
        }
      ],
      "stateMutability": "nonpayable",
      "type": "function"
    },
    {
      "inputs": [],
      "name": "adPoolAddress",
      "outputs": [
        {
          "internalType": "address",
          "name": "",
          "type": "address"
        }
      ],
      "stateMutability": "view",
      "type": "function"
    },
    {
      "inputs": [
        {
          "internalType": "uint256",
          "name": "tokenId",
          "type": "uint256"
        },
        {
          "internalType": "address",
          "name": "sender",
          "type": "address"
        }
      ],
      "name": "cancel",
      "outputs": [],
      "stateMutability": "nonpayable",
      "type": "function"
    },
    {
      "inputs": [
        {
          "internalType": "uint256",
          "name": "tokenId",
          "type": "uint256"
        }
      ],
      "name": "currentPrice",
      "outputs": [
        {
          "internalType": "uint256",
          "name": "",
          "type": "uint256"
        }
      ],
      "stateMutability": "view",
      "type": "function"
    },
    {
      "inputs": [],
      "name": "englishAuctionAddress",
      "outputs": [
        {
          "internalType": "address",
          "name": "",
          "type": "address"
        }
      ],
      "stateMutability": "view",
      "type": "function"
    },
    {
      "inputs": [],
      "name": "eventEmitterAddress",
      "outputs": [
        {
          "internalType": "address",
          "name": "",
          "type": "address"
        }
      ],
      "stateMutability": "view",
      "type": "function"
    },
    {
      "inputs": [],
      "name": "mediaFactoryAddress",
      "outputs": [
        {
          "internalType": "address",
          "name": "",
          "type": "address"
        }
      ],
      "stateMutability": "view",
      "type": "function"
    },
    {
      "inputs": [],
      "name": "mediaRegistryAddress",
      "outputs": [
        {
          "internalType": "address",
          "name": "",
          "type": "address"
        }
      ],
      "stateMutability": "view",
      "type": "function"
    },
    {
      "inputs": [],
      "name": "nameRegistryAddress",
      "outputs": [
        {
          "internalType": "address",
          "name": "",
          "type": "address"
        }
      ],
      "stateMutability": "view",
      "type": "function"
    },
    {
      "inputs": [
        {
          "internalType": "string",
          "name": "spaceMetadata",
          "type": "string"
        },
        {
          "internalType": "uint256",
          "name": "displayStartTimestamp",
          "type": "uint256"
        },
        {
          "internalType": "uint256",
          "name": "displayEndTimestamp",
          "type": "uint256"
        },
        {
          "internalType": "address",
          "name": "sender",
          "type": "address"
        },
        {
          "internalType": "uint256",
          "name": "value",
          "type": "uint256"
        }
      ],
      "name": "offer",
      "outputs": [
        {
          "internalType": "uint256",
          "name": "tokenId",
          "type": "uint256"
        }
      ],
      "stateMutability": "nonpayable",
      "type": "function"
    },
    {
      "inputs": [],
      "name": "offerBidAddress",
      "outputs": [
        {
          "internalType": "address",
          "name": "",
          "type": "address"
        }
      ],
      "stateMutability": "view",
      "type": "function"
    },
    {
      "inputs": [
        {
          "internalType": "uint256",
          "name": "tokenId",
          "type": "uint256"
        }
      ],
      "name": "offered",
      "outputs": [
        {
          "components": [
            {
              "internalType": "string",
              "name": "spaceMetadata",
              "type": "string"
            },
            {
              "internalType": "uint256",
              "name": "displayStartTimestamp",
              "type": "uint256"
            },
            {
              "internalType": "uint256",
              "name": "displayEndTimestamp",
              "type": "uint256"
            },
            {
              "internalType": "address",
              "name": "sender",
              "type": "address"
            },
            {
              "internalType": "uint256",
              "name": "price",
              "type": "uint256"
            }
          ],
          "internalType": "struct Sale.Offer",
          "name": "",
          "type": "tuple"
        }
      ],
      "stateMutability": "view",
      "type": "function"
    },
    {
      "inputs": [],
      "name": "openBidAddress",
      "outputs": [
        {
          "internalType": "address",
          "name": "",
          "type": "address"
        }
      ],
      "stateMutability": "view",
      "type": "function"
    },
    {
      "inputs": [],
      "name": "owner",
      "outputs": [
        {
          "internalType": "address",
          "name": "",
          "type": "address"
        }
      ],
      "stateMutability": "view",
      "type": "function"
    },
    {
      "inputs": [],
      "name": "vaultAddress",
      "outputs": [
        {
          "internalType": "address",
          "name": "",
          "type": "address"
        }
      ],
      "stateMutability": "view",
      "type": "function"
    }
  ],
  "transactionHash": "0x5d33b7029218095b85c9075b1bd2ab8b378d23d2662e25a5a09a2f7879b253fd",
  "args": [
    "0x173E3862BaE7bD155a7a371Ee3b855de01aa63dd"
  ],
  "solcInputHash": "c223bd9c030b84fabf96ddb6a85aba33",
  "bytecode": "0x608060405234801561001057600080fd5b5060405161105b38038061105b83398101604081905261002f91610050565b600080546001600160a01b0319166001600160a01b03831617905550610080565b60006020828403121561006257600080fd5b81516001600160a01b038116811461007957600080fd5b9392505050565b610fcc8061008f6000396000f3fe608060405234801561001057600080fd5b50600436106100c55760003560e01c80630106d8eb146100ca57806301b99e04146100ef578063171a133d1461010f5780632231c1eb1461013057806327b7a2f5146101385780633d243e8b14610149578063430bf08a1461017b57806357d682c4146101835780636a58767e146101985780637a3c4c17146101a05780637cf175fb146101c35780638da5cb5b146101cb5780638f6059d6146101d3578063c9cd71b5146101db578063f0726291146101e3575b600080fd5b6100d26101eb565b6040516001600160a01b0390911681526020015b60405180910390f35b6101026100fd366004610be7565b6102a8565b6040516100e69190610c9e565b61012261011d366004610d6f565b6103c5565b6040519081526020016100e6565b6100d261065b565b6000546001600160a01b03166100d2565b61015c610157366004610dd9565b61068c565b604080516001600160a01b0390931683526020830191909152016100e6565b6100d2610879565b610196610191366004610e1f565b6108a8565b005b6100d26109a9565b6101226101ae366004610be7565b60009081526001602052604090206004015490565b6100d26109e0565b6100d2610a12565b6100d2610a61565b6100d2610a97565b6100d2610ac7565b600080546040516d22b733b634b9b420bab1ba34b7b760911b60208201526001600160a01b0390911690638eaa6ac090602e015b604051602081830303815290604052805190602001206040518263ffffffff1660e01b815260040161025391815260200190565b60206040518083038186803b15801561026b57600080fd5b505afa15801561027f573d6000803e3d6000fd5b505050506040513d601f19601f820116820180604052508101906102a39190610e4f565b905090565b6102e36040518060a0016040528060608152602001600081526020016000815260200160006001600160a01b03168152602001600081525090565b60008281526001602052604090819020815160a0810190925280548290829061030b90610e6c565b80601f016020809104026020016040519081016040528092919081815260200182805461033790610e6c565b80156103845780601f1061035957610100808354040283529160200191610384565b820191906000526020600020905b81548152906001019060200180831161036757829003601f168201915b5050509183525050600182015460208201526002820154604082015260038201546001600160a01b0316606082015260049091015460809091015292915050565b60006103cf610afd565b6001600160a01b03166365045a65876040518263ffffffff1660e01b81526004016103fa9190610ea7565b60206040518083038186803b15801561041257600080fd5b505afa158015610426573d6000803e3d6000fd5b505050506040513d601f19601f8201168201806040525081019061044a9190610eba565b6104835760405162461bcd60e51b81526020600482015260056024820152644b4431303160d81b60448201526064015b60405180910390fd5b8385106104ba5760405162461bcd60e51b81526020600482015260056024820152644b4431313360d81b604482015260640161047a565b6040516303fb4aab60e41b8152739F397D94EC32D43EeC60dCF9A38a44322D54d42A90633fb4aab0906104f590899089908990600401610edc565b60206040518083038186803b15801561050d57600080fd5b505af4158015610521573d6000803e3d6000fd5b505050506040513d601f19601f820116820180604052508101906105459190610f01565b6040805160a08101825288815260208082018990528183018890526001600160a01b03871660608301526080820186905260008481526001825292909220815180519495509193909261059c928492910190610b11565b50602082015160018201556040820151600282015560608201516003820180546001600160a01b0319166001600160a01b039092169190911790556080909101516004909101556105eb610b07565b6001600160a01b031663f4cb45e58288888888886040518763ffffffff1660e01b815260040161062096959493929190610f1a565b600060405180830381600087803b15801561063a57600080fd5b505af115801561064e573d6000803e3d6000fd5b5050505095945050505050565b600080546040516613dc195b909a5960ca1b60208201526001600160a01b0390911690638eaa6ac09060270161021f565b6000806000600160008681526020019081526020016000206040518060a00160405290816000820180546106bf90610e6c565b80601f01602080910402602001604051908101604052809291908181526020018280546106eb90610e6c565b80156107385780601f1061070d57610100808354040283529160200191610738565b820191906000526020600020905b81548152906001019060200180831161071b57829003601f168201915b5050509183525050600182015460208201526002820154604082015260038201546001600160a01b0390811660608084019190915260049093015460809092019190915290820151919250166107b85760405162461bcd60e51b81526020600482015260056024820152644b4431313560d81b604482015260640161047a565b6107c0610afd565b6001600160a01b031663a9ad60f38686846040518463ffffffff1660e01b81526004016107ef93929190610f61565b600060405180830381600087803b15801561080957600080fd5b505af115801561081d573d6000803e3d6000fd5b5050506000868152600160205260408120915061083a8282610b95565b50600060018201819055600282018190556003820180546001600160a01b03191690556004909101556060810151608090910151909590945092505050565b600080546040516415985d5b1d60da1b60208201526001600160a01b0390911690638eaa6ac09060250161021f565b6000828152600160205260409020600301546001600160a01b038281169116146108fc5760405162461bcd60e51b815260206004820152600560248201526425a218989b60d91b604482015260640161047a565b6000828152600160205260408120906109158282610b95565b50600060018201819055600282018190556003820180546001600160a01b0319169055600490910155610946610b07565b6001600160a01b031663f65f14ac836040518263ffffffff1660e01b815260040161097391815260200190565b600060405180830381600087803b15801561098d57600080fd5b505af11580156109a1573d6000803e3d6000fd5b505050505050565b600080546040516c4d65646961526567697374727960981b60208201526001600160a01b0390911690638eaa6ac090602d0161021f565b600080546040516713d999995c909a5960c21b60208201526001600160a01b0390911690638eaa6ac09060280161021f565b60008060009054906101000a90046001600160a01b03166001600160a01b031663d5f394886040518163ffffffff1660e01b815260040160206040518083038186803b15801561026b57600080fd5b600080546040516b4d65646961466163746f727960a01b60208201526001600160a01b0390911690638eaa6ac090602c0161021f565b60008054604051651059141bdbdb60d21b60208201526001600160a01b0390911690638eaa6ac09060260161021f565b600080546040516b22bb32b73a22b6b4ba3a32b960a11b60208201526001600160a01b0390911690638eaa6ac090602c0161021f565b60006102a3610a97565b60006102a3610ac7565b828054610b1d90610e6c565b90600052602060002090601f016020900481019282610b3f5760008555610b85565b82601f10610b5857805160ff1916838001178555610b85565b82800160010185558215610b85579182015b82811115610b85578251825591602001919060010190610b6a565b50610b91929150610bd2565b5090565b508054610ba190610e6c565b6000825580601f10610bb1575050565b601f016020900490600052602060002090810190610bcf9190610bd2565b50565b5b80821115610b915760008155600101610bd3565b600060208284031215610bf957600080fd5b5035919050565b6000815180845260005b81811015610c2657602081850181015186830182015201610c0a565b81811115610c38576000602083870101525b50601f01601f19169290920160200192915050565b6000815160a08452610c6260a0850182610c00565b60208481015190860152604080850151908601526060808501516001600160a01b03169086015260809384015193909401929092525090919050565b602081526000610cb16020830184610c4d565b9392505050565b634e487b7160e01b600052604160045260246000fd5b600082601f830112610cdf57600080fd5b81356001600160401b0380821115610cf957610cf9610cb8565b604051601f8301601f19908116603f01168101908282118183101715610d2157610d21610cb8565b81604052838152866020858801011115610d3a57600080fd5b836020870160208301376000602085830101528094505050505092915050565b6001600160a01b0381168114610bcf57600080fd5b600080600080600060a08688031215610d8757600080fd5b85356001600160401b03811115610d9d57600080fd5b610da988828901610cce565b95505060208601359350604086013592506060860135610dc881610d5a565b949793965091946080013592915050565b60008060408385031215610dec57600080fd5b8235915060208301356001600160401b03811115610e0957600080fd5b610e1585828601610cce565b9150509250929050565b60008060408385031215610e3257600080fd5b823591506020830135610e4481610d5a565b809150509250929050565b600060208284031215610e6157600080fd5b8151610cb181610d5a565b600181811c90821680610e8057607f821691505b60208210811415610ea157634e487b7160e01b600052602260045260246000fd5b50919050565b602081526000610cb16020830184610c00565b600060208284031215610ecc57600080fd5b81518015158114610cb157600080fd5b606081526000610eef6060830186610c00565b60208301949094525060400152919050565b600060208284031215610f1357600080fd5b5051919050565b86815260c060208201526000610f3360c0830188610c00565b60408301969096525060608101939093526001600160a01b0391909116608083015260a09091015292915050565b838152606060208201526000610f7a6060830185610c00565b8281036040840152610f8c8185610c4d565b969550505050505056fea264697066735822122078e6f4384f7f6f15e72d147b98469e899d6451d2e5f2da808dae6b907503781c64736f6c63430008090033",
  "deployedBytecode": "0x608060405234801561001057600080fd5b50600436106100c55760003560e01c80630106d8eb146100ca57806301b99e04146100ef578063171a133d1461010f5780632231c1eb1461013057806327b7a2f5146101385780633d243e8b14610149578063430bf08a1461017b57806357d682c4146101835780636a58767e146101985780637a3c4c17146101a05780637cf175fb146101c35780638da5cb5b146101cb5780638f6059d6146101d3578063c9cd71b5146101db578063f0726291146101e3575b600080fd5b6100d26101eb565b6040516001600160a01b0390911681526020015b60405180910390f35b6101026100fd366004610be7565b6102a8565b6040516100e69190610c9e565b61012261011d366004610d6f565b6103c5565b6040519081526020016100e6565b6100d261065b565b6000546001600160a01b03166100d2565b61015c610157366004610dd9565b61068c565b604080516001600160a01b0390931683526020830191909152016100e6565b6100d2610879565b610196610191366004610e1f565b6108a8565b005b6100d26109a9565b6101226101ae366004610be7565b60009081526001602052604090206004015490565b6100d26109e0565b6100d2610a12565b6100d2610a61565b6100d2610a97565b6100d2610ac7565b600080546040516d22b733b634b9b420bab1ba34b7b760911b60208201526001600160a01b0390911690638eaa6ac090602e015b604051602081830303815290604052805190602001206040518263ffffffff1660e01b815260040161025391815260200190565b60206040518083038186803b15801561026b57600080fd5b505afa15801561027f573d6000803e3d6000fd5b505050506040513d601f19601f820116820180604052508101906102a39190610e4f565b905090565b6102e36040518060a0016040528060608152602001600081526020016000815260200160006001600160a01b03168152602001600081525090565b60008281526001602052604090819020815160a0810190925280548290829061030b90610e6c565b80601f016020809104026020016040519081016040528092919081815260200182805461033790610e6c565b80156103845780601f1061035957610100808354040283529160200191610384565b820191906000526020600020905b81548152906001019060200180831161036757829003601f168201915b5050509183525050600182015460208201526002820154604082015260038201546001600160a01b0316606082015260049091015460809091015292915050565b60006103cf610afd565b6001600160a01b03166365045a65876040518263ffffffff1660e01b81526004016103fa9190610ea7565b60206040518083038186803b15801561041257600080fd5b505afa158015610426573d6000803e3d6000fd5b505050506040513d601f19601f8201168201806040525081019061044a9190610eba565b6104835760405162461bcd60e51b81526020600482015260056024820152644b4431303160d81b60448201526064015b60405180910390fd5b8385106104ba5760405162461bcd60e51b81526020600482015260056024820152644b4431313360d81b604482015260640161047a565b6040516303fb4aab60e41b815273__$a79fa16630ef50be54c6520a39abca49df$__90633fb4aab0906104f590899089908990600401610edc565b60206040518083038186803b15801561050d57600080fd5b505af4158015610521573d6000803e3d6000fd5b505050506040513d601f19601f820116820180604052508101906105459190610f01565b6040805160a08101825288815260208082018990528183018890526001600160a01b03871660608301526080820186905260008481526001825292909220815180519495509193909261059c928492910190610b11565b50602082015160018201556040820151600282015560608201516003820180546001600160a01b0319166001600160a01b039092169190911790556080909101516004909101556105eb610b07565b6001600160a01b031663f4cb45e58288888888886040518763ffffffff1660e01b815260040161062096959493929190610f1a565b600060405180830381600087803b15801561063a57600080fd5b505af115801561064e573d6000803e3d6000fd5b5050505095945050505050565b600080546040516613dc195b909a5960ca1b60208201526001600160a01b0390911690638eaa6ac09060270161021f565b6000806000600160008681526020019081526020016000206040518060a00160405290816000820180546106bf90610e6c565b80601f01602080910402602001604051908101604052809291908181526020018280546106eb90610e6c565b80156107385780601f1061070d57610100808354040283529160200191610738565b820191906000526020600020905b81548152906001019060200180831161071b57829003601f168201915b5050509183525050600182015460208201526002820154604082015260038201546001600160a01b0390811660608084019190915260049093015460809092019190915290820151919250166107b85760405162461bcd60e51b81526020600482015260056024820152644b4431313560d81b604482015260640161047a565b6107c0610afd565b6001600160a01b031663a9ad60f38686846040518463ffffffff1660e01b81526004016107ef93929190610f61565b600060405180830381600087803b15801561080957600080fd5b505af115801561081d573d6000803e3d6000fd5b5050506000868152600160205260408120915061083a8282610b95565b50600060018201819055600282018190556003820180546001600160a01b03191690556004909101556060810151608090910151909590945092505050565b600080546040516415985d5b1d60da1b60208201526001600160a01b0390911690638eaa6ac09060250161021f565b6000828152600160205260409020600301546001600160a01b038281169116146108fc5760405162461bcd60e51b815260206004820152600560248201526425a218989b60d91b604482015260640161047a565b6000828152600160205260408120906109158282610b95565b50600060018201819055600282018190556003820180546001600160a01b0319169055600490910155610946610b07565b6001600160a01b031663f65f14ac836040518263ffffffff1660e01b815260040161097391815260200190565b600060405180830381600087803b15801561098d57600080fd5b505af11580156109a1573d6000803e3d6000fd5b505050505050565b600080546040516c4d65646961526567697374727960981b60208201526001600160a01b0390911690638eaa6ac090602d0161021f565b600080546040516713d999995c909a5960c21b60208201526001600160a01b0390911690638eaa6ac09060280161021f565b60008060009054906101000a90046001600160a01b03166001600160a01b031663d5f394886040518163ffffffff1660e01b815260040160206040518083038186803b15801561026b57600080fd5b600080546040516b4d65646961466163746f727960a01b60208201526001600160a01b0390911690638eaa6ac090602c0161021f565b60008054604051651059141bdbdb60d21b60208201526001600160a01b0390911690638eaa6ac09060260161021f565b600080546040516b22bb32b73a22b6b4ba3a32b960a11b60208201526001600160a01b0390911690638eaa6ac090602c0161021f565b60006102a3610a97565b60006102a3610ac7565b828054610b1d90610e6c565b90600052602060002090601f016020900481019282610b3f5760008555610b85565b82601f10610b5857805160ff1916838001178555610b85565b82800160010185558215610b85579182015b82811115610b85578251825591602001919060010190610b6a565b50610b91929150610bd2565b5090565b508054610ba190610e6c565b6000825580601f10610bb1575050565b601f016020900490600052602060002090810190610bcf9190610bd2565b50565b5b80821115610b915760008155600101610bd3565b600060208284031215610bf957600080fd5b5035919050565b6000815180845260005b81811015610c2657602081850181015186830182015201610c0a565b81811115610c38576000602083870101525b50601f01601f19169290920160200192915050565b6000815160a08452610c6260a0850182610c00565b60208481015190860152604080850151908601526060808501516001600160a01b03169086015260809384015193909401929092525090919050565b602081526000610cb16020830184610c4d565b9392505050565b634e487b7160e01b600052604160045260246000fd5b600082601f830112610cdf57600080fd5b81356001600160401b0380821115610cf957610cf9610cb8565b604051601f8301601f19908116603f01168101908282118183101715610d2157610d21610cb8565b81604052838152866020858801011115610d3a57600080fd5b836020870160208301376000602085830101528094505050505092915050565b6001600160a01b0381168114610bcf57600080fd5b600080600080600060a08688031215610d8757600080fd5b85356001600160401b03811115610d9d57600080fd5b610da988828901610cce565b95505060208601359350604086013592506060860135610dc881610d5a565b949793965091946080013592915050565b60008060408385031215610dec57600080fd5b8235915060208301356001600160401b03811115610e0957600080fd5b610e1585828601610cce565b9150509250929050565b60008060408385031215610e3257600080fd5b823591506020830135610e4481610d5a565b809150509250929050565b600060208284031215610e6157600080fd5b8151610cb181610d5a565b600181811c90821680610e8057607f821691505b60208210811415610ea157634e487b7160e01b600052602260045260246000fd5b50919050565b602081526000610cb16020830184610c00565b600060208284031215610ecc57600080fd5b81518015158114610cb157600080fd5b606081526000610eef6060830186610c00565b60208301949094525060400152919050565b600060208284031215610f1357600080fd5b5051919050565b86815260c060208201526000610f3360c0830188610c00565b60408301969096525060608101939093526001600160a01b0391909116608083015260a09091015292915050565b838152606060208201526000610f7a6060830185610c00565b8281036040840152610f8c8185610c4d565b969550505050505056fea264697066735822122078e6f4384f7f6f15e72d147b98469e899d6451d2e5f2da808dae6b907503781c64736f6c63430008090033",
  "libraries": {
    "Ad": "0x9F397D94EC32D43EeC60dCF9A38a44322D54d42A",
    "Purchase": "0x570aa59a67aE825a0acDfC0deD3e919E1c73666B"
  },
  "devdoc": {
    "kind": "dev",
    "methods": {
      "adPoolAddress()": {
        "details": "Gets the address of AdPool."
      },
      "englishAuctionAddress()": {
        "details": "Gets the address of EnglishAuction."
      },
      "eventEmitterAddress()": {
        "details": "Gets the address of EventEmitter."
      },
      "mediaFactoryAddress()": {
        "details": "Gets the address of MediaFactory."
      },
      "mediaRegistryAddress()": {
        "details": "Gets the address of MediaRegistry."
      },
      "nameRegistryAddress()": {
        "details": "Gets the address of NameRegistry"
      },
      "offerBidAddress()": {
        "details": "Gets the address of OfferBid."
      },
      "openBidAddress()": {
        "details": "Gets the address of OpenBid."
      },
      "owner()": {
        "details": "Gets the owner address."
      },
      "vaultAddress()": {
        "details": "Gets the address of Vault."
      }
    },
    "stateVariables": {
      "_offered": {
        "details": "Maps a tokenId with offer info"
      }
    },
    "version": 1
  },
  "userdoc": {
    "kind": "user",
    "methods": {},
    "version": 1
  },
  "storageLayout": {
    "storage": [
      {
        "astId": 2131,
        "contract": "contracts/peripheries/OfferBid.sol:OfferBid",
        "label": "_nameRegistry",
        "offset": 0,
        "slot": "0",
        "type": "t_contract(INameRegistry)4553"
      },
      {
        "astId": 6997,
        "contract": "contracts/peripheries/OfferBid.sol:OfferBid",
        "label": "_offered",
        "offset": 0,
        "slot": "1",
        "type": "t_mapping(t_uint256,t_struct(Offer)4972_storage)"
      }
    ],
    "types": {
      "t_address": {
        "encoding": "inplace",
        "label": "address",
        "numberOfBytes": "20"
      },
      "t_contract(INameRegistry)4553": {
        "encoding": "inplace",
        "label": "contract INameRegistry",
        "numberOfBytes": "20"
      },
      "t_mapping(t_uint256,t_struct(Offer)4972_storage)": {
        "encoding": "mapping",
        "key": "t_uint256",
        "label": "mapping(uint256 => struct Sale.Offer)",
        "numberOfBytes": "32",
        "value": "t_struct(Offer)4972_storage"
      },
      "t_string_storage": {
        "encoding": "bytes",
        "label": "string",
        "numberOfBytes": "32"
      },
      "t_struct(Offer)4972_storage": {
        "encoding": "inplace",
        "label": "struct Sale.Offer",
        "members": [
          {
            "astId": 4963,
            "contract": "contracts/peripheries/OfferBid.sol:OfferBid",
            "label": "spaceMetadata",
            "offset": 0,
            "slot": "0",
            "type": "t_string_storage"
          },
          {
            "astId": 4965,
            "contract": "contracts/peripheries/OfferBid.sol:OfferBid",
            "label": "displayStartTimestamp",
            "offset": 0,
            "slot": "1",
            "type": "t_uint256"
          },
          {
            "astId": 4967,
            "contract": "contracts/peripheries/OfferBid.sol:OfferBid",
            "label": "displayEndTimestamp",
            "offset": 0,
            "slot": "2",
            "type": "t_uint256"
          },
          {
            "astId": 4969,
            "contract": "contracts/peripheries/OfferBid.sol:OfferBid",
            "label": "sender",
            "offset": 0,
            "slot": "3",
            "type": "t_address"
          },
          {
            "astId": 4971,
            "contract": "contracts/peripheries/OfferBid.sol:OfferBid",
            "label": "price",
            "offset": 0,
            "slot": "4",
            "type": "t_uint256"
          }
        ],
        "numberOfBytes": "160"
      },
      "t_uint256": {
        "encoding": "inplace",
        "label": "uint256",
        "numberOfBytes": "32"
      }
    }
  }
}