{
  "address": "0x048B7a8BA183bb0C8DBf3DA60F2403f3A721c0aA",
  "abi": [
    {
      "inputs": [
        {
          "internalType": "address",
          "name": "_nameRegistry",
          "type": "address"
        }
      ],
      "stateMutability": "nonpayable",
      "type": "constructor"
    },
    {
      "inputs": [
        {
          "internalType": "uint256",
          "name": "tokenId",
          "type": "uint256"
        }
      ],
      "name": "accept",
      "outputs": [
        {
          "components": [
            {
              "internalType": "string",
              "name": "spaceMetadata",
              "type": "string"
            },
            {
              "internalType": "uint256",
              "name": "displayStartTimestamp",
              "type": "uint256"
            },
            {
              "internalType": "uint256",
              "name": "displayEndTimestamp",
              "type": "uint256"
            },
            {
              "internalType": "address",
              "name": "sender",
              "type": "address"
            },
            {
              "internalType": "uint256",
              "name": "price",
              "type": "uint256"
            }
          ],
          "internalType": "struct Sale.Offer",
          "name": "",
          "type": "tuple"
        }
      ],
      "stateMutability": "nonpayable",
      "type": "function"
    },
    {
      "inputs": [],
      "name": "adPoolAddress",
      "outputs": [
        {
          "internalType": "address",
          "name": "",
          "type": "address"
        }
      ],
      "stateMutability": "view",
      "type": "function"
    },
    {
      "inputs": [
        {
          "internalType": "uint256",
          "name": "tokenId",
          "type": "uint256"
        },
        {
          "internalType": "address",
          "name": "sender",
          "type": "address"
        }
      ],
      "name": "cancel",
      "outputs": [],
      "stateMutability": "nonpayable",
      "type": "function"
    },
    {
      "inputs": [
        {
          "internalType": "uint256",
          "name": "tokenId",
          "type": "uint256"
        }
      ],
      "name": "currentPrice",
      "outputs": [
        {
          "internalType": "uint256",
          "name": "",
          "type": "uint256"
        }
      ],
      "stateMutability": "view",
      "type": "function"
    },
    {
      "inputs": [],
      "name": "englishAuctionAddress",
      "outputs": [
        {
          "internalType": "address",
          "name": "",
          "type": "address"
        }
      ],
      "stateMutability": "view",
      "type": "function"
    },
    {
      "inputs": [],
      "name": "eventEmitterAddress",
      "outputs": [
        {
          "internalType": "address",
          "name": "",
          "type": "address"
        }
      ],
      "stateMutability": "view",
      "type": "function"
    },
    {
      "inputs": [],
      "name": "mediaFactoryAddress",
      "outputs": [
        {
          "internalType": "address",
          "name": "",
          "type": "address"
        }
      ],
      "stateMutability": "view",
      "type": "function"
    },
    {
      "inputs": [],
      "name": "mediaRegistryAddress",
      "outputs": [
        {
          "internalType": "address",
          "name": "",
          "type": "address"
        }
      ],
      "stateMutability": "view",
      "type": "function"
    },
    {
      "inputs": [],
      "name": "nameRegistryAddress",
      "outputs": [
        {
          "internalType": "address",
          "name": "",
          "type": "address"
        }
      ],
      "stateMutability": "view",
      "type": "function"
    },
    {
      "inputs": [
        {
          "internalType": "string",
          "name": "spaceMetadata",
          "type": "string"
        },
        {
          "internalType": "uint256",
          "name": "displayStartTimestamp",
          "type": "uint256"
        },
        {
          "internalType": "uint256",
          "name": "displayEndTimestamp",
          "type": "uint256"
        },
        {
          "internalType": "address",
          "name": "sender",
          "type": "address"
        },
        {
          "internalType": "uint256",
          "name": "value",
          "type": "uint256"
        }
      ],
      "name": "offer",
      "outputs": [
        {
          "internalType": "uint256",
          "name": "tokenId",
          "type": "uint256"
        }
      ],
      "stateMutability": "nonpayable",
      "type": "function"
    },
    {
      "inputs": [],
      "name": "offerBidAddress",
      "outputs": [
        {
          "internalType": "address",
          "name": "",
          "type": "address"
        }
      ],
      "stateMutability": "view",
      "type": "function"
    },
    {
      "inputs": [
        {
          "internalType": "uint256",
          "name": "tokenId",
          "type": "uint256"
        }
      ],
      "name": "offered",
      "outputs": [
        {
          "components": [
            {
              "internalType": "string",
              "name": "spaceMetadata",
              "type": "string"
            },
            {
              "internalType": "uint256",
              "name": "displayStartTimestamp",
              "type": "uint256"
            },
            {
              "internalType": "uint256",
              "name": "displayEndTimestamp",
              "type": "uint256"
            },
            {
              "internalType": "address",
              "name": "sender",
              "type": "address"
            },
            {
              "internalType": "uint256",
              "name": "price",
              "type": "uint256"
            }
          ],
          "internalType": "struct Sale.Offer",
          "name": "",
          "type": "tuple"
        }
      ],
      "stateMutability": "view",
      "type": "function"
    },
    {
      "inputs": [],
      "name": "openBidAddress",
      "outputs": [
        {
          "internalType": "address",
          "name": "",
          "type": "address"
        }
      ],
      "stateMutability": "view",
      "type": "function"
    },
    {
      "inputs": [],
      "name": "owner",
      "outputs": [
        {
          "internalType": "address",
          "name": "",
          "type": "address"
        }
      ],
      "stateMutability": "view",
      "type": "function"
    },
    {
      "inputs": [],
      "name": "proposalReviewAddress",
      "outputs": [
        {
          "internalType": "address",
          "name": "",
          "type": "address"
        }
      ],
      "stateMutability": "view",
      "type": "function"
    },
    {
      "inputs": [],
      "name": "vaultAddress",
      "outputs": [
        {
          "internalType": "address",
          "name": "",
          "type": "address"
        }
      ],
      "stateMutability": "view",
      "type": "function"
    }
  ],
  "transactionHash": "0x95d1a709c2f3dc2392221d900532a3251ea4f48137576c471b45c8aaf9029023",
  "args": [
    "0x173E3862BaE7bD155a7a371Ee3b855de01aa63dd"
  ],
  "solcInputHash": "289fa2710193a113c0b3ec7823c19cab",
  "bytecode": "0x608060405234801561001057600080fd5b506040516111b83803806111b883398101604081905261002f91610050565b600080546001600160a01b0319166001600160a01b03831617905550610080565b60006020828403121561006257600080fd5b81516001600160a01b038116811461007957600080fd5b9392505050565b6111298061008f6000396000f3fe608060405234801561001057600080fd5b50600436106100d05760003560e01c80630106d8eb146100d557806301b99e04146100f3578063171a133d1461011357806319b05f49146101345780632231c1eb1461014757806327b7a2f51461014f578063430bf08a1461016057806357d682c4146101685780636a58767e1461017d5780637a3c4c17146101855780637cf175fb146101a85780638da5cb5b146101b05780638f6059d6146101b8578063c9cd71b5146101c0578063e2f5fc78146101c8578063f0726291146101d0575b600080fd5b6100dd6101d8565b6040516100ea9190610da7565b60405180910390f35b610106610101366004610dbb565b610295565b6040516100ea9190610e21565b610126610121366004610eaf565b61037f565b6040519081526020016100ea565b610106610142366004610dbb565b6106c4565b6100dd6108e2565b6000546001600160a01b03166100dd565b6100dd610913565b61017b610176366004610f8b565b610942565b005b6100dd610aef565b610126610193366004610dbb565b60009081526001602052604090206004015490565b6100dd610b26565b6100dd610b58565b6100dd610ba7565b6100dd610bdd565b6100dd610c0d565b6100dd610c45565b600080546040516d22b733b634b9b420bab1ba34b7b760911b60208201526001600160a01b0390911690638eaa6ac090602e015b604051602081830303815290604052805190602001206040518263ffffffff1660e01b815260040161024091815260200190565b60206040518083038186803b15801561025857600080fd5b505afa15801561026c573d6000803e3d6000fd5b505050506040513d601f19601f820116820180604052508101906102909190610fbb565b905090565b61029d610c99565b60008281526001602052604090819020815160a081019092528054829082906102c590610fdf565b80601f01602080910402602001604051908101604052809291908181526020018280546102f190610fdf565b801561033e5780601f106103135761010080835404028352916020019161033e565b820191906000526020600020905b81548152906001019060200180831161032157829003601f168201915b5050509183525050600182015460208201526002820154604082015260038201546001600160a01b0316606082015260049091015460809091015292915050565b60008061038a610c7b565b6001600160a01b03166314afd79e336040518263ffffffff1660e01b81526004016103b59190610da7565b60206040518083038186803b1580156103cd57600080fd5b505afa1580156103e1573d6000803e3d6000fd5b505050506040513d601f19601f820116820180604052508101906104059190610fbb565b6001600160a01b031614156104355760405162461bcd60e51b815260040161042c9061101a565b60405180910390fd5b61043d610c85565b6001600160a01b03166365045a65876040518263ffffffff1660e01b81526004016104689190611039565b60206040518083038186803b15801561048057600080fd5b505afa158015610494573d6000803e3d6000fd5b505050506040513d601f19601f820116820180604052508101906104b8919061104c565b6104ec5760405162461bcd60e51b81526020600482015260056024820152644b4431303160d81b604482015260640161042c565b8385106105235760405162461bcd60e51b81526020600482015260056024820152644b4431313360d81b604482015260640161042c565b6040516303fb4aab60e41b8152739F397D94EC32D43EeC60dCF9A38a44322D54d42A90633fb4aab09061055e9089908990899060040161106e565b60206040518083038186803b15801561057657600080fd5b505af415801561058a573d6000803e3d6000fd5b505050506040513d601f19601f820116820180604052508101906105ae9190611093565b6040805160a08101825288815260208082018990528183018890526001600160a01b038716606083015260808201869052600084815260018252929092208151805194955091939092610605928492910190610cd1565b50602082015160018201556040820151600282015560608201516003820180546001600160a01b0319166001600160a01b03909216919091179055608090910151600490910155610654610c8f565b6001600160a01b031663f4cb45e58288888888886040518763ffffffff1660e01b8152600401610689969594939291906110ac565b600060405180830381600087803b1580156106a357600080fd5b505af11580156106b7573d6000803e3d6000fd5b5050505095945050505050565b6106cc610c99565b60006106d6610c7b565b6001600160a01b03166314afd79e336040518263ffffffff1660e01b81526004016107019190610da7565b60206040518083038186803b15801561071957600080fd5b505afa15801561072d573d6000803e3d6000fd5b505050506040513d601f19601f820116820180604052508101906107519190610fbb565b6001600160a01b031614156107785760405162461bcd60e51b815260040161042c9061101a565b600082815260016020526040808220815160a0810190925280548290829061079f90610fdf565b80601f01602080910402602001604051908101604052809291908181526020018280546107cb90610fdf565b80156108185780601f106107ed57610100808354040283529160200191610818565b820191906000526020600020905b8154815290600101906020018083116107fb57829003601f168201915b5050509183525050600182015460208201526002820154604082015260038201546001600160a01b0390811660608084019190915260049093015460809092019190915290820151919250166108985760405162461bcd60e51b81526020600482015260056024820152644b4431313560d81b604482015260640161042c565b6000838152600160205260408120906108b18282610d55565b50600060018201819055600282018190556003820180546001600160a01b031916905560049091015590505b919050565b600080546040516613dc195b909a5960ca1b60208201526001600160a01b0390911690638eaa6ac09060270161020c565b600080546040516415985d5b1d60da1b60208201526001600160a01b0390911690638eaa6ac09060250161020c565b600061094c610c7b565b6001600160a01b03166314afd79e336040518263ffffffff1660e01b81526004016109779190610da7565b60206040518083038186803b15801561098f57600080fd5b505afa1580156109a3573d6000803e3d6000fd5b505050506040513d601f19601f820116820180604052508101906109c79190610fbb565b6001600160a01b031614156109ee5760405162461bcd60e51b815260040161042c9061101a565b6000828152600160205260409020600301546001600160a01b03828116911614610a425760405162461bcd60e51b815260206004820152600560248201526425a218989b60d91b604482015260640161042c565b600082815260016020526040812090610a5b8282610d55565b50600060018201819055600282018190556003820180546001600160a01b0319169055600490910155610a8c610c8f565b6001600160a01b031663f65f14ac836040518263ffffffff1660e01b8152600401610ab991815260200190565b600060405180830381600087803b158015610ad357600080fd5b505af1158015610ae7573d6000803e3d6000fd5b505050505050565b600080546040516c4d65646961526567697374727960981b60208201526001600160a01b0390911690638eaa6ac090602d0161020c565b600080546040516713d999995c909a5960c21b60208201526001600160a01b0390911690638eaa6ac09060280161020c565b60008060009054906101000a90046001600160a01b03166001600160a01b031663d5f394886040518163ffffffff1660e01b815260040160206040518083038186803b15801561025857600080fd5b600080546040516b4d65646961466163746f727960a01b60208201526001600160a01b0390911690638eaa6ac090602c0161020c565b60008054604051651059141bdbdb60d21b60208201526001600160a01b0390911690638eaa6ac09060260161020c565b600080546040516d50726f706f73616c52657669657760901b60208201526001600160a01b0390911690638eaa6ac090602e0161020c565b600080546040516b22bb32b73a22b6b4ba3a32b960a11b60208201526001600160a01b0390911690638eaa6ac090602c0161020c565b6000610290610aef565b6000610290610bdd565b6000610290610c45565b6040518060a0016040528060608152602001600081526020016000815260200160006001600160a01b03168152602001600081525090565b828054610cdd90610fdf565b90600052602060002090601f016020900481019282610cff5760008555610d45565b82601f10610d1857805160ff1916838001178555610d45565b82800160010185558215610d45579182015b82811115610d45578251825591602001919060010190610d2a565b50610d51929150610d92565b5090565b508054610d6190610fdf565b6000825580601f10610d71575050565b601f016020900490600052602060002090810190610d8f9190610d92565b50565b5b80821115610d515760008155600101610d93565b6001600160a01b0391909116815260200190565b600060208284031215610dcd57600080fd5b5035919050565b6000815180845260005b81811015610dfa57602081850181015186830182015201610dde565b81811115610e0c576000602083870101525b50601f01601f19169290920160200192915050565b602081526000825160a06020840152610e3d60c0840182610dd4565b9050602084015160408401526040840151606084015260018060a01b036060850151166080840152608084015160a08401528091505092915050565b634e487b7160e01b600052604160045260246000fd5b6001600160a01b0381168114610d8f57600080fd5b80356108dd81610e8f565b600080600080600060a08688031215610ec757600080fd5b85356001600160401b0380821115610ede57600080fd5b818801915088601f830112610ef257600080fd5b813581811115610f0457610f04610e79565b604051601f8201601f19908116603f01168101908382118183101715610f2c57610f2c610e79565b816040528281528b6020848701011115610f4557600080fd5b8260208601602083013760006020848301015280995050505050506020860135935060408601359250610f7a60608701610ea4565b949793965091946080013592915050565b60008060408385031215610f9e57600080fd5b823591506020830135610fb081610e8f565b809150509250929050565b600060208284031215610fcd57600080fd5b8151610fd881610e8f565b9392505050565b600181811c90821680610ff357607f821691505b6020821081141561101457634e487b7160e01b600052602260045260246000fd5b50919050565b6020808252600590820152644b4430313160d81b604082015260600190565b602081526000610fd86020830184610dd4565b60006020828403121561105e57600080fd5b81518015158114610fd857600080fd5b6060815260006110816060830186610dd4565b60208301949094525060400152919050565b6000602082840312156110a557600080fd5b5051919050565b86815260c0602082015260006110c560c0830188610dd4565b60408301969096525060608101939093526001600160a01b0391909116608083015260a0909101529291505056fea2646970667358221220f27a6e89dabdc28688cbc0618297b8576c246275eb203e539699661b0da976bf64736f6c63430008090033",
  "deployedBytecode": "0x608060405234801561001057600080fd5b50600436106100d05760003560e01c80630106d8eb146100d557806301b99e04146100f3578063171a133d1461011357806319b05f49146101345780632231c1eb1461014757806327b7a2f51461014f578063430bf08a1461016057806357d682c4146101685780636a58767e1461017d5780637a3c4c17146101855780637cf175fb146101a85780638da5cb5b146101b05780638f6059d6146101b8578063c9cd71b5146101c0578063e2f5fc78146101c8578063f0726291146101d0575b600080fd5b6100dd6101d8565b6040516100ea9190610da7565b60405180910390f35b610106610101366004610dbb565b610295565b6040516100ea9190610e21565b610126610121366004610eaf565b61037f565b6040519081526020016100ea565b610106610142366004610dbb565b6106c4565b6100dd6108e2565b6000546001600160a01b03166100dd565b6100dd610913565b61017b610176366004610f8b565b610942565b005b6100dd610aef565b610126610193366004610dbb565b60009081526001602052604090206004015490565b6100dd610b26565b6100dd610b58565b6100dd610ba7565b6100dd610bdd565b6100dd610c0d565b6100dd610c45565b600080546040516d22b733b634b9b420bab1ba34b7b760911b60208201526001600160a01b0390911690638eaa6ac090602e015b604051602081830303815290604052805190602001206040518263ffffffff1660e01b815260040161024091815260200190565b60206040518083038186803b15801561025857600080fd5b505afa15801561026c573d6000803e3d6000fd5b505050506040513d601f19601f820116820180604052508101906102909190610fbb565b905090565b61029d610c99565b60008281526001602052604090819020815160a081019092528054829082906102c590610fdf565b80601f01602080910402602001604051908101604052809291908181526020018280546102f190610fdf565b801561033e5780601f106103135761010080835404028352916020019161033e565b820191906000526020600020905b81548152906001019060200180831161032157829003601f168201915b5050509183525050600182015460208201526002820154604082015260038201546001600160a01b0316606082015260049091015460809091015292915050565b60008061038a610c7b565b6001600160a01b03166314afd79e336040518263ffffffff1660e01b81526004016103b59190610da7565b60206040518083038186803b1580156103cd57600080fd5b505afa1580156103e1573d6000803e3d6000fd5b505050506040513d601f19601f820116820180604052508101906104059190610fbb565b6001600160a01b031614156104355760405162461bcd60e51b815260040161042c9061101a565b60405180910390fd5b61043d610c85565b6001600160a01b03166365045a65876040518263ffffffff1660e01b81526004016104689190611039565b60206040518083038186803b15801561048057600080fd5b505afa158015610494573d6000803e3d6000fd5b505050506040513d601f19601f820116820180604052508101906104b8919061104c565b6104ec5760405162461bcd60e51b81526020600482015260056024820152644b4431303160d81b604482015260640161042c565b8385106105235760405162461bcd60e51b81526020600482015260056024820152644b4431313360d81b604482015260640161042c565b6040516303fb4aab60e41b815273__$a79fa16630ef50be54c6520a39abca49df$__90633fb4aab09061055e9089908990899060040161106e565b60206040518083038186803b15801561057657600080fd5b505af415801561058a573d6000803e3d6000fd5b505050506040513d601f19601f820116820180604052508101906105ae9190611093565b6040805160a08101825288815260208082018990528183018890526001600160a01b038716606083015260808201869052600084815260018252929092208151805194955091939092610605928492910190610cd1565b50602082015160018201556040820151600282015560608201516003820180546001600160a01b0319166001600160a01b03909216919091179055608090910151600490910155610654610c8f565b6001600160a01b031663f4cb45e58288888888886040518763ffffffff1660e01b8152600401610689969594939291906110ac565b600060405180830381600087803b1580156106a357600080fd5b505af11580156106b7573d6000803e3d6000fd5b5050505095945050505050565b6106cc610c99565b60006106d6610c7b565b6001600160a01b03166314afd79e336040518263ffffffff1660e01b81526004016107019190610da7565b60206040518083038186803b15801561071957600080fd5b505afa15801561072d573d6000803e3d6000fd5b505050506040513d601f19601f820116820180604052508101906107519190610fbb565b6001600160a01b031614156107785760405162461bcd60e51b815260040161042c9061101a565b600082815260016020526040808220815160a0810190925280548290829061079f90610fdf565b80601f01602080910402602001604051908101604052809291908181526020018280546107cb90610fdf565b80156108185780601f106107ed57610100808354040283529160200191610818565b820191906000526020600020905b8154815290600101906020018083116107fb57829003601f168201915b5050509183525050600182015460208201526002820154604082015260038201546001600160a01b0390811660608084019190915260049093015460809092019190915290820151919250166108985760405162461bcd60e51b81526020600482015260056024820152644b4431313560d81b604482015260640161042c565b6000838152600160205260408120906108b18282610d55565b50600060018201819055600282018190556003820180546001600160a01b031916905560049091015590505b919050565b600080546040516613dc195b909a5960ca1b60208201526001600160a01b0390911690638eaa6ac09060270161020c565b600080546040516415985d5b1d60da1b60208201526001600160a01b0390911690638eaa6ac09060250161020c565b600061094c610c7b565b6001600160a01b03166314afd79e336040518263ffffffff1660e01b81526004016109779190610da7565b60206040518083038186803b15801561098f57600080fd5b505afa1580156109a3573d6000803e3d6000fd5b505050506040513d601f19601f820116820180604052508101906109c79190610fbb565b6001600160a01b031614156109ee5760405162461bcd60e51b815260040161042c9061101a565b6000828152600160205260409020600301546001600160a01b03828116911614610a425760405162461bcd60e51b815260206004820152600560248201526425a218989b60d91b604482015260640161042c565b600082815260016020526040812090610a5b8282610d55565b50600060018201819055600282018190556003820180546001600160a01b0319169055600490910155610a8c610c8f565b6001600160a01b031663f65f14ac836040518263ffffffff1660e01b8152600401610ab991815260200190565b600060405180830381600087803b158015610ad357600080fd5b505af1158015610ae7573d6000803e3d6000fd5b505050505050565b600080546040516c4d65646961526567697374727960981b60208201526001600160a01b0390911690638eaa6ac090602d0161020c565b600080546040516713d999995c909a5960c21b60208201526001600160a01b0390911690638eaa6ac09060280161020c565b60008060009054906101000a90046001600160a01b03166001600160a01b031663d5f394886040518163ffffffff1660e01b815260040160206040518083038186803b15801561025857600080fd5b600080546040516b4d65646961466163746f727960a01b60208201526001600160a01b0390911690638eaa6ac090602c0161020c565b60008054604051651059141bdbdb60d21b60208201526001600160a01b0390911690638eaa6ac09060260161020c565b600080546040516d50726f706f73616c52657669657760901b60208201526001600160a01b0390911690638eaa6ac090602e0161020c565b600080546040516b22bb32b73a22b6b4ba3a32b960a11b60208201526001600160a01b0390911690638eaa6ac090602c0161020c565b6000610290610aef565b6000610290610bdd565b6000610290610c45565b6040518060a0016040528060608152602001600081526020016000815260200160006001600160a01b03168152602001600081525090565b828054610cdd90610fdf565b90600052602060002090601f016020900481019282610cff5760008555610d45565b82601f10610d1857805160ff1916838001178555610d45565b82800160010185558215610d45579182015b82811115610d45578251825591602001919060010190610d2a565b50610d51929150610d92565b5090565b508054610d6190610fdf565b6000825580601f10610d71575050565b601f016020900490600052602060002090810190610d8f9190610d92565b50565b5b80821115610d515760008155600101610d93565b6001600160a01b0391909116815260200190565b600060208284031215610dcd57600080fd5b5035919050565b6000815180845260005b81811015610dfa57602081850181015186830182015201610dde565b81811115610e0c576000602083870101525b50601f01601f19169290920160200192915050565b602081526000825160a06020840152610e3d60c0840182610dd4565b9050602084015160408401526040840151606084015260018060a01b036060850151166080840152608084015160a08401528091505092915050565b634e487b7160e01b600052604160045260246000fd5b6001600160a01b0381168114610d8f57600080fd5b80356108dd81610e8f565b600080600080600060a08688031215610ec757600080fd5b85356001600160401b0380821115610ede57600080fd5b818801915088601f830112610ef257600080fd5b813581811115610f0457610f04610e79565b604051601f8201601f19908116603f01168101908382118183101715610f2c57610f2c610e79565b816040528281528b6020848701011115610f4557600080fd5b8260208601602083013760006020848301015280995050505050506020860135935060408601359250610f7a60608701610ea4565b949793965091946080013592915050565b60008060408385031215610f9e57600080fd5b823591506020830135610fb081610e8f565b809150509250929050565b600060208284031215610fcd57600080fd5b8151610fd881610e8f565b9392505050565b600181811c90821680610ff357607f821691505b6020821081141561101457634e487b7160e01b600052602260045260246000fd5b50919050565b6020808252600590820152644b4430313160d81b604082015260600190565b602081526000610fd86020830184610dd4565b60006020828403121561105e57600080fd5b81518015158114610fd857600080fd5b6060815260006110816060830186610dd4565b60208301949094525060400152919050565b6000602082840312156110a557600080fd5b5051919050565b86815260c0602082015260006110c560c0830188610dd4565b60408301969096525060608101939093526001600160a01b0391909116608083015260a0909101529291505056fea2646970667358221220f27a6e89dabdc28688cbc0618297b8576c246275eb203e539699661b0da976bf64736f6c63430008090033",
  "libraries": {
    "Ad": "0x9F397D94EC32D43EeC60dCF9A38a44322D54d42A",
    "Purchase": "0xA5DD71afe7c4a1e123f3aF11624642F39A67e06A"
  },
  "devdoc": {
    "kind": "dev",
    "methods": {
      "adPoolAddress()": {
        "details": "Gets the address of AdPool."
      },
      "englishAuctionAddress()": {
        "details": "Gets the address of EnglishAuction."
      },
      "eventEmitterAddress()": {
        "details": "Gets the address of EventEmitter."
      },
      "mediaFactoryAddress()": {
        "details": "Gets the address of MediaFactory."
      },
      "mediaRegistryAddress()": {
        "details": "Gets the address of MediaRegistry."
      },
      "nameRegistryAddress()": {
        "details": "Gets the address of NameRegistry"
      },
      "offerBidAddress()": {
        "details": "Gets the address of OfferBid."
      },
      "openBidAddress()": {
        "details": "Gets the address of OpenBid."
      },
      "owner()": {
        "details": "Gets the owner address."
      },
      "proposalReviewAddress()": {
        "details": "Gets the address of ProposalReview."
      },
      "vaultAddress()": {
        "details": "Gets the address of Vault."
      }
    },
    "stateVariables": {
      "_offered": {
        "details": "Maps a tokenId with offer info"
      }
    },
    "version": 1
  },
  "userdoc": {
    "kind": "user",
    "methods": {},
    "version": 1
  },
  "storageLayout": {
    "storage": [
      {
        "astId": 2345,
        "contract": "contracts/peripheries/OfferBid.sol:OfferBid",
        "label": "_nameRegistry",
        "offset": 0,
        "slot": "0",
        "type": "t_contract(INameRegistry)4466"
      },
      {
        "astId": 6988,
        "contract": "contracts/peripheries/OfferBid.sol:OfferBid",
        "label": "_offered",
        "offset": 0,
        "slot": "1",
        "type": "t_mapping(t_uint256,t_struct(Offer)4924_storage)"
      }
    ],
    "types": {
      "t_address": {
        "encoding": "inplace",
        "label": "address",
        "numberOfBytes": "20"
      },
      "t_contract(INameRegistry)4466": {
        "encoding": "inplace",
        "label": "contract INameRegistry",
        "numberOfBytes": "20"
      },
      "t_mapping(t_uint256,t_struct(Offer)4924_storage)": {
        "encoding": "mapping",
        "key": "t_uint256",
        "label": "mapping(uint256 => struct Sale.Offer)",
        "numberOfBytes": "32",
        "value": "t_struct(Offer)4924_storage"
      },
      "t_string_storage": {
        "encoding": "bytes",
        "label": "string",
        "numberOfBytes": "32"
      },
      "t_struct(Offer)4924_storage": {
        "encoding": "inplace",
        "label": "struct Sale.Offer",
        "members": [
          {
            "astId": 4915,
            "contract": "contracts/peripheries/OfferBid.sol:OfferBid",
            "label": "spaceMetadata",
            "offset": 0,
            "slot": "0",
            "type": "t_string_storage"
          },
          {
            "astId": 4917,
            "contract": "contracts/peripheries/OfferBid.sol:OfferBid",
            "label": "displayStartTimestamp",
            "offset": 0,
            "slot": "1",
            "type": "t_uint256"
          },
          {
            "astId": 4919,
            "contract": "contracts/peripheries/OfferBid.sol:OfferBid",
            "label": "displayEndTimestamp",
            "offset": 0,
            "slot": "2",
            "type": "t_uint256"
          },
          {
            "astId": 4921,
            "contract": "contracts/peripheries/OfferBid.sol:OfferBid",
            "label": "sender",
            "offset": 0,
            "slot": "3",
            "type": "t_address"
          },
          {
            "astId": 4923,
            "contract": "contracts/peripheries/OfferBid.sol:OfferBid",
            "label": "price",
            "offset": 0,
            "slot": "4",
            "type": "t_uint256"
          }
        ],
        "numberOfBytes": "160"
      },
      "t_uint256": {
        "encoding": "inplace",
        "label": "uint256",
        "numberOfBytes": "32"
      }
    }
  }
}