{
  "address": "0x3fdE7f9A4b8C79d3D8EC89ef4ac98FD88957557b",
  "abi": [
    {
      "inputs": [
        {
          "internalType": "address",
          "name": "_nameRegistry",
          "type": "address"
        }
      ],
      "stateMutability": "nonpayable",
      "type": "constructor"
    },
    {
      "inputs": [],
      "name": "adPoolAddress",
      "outputs": [
        {
          "internalType": "address",
          "name": "",
          "type": "address"
        }
      ],
      "stateMutability": "view",
      "type": "function"
    },
    {
      "inputs": [
        {
          "internalType": "uint256",
          "name": "tokenId",
          "type": "uint256"
        },
        {
          "internalType": "string",
          "name": "proposal",
          "type": "string"
        },
        {
          "internalType": "address",
          "name": "sender",
          "type": "address"
        },
        {
          "internalType": "uint256",
          "name": "value",
          "type": "uint256"
        }
      ],
      "name": "bid",
      "outputs": [],
      "stateMutability": "nonpayable",
      "type": "function"
    },
    {
      "inputs": [
        {
          "internalType": "uint256",
          "name": "tokenId",
          "type": "uint256"
        },
        {
          "internalType": "uint256",
          "name": "index",
          "type": "uint256"
        }
      ],
      "name": "bidding",
      "outputs": [
        {
          "components": [
            {
              "internalType": "uint256",
              "name": "tokenId",
              "type": "uint256"
            },
            {
              "internalType": "address",
              "name": "sender",
              "type": "address"
            },
            {
              "internalType": "uint256",
              "name": "price",
              "type": "uint256"
            },
            {
              "internalType": "string",
              "name": "content",
              "type": "string"
            }
          ],
          "internalType": "struct Sale.OpenBid",
          "name": "",
          "type": "tuple"
        }
      ],
      "stateMutability": "view",
      "type": "function"
    },
    {
      "inputs": [
        {
          "internalType": "uint256",
          "name": "tokenId",
          "type": "uint256"
        }
      ],
      "name": "biddingList",
      "outputs": [
        {
          "components": [
            {
              "internalType": "uint256",
              "name": "tokenId",
              "type": "uint256"
            },
            {
              "internalType": "address",
              "name": "sender",
              "type": "address"
            },
            {
              "internalType": "uint256",
              "name": "price",
              "type": "uint256"
            },
            {
              "internalType": "string",
              "name": "content",
              "type": "string"
            }
          ],
          "internalType": "struct Sale.OpenBid[]",
          "name": "",
          "type": "tuple[]"
        }
      ],
      "stateMutability": "view",
      "type": "function"
    },
    {
      "inputs": [],
      "name": "englishAuctionAddress",
      "outputs": [
        {
          "internalType": "address",
          "name": "",
          "type": "address"
        }
      ],
      "stateMutability": "view",
      "type": "function"
    },
    {
      "inputs": [],
      "name": "eventEmitterAddress",
      "outputs": [
        {
          "internalType": "address",
          "name": "",
          "type": "address"
        }
      ],
      "stateMutability": "view",
      "type": "function"
    },
    {
      "inputs": [],
      "name": "mediaFactoryAddress",
      "outputs": [
        {
          "internalType": "address",
          "name": "",
          "type": "address"
        }
      ],
      "stateMutability": "view",
      "type": "function"
    },
    {
      "inputs": [],
      "name": "mediaRegistryAddress",
      "outputs": [
        {
          "internalType": "address",
          "name": "",
          "type": "address"
        }
      ],
      "stateMutability": "view",
      "type": "function"
    },
    {
      "inputs": [],
      "name": "nameRegistryAddress",
      "outputs": [
        {
          "internalType": "address",
          "name": "",
          "type": "address"
        }
      ],
      "stateMutability": "view",
      "type": "function"
    },
    {
      "inputs": [],
      "name": "offerBidAddress",
      "outputs": [
        {
          "internalType": "address",
          "name": "",
          "type": "address"
        }
      ],
      "stateMutability": "view",
      "type": "function"
    },
    {
      "inputs": [],
      "name": "openBidAddress",
      "outputs": [
        {
          "internalType": "address",
          "name": "",
          "type": "address"
        }
      ],
      "stateMutability": "view",
      "type": "function"
    },
    {
      "inputs": [],
      "name": "owner",
      "outputs": [
        {
          "internalType": "address",
          "name": "",
          "type": "address"
        }
      ],
      "stateMutability": "view",
      "type": "function"
    },
    {
      "inputs": [],
      "name": "proposalReviewAddress",
      "outputs": [
        {
          "internalType": "address",
          "name": "",
          "type": "address"
        }
      ],
      "stateMutability": "view",
      "type": "function"
    },
    {
      "inputs": [
        {
          "internalType": "uint256",
          "name": "tokenId",
          "type": "uint256"
        },
        {
          "internalType": "uint256",
          "name": "index",
          "type": "uint256"
        }
      ],
      "name": "selectProposal",
      "outputs": [
        {
          "internalType": "address",
          "name": "successfulBidder",
          "type": "address"
        }
      ],
      "stateMutability": "nonpayable",
      "type": "function"
    },
    {
      "inputs": [],
      "name": "vaultAddress",
      "outputs": [
        {
          "internalType": "address",
          "name": "",
          "type": "address"
        }
      ],
      "stateMutability": "view",
      "type": "function"
    }
  ],
  "transactionHash": "0x00e42d1221d6156117896a90b13fe693a32c83c12d4c73e380528824a6205caa",
  "args": [
    "0x173E3862BaE7bD155a7a371Ee3b855de01aa63dd"
  ],
  "solcInputHash": "289fa2710193a113c0b3ec7823c19cab",
  "bytecode": "0x608060405234801561001057600080fd5b5060405161123138038061123183398101604081905261002f91610050565b600080546001600160a01b0319166001600160a01b03831617905550610080565b60006020828403121561006257600080fd5b81516001600160a01b038116811461007957600080fd5b9392505050565b6111a28061008f6000396000f3fe608060405234801561001057600080fd5b50600436106100c55760003560e01c80630106d8eb146100ca5780632231c1eb146100e857806327b7a2f5146100f057806332b18f6d14610101578063389ad90e14610114578063430bf08a146101295780636a58767e14610131578063761ce95d146101395780637cf175fb1461015957806387fe412c146101615780638da5cb5b146101815780638f6059d614610189578063c9cd71b514610191578063e2f5fc7814610199578063f0726291146101a1575b600080fd5b6100d26101a9565b6040516100df9190610c6d565b60405180910390f35b6100d2610266565b6000546001600160a01b03166100d2565b6100d261010f366004610c81565b610297565b610127610122366004610d4e565b6104ac565b005b6100d261065b565b6100d261068a565b61014c610147366004610df1565b6106c1565b6040516100df9190610ea9565b6100d26107f0565b61017461016f366004610c81565b610822565b6040516100df9190610f0b565b6100d26109f9565b6100d2610a48565b6100d2610a7e565b6100d2610aae565b6100d2610ae6565b600080546040516d22b733b634b9b420bab1ba34b7b760911b60208201526001600160a01b0390911690638eaa6ac090602e015b604051602081830303815290604052805190602001206040518263ffffffff1660e01b815260040161021191815260200190565b60206040518083038186803b15801561022957600080fd5b505afa15801561023d573d6000803e3d6000fd5b505050506040513d601f19601f820116820180604052508101906102619190610f35565b905090565b600080546040516613dc195b909a5960ca1b60208201526001600160a01b0390911690638eaa6ac0906027016101dd565b6000806102a2610b1c565b6001600160a01b03166314afd79e336040518263ffffffff1660e01b81526004016102cd9190610c6d565b60206040518083038186803b1580156102e557600080fd5b505afa1580156102f9573d6000803e3d6000fd5b505050506040513d601f19601f8201168201806040525081019061031d9190610f35565b6001600160a01b0316141561034d5760405162461bcd60e51b815260040161034490610f52565b60405180910390fd5b42610356610b26565b6001600160a01b031663b3a0ebc9856040518263ffffffff1660e01b815260040161038391815260200190565b60006040518083038186803b15801561039b57600080fd5b505afa1580156103af573d6000803e3d6000fd5b505050506040513d6000823e601f3d908101601f191682016040526103d79190810190610fd5565b60800151106104105760405162461bcd60e51b81526020600482015260056024820152644b4431323960d81b6044820152606401610344565b61041a8383610822565b602090810151600085815260019092526040822090925061043a91610b3a565b610442610b30565b604051630249d31960e51b8152600481018590526001600160a01b038381166024830152919091169063493a632090604401600060405180830381600087803b15801561048e57600080fd5b505af11580156104a2573d6000803e3d6000fd5b5050505092915050565b60006104b6610b1c565b6001600160a01b03166314afd79e336040518263ffffffff1660e01b81526004016104e19190610c6d565b60206040518083038186803b1580156104f957600080fd5b505afa15801561050d573d6000803e3d6000fd5b505050506040513d601f19601f820116820180604052508101906105319190610f35565b6001600160a01b031614156105585760405162461bcd60e51b815260040161034490610f52565b600084815260016020818152604080842081516080810183528981526001600160a01b03888116828601908152938201888152606083018b815284548089018655948952978690208351600490950201938455935195830180546001600160a01b031916969091169590951790945590516002820155925180519293926105e59260038501920190610b5e565b5050506105f0610b30565b6001600160a01b0316630d2657bf85838587426040518663ffffffff1660e01b81526004016106239594939291906110dc565b600060405180830381600087803b15801561063d57600080fd5b505af1158015610651573d6000803e3d6000fd5b5050505050505050565b600080546040516415985d5b1d60da1b60208201526001600160a01b0390911690638eaa6ac0906025016101dd565b600080546040516c4d65646961526567697374727960981b60208201526001600160a01b0390911690638eaa6ac090602d016101dd565b606060016000838152602001908152602001600020805480602002602001604051908101604052809291908181526020016000905b828210156107e557600084815260209081902060408051608081018252600486029092018054835260018101546001600160a01b0316938301939093526002830154908201526003820180549192916060840191906107549061111b565b80601f01602080910402602001604051908101604052809291908181526020018280546107809061111b565b80156107cd5780601f106107a2576101008083540402835291602001916107cd565b820191906000526020600020905b8154815290600101906020018083116107b057829003601f168201915b505050505081525050815260200190600101906106f6565b505050509050919050565b600080546040516713d999995c909a5960c21b60208201526001600160a01b0390911690638eaa6ac0906028016101dd565b61085660405180608001604052806000815260200160006001600160a01b0316815260200160008152602001606081525090565b60008381526001602052604090205482118015906108af5750600083815260016020526040812080548490811061088f5761088f611156565b60009182526020909120600160049092020101546001600160a01b031614155b6108e35760405162461bcd60e51b815260206004820152600560248201526412d10c4c4d60da1b6044820152606401610344565b600083815260016020526040902080548390811061090357610903611156565b9060005260206000209060040201604051806080016040529081600082015481526020016001820160009054906101000a90046001600160a01b03166001600160a01b03166001600160a01b031681526020016002820154815260200160038201805461096f9061111b565b80601f016020809104026020016040519081016040528092919081815260200182805461099b9061111b565b80156109e85780601f106109bd576101008083540402835291602001916109e8565b820191906000526020600020905b8154815290600101906020018083116109cb57829003601f168201915b505050505081525050905092915050565b60008060009054906101000a90046001600160a01b03166001600160a01b031663d5f394886040518163ffffffff1660e01b815260040160206040518083038186803b15801561022957600080fd5b600080546040516b4d65646961466163746f727960a01b60208201526001600160a01b0390911690638eaa6ac090602c016101dd565b60008054604051651059141bdbdb60d21b60208201526001600160a01b0390911690638eaa6ac0906026016101dd565b600080546040516d50726f706f73616c52657669657760901b60208201526001600160a01b0390911690638eaa6ac090602e016101dd565b600080546040516b22bb32b73a22b6b4ba3a32b960a11b60208201526001600160a01b0390911690638eaa6ac090602c016101dd565b600061026161068a565b6000610261610a7e565b6000610261610ae6565b5080546000825560040290600052602060002090810190610b5b9190610be2565b50565b828054610b6a9061111b565b90600052602060002090601f016020900481019282610b8c5760008555610bd2565b82601f10610ba557805160ff1916838001178555610bd2565b82800160010185558215610bd2579182015b82811115610bd2578251825591602001919060010190610bb7565b50610bde929150610c1e565b5090565b80821115610bde5760008082556001820180546001600160a01b031916905560028201819055610c156003830182610c33565b50600401610be2565b5b80821115610bde5760008155600101610c1f565b508054610c3f9061111b565b6000825580601f10610c4f575050565b601f016020900490600052602060002090810190610b5b9190610c1e565b6001600160a01b0391909116815260200190565b60008060408385031215610c9457600080fd5b50508035926020909101359150565b634e487b7160e01b600052604160045260246000fd5b60405161016081016001600160401b0381118282101715610cdc57610cdc610ca3565b60405290565b604051601f8201601f191681016001600160401b0381118282101715610d0a57610d0a610ca3565b604052919050565b60006001600160401b03821115610d2b57610d2b610ca3565b50601f01601f191660200190565b6001600160a01b0381168114610b5b57600080fd5b60008060008060808587031215610d6457600080fd5b8435935060208501356001600160401b03811115610d8157600080fd5b8501601f81018713610d9257600080fd5b8035610da5610da082610d12565b610ce2565b818152886020838501011115610dba57600080fd5b816020840160208301376000602083830101528095505050506040850135610de181610d39565b9396929550929360600135925050565b600060208284031215610e0357600080fd5b5035919050565b60005b83811015610e25578181015183820152602001610e0d565b83811115610e34576000848401525b50505050565b60008151808452610e52816020860160208601610e0a565b601f01601f19169290920160200192915050565b8051825260018060a01b036020820151166020830152604081015160408301526000606082015160806060850152610ea16080850182610e3a565b949350505050565b6000602080830181845280855180835260408601915060408160051b870101925083870160005b82811015610efe57603f19888603018452610eec858351610e66565b94509285019290850190600101610ed0565b5092979650505050505050565b602081526000610f1e6020830184610e66565b9392505050565b8051610f3081610d39565b919050565b600060208284031215610f4757600080fd5b8151610f1e81610d39565b6020808252600590820152644b4430313160d81b604082015260600190565b600082601f830112610f8257600080fd5b8151610f90610da082610d12565b818152846020838601011115610fa557600080fd5b610ea1826020830160208701610e0a565b805160058110610f3057600080fd5b80518015158114610f3057600080fd5b600060208284031215610fe757600080fd5b81516001600160401b0380821115610ffe57600080fd5b90830190610160828603121561101357600080fd5b61101b610cb9565b61102483610f25565b815260208301518281111561103857600080fd5b61104487828601610f71565b60208301525060408301518281111561105c57600080fd5b61106887828601610f71565b604083015250606083015160608201526080830151608082015260a083015160a082015260c083015160c08201526110a260e08401610fb6565b60e08201526101008381015190820152610120808401519082015261014091506110cd828401610fc5565b91810191909152949350505050565b85815284602082015260018060a01b038416604082015260a06060820152600061110960a0830185610e3a565b90508260808301529695505050505050565b600181811c9082168061112f57607f821691505b6020821081141561115057634e487b7160e01b600052602260045260246000fd5b50919050565b634e487b7160e01b600052603260045260246000fdfea26469706673582212208d3fad4853756ec17862d2db1d7489ca32e93a4139854605f60448dfe3fb48b664736f6c63430008090033",
  "devdoc": {
    "kind": "dev",
    "methods": {
      "adPoolAddress()": {
        "details": "Gets the address of AdPool."
      },
      "englishAuctionAddress()": {
        "details": "Gets the address of EnglishAuction."
      },
      "eventEmitterAddress()": {
        "details": "Gets the address of EventEmitter."
      },
      "mediaFactoryAddress()": {
        "details": "Gets the address of MediaFactory."
      },
      "mediaRegistryAddress()": {
        "details": "Gets the address of MediaRegistry."
      },
      "nameRegistryAddress()": {
        "details": "Gets the address of NameRegistry"
      },
      "offerBidAddress()": {
        "details": "Gets the address of OfferBid."
      },
      "openBidAddress()": {
        "details": "Gets the address of OpenBid."
      },
      "owner()": {
        "details": "Gets the owner address."
      },
      "proposalReviewAddress()": {
        "details": "Gets the address of ProposalReview."
      },
      "vaultAddress()": {
        "details": "Gets the address of Vault."
      }
    },
    "stateVariables": {
      "_bidding": {
        "details": "Maps a tokenId with appeal info"
      }
    },
    "version": 1
  },
  "userdoc": {
    "kind": "user",
    "methods": {},
    "version": 1
  },
  "storageLayout": {
    "storage": [
      {
        "astId": 2345,
        "contract": "contracts/peripheries/OpenBid.sol:OpenBid",
        "label": "_nameRegistry",
        "offset": 0,
        "slot": "0",
        "type": "t_contract(INameRegistry)4466"
      },
      {
        "astId": 7241,
        "contract": "contracts/peripheries/OpenBid.sol:OpenBid",
        "label": "_bidding",
        "offset": 0,
        "slot": "1",
        "type": "t_mapping(t_uint256,t_array(t_struct(OpenBid)4933_storage)dyn_storage)"
      }
    ],
    "types": {
      "t_address": {
        "encoding": "inplace",
        "label": "address",
        "numberOfBytes": "20"
      },
      "t_array(t_struct(OpenBid)4933_storage)dyn_storage": {
        "base": "t_struct(OpenBid)4933_storage",
        "encoding": "dynamic_array",
        "label": "struct Sale.OpenBid[]",
        "numberOfBytes": "32"
      },
      "t_contract(INameRegistry)4466": {
        "encoding": "inplace",
        "label": "contract INameRegistry",
        "numberOfBytes": "20"
      },
      "t_mapping(t_uint256,t_array(t_struct(OpenBid)4933_storage)dyn_storage)": {
        "encoding": "mapping",
        "key": "t_uint256",
        "label": "mapping(uint256 => struct Sale.OpenBid[])",
        "numberOfBytes": "32",
        "value": "t_array(t_struct(OpenBid)4933_storage)dyn_storage"
      },
      "t_string_storage": {
        "encoding": "bytes",
        "label": "string",
        "numberOfBytes": "32"
      },
      "t_struct(OpenBid)4933_storage": {
        "encoding": "inplace",
        "label": "struct Sale.OpenBid",
        "members": [
          {
            "astId": 4926,
            "contract": "contracts/peripheries/OpenBid.sol:OpenBid",
            "label": "tokenId",
            "offset": 0,
            "slot": "0",
            "type": "t_uint256"
          },
          {
            "astId": 4928,
            "contract": "contracts/peripheries/OpenBid.sol:OpenBid",
            "label": "sender",
            "offset": 0,
            "slot": "1",
            "type": "t_address"
          },
          {
            "astId": 4930,
            "contract": "contracts/peripheries/OpenBid.sol:OpenBid",
            "label": "price",
            "offset": 0,
            "slot": "2",
            "type": "t_uint256"
          },
          {
            "astId": 4932,
            "contract": "contracts/peripheries/OpenBid.sol:OpenBid",
            "label": "content",
            "offset": 0,
            "slot": "3",
            "type": "t_string_storage"
          }
        ],
        "numberOfBytes": "128"
      },
      "t_uint256": {
        "encoding": "inplace",
        "label": "uint256",
        "numberOfBytes": "32"
      }
    }
  }
}