{
  "address": "0x78e0b09BA4ac82Df881f3eA2e86C47fc897e60B8",
  "abi": [
    {
      "inputs": [
        {
          "internalType": "address",
          "name": "_nameRegistry",
          "type": "address"
        }
      ],
      "stateMutability": "nonpayable",
      "type": "constructor"
    },
    {
      "inputs": [],
      "name": "adPoolAddress",
      "outputs": [
        {
          "internalType": "address",
          "name": "",
          "type": "address"
        }
      ],
      "stateMutability": "view",
      "type": "function"
    },
    {
      "inputs": [
        {
          "internalType": "uint256",
          "name": "tokenId",
          "type": "uint256"
        },
        {
          "internalType": "string",
          "name": "proposal",
          "type": "string"
        },
        {
          "internalType": "address",
          "name": "sender",
          "type": "address"
        },
        {
          "internalType": "uint256",
          "name": "value",
          "type": "uint256"
        }
      ],
      "name": "bid",
      "outputs": [],
      "stateMutability": "nonpayable",
      "type": "function"
    },
    {
      "inputs": [
        {
          "internalType": "uint256",
          "name": "tokenId",
          "type": "uint256"
        },
        {
          "internalType": "uint256",
          "name": "index",
          "type": "uint256"
        }
      ],
      "name": "bidding",
      "outputs": [
        {
          "components": [
            {
              "internalType": "uint256",
              "name": "tokenId",
              "type": "uint256"
            },
            {
              "internalType": "address",
              "name": "sender",
              "type": "address"
            },
            {
              "internalType": "uint256",
              "name": "price",
              "type": "uint256"
            },
            {
              "internalType": "string",
              "name": "content",
              "type": "string"
            }
          ],
          "internalType": "struct Sale.OpenBid",
          "name": "",
          "type": "tuple"
        }
      ],
      "stateMutability": "view",
      "type": "function"
    },
    {
      "inputs": [
        {
          "internalType": "uint256",
          "name": "tokenId",
          "type": "uint256"
        }
      ],
      "name": "biddingList",
      "outputs": [
        {
          "components": [
            {
              "internalType": "uint256",
              "name": "tokenId",
              "type": "uint256"
            },
            {
              "internalType": "address",
              "name": "sender",
              "type": "address"
            },
            {
              "internalType": "uint256",
              "name": "price",
              "type": "uint256"
            },
            {
              "internalType": "string",
              "name": "content",
              "type": "string"
            }
          ],
          "internalType": "struct Sale.OpenBid[]",
          "name": "",
          "type": "tuple[]"
        }
      ],
      "stateMutability": "view",
      "type": "function"
    },
    {
      "inputs": [],
      "name": "englishAuctionAddress",
      "outputs": [
        {
          "internalType": "address",
          "name": "",
          "type": "address"
        }
      ],
      "stateMutability": "view",
      "type": "function"
    },
    {
      "inputs": [],
      "name": "eventEmitterAddress",
      "outputs": [
        {
          "internalType": "address",
          "name": "",
          "type": "address"
        }
      ],
      "stateMutability": "view",
      "type": "function"
    },
    {
      "inputs": [],
      "name": "mediaFactoryAddress",
      "outputs": [
        {
          "internalType": "address",
          "name": "",
          "type": "address"
        }
      ],
      "stateMutability": "view",
      "type": "function"
    },
    {
      "inputs": [],
      "name": "mediaRegistryAddress",
      "outputs": [
        {
          "internalType": "address",
          "name": "",
          "type": "address"
        }
      ],
      "stateMutability": "view",
      "type": "function"
    },
    {
      "inputs": [],
      "name": "nameRegistryAddress",
      "outputs": [
        {
          "internalType": "address",
          "name": "",
          "type": "address"
        }
      ],
      "stateMutability": "view",
      "type": "function"
    },
    {
      "inputs": [],
      "name": "offerBidAddress",
      "outputs": [
        {
          "internalType": "address",
          "name": "",
          "type": "address"
        }
      ],
      "stateMutability": "view",
      "type": "function"
    },
    {
      "inputs": [],
      "name": "openBidAddress",
      "outputs": [
        {
          "internalType": "address",
          "name": "",
          "type": "address"
        }
      ],
      "stateMutability": "view",
      "type": "function"
    },
    {
      "inputs": [],
      "name": "owner",
      "outputs": [
        {
          "internalType": "address",
          "name": "",
          "type": "address"
        }
      ],
      "stateMutability": "view",
      "type": "function"
    },
    {
      "inputs": [
        {
          "internalType": "uint256",
          "name": "tokenId",
          "type": "uint256"
        },
        {
          "internalType": "uint256",
          "name": "index",
          "type": "uint256"
        }
      ],
      "name": "selectProposal",
      "outputs": [
        {
          "internalType": "address",
          "name": "successfulBidder",
          "type": "address"
        }
      ],
      "stateMutability": "nonpayable",
      "type": "function"
    },
    {
      "inputs": [],
      "name": "vaultAddress",
      "outputs": [
        {
          "internalType": "address",
          "name": "",
          "type": "address"
        }
      ],
      "stateMutability": "view",
      "type": "function"
    }
  ],
  "transactionHash": "0xbef3afc73e61447d6f2a0d5c6323bf3edfe1b90ab0c7792729d9b78d3db2bc7b",
  "args": [
    "0x173E3862BaE7bD155a7a371Ee3b855de01aa63dd"
  ],
  "solcInputHash": "c223bd9c030b84fabf96ddb6a85aba33",
  "bytecode": "0x608060405234801561001057600080fd5b5060405161105538038061105583398101604081905261002f91610050565b600080546001600160a01b0319166001600160a01b03831617905550610080565b60006020828403121561006257600080fd5b81516001600160a01b038116811461007957600080fd5b9392505050565b610fc68061008f6000396000f3fe608060405234801561001057600080fd5b50600436106100ba5760003560e01c80630106d8eb146100bf5780632231c1eb146100e457806327b7a2f5146100ec57806332b18f6d146100fd578063389ad90e14610110578063430bf08a146101255780636a58767e1461012d578063761ce95d146101355780637cf175fb1461015557806387fe412c1461015d5780638da5cb5b1461017d5780638f6059d614610185578063c9cd71b51461018d578063f072629114610195575b600080fd5b6100c761019d565b6040516001600160a01b0390911681526020015b60405180910390f35b6100c761025a565b6000546001600160a01b03166100c7565b6100c761010b366004610ac4565b61028b565b61012361011e366004610b91565b6103f1565b005b6100c76104f4565b6100c7610523565b610148610143366004610c34565b61055a565b6040516100db9190610cec565b6100c7610689565b61017061016b366004610ac4565b6106bb565b6040516100db9190610d4e565b6100c7610892565b6100c76108e1565b6100c7610917565b6100c7610947565b600080546040516d22b733b634b9b420bab1ba34b7b760911b60208201526001600160a01b0390911690638eaa6ac090602e015b604051602081830303815290604052805190602001206040518263ffffffff1660e01b815260040161020591815260200190565b60206040518083038186803b15801561021d57600080fd5b505afa158015610231573d6000803e3d6000fd5b505050506040513d601f19601f820116820180604052508101906102559190610d78565b905090565b600080546040516613dc195b909a5960ca1b60208201526001600160a01b0390911690638eaa6ac0906027016101d1565b60004261029661097d565b6001600160a01b031663b3a0ebc9856040518263ffffffff1660e01b81526004016102c391815260200190565b60006040518083038186803b1580156102db57600080fd5b505afa1580156102ef573d6000803e3d6000fd5b505050506040513d6000823e601f3d908101601f191682016040526103179190810190610df9565b60800151106103555760405162461bcd60e51b81526020600482015260056024820152644b4431323960d81b60448201526064015b60405180910390fd5b61035f83836106bb565b602090810151600085815260019092526040822090925061037f91610991565b610387610987565b604051630249d31960e51b8152600481018590526001600160a01b038381166024830152919091169063493a632090604401600060405180830381600087803b1580156103d357600080fd5b505af11580156103e7573d6000803e3d6000fd5b5050505092915050565b600084815260016020818152604080842081516080810183528981526001600160a01b03888116828601908152938201888152606083018b815284548089018655948952978690208351600490950201938455935195830180546001600160a01b0319169690911695909517909455905160028201559251805192939261047e92600385019201906109b5565b505050610489610987565b6001600160a01b0316630d2657bf85838587426040518663ffffffff1660e01b81526004016104bc959493929190610f00565b600060405180830381600087803b1580156104d657600080fd5b505af11580156104ea573d6000803e3d6000fd5b5050505050505050565b600080546040516415985d5b1d60da1b60208201526001600160a01b0390911690638eaa6ac0906025016101d1565b600080546040516c4d65646961526567697374727960981b60208201526001600160a01b0390911690638eaa6ac090602d016101d1565b606060016000838152602001908152602001600020805480602002602001604051908101604052809291908181526020016000905b8282101561067e57600084815260209081902060408051608081018252600486029092018054835260018101546001600160a01b0316938301939093526002830154908201526003820180549192916060840191906105ed90610f3f565b80601f016020809104026020016040519081016040528092919081815260200182805461061990610f3f565b80156106665780601f1061063b57610100808354040283529160200191610666565b820191906000526020600020905b81548152906001019060200180831161064957829003601f168201915b5050505050815250508152602001906001019061058f565b505050509050919050565b600080546040516713d999995c909a5960c21b60208201526001600160a01b0390911690638eaa6ac0906028016101d1565b6106ef60405180608001604052806000815260200160006001600160a01b0316815260200160008152602001606081525090565b60008381526001602052604090205482118015906107485750600083815260016020526040812080548490811061072857610728610f7a565b60009182526020909120600160049092020101546001600160a01b031614155b61077c5760405162461bcd60e51b815260206004820152600560248201526412d10c4c4d60da1b604482015260640161034c565b600083815260016020526040902080548390811061079c5761079c610f7a565b9060005260206000209060040201604051806080016040529081600082015481526020016001820160009054906101000a90046001600160a01b03166001600160a01b03166001600160a01b031681526020016002820154815260200160038201805461080890610f3f565b80601f016020809104026020016040519081016040528092919081815260200182805461083490610f3f565b80156108815780601f1061085657610100808354040283529160200191610881565b820191906000526020600020905b81548152906001019060200180831161086457829003601f168201915b505050505081525050905092915050565b60008060009054906101000a90046001600160a01b03166001600160a01b031663d5f394886040518163ffffffff1660e01b815260040160206040518083038186803b15801561021d57600080fd5b600080546040516b4d65646961466163746f727960a01b60208201526001600160a01b0390911690638eaa6ac090602c016101d1565b60008054604051651059141bdbdb60d21b60208201526001600160a01b0390911690638eaa6ac0906026016101d1565b600080546040516b22bb32b73a22b6b4ba3a32b960a11b60208201526001600160a01b0390911690638eaa6ac090602c016101d1565b6000610255610917565b6000610255610947565b50805460008255600402906000526020600020908101906109b29190610a39565b50565b8280546109c190610f3f565b90600052602060002090601f0160209004810192826109e35760008555610a29565b82601f106109fc57805160ff1916838001178555610a29565b82800160010185558215610a29579182015b82811115610a29578251825591602001919060010190610a0e565b50610a35929150610a75565b5090565b80821115610a355760008082556001820180546001600160a01b031916905560028201819055610a6c6003830182610a8a565b50600401610a39565b5b80821115610a355760008155600101610a76565b508054610a9690610f3f565b6000825580601f10610aa6575050565b601f0160209004906000526020600020908101906109b29190610a75565b60008060408385031215610ad757600080fd5b50508035926020909101359150565b634e487b7160e01b600052604160045260246000fd5b60405161016081016001600160401b0381118282101715610b1f57610b1f610ae6565b60405290565b604051601f8201601f191681016001600160401b0381118282101715610b4d57610b4d610ae6565b604052919050565b60006001600160401b03821115610b6e57610b6e610ae6565b50601f01601f191660200190565b6001600160a01b03811681146109b257600080fd5b60008060008060808587031215610ba757600080fd5b8435935060208501356001600160401b03811115610bc457600080fd5b8501601f81018713610bd557600080fd5b8035610be8610be382610b55565b610b25565b818152886020838501011115610bfd57600080fd5b816020840160208301376000602083830101528095505050506040850135610c2481610b7c565b9396929550929360600135925050565b600060208284031215610c4657600080fd5b5035919050565b60005b83811015610c68578181015183820152602001610c50565b83811115610c77576000848401525b50505050565b60008151808452610c95816020860160208601610c4d565b601f01601f19169290920160200192915050565b8051825260018060a01b036020820151166020830152604081015160408301526000606082015160806060850152610ce46080850182610c7d565b949350505050565b6000602080830181845280855180835260408601915060408160051b870101925083870160005b82811015610d4157603f19888603018452610d2f858351610ca9565b94509285019290850190600101610d13565b5092979650505050505050565b602081526000610d616020830184610ca9565b9392505050565b8051610d7381610b7c565b919050565b600060208284031215610d8a57600080fd5b8151610d6181610b7c565b600082601f830112610da657600080fd5b8151610db4610be382610b55565b818152846020838601011115610dc957600080fd5b610ce4826020830160208701610c4d565b805160058110610d7357600080fd5b80518015158114610d7357600080fd5b600060208284031215610e0b57600080fd5b81516001600160401b0380821115610e2257600080fd5b908301906101608286031215610e3757600080fd5b610e3f610afc565b610e4883610d68565b8152602083015182811115610e5c57600080fd5b610e6887828601610d95565b602083015250604083015182811115610e8057600080fd5b610e8c87828601610d95565b604083015250606083015160608201526080830151608082015260a083015160a082015260c083015160c0820152610ec660e08401610dda565b60e0820152610100838101519082015261012080840151908201526101409150610ef1828401610de9565b91810191909152949350505050565b85815284602082015260018060a01b038416604082015260a060608201526000610f2d60a0830185610c7d565b90508260808301529695505050505050565b600181811c90821680610f5357607f821691505b60208210811415610f7457634e487b7160e01b600052602260045260246000fd5b50919050565b634e487b7160e01b600052603260045260246000fdfea2646970667358221220ccf7732297a4795b5ea301a5d5e3c3b3fe60c1016f17b3a96f8e95bb03e5dbf364736f6c63430008090033",
  "devdoc": {
    "kind": "dev",
    "methods": {
      "adPoolAddress()": {
        "details": "Gets the address of AdPool."
      },
      "englishAuctionAddress()": {
        "details": "Gets the address of EnglishAuction."
      },
      "eventEmitterAddress()": {
        "details": "Gets the address of EventEmitter."
      },
      "mediaFactoryAddress()": {
        "details": "Gets the address of MediaFactory."
      },
      "mediaRegistryAddress()": {
        "details": "Gets the address of MediaRegistry."
      },
      "nameRegistryAddress()": {
        "details": "Gets the address of NameRegistry"
      },
      "offerBidAddress()": {
        "details": "Gets the address of OfferBid."
      },
      "openBidAddress()": {
        "details": "Gets the address of OpenBid."
      },
      "owner()": {
        "details": "Gets the owner address."
      },
      "vaultAddress()": {
        "details": "Gets the address of Vault."
      }
    },
    "stateVariables": {
      "_bidding": {
        "details": "Maps a tokenId with appeal info"
      }
    },
    "version": 1
  },
  "userdoc": {
    "kind": "user",
    "methods": {},
    "version": 1
  },
  "storageLayout": {
    "storage": [
      {
        "astId": 2131,
        "contract": "contracts/peripheries/OpenBid.sol:OpenBid",
        "label": "_nameRegistry",
        "offset": 0,
        "slot": "0",
        "type": "t_contract(INameRegistry)4553"
      },
      {
        "astId": 7227,
        "contract": "contracts/peripheries/OpenBid.sol:OpenBid",
        "label": "_bidding",
        "offset": 0,
        "slot": "1",
        "type": "t_mapping(t_uint256,t_array(t_struct(OpenBid)4981_storage)dyn_storage)"
      }
    ],
    "types": {
      "t_address": {
        "encoding": "inplace",
        "label": "address",
        "numberOfBytes": "20"
      },
      "t_array(t_struct(OpenBid)4981_storage)dyn_storage": {
        "base": "t_struct(OpenBid)4981_storage",
        "encoding": "dynamic_array",
        "label": "struct Sale.OpenBid[]",
        "numberOfBytes": "32"
      },
      "t_contract(INameRegistry)4553": {
        "encoding": "inplace",
        "label": "contract INameRegistry",
        "numberOfBytes": "20"
      },
      "t_mapping(t_uint256,t_array(t_struct(OpenBid)4981_storage)dyn_storage)": {
        "encoding": "mapping",
        "key": "t_uint256",
        "label": "mapping(uint256 => struct Sale.OpenBid[])",
        "numberOfBytes": "32",
        "value": "t_array(t_struct(OpenBid)4981_storage)dyn_storage"
      },
      "t_string_storage": {
        "encoding": "bytes",
        "label": "string",
        "numberOfBytes": "32"
      },
      "t_struct(OpenBid)4981_storage": {
        "encoding": "inplace",
        "label": "struct Sale.OpenBid",
        "members": [
          {
            "astId": 4974,
            "contract": "contracts/peripheries/OpenBid.sol:OpenBid",
            "label": "tokenId",
            "offset": 0,
            "slot": "0",
            "type": "t_uint256"
          },
          {
            "astId": 4976,
            "contract": "contracts/peripheries/OpenBid.sol:OpenBid",
            "label": "sender",
            "offset": 0,
            "slot": "1",
            "type": "t_address"
          },
          {
            "astId": 4978,
            "contract": "contracts/peripheries/OpenBid.sol:OpenBid",
            "label": "price",
            "offset": 0,
            "slot": "2",
            "type": "t_uint256"
          },
          {
            "astId": 4980,
            "contract": "contracts/peripheries/OpenBid.sol:OpenBid",
            "label": "content",
            "offset": 0,
            "slot": "3",
            "type": "t_string_storage"
          }
        ],
        "numberOfBytes": "128"
      },
      "t_uint256": {
        "encoding": "inplace",
        "label": "uint256",
        "numberOfBytes": "32"
      }
    }
  }
}