{
  "address": "0x3933ecf8dd09A0b8f4852208d6A7Ee4e55160D46",
  "abi": [
    {
      "inputs": [
        {
          "internalType": "address",
          "name": "_nameRegistry",
          "type": "address"
        }
      ],
      "stateMutability": "nonpayable",
      "type": "constructor"
    },
    {
      "inputs": [
        {
          "internalType": "uint256",
          "name": "tokenId",
          "type": "uint256"
        }
      ],
      "name": "accept",
      "outputs": [],
      "stateMutability": "nonpayable",
      "type": "function"
    },
    {
      "inputs": [
        {
          "internalType": "uint256",
          "name": "",
          "type": "uint256"
        }
      ],
      "name": "accepted",
      "outputs": [
        {
          "internalType": "string",
          "name": "",
          "type": "string"
        }
      ],
      "stateMutability": "view",
      "type": "function"
    },
    {
      "inputs": [
        {
          "internalType": "uint256",
          "name": "tokenId",
          "type": "uint256"
        }
      ],
      "name": "acceptedContent",
      "outputs": [
        {
          "internalType": "string",
          "name": "",
          "type": "string"
        }
      ],
      "stateMutability": "view",
      "type": "function"
    },
    {
      "inputs": [],
      "name": "adPoolAddress",
      "outputs": [
        {
          "internalType": "address",
          "name": "",
          "type": "address"
        }
      ],
      "stateMutability": "view",
      "type": "function"
    },
    {
      "inputs": [
        {
          "internalType": "uint256",
          "name": "",
          "type": "uint256"
        },
        {
          "internalType": "uint256",
          "name": "",
          "type": "uint256"
        }
      ],
      "name": "deniedReasons",
      "outputs": [
        {
          "internalType": "string",
          "name": "reason",
          "type": "string"
        },
        {
          "internalType": "bool",
          "name": "offensive",
          "type": "bool"
        }
      ],
      "stateMutability": "view",
      "type": "function"
    },
    {
      "inputs": [
        {
          "internalType": "uint256",
          "name": "tokenId",
          "type": "uint256"
        },
        {
          "internalType": "string",
          "name": "reason",
          "type": "string"
        },
        {
          "internalType": "bool",
          "name": "offensive",
          "type": "bool"
        }
      ],
      "name": "denyProposal",
      "outputs": [],
      "stateMutability": "nonpayable",
      "type": "function"
    },
    {
      "inputs": [],
      "name": "englishAuctionAddress",
      "outputs": [
        {
          "internalType": "address",
          "name": "",
          "type": "address"
        }
      ],
      "stateMutability": "view",
      "type": "function"
    },
    {
      "inputs": [],
      "name": "eventEmitterAddress",
      "outputs": [
        {
          "internalType": "address",
          "name": "",
          "type": "address"
        }
      ],
      "stateMutability": "view",
      "type": "function"
    },
    {
      "inputs": [],
      "name": "mediaFactoryAddress",
      "outputs": [
        {
          "internalType": "address",
          "name": "",
          "type": "address"
        }
      ],
      "stateMutability": "view",
      "type": "function"
    },
    {
      "inputs": [],
      "name": "mediaRegistryAddress",
      "outputs": [
        {
          "internalType": "address",
          "name": "",
          "type": "address"
        }
      ],
      "stateMutability": "view",
      "type": "function"
    },
    {
      "inputs": [],
      "name": "nameRegistryAddress",
      "outputs": [
        {
          "internalType": "address",
          "name": "",
          "type": "address"
        }
      ],
      "stateMutability": "view",
      "type": "function"
    },
    {
      "inputs": [],
      "name": "offerBidAddress",
      "outputs": [
        {
          "internalType": "address",
          "name": "",
          "type": "address"
        }
      ],
      "stateMutability": "view",
      "type": "function"
    },
    {
      "inputs": [],
      "name": "openBidAddress",
      "outputs": [
        {
          "internalType": "address",
          "name": "",
          "type": "address"
        }
      ],
      "stateMutability": "view",
      "type": "function"
    },
    {
      "inputs": [],
      "name": "owner",
      "outputs": [
        {
          "internalType": "address",
          "name": "",
          "type": "address"
        }
      ],
      "stateMutability": "view",
      "type": "function"
    },
    {
      "inputs": [],
      "name": "proposalReviewAddress",
      "outputs": [
        {
          "internalType": "address",
          "name": "",
          "type": "address"
        }
      ],
      "stateMutability": "view",
      "type": "function"
    },
    {
      "inputs": [
        {
          "internalType": "uint256",
          "name": "tokenId",
          "type": "uint256"
        },
        {
          "internalType": "string",
          "name": "metadata",
          "type": "string"
        },
        {
          "internalType": "address",
          "name": "msgSender",
          "type": "address"
        }
      ],
      "name": "propose",
      "outputs": [],
      "stateMutability": "nonpayable",
      "type": "function"
    },
    {
      "inputs": [
        {
          "internalType": "uint256",
          "name": "",
          "type": "uint256"
        }
      ],
      "name": "proposed",
      "outputs": [
        {
          "internalType": "string",
          "name": "content",
          "type": "string"
        },
        {
          "internalType": "address",
          "name": "proposer",
          "type": "address"
        }
      ],
      "stateMutability": "view",
      "type": "function"
    },
    {
      "inputs": [
        {
          "internalType": "uint256",
          "name": "tokenId",
          "type": "uint256"
        }
      ],
      "name": "proposer",
      "outputs": [
        {
          "internalType": "address",
          "name": "",
          "type": "address"
        }
      ],
      "stateMutability": "view",
      "type": "function"
    },
    {
      "inputs": [],
      "name": "vaultAddress",
      "outputs": [
        {
          "internalType": "address",
          "name": "",
          "type": "address"
        }
      ],
      "stateMutability": "view",
      "type": "function"
    }
  ],
  "transactionHash": "0xe847ff9dc7912c4f33bb42e87f3b8c2ad40e7e1a72ebc531df147878a1ac3121",
  "args": [
    "0x173E3862BaE7bD155a7a371Ee3b855de01aa63dd"
  ],
  "solcInputHash": "289fa2710193a113c0b3ec7823c19cab",
  "bytecode": "0x608060405234801561001057600080fd5b506040516112b03803806112b083398101604081905261002f91610050565b600080546001600160a01b0319166001600160a01b03831617905550610080565b60006020828403121561006257600080fd5b81516001600160a01b038116811461007957600080fd5b9392505050565b6112218061008f6000396000f3fe608060405234801561001057600080fd5b50600436106100f15760003560e01c80630106d8eb146100f657806313c1f2781461011457806319b05f49146101295780632231c1eb1461013c57806327b7a2f514610144578063430bf08a1461015557806358ba1bb81461015d57806365d13a901461017e5780636a58767e1461019f5780637cf175fb146101a7578063897615e6146101af5780638da5cb5b146101dc5780638f6059d6146101e4578063bd365642146101ec578063c9cd71b51461020c578063e2f5fc7814610214578063f07262911461021c578063f19b827314610224578063fb772f4b14610237575b600080fd5b6100fe61024a565b60405161010b9190610e89565b60405180910390f35b610127610122366004610f3f565b610307565b005b610127610137366004610f9e565b61054f565b6100fe6107b8565b6000546001600160a01b03166100fe565b6100fe6107e9565b61017061016b366004610f9e565b610818565b60405161010b929190611004565b61019161018c36600461102e565b6108c5565b60405161010b929190611050565b6100fe610991565b6100fe6109c8565b6100fe6101bd366004610f9e565b600090815260016020819052604090912001546001600160a01b031690565b6100fe6109fa565b6100fe610a49565b6101ff6101fa366004610f9e565b610a7f565b60405161010b9190611074565b6100fe610b21565b6100fe610b51565b6100fe610b89565b6101ff610232366004610f9e565b610bbf565b6101276102453660046110a6565b610c59565b600080546040516d22b733b634b9b420bab1ba34b7b760911b60208201526001600160a01b0390911690638eaa6ac090602e015b604051602081830303815290604052805190602001206040518263ffffffff1660e01b81526004016102b291815260200190565b60206040518083038186803b1580156102ca57600080fd5b505afa1580156102de573d6000803e3d6000fd5b505050506040513d601f19601f8201168201806040525081019061030291906110f5565b905090565b6000610311610ddc565b6001600160a01b03166314afd79e336040518263ffffffff1660e01b815260040161033c9190610e89565b60206040518083038186803b15801561035457600080fd5b505afa158015610368573d6000803e3d6000fd5b505050506040513d601f19601f8201168201806040525081019061038c91906110f5565b6001600160a01b031614156103bc5760405162461bcd60e51b81526004016103b390611112565b60405180910390fd5b600083815260016020526040812080546103d590611131565b80601f016020809104026020016040519081016040528092919081815260200182805461040190611131565b801561044e5780601f106104235761010080835404028352916020019161044e565b820191906000526020600020905b81548152906001019060200180831161043157829003601f168201915b505050505090508051600014156104775760405162461bcd60e51b81526004016103b39061116c565b600084815260026020818152604080842081518083019092528782528615158284015280546001810182559085529382902081518051929590940201926104c2928492910190610df0565b50602091909101516001909101805460ff19169115159190911790556104e6610de6565b6001600160a01b0316633ebf7371858386866040518563ffffffff1660e01b8152600401610517949392919061118b565b600060405180830381600087803b15801561053157600080fd5b505af1158015610545573d6000803e3d6000fd5b5050505050505050565b6000610559610ddc565b6001600160a01b03166314afd79e336040518263ffffffff1660e01b81526004016105849190610e89565b60206040518083038186803b15801561059c57600080fd5b505afa1580156105b0573d6000803e3d6000fd5b505050506040513d601f19601f820116820180604052508101906105d491906110f5565b6001600160a01b031614156105fb5760405162461bcd60e51b81526004016103b390611112565b6000818152600160205260408120805461061490611131565b80601f016020809104026020016040519081016040528092919081815260200182805461064090611131565b801561068d5780601f106106625761010080835404028352916020019161068d565b820191906000526020600020905b81548152906001019060200180831161067057829003601f168201915b505050505090508051600014156106b65760405162461bcd60e51b81526004016103b39061116c565b600082815260036020908152604090912082516106d592840190610df0565b50604080516060810182526000818301818152825284815260016020818152938220808201546001600160a01b03168585015291869052835281518051929391926107239284920190610df0565b5060209190910151600190910180546001600160a01b0319166001600160a01b03909216919091179055610755610de6565b6001600160a01b031663746f1b2083836040518363ffffffff1660e01b81526004016107829291906111ca565b600060405180830381600087803b15801561079c57600080fd5b505af11580156107b0573d6000803e3d6000fd5b505050505050565b600080546040516613dc195b909a5960ca1b60208201526001600160a01b0390911690638eaa6ac09060270161027e565b600080546040516415985d5b1d60da1b60208201526001600160a01b0390911690638eaa6ac09060250161027e565b60016020526000908152604090208054819061083390611131565b80601f016020809104026020016040519081016040528092919081815260200182805461085f90611131565b80156108ac5780601f10610881576101008083540402835291602001916108ac565b820191906000526020600020905b81548152906001019060200180831161088f57829003601f168201915b505050600190930154919250506001600160a01b031682565b600260205281600052604060002081815481106108e157600080fd5b90600052602060002090600202016000915091505080600001805461090590611131565b80601f016020809104026020016040519081016040528092919081815260200182805461093190611131565b801561097e5780601f106109535761010080835404028352916020019161097e565b820191906000526020600020905b81548152906001019060200180831161096157829003601f168201915b5050506001909301549192505060ff1682565b600080546040516c4d65646961526567697374727960981b60208201526001600160a01b0390911690638eaa6ac090602d0161027e565b600080546040516713d999995c909a5960c21b60208201526001600160a01b0390911690638eaa6ac09060280161027e565b60008060009054906101000a90046001600160a01b03166001600160a01b031663d5f394886040518163ffffffff1660e01b815260040160206040518083038186803b1580156102ca57600080fd5b600080546040516b4d65646961466163746f727960a01b60208201526001600160a01b0390911690638eaa6ac090602c0161027e565b6000818152600360205260409020805460609190610a9c90611131565b80601f0160208091040260200160405190810160405280929190818152602001828054610ac890611131565b8015610b155780601f10610aea57610100808354040283529160200191610b15565b820191906000526020600020905b815481529060010190602001808311610af857829003601f168201915b50505050509050919050565b60008054604051651059141bdbdb60d21b60208201526001600160a01b0390911690638eaa6ac09060260161027e565b600080546040516d50726f706f73616c52657669657760901b60208201526001600160a01b0390911690638eaa6ac090602e0161027e565b600080546040516b22bb32b73a22b6b4ba3a32b960a11b60208201526001600160a01b0390911690638eaa6ac090602c0161027e565b60036020526000908152604090208054610bd890611131565b80601f0160208091040260200160405190810160405280929190818152602001828054610c0490611131565b8015610c515780601f10610c2657610100808354040283529160200191610c51565b820191906000526020600020905b815481529060010190602001808311610c3457829003601f168201915b505050505081565b6000610c63610ddc565b6001600160a01b03166314afd79e336040518263ffffffff1660e01b8152600401610c8e9190610e89565b60206040518083038186803b158015610ca657600080fd5b505afa158015610cba573d6000803e3d6000fd5b505050506040513d601f19601f82011682018060405250810190610cde91906110f5565b6001600160a01b03161415610d055760405162461bcd60e51b81526004016103b390611112565b6040805180820182528381526001600160a01b038316602080830191909152600086815260018252929092208151805192939192610d469284920190610df0565b5060209190910151600190910180546001600160a01b0319166001600160a01b03909216919091179055610d78610de6565b6001600160a01b0316635bcefb5384846040518363ffffffff1660e01b8152600401610da59291906111ca565b600060405180830381600087803b158015610dbf57600080fd5b505af1158015610dd3573d6000803e3d6000fd5b50505050505050565b6000610302610991565b6000610302610b89565b828054610dfc90611131565b90600052602060002090601f016020900481019282610e1e5760008555610e64565b82601f10610e3757805160ff1916838001178555610e64565b82800160010185558215610e64579182015b82811115610e64578251825591602001919060010190610e49565b50610e70929150610e74565b5090565b5b80821115610e705760008155600101610e75565b6001600160a01b0391909116815260200190565b634e487b7160e01b600052604160045260246000fd5b600082601f830112610ec457600080fd5b81356001600160401b0380821115610ede57610ede610e9d565b604051601f8301601f19908116603f01168101908282118183101715610f0657610f06610e9d565b81604052838152866020858801011115610f1f57600080fd5b836020870160208301376000602085830101528094505050505092915050565b600080600060608486031215610f5457600080fd5b8335925060208401356001600160401b03811115610f7157600080fd5b610f7d86828701610eb3565b92505060408401358015158114610f9357600080fd5b809150509250925092565b600060208284031215610fb057600080fd5b5035919050565b6000815180845260005b81811015610fdd57602081850181015186830182015201610fc1565b81811115610fef576000602083870101525b50601f01601f19169290920160200192915050565b6040815260006110176040830185610fb7565b905060018060a01b03831660208301529392505050565b6000806040838503121561104157600080fd5b50508035926020909101359150565b6040815260006110636040830185610fb7565b905082151560208301529392505050565b6020815260006110876020830184610fb7565b9392505050565b6001600160a01b03811681146110a357600080fd5b50565b6000806000606084860312156110bb57600080fd5b8335925060208401356001600160401b038111156110d857600080fd5b6110e486828701610eb3565b9250506040840135610f938161108e565b60006020828403121561110757600080fd5b81516110878161108e565b6020808252600590820152644b4430313160d81b604082015260600190565b600181811c9082168061114557607f821691505b6020821081141561116657634e487b7160e01b600052602260045260246000fd5b50919050565b60208082526005908201526404b443133360dc1b604082015260600190565b8481526080602082015260006111a46080830186610fb7565b82810360408401526111b68186610fb7565b915050821515606083015295945050505050565b8281526040602082015260006111e36040830184610fb7565b94935050505056fea26469706673582212209f2d839214b78c2c9f5f6b47a1eb7a1079dd2e473755470ce013ec09282d37fe64736f6c63430008090033",
  "devdoc": {
    "kind": "dev",
    "methods": {
      "accept(uint256)": {
        "details": "Accepts the proposal.",
        "params": {
          "tokenId": "uint256 of the token ID"
        }
      },
      "adPoolAddress()": {
        "details": "Gets the address of AdPool."
      },
      "denyProposal(uint256,string,bool)": {
        "details": "Denies the submitted proposal, mentioning what is the problem.",
        "params": {
          "offensive": "bool if the content would offend somebody",
          "reason": "string of the reason why it is rejected",
          "tokenId": "uint256 of the token ID"
        }
      },
      "englishAuctionAddress()": {
        "details": "Gets the address of EnglishAuction."
      },
      "eventEmitterAddress()": {
        "details": "Gets the address of EventEmitter."
      },
      "mediaFactoryAddress()": {
        "details": "Gets the address of MediaFactory."
      },
      "mediaRegistryAddress()": {
        "details": "Gets the address of MediaRegistry."
      },
      "nameRegistryAddress()": {
        "details": "Gets the address of NameRegistry"
      },
      "offerBidAddress()": {
        "details": "Gets the address of OfferBid."
      },
      "openBidAddress()": {
        "details": "Gets the address of OpenBid."
      },
      "owner()": {
        "details": "Gets the owner address."
      },
      "proposalReviewAddress()": {
        "details": "Gets the address of ProposalReview."
      },
      "propose(uint256,string,address)": {
        "details": "Proposes the metadata to the token you bought.      Users can propose many times as long as it is accepted.",
        "params": {
          "metadata": "string of the proposal metadata",
          "tokenId": "uint256 of the token ID"
        }
      },
      "vaultAddress()": {
        "details": "Gets the address of Vault."
      }
    },
    "stateVariables": {
      "accepted": {
        "details": "Maps a tokenId with the content metadata."
      },
      "deniedReasons": {
        "details": "Maps a tokenId with denied reasons."
      },
      "proposed": {
        "details": "Maps a tokenId with the proposal content."
      }
    },
    "version": 1
  },
  "userdoc": {
    "kind": "user",
    "methods": {},
    "version": 1
  },
  "storageLayout": {
    "storage": [
      {
        "astId": 2345,
        "contract": "contracts/peripheries/ProposalReview.sol:ProposalReview",
        "label": "_nameRegistry",
        "offset": 0,
        "slot": "0",
        "type": "t_contract(INameRegistry)4466"
      },
      {
        "astId": 7467,
        "contract": "contracts/peripheries/ProposalReview.sol:ProposalReview",
        "label": "proposed",
        "offset": 0,
        "slot": "1",
        "type": "t_mapping(t_uint256,t_struct(Proposal)4573_storage)"
      },
      {
        "astId": 7474,
        "contract": "contracts/peripheries/ProposalReview.sol:ProposalReview",
        "label": "deniedReasons",
        "offset": 0,
        "slot": "2",
        "type": "t_mapping(t_uint256,t_array(t_struct(Denied)4568_storage)dyn_storage)"
      },
      {
        "astId": 7479,
        "contract": "contracts/peripheries/ProposalReview.sol:ProposalReview",
        "label": "accepted",
        "offset": 0,
        "slot": "3",
        "type": "t_mapping(t_uint256,t_string_storage)"
      }
    ],
    "types": {
      "t_address": {
        "encoding": "inplace",
        "label": "address",
        "numberOfBytes": "20"
      },
      "t_array(t_struct(Denied)4568_storage)dyn_storage": {
        "base": "t_struct(Denied)4568_storage",
        "encoding": "dynamic_array",
        "label": "struct IProposalReview.Denied[]",
        "numberOfBytes": "32"
      },
      "t_bool": {
        "encoding": "inplace",
        "label": "bool",
        "numberOfBytes": "1"
      },
      "t_contract(INameRegistry)4466": {
        "encoding": "inplace",
        "label": "contract INameRegistry",
        "numberOfBytes": "20"
      },
      "t_mapping(t_uint256,t_array(t_struct(Denied)4568_storage)dyn_storage)": {
        "encoding": "mapping",
        "key": "t_uint256",
        "label": "mapping(uint256 => struct IProposalReview.Denied[])",
        "numberOfBytes": "32",
        "value": "t_array(t_struct(Denied)4568_storage)dyn_storage"
      },
      "t_mapping(t_uint256,t_string_storage)": {
        "encoding": "mapping",
        "key": "t_uint256",
        "label": "mapping(uint256 => string)",
        "numberOfBytes": "32",
        "value": "t_string_storage"
      },
      "t_mapping(t_uint256,t_struct(Proposal)4573_storage)": {
        "encoding": "mapping",
        "key": "t_uint256",
        "label": "mapping(uint256 => struct IProposalReview.Proposal)",
        "numberOfBytes": "32",
        "value": "t_struct(Proposal)4573_storage"
      },
      "t_string_storage": {
        "encoding": "bytes",
        "label": "string",
        "numberOfBytes": "32"
      },
      "t_struct(Denied)4568_storage": {
        "encoding": "inplace",
        "label": "struct IProposalReview.Denied",
        "members": [
          {
            "astId": 4565,
            "contract": "contracts/peripheries/ProposalReview.sol:ProposalReview",
            "label": "reason",
            "offset": 0,
            "slot": "0",
            "type": "t_string_storage"
          },
          {
            "astId": 4567,
            "contract": "contracts/peripheries/ProposalReview.sol:ProposalReview",
            "label": "offensive",
            "offset": 0,
            "slot": "1",
            "type": "t_bool"
          }
        ],
        "numberOfBytes": "64"
      },
      "t_struct(Proposal)4573_storage": {
        "encoding": "inplace",
        "label": "struct IProposalReview.Proposal",
        "members": [
          {
            "astId": 4570,
            "contract": "contracts/peripheries/ProposalReview.sol:ProposalReview",
            "label": "content",
            "offset": 0,
            "slot": "0",
            "type": "t_string_storage"
          },
          {
            "astId": 4572,
            "contract": "contracts/peripheries/ProposalReview.sol:ProposalReview",
            "label": "proposer",
            "offset": 0,
            "slot": "1",
            "type": "t_address"
          }
        ],
        "numberOfBytes": "64"
      },
      "t_uint256": {
        "encoding": "inplace",
        "label": "uint256",
        "numberOfBytes": "32"
      }
    }
  }
}