{
  "address": "0x23A3dDD725f227B335B67b2e9B56fE558755B7CC",
  "abi": [
    {
      "inputs": [
        {
          "internalType": "string",
          "name": "name_",
          "type": "string"
        },
        {
          "internalType": "string",
          "name": "symbol_",
          "type": "string"
        },
        {
          "internalType": "string",
          "name": "baseURI_",
          "type": "string"
        },
        {
          "internalType": "address",
          "name": "nameRegistry",
          "type": "address"
        }
      ],
      "stateMutability": "nonpayable",
      "type": "constructor"
    },
    {
      "anonymous": false,
      "inputs": [
        {
          "indexed": true,
          "internalType": "address",
          "name": "owner",
          "type": "address"
        },
        {
          "indexed": true,
          "internalType": "address",
          "name": "approved",
          "type": "address"
        },
        {
          "indexed": true,
          "internalType": "uint256",
          "name": "tokenId",
          "type": "uint256"
        }
      ],
      "name": "Approval",
      "type": "event"
    },
    {
      "anonymous": false,
      "inputs": [
        {
          "indexed": true,
          "internalType": "address",
          "name": "owner",
          "type": "address"
        },
        {
          "indexed": true,
          "internalType": "address",
          "name": "operator",
          "type": "address"
        },
        {
          "indexed": false,
          "internalType": "bool",
          "name": "approved",
          "type": "bool"
        }
      ],
      "name": "ApprovalForAll",
      "type": "event"
    },
    {
      "anonymous": false,
      "inputs": [
        {
          "indexed": true,
          "internalType": "address",
          "name": "from",
          "type": "address"
        },
        {
          "indexed": true,
          "internalType": "address",
          "name": "to",
          "type": "address"
        },
        {
          "indexed": true,
          "internalType": "uint256",
          "name": "tokenId",
          "type": "uint256"
        }
      ],
      "name": "Transfer",
      "type": "event"
    },
    {
      "inputs": [],
      "name": "adPoolAddress",
      "outputs": [
        {
          "internalType": "address",
          "name": "",
          "type": "address"
        }
      ],
      "stateMutability": "view",
      "type": "function"
    },
    {
      "inputs": [
        {
          "internalType": "address",
          "name": "to",
          "type": "address"
        },
        {
          "internalType": "uint256",
          "name": "tokenId",
          "type": "uint256"
        }
      ],
      "name": "approve",
      "outputs": [],
      "stateMutability": "nonpayable",
      "type": "function"
    },
    {
      "inputs": [
        {
          "internalType": "address",
          "name": "owner",
          "type": "address"
        }
      ],
      "name": "balanceOf",
      "outputs": [
        {
          "internalType": "uint256",
          "name": "",
          "type": "uint256"
        }
      ],
      "stateMutability": "view",
      "type": "function"
    },
    {
      "inputs": [
        {
          "internalType": "uint256",
          "name": "tokenId",
          "type": "uint256"
        }
      ],
      "name": "burn",
      "outputs": [],
      "stateMutability": "nonpayable",
      "type": "function"
    },
    {
      "inputs": [],
      "name": "distributionRightAddress",
      "outputs": [
        {
          "internalType": "address",
          "name": "",
          "type": "address"
        }
      ],
      "stateMutability": "view",
      "type": "function"
    },
    {
      "inputs": [
        {
          "internalType": "uint256",
          "name": "tokenId",
          "type": "uint256"
        }
      ],
      "name": "getApproved",
      "outputs": [
        {
          "internalType": "address",
          "name": "",
          "type": "address"
        }
      ],
      "stateMutability": "view",
      "type": "function"
    },
    {
      "inputs": [
        {
          "internalType": "address",
          "name": "owner",
          "type": "address"
        },
        {
          "internalType": "address",
          "name": "operator",
          "type": "address"
        }
      ],
      "name": "isApprovedForAll",
      "outputs": [
        {
          "internalType": "bool",
          "name": "",
          "type": "bool"
        }
      ],
      "stateMutability": "view",
      "type": "function"
    },
    {
      "inputs": [
        {
          "internalType": "address",
          "name": "account",
          "type": "address"
        },
        {
          "internalType": "string",
          "name": "metadata",
          "type": "string"
        }
      ],
      "name": "mint",
      "outputs": [
        {
          "internalType": "uint256",
          "name": "tokenId",
          "type": "uint256"
        }
      ],
      "stateMutability": "nonpayable",
      "type": "function"
    },
    {
      "inputs": [],
      "name": "name",
      "outputs": [
        {
          "internalType": "string",
          "name": "",
          "type": "string"
        }
      ],
      "stateMutability": "view",
      "type": "function"
    },
    {
      "inputs": [],
      "name": "nameRegistryAddress",
      "outputs": [
        {
          "internalType": "address",
          "name": "",
          "type": "address"
        }
      ],
      "stateMutability": "view",
      "type": "function"
    },
    {
      "inputs": [],
      "name": "nextTokenId",
      "outputs": [
        {
          "internalType": "uint256",
          "name": "",
          "type": "uint256"
        }
      ],
      "stateMutability": "view",
      "type": "function"
    },
    {
      "inputs": [],
      "name": "owner",
      "outputs": [
        {
          "internalType": "address",
          "name": "",
          "type": "address"
        }
      ],
      "stateMutability": "view",
      "type": "function"
    },
    {
      "inputs": [
        {
          "internalType": "uint256",
          "name": "tokenId",
          "type": "uint256"
        }
      ],
      "name": "ownerOf",
      "outputs": [
        {
          "internalType": "address",
          "name": "",
          "type": "address"
        }
      ],
      "stateMutability": "view",
      "type": "function"
    },
    {
      "inputs": [],
      "name": "reservedRightAddress",
      "outputs": [
        {
          "internalType": "address",
          "name": "",
          "type": "address"
        }
      ],
      "stateMutability": "view",
      "type": "function"
    },
    {
      "inputs": [
        {
          "internalType": "address",
          "name": "from",
          "type": "address"
        },
        {
          "internalType": "address",
          "name": "to",
          "type": "address"
        },
        {
          "internalType": "uint256",
          "name": "tokenId",
          "type": "uint256"
        }
      ],
      "name": "safeTransferFrom",
      "outputs": [],
      "stateMutability": "nonpayable",
      "type": "function"
    },
    {
      "inputs": [
        {
          "internalType": "address",
          "name": "from",
          "type": "address"
        },
        {
          "internalType": "address",
          "name": "to",
          "type": "address"
        },
        {
          "internalType": "uint256",
          "name": "tokenId",
          "type": "uint256"
        },
        {
          "internalType": "bytes",
          "name": "_data",
          "type": "bytes"
        }
      ],
      "name": "safeTransferFrom",
      "outputs": [],
      "stateMutability": "nonpayable",
      "type": "function"
    },
    {
      "inputs": [
        {
          "internalType": "address",
          "name": "operator",
          "type": "address"
        },
        {
          "internalType": "bool",
          "name": "approved",
          "type": "bool"
        }
      ],
      "name": "setApprovalForAll",
      "outputs": [],
      "stateMutability": "nonpayable",
      "type": "function"
    },
    {
      "inputs": [
        {
          "internalType": "bytes4",
          "name": "interfaceId",
          "type": "bytes4"
        }
      ],
      "name": "supportsInterface",
      "outputs": [
        {
          "internalType": "bool",
          "name": "",
          "type": "bool"
        }
      ],
      "stateMutability": "view",
      "type": "function"
    },
    {
      "inputs": [],
      "name": "symbol",
      "outputs": [
        {
          "internalType": "string",
          "name": "",
          "type": "string"
        }
      ],
      "stateMutability": "view",
      "type": "function"
    },
    {
      "inputs": [
        {
          "internalType": "uint256",
          "name": "tokenId",
          "type": "uint256"
        }
      ],
      "name": "tokenURI",
      "outputs": [
        {
          "internalType": "string",
          "name": "",
          "type": "string"
        }
      ],
      "stateMutability": "view",
      "type": "function"
    },
    {
      "inputs": [
        {
          "internalType": "address",
          "name": "from",
          "type": "address"
        },
        {
          "internalType": "address",
          "name": "to",
          "type": "address"
        },
        {
          "internalType": "uint256",
          "name": "tokenId",
          "type": "uint256"
        }
      ],
      "name": "transferByAllowedContract",
      "outputs": [],
      "stateMutability": "nonpayable",
      "type": "function"
    },
    {
      "inputs": [
        {
          "internalType": "address",
          "name": "from",
          "type": "address"
        },
        {
          "internalType": "address",
          "name": "to",
          "type": "address"
        },
        {
          "internalType": "uint256",
          "name": "tokenId",
          "type": "uint256"
        }
      ],
      "name": "transferFrom",
      "outputs": [],
      "stateMutability": "nonpayable",
      "type": "function"
    },
    {
      "inputs": [],
      "name": "vaultAddress",
      "outputs": [
        {
          "internalType": "address",
          "name": "",
          "type": "address"
        }
      ],
      "stateMutability": "view",
      "type": "function"
    }
  ],
  "transactionHash": "0x46ca35c9868eaaa278b18304556d01acf4d55e973ae3c0f54f41080f30738f9f",
  "args": [
    "ReservedRight",
    "AD_RESERVED_RIGHT",
    "ipfs://",
    "0x83b8cD9BC87a5f910fc73646c0Fa623D4d3d7f3D"
  ],
  "solcInputHash": "8212c2184ff8dd6d9991f02150a121e1",
  "bytecode": "0x608060405260016009553480156200001657600080fd5b5060405162001f9638038062001f9683398101604081905262000039916200020e565b80848484826000908051906020019062000055929190620000b1565b5081516200006b906001906020850190620000b1565b50805162000081906002906020840190620000b1565b5050600880546001600160a01b0319166001600160a01b0394909416939093179092555062000314945050505050565b828054620000bf90620002c1565b90600052602060002090601f016020900481019282620000e357600085556200012e565b82601f10620000fe57805160ff19168380011785556200012e565b828001600101855582156200012e579182015b828111156200012e57825182559160200191906001019062000111565b506200013c92915062000140565b5090565b5b808211156200013c576000815560010162000141565b600082601f8301126200016957600080fd5b81516001600160401b0380821115620001865762000186620002fe565b604051601f8301601f19908116603f01168101908282118183101715620001b157620001b1620002fe565b81604052838152602092508683858801011115620001ce57600080fd5b600091505b83821015620001f25785820183015181830184015290820190620001d3565b83821115620002045760008385830101525b9695505050505050565b600080600080608085870312156200022557600080fd5b84516001600160401b03808211156200023d57600080fd5b6200024b8883890162000157565b955060208701519150808211156200026257600080fd5b620002708883890162000157565b945060408701519150808211156200028757600080fd5b50620002968782880162000157565b606087015190935090506001600160a01b0381168114620002b657600080fd5b939692955090935050565b600181811c90821680620002d657607f821691505b60208210811415620002f857634e487b7160e01b600052602260045260246000fd5b50919050565b634e487b7160e01b600052604160045260246000fd5b611c7280620003246000396000f3fe608060405234801561001057600080fd5b506004361061018d5760003560e01c806370a08231116100e3578063ac6919a51161008c578063c9cd71b511610066578063c9cd71b51461030a578063d0def52114610312578063e985e9c51461032557600080fd5b8063ac6919a5146102dc578063b88d4fde146102e4578063c87b56dd146102f757600080fd5b80638e9e614e116100bd5780638e9e614e146102ae57806395d89b41146102c1578063a22cb465146102c957600080fd5b806370a082311461027c57806375794a3c1461029d5780638da5cb5b146102a657600080fd5b806327b7a2f51161014557806342966c681161011f57806342966c681461024e578063430bf08a146102615780636352211e1461026957600080fd5b806327b7a2f51461022257806329a594b51461023357806342842e0e1461023b57600080fd5b8063081812fc11610176578063081812fc146101cf578063095ea7b3146101fa57806323b872dd1461020f57600080fd5b806301ffc9a71461019257806306fdde03146101ba575b600080fd5b6101a56101a03660046119b4565b610361565b60405190151581526020015b60405180910390f35b6101c26103fe565b6040516101b19190611b3f565b6101e26101dd3660046119ee565b610490565b6040516001600160a01b0390911681526020016101b1565b61020d61020836600461196b565b61052a565b005b61020d61021d366004611818565b61065c565b6008546001600160a01b03166101e2565b6101e26106e3565b61020d610249366004611818565b6107af565b61020d61025c3660046119ee565b6107ca565b6101e2610885565b6101e26102773660046119ee565b6108cc565b61028f61028a36600461179e565b610957565b6040519081526020016101b1565b61028f60095481565b6101e26109f1565b61020d6102bc366004611818565b610a4f565b6101c2610afe565b61020d6102d73660046118d9565b610b0d565b6101e2610bd2565b61020d6102f2366004611859565b610c19565b6101c26103053660046119ee565b610ca7565b6101e2610e21565b61028f610320366004611907565b610e68565b6101a56103333660046117df565b6001600160a01b03918216600090815260076020908152604080832093909416825291909152205460ff1690565b60006001600160e01b031982167f80ac58cd0000000000000000000000000000000000000000000000000000000014806103c457506001600160e01b031982167f5b5e139f00000000000000000000000000000000000000000000000000000000145b806103f857507f01ffc9a7000000000000000000000000000000000000000000000000000000006001600160e01b03198316145b92915050565b60606000805461040d90611b81565b80601f016020809104026020016040519081016040528092919081815260200182805461043990611b81565b80156104865780601f1061045b57610100808354040283529160200191610486565b820191906000526020600020905b81548152906001019060200180831161046957829003601f168201915b5050505050905090565b6000818152600460205260408120546001600160a01b031661050e5760405162461bcd60e51b815260206004820152602c60248201527f4552433732313a20617070726f76656420717565727920666f72206e6f6e657860448201526b34b9ba32b73a103a37b5b2b760a11b60648201526084015b60405180910390fd5b506000908152600660205260409020546001600160a01b031690565b6000610535826108cc565b9050806001600160a01b0316836001600160a01b031614156105bf5760405162461bcd60e51b815260206004820152602160248201527f4552433732313a20617070726f76616c20746f2063757272656e74206f776e6560448201527f72000000000000000000000000000000000000000000000000000000000000006064820152608401610505565b336001600160a01b03821614806105db57506105db8133610333565b61064d5760405162461bcd60e51b815260206004820152603860248201527f4552433732313a20617070726f76652063616c6c6572206973206e6f74206f7760448201527f6e6572206e6f7220617070726f76656420666f7220616c6c00000000000000006064820152608401610505565b6106578383610f60565b505050565b6106663382610fdb565b6106d85760405162461bcd60e51b815260206004820152603160248201527f4552433732313a207472616e736665722063616c6c6572206973206e6f74206f60448201527f776e6572206e6f7220617070726f7665640000000000000000000000000000006064820152608401610505565b6106578383836110d2565b6008546040517f526573657276656452696768740000000000000000000000000000000000000060208201526000916001600160a01b031690638eaa6ac090602d015b604051602081830303815290604052805190602001206040518263ffffffff1660e01b815260040161075a91815260200190565b60206040518083038186803b15801561077257600080fd5b505afa158015610786573d6000803e3d6000fd5b505050506040513d601f19601f820116820180604052508101906107aa91906117c2565b905090565b61065783838360405180602001604052806000815250610c19565b6008546040516351e0e26b60e01b81523360048201526001600160a01b03909116906351e0e26b9060240160206040518083038186803b15801561080d57600080fd5b505afa158015610821573d6000803e3d6000fd5b505050506040513d601f19601f820116820180604052508101906108459190611997565b6108795760405162461bcd60e51b8152602060048201526005602482015264415232303160d81b6044820152606401610505565b610882816112ac565b50565b6008546040517f5661756c7400000000000000000000000000000000000000000000000000000060208201526000916001600160a01b031690638eaa6ac090602501610726565b6000818152600460205260408120546001600160a01b0316806103f85760405162461bcd60e51b815260206004820152602960248201527f4552433732313a206f776e657220717565727920666f72206e6f6e657869737460448201527f656e7420746f6b656e00000000000000000000000000000000000000000000006064820152608401610505565b60006001600160a01b0382166109d55760405162461bcd60e51b815260206004820152602a60248201527f4552433732313a2062616c616e636520717565727920666f7220746865207a6560448201527f726f2061646472657373000000000000000000000000000000000000000000006064820152608401610505565b506001600160a01b031660009081526005602052604090205490565b600854604080517f8da5cb5b00000000000000000000000000000000000000000000000000000000815290516000926001600160a01b031691638da5cb5b916004808301926020929190829003018186803b15801561077257600080fd5b6008546040516351e0e26b60e01b81523360048201526001600160a01b03909116906351e0e26b9060240160206040518083038186803b158015610a9257600080fd5b505afa158015610aa6573d6000803e3d6000fd5b505050506040513d601f19601f82011682018060405250810190610aca9190611997565b6106d85760405162461bcd60e51b8152602060048201526005602482015264415232303160d81b6044820152606401610505565b60606001805461040d90611b81565b6001600160a01b038216331415610b665760405162461bcd60e51b815260206004820152601960248201527f4552433732313a20617070726f766520746f2063616c6c6572000000000000006044820152606401610505565b3360008181526007602090815260408083206001600160a01b03871680855290835292819020805460ff191686151590811790915590519081529192917f17307eab39ab6107e8899845ad3d59bd9653f200f220920489ca2b5937696c31910160405180910390a35050565b6008546040517f446973747269627574696f6e526967687400000000000000000000000000000060208201526000916001600160a01b031690638eaa6ac090603101610726565b610c233383610fdb565b610c955760405162461bcd60e51b815260206004820152603160248201527f4552433732313a207472616e736665722063616c6c6572206973206e6f74206f60448201527f776e6572206e6f7220617070726f7665640000000000000000000000000000006064820152608401610505565b610ca184848484611354565b50505050565b6000818152600460205260409020546060906001600160a01b0316610d345760405162461bcd60e51b815260206004820152602f60248201527f4552433732314d657461646174613a2055524920717565727920666f72206e6f60448201527f6e6578697374656e7420746f6b656e00000000000000000000000000000000006064820152608401610505565b600060028054610d4390611b81565b905011610de65760008281526003602052604090208054610d6390611b81565b80601f0160208091040260200160405190810160405280929190818152602001828054610d8f90611b81565b8015610ddc5780601f10610db157610100808354040283529160200191610ddc565b820191906000526020600020905b815481529060010190602001808311610dbf57829003601f168201915b50505050506103f8565b600260036000848152602001908152602001600020604051602001610e0c929190611aee565b60405160208183030381529060405292915050565b6008546040517f4164506f6f6c000000000000000000000000000000000000000000000000000060208201526000916001600160a01b031690638eaa6ac090602601610726565b6008546040516351e0e26b60e01b81523360048201526000916001600160a01b0316906351e0e26b9060240160206040518083038186803b158015610eac57600080fd5b505afa158015610ec0573d6000803e3d6000fd5b505050506040513d601f19601f82011682018060405250810190610ee49190611997565b610f185760405162461bcd60e51b8152602060048201526005602482015264415232303160d81b6044820152606401610505565b60098054610f3a918591906000610f2e83611bbc565b919050559250826113dd565b60008181526003602090815260409091208351610f599285019061168f565b5092915050565b6000818152600660205260409020805473ffffffffffffffffffffffffffffffffffffffff19166001600160a01b0384169081179091558190610fa2826108cc565b6001600160a01b03167f8c5be1e5ebec7d5bd14f71427d1e84f3dd0314c0f7b2291e5b200ac8c7c3b92560405160405180910390a45050565b6000818152600460205260408120546001600160a01b03166110545760405162461bcd60e51b815260206004820152602c60248201527f4552433732313a206f70657261746f7220717565727920666f72206e6f6e657860448201526b34b9ba32b73a103a37b5b2b760a11b6064820152608401610505565b600061105f836108cc565b9050806001600160a01b0316846001600160a01b0316148061109a5750836001600160a01b031661108f84610490565b6001600160a01b0316145b806110ca57506001600160a01b0380821660009081526007602090815260408083209388168352929052205460ff165b949350505050565b826001600160a01b03166110e5826108cc565b6001600160a01b0316146111615760405162461bcd60e51b815260206004820152602960248201527f4552433732313a207472616e73666572206f6620746f6b656e2074686174206960448201527f73206e6f74206f776e00000000000000000000000000000000000000000000006064820152608401610505565b6001600160a01b0382166111dc5760405162461bcd60e51b8152602060048201526024808201527f4552433732313a207472616e7366657220746f20746865207a65726f2061646460448201527f72657373000000000000000000000000000000000000000000000000000000006064820152608401610505565b6111e7600082610f60565b6001600160a01b0383166000908152600560205260408120805460019290611210908490611b6a565b90915550506001600160a01b038216600090815260056020526040812080546001929061123e908490611b52565b9091555050600081815260046020526040808220805473ffffffffffffffffffffffffffffffffffffffff19166001600160a01b0386811691821790925591518493918716917fddf252ad1be2c89b69c2b068fc378daa952ba7f163c4a11628f55a4df523b3ef91a4505050565b60006112b7826108cc565b90506112c4600083610f60565b6001600160a01b03811660009081526005602052604081208054600192906112ed908490611b6a565b9091555050600082815260046020526040808220805473ffffffffffffffffffffffffffffffffffffffff19169055518391906001600160a01b038416907fddf252ad1be2c89b69c2b068fc378daa952ba7f163c4a11628f55a4df523b3ef908390a45050565b61135f8484846110d2565b61136b8484848461152c565b610ca15760405162461bcd60e51b815260206004820152603260248201527f4552433732313a207472616e7366657220746f206e6f6e20455243373231526560448201527f63656976657220696d706c656d656e74657200000000000000000000000000006064820152608401610505565b6001600160a01b0382166114335760405162461bcd60e51b815260206004820181905260248201527f4552433732313a206d696e7420746f20746865207a65726f20616464726573736044820152606401610505565b6000818152600460205260409020546001600160a01b0316156114985760405162461bcd60e51b815260206004820152601c60248201527f4552433732313a20746f6b656e20616c7265616479206d696e746564000000006044820152606401610505565b6001600160a01b03821660009081526005602052604081208054600192906114c1908490611b52565b9091555050600081815260046020526040808220805473ffffffffffffffffffffffffffffffffffffffff19166001600160a01b03861690811790915590518392907fddf252ad1be2c89b69c2b068fc378daa952ba7f163c4a11628f55a4df523b3ef908290a45050565b60006001600160a01b0384163b1561168457604051630a85bd0160e11b81526001600160a01b0385169063150b7a0290611570903390899088908890600401611b03565b602060405180830381600087803b15801561158a57600080fd5b505af19250505080156115ba575060408051601f3d908101601f191682019092526115b7918101906119d1565b60015b61166a573d8080156115e8576040519150601f19603f3d011682016040523d82523d6000602084013e6115ed565b606091505b5080516116625760405162461bcd60e51b815260206004820152603260248201527f4552433732313a207472616e7366657220746f206e6f6e20455243373231526560448201527f63656976657220696d706c656d656e74657200000000000000000000000000006064820152608401610505565b805181602001fd5b6001600160e01b031916630a85bd0160e11b1490506110ca565b506001949350505050565b82805461169b90611b81565b90600052602060002090601f0160209004810192826116bd5760008555611703565b82601f106116d657805160ff1916838001178555611703565b82800160010185558215611703579182015b828111156117035782518255916020019190600101906116e8565b5061170f929150611713565b5090565b5b8082111561170f5760008155600101611714565b600067ffffffffffffffff8084111561174357611743611bed565b604051601f8501601f19908116603f0116810190828211818310171561176b5761176b611bed565b8160405280935085815286868601111561178457600080fd5b858560208301376000602087830101525050509392505050565b6000602082840312156117b057600080fd5b81356117bb81611c03565b9392505050565b6000602082840312156117d457600080fd5b81516117bb81611c03565b600080604083850312156117f257600080fd5b82356117fd81611c03565b9150602083013561180d81611c03565b809150509250929050565b60008060006060848603121561182d57600080fd5b833561183881611c03565b9250602084013561184881611c03565b929592945050506040919091013590565b6000806000806080858703121561186f57600080fd5b843561187a81611c03565b9350602085013561188a81611c03565b925060408501359150606085013567ffffffffffffffff8111156118ad57600080fd5b8501601f810187136118be57600080fd5b6118cd87823560208401611728565b91505092959194509250565b600080604083850312156118ec57600080fd5b82356118f781611c03565b9150602083013561180d81611c18565b6000806040838503121561191a57600080fd5b823561192581611c03565b9150602083013567ffffffffffffffff81111561194157600080fd5b8301601f8101851361195257600080fd5b61196185823560208401611728565b9150509250929050565b6000806040838503121561197e57600080fd5b823561198981611c03565b946020939093013593505050565b6000602082840312156119a957600080fd5b81516117bb81611c18565b6000602082840312156119c657600080fd5b81356117bb81611c26565b6000602082840312156119e357600080fd5b81516117bb81611c26565b600060208284031215611a0057600080fd5b5035919050565b6000815180845260005b81811015611a2d57602081850181015186830182015201611a11565b81811115611a3f576000602083870101525b50601f01601f19169290920160200192915050565b8054600090600181811c9080831680611a6e57607f831692505b6020808410821415611a9057634e487b7160e01b600052602260045260246000fd5b818015611aa45760018114611ab557611ae2565b60ff19861689528489019650611ae2565b60008881526020902060005b86811015611ada5781548b820152908501908301611ac1565b505084890196505b50505050505092915050565b60006110ca611afd8386611a54565b84611a54565b60006001600160a01b03808716835280861660208401525083604083015260806060830152611b356080830184611a07565b9695505050505050565b6020815260006117bb6020830184611a07565b60008219821115611b6557611b65611bd7565b500190565b600082821015611b7c57611b7c611bd7565b500390565b600181811c90821680611b9557607f821691505b60208210811415611bb657634e487b7160e01b600052602260045260246000fd5b50919050565b6000600019821415611bd057611bd0611bd7565b5060010190565b634e487b7160e01b600052601160045260246000fd5b634e487b7160e01b600052604160045260246000fd5b6001600160a01b038116811461088257600080fd5b801515811461088257600080fd5b6001600160e01b03198116811461088257600080fdfea264697066735822122019c6f89d0a5c16b34db637a76d295621e63312cdd014c6e2dc6c66355ae1681b64736f6c63430008060033",
  "devdoc": {
    "author": "Shumpei Koike - <shumpei.koike@bridges.inc>",
    "kind": "dev",
    "methods": {
      "adPoolAddress()": {
        "details": "Gets the address of AdPool."
      },
      "approve(address,uint256)": {
        "details": "See {IERC721-approve}."
      },
      "balanceOf(address)": {
        "details": "See {IERC721-balanceOf}."
      },
      "burn(uint256)": {
        "details": "Burns the NFT.",
        "params": {
          "tokenId": "uint256 of the token ID"
        }
      },
      "constructor": {
        "details": "Initializes NFT",
        "params": {
          "baseURI_": "string of the base URI",
          "nameRegistry": "address of NameRegistry",
          "name_": "string of the token name",
          "symbol_": "string of the token symbol"
        }
      },
      "distributionRightAddress()": {
        "details": "Gets the address of DistributionRight."
      },
      "getApproved(uint256)": {
        "details": "See {IERC721-getApproved}."
      },
      "isApprovedForAll(address,address)": {
        "details": "See {IERC721-isApprovedForAll}."
      },
      "mint(address,string)": {
        "details": "Mints a new NFT.",
        "params": {
          "account": "address of the token owner"
        }
      },
      "name()": {
        "details": "See {IERC721Metadata-name}."
      },
      "nameRegistryAddress()": {
        "details": "Gets the address of NameRegistry"
      },
      "owner()": {
        "details": "Gets the owner address."
      },
      "ownerOf(uint256)": {
        "details": "See {IERC721-ownerOf}."
      },
      "reservedRightAddress()": {
        "details": "Gets the address of ReservedRight."
      },
      "safeTransferFrom(address,address,uint256)": {
        "details": "See {IERC721-safeTransferFrom}."
      },
      "safeTransferFrom(address,address,uint256,bytes)": {
        "details": "See {IERC721-safeTransferFrom}."
      },
      "setApprovalForAll(address,bool)": {
        "details": "See {IERC721-setApprovalForAll}."
      },
      "supportsInterface(bytes4)": {
        "details": "See {IERC165-supportsInterface}."
      },
      "symbol()": {
        "details": "See {IERC721Metadata-symbol}."
      },
      "tokenURI(uint256)": {
        "details": "See {IERC721Metadata-tokenURI}."
      },
      "transferByAllowedContract(address,address,uint256)": {
        "details": "Transfers the NFT.",
        "params": {
          "from": "address of the current owner",
          "to": "address of the next owner",
          "tokenId": "uint256 of the token ID"
        }
      },
      "transferFrom(address,address,uint256)": {
        "details": "See {IERC721-transferFrom}."
      },
      "vaultAddress()": {
        "details": "Gets the address of Vault."
      }
    },
    "title": "ReservedRight - represents a reservation of advertising distribution rights.",
    "version": 1
  },
  "userdoc": {
    "kind": "user",
    "methods": {},
    "version": 1
  },
  "storageLayout": {
    "storage": [
      {
        "astId": 2111,
        "contract": "contracts/token/ReservedRight.sol:ReservedRight",
        "label": "_name",
        "offset": 0,
        "slot": "0",
        "type": "t_string_storage"
      },
      {
        "astId": 2113,
        "contract": "contracts/token/ReservedRight.sol:ReservedRight",
        "label": "_symbol",
        "offset": 0,
        "slot": "1",
        "type": "t_string_storage"
      },
      {
        "astId": 2115,
        "contract": "contracts/token/ReservedRight.sol:ReservedRight",
        "label": "_baseURI",
        "offset": 0,
        "slot": "2",
        "type": "t_string_storage"
      },
      {
        "astId": 2119,
        "contract": "contracts/token/ReservedRight.sol:ReservedRight",
        "label": "_tokenURIs",
        "offset": 0,
        "slot": "3",
        "type": "t_mapping(t_uint256,t_string_storage)"
      },
      {
        "astId": 2123,
        "contract": "contracts/token/ReservedRight.sol:ReservedRight",
        "label": "_owners",
        "offset": 0,
        "slot": "4",
        "type": "t_mapping(t_uint256,t_address)"
      },
      {
        "astId": 2127,
        "contract": "contracts/token/ReservedRight.sol:ReservedRight",
        "label": "_balances",
        "offset": 0,
        "slot": "5",
        "type": "t_mapping(t_address,t_uint256)"
      },
      {
        "astId": 2131,
        "contract": "contracts/token/ReservedRight.sol:ReservedRight",
        "label": "_tokenApprovals",
        "offset": 0,
        "slot": "6",
        "type": "t_mapping(t_uint256,t_address)"
      },
      {
        "astId": 2137,
        "contract": "contracts/token/ReservedRight.sol:ReservedRight",
        "label": "_operatorApprovals",
        "offset": 0,
        "slot": "7",
        "type": "t_mapping(t_address,t_mapping(t_address,t_bool))"
      },
      {
        "astId": 526,
        "contract": "contracts/token/ReservedRight.sol:ReservedRight",
        "label": "_nameRegistry",
        "offset": 0,
        "slot": "8",
        "type": "t_contract(NameRegistry)725"
      },
      {
        "astId": 2910,
        "contract": "contracts/token/ReservedRight.sol:ReservedRight",
        "label": "nextTokenId",
        "offset": 0,
        "slot": "9",
        "type": "t_uint256"
      }
    ],
    "types": {
      "t_address": {
        "encoding": "inplace",
        "label": "address",
        "numberOfBytes": "20"
      },
      "t_bool": {
        "encoding": "inplace",
        "label": "bool",
        "numberOfBytes": "1"
      },
      "t_contract(NameRegistry)725": {
        "encoding": "inplace",
        "label": "contract NameRegistry",
        "numberOfBytes": "20"
      },
      "t_mapping(t_address,t_bool)": {
        "encoding": "mapping",
        "key": "t_address",
        "label": "mapping(address => bool)",
        "numberOfBytes": "32",
        "value": "t_bool"
      },
      "t_mapping(t_address,t_mapping(t_address,t_bool))": {
        "encoding": "mapping",
        "key": "t_address",
        "label": "mapping(address => mapping(address => bool))",
        "numberOfBytes": "32",
        "value": "t_mapping(t_address,t_bool)"
      },
      "t_mapping(t_address,t_uint256)": {
        "encoding": "mapping",
        "key": "t_address",
        "label": "mapping(address => uint256)",
        "numberOfBytes": "32",
        "value": "t_uint256"
      },
      "t_mapping(t_uint256,t_address)": {
        "encoding": "mapping",
        "key": "t_uint256",
        "label": "mapping(uint256 => address)",
        "numberOfBytes": "32",
        "value": "t_address"
      },
      "t_mapping(t_uint256,t_string_storage)": {
        "encoding": "mapping",
        "key": "t_uint256",
        "label": "mapping(uint256 => string)",
        "numberOfBytes": "32",
        "value": "t_string_storage"
      },
      "t_string_storage": {
        "encoding": "bytes",
        "label": "string",
        "numberOfBytes": "32"
      },
      "t_uint256": {
        "encoding": "inplace",
        "label": "uint256",
        "numberOfBytes": "32"
      }
    }
  }
}