{
  "address": "0x582aB363e3E34d563B537CD247E48e772EE6bb82",
  "abi": [
    {
      "inputs": [
        {
          "internalType": "uint256",
          "name": "newFromTimestamp",
          "type": "uint256"
        },
        {
          "internalType": "uint256",
          "name": "currentToTimestamp",
          "type": "uint256"
        }
      ],
      "name": "isFuture",
      "outputs": [
        {
          "internalType": "bool",
          "name": "",
          "type": "bool"
        }
      ],
      "stateMutability": "pure",
      "type": "function"
    },
    {
      "inputs": [
        {
          "internalType": "uint256",
          "name": "newFromTimestamp",
          "type": "uint256"
        },
        {
          "internalType": "uint256",
          "name": "newToTimestamp",
          "type": "uint256"
        },
        {
          "internalType": "uint256",
          "name": "currentFromTimestamp",
          "type": "uint256"
        },
        {
          "internalType": "uint256",
          "name": "currentToTimestamp",
          "type": "uint256"
        }
      ],
      "name": "isOverlapped",
      "outputs": [
        {
          "internalType": "bool",
          "name": "",
          "type": "bool"
        }
      ],
      "stateMutability": "pure",
      "type": "function"
    },
    {
      "inputs": [
        {
          "internalType": "uint256",
          "name": "newToTimestamp",
          "type": "uint256"
        },
        {
          "internalType": "uint256",
          "name": "currentFromTimestamp",
          "type": "uint256"
        }
      ],
      "name": "isPast",
      "outputs": [
        {
          "internalType": "bool",
          "name": "",
          "type": "bool"
        }
      ],
      "stateMutability": "pure",
      "type": "function"
    }
  ],
  "transactionHash": "0x7ded34105c50087e68062d63c31154171a765c31afec8c320c7e1dcde99814ef",
  "args": [],
  "solcInputHash": "289fa2710193a113c0b3ec7823c19cab",
  "bytecode": "0x61012961003a600b82828239805160001a60731461002d57634e487b7160e01b600052600060045260246000fd5b30600052607381538281f3fe730000000000000000000000000000000000000000301460806040526004361060475760003560e01c8063313621eb14604c578063863c5a0214606f5780638cb44d3e14607e575b600080fd5b605b605736600460a1565b1190565b604051901515815260200160405180910390f35b605b607a36600460a1565b1090565b605b608936600460c2565b600083831180609757508482105b1595945050505050565b6000806040838503121560b357600080fd5b50508035926020909101359150565b6000806000806080858703121560d757600080fd5b505082359460208401359450604084013593606001359250905056fea2646970667358221220b69b0848693b5f34c5c16546ce501a8c0b864012db1a8ff1a18570bc99d3b46e64736f6c63430008090033",
  "devdoc": {
    "kind": "dev",
    "methods": {},
    "version": 1
  },
  "userdoc": {
    "kind": "user",
    "methods": {},
    "version": 1
  },
  "storageLayout": {
    "storage": [],
    "types": null
  }
}