{
  "address": "0x4F99716774640cb51F0645833b63bf87f0201a2c",
  "abi": [
    {
      "inputs": [
        {
          "internalType": "string",
          "name": "_base",
          "type": "string"
        },
        {
          "internalType": "int256",
          "name": "_length",
          "type": "int256"
        },
        {
          "internalType": "int256",
          "name": "_offset",
          "type": "int256"
        }
      ],
      "name": "substring",
      "outputs": [
        {
          "internalType": "string",
          "name": "",
          "type": "string"
        }
      ],
      "stateMutability": "pure",
      "type": "function"
    },
    {
      "inputs": [
        {
          "internalType": "string",
          "name": "_base",
          "type": "string"
        },
        {
          "internalType": "int256",
          "name": "_length",
          "type": "int256"
        }
      ],
      "name": "substring",
      "outputs": [
        {
          "internalType": "string",
          "name": "",
          "type": "string"
        }
      ],
      "stateMutability": "pure",
      "type": "function"
    }
  ],
  "transactionHash": "0x37e64d66c36741afcca1bdad30ac873c4612066be21069e8e0d425b789192522",
  "args": [],
  "solcInputHash": "6ca65f67efc8f2cae2a93f9d484f35a0",
  "bytecode": "0x6103e661003a600b82828239805160001a60731461002d57634e487b7160e01b600052600060045260246000fd5b30600052607381538281f3fe73000000000000000000000000000000000000000030146080604052600436106100405760003560e01c806315ad73a5146100455780638f0563b91461006e575b600080fd5b61005861005336600461022a565b610081565b6040516100659190610278565b60405180910390f35b61005861007c3660046102cd565b610172565b825160609084906100928585610328565b11156100a0576100a0610369565b60008467ffffffffffffffff8111156100bb576100bb610187565b6040519080825280601f01601f1916602001820160405280156100e5576020820181803683370190505b509050806000855b6100f78888610328565b811015610165578481815181106101105761011061037f565b01602001516001600160f81b031916838361012a81610395565b94508151811061013c5761013c61037f565b60200101906001600160f81b031916908160001a9053508061015d81610395565b9150506100ed565b5090979650505050505050565b606061018083836000610081565b9392505050565b634e487b7160e01b600052604160045260246000fd5b600082601f8301126101ae57600080fd5b813567ffffffffffffffff808211156101c9576101c9610187565b604051601f8301601f19908116603f011681019082821181831017156101f1576101f1610187565b8160405283815286602085880101111561020a57600080fd5b836020870160208301376000602085830101528094505050505092915050565b60008060006060848603121561023f57600080fd5b833567ffffffffffffffff81111561025657600080fd5b6102628682870161019d565b9660208601359650604090950135949350505050565b600060208083528351808285015260005b818110156102a557858101830151858201604001528201610289565b818111156102b7576000604083870101525b50601f01601f1916929092016040019392505050565b600080604083850312156102e057600080fd5b823567ffffffffffffffff8111156102f757600080fd5b6103038582860161019d565b95602094909401359450505050565b634e487b7160e01b600052601160045260246000fd5b600080821280156001600160ff1b038490038513161561034a5761034a610312565b600160ff1b839003841281161561036357610363610312565b50500190565b634e487b7160e01b600052600160045260246000fd5b634e487b7160e01b600052603260045260246000fd5b60006000198214156103a9576103a9610312565b506001019056fea2646970667358221220312cf3b4ab6657e6684a9bd0da69f80700683938ee5b2a96182821eb9def1dcf64736f6c63430008090033",
  "devdoc": {
    "author": "Shumpei Koike - <shumpei.koike@bridges.inc>",
    "kind": "dev",
    "methods": {
      "substring(string,int256)": {
        "params": {
          "_base": "When being used for a data type this is the extended object              otherwise this is the string that will be used for              extracting the sub string from",
          "_length": "The length of the sub string to be extracted from the base"
        },
        "returns": {
          "_0": "string The extracted sub string"
        }
      },
      "substring(string,int256,int256)": {
        "params": {
          "_base": "When being used for a data type this is the extended object              otherwise this is the string that will be used for              extracting the sub string from",
          "_length": "The length of the sub string to be extracted from the base",
          "_offset": "The starting point to extract the sub string from"
        },
        "returns": {
          "_0": "string The extracted sub string"
        }
      }
    },
    "title": "Substrings - utilities for Substrings.",
    "version": 1
  },
  "userdoc": {
    "kind": "user",
    "methods": {
      "substring(string,int256)": {
        "notice": "Sub String Extracts the beginning part of a string based on the desired length"
      },
      "substring(string,int256,int256)": {
        "notice": "Sub String Extracts the part of a string based on the desired length and offset. The offset and length must not exceed the lenth of the base string."
      }
    },
    "version": 1
  },
  "storageLayout": {
    "storage": [],
    "types": null
  }
}